:100000000C9430050C944D050C944D050C94233440
:100010000C944D050C944D050C944D050C944D0518
:100020000C944D050C944D050C94F4190C94B019D6
:100030000C94972B0C944D050C944D050C944D0588
:100040000C944D050C944D050C944D050C944D05E8
:100050000C944D050C94CD1A0C944D050C944D0543
:100060000C944D050C944D050C944D050C944D05C8
:100070000C944D050C944D050C944D050C944D05B8
:100080000C944D050C944D050C944D050C944D05A8
:100090000C944D050C944D050C944D050C944D0598
:1000A0000C944D050C944D050C944D050E000F005D
:1000B00000000D000E0000001000360000001800C7
:1000C0000C0000000D000900000014001A000000E0
:1000D00009001C0000000900110000000D000800CC
:1000E000000009000B0000000D00040000000900E2
:1000F000180000000D0007000000090013000000B8
:100100000D00050000000D001A0000000D00160093
:1001100000000D001400000005010902A101850284
:100120000901A100050919012908150025019508F3
:10013000750181020501093009311581257F95027C
:100140007508810609381581257F95017508810696
:10015000050C0A38021581257F950175088106C0B6
:10016000C00660FF0961A1010962150026FF009524
:1001700020750881020963150026FF009520750887
:100180009102C005010906A101050719E029E7153B
:100190000025019508750181029501750881010509
:1001A00007190029FF150026FF0095067508810034
:1001B000050819012905150025019505750191020C
:1001C000950175039101C0000000000000000000CF
:1001D000000000000000000000000000000000001F
:1001E00000000000000000000000007E0F00D4FFAF
:1001F000FFFFC70000007800000000000000002A98
:100200002B2800000000000000000000000000009B
:10021000000029000000002C1E3420212224342656
:1002200027252E362D3738271E1F2021222324254F
:10023000263333362E37381F0405060708090A0B04
:100240000C0D0E0F101112131415161718191A1B76
:100250001C1D2F3130232D350405060708090A0B14
:100260000C0D0E0F101112131415161718191A1B56
:100270001C1D2F3130354C616263646566676869A7
:100280006A6B6C6D6E6F7071727374757677787956
:100290007A31323334353637383930524542545F4B
:1002A0002D3D5B5D5C233B27602C2E2F00DA028105
:1002B000FFD9F1DB20A4A62EAF00A0C0D30000A17F
:1002C000C8D30000AED580A81F408D1420000001C7
:1002D0000101010101010101020202020202020206
:1002E00002030303030303030304040404040404D8
:1002F000050505050506060606060707070707089C
:10030000080808090909090A0A0A0B0B0B0C0C0C4E
:100310000D0D0D0E0E0E0F0F0F10101111111212E8
:1003200013131414151516161717181819191A1A65
:100330001B1B1C1D1D1E1E1F2020212222232424C6
:10034000252626272829292A2B2C2D2D2E2F303102
:100350003232333435363738393A3B3C3D3E3F4014
:100360004142434445464748494A4C4D4E4F5051FF
:100370005354555658595A5B5D5E5F6162646566B9
:1003800068696B6C6D6F7072737577787A7B7D7E40
:100390008082838587888A8C8E8F91939596989A90
:1003A0009C9EA0A2A3A5A7A9ABADAFB1B3B5B7BAA8
:1003B000BCBEC0C2C4C6C9CBCDCFD1D4D6D8DBDD7C
:1003C000DFE2E4E7E9EBEEF0F3F5F8FAFDFF00AF6A
:1003D00000AE202000BABB004B657920B10020C0E0
:1003E000C100BEBF00484F005654003030200020EE
:1003F000202020B1BCBD0042616C6CB100B4B500DE
:10040000B2B300C2C3004CB6B772B10020200029BD
:100410000014001A000800150017002B0004001635
:1004200000070009000A00E1001D001B000600197A
:100430000005000000E200E30091212C4190434CB4
:1004400000130012000C0018001C00240233000FDF
:10045000000E000D000B008700380037003600103A
:1004600000110000004600E600913128422A000FEA
:100470007E3A003B003C003D003E000D7E01000145
:1004800000520028004C000E7E0100500051004F29
:10049000002A0000000100010001000100010044E9
:1004A0000043004200410040003F004500D300D21D
:1004B000005200D1004B00010001004F00510050DC
:1004C000004E0000000100010001000100010001D8
:1004D00000340224002500260025020100330221F9
:1004E0000022002300300001002D021E001F00200A
:1004F0000030020000270037000100010001000168
:100500000021022F0023021E0226021F02340020B7
:10051000022E022D003200890238022F022E00879F
:10052000023202000001000100010001004C002025
:10053000780A7E0B7E0C7E0100010021782378254D
:100540007827780100087E22782478267828780198
:1005500000097E0000007C007E01000100010030E7
:10056000782F782E782D782C782B780100010034A4
:1005700078337832783178017E0100047E027E0380
:100580007E057E0000007C007E010001000100016C
:100590000001000100010001000100010001000153
:1005A0000001000100010001000100010001000143
:1005B0000001000000010001000100010001000134
:1005C0000001000100010001000100010001000123
:1005D0000001000100010001000100010001000113
:1005E00000010000000100010001000100010009FC
:1005F000025B00030100A0FA0904000001030101ED
:1006000000092111010001224400070581030800AF
:100610000109040100020300000009211101000189
:1006200022220007058203200001070503032000A2
:100630000109040200010300000009211101000169
:100640002249000705840320000112010002000076
:1006500000085759000400010102000114034B0077
:1006600065007900620061006C006C0034003400A9
:100670000000100359006F0077006B0065006500F3
:1006800073000000040309040000000000000000E3
:100690002F000000000700070000123F123F120069
:1006A000242A7F2A120036091E241B00182629122C
:1006B0002800000007000000001E2140000000404C
:1006C000211E000014083E08140008083E08080017
:1006D00000003070000008080808080000003030F2
:1006E000000020100C0201001E2925231E000022FC
:1006F0003F200000223129292600122125251A0039
:100700001814123F10001725252518001E25252531
:1007100018000131090503001A2525251A000629AC
:1007200029291E000000333300000000337300004D
:100730000814142222001414141414002222141475
:1007400008000201290502003E59555D3E00381699
:10075000111638003F2525251A001E2121211200DF
:100760003F2121211E003F25252521003F090909A0
:1007700001001E2121291A003F0404043F0000212A
:100780003F210000102020201F003F040C122100F8
:100790003F20202020003F0204023F003F020C10B7
:1007A0003F001E2121211E003F09090906001E21CC
:1007B00029112E003F0909192600122525291200AA
:1007C00001013F0101001F2020201F0007182018F1
:1007D00007000F300C300F0021120C12210003040F
:1007E00038040300312925232100007F4141000006
:1007F00001020C1020000041417F000004020102B0
:100800000400404040404000000103040000102A62
:100810002A2A3C003F2422221C001C2222222400DF
:100820001C2222243F001C2A2A2A0C0000043E0518
:1008300005000C5252543E003F08040438000000EA
:100840003D0000002040403D00003F080814220009
:1008500000013F2000003E023C023C003E04020238
:100860003C001C2222221C007E1422221C001C227E
:1008700022147E003E0402020400242A2A2A1200C6
:1008800000021F2200001E2020103E000618201823
:1008900006000E300C300E002214081422000E50F8
:1008A00050483E0022322A262200080877414100A3
:1008B00000007F000000414177080800180408107C
:1008C0000C0000000000000000000000000000001C
:1008D00000000000C0F0F88C86C6E7FFFFFFFFFFB6
:1008E000FFFEFCFCF8E080000000F0F0F00000C02B
:1008F000E0F0707000000000000000000000000048
:1009000000000000000000000000F8F8F8000000FF
:1009100000000000000000000000000000000000D7
:10092000F8F8F80000F8F8F8000000000080E07027
:1009300078686C64C7C7C7C7C7C7E73F1F0F3FFFCB
:10094000FFFFFFFFFF3F0F000000FFFFFF1E3FFF05
:10095000F3E1800000F8FCFE3636363EBCB8000EEF
:100960003EFEF080F0FE3E0E0000FFFFFF06060692
:10097000FEFEFC7000E6F6F63636FEFEFC000000D9
:10098000FFFFFF0000FFFFFF000000003C7F6360EF
:10099000E0C0C0C0C0C0C0C0C0FFFFC06030180F02
:1009A0000303030100000000000003030300000034
:1009B00003030303000103030303030303010070A4
:1009C00070393F1F07010000000001030303030308
:1009D00003030100000103030303030301000000FC
:1009E00003030300000303030010101000000000C5
:1009F000550000003E635D5D637F417B77413E00B3
:100A0000001C22221C003E0A003E0A00322A3C0042
:100A100026281E001C2A2C0000003F09360000007A
:100A20001E212100000000003F0837001E21210088
:100A30001E2121003F090600213F21002225190027
:100A40001E2121003F0936003F211E00213F2100C9
:100A50000F300F003E093E003F063F003F202000C0
:100A600011241FBECFEFDAE0DEBFCDBF12E0A0E061
:100A7000B1E0E4E8FDE602C005900D92A435B107AF
:100A8000D9F727E0A4E5B2E001C01D92AE31B2076C
:100A9000E1F70E94BE2B0C9472360C940000482F94
:100AA000209110059091C70459E0291302C080E0FD
:100AB000089530E0529FF001539FF00D1124E85348
:100AC000FB4F8181681306C08081481303C0858174
:100AD0008111EECF2F5F3F4F2770E7CFE8EDF0E0B9
:100AE00080818E7F80831092E2001092DA00109253
:100AF000E100A0EEB0E08C9181608C9380818F77D3
:100B0000808319BCA7EDB0E08C918E7F8C9380819F
:100B10008F7E80831092AF0408952091E40030917D
:100B2000E50095E6A9012091EC00822F817020FF5D
:100B300006C08091E80080FF06C080E00895209103
:100B4000E80022FD1AC08091BD04882389F0853019
:100B500089F08091EB0085FD0FC02091E400309179
:100B6000E50042175307F9F29150E1F684E0089549
:100B700082E0089583E0089581E008958091BF04A4
:100B800087FF13C08091E80082FF06C08091E800D3
:100B90008B778093E80004C08091BD048111F2CF6F
:100BA00008958091BD048823D9F38091E80080FFE7
:100BB000F8CF8091E8008E77ECCF982F9093E900E2
:100BC000242F762F50E0891731F07091EC0020919E
:100BD000ED005091F00021FD07C09F5F973071F745
:100BE0008093E90081E008953091EB003E7F3093DF
:100BF000EB003091ED003D7F3093ED003091EB0044
:100C000031603093EB007093EC002093ED00509333
:100C1000F0002091EE0027FDE0CF80E00895B0E0E5
:100C2000A0E0E5E1F6E00C945D35C8EDD0E0888108
:100C30008F7E8883E7EDF0E080818160808384E0AF
:100C400082BF81E08093AF0488818E7F888302EE2B
:100C500010E0F80110821092DA0081EEC82ED12C3B
:100C6000F601108288818F778883888180688883E5
:100C700088818F7D888319BC1092BD041092BE04B8
:100C80001092BC041092BB0490EEE92EF12CF701F7
:100C900080818B7F808388818160888342E060E0EF
:100CA00080E00E94DD05F60180818E7F8083F8015F
:100CB000808181608083808188608083F70180816A
:100CC0008E7F8083888180618883CDB7DEB7E8E03E
:100CD0000C947935FC018091C5049091C604861767
:100CE0009707A0F06115710529F49091E8009E77AF
:100CF0009093E80090E06115710551F4911108C0DE
:100D00008091E80082FF34C080E00895BC01F2CFFA
:100D10008091BD048823C1F18530C1F18091E80044
:100D200083FD30C08091E80082FDEACF8091E80029
:100D300080FFE1CF8091F3002091F200382F611500
:100D4000710519F02830310558F091E0283031054F
:100D500009F090E02091E8002E772093E800CBCFB7
:100D600081918093F100615071092F5F3F4FE7CF70
:100D70008091BD04882341F0853041F08091E800E6
:100D800083FFBECF81E0089582E0089583E0089557
:100D900008958091B204089587E797E7909301083A
:100DA0008093000888E19AE00FB6F894A8958093A4
:100DB00060000FBE90936000FFCF2FB7F894609152
:100DC000AB047091AC048091AD049091AE042FBF40
:100DD0000895DC016091A4048091A504962F8913E5
:100DE00001C00895292F30E0F901EE0FFF1FE456EE
:100DF000FB4F408151814A175B07A1F487E08A9F2E
:100E0000A0018B9F500D112444585E4F81E0FA01E0
:100E100084839613E6CF2F5F3F4F237033272093B1
:100E2000A40408952F5F3F4F922F9370D8CF109254
:100E3000300410922F04ECE7F1E08581811102C0AB
:100E400014821682379681E0EA3FF807B1F70895D9
:100E5000FC01680F791F8FEF91E32191822728E031
:100E600030E087FF09C0880F892721503109C9F771
:100E7000E617F70791F70895880FF7CFFA01811168
:100E800001C0FB01099508958091FC03982F9E7F76
:100E900071F48091FC03817082608093FC038091E7
:100EA000FF03873918F086E98093FF0308958430A3
:100EB00080F7F5CF90917401882341F09F5F909364
:100EC0007401109271011092700108959150F7CF42
:100ED000E9E6F1E0828591E0892782871086178212
:100EE000089580917201811114C080917401811163
:100EF00010C08091730181110CC0909144039695AC
:100F00009695969581E020916A01921380E0817018
:100F1000089581E0FCCFCF93DF93E1E0F2E083819D
:100F20009481A581B681E90188839983AA83BB83D3
:100F30001482138216821582DF91CF91089580E08A
:100F4000089563E070E081EB92E00E9428079091A1
:100F5000B002891318C0E091B102EC30A4F488E02B
:100F6000E802F0011124EF5FFE4F0680F781E02DCB
:100F7000309749F024ED32E04091B30264EB72E027
:100F80008091B20209950895EBE9F2E08789809398
:100F90003101808D809344010895F894E82FE29503
:100FA000EF70F0E031A1282F2F7081E090E001C0B8
:100FB000880F2A95EAF7982F9095932391A392A1F1
:100FC000892B82A378940895811522E5920780F5F4
:100FD000811530E5930708F0ABC0883E9105A0F479
:100FE000803E910558F4853A910548F48430910586
:100FF00028F48130910511F090E080E008958D3C57
:101000009105D0F390650895811540E4940708F0A8
:1010100044C0811550E2950708F0A3C0811561E036
:10102000960750F320E0392FA901482BCA010895F3
:10103000803872E59707A8F4803622E5920708F019
:101040005AC0803432E5930708F03FC0803242E551
:10105000940730F18F7190E0982F8827816F906A04
:101060000895803C52E5950760F4282F2F71803A4F
:10107000924508F456C0822F90E0982F88279062FE
:101080000895803E72E5970708F0B6CF982F88271D
:1010900088279F71806F906A08959F70906A089565
:1010A000282F2695269550E2259F900111248370C4
:1010B00041E050E0BA0102C0660F771F8A95E2F75F
:1010C000CB01822B932B9D680895282F269526957A
:1010D000277070E2279F90011124837041E050E057
:1010E000BA0102C0660F771F8A95E2F7CB01822B07
:1010F000932B9C680895282F26952695277070E2DB
:10110000279F90011124837041E050E0BA0102C092
:10111000660F771F8A95E2F7CB01822B932B9A6893
:101120000895822F90E0982F8827846F906A089501
:101130009C0195E0369527959A95E1F72F7030E060
:10114000322F2227482F4F7150E084FF05C084E0E2
:10115000440F551F8A95E1F7C901842B952B90699F
:1011600008959F718CCF80959091B00498239093AF
:10117000B0040895809110059091C704981301C0A0
:1011800008958F5F8770FACF292F983078F58630D1
:1011900068F590E036E0239F800D911D1124682FA3
:1011A000677023E0969587952A95E1F7FC01EE0F8D
:1011B000FF1FE80FF91FE759FD4F50E040E080E0C6
:1011C000219130E0062E02C0369527950A94E2F769
:1011D00021703327042E01C0220F0A94EAF7822BD4
:1011E0004F5F5F4F4330510559F7089580E00895F0
:1011F000292F983098F5863088F590E036E0239FC7
:10120000800D911D1124282F277041E001C0440F4B
:101210002A95EAF723E0969587952A95E1F7FC0150
:10122000EE0FFF1FE80FF91FE759FD4F30E020E0F8
:1012300070E05191DF011197CB01022E02C096950B
:1012400087950A94E2F78170819585278423852705
:101250008C932F5F3F4F2330310559F708958093CA
:101260008D020895982F92959F7011F0892F94E028
:10127000282F2695269511F09E5F822F869509F0DE
:101280009F5F892F0895CF93C82F80910E028C17EE
:1012900051F00E94DD0660930F027093100280935C
:1012A000110290931202C0930E02CF910895B0E004
:1012B000A0E0EDE5F9E00C945D358C01EB01E091E7
:1012C0001302E11101C0E7E0E150FF0B81E090E083
:1012D0006C010E2E02C0CC0CDD1C0A94E2F7D80182
:1012E000ED90FC90C701B6010E94A4359B01CB0193
:1012F0000E2E02C0880F991F0A94E2F7E81AF90A25
:10130000D8011196FC92EE921296ED90FC90C701D6
:10131000B6010E94A435CB0102C0880F991FEA953F
:10132000E2F7E81AF90AF801F382E2826138FFEF86
:101330007F07F4F060387105ECF46D8321388FEF8E
:101340003807D4F020383105CCF4822F81958C8376
:10135000442319F061956D832C83809114028823B6
:1013600079F0813079F0CDB7DEB7E8E00C947935CB
:1013700061E8E3CF6FE7E1CF21E8E7CF2FE7E5CFE3
:101380001D82F1CF1C82EFCFFC01DB012281338172
:1013900091E821388FEF38072CF0922F2038310553
:1013A0000CF09FE712969C9312972081318121388F
:1013B0008FEF3807A4F0203831059CF413962C9356
:1013C0001397442339F0919512969C931297219587
:1013D00013962C931182108213821282089521E8B1
:1013E000EDCF2FE7EBCF8F708A3010F4805D08953A
:1013F000895A0895382F20E287FF02C031952DE2E7
:101400004AE0832F642F0E949635905D909361028D
:1014100081110BC02093600220E220935F0220E242
:1014200020935E028EE592E00895642F0E94963527
:10143000905D90936002832F64E60E949635882326
:1014400061F3805D80935F02EBCF9C01860F971F55
:1014500037FD07C077FD04C097FF02C08FEF9FE7FD
:10146000089577FFFDCF97FDFBCF80E090E80895CA
:10147000E2E7F1E083E0DF011D928A95E9F7EEE60D
:10148000F1E084E0DF011D928A95E9F7089520914B
:101490006B0130916C012817390731F090936C0182
:1014A00080936B010E94380A089590916901981702
:1014B00021F0809369010E94380A0895CF9390919A
:1014C0003F0380913803981323C080914003882301
:1014D00021F09091390389131BC080914103882327
:1014E00021F090913A03891313C08091430388231C
:1014F00021F090913C0389130BC0909142039923F2
:1015000029F081E020913B03291303C080E001C052
:1015100081E0C82FC17080FF0FC0E091A804F09156
:10152000A904309749F082E080933E030480F5815E
:10153000E02D8EE393E0099590913F0386E0EEE382
:10154000F3E0DF01282F1D922A95E9F790933F03DE
:10155000A7E3B3E001900D928A95E1F781E0C11114
:1015600003C0911101C080E08170CF9108952FE2F6
:10157000280F283078F481E090E001C0880F2A9588
:10158000EAF720913F03662331F0822B80933F03DB
:101590000E945E0A089580958223F8CFCF93DF934F
:1015A000282F81E02A3019F02D3031F480E00E949C
:1015B000620BDF91CF91089580911A0790911B07DC
:1015C00036E0FC01A4E1B7E001900D923A95E1F715
:1015D00030EE320F343A08F458C026E0FC01119284
:1015E0002A95E9F7C0911A07D0911B0746E050E011
:1015F000BE0184E197E00E9404369E0124513540EB
:10160000892B41F1C90145E0969587954A95E1F707
:1016100041E050E0BA0102C0660F771F8A95E2F7F9
:10162000CB016091120570911305862B972BB901A0
:101630006B5F7F4FE5E076956795EA95E1F702C02D
:10164000440F551F6A95E2F7842B952B9093130551
:10165000809312052A5F3F4F40911105642F70E07F
:10166000C9010E943F35481B463010F4240F311D3C
:10167000211572E0370710F030E020E02C5E3A4F81
:1016800030931B0720931A0794CF2052330B46E068
:10169000429FB001439F700D11246857794F46E077
:1016A00050E00E94FB359ECFCF93DF93EC01FE010B
:1016B0008491811103C0DF91CF9108950E94CE0AD9
:1016C0002196F5CFCF93382FE0911A07F0911B07A1
:1016D000E451F54020911105622F70E0CF010E9486
:1016E0003F35281B822F332361F066E00E948A3544
:1016F000C82FC15010F4CF91089580E20E94CE0A05
:10170000F8CF9F01280F311D2115324018F080E0DD
:10171000F0E0E0E08E0F9F2F911D8C5E9A4F90932A
:101720001B0780931A07E7CF8091B0049091310492
:10173000892B8093560290918C02992391F0892BEA
:101740008093560220E088E592E0FC013191CF01C0
:1017500031112F5FF2E08E359F07B9F721111092FA
:101760008C0248E050E064E872E086E592E00E9476
:101770000436892BA9F088E0E6E5F2E0A4E8B2E0BF
:1017800001900D928A95E1F7E091A804F091A904E7
:10179000309731F00280F381E02D86E592E00995E3
:1017A0000895E8E5F2E086E0DF011D928A95E9F709
:1017B000109231040E94940B0895AAE2B0E0E3EE87
:1017C000FBE00C9462358FEB94E02091F100DC019A
:1017D0002D93CD01B4E0873C9B07B9F78091C004FD
:1017E000833009F472C0B8F4813009F449C0823002
:1017F00009F4B5C08091E80083FF8DC28091BF04D9
:101800009091C0049A3008F086C2E92FF0E0EC58BD
:10181000F94C0C94B8358A3009F490C08B3009F437
:1018200071C0893039F78091BF04813219F78091F6
:10183000C3049091C404009711F00297D9F68091E7
:10184000E800877F8093E8008091E80082FF38C03D
:101850009091F3008091F200029731F48091F100B1
:10186000813011F0863021F48091F1008093B20430
:101870008091E8008B778093E8000E94BE05BACF84
:101880008091BF04813A09F0B5CF8091E800877F4D
:101890008093E8008091C3049091C404892B61F483
:1018A00068E083EB94E070E00E946A068091E800B3
:1018B0008B778093E8009ECF60E090E080E0F3CFEC
:1018C0008091BD048111C0CF95CF8091BF04813A32
:1018D00009F090CF8091C3049091C404892B09F042
:1018E00089CF8091E800877F8093E8008091E800AD
:1018F00080FFFCCF8091FB018093F1008091E80094
:101900008E77B9CF8091BF04813209F073CF809177
:10191000C3049091C404892B09F06CCF8091E80036
:10192000877F8093E8000E94BE058091C104809368
:10193000FB011092B0040E94D10B5CCF8091BF04D8
:10194000813209F057CF8091E800877F8093E800CB
:101950000E94BE058091C2048093B1044BCF809158
:10196000BF04813A09F046CF8091E800877F8093D9
:10197000E8008091E80080FFFCCF8091B104BCCFEB
:10198000803899F0823809F0C6C18091C3048F7005
:10199000873008F0C0C18093E9008091EB0085FB9F
:1019A000882780F91092E90006C08091BB049091CD
:1019B000BC04911182609091E800977F9093E800B9
:1019C0008093F1001092F1008091E8008E779FC122
:1019D000882309F48DC1823009F09DC18091C10432
:1019E000811190C18091C3048F702FEF280F263092
:1019F00008F091C18093E9002091EB0020FF82C1A3
:101A0000933031F48091EB0080628093EB007AC1D7
:101A10009091EB0090619093EB0021E030E001C0E9
:101A2000220F8A95EAF72093EA001092EA0080914B
:101A3000EB008860EACF81116EC11091C1041F775D
:101A40008091E3008078812B8093E3008091E8000F
:101A5000877F8093E8000E94BE058091E80080FFA8
:101A6000FCCF8091E30080688093E30082E0111155
:101A700083E08093BD044FC18058823008F04BC191
:101A80002091C1043091C2042C3DE3E03E07A1F552
:101A900083E08A838AE289834FB7F894DE01139644
:101AA00020E03EE051E2E32FF0E050935700E49154
:101AB00020FF03C0E295EF703F5FEF708E2F90E044
:101AC000EA30C0F0C7968D939D932F5F243159F76C
:101AD0004FBF8091E800877F8093E8006AE270E062
:101AE000CE0101960E946A068091E8008B77809370
:101AF000E80011C1C096E7CF8091C3049091C4045F
:101B0000432F55274330510509F44AC078F5413039
:101B1000510509F47AC08BE590E0EFEEF5E0423034
:101B2000510509F0F8C02091E800277F2093E800D4
:101B30002091C5043091C6048217930708F49C01D4
:101B400040E02115310509F065C0411163C0809165
:101B5000E80082FDC9CF8091BD04882329F2853039
:101B600019F28091E80083FFF2CFBECF41325105D8
:101B700009F43CC04232510509F0CDC083309105D3
:101B800008F0C9C0FC01EE0FFF1FE85BFD4F01909C
:101B9000F081E02D8B5B9D4FDC018C9190E01AC0B1
:101BA000332721303105D1F02115310561F0223084
:101BB000310509F0B0C0ECE5F6E0E4918E2F90E03D
:101BC000ECE5F6E007C0E4E8F6E0E4918E2F90E063
:101BD000E4E8F6E0009709F49EC0A5CFE2E7F6E05E
:101BE000E4918E2F90E0E2E7F6E0F4CF83309105A8
:101BF00008F091C0880F991FFC01E25BFD4F019036
:101C0000F081E02D89E090E08ECF82E190E0EAE47F
:101C1000F6E089CF8091BD04882309F465CF853033
:101C200009F462CF8091E80083FD5ECF8091E800E7
:101C300082FD8DCF8091E80080FF83CF9091F300EB
:101C40008091F2002115310519F08830910550F08E
:101C500041E0089709F040E08091E8008E7780939A
:101C6000E8006FCF44914093F10031962150310943
:101C70000196E8CF803809F04EC08091E800877F58
:101C80008093E8008091BE048093F1009DCE811185
:101C900042C01091C1041230F0F58091E800877FB6
:101CA0008093E8001093BE040E94BE05112311F03A
:101CB00084E005C08091E30087FDFACF81E0809346
:101CC000BD0442E061EC81E00E94DD0542E261EC8E
:101CD00084E00E94DD0542E261EC82E00E94DD05C5
:101CE00042E260EC83E00E94DD058091BD0413C0F8
:101CF0008091C104813079F481E0933009F080E073
:101D00008093BC041092E9008091E800877F809363
:101D1000E8000E94BE058091E80083FF0AC0809120
:101D2000E800877F8093E8008091EB0080628093D9
:101D3000EB00AA96E3E00C947E35882321F00E9404
:101D4000B3080E94940B0895882339F09091B00451
:101D5000982B9093B0040E94940B0895882349F126
:101D60009CEF980F913A80F4E8E5F2E02EE532E03E
:101D70009191891303C0DF0111971C922E173F0721
:101D8000B9F70E94940B089590E2980F983050F4A0
:101D9000877091E001C0990F8A95EAF7892F0E9418
:101DA000B308EFCF93E3980F933118F460E00E94EB
:101DB000B70A08950F931F93CF93C82F882341F13B
:101DC0008CEF8C0F813AB0F508E512E08EE592E0D9
:101DD000F8012191C21701F18E179F07D1F7EFEF9C
:101DE00080E0D8019D918D01C91781F0EF3F19F472
:101DF000911101C0E82F8F5F863099F7EF3F31F0E6
:101E00000E2E000CFF0BEA5AFD4FC2830E94940B6A
:101E1000CF911F910F910895E8E5F2E02191C2134F
:101E200003C0DF0111971C928E179F07B9F70E941C
:101E3000940BD5CF80E28C0F883068F4C77021E016
:101E400030E001C0220FCA95EAF78091B004822BDE
:101E50008093B004DBCF83E38C0F8331C8F661E05D
:101E60008C2F0E94B70AD4CF0F931F93CF93DF9389
:101E7000EC01FC0101900020E9F78F0101501109EC
:101E8000C017D10728F0DF91CF911F910F910895CE
:101E900089910E94CE0AF4CF0F931F93CF93DF93C3
:101EA0008B01EA019091BD04943061F58093E900C3
:101EB0008FEF9091E800815095FD06C095ED9A95C1
:101EC000F1F700008111F5CF8091E80085FF1AC07D
:101ED0000E948D05811111C08091E80085FD06C02A
:101EE0008091E8008E778093E800F2CFF80181912D
:101EF0008F018093F100219779F78091E8008E7728
:101F00008093E800DF91CF911F910F91089546E0F3
:101F100050E0BC0184E00E944C0F0895CF93DF9302
:101F2000EC0148E050E0BC0181E00E944C0F88E0E9
:101F3000FE01A3EBB4E001900D928A95E1F7DF91E9
:101F4000CF9108956091FD018091FC0380FF20C036
:101F50008091FC0143E0849FC0011124885B9C4F69
:101F6000539A2BB1277F3BB138605FB7F894FC01DF
:101F7000649FE00DF11D1124BF0168177907D1F4AA
:101F80005FBF8FE594E00197F1F700C0000008956E
:101F90008091FE019091FF0123E0829FF0011124C6
:101FA000E85BFC4F8917A0F61182108212828F5FC6
:101FB0003396F8CFFC014191CF01E8E03BB9000036
:101FC00000C047FF2BB9440F000000C000C000C094
:101FD0002BB900C0EA9591F7D0CFECEFF3E0808108
:101FE0008E7F8083E5E4F3E08281816082830E94BA
:101FF000A20F0895B0E0A0E0E0E0F0E10C945B35C2
:102000007C015B016A018091080301E010E08A30E5
:1020100010F40AE010E0C1E0D0E0B501C701F6011C
:102020000995811104C021960C171D072CF4CDB71A
:10203000DEB7EAE00C947735CC9F9001CD9F300D50
:10204000300D112490E080E045E34A95F1F700005F
:10205000019682179307C1F7E0CF80919A02811110
:1020600019C088EC90E02091E30027FD10C0EFE359
:10207000FCE93197F1F700C000000197A1F782E079
:1020800080939A020E946E051092BD0403C081E005
:1020900080939A0281E090919A02913011F080E051
:1020A000089508950E942D10882359F0E091A80406
:1020B000F091A904309729F00190F081E02D099565
:1020C000089580E008950F931F930E942D10882398
:1020D00029F00E94DD061F910F9108950E94DD06F0
:1020E0000091090310910A0320910B0330910C0316
:1020F000600F711F821F931FEECF54985C9A879ACE
:102100008F9885E08A95F1F7000089B187988F9ABA
:1021100090EA9A95F1F790E024E0959587952A95B5
:10212000E1F78095909581700895CF93DF9380912A
:102130000102CEE18111CDE180910202D0E088233D
:1021400029F080910302DEE18111DDE10E947D1022
:1021500081110FC08D2F8093FC01C093FD01CD0F25
:102160001092FE01C093FF01C0930002DF91CF9156
:10217000089580E0F0CF80910102F90180830E94F0
:10218000951008951F93CF93DF93182FEB010E94B2
:10219000DA0E8FE99FE00197F1F700C00000219768
:1021A000C1F7812F0E94AE0EDF91CF911F9108954C
:1021B0001092B0040E94D10B2FEF84E39CE02150D9
:1021C00080409040E1F700C0000088E19AE00FB63F
:1021D000F894A895809360000FBE90936000FFCFA5
:1021E000CF93DF93C9E0D2E060E0CE010E943E369B
:1021F0002196C11584E0D807B9F7DF91CF910895F2
:102200001F93CF93DF93122F8530E0F46830D0F422
:102210004630C0F4C42FD0E0CC0FDD1F9CE0699F96
:10222000C00DD11D112490E6899FC00DD11D112430
:10223000632FCE0189960E943E36612FCE018A9689
:102240000E943E36DF91CF911F910895AF92BF92C9
:10225000CF92DF92EF92FF921F93CF93DF938FE0A5
:10226000C82E84E0D82ED0E07601C0E014C0F5017D
:1022700025913491412F6C2F8D2F0E94001182E007
:10228000A80EB11C1F5F163091F78CE0E80EF11C10
:10229000CF5FC83019F0570110E0E9CFDF5F80E66B
:1022A000C80ED11CD53001F7DF91CF911F91FF905F
:1022B000EF90DF90CF90BF90AF90089588E290E0CC
:1022C0000E943E360895CF93C82F6FEF811166E2CA
:1022D00085E290E00E943E366FEFC11167E086E232
:1022E00090E00E943E366FEFC11164E187E290E01A
:1022F0000E943E36CF91089580E00E94631160E015
:1023000070E0CB010E945E110E9426110E94F01025
:1023100081E00E94631108950F931F93CF93DF9381
:10232000853030F5683020F5463010F5C42FD0E008
:10233000CC0FDD1F2CE0629FC00DD11D112430E6B3
:10234000839FC00DD11D1124CE0189960E941A369B
:10235000082F10E0102F0027CE018A960E941A360F
:102360009801282BC901DF91CF911F910F910895FA
:1023700090E080E0F8CF462F783040F4663030F4BB
:10238000853020F4672F0E948C11089590E080E042
:102390000895CF92DF92FF920F931F93CF93DF9315
:1023A0006C010091040480918D02082BC4E0D0E000
:1023B00010E0FC2EC8010C2E02C0959587950A945A
:1023C000E2F780FD0CC02197A0F7F12C8F2DDF9153
:1023D000CF911F910F91FF90DF90CF900895B6019C
:1023E0008C2F0E94BB110E94E407019761F3EECF8E
:1023F000CF93DF93EC010E94C911BE010E94BB1173
:102400000E94E407DF91CF910895FC018481882325
:10241000F9F087819085009791F00E94E4079295EA
:102420009F709630B9F080F4925F9F70923080F484
:10243000803F19F058F4883E58F481E00895808177
:1024400091810E94F811EBCF9A5FEFCF843FA9F3FF
:1024500080E00895883E88F3813FD1F7EECFA6E073
:10246000B0E0E5E3F2E10C9462359C01FC01878168
:1024700090850097E1F486E0DE01119601900D92BF
:102480008A95E1F7F901258189819A81222399F0C2
:10249000662389F00E94C911182F682F89819A81BB
:1024A0000E94F80869817A81812F0E94BB112696CB
:1024B000E3E00C947E350E94C408182FF3CF88E225
:1024C00090E00E941A36682F70E090E080E0089556
:1024D00085E290E00E941A36863289F486E290E026
:1024E0000E941A36873059F487E290E00E941A362B
:1024F00091E0843109F090E0892F8170089580E0A7
:10250000FCCFB0E0A0E0E7E8F2E10C945D356C01AF
:102510007B0164E670E088E70E949D328C01E60151
:10252000EC0CFD1C17FD0BC0FE01849164E670E00D
:102530000E9409338C012196CE15DF0599F70E9480
:102540007F3381E00115110509F080E0CDB7DEB7DA
:10255000E8E00C94793580912B0490912E04911130
:1025600003C091E089270895882369F062E070E054
:1025700080ED93E00E948112811103C080912B04B1
:10258000089510922B0480912B04EBCFCF93C09130
:102590002B0480912E048823D1F00E94DD06605A1E
:1025A00075418F4F9F4F6093270470932804809349
:1025B000290490932A04C11108C062E070E08EECF7
:1025C00093E00E948112811105C0C0912B048C2FD1
:1025D000CF91089581E080932B04F7CFB0E0A0E085
:1025E000E4EFF2E10C94593549015A016B017C0189
:1025F0000E9444078401A4016A2D7B2D88E090E0AD
:102600000E94503694014A2D5B2DB601C70100E2AD
:102610000E94E035622F84E290E00E943E36CDB702
:10262000DEB7ECE00C947535B0E0A0E0EAE1F3E150
:102630000C945935182FC62FD42F822E0091FC03ED
:1026400000FF50C08091FD03811308C08091FE03FC
:10265000861304C08091FF03841729F080914703FB
:10266000826080934703E02FE695F0E0E55CFD4F44
:10267000808180934503802F8E7F8230E9F4ED2F97
:10268000D73908F0E6E9F0E0E253FD4FC1112FC061
:102690002491F22FE22F00FF0FC08091FE01909154
:1026A000FF0133E0839FD0011124A85BBC4F891741
:1026B00008F492C00E94A20F1093FD03C093FE0382
:1026C000D093FF03882071F02091FC0360910004F7
:1026D00070910104312FAE018091020490910304A6
:1026E0000E94EE12CDB7DEB7ECE00C947535EC2EFF
:1026F000F12CE4919E2ECE2ED12C26E0129FC0010B
:1027000011242FEF30E0B9010E943F35812F90E076
:10271000880F991FF5E5F69FA001F79F500D112432
:10272000841B950BB82EBB0CB80EA9014E195F097E
:102730004C9DC0014D9D900D5C9D900D1124F92F75
:10274000CB9DA0011124452F5527D901A41BB50B02
:10275000AC9DA001AD9D500DBC9D500D1124D90123
:10276000AB19B1095D01AE9CD001AF9CB00DBE9C10
:10277000B00D1124AB2FBB272A1B3B0B2C9DD00186
:102780002D9DB00D3C9DB00D11242B2F6230710595
:10279000A1F050F46115710509F47DCF6130710528
:1027A00081F0292FF52F77CF6430710569F080F023
:1027B0006630710509F46FCFF4CF2E2FE92FFB2F70
:1027C0006ACF2E2FE52F67CF292FFE2FEB2F63CF58
:1027D000E92FF92D252F5FCF1196EC9311972C93AC
:1027E0001296FC9312978F5F139661CF20E00E94A0
:1027F000141308950F931F93CF93C82F0E9432098B
:1028000091E0833009F090E0892F0E9443094C2F1A
:1028100050E070E060E0DB01CA01F4E0B695A795F6
:1028200097958795FA95D1F70097A105B10541F1E4
:10283000AC01BD0184E08A019B01E2E03695279559
:1028400017950795EA95D1F7011511052105310571
:1028500019F08E5FB901A801769567955795479550
:10286000452B462B472B09F08F5F8230E9F050F45F
:10287000882381F04FEF6FEF813051F040E007C0C7
:1028800080E0D9CF8330A1F04FEF8430B9F760E01A
:1028900080E003C04FEF6FEF8AE60E94F6138C2FA3
:1028A000CF911F910F9108954FEF66E684E8F5CF21
:1028B0004FEF6FEF8BE2F1CF0E94FA138093040485
:1028C00008959091040421E030E0F90101C0EE0F79
:1028D0008A95EAF7D90102C0AA0FBB1F6A95E2F7F1
:1028E000EA2B01C0220F4A95EAF7892F8E23E813BD
:1028F00005C0292B822F0E945C140895209529235E
:10290000F9CF21E030E001C0220F8A95EAF7209547
:102910008091040482230E945C14089590914403E2
:102920008095892380934403282F277069F48917A1
:1029300059F09091180392FF07C086958695869569
:102940000E94811410924403089521E030E001C0F8
:10295000220F8A95EAF780910404822B0E945C146E
:102960000895ECEFF3E043812FE0421B08F440E0D0
:1029700021E0628181810E9414130895ECEFF3E05D
:1029800043812FE0420F08F44FEF21E06281818103
:102990000E9414130895ECEFF3E0628121E1621BC1
:1029A00008F460E021E0438181810E9414130895BE
:1029B000ECEFF3E0628121E1620F08F46FEF21E0B8
:1029C000438181810E9414130895ECEFF3E081812B
:1029D00021E04381628181510E9414130895ECEF3C
:1029E000F3E0818121E0438162818F5E0E941413B4
:1029F000089580910004882319F081508093000489
:102A00002091FC033091FD034091FE035091FF03A0
:102A1000609100047091010480910204909103047C
:102A20000E94EE12089580910004833018F48F5FA5
:102A3000809300042091FC033091FD034091FE033C
:102A40005091FF0360910004709101048091020491
:102A5000909103040E94EE1208952091FC0320FF40
:102A600023C0217022602093FC0380914703816082
:102A700080934703662381F03091FD034091FE036C
:102A80005091FF0360910004709101048091020451
:102A9000909103040E94EE124091FF036091FE03A7
:102AA0008091FD030E94F61308958091FC038695A2
:102AB000815009F481E061E00E942D15089561E0E4
:102AC00081E00E942D150895ECEFF3E083E0808310
:102AD00011828FEF828386E983831482A5E4B3E0B9
:102AE00012968C911297836012968C93758123E0D5
:102AF00030E04FEF56E960E0868197810E94EE1248
:102B000008959091180392FB222720F9281779F055
:102B100080FB92F99093180360911703709118034A
:102B200084E090E00E945C3682E00E948E1408955A
:102B300090E080E00E942836863E9E4F19F40E9465
:102B40006812089580E00895B0E0A0E0EAEAF5E1B7
:102B50000C945E357901C82F880FDD0B41155105A6
:102B6000A9F0FE0193E0EE0FFF1F9A95E1F7EF5FEA
:102B7000FE4F8181928185569D4F208130E0421722
:102B8000530708F49A01A9010E941136CE010E9450
:102B9000C934D82E8823D1F001151105B9F083E08E
:102BA000CC0FDD1F8A95E1F7FE01EF5FFE4F4381F9
:102BB00050E00417150708F4A801CF5FDE4F6C81C1
:102BC0007D8165567D4FC7010E9411368D2DCDB791
:102BD000DEB7E7E00C947A35A5E0B0E0E2EFF5E18E
:102BE0000C945B358D83E62E5A01F22E680180919C
:102BF00008038A3028F080E02596EAE00C947735C7
:102C00008D818930C4F31A8219828A836B832C8365
:102C100063E070E0CE0102960E9428078983E0926B
:102C20003101F092440110E000E030E020E044E0A7
:102C300050E0BE016F5F7F4F85E00E94A41588239E
:102C4000D1F24E2D50E030E020E0B50186E00E9448
:102C5000A415882381F230E020E041E050E0BE017D
:102C60006B5F7F4F87E00E94A415882321F20F2D10
:102C700010E0960150E040E070E060E088E00E94E3
:102C8000A415BACFA4E0B0E0E8E4F6E10C94613515
:102C90004091FC025091FD026091FE027091FF0292
:102CA0002FB7F8948091AB049091AC04A091AD043F
:102CB000B091AE042FBF841B950BA60BB70B11E090
:102CC00084369105A105B10518F10E9463106E5F6D
:102CD0007F4F8F4F9F4F69837A838B839C8310E054
:102CE00000E030E020E044E050E0BE016F5F7F4F45
:102CF00082E00E94A415182F882351F00E94DD065F
:102D00006093FC027093FD028093FE029093FF0299
:102D1000812F2496E4E00C947D35A5E0B0E0E3E952
:102D2000F6E10C945F357B0101E010E09E012B5F22
:102D30003F4F50E040E070E060E080E00E94A4156A
:102D4000182F882309F456C04091F8025091F902D7
:102D50006091FA027091FB022FB7F8948091AB0456
:102D60009091AC04A091AD04B091AE042FBF841B30
:102D7000950BA60BB70B84369105A105B10548F458
:102D800064E070E08CE992E00E9428079D81891739
:102D900089F104E010E09E012F5F3F4F50E040E0DA
:102DA00070E060E081E00E94A415082F64E070E00C
:102DB0008CE992E00E94280711E09D81981310E0B1
:102DC000102331F10E94DD066093F8027093F9023E
:102DD0008093FA029093FB0289819A81AB81BC8136
:102DE0008093F4029093F502A093F602B093F70259
:102DF00011E00EC080919C0290919D02A0919E02D4
:102E0000B0919F0289839A83AB83BC831111E4CF75
:102E10008091F4029091F502A091F602B091F70230
:102E2000F70180839183A283B383812F2596E6E007
:102E30000C947B358F929F92AF92BF92EF92FF924C
:102E40000F931F93CF937B01942FB901A801F70132
:102E500080809180A280B380EFB7F8940091AB049A
:102E60001091AC042091AD043091AE04EFBF08196D
:102E700019092A093B09043611052105310518F401
:102E8000C1E0992381F010E000E030E020E00E94F2
:102E9000A415C82F882339F00E94DD06F70160834E
:102EA0007183828393838C2FCF911F910F91FF9019
:102EB000EF90BF90AF909F908F900895A1E0B0E009
:102EC000E4E6F7E10C94613580912B04898320912D
:102ED000AF0290E041E02817190609F440E001E054
:102EE00010E09E012F5F3F4F64E073E084E00E949A
:102EF0001A172196E4E00C947D35ABE0B0E0E3E8EE
:102F0000F7E10C94613588E0ECEFF3E0DE01119617
:102F100001900D928A95E1F78091450390914603C7
:102F2000A091470389879A87AB8741E08B85811100
:102F300001C040E00BE010E09E012F5F3F4F60E0DA
:102F400073E083E00E941A178111109247032B96B9
:102F5000E4E00C947D35A8E0B0E0E1EBF7E10C94FF
:102F6000633566EE7EEF90E080E00E945C3660E0C4
:102F700082E090E00E943E3660E083E090E00E94B4
:102F80003E3610928D0260E074E184E090E00E9491
:102F90005C3660E086E090E00E943E366FEF87E0AE
:102FA00090E00E943E3640E050E0BA0188E090E0B8
:102FB0000E94503660E084E290E00E943E3660E07D
:102FC00087E190E00E943E3660E08CE090E00E9455
:102FD0003E3660E08DE090E00E943E3619821A8213
:102FE0001B821C821D821E821F82188648E050E0D0
:102FF00068E170E0CE0101960E942E3640E050E07C
:10300000BA0180E290E00E94503680E00E94631195
:103010000E947C1140E050E0BA018FE090E00E94F5
:10302000503640E050E0BA0183E190E00E94503613
:103030002896E2E00C947F3528E030E043E060E041
:1030400086E30E94C5310895CF93DF93D82FC62F12
:103050000E941C188D2F80680E943D328C2F0E9488
:103060003D328AEB8A95F1F700C00E946D3283E40D
:1030700092E00197F1F700C00000DF91CF91089531
:10308000682F893708F068E760930C0291E090930D
:103090000D0290910102992339F06150811101C014
:1030A00064E08FE00E9424180895FB0180810E9453
:1030B0004018089590910C02911101C095E0282FBD
:1030C000880F330BA901490F511DCA0118161906A3
:1030D00014F081E090E00E9440180895ACE0B0E068
:1030E000E4E7F8E10C945D354F83588769877A8768
:1030F0008B879C8780910102882309F446C08091C8
:103100006302811107C060E080E50E94241881E01D
:10311000809363020E941C1880E50E943D328AEB76
:103120008A95F1F700C00E9455320E9455320E94E4
:1031300055327C010E94553220E0E22AF82A0E9492
:1031400055328C010E94553220E0022B182B0E9430
:103150006D3285E08A95F1F70000F894B70180910F
:103160000402909105020E94250A90930502809323
:103170000402B80180910602909107020E94250A7C
:10318000909307028093060278940E942D10882362
:1031900009F469C00E94DD06009164021091650285
:1031A00020916602309167026B017C01C01AD10A3E
:1031B000E20AF30A9701860108301105210531055D
:1031C00008F451C0609364027093650280936602B4
:1031D0009093670200910F0210911002209111024A
:1031E00030911202601B710B820B930B62337105DD
:1031F0008105910580F4109205021092040210924C
:103200000702109206021092090210920802109210
:103210000B0210920A0210910E020E947D10482F9C
:10322000BE01695F7F4F84E092E0112389F10E9423
:10323000570900910E02109101020E947D1041E099
:103240004827BE01695F7F4F88E092E0011719F1BE
:103250000E94570986E0FE013796A9E1B2E001908D
:103260000D928A95E1F786E0FE013796DE01119610
:1032700001900D928A95E1F729813A814B815C8119
:103280006D817E8180E090E02C96E8E00C947935A9
:103290000E94C409CECF0E94C409DCCFCF93C82FAF
:1032A0000E941C188C2F0E943D328FE792E00197FC
:1032B000F1F700C000000E945532C82F95E09A95A2
:1032C000F1F700000E946D3285E68A95F1F7000063
:1032D000109263028C2FCF910895CF93DF930E94B9
:1032E000BD31269A0E941C186AE58AE30E942418C0
:1032F0002FEF80E792E0215080409040E1F700C03E
:10330000000082E00E944E1983E00E944E1984E082
:103310000E944E1985E00E944E1986E00E944E19C7
:1033200060E080E10E94241880E00E944E19D82FAE
:1033300081E00E944E19C82F0E946D32D23419F4D8
:1033400081E0C13009F080E0817080930102882320
:1033500021F064E08FE00E942418DF91CF9108955E
:103360001F920F920FB60F9211242F933F934F93FA
:103370005F936F937F938F939F93AF93BF93CF93FD
:10338000DF93EF93FF93D091E900DF708091EC0021
:10339000C82FC17080FDC0E81092E9008091F00054
:1033A000877F8093F00078940E94DD0B1092E900F3
:1033B0008091F00088608093F000CD2BCF70C09397
:1033C000E900FF91EF91DF91CF91BF91AF919F9174
:1033D0008F917F916F915F914F913F912F910F90BE
:1033E0000FBE0F901F9018951F920F920FB60F925D
:1033F00011242F933F934F935F936F937F938F93FA
:103400009F93AF93BF93EF93FF938091E10082FF6F
:1034100009C08091E20082FF05C08091E1008B7FAE
:103420008093E1008091DA0080FF24C08091D80071
:1034300080FF20C08091DA008E7F8093DA00809137
:10344000D90080FF9DC080E189BD82E189BD09B4BA
:1034500000FEFDCF81E08093BD048091AF04811117
:1034600009C00E946E050E940F068091E2008460F0
:103470008093E2008091E10080FF17C08091E2001C
:1034800080FF13C08091E2008E7F8093E2008091E4
:10349000E20080618093E2008091D8008062809396
:1034A000D80019BC85E08093BD048091E10084FFC1
:1034B0002BC08091E20084FF27C080E189BD82E1BA
:1034C00089BD89B5982F917080FFFBCF8091D8007E
:1034D0008F7D8093D8008091E1008F7E8093E10002
:1034E0008091E2008F7E8093E2008091E200816013
:1034F0008093E2008091BE04882309F447C084E0F1
:103500008093BD048091BD048091E10083FF27C0BA
:103510008091E20083FF23C08091E100877F809348
:10352000E10082E08093BD041092BE048091E1002E
:103530008E7F8093E1008091E2008E7F8093E20095
:103540008091E20080618093E20042E060E080E0F0
:103550000E94DD058091F00088608093F000FF916B
:10356000EF91BF91AF919F918F917F916F915F91FB
:103570004F913F912F910F900FBE0F901F90189574
:1035800019BC1092BD041092AF0474CF8091E30077
:1035900087FD93E09093BD04B5CF78941F921FB63A
:1035A0001F9211248F939F93AF93BF938091AB048D
:1035B0009091AC04A091AD04B091AE040196A11D10
:1035C000B11D8093AB049093AC04A093AD04B09371
:1035D000AE04BF91AF919F918F911F901FBE1F901E
:1035E00018959C014FB7F8948091AB049091AC046E
:1035F000A091AD04B091AE044FBF821B930B089510
:103600002FB7F8948091AB049091AC04A091AD04D5
:10361000B091AE042FBF08952F923F925F926F92A8
:103620007F928F929F92AF92BF92CF92DF92EF9252
:10363000FF920F931F93CF93DF9380912E048823E3
:1036400009F4FEC080912C0490912D040E94F11A7F
:10365000C29708F4D5C00E94001B90932D0480935C
:103660002C0484E195E090931B0780931A070E9435
:103670002D10882309F401C188ED93E00E94540BBA
:1036800088EB0E94CE0A809118020E94F3090E94E2
:10369000CE0A89EB0E94CE0A809117020E94F3099C
:1036A0000E94CE0A85ED93E00E94540B8091150292
:1036B0009091160254E0969587955A95E1F70E94ED
:1036C000F3090E94CE0A809115020E94F3090E941C
:1036D000CE0A82ED93E00E94540B8FE192E00E94AB
:1036E000340F87EF93E00E94540B80911B020E94DD
:1036F000FA090E94340F80911C020E94FA090E946C
:10370000340F80911E020E94FA090E94340F8091AA
:103710001D020E94FA090E94340F8FEE93E00E946E
:10372000540B80910C02811101C085E00E94FA09BE
:1037300001960E94340F8BEE93E00E94540B80910F
:103740001402882331F0813009F48CC082EE93E0BA
:1037500002C088EE93E00E94540B80910E028823F1
:1037600009F483C080E094E00E94540B8EED93E056
:103770000E94540B80911302811101C087E0805D8B
:103780000E94CE0A86E094E00E94540BC1E0D0E093
:1037900080910404882309F46BC090E00C2E02C0D1
:1037A000959587950A94E2F780FF62C08C2F0E945E
:1037B000F3090E94CE0A2196C830D10549F780E26C
:1037C0000E94CE0A83E094E00E94540B809169012C
:1037D000882309F44FC080E094E00E94540B80914C
:1037E0006B0190916C0168EE73E00E943F35862F6B
:1037F0000E94FA0901960E94340F83E70E94CE0AC4
:103800008091120590911305892B09F04CC080918D
:103810002B048823A9F00E94DD0600912704109153
:1038200028042091290430912A04601B710B820B1B
:10383000930B6F3F7F4F8F4F9F4710F40E94AB1247
:10384000DF91CF911F910F91FF90EF90DF90CF907C
:10385000BF90AF909F908F907F906F905F903F90C0
:103860002F90089585EE93E076CF8DEF93E07CCF97
:1038700080EB9FCF8DEF93E0B0CFC0E9D0EFDC0FAE
:103880008CE094E00E94540B11E01D0F8D2F0E94DC
:10389000CE0AD12F1C13F8CF80E00E94620BC05FCC
:1038A000C03C61F7ADCF80912E04882309F4AFCFDF
:1038B000809126048111ABCF0E94C612209112057F
:1038C000309113052115310509F4A1CF80E041E0C5
:1038D00050E0082F10E01A01082E02C0220C331C01
:1038E0000A94E2F7B10162237323672B11F48F5F0F
:1038F000F0CF9091250490FF95C0880F880F880F16
:103900008093770110927A01895F8093780183E038
:1039100080937B0124E630E047E050E065E771E00A
:1039200088E70E943733892B09F071CFA80125E081
:10393000440F551F2A95E1F78091250480FF84C02C
:10394000E5E0F4E080E2DF011D928A95E9F7A1E469
:10395000B2E00DE312E085E4C82E82E0D82E97E0B5
:10396000592E772473948D91E80129918E01240FAB
:10397000352F311D2C5E3A4FE82FF0E0EB5FFB4F07
:1039800090E080E0652C681A872C082E01C0880C16
:103990000A94EAF77901A12CE701B9907E01B820D9
:1039A000662D6A196770962E062E000C770BDB2D9C
:1039B00001C0DD0F9A94EAF77195619571096770FE
:1039C000772701C0B6946A95EAF7BD2A6081962EE2
:1039D0009B289082A39468E0A612DECF01963196D0
:1039E0008830910579F6CA16DB0609F0BCCF04E6EB
:1039F00010E020E230E045E054E060E488E70E9417
:103A00005833892B09F003CFE101C095D0958091FF
:103A1000120590911305C823D923D0931305C093A1
:103A20001205F5CE8295880F8076809377019801F4
:103A3000369527953695279520937A01815E809358
:103A4000780120937B0166CF4C5E5A4F04E610E06C
:103A500020E230E0D2CFAEE1B0E0E1E3FDE10C9452
:103A6000623540913E0350913F0360914003709155
:103A7000410380914203909143030E946E1820936A
:103A80003E0330933F0340934003509341036093C0
:103A900042037093430386E0EEE3F3E0DE01179602
:103AA00001900D928A95E1F786E0FE013796DE01DE
:103AB0001D9601900D928A95E1F786E0FE013D96F4
:103AC000DE01119601900D928A95E1F786E0FE01E4
:103AD0003196AEE3B3E001900D928A95E1F786E06E
:103AE000EEE3F3E0DE01599601900D928A95E1F73D
:103AF00086E0FE017996DE01179601900D928A9577
:103B0000E1F786E0FE013796DE01119601900D92F5
:103B10008A95E1F786E0FE013196DE015396019029
:103B20000D928A95E1F786E0FE017396DE01179605
:103B300001900D928A95E1F786E0FE013796AEE39B
:103B4000B3E001900D928A95E1F786E0EEE3F3E0B1
:103B5000DE01179601900D928A95E1F78091690137
:103B6000882309F445C080916E0190916F010E94F5
:103B7000F11A20916D0128171906D0F58091700176
:103B8000909171010E94F11A893C910588F1898513
:103B90009A85892B9B85892B9C85892B9885892BD8
:103BA00091E009F490E0909372010E9471071091E6
:103BB0000404882351F10E94001B90936F018093AD
:103BC0006E01109271011092700180916A011111C1
:103BD00005C0882369F00E94A5140AC0212F30E097
:103BE000082E02C0359527950A94E2F720FFF3CFFF
:103BF0000E945E0A81112FC080913D0310923D0307
:103C000081706E96E3E00C947E3580916A0111110B
:103C100018C08111EDCF80916E0190916F010E94CB
:103C2000F11A20916B0130916C012817390700F7C8
:103C300080916A010E94811410926F0110926E01AE
:103C4000D7CF212F30E002C0359527958A95E2F72E
:103C500020FFCECFE0CF81E090E0D0CFA3E1B0E075
:103C6000E4E3FEE10C9458358E01045F1F4F88E0B9
:103C7000D8011D928A95E9F789E2C82E82E0D82EF4
:103C8000F12CE12CAA24A394B12C23E3822E22E070
:103C9000922EF60181916F018F3F09F442C0F89492
:103CA000E82FE295EF70F0E021A18F70A50102C02E
:103CB000440F551F8A95E2F7CA01922F982B91A3C2
:103CC00092A18095892382A3789400C0EDE2F2E06E
:103CD000712C31E021912F3F09F46BC0A22FA295E6
:103CE000AF70B0E090968C9190E02F7002C09595E7
:103CF00087952A95E2F780FD5CC0832F782A330FE1
:103D00008E169F0639F7F601319780818F3F11F0AB
:103D10000E94CD0750EA5A95F1F7F801EE0DFF1D0C
:103D200070828FEFE81AF80AA4E0EA16F10409F0AD
:103D3000B0CF48E050E0B8018DE093E00E94043637
:103D4000009741F028E0F801ADE0B3E001900D925A
:103D50002A95E1F700911603892B69F181E08093A0
:103D600092020E94001B9093910280939002809196
:103D70009002909191020E94F11A059700F110E0D3
:103D80000C5D1C4F44E050E06DE073E0C8010E9400
:103D90000436B12C892B51F084E0EDE0F3E0D8013A
:103DA00001900D928A95E1F7BB24B3941092920290
:103DB00007C080E0A3CF809192028111D8CFB12CAF
:103DC0000E942D10A82EE0911603882309F489C0C3
:103DD00019821A821B821C820E2F10E00C5D1C4F70
:103DE000809108038A3008F046C04DE856E1BE01D4
:103DF0006F5F7F4FC8010E94FA0F882309F460C0EB
:103E000042E456E1BE016F5F7F4FC8010E94FA0F86
:103E1000882309F455C04DE757E1BE016F5F7F4F1E
:103E2000C8010E94FA0F882309F44AC04EE557E101
:103E3000BE016F5F7F4FC8010E94FA0F882309F40B
:103E40003FC0109208038091150390E044E050E0D9
:103E5000BE016F5F7F4F8C5D9C4F0E94043621E056
:103E600020939902892BF1F4A12C8A2D8B2963963A
:103E7000EDE00C94743580919302909194020E942D
:103E8000F11A843F914008F0B0CF809199028823C5
:103E900059F384E0FE013196DF011D928A95E9F71E
:103EA00010929902E0911503F0E0EC5DFC4F8981DE
:103EB0009A81AB81BC8180839183A283B383D5CF68
:103EC000809108038F3F31F08F5F809308038A3021
:103ED00008F4B9CF0E94001B909394028093930240
:103EE000D4CFF0E0EC5DFC4F84E0ACE9B2E00190AF
:103EF0000D928A95E1F764E070E08CE992E00E940F
:103F0000280780939B02C090A002D090A102E0906D
:103F1000A202F090A3028091950290919602A09146
:103F20009702B0919802C816D906EA06FB06D1F0AE
:103F3000C0929502D0929602E0929702F092980277
:103F40000E942D1081110EC00E94DD06C61AD70AEC
:103F5000E80AF90AC0920903D0920A03E0920B031F
:103F6000F0920C038BE0E4EAF2E0DE01119601909E
:103F70000D928A95E1F79981892F86950A81FB80B8
:103F8000EC801B851092AE021123A1F010FF0AC035
:103F900090FF17C09091FC0391609093FC0360E048
:103FA0000E942D1511FF06C020E04E2D6F2D802F91
:103FB0000E9414138091AF02882331F00E94C61230
:103FC00054CF0E94ED0FEECF0E94AB124ECFA8E06F
:103FD000B0E0EDEEFFE10C9455358C01DC01149658
:103FE0008C91882309F4B2C061E0C8010E942F12AD
:103FF0007C01F801D580DD2009F469C1975780382C
:10400000910508F064C1FFE0FE1508F48FC08FEF42
:1040100093E00E941A36811189C0E9E0AE2EE2E0F9
:10402000BE2EE1104DC0FE01339686E0DF011D92E9
:104030008A95E9F77AE0472E7501BFEFEB1AFB0A84
:10404000C5010E941A3689831A82882309F46EC03A
:10405000813009F07FC06501E2E0CE0ED11CC701BE
:104060000E941A368A83882309F460C09FEF980F54
:104070009330A0F5F3E0AF0EB11CC6010E941A36D2
:104080008B83882309F452C01C82DE0111967D01C6
:10409000F7012081222381F2213009F0BAC09181F9
:1040A0008281913009F058C0F2E0EF0EF11C65E01A
:1040B00070E0893311F460E570E00E94C21053C0D3
:1040C000A11424E0B20691F1C5010E941A368111B3
:1040D00001C0EA943FEFA31AB30AA3CF560184307C
:1040E000A1F662E0E62EF12C56012FEFA21AB20AD9
:1040F000C6010E941A36E1E0F0E0EC0FFD1FEE0D64
:10410000FF1D8083882391F08C3741F4E2E0F0E0DA
:10411000EC0FFD1FEE0DFF1D1082B7CF3FEFE31A2E
:10412000F30A650187E0E816F104F1F68091440393
:10413000877061F0D80115968C91882339F08091B1
:10414000180382FF03C082E00E948E142896E0E1EB
:104150000C947135570199CF923039F522E0E20E77
:10416000F11C0E94DA0EFFEFEF1AFF0A8FE99FE0C1
:104170000197F1F700C00000AFE9BFE01197F1F738
:1041800000C00000EFE9FFE03197F1F700C0000048
:104190008FE99FE00197F1F700C00000AFE9BFE0B1
:1041A0001197F1F700C0000073CF933031F432E083
:1041B000E30EF11C0E94AE0ED6CF943021F08FEFAB
:1041C000E81AF80AD0CF92E0E90EF11C30E020E0C6
:1041D000B7016F5F7F4FD70111964C918053990BB8
:1041E0008A30910558F02150310908F4BCCFEFE92D
:1041F000FFE03197F1F700C00000F5CF429EF001DB
:10420000439EF00D11249C012E0F3F1F842F7B0134
:10421000DFCFE22FF0E0E950FE4F5490822F8695D9
:104220008695869590E0FC01E951FE4F64902770D9
:10423000712C022E02C0759467940A94E2F731E063
:1042400063227724FC01E952FE4F8490912C022EC8
:1042500002C0959487940A94E2F7A1E08A229924F7
:10426000FC01E953FE4FC490D12C02C0D594C794F1
:104270002A95E2F7B1E0CB22DD246114710419F034
:1042800081EE0E94DA0E8114910419F086EE0E94EC
:10429000DA0EE9E365E070E05E1202C060E570E00E
:1042A000852D0E94C2108114910419F086EE0E949F
:1042B000AE0E6114710419F081EE0E94AE0EC114AD
:1042C000D10409F450CF65E070E08CE2F6CE809125
:1042D0006901882309F46FC0B0E2EB16B2E5FB0672
:1042E00008F052C0E114E2E5FE0608F0B7C0E114A0
:1042F000F0E4FF06E0F5E11420E2F20608F0DAC08F
:1043000030EEE316F10450F088EEE816F10408F4FC
:104310004DC0E11491E0F90608F048C0F80184812D
:10432000882309F443C0F7E0EF16FEE7FF0609F41F
:10433000ACC0C7018D5C9109439708F4A6C00E94E8
:104340007107811133C0DD2059F080916A012091FD
:1043500004042111B6C0882309F4BCC00E94380AA5
:104360000E94001B90937101809370011FC0E114A3
:10437000A0E5FA0608F08DC0F8018681807F09F07B
:1043800099C08F2D99278BC0B0E8EB16B2E5FB06DC
:1043900008F03BC0E0E6EE16E2E5FE0608F05EC07F
:1043A000F0E4EF16F2E5FF0608F466C080917401B0
:1043B00087FD10927401F0921602E0921502D80166
:1043C0008D919C9111979093180280931702F70199
:1043D0003497E533F10508F086C0E958FD4FE491C4
:1043E00015968C9120EB811102C02E2FE0EBAFE1EE
:1043F000B2E090E080E03D9132136FC08F5F9D4F3F
:10440000DC015E96EC93F70175C020ECE21622E524
:10441000F20660F230EEE31632E5F30608F07ECFE6
:1044200020916A01C7018F7199272817190609F091
:10443000BDCF8D2D0E945A07D80116968C911697E4
:10444000807F803509F0B2CF15968C91882361F179
:1044500080917401815080937401A8CF20916A01EA
:10446000C7018F7199272817190609F09FCFD1101E
:104470009DCF0E9468079ACF20916A01C7018F7172
:1044800099272817190609F091CF8D2D0E945A07F8
:104490008DCFC70155E0969587955A95E1F78F70B6
:1044A000992720916A01EDCF0E94680780917401DD
:1044B0008F5FD1CFD80116968C91807F09F476CF8B
:1044C0002DCF30E0082E02C0359527950A94E2F7EB
:1044D00020FF44CF0E94811441CF01968630910580
:1044E00009F089CF90CFC7019A95F70181159F41B7
:1044F00008F4FF27D80115968C91E13DF10538F0BD
:10450000E93DF10570F0E730BEE7FB0701F18823D4
:1045100061F0FE57E031F10540F4E258F94C0C949B
:10452000B835682F8E2F0E94B70AF8018581811156
:1045300076C38091B0048272F701E052F847E5310A
:10454000F10508F0DFC0E257F94C0C94B8350E9431
:104550004309EBCF80E00E9440181092130280E0E4
:104560000E94550A80E197E20E94470ADFCD409100
:104570000C022091130220FB47F9269523708091AD
:10458000690180FB22F980916B0190916C0164EFCD
:1045900071E00E943F355FEF560F550F550F550FD5
:1045A000522B60911402637070E08FE090E00E94E3
:1045B0005036BCCD81E00E945A18B8CD8FEFFBCFAA
:1045C0008AE0F9CF86EFF7CF90910E0281E089273C
:1045D0000E944309ABCD80911302811101C087E095
:1045E0008F5F18160CF081E0883008F087E0809328
:1045F00013029CCD80911302811101C087E081508C
:10460000F0CF81E08093140291CD109214028ECDF0
:1046100082E0F8CF9091690181E089270E94550AD4
:1046200085CD80916B0190916C01C2969DCF809158
:104630006B0190916C01C2978436910508F094CF7C
:1046400084E690E091CF8091FC0380FF1CC0282F6E
:104650002E7F2093FC033091FD034091FE03509187
:10466000FF03609100047091010480910204909115
:1046700003040E94EE1280914703816080934703F8
:104680000E94A20F53CD81608093FC0361E0869568
:104690000E942D154BCD45E555E16FE575E10E9472
:1046A0003E0744CD4FE555E165E575E1F8CF45EEB0
:1046B00054E16FEE74E1F3CF4FEE54E165EE74E137
:1046C000EECF4BEC54E168ED74E1E9CF48ED54E1F5
:1046D0006BEC74E1E4CF41EB54E16EEB74E1DFCFBE
:1046E0004EEB54E161EB74E1DACF49EF54E163E161
:1046F00075E1D5CF43E155E169EF74E1D0CF61E0D9
:1047000081E0C6CFF7E7EF16FCE7FF0609F44FC0DC
:1047100028E7E2162CE7F20609F44DC0F80187817C
:104720009085009709F48FC00E94E4077C01F8018E
:10473000A580968092943FE09322809144038770F5
:10474000F1F0CA2CAA20E1F08F2D807F803451F047
:1047500080E28E0D883098F0911004C08F2D807EFD
:10476000803269F08091180382FF09C082E00E94C4
:104770008E14809144038770CC24C3948111C12C82
:10478000BF2CB2942FE0B222FBE0FB1508F4D5C099
:10479000EB2DF0E0ED55F94C0C94B83581E00E941A
:1047A000A51443E062E081E00E946114BFCC81E087
:1047B0000E948114F6CF82E0FBCF33E0E3163CE7A2
:1047C000F30671F160F4E1149CE7F906D1F0A1E081
:1047D000EA16ACE7FA0609F0A1CF0E94D810BBE5B3
:1047E000EB16BCE7FB0669F1ECE5EE16ECE7FE061E
:1047F000F1F0FAE5EF16FCE7FF0609F08FCF81E054
:104800001DC01092B0040E94D10B2FEF34E38CE056
:10481000215030408040E1F700C000000E94CC06EB
:104820006FEF7FEF90E080E00E945C36D6CF809102
:10483000180382FB882780F991E089270E9481155F
:104840006DCF80E0FBCF8581E080F180882369F027
:10485000C7010E94C911D82E682FC7010E94F8080D
:10486000B7018D2D0E94BB115FCFC7010E94C40804
:10487000D82EF6CF2F2D2F70D22E8F2D807F19F0AE
:10488000D29490EFD922AA20B9F0DD2069F080E21D
:104890008E0D883010F0E11009C08091B004D82A44
:1048A000D092B0040E94940B8E2D45C080913104AB
:1048B000D82AD0923104F6CF8E2D0E94AE0EDD2084
:1048C000E1F180E28E0D883010F0E11004C08D2DF2
:1048D0000E94B30806C0D09480913104D822D092AF
:1048E00031040E94940B29C03F2D3F70D32E8F2D91
:1048F000807F803219F0D29480EFD822EE2059F0D8
:1049000081E0E81609F471C0AA2009F47DC099205D
:1049100009F440C0C9CF8091180382FD37C0AA2096
:1049200079F1DD2039F08091B004D82AD092B0041A
:104930000E94940B80E00E94DA0EAB2DA850BB0BB6
:10494000149710F40E945210CC20A9F080914403D7
:1049500080FD11C0F80115828695869586950E9486
:10496000A514C8010E94E71F80914403869586958F
:1049700086950E94811460E0C8010E942F12E6CB48
:1049800080E00E94AE0EDD20C1F2A1CFAA2099F0F6
:10499000911004C08D2D0E94A40ECFCF91E09912EA
:1049A000CCCF80918C029D2D9823D91631F2D82A34
:1049B000D0928C02C2CF9110C0CF8D2D0E949D0E3F
:1049C00090918C028D2D892329F08D2D809589233E
:1049D00080938C02809168029D2D982309F4ADCFBD
:1049E000D094D822D0926802A8CFAA2029F0A5E0BE
:1049F000A91508F4A2CFCECFB4E0B91508F49DCF25
:104A00008D2D0E949D0E99CF9920D1F3E9E3EE12EE
:104A100001C1FFEF27EE33E0F15020403040E1F7D5
:104A200000C000008E2D0E94AE0E87CF6A2D8E2D05
:104A30000E94B70A82CF8F2D837091F5A1107DCF90
:104A40004E2D429546954770440F440F8E2D8F7022
:104A5000042E01C0880F0A94EAF72E2D2071E4FE7F
:104A600007C02FE030E001C0220F4A95EAF72095F9
:104A70003F2D369536953370323069F050F44091C1
:104A80008D02313029F0822B84230E942F0955CFCB
:104A9000842B822BFACF282B80918D028227F5CF91
:104AA0008695AA2011F08F2D8170882309F445CFB7
:104AB0004E2D429546954770440F440F8E2D8F70B2
:104AC000042E01C0880F0A94EAF72E2D2071E4FE0F
:104AD00007C02FE030E001C0220F4A95EAF7209589
:104AE0003F2D369536953370323069F050F4409151
:104AF0000404313029F0822B84230E945C141DCFE2
:104B0000842B822BFACF282B809104048227F5CFA7
:104B10009F2D9F70F92EAA2029F0892F0E94A5149D
:104B20008E2D39CF8E2D0E949D0E8F2D0E948114C7
:104B300004CFA2EFEA16B1F1AE1570F0B0EFEB16AC
:104B4000D1F0E1EFEE1691F0AA2009F45EC09110C9
:104B5000ABCE8F2D8F712AC0F3EFEF1651F124EFFA
:104B6000E212F2CF8091180382FD2FC08F2D8F713A
:104B7000AA20E1F21BC0AA2081F034E0391508F424
:104B8000DCCE2F2D2F7181E090E001C0880F2A9597
:104B9000EAF7909104048927B0CF85E0891508F4DD
:104BA000CCCEEFCF8F2D8F71A110C0CF0E94A51456
:104BB000C4CE80E0AA2009F4A0CF9F2D9F7181E090
:104BC00001C0880F9A95EAF798CFAA2099F09F2DF7
:104BD0009F71F92E892F0E94A5148091180382FFDE
:104BE00007C0A8E0FA9EC0011124836080934403AB
:104BF0008F2DDCCF81E00E948E14B1E0B91508F052
:104C00009CCE82E00E948E1498CE9110FFCE8F2D04
:104C10008F718CCF8FE19EE40197F1F701CFF7E719
:104C2000EF16FCE7FF0609F4B9CD28E7E2162CE7FA
:104C3000F20609F0C2CD82E0B2CDCF93DF9380912E
:104C40008102807F09F04DC080918002882309F4A1
:104C500048C0E09110055091C704C0917C02D091EA
:104C60007B0260917D0270917E0249E05E17C9F17E
:104C70008E2F90E0E49FF0011124E853FB4F248134
:104C8000222391F1489FF001499FF00D1124DF018B
:104C9000A853BB4F11962C9111972C1325C02C9122
:104CA0002D1322C015962C91159721111DC0129617
:104CB0002D913C91261B370B283C3105A8F480919F
:104CC00081028F70806180938102E253FB4F80816B
:104CD0008F70806180838BE792E00E94E71F0E94C3
:104CE000BA08DF91CF910895FC013196E770BECFED
:104CF000A8E1B0E0EEE7F6E20C9459358C0186E0CD
:104D0000F801DE01539601900D928A95E1F7F801C2
:104D10008481E5809BE7A92E92E0B92E90917F02D5
:104D2000911128C0882319F1EE20F1F0C8010E94EA
:104D30000512F82E8823C1F089E0F801D501019011
:104D40000D928A95E1F780917F02813031F4809154
:104D50007B0290917C020E94F8110E941D268F2DEB
:104D60006896ECE00C947535C8010E94E71FFF249B
:104D7000F394F5CFD080C18082809380F090800240
:104D800020917D0230917E02A401421B530BFF2033
:104D900009F40DC1483C510508F0B6C08823F9F26A
:104DA00090917C0280918102282F207F09F05FC0C2
:104DB000C9121DC090917B02D91219C04091820284
:104DC00050918302278130854217530781F4E11007
:104DD00048C08F708061809381028BE792E00E94CF
:104DE000E71F80918102F8018683F12CB8CFE11092
:104DF00038C06C2D8D2D0E944F056C2D8D2D0E947D
:104E00004F05E82E8111F1CFDB8ACC8A8B899C89F2
:104E10000E94F811292F22952F70243058F49F708A
:104E2000223088F0992399F0F8019681907F79F4E7
:104E3000FE2C95CF2A5F2F70223068F0C8010E94A7
:104E4000E71FEF2CF5CF992311F0882389F3805EBB
:104E5000883070F3F3CF803F58F3815F833070F771
:104E6000E7CF80918102816080938102BECFC91219
:104E70001CC090917B02D91218C0409182025091BF
:104E80008302278130854217530779F4E1100DC062
:104E90008683C8010E94E71F89E0F801ABE7B2E012
:104EA00001900D928A95E1F75ACFC8010E94051230
:104EB000882309F459CFEE2009F456CF809181025E
:104EC0008032B8F020917B0230917C023B872A87A8
:104ED0009D868C8690917F029E871F86888B80910D
:104EE0008202909183029A8B898BCE010A960E944E
:104EF000E71F89E0F801ABE7B2E001900D928A95D7
:104F0000E1F70E941D2633CF90918102292F207F47
:104F100051F48BE792E00E94E71F89E0F5011192BE
:104F20008A95E9F762CF882309F419CF80917C0232
:104F30008C1119C080917B02D81215C04091820259
:104F400050918302278130854217530761F4E110A5
:104F50000AC09683C8010E94E71F89E0F5011192FB
:104F60008A95E9F7FCCEC8010E940512882309F44E
:104F7000FBCEEE2009F4F8CE80918102803208F455
:104F8000B8CF20917B0230917C023A8329839C82A6
:104F90008B8290917F029D831E828F8380918202FB
:104FA0009091830299878887CE010196A0CF483CD3
:104FB000510598F6882309F4DACEFE2CEE2009F488
:104FC000D3CE80917C028C1120C080917B02D812BC
:104FD0001CC020918202309183028781908528171E
:104FE000390799F49091810290FD56CF907F09F492
:104FF00053CF809181028683903F09F44ACF982F46
:10500000907F905F8F70892B43CFC8010E9405125B
:1050100081116FCF80918102816080938102C801EC
:105020000E94E71F9CCEA2E1B0E0E9E1F8E20C9417
:1050300061350A871B872C873D874E875F87688B82
:10504000798B8A8BCE010A960E94782681110CC03A
:1050500089E0FE013A96DE01119601900D928A9543
:10506000E1F78E8581110BC019E0809110059091B8
:10507000C704891333C06296E4E00C947D35209117
:10508000C70430E0C9010196877099274091100547
:105090004817190699F099E0929FD001939FB00D9F
:1050A0001124A853BB4FFE01319601900D929A95A1
:1050B000E1F78093C7040E94BA08D6CF1092B004DB
:1050C0000E94D10B1092C7041092100589E0EBE703
:1050D000F2E0DF011D928A95E9F7C6CF819FC001FA
:1050E000112488539B4F0E947826882321F28091B7
:1050F000100590E001968770992780931005B5CF31
:10510000B0E0A0E0E6E8F8E20C945C35809133046E
:10511000882369F0C0913204C12C8DE0D82E809193
:105120003304C81748F01092330410923204CDB7FC
:10513000DEB7E9E00C947835BB24B394BC0EB09292
:105140003204EC2EF12CCD9DE0011124CC5CDB4F20
:105150008C81882361F18F819885892B21F4898541
:105160009A85019659F4088119812A813B814C81E5
:105170005D816E817F8188850E941328DE9CF0010D
:10518000DF9CF00D1124EC5CFB4F14821092310473
:10519000C1100DC0CE010E940512811108C08FE11F
:1051A0009EE40197F1F700C00000CC24C394CB2DFE
:1051B000B6CF1092A7041092A6041092FA01809123
:1051C000A5048093A4040E9417070E9480280895D4
:1051D000B0E0A0E0EEEEF8E20C945335C091A404E8
:1051E000E7E0FE2E01E010E0FDE02F2EEE24E39438
:1051F0008091A5048C1309C00E9480280E94170783
:10520000CDB7DEB7E2E10C946F35D0E0FE01EE0FD2
:10521000FF1FE456FB4F80819181F89EF001F99EBB
:10522000F00D1124E458FE4F248121115AC0309012
:105230003304A4E3B4E030E020E0412C5F01231507
:1052400008F04DC01B966D907C901C97F5018080F6
:1052500091804FEF5FEF512CC52CD12CF601EE0F52
:10526000FF1FE80DF91D659174916616770609F424
:10527000A601672B11F05394EFCF4F3F5407B9F1BC
:10528000B80102C0660F771F4A95E2F7462AA801C7
:10529000052C02C0440F551F0A94E2F741505109F2
:1052A0004416150609F5229EF001239EF00D1124E7
:1052B000EC5CFB4FF89ED001F99EB00D1124A45870
:1052C000BE4F12962D913C9113973087278374E03F
:1052D000748310821182928781871596EC920E94C6
:1052E000E9062196C37084CF14961C9214972F5F01
:1052F0003F4F1D96A4CFAEE1B0E0E1E8F9E20C9497
:1053000053354B8B5C8B6D8B7E8B8F8B988F911174
:1053100010923104188A198A1A8A86E0FE0173965F
:10532000DE011A9601900D928A95E1F78E85882309
:1053300081F061E0CE010A960E942F129C019F85A8
:1053400020354CE7340789F4992311F181E08093EB
:10535000FA010A851B852C853D854E855F85688908
:1053600079898A890E941328CBC021355CE73507EB
:1053700029F4992369F00E94D928EBCF22353C47C4
:1053800039F4992329F08091FA018111F4CFDECF0D
:105390006A857B8580E00E94BB114C01FCE7EF2E03
:1053A000F1E0FF2E512CD12CC12CAA24A394B12CB6
:1053B000B7E04B2EFE013196FA8FE98F33243394F8
:1053C000F7014081518166246A94762C60E0262F93
:1053D00030E0F901EE0FFF1FE40FF51F8591949166
:1053E0008816990609F43901892B11F06F5FEFCF08
:1053F00010E0FFEF6F167F0609F443C0F701448108
:105400001091FA01812F411180E0182F1170F701DE
:10541000258086819F85992309F4F2C0112309F420
:10542000EFC0211014C09501062C01C0220F0A9470
:10543000EAF7822B868380912F0490913004C297E3
:1054400030F422E330E03093300420932F04C50180
:1054500002C0880F991F6A95E2F70197F70126812C
:105460002817190671F48091A6049091A70400975B
:1054700009F44AC00E94F11AC39708F445C0F70125
:105480003482512AFFEFCF1ADF0A27E0E20EF11C27
:1054900032E1C316D10409F093CF8F85882309F434
:1054A0000EC1552009F40BC10E94001B9093A70464
:1054B0008093A60480913304883010F591E0980F12
:1054C0009093330499E0FE013A96DE011196019023
:1054D0000D929A95E1F74DE0849FC00111248C5CF8
:1054E0009B4F29E0FE013196DC0101900D922A9537
:1054F000E1F72FEF3FEFFC01328721879486838607
:105500006E96E2E10C946F358091A4046091A5043D
:10551000982FF0E0E0E0861314C09093A404EE15F9
:10552000FF0509F4AECF90E0FC01EE0FFF1FE4563B
:10553000FB4FD182C0820196837099278093A50486
:10554000A0CF682E712CF301EE0FFF1FE456FB4F26
:1055500020813181429ED001439EB00D1124A45878
:10556000BE4F2D913C9111973E8F2D8F00E070E042
:10557000212CE22DF0E0EE0FFF1F2D8D3E8DE20F6E
:10558000F31F2591349121153105E1F0F7010190C8
:10559000F081E02DFC8FEB8F70E005C024173507FC
:1055A00009F4012F7F5FE72FF0E0EE0FFF1F4B8D17
:1055B0005C8DE40FF51F459154914115510571F72C
:1055C0002394D7CF0023C9F0F701721508F0FD012D
:1055D0003482EE16FF0621F49093A404102F51CFCD
:1055E000891305C0AE17BF0711F49F5F9370930135
:1055F0002F5F3F4F822F83708ECFF0E0E0E0F7CF38
:1056000090E021101FC0950102C0220F331F6A9540
:10561000E2F7215031098217930731F4442309F44A
:105620004CC0C6010E94E906C501062C01C0880FC6
:105630000A94EAF7982F9095F7018681892386834B
:10564000122D1FCFAC01062C02C0559547950A9428
:10565000E2F7BA01617077279C012150310982235A
:105660009323892B31F5672B21F1F70182819381F7
:10567000892BE1F0E98DFA8D242D11922A95E9F715
:105680000E94001B282F8B839C8334E03D83F7010D
:1056900082819381782F8887998709811A813C813B
:1056A00044E05E816F81892F0E941328F7011582E3
:1056B000BBCFF42FF1702F2EB7CF212EB5CF909105
:1056C000A4048091A504981729F00E94E82851109D
:1056D00017CF3FCE0E9480281092A7041092A604F4
:1056E0000E941707F4CFA6E0B0E0E9E7FBE20C94D4
:1056F00061350E94001B8C0180918E0290918F0277
:105700008017910781F019821A820E94001B682F6E
:1057100049815A81792F80E090E00E947B29109383
:105720008F0200938E022696E4E00C947D351F9242
:105730001FB61F9211248F939F93AF93BF938091B5
:10574000AA04811113C08091AB049091AC04A09184
:10575000AD04B091AE044196A11DB11D8093AB0480
:105760009093AC04A093AD04B093AE04BF91AF91FD
:105770009F918F911F901FBE1F901895CDB7DEB7D8
:10578000A6970FB6F894DEBF0FBECDBF85B7806871
:1057900085BF85B7806885BF84B7877F84BF0FB614
:1057A000F894A895809160008861809360001092C1
:1057B00060000FBE80E890E00FB6F894809361001F
:1057C000909361000FBE8FE997E09093550280930C
:1057D00054020E946E050E940F068091E2008460D0
:1057E0008093E20078948091BD048823A1F0109109
:1057F000E9001F709091EC00892F817090FD80E886
:10580000182B1092E9008091E80083FD0E94DD0BC7
:105810001F701093E90082E084BD93E095BD9AEF7C
:1058200097BD80936E001092090310920A031092A4
:105830000B0310920C030E946812811102C00E9497
:105840007C110E947D1080930001809100018823CB
:1058500009F468C01092FC018EE18093FD010E9462
:105860002D1081110E94DD33809100018091000193
:1058700094E0811190E09093160384E0891B80935B
:10588000150384EF0E94CD0785EF0E94CD0786EFB8
:105890000E94CD0787EF0E94CD070DE212E0D801EC
:1058A0008D918D018F3F11F00E94CD07B2E003333F
:1058B0001B07A9F788E0E4E2F3E0DF01882E1D92E0
:1058C0008A94E9F7EDE0F3E0DF011D928A95E9F7AC
:1058D0000E949815811102C00E94AB1782E090E0EF
:1058E0000E941A3680931A0384E090E00E942836C2
:1058F00090931803809317030E942E1EEFE3FCE998
:105900003197F1F700C000000E942E1E8091240301
:1059100080FF0CC06FEF7FEF90E080E00E945C366C
:105920000E94CC068EE18093FC0197CF83E090E04B
:105930000E941A360E942F09809104040E94FA13D3
:105940000E942D10882309F4A8C180E080932504CB
:1059500080E8809311050E9497326BE070E083EC41
:1059600092E00E9481128823E9F18091250465E08C
:1059700070E081FD94C18EEB92E00E948112882339
:1059800089F16DE070E08CEA92E00E948112882338
:1059900049F10E94DD06605A75418F4F9F4F609319
:1059A0002704709328048093290490932A04E4E147
:1059B000F5E080E092E0DF019C011D922150304033
:1059C000E1F7F0931B07E0931A078FEF9FEF909397
:1059D00013058093120581E080932E0480932B049D
:1059E0001092260480911903811176C00E949815A7
:1059F000811104C00E94AB170E94641588E090E0FA
:105A00000E9422364B015C0184E290E00E941A362B
:105A1000282F30E040E050E060E070E080E090E06F
:105A200000E20E94C535282939294A295B2920939B
:105A3000FC033093FD034093FE035093FF036093F8
:105A400000047093010480930204909303048091F6
:105A500047038360809347032E7F89F50E94641576
:105A600088E090E00E9422366B017C0184E290E0A5
:105A70000E941A36282F30E040E050E060E070E0ED
:105A800080E090E00E94C535B22FA32FF42FE52FC0
:105A90005B0197018601BC29A12BFE29E32BB09362
:105AA000FC03A093FD03F093FE03E093FF036093D8
:105AB0000004B092010480930204909303040E94B6
:105AC00044078091FC0380FF04C060E086950E943B
:105AD0002D1581E0809319030E942D10811102C0C1
