:100000000C9430050C944D050C944D050C94633301
:100010000C944D050C944D050C944D050C944D0518
:100020000C944D050C944D050C947A190C943619CA
:100030000C94CE2A0C944D050C944D050C944D0552
:100040000C944D050C944D050C944D050C944D05E8
:100050000C944D050C94531A0C944D050C944D05BD
:100060000C944D050C944D050C944D050C944D05C8
:100070000C944D050C944D050C944D050C944D05B8
:100080000C944D050C944D050C944D050C944D05A8
:100090000C944D050C944D050C944D050C944D0598
:1000A0000C944D050C944D050C944D050E000F005D
:1000B00000000D000E0000001000360000001800C7
:1000C0000C0000000D000900000014001A000000E0
:1000D00009001C0000000900110000000D000800CC
:1000E000000009000B0000000D00040000000900E2
:1000F000180000000D0007000000090013000000B8
:100100000D00050000000D001A0000000D00160093
:1001100000000D001400000005010902A101850284
:100120000901A100050919012908150025019508F3
:10013000750181020501093009311581257F95027C
:100140007508810609381581257F95017508810696
:10015000050C0A38021581257F950175088106C0B6
:10016000C00660FF0961A1010962150026FF009524
:1001700020750881020963150026FF009520750887
:100180009102C005010906A101050719E029E7153B
:100190000025019508750181029501750881010509
:1001A00007190029FF150026FF0095067508810034
:1001B000050819012905150025019505750191020C
:1001C000950175039101C0000000000000000000CF
:1001D000000000000000000000000000000000001F
:1001E00000000000000000000000007E0F00D4FFAF
:1001F000FFFFC70000007800000000000000002A98
:100200002B2800000000000000000000000000009B
:10021000000029000000002C1E3420212224342656
:1002200027252E362D3738271E1F2021222324254F
:10023000263333362E37381F0405060708090A0B04
:100240000C0D0E0F101112131415161718191A1B76
:100250001C1D2F3130232D350405060708090A0B14
:100260000C0D0E0F101112131415161718191A1B56
:100270001C1D2F3130354C616263646566676869A7
:100280006A6B6C6D6E6F7071727374757677787956
:100290007A31323334353637383930524542545F4B
:1002A0002D3D5B5D5C233B27602C2E2F00DA028105
:1002B000FFD9F1DB20A4A62EAF00A0C0D30000A17F
:1002C000C8D30000AED580A81F408D1420000001C7
:1002D0000101010101010101020202020202020206
:1002E00002030303030303030304040404040404D8
:1002F000050505050506060606060707070707089C
:10030000080808090909090A0A0A0B0B0B0C0C0C4E
:100310000D0D0D0E0E0E0F0F0F10101111111212E8
:1003200013131414151516161717181819191A1A65
:100330001B1B1C1D1D1E1E1F2020212222232424C6
:10034000252626272829292A2B2C2D2D2E2F303102
:100350003232333435363738393A3B3C3D3E3F4014
:100360004142434445464748494A4C4D4E4F5051FF
:100370005354555658595A5B5D5E5F6162646566B9
:1003800068696B6C6D6F7072737577787A7B7D7E40
:100390008082838587888A8C8E8F91939596989A90
:1003A0009C9EA0A2A3A5A7A9ABADAFB1B3B5B7BAA8
:1003B000BCBEC0C2C4C6C9CBCDCFD1D4D6D8DBDD7C
:1003C000DFE2E4E7E9EBEEF0F3F5F8FAFDFF00AF6A
:1003D00000AE202000BABB004B657920B10020C0E0
:1003E000C100BEBF00484F005654003030200020EE
:1003F000202020B1BCBD0042616C6CB100B4B500DE
:10040000B2B300C2C3004CB6B772B10020200029BD
:100410000014001A000800150017002B0004001635
:1004200000070009000A00E1001D001B000600197A
:100430000005000000E200E30091212C4190434CB4
:1004400000130012000C0018001C00240233000FDF
:10045000000E000D000B008700380037003600103A
:1004600000110000004600E600913128422A000FEA
:100470007E3A003B003C003D003E000D7E01000145
:1004800000520028004C000E7E0100500051004F29
:10049000002A0000000100010001000100010044E9
:1004A0000043004200410040003F004500D300D21D
:1004B000005200D1004B00010001004F00510050DC
:1004C000004E0000000100010001000100010001D8
:1004D00000340224002500260025020100330221F9
:1004E0000022002300300001002D021E001F00200A
:1004F0000030020000270037000100010001000168
:100500000021022F0023021E0226021F02340020B7
:10051000022E022D003200890238022F022E00879F
:10052000023202000001000100010001004C002025
:10053000780A7E0B7E0C7E0100010021782378254D
:100540007827780100087E22782478267828780198
:1005500000097E0000007C007E01000100010030E7
:10056000782F782E782D782C782B780100010034A4
:1005700078337832783178017E0100047E027E0380
:100580007E057E0000007C007E010001000100016C
:100590000001000100010001000100010001000153
:1005A0000001000100010001000100010001000143
:1005B0000001000000010001000100010001000134
:1005C0000001000100010001000100010001000123
:1005D0000001000100010001000100010001000113
:1005E00000010000000100010001000100010009FC
:1005F000025B00030100A0FA0904000001030101ED
:1006000000092111010001224400070581030800AF
:100610000109040100020300000009211101000189
:1006200022220007058203200001070503032000A2
:100630000109040200010300000009211101000169
:100640002249000705840320000112010002000076
:1006500000085759000400010102000114034B0077
:1006600065007900620061006C006C0034003400A9
:100670000000100359006F0077006B0065006500F3
:1006800073000000040309040000000000000000E3
:100690002F000000000700070000123F123F120069
:1006A000242A7F2A120036091E241B00182629122C
:1006B0002800000007000000001E2140000000404C
:1006C000211E000014083E08140008083E08080017
:1006D00000003070000008080808080000003030F2
:1006E000000020100C0201001E2925231E000022FC
:1006F0003F200000223129292600122125251A0039
:100700001814123F10001725252518001E25252531
:1007100018000131090503001A2525251A000629AC
:1007200029291E000000333300000000337300004D
:100730000814142222001414141414002222141475
:1007400008000201290502003E59555D3E00381699
:10075000111638003F2525251A001E2121211200DF
:100760003F2121211E003F25252521003F090909A0
:1007700001001E2121291A003F0404043F0000212A
:100780003F210000102020201F003F040C122100F8
:100790003F20202020003F0204023F003F020C10B7
:1007A0003F001E2121211E003F09090906001E21CC
:1007B00029112E003F0909192600122525291200AA
:1007C00001013F0101001F2020201F0007182018F1
:1007D00007000F300C300F0021120C12210003040F
:1007E00038040300312925232100007F4141000006
:1007F00001020C1020000041417F000004020102B0
:100800000400404040404000000103040000102A62
:100810002A2A3C003F2422221C001C2222222400DF
:100820001C2222243F001C2A2A2A0C0000043E0518
:1008300005000C5252543E003F08040438000000EA
:100840003D0000002040403D00003F080814220009
:1008500000013F2000003E023C023C003E04020238
:100860003C001C2222221C007E1422221C001C227E
:1008700022147E003E0402020400242A2A2A1200C6
:1008800000021F2200001E2020103E000618201823
:1008900006000E300C300E002214081422000E50F8
:1008A00050483E0022322A262200080877414100A3
:1008B00000007F000000414177080800180408107C
:1008C0000C0000000000000000000000000000001C
:1008D00000000000C0F0F88C86C6E7FFFFFFFFFFB6
:1008E000FFFEFCFCF8E080000000F0F0F00000C02B
:1008F000E0F0707000000000000000000000000048
:1009000000000000000000000000F8F8F8000000FF
:1009100000000000000000000000000000000000D7
:10092000F8F8F80000F8F8F8000000000080E07027
:1009300078686C64C7C7C7C7C7C7E73F1F0F3FFFCB
:10094000FFFFFFFFFF3F0F000000FFFFFF1E3FFF05
:10095000F3E1800000F8FCFE3636363EBCB8000EEF
:100960003EFEF080F0FE3E0E0000FFFFFF06060692
:10097000FEFEFC7000E6F6F63636FEFEFC000000D9
:10098000FFFFFF0000FFFFFF000000003C7F6360EF
:10099000E0C0C0C0C0C0C0C0C0FFFFC06030180F02
:1009A0000303030100000000000003030300000034
:1009B00003030303000103030303030303010070A4
:1009C00070393F1F07010000000001030303030308
:1009D00003030100000103030303030301000000FC
:1009E00003030300000303030010101000000000C5
:1009F000550000003E635D5D637F417B77413E00B3
:100A0000001C22221C003E0A003E0A00322A3C0042
:100A100026281E001C2A2C0000003F09360000007A
:100A20001E212100000000003F0837001E21210088
:100A30001E2121003F090600213F21002225190027
:100A40001E2121003F0936003F211E00213F2100C9
:100A50000F300F003E093E003F063F003F202000C0
:100A600011241FBECFEFDAE0DEBFCDBF12E0A0E061
:100A7000B1E0E4E0FCE602C005900D92A435B107B8
:100A8000D9F727E0A4E5B2E001C01D92AC31B2076E
:100A9000E1F70E94F52A0C94B2350C940000482F1F
:100AA00020910E059091C50459E0291302C080E001
:100AB000089530E0529FF001539FF00D1124EA5346
:100AC000FB4F8181681306C08081481303C0858174
:100AD0008111EECF2F5F3F4F2770E7CFE8EDF0E0B9
:100AE00080818E7F80831092E2001092DA00109253
:100AF000E100A0EEB0E08C9181608C9380818F77D3
:100B0000808319BCA7EDB0E08C918E7F8C9380819F
:100B10008F7E80831092AD0408952091E40030917F
:100B2000E50095E6A9012091EC00822F817020FF5D
:100B300006C08091E80080FF06C080E00895209103
:100B4000E80022FD1AC08091BB04882389F085301B
:100B500089F08091EB0085FD0FC02091E400309179
:100B6000E50042175307F9F29150E1F684E0089549
:100B700082E0089583E0089581E008958091BD04A6
:100B800087FF13C08091E80082FF06C08091E800D3
:100B90008B778093E80004C08091BB048111F2CF71
:100BA00008958091BB048823D9F38091E80080FFE9
:100BB000F8CF8091E8008E77ECCF982F9093E900E2
:100BC000242F762F50E0891731F07091EC0020919E
:100BD000ED005091F00021FD07C09F5F973071F745
:100BE0008093E90081E008953091EB003E7F3093DF
:100BF000EB003091ED003D7F3093ED003091EB0044
:100C000031603093EB007093EC002093ED00509333
:100C1000F0002091EE0027FDE0CF80E00895B0E0E5
:100C2000A0E0E5E1F6E00C949D34C8EDD0E08881C9
:100C30008F7E8883E7EDF0E080818160808384E0AF
:100C400082BF81E08093AD0488818E7F888302EE2D
:100C500010E0F80110821092DA0081EEC82ED12C3B
:100C6000F601108288818F778883888180688883E5
:100C700088818F7D888319BC1092BB041092BC04BC
:100C80001092BA041092B90490EEE92EF12CF701FB
:100C900080818B7F808388818160888342E060E0EF
:100CA00080E00E94DD05F60180818E7F8083F8015F
:100CB000808181608083808188608083F70180816A
:100CC0008E7F8083888180618883CDB7DEB7E8E03E
:100CD0000C94B934FC018091C3049091C40486172C
:100CE0009707A0F06115710529F49091E8009E77AF
:100CF0009093E80090E06115710551F4911108C0DE
:100D00008091E80082FF34C080E00895BC01F2CFFA
:100D10008091BB048823C1F18530C1F18091E80046
:100D200083FD30C08091E80082FDEACF8091E80029
:100D300080FFE1CF8091F3002091F200382F611500
:100D4000710519F02830310558F091E0283031054F
:100D500009F090E02091E8002E772093E800CBCFB7
:100D600081918093F100615071092F5F3F4FE7CF70
:100D70008091BB04882341F0853041F08091E800E8
:100D800083FFBECF81E0089582E0089583E0089557
:100D900008958091B004089587E797E7909301083C
:100DA0008093000888E19AE00FB6F894A8958093A4
:100DB00060000FBE90936000FFCF2FB7F894609152
:100DC000A9047091AA048091AB049091AC042FBF48
:100DD0000895DC016091A2048091A304962F8913E9
:100DE00001C00895292F30E0F901EE0FFF1FE656EC
:100DF000FB4F408151814A175B07A1F487E08A9F2E
:100E0000A0018B9F500D112444585E4F81E0FA01E0
:100E100084839613E6CF2F5F3F4F237033272093B1
:100E2000A20408952F5F3F4F922F9370D8CF109256
:100E30002E0410922D04ECE7F1E08581811102C0AF
:100E400014821682379681E0EA3FF807B1F70895D9
:100E5000FC01680F791F8FEF91E32191822728E031
:100E600030E087FF09C0880F892721503109C9F771
:100E7000E617F70791F70895880FF7CFFA01811168
:100E800001C0FB01099508958091F903982F9E7F79
:100E900071F48091F903817082608093F9038091ED
:100EA000FC03873918F086E98093FC0308958430A9
:100EB00080F7F5CF90917401882341F09F5F909364
:100EC0007401109271011092700108959150F7CF42
:100ED000E9E6F1E0828591E0892782871086178212
:100EE000089580917201811108C08091740181116F
:100EF00004C0809173018170089581E090E0FBCF80
:100F0000CF93DF93E1E0F2E083819481A581B68104
:100F1000E90188839983AA83BB8314821382168292
:100F20001582DF91CF91089580E0089563E070E02D
:100F30008FEA92E00E9428079091AE02891318C0B0
:100F4000E091AF02EC30A4F488E0E802F001112453
:100F5000EF5FFE4F0680F781E02D309749F022EDDC
:100F600032E04091B10262EB72E08091B0020995EB
:100F70000895E9E9F2E0878980933101808D8093BB
:100F800044010895F894E82FE295EF70F0E031A164
:100F9000282F2F7081E090E001C0880F2A95EAF792
:100FA000982F9095932391A392A1892B82A3789453
:100FB0000895811522E5920780F5811540E5940793
:100FC00008F0A3C0883E9105A0F4803E910558F436
:100FD000853A910548F48430910528F481309105D3
:100FE00011F090E080E008958D3C9105D0F390657C
:100FF0000895811550E4950708F062C0811560E2FC
:10100000960708F09BC0811571E0970750F320E028
:10101000392FB901682BCB010895803622E592075C
:10102000F8F4803442E5940708F054C0803252E569
:10103000950708F048C0282F2695269570E2279F2F
:1010400090011124837041E050E0BA0102C0660FA4
:10105000771F8A95E2F7CB01822B932B9D68089529
:10106000803C62E5960700F5803A72E5970708F044
:1010700047C0803822E5920708F0B3CF282F269585
:101080002695277070E2279F90011124837041E01C
:1010900050E0BA0102C0660F771F8A95E2F7CB01D4
:1010A000822B932B9A680895803E42E5940708F0BE
:1010B00098CF982F882788279F71806F906A08950E
:1010C0009F70906A08958F7190E0982F8827816FA4
:1010D000906A0895282F26952695277070E2279FFD
:1010E00090011124837041E050E0BA0102C0660F04
:1010F000771F8A95E2F7CB01822B932B9C6808958A
:101100008F7190E0982F882708959C0195E036957F
:1011100027959A95E1F72F7030E0322F2227482F3C
:101120004F7150E084FF05C084E0440F551F8A953D
:10113000E1F7C901842B952B906908959F71906206
:10114000089580910E059091C504981301C00895EB
:101150008F5F8770FACF292F983078F5863068F541
:1011600090E036E0239F800D911D1124682F677059
:1011700023E0969587952A95E1F7FC01EE0FFF1F76
:10118000E80FF91FE859FD4F50E040E080E0219161
:1011900030E0062E02C0369527950A94E2F72170BA
:1011A0003327042E01C0220F0A94EAF7822B4F5FE7
:1011B0005F4F4330510559F7089580E00895292F76
:1011C000983098F5863088F590E036E0239F800DC2
:1011D000911D1124282F277041E001C0440F2A954A
:1011E000EAF723E0969587952A95E1F7FC01EE0F43
:1011F000FF1FE80FF91FE859FD4F30E020E070E0D5
:101200005191DF011197CB01022E02C0969587956F
:101210000A94E2F7817081958527842385278C9332
:101220002F5F3F4F2330310559F7089580938B028C
:101230000895982F92959F7011F0892F94E0282F90
:101240002695269511F09E5F822F869509F09F5F67
:10125000892F0895CF93C82F80910E028C1751F0DB
:101260000E94DD0660930F027093100280931102BA
:1012700090931202C0930E02CF910895B0E0A0E0C7
:10128000E4E4F9E00C949D348C01EB01E09113024D
:10129000E11101C0E7E0E150FF0B81E090E06C015B
:1012A0000E2E02C0CC0CDD1C0A94E2F7D801ED90A2
:1012B000FC90C701B6010E94E4349B01CB010E2EC5
:1012C00002C0880F991F0A94E2F7E81AF90AD801B8
:1012D0001196FC92EE921296ED90FC90C701B60129
:1012E0000E94E434CB0102C0880F991FEA95E2F70F
:1012F000E81AF90AF801F382E2826138FFEF7F070A
:10130000F4F060387105ECF46D8321388FEF380705
:10131000D4F020383105CCF4822F81958C8344237E
:1013200019F061956D832C8380911402882379F0E4
:10133000813079F0CDB7DEB7E8E00C94B93461E8DC
:10134000E3CF6FE7E1CF21E8E7CF2FE7E5CF1D82BD
:10135000F1CF1C82EFCFFC01DB012281338191E8C8
:1013600021388FEF38072CF0922F203831050CF000
:101370009FE712969C9312972081318121388FEF3D
:101380003807A4F0203831059CF413962C9313975A
:10139000442339F0919512969C93129721951396B8
:1013A0002C931182108213821282089521E8EDCFCE
:1013B0002FE7EBCF8F708A3010F4805D0895895A43
:1013C0000895382F20E287FF02C031952DE24AE0D0
:1013D000832F642F0E94D634905D90936102811117
:1013E0000BC02093600220E220935F0220E2209352
:1013F0005E028EE592E00895642F0E94D634905DDF
:1014000090936002832F64E60E94D634882361F3B0
:10141000805D80935F02EBCF9C01860F971F37FDA5
:1014200007C077FD04C097FF02C08FEF9FE70895C4
:1014300077FFFDCF97FDFBCF80E090E80895E2E7CE
:10144000F1E083E0DF011D928A95E9F7EEE6F1E035
:1014500084E0DF011D928A95E9F7089520916B01E0
:1014600030916C012817390731F090936C0180930B
:101470006B010E941F0A089590916901981721F04D
:10148000809369010E941F0A0895CF9390913D03B4
:1014900080913603981323C080913E03882321F066
:1014A0009091370389131BC080913F03882321F05B
:1014B00090913803891313C080914103882321F050
:1014C00090913A0389130BC090914003992329F01E
:1014D00081E020913903291303C080E001C081E03D
:1014E000C82FC17080FF0FC0E091A604F091A7043F
:1014F000309749F082E080933C030480F581E02D31
:101500008CE393E0099590913D0386E0ECE3F3E0F2
:10151000DF01282F1D922A95E9F790933D03A5E35B
:10152000B3E001900D928A95E1F781E0C11103C00B
:10153000911101C080E08170CF9108952FE2280FB2
:10154000283078F481E090E001C0880F2A95EAF70E
:1015500020913D03662331F0822B80933D030E944E
:10156000450A089580958223F8CFCF93DF93282FE3
:1015700081E02A3019F02D3031F480E00E94490BCF
:10158000DF91CF910895809118079091190736E067
:10159000FC01A2E1B7E001900D923A95E1F730EE3F
:1015A000320F343A08F458C026E0FC0111922A9513
:1015B000E9F7C0911807D091190746E050E0BE0145
:1015C00082E197E00E9444359E0122513540892BEB
:1015D00041F1C90145E0969587954A95E1F741E0CB
:1015E00050E0BA0102C0660F771F8A95E2F7CB017F
:1015F0006091100570911105862B972BB9016B5FD7
:101600007F4FE5E076956795EA95E1F702C0440FD4
:10161000551F6A95E2F7842B952B909311058093C3
:1016200010052A5F3F4F40910F05642F70E0C901FC
:101630000E947F34481B463010F4240F311D2115C1
:1016400072E0370710F030E020E02E5E3A4F309322
:1016500019072093180794CF2052330B46E0429F7E
:10166000B001439F700D11246857794F46E050E058
:101670000E943B359ECFCF93DF93EC01FE01849116
:10168000811103C0DF91CF9108950E94B50A219680
:10169000F5CFCF93382FE0911807F0911907E25159
:1016A000F54020910F05622F70E0CF010E947F343A
:1016B000281B822F332361F066E00E94CA34C82FB2
:1016C000C15010F4CF91089580E20E94B50AF8CF7E
:1016D0009F01280F311D2115324018F080E0F0E005
:1016E000E0E08E0F9F2F911D8E5E9A4F9093190709
:1016F00080931807E7CF8091AE0490912F04892B37
:101700008093560248E050E063E872E086E592E09C
:101710000E944435892BA9F088E0E6E5F2E0A3E8D1
:10172000B2E001900D928A95E1F7E091A604F09164
:10173000A704309731F00280F381E02D86E592E036
:101740000995089580912C04882349F080912F04F5
:101750008D7D80932F040E947B0B10922C040895A2
:10176000E8E5F2E086E0DF011D928A95E9F7109244
:101770002F040E947B0B0895AAE2B0E0E2ECFBE0AC
:101780000C94A2348DEB94E02091F100DC012D93B8
:10179000CD01B4E0853C9B07B9F78091BE0483304E
:1017A00009F472C0B8F4813009F449C0823009F4F8
:1017B000B5C08091E80083FF8DC28091BD049091F7
:1017C000BE049A3008F086C2E92FF0E0EC54FA4CDF
:1017D0000C94F8348A3009F490C08B3009F471C04D
:1017E000893039F78091BD04813219F78091C104A5
:1017F0009091C204009711F00297D9F68091E80009
:10180000877F8093E8008091E80082FF38C0909144
:10181000F3008091F200029731F48091F100813061
:1018200011F0863021F48091F1008093B004809112
:10183000E8008B778093E8000E94BE05BACF8091C4
:10184000BD04813A09F0B5CF8091E800877F80938D
:10185000E8008091C1049091C204892B61F468E092
:1018600081EB94E070E00E946A068091E8008B773B
:101870008093E8009ECF60E090E080E0F3CF80911D
:10188000BB048111C0CF95CF8091BD04813A09F08E
:1018900090CF8091C1049091C204892B09F089CF27
:1018A0008091E800877F8093E8008091E80080FFC6
:1018B000FCCF8091FB018093F1008091E8008E774E
:1018C000B9CF8091BD04813209F073CF8091C104FA
:1018D0009091C204892B09F06CCF8091E800877F3A
:1018E0008093E8000E94BE058091BF048093FB01B5
:1018F0001092AE040E94B00B5CCF8091BD04813287
:1019000009F057CF8091E800877F8093E8000E941C
:10191000BE058091C0048093AF044BCF8091BD047D
:10192000813A09F046CF8091E800877F8093E800F4
:101930008091E80080FFFCCF8091AF04BCCF80385D
:1019400099F0823809F0C6C18091C1048F70873048
:1019500008F0C0C18093E9008091EB0085FB8827E7
:1019600080F91092E90006C08091B9049091BA0400
:10197000911182609091E800977F9093E8008093A6
:10198000F1001092F1008091E8008E779FC18823CA
:1019900009F48DC1823009F09DC18091BF0481118D
:1019A00090C18091C1048F702FEF280F263008F06E
:1019B00091C18093E9002091EB0020FF82C1933018
:1019C00031F48091EB0080628093EB007AC19091BA
:1019D000EB0090619093EB0021E030E001C0220F1A
:1019E0008A95EAF72093EA001092EA008091EB00D2
:1019F0008860EACF81116EC11091BF041F7780917A
:101A0000E3008078812B8093E3008091E800877F5A
:101A10008093E8000E94BE058091E80080FFFCCF23
:101A20008091E30080688093E30082E0111183E0FD
:101A30008093BB044FC18058823008F04BC1209185
:101A4000BF043091C0042C3DE3E03E07A1F583E0E4
:101A50008A838AE289834FB7F894DE01139620E0E7
:101A60003EE051E2E32FF0E050935700E49120FF75
:101A700003C0E295EF703F5FEF708E2F90E0EA3089
:101A8000C0F0C7968D939D932F5F243159F74FBFB8
:101A90008091E800877F8093E8006AE270E0CE01E1
:101AA00001960E946A068091E8008B778093E80097
:101AB00011C1C096E7CF8091C1049091C204432F19
:101AC00055274330510509F44AC078F54130510596
:101AD00009F47AC08BE590E0EFEEF5E04230510575
:101AE00009F0F8C02091E800277F2093E8002091BA
:101AF000C3043091C4048217930708F49C0140E0AA
:101B00002115310509F065C0411163C08091E800DD
:101B100082FDC9CF8091BB04882329F2853019F258
:101B20008091E80083FFF2CFBECF4132510509F426
:101B30003CC04232510509F0CDC08330910508F018
:101B4000C9C0FC01EE0FFF1FE85BFD4F0190F08163
:101B5000E02D8B5B9D4FDC018C9190E01AC0332708
:101B600021303105D1F02115310561F022303105E8
:101B700009F0B0C0ECE5F6E0E4918E2F90E0ECE5E2
:101B8000F6E007C0E4E8F6E0E4918E2F90E0E4E8A8
:101B9000F6E0009709F49EC0A5CFE2E7F6E0E491F5
:101BA0008E2F90E0E2E7F6E0F4CF8330910508F065
:101BB00091C0880F991FFC01E25BFD4F0190F081FD
:101BC000E02D89E090E08ECF82E190E0EAE4F6E05B
:101BD00089CF8091BB04882309F465CF853009F44F
:101BE00062CF8091E80083FD5ECF8091E80082FDA6
:101BF0008DCF8091E80080FF83CF9091F30080919A
:101C0000F2002115310519F08830910550F041E0BE
:101C1000089709F040E08091E8008E778093E80013
:101C20006FCF44914093F1003196215031090196D4
:101C3000E8CF803809F04EC08091E800877F80931C
:101C4000E8008091BC048093F1009DCE811142C0D8
:101C50001091BF041230F0F58091E800877F8093E7
:101C6000E8001093BC040E94BE05112311F084E02B
:101C700005C08091E30087FDFACF81E08093BB042B
:101C800042E061EC81E00E94DD0542E261EC84E02B
:101C90000E94DD0542E261EC82E00E94DD0542E245
:101CA00060EC83E00E94DD058091BB0413C080914D
:101CB000BF04813079F481E0933009F080E08093B3
:101CC000BA041092E9008091E800877F8093E800D1
:101CD0000E94BE058091E80083FF0AC08091E80061
:101CE000877F8093E8008091EB0080628093EB0017
:101CF000AA96E3E00C94BE34882341F0809590913D
:101D0000AE0489238093AE040E947B0B0895882340
:101D100039F09091AE04982B9093AE040E947B0B07
:101D20000895882379F19CEF980F913A78F4E8E5CB
:101D3000F2E09191891303C0DF0111971C9242E0F8
:101D4000EE35F407B1F70E947B0B089590E2980FEF
:101D5000983088F4877021E030E0A90102C0440F78
:101D6000551F8A95E2F7CA0180959091AE048923A8
:101D70008093AE04E8CF93E3980F933118F460E0BA
:101D80000E949E0A08950F931F93CF93C82F882314
:101D900041F18CEF8C0F813AB0F508E512E08EE549
:101DA00092E0F8012191C21701F18E179F07D1F738
:101DB000EFEF80E0D8019D918D01C91781F0EF3FD1
:101DC00019F4911101C0E82F8F5F863099F7EF3F2A
:101DD00031F00E2E000CFF0BEA5AFD4FC2830E9419
:101DE0007B0BCF911F910F910895E8E5F2E02191CF
:101DF000C21303C0DF0111971C928E179F07B9F71A
:101E00000E947B0BD5CF80E28C0F883068F4C770BE
:101E100021E030E001C0220FCA95EAF78091AE04BC
:101E2000822B8093AE04DBCF83E38C0F8331C8F623
:101E300061E08C2F0E949E0AD4CF0F931F93CF9303
:101E4000DF93EC01FC0101900020E9F78F010150C4
:101E50001109C017D10728F0DF91CF911F910F9181
:101E6000089589910E94B50AF4CF0F931F93CF93E1
:101E7000DF938B01EA019091BB04943061F580936C
:101E8000E9008FEF9091E800815095FD06C095ED37
:101E90009A95F1F700008111F5CF8091E80085FF58
:101EA0001AC00E948D05811111C08091E80085FD46
:101EB00006C08091E8008E778093E800F2CFF801A9
:101EC00081918F018093F100219779F78091E8004B
:101ED0008E778093E800DF91CF911F910F91089545
:101EE00046E050E0BC0184E00E94350F0895CF9396
:101EF000DF93EC0148E050E0BC0181E00E94350F27
:101F000088E0FE01A1EBB4E001900D928A95E1F723
:101F1000DF91CF9108956091FD018091F90380FFD9
:101F200020C08091FC0143E0849FC00111248B5BA1
:101F30009C4F539A2BB1277F3BB138605FB7F89421
:101F4000FC01649FE00DF11D1124BF0168177907A2
:101F5000D1F45FBF8FE594E00197F1F700C0000076
:101F600008958091FE019091FF0123E0829FF0018E
:101F70001124EB5BFC4F8917A0F6118210821282AC
:101F80008F5F3396F8CFFC014191CF01E8E03BB978
:101F9000000000C047FF2BB9440F000000C000C084
:101FA00000C02BB900C0EA9591F7D0CFE9EFF3E07C
:101FB00080818E7F8083E2E4F3E08281816082838E
:101FC0000E948B0F0895B0E0A0E0E9EEFFE00C94D2
:101FD0009B347C015B016A018091060301E010E003
:101FE0008A3010F40AE010E0C1E0D0E0B501C7018A
:101FF000F6010995811104C021960C171D072CF4D8
:10200000CDB7DEB7EAE00C94B734CC9F9001CD9FFA
:10201000300D300D112490E080E045E34A95F1F752
:102020000000019682179307C1F7E0CF80919802D4
:10203000811119C088EC90E02091E30027FD10C0C9
:10204000EFE3FCE93197F1F700C000000197A1F739
:1020500082E0809398020E946E051092BB0403C038
:1020600081E08093980281E090919802913011F084
:1020700080E0089508950E941610882359F0E09199
:10208000A604F091A704309729F00190F081E02D8B
:102090000995089580E008950F931F930E941610EC
:1020A000882329F00E94DD061F910F9108950E9458
:1020B000DD06009107031091080320910903309178
:1020C0000A03600F711F821F931FEECF54985C9A12
:1020D000879A8F9885E08A95F1F7000089B18798F3
:1020E0008F9A90EA9A95F1F790E024E0959587957C
:1020F0002A95E1F78095909581700895CF93DF93AD
:1021000080910102CEE18111CDE180910202D0E007
:10211000882329F080910302DEE18111DDE10E9434
:10212000661081110FC08D2F8093FC01C093FD01BB
:10213000CD0F1092FE01C093FF01C0930002DF910A
:10214000CF91089580E0F0CF80910102F901808362
:102150000E947E1008951F93CF93DF93182FEB01F9
:102160000E94C30E8FE99FE00197F1F700C00000C5
:102170002197C1F7812F0E94910EDF91CF911F917E
:1021800008951092AE040E94B00B2FEF84E39CE000
:10219000215080409040E1F700C0000088E19AE0C3
:1021A0000FB6F894A895809360000FBE90936000DE
:1021B000FFCFCF93DF93C9E0D2E060E0CE010E9471
:1021C0007E352196C11584E0D807B9F7DF91CF910C
:1021D00008951F93CF93DF93122F8530E0F468307A
:1021E000D0F44630C0F4C42FD0E0CC0FDD1F9CE00B
:1021F000699FC00DD11D112490E6899FC00DD11D8E
:102200001124632FCE0189960E947E35612FCE0165
:102210008A960E947E35DF91CF911F910895AF92EB
:10222000BF92CF92DF92EF92FF921F93CF93DF93F3
:102230008FE0C82E84E0D82ED0E07601C0E014C034
:10224000F50125913491412F6C2F8D2F0E94E910BB
:1022500082E0A80EB11C1F5F163091F78CE0E80EEB
:10226000F11CCF5FC83019F0570110E0E9CFDF5FF4
:1022700080E6C80ED11CD53001F7DF91CF911F91B8
:10228000FF90EF90DF90CF90BF90AF90089588E2DD
:1022900090E00E947E350895CF93C82F6FEF811193
:1022A00066E285E290E00E947E356FEFC11167E043
:1022B00086E290E00E947E356FEFC11164E187E213
:1022C00090E00E947E35CF91089580E00E944C11ED
:1022D00060E070E0CB010E9447110E940F110E9444
:1022E000D91081E00E944C1108950F931F93CF9352
:1022F000DF93853030F5683020F5463010F5C42F77
:10230000D0E0CC0FDD1F2CE0629FC00DD11D112449
:1023100030E6839FC00DD11D1124CE0189960E9405
:102320005A35082F10E0102F0027CE018A960E9400
:102330005A359801282BC901DF91CF911F910F9138
:10234000089590E080E0F8CF462F783040F4663072
:1023500030F4853020F4672F0E947511089590E0C5
:1023600080E00895CF92DF92FF920F931F93CF9357
:10237000DF936C010091010480918B02082BC4E073
:10238000D0E010E0FC2EC8010C2E02C09595879578
:102390000A94E2F780FD0CC02197A0F7F12C8F2D55
:1023A000DF91CF911F910F91FF90DF90CF90089513
:1023B000B6018C2F0E94A4110E94D907019761F3E6
:1023C000EECFCF93DF93EC010E94B211BE010E94C9
:1023D000A4110E94D907DF91CF910895FC01848157
:1023E0008823F9F087819085009791F00E94D907A2
:1023F00092959F709630B9F080F4925F9F70923002
:1024000080F4803F19F058F4883E58F481E0089534
:10241000808191810E94E111EBCF9A5FEFCF843FE1
:10242000A9F380E00895883E88F3813FD1F7EECF8D
:10243000A6E0B0E0EEE1F2E10C94A2349C01FC01D4
:10244000878190850097E1F486E0DE011196019086
:102450000D928A95E1F7F901258189819A812223DC
:1024600099F0662389F00E94B211182F682F898194
:102470009A810E94DF0869817A81812F0E94A411CC
:102480002696E3E00C94BE340E94AB08182FF3CFDD
:1024900088E290E00E945A35682F70E090E080E07A
:1024A000089585E290E00E945A35863289F486E2EA
:1024B00090E00E945A35873059F487E290E00E94FC
:1024C0005A3591E0843109F090E0892F81700895A8
:1024D00080E0FCCFB0E0A0E0E0E7F2E10C949D34B6
:1024E0006C017B0164E670E088E70E94DD318C01BD
:1024F000E601EC0CFD1C17FD0BC0FE01849164E6A7
:1025000070E00E9449328C012196CE15DF0599F7C3
:102510000E94BF3281E00115110509F080E0CDB7BE
:10252000DEB7E8E00C94B9348091280490912B0434
:10253000911103C091E089270895882369F062E032
:1025400070E080ED93E00E946A12811103C08091D7
:10255000280408951092280480912804EBCFCF938B
:10256000C091280480912B048823D1F00E94DD06BD
:10257000605A75418F4F9F4F6093240470932504D8
:102580008093260490932704C11108C062E070E094
:102590008EEC93E00E946A12811105C0C09128045C
:1025A0008C2FCF91089581E080932804F7CFB0E07D
:1025B000A0E0EDEDF2E10C94993449015A016B0170
:1025C0007C010E9444078401A4016A2D7B2D88E0D0
:1025D00090E00E94903594014A2D5B2DB601C70111
:1025E00000E20E942035622F84E290E00E947E3556
:1025F000CDB7DEB7ECE00C94B534B0E0A0E0E3E09A
:10260000F3E10C949934182FC62FD42F822E009109
:10261000F90300FF50C08091FA03811308C0809134
:10262000FB03861304C08091FC03841729F080917A
:102630004403826080934403E02FE695F0E0E55C7C
:10264000FD4F808180934203802F8E7F8230E9F49A
:10265000ED2FD73908F0E6E9F0E0E253FD4FC11164
:102660002FC02491F22FE22F00FF0FC08091FE01B6
:102670009091FF0133E0839FD0011124AB5BBC4FED
:10268000891708F492C00E948B0F1093FA03C0932D
:10269000FB03D093FC03882071F02091F903609133
:1026A000FD037091FE03312FAE018091FF039091E5
:1026B00000040E94D712CDB7DEB7ECE00C94B5341D
:1026C000EC2EF12CE4919E2ECE2ED12C26E0129FE2
:1026D000C00111242FEF30E0B9010E947F34812F17
:1026E00090E0880F991FF5E5F69FA001F79F500D28
:1026F0001124841B950BB82EBB0CB80EA9014E19E2
:102700005F094C9DC0014D9D900D5C9D900D112465
:10271000F92FCB9DA0011124452F5527D901A41BCA
:10272000B50BAC9DA001AD9D500DBC9D500D11246D
:10273000D901AB19B1095D01AE9CD001AF9CB00DC0
:10274000BE9CB00D1124AB2FBB272A1B3B0B2C9D2D
:10275000D0012D9DB00D3C9DB00D11242B2F62306A
:102760007105A1F050F46115710509F47DCF613058
:10277000710581F0292FF52F77CF6430710569F04D
:1027800080F06630710509F46FCFF4CF2E2FE92F5A
:10279000FB2F6ACF2E2FE52F67CF292FFE2FEB2F90
:1027A00063CFE92FF92D252F5FCF1196EC93119769
:1027B0002C931296FC9312978F5F139661CF20E0B3
:1027C0000E94FD120895CF93DF93D82F0E9419091C
:1027D000C82F81E0C33009F080E00E942A094FEF42
:1027E00066E684E8C230B1F058F44FEF6FEF8AE646
:1027F000CC2381F04FEF6FEFC13059F040E008C0BB
:102800004FEF6FEF85EDC33029F04FEFC430B1F7D4
:1028100060E080E00E94DF138D2FDF91CF9108955B
:102820000E94E3138093010408959091010421E034
:1028300030E0F90101C0EE0F8A95EAF7D90102C034
:10284000AA0FBB1F6A95E2F7EA2B01C0220F4A9537
:10285000EAF7892F8E23E81305C0292B822F0E94C7
:102860001014089520952923F9CF21E030E001C00C
:10287000220F8A95EAF720958091010482230E9415
:102880001014089521E030E001C0220F8A95EAF784
:1028900080910104822B0E9410140895E9EFF3E067
:1028A00043812FE0421B08F440E021E062818181F6
:1028B0000E94FD120895E9EFF3E043812FE0420FFB
:1028C00008F44FEF21E0628181810E94FD1208959A
:1028D000E9EFF3E0628121E1621B08F460E021E0AE
:1028E000438181810E94FD120895E9EFF3E0628146
:1028F00021E1620F08F46FEF21E0438181810E94A2
:10290000FD120895E9EFF3E0818121E043816281C6
:1029100081510E94FD120895E9EFF3E0818121E0E9
:10292000438162818F5E0E94FD1208958091FD03B4
:10293000882319F081508093FD032091F903309191
:10294000FA034091FB035091FC036091FD037091E9
:10295000FE038091FF03909100040E94D712089516
:102960008091FD03833018F48F5F8093FD032091E5
:10297000F9033091FA034091FB035091FC036091FD
:10298000FD037091FE038091FF03909100040E946B
:10299000D71208952091F90320FF23C021702260EF
:1029A0002093F9038091440381608093440366235C
:1029B00081F03091FA034091FB035091FC03609148
:1029C000FD037091FE038091FF03909100040E942B
:1029D000D7124091FC036091FB038091FA030E949F
:1029E000DF1308958091F9038695815009F481E001
:1029F00061E00E94CA14089561E081E00E94CA1457
:102A00000895E9EFF3E083E0808311828FEF828302
:102A100086E983831482A2E4B3E012968C91129724
:102A2000836012968C93758123E030E04FEF56E976
:102A300060E0868197810E94D712089590E080E03F
:102A40000E946835863E9E4F19F40E9451120895E7
:102A500080E00895B0E0A0E0E0E3F5E10C949E345E
:102A60007901C82F880FDD0B41155105A9F0FE0132
:102A700093E0EE0FFF1F9A95E1F7EF5FFE4F818124
:102A8000928187569D4F208130E04217530708F40A
:102A90009A01A9010E945135CE010E940934D82E15
:102AA0008823D1F001151105B9F083E0CC0FDD1FAB
:102AB0008A95E1F7FE01EF5FFE4F438150E0041776
:102AC000150708F4A801CF5FDE4F6C817D81675642
:102AD0007D4FC7010E9451358D2DCDB7DEB7E7E0A0
:102AE0000C94BA34A5E0B0E0E8E7F5E10C949B342F
:102AF0008D83E62E5A01F22E6801809106038A30FA
:102B000028F080E02596EAE00C94B7348D81893076
:102B1000C4F31A8219828A836B832C8363E070E08A
:102B2000CE0102960E9428078983E0923101F0923B
:102B3000440110E000E030E020E044E050E0BE015D
:102B40006F5F7F4F85E00E942A158823D1F24E2DBA
:102B500050E030E020E0B50186E00E942A1588238D
:102B600081F230E020E041E050E0BE016B5F7F4F3A
:102B700087E00E942A15882321F20F2D10E096018C
:102B800050E040E070E060E088E00E942A15BACF93
:102B9000A4E0B0E0EEECF5E10C94A1344091FA022F
:102BA0005091FB026091FC027091FD022FB7F894E6
:102BB0008091A9049091AA04A091AB04B091AC04B7
:102BC0002FBF841B950BA60BB70B11E08436910524
:102BD000A105B10518F10E944C106E5F7F4F8F4F19
:102BE0009F4F69837A838B839C8310E000E030E001
:102BF00020E044E050E0BE016F5F7F4F82E00E9422
:102C00002A15182F882351F00E94DD066093FA02DE
:102C10007093FB028093FC029093FD02812F249617
:102C2000E4E00C94BD34A5E0B0E0E9E1F6E10C94F9
:102C30009F347B0101E010E09E012B5F3F4F50E08D
:102C400040E070E060E080E00E942A15182F8823A1
:102C500009F456C04091F6025091F7026091F802D3
:102C60007091F9022FB7F8948091A9049091AA0469
:102C7000A091AB04B091AC042FBF841B950BA60BA5
:102C8000B70B84369105A105B10548F464E070E006
:102C90008AE992E00E9428079D81891789F104E062
:102CA00010E09E012F5F3F4F50E040E070E060E099
:102CB00081E00E942A15082F64E070E08AE992E022
:102CC0000E94280711E09D81981310E0102331F134
:102CD0000E94DD066093F6027093F7028093F8027B
:102CE0009093F90289819A81AB81BC818093F20231
:102CF0009093F302A093F402B093F50211E00EC09A
:102D000080919A0290919B02A0919C02B0919D02A9
:102D100089839A83AB83BC831111E4CF8091F20243
:102D20009091F302A091F402B091F502F701808333
:102D30009183A283B383812F2596E6E00C94BB3464
:102D40008F929F92AF92BF92EF92FF920F931F9339
:102D5000CF937B01942FB901A801F7018080918066
:102D6000A280B380EFB7F8940091A9041091AA044F
:102D70002091AB043091AC04EFBF081919092A095E
:102D80003B09043611052105310518F4C1E09923EA
:102D900081F010E000E030E020E00E942A15C82F0A
:102DA000882339F00E94DD06F701608371838283F6
:102DB00093838C2FCF911F910F91FF90EF90BF9035
:102DC000AF909F908F900895A1E0B0E0EAEEF6E119
:102DD0000C94A1348091280489832091AD0290E065
:102DE00041E02817190609F440E001E010E09E01D7
:102DF0002F5F3F4F62E073E084E00E94A0162196AF
:102E0000E4E00C94BD34ABE0B0E0E9E0F7E10C9411
:102E1000A13488E0E9EFF3E0DE01119601900D9214
:102E20008A95E1F78091420390914303A091440376
:102E300089879A87AB8741E08B85811101C040E08B
:102E40000BE010E09E012F5F3F4F6EEF72E083E0DA
:102E50000E94A0168111109244032B96E4E00C947A
:102E6000BD34A8E0B0E0E7E3F7E10C94A33466EEEC
:102E70007EEF90E080E00E949C3560E082E090E090
:102E80000E947E3560E083E090E00E947E351092E3
:102E90008B0260E074E184E090E00E949C3560E089
:102EA00086E090E00E947E356FEF87E090E00E9420
:102EB0007E3540E050E0BA0188E090E00E94903515
:102EC00060E084E290E00E947E3560E087E190E07F
:102ED0000E947E3560E08CE090E00E947E3560E0EC
:102EE0008DE090E00E947E3519821A821B821C823E
:102EF0001D821E821F82188648E050E068E170E063
:102F0000CE0101960E946E3540E050E0BA0180E2A9
:102F100090E00E94903580E00E944C110E94651163
:102F200040E050E0BA018FE090E00E94903540E030
:102F300050E0BA0183E190E00E9490352896E2E0EB
:102F40000C94BF3428E030E043E060E086E30E9468
:102F500005310895CF93DF93D82FC62F0E94A21773
:102F60008D2F80680E947D318C2F0E947D318AEBED
:102F70008A95F1F700C00E94AD3183E492E0019799
:102F8000F1F700C00000DF91CF910895682F8937D5
:102F900008F068E760930C0291E090930D02909125
:102FA0000102992339F06150811101C064E08FE082
:102FB0000E94AA170895FB0180810E94C6170895F8
:102FC00090910C02911101C095E0282F880F330BCE
:102FD000A901490F511DCA011816190614F081E004
:102FE00090E00E94C6170895ACE0B0E0EAEFF7E188
:102FF0000C949D344F83588769877A878B879C8789
:1030000080910102882309F446C0809163028111F6
:1030100007C060E080E50E94AA1781E08093630208
:103020000E94A21780E50E947D318AEB8A95F1F714
:1030300000C00E9495310E9495310E9495317C011B
:103040000E94953120E0E22AF82A0E9495318C01F5
:103050000E94953120E0022B182B0E94AD3185E0B3
:103060008A95F1F70000F894B701809104029091DD
:1030700005020E940C0A9093050280930402B80195
:1030800080910602909107020E940C0A9093070219
:103090008093060278940E941610882309F469C070
:1030A0000E94DD0600916402109165022091660283
:1030B000309167026B017C01C01AD10AE20AF30A5F
:1030C00097018601083011052105310508F451C02A
:1030D0006093640270936502809366029093670226
:1030E00000910F02109110022091110230911202F2
:1030F000601B710B820B930B623371058105910587
:1031000080F41092050210920402109207021092AD
:103110000602109209021092080210920B021092FD
:103120000A0210910E020E946610482FBE01695FCC
:103130007F4F84E092E0112389F10E943E090091C3
:103140000E02109101020E94661041E04827BE0164
:10315000695F7F4F88E092E0011719F10E943E09F4
:1031600086E0FE013796A9E1B2E001900D928A95C2
:10317000E1F786E0FE013796DE01119601900D928F
:103180008A95E1F729813A814B815C816D817E814D
:1031900080E090E02C96E8E00C94B9340E94AB09F2
:1031A000CECF0E94AB09DCCFCF93C82F0E94A217CD
:1031B0008C2F0E947D318FE792E00197F1F700C0DC
:1031C00000000E949531C82F95E09A95F1F7000014
:1031D0000E94AD3185E68A95F1F7000010926302F6
:1031E0008C2FCF910895CF93DF930E94FD30269AC4
:1031F0000E94A2176AE58AE30E94AA172FEF80E7D0
:1032000092E0215080409040E1F700C0000082E051
:103210000E94D41883E00E94D41884E00E94D4183D
:1032200085E00E94D41886E00E94D41860E080E116
:103230000E94AA1780E00E94D418D82F81E00E9433
:10324000D418C82F0E94AD31D23419F481E0C130B6
:1032500009F080E0817080930102882321F064E00E
:103260008FE00E94AA17DF91CF9108951F920F92CD
:103270000FB60F9211242F933F934F935F936F9349
:103280007F938F939F93AF93BF93CF93DF93EF93EE
:10329000FF93D091E900DF708091EC00C82FC170DE
:1032A00080FDC0E81092E9008091F000877F809354
:1032B000F00078940E94BC0B1092E9008091F0001D
:1032C00088608093F000CD2BCF70C093E900FF9110
:1032D000EF91DF91CF91BF91AF919F918F917F91AE
:1032E0006F915F914F913F912F910F900FBE0F9073
:1032F0001F9018951F920F920FB60F9211242F93C3
:103300003F934F935F936F937F938F939F93AF936D
:10331000BF93EF93FF938091E10082FF09C08091FA
:10332000E20082FF05C08091E1008B7F8093E10085
:103330008091DA0080FF24C08091D80080FF20C0F7
:103340008091DA008E7F8093DA008091D90080FF2F
:103350009DC080E189BD82E189BD09B400FEFDCF39
:1033600081E08093BB048091AD04811109C00E946B
:103370006E050E940F068091E20084608093E20057
:103380008091E10080FF17C08091E20080FF13C0B0
:103390008091E2008E7F8093E2008091E200806164
:1033A0008093E2008091D80080628093D80019BC9D
:1033B00085E08093BB048091E10084FF2BC0809165
:1033C000E20084FF27C080E189BD82E189BD89B523
:1033D000982F917080FFFBCF8091D8008F7D8093D4
:1033E000D8008091E1008F7E8093E1008091E2001F
:1033F0008F7E8093E2008091E20081608093E20002
:103400008091BC04882309F447C084E08093BB0406
:103410008091BB048091E10083FF27C08091E2008E
:1034200083FF23C08091E100877F8093E10082E0E9
:103430008093BB041092BC048091E1008E7F809346
:10344000E1008091E2008E7F8093E2008091E200B3
:1034500080618093E20042E060E080E00E94DD0550
:103460008091F00088608093F000FF91EF91BF9110
:10347000AF919F918F917F916F915F914F913F910C
:103480002F910F900FBE0F901F90189519BC10929E
:10349000BB041092AD0474CF8091E30087FD93E0EC
:1034A0009093BB04B5CF78941F921FB61F9211243E
:1034B0008F939F93AF93BF938091A9049091AA0497
:1034C000A091AB04B091AC040196A11DB11D8093F5
:1034D000A9049093AA04A093AB04B093AC04BF9149
:1034E000AF919F918F911F901FBE1F9018959C01C7
:1034F0004FB7F8948091A9049091AA04A091AB04CD
:10350000B091AC044FBF821B930B08952FB7F89472
:103510008091A9049091AA04A091AB04B091AC044D
:103520002FBF08952F923F925F926F927F928F925A
:103530009F92AF92BF92CF92DF92EF92FF920F9342
:103540001F93CF93DF9380912B04882309F4FEC04F
:103550008091290490912A040E94771AC29708F456
:10356000D5C00E94861A90932A048093290482E190
:1035700095E090931907809318070E9416108823EE
:1035800009F401C188ED93E00E943B0B88EB0E9497
:10359000B50A809118020E94DA090E94B50A89EBE7
:1035A0000E94B50A809117020E94DA090E94B50AAA
:1035B00085ED93E00E943B0B8091150290911602DD
:1035C00054E0969587955A95E1F70E94DA090E9492
:1035D000B50A809115020E94DA090E94B50A82EDAF
:1035E00093E00E943B0B8FE192E00E941D0F87EF5A
:1035F00093E00E943B0B80911B020E94E1090E9414
:103600001D0F80911C020E94E1090E941D0F8091F4
:103610001E020E94E1090E941D0F80911D020E945E
:10362000E1090E941D0F8FEE93E00E943B0B8091F9
:103630000C02811101C085E00E94E10901960E94FF
:103640001D0F8BEE93E00E943B0B809114028823A8
:1036500031F0813009F48CC082EE93E002C088EE34
:1036600093E00E943B0B80910E02882309F483C0F3
:1036700080E094E00E943B0B8EED93E00E943B0BB8
:1036800080911302811101C087E0805D0E94B50A1C
:1036900086E094E00E943B0BC1E0D0E08091010401
:1036A000882309F46BC090E00C2E02C09595879595
:1036B0000A94E2F780FF62C08C2F0E94DA090E9410
:1036C000B50A2196C830D10549F780E20E94B50AB3
:1036D00083E094E00E943B0B80916901882309F408
:1036E0004FC080E094E00E943B0B80916B01909171
:1036F0006C0168EE73E00E947F34862F0E94E1091E
:1037000001960E941D0F83E70E94B50A8091100563
:1037100090911105892B09F04CC0809128048823D1
:10372000A9F00E94DD060091240410912504209147
:10373000260430912704601B710B820B930B6F3FA3
:103740007F4F8F4F9F4710F40E949412DF91CF91CB
:103750001F910F91FF90EF90DF90CF90BF90AF90AF
:103760009F908F907F906F905F903F902F900895E3
:1037700085EE93E076CF8DEF93E07CCF80EB9FCF0B
:103780008DEF93E0B0CFC0E9D0EFDC0F8CE094E098
:103790000E943B0B11E01D0F8D2F0E94B50AD12F07
:1037A0001C13F8CF80E00E94490BC05FC03C61F75A
:1037B000ADCF80912B04882309F4AFCF80912304EF
:1037C0008111ABCF0E94AF122091100530911105ED
:1037D0002115310509F4A1CF80E041E050E0082F28
:1037E00010E01A01082E02C0220C331C0A94E2F7E2
:1037F000B10162237323672B11F48F5FF0CF909197
:10380000220490FF95C0880F880F880F809377015E
:1038100010927A01895F8093780183E080937B0125
:1038200024E630E047E050E065E771E088E70E9479
:103830007732892B09F071CFA80125E0440F551F7D
:103840002A95E1F78091220480FF84C0E2E0F4E051
:1038500080E2DF011D928A95E9F7A1E4B2E00DE371
:1038600012E085E4C82E82E0D82E97E0592E772406
:1038700073948D91E80129918E01240F352F311D0C
:103880002E5E3A4FE82FF0E0EE5FFB4F90E080E0D5
:10389000652C681A872C082E01C0880C0A94EAF758
:1038A0007901A12CE701B9907E01B820662D6A1933
:1038B0006770962E062E000C770BDB2D01C0DD0FF6
:1038C0009A94EAF77195619571096770772701C03D
:1038D000B6946A95EAF7BD2A6081962E9B2890825D
:1038E000A39468E0A612DECF019631968830910548
:1038F00079F6CA16DB0609F0BCCF04E610E020E238
:1039000030E042E054E060E488E70E949832892B7E
:1039100009F003CFE101C095D095809110059091F9
:103920001105C823D923D0931105C0931005F5CEF6
:103930008295880F80768093770198013695279538
:103940003695279520937A01815E809378012093A4
:103950007B0166CF4E5E5A4F04E610E020E230E075
:10396000D2CFAEE1B0E0E7EBFCE10C94A2344091A1
:103970003C0350913D0360913E0370913F03809161
:103980004003909141030E94F41720933C0330932D
:103990003D0340933E0350933F0360934003709375
:1039A000410386E0ECE3F3E0DE01179601900D920F
:1039B0008A95E1F786E0FE013796DE011D960190BB
:1039C0000D928A95E1F786E0FE013D96DE011196A3
:1039D00001900D928A95E1F786E0FE013196ACE305
:1039E000B3E001900D928A95E1F786E0ECE3F3E015
:1039F000DE01599601900D928A95E1F786E0FE016D
:103A00007996DE01179601900D928A95E1F786E08E
:103A1000FE013796DE01119601900D928A95E1F72D
:103A200086E0FE013196DE01539601900D928A9553
:103A3000E1F786E0FE017396DE01179601900D9284
:103A40008A95E1F786E0FE013796ACE3B3E001909A
:103A50000D928A95E1F786E0ECE3F3E0DE0117963C
:103A600001900D928A95E1F780916901882309F40C
:103A700045C080916E0190916F010E94771A20914C
:103A80006D0128171906D0F5809170019091710190
:103A90000E94771A893C910588F189859A85892B3E
:103AA0009B85892B9C85892B9885892B91E009F42E
:103AB00090E0909372010E94710710910104882395
:103AC00051F10E94861A90936F0180936E011092BB
:103AD00071011092700180916A01111105C0882353
:103AE00069F00E9442140AC0212F30E0082E02C063
:103AF000359527950A94E2F720FFF3CF0E94450AF7
:103B000081112FC080913B0310923B0381706E9610
:103B1000E3E00C94BE3480916A01111118C0811148
:103B2000EDCF80916E0190916F010E94771A2091E4
:103B30006B0130916C012817390700F780916A01F9
:103B40000E94351410926F0110926E01D7CF212F71
:103B500030E002C0359527958A95E2F720FFCECF59
:103B6000E0CF81E090E0D0CFA3E1B0E0EAEBFDE16F
:103B70000C9498348E01045F1F4F88E0D8011D9289
:103B80008A95E9F789E2C82E82E0D82EF12CE12C43
:103B9000AA24A394B12C23E3822E22E0922EF601D4
:103BA00081916F018F3F09F442C0F894E82FE295AC
:103BB000EF70F0E021A18F70A50102C0440F551FE6
:103BC0008A95E2F7CA01922F982B91A392A1809532
:103BD000892382A3789400C0EDE2F2E0712C31E0F9
:103BE00021912F3F09F46BC0A22FA295AF70B0E0D6
:103BF00090968C9190E02F7002C0959587952A95AC
:103C0000E2F780FD5CC0832F782A330F8E169F0663
:103C100039F7F601319780818F3F11F00E94C2077A
:103C200050EA5A95F1F7F801EE0DFF1D70828FEF03
:103C3000E81AF80AA4E0EA16F10409F0B0CF48E067
:103C400050E0B8018BE093E00E944435009741F0CA
:103C500028E0F801ABE0B3E001900D922A95E1F77E
:103C600000911403892B69F181E0809390020E94F6
:103C7000861A90938F0280938E0280918E0290918B
:103C80008F020E94771A059700F110E00E5D1C4F1D
:103C900044E050E06BE073E0C8010E944435B12C71
:103CA000892B51F084E0EBE0F3E0D80101900D9214
:103CB0008A95E1F7BB24B3941092900207C080E08C
:103CC000A3CF809190028111D8CFB12C0E94161001
:103CD000A82EE0911403882309F489C019821A825E
:103CE0001B821C820E2F10E00E5D1C4F809106037C
:103CF0008A3008F046C043E156E1BE016F5F7F4F56
:103D0000C8010E94E30F882309F460C048EC55E124
:103D1000BE016F5F7F4FC8010E94E30F882309F443
:103D200055C043E057E1BE016F5F7F4FC8010E945D
:103D3000E30F882309F44AC044EE56E1BE016F5FE9
:103D40007F4FC8010E94E30F882309F43FC01092FF
:103D500006038091130390E044E050E0BE016F5FE2
:103D60007F4F8E5D9C4F0E94443521E02093970247
:103D7000892BF1F4A12C8A2D8B296396EDE00C940C
:103D8000B43480919102909192020E94771A843FFC
:103D9000914008F0B0CF80919702882359F384E0D6
:103DA000FE013196DF011D928A95E9F71092970284
:103DB000E0911303F0E0EE5DFC4F89819A81AB81C5
:103DC000BC8180839183A283B383D5CF8091060386
:103DD0008F3F31F08F5F809306038A3008F4B9CFAC
:103DE0000E94861A9093920280939102D4CFF0E0C1
:103DF000EE5DFC4F84E0AAE9B2E001900D928A9555
:103E0000E1F764E070E08AE992E00E94280780937D
:103E10009902C0909E02D0909F02E090A002F09084
:103E2000A1028091930290919402A0919502B09189
:103E30009602C816D906EA06FB06D1F0C092930294
:103E4000D0929402E0929502F09296020E9416108F
:103E500081110EC00E94DD06C61AD70AE80AF90AC7
:103E6000C0920703D0920803E0920903F0920A037C
:103E70008BE0E2EAF2E0DE01119601900D928A9564
:103E8000E1F79981892F86950A81FB80EC801B855B
:103E90001092AC021123A1F010FF0AC090FF17C0CE
:103EA0009091F90391609093F90360E00E94CA1425
:103EB00011FF06C020E04E2D6F2D802F0E94FD12B5
:103EC0008091AD02882331F00E94AF1254CF0E943E
:103ED000D60FEECF0E9494124ECFA8E0B0E0E3E7F9
:103EE000FFE10C9497347C01DC0114968C918823BB
:103EF00009F49FC061E0C7010E9418128C01F7010C
:103F0000D580DD2009F44FC197578038910508F01E
:103F10004AC1003108F08DC08FEF93E00E945A35FE
:103F2000811187C049E0E42E42E0F42E01114EC019
:103F3000FE01339686E0DF011D928A95E9F73AE0AB
:103F4000632E87010F5F1F4FC7010E945A35898377
:103F50001A82882309F46DC0813009F06EC06701B0
:103F6000B2E0CB0ED11CC8010E945A358A83882347
:103F700009F45FC09FEF980F9330B0F5E3E0EE0EC9
:103F8000F11CC6010E945A358B83882309F451C065
:103F90001C828E010F5F1F4FD8012C91222389F2C2
:103FA000213009F0A2C011969C91119712968C9124
:103FB000913009F044C00E5F1F4F65E070E0893317
:103FC00011F460E570E00E94AB103FC0E114F4E032
:103FD000FF0679F1C7010E945A35811101C00150D5
:103FE0002FEFE21AF20AA2CF7601843091F602E0B6
:103FF00010E07601FFEFEF1AFF0AC6010E945A3562
:10400000E1E0F0E0EC0FFD1FE00FF11F808388235B
:1040100081F08C3741F4E2E0F0E0EC0FFD1FE00F9F
:10402000F11F1082B6CF0F5F1F4F670107301105D8
:1040300001F72896EEE00C94B3347801AACF9230C1
:1040400029F50E5F1F4F0E94C30E0F5F1F4F8FE9B0
:104050009FE00197F1F700C00000AFE9BFE01197C2
:10406000F1F700C00000EFE9FFE03197F1F700C081
:1040700000008FE99FE00197F1F700C00000AFE971
:10408000BFE01197F1F700C0000086CF933029F40C
:104090000E5F1F4F0E94910ED8CF943019F00F5F22
:1040A0001F4FD3CF0E5F1F4F30E020E0B8016F5F8E
:1040B0007F4FF80141818053990B8A30910550F070
:1040C0002150310910F28FE99FE00197F1F700C00C
:1040D0000000F6CF629EF001639EF00D11249C015A
:1040E0002E0F3F1F842F8B01E1CFE22FF0E0E9502C
:1040F000FE4F7490822F86958695869590E0FC0100
:10410000E951FE4FC4902770D12C022E02C0D594E5
:10411000C7940A94E2F7A1E0CA22DD24FC01E95227
:10412000FE4FA490B12C022E02C0B594A7940A941D
:10413000E2F7B1E0AB22BB24FC01E953FE4F8490CF
:10414000912C02C0959487942A95E2F7E1E08E22A3
:104150009924C114D10419F081EE0E94C30EA11458
:10416000B10419F086EE0E94C30EF9E365E070E039
:104170007F1202C060E570E0872D0E94AB10A11491
:10418000B10419F086EE0E94910EC114D10419F009
:1041900081EE0E94910E8114910409F456CF65E0DE
:1041A00070E08CE210CF80916901882309F46BC024
:1041B0000115B2E51B0708F047C00115E0E51E0731
:1041C00008F0B9C00115F0E21F0798F5011521E0CC
:1041D000120708F053C0C801805E9109089708F4DF
:1041E0004DC0F7018481882309F448C00730FEE7F9
:1041F0001F0709F4AEC0C8018D5C9109439708F40C
:10420000A8C00E947107811139C0DD2059F080914A
:104210006A01209101042111ADC0882309F4B3C0C3
:104220000E941F0A0E94861A909371018093700168
:1042300025C0D70116968C910115B0E41B0708F034
:1042400092C0807FD9F0CDCF0036E2E51E0708F09E
:1042500044C00034F2E51F0788F4C8018F71992724
:1042600020916A01003232E5130708F06EC028176A
:10427000190621F4D11002C00E94680780917401D0
:1042800087FD109274011093160200931502D70156
:104290008D919C9111979093180280931702F801C9
:1042A0003497E533F10508F077C0E958FD4FE49104
:1042B00015968C9120EB811102C02E2FE0EBAFE11F
:1042C000B2E090E080E03D91321360C08F5F9D4F7F
:1042D000DC015E96EC93F80166C0003882E51807B1
:1042E00020F1C801805C9245809708F07ACF209138
:1042F0006A01C8018F7199272817190609F0BECFE6
:104300008D2D0E945A07D70116968C911697807FA3
:10431000803509F0B3CF15968C918823F1F0809108
:104320007401815080937401A9CF20916A01C80162
:104330008F7199279CCFC80125E0969587952A957E
:10434000E1F78F70992720916A012817190609F063
:1043500095CF8D2D0E945A0791CF0E9468078091BA
:1043600074018F5FDFCF982F907F09F06ACF812F84
:104370009927E7CF30E0082E02C0359527950A949B
:10438000E2F720FF4DCF0E9435144ACF01968630C8
:10439000910509F098CF9FCFC8019A95F801811532
:1043A0009F4108F4FF27D70115968C91E13DF10557
:1043B00038F0E93DF10578F0E730BEE7FB0711F191
:1043C000882309F42EC3FE57E031F10540F4E2548E
:1043D000FA4C0C94F834682F8E2F0E949E0A0337F3
:1043E000ECE71E0709F022C3D70115968C918823AC
:1043F00009F41FCE80912C04882309F47FC00E9409
:10440000A20B17CE0E942A09EACF80E00E94C617AD
:104410001092130280E00E943C0A80E197E20E9421
:104420002E0A07CE40910C022091130220FB47F97F
:10443000269523708091690180FB22F980916B01A0
:1044400090916C0164EF71E00E947F345FEF560F32
:10445000550F550F550F522B60911402637070E089
:104460008FE090E00E949035E4CD81E00E94E0175B
:10447000E0CD8FEFFBCF8AE0F9CF86EFF7CF9091B9
:104480000E0281E089270E942A09D3CD8091130270
:10449000811101C087E08F5F18160CF081E0883031
:1044A00008F087E080931302C4CD8091130281113C
:1044B00001C087E08150F0CF81E080931402B9CD34
:1044C00010921402B6CD82E0F8CF9091690181E09C
:1044D00089270E943C0AADCD80916B0190916C01BF
:1044E000C2969DCF80916B0190916C01C2978436EA
:1044F000910508F094CF84E690E091CF1092AE043D
:104500000E94861A88579C4E9093200380931F0325
:1045100081E080932C048DCD011590E5190708F0FA
:10452000B5C2F7018681807F49F1C80199271092B1
:104530002F048832910508F052C08E31910508F0A1
:1045400055C0049708F441C082E080932F044EC008
:10455000003EA2E51A0728F5003CB2E51B0770F4FF
:104560000036E2E51E0708F491C2003AF2E51F07A3
:1045700028F0043B22E5120709F088C2D7011596FE
:104580009C91911185C28091AE048272F801E05233
:10459000F847E531F10508F092C0E253FA4C0C946B
:1045A000F834C80187579C47029708F06FC2E6CFDE
:1045B000D70116968C91807F09F0B7CF812F8F712C
:1045C000823151F028F4823039F00E94A20BD6CF0C
:1045D0008431A1F28631C9F710922F04F6CF8D32C3
:1045E000910509F4B1CF28F48A9779F70E947B0BE3
:1045F000C5CF8C349105D1F38D329240B9F3E5CF1C
:104600008091F90380FF1CC0282F2E7F2093F9038F
:104610003091FA034091FB035091FC036091FD033C
:104620007091FE038091FF03909100040E94D712C5
:10463000809144038160809344030E948B0FF9CCE6
:1046400081608093F90361E086950E94CA14F1CCE1
:1046500042EF54E16CEF74E10E943E07EACC4CEF6C
:1046600054E162EF74E1F8CF42E854E16CE874E1A0
:10467000F3CF4CE854E162E874E1EECF48E654E150
:1046800065E774E1E9CF45E754E168E674E1E4CF1A
:104690004EE454E16BE574E1DFCF4BE554E16EE4A9
:1046A00074E1DACF46E954E160EB74E1D5CF40EB39
:1046B00054E166E974E1D0CF61E081E0C6CF07370D
:1046C000BCE71B0751F10837ECE71E0751F1F70172
:1046D000278130852115310509F448C0C9010E94A0
:1046E000D907182F292FF7016581368132953F7040
:1046F00092959F70C92ED12C9C3008F081C0F60194
:10470000ED51FA4C0C94F83481E00E94421443E0DD
:1047100062E081E00E9415148CCC81E00E94351487
:10472000F6CF82E0FBCF0130FCE71F07E9F0033052
:104730002CE7120799F001153CE7130741F6109298
:10474000AE040E94B00B8FEF94E3ACE08150904038
:10475000A040E1F700C000000E94CC066FEF7FEFA1
:1047600090E080E00E949C350E94C1100081118180
:10477000992369F0C8010E94B211D82E682FC80190
:104780000E94DF08B8018D2D0E94A411A8CFC80196
:104790000E94AB08D82EF6CF022F0F70207F11F0A9
:1047A0000295007F6623C9F0002369F080E2810F43
:1047B000883010F011110BC08091AE04082B0093CB
:1047C000AE040E947B0B812F0E94C30E19C0809102
:1047D0002F04082B00932F04F4CF812F0E94910EF9
:1047E000002371F0009580E2810F883010F01111E4
:1047F00015C08091AE0408230093AE040E947B0B89
:10480000F8E0CF1AD10824E0C216D10410F40E94B7
:104810003B1060E0C7010E9418120BCC80912F045E
:10482000082300932F04EACF822F8F70207F20323D
:1048300011F08295807F113061F4662329F03630C3
:10484000F8F60E94870EDCCF3530D0F60E947C0E41
:10485000D7CF662319F03323A1F3B5CF3323B1F3B8
:10486000193369F4FFEF27EE33E0F1502040304078
:10487000E1F700C00000812F0E94910EC1CF8FE1AF
:104880009EE40197F1F7F5CF812F0E949E0AB8CFE1
:10489000822F837089F56111B3CF312F3295369510
:1048A0003770330F330F812F8F70032E01C0880FA5
:1048B0000A94EAF7412F407114FF07C04FE050E01F
:1048C00001C0440F3A95EAF7409526952695237046
:1048D000223069F050F430918B02213029F0842B82
:1048E00083230E9416098CCF832B842BFACF482B6D
:1048F00080918B028427F5CF8695662311F0822F55
:104900008170882309F47CCF312F3295369537702A
:10491000330F330F812F8F70032E01C0880F0A943D
:10492000EAF7412F407114FF07C04FE050E001C08B
:10493000440F3A95EAF74095269526952370223044
:1049400069F050F430910104213029F0842B832345
:104950000E94101455CF832B842BFACF482B8091C3
:1049600001048427F5CF022F0F70662329F0802FD2
:104970000E944214812F65CF812F0E947C0E802FD0
:104980000E9435143DCF113F61F148F4103FA9F06A
:10499000662399F1311117CF822F8F7126C0123FF4
:1049A00039F1133FA9F780E0662391F22F7181E07E
:1049B00001C0880F2A95EAF7CBCF662371F0353016
:1049C00008F01ECF2F7181E090E001C0880F2A957A
:1049D000EAF7909101048927BBCF363008F010CF59
:1049E000F1CF822F8F71662359F20E94421408CFB3
:1049F000822F8F716623C9F3C3CF332379F0193324
:104A000041F49FEFA7EEB3E09150A040B040E1F732
:104A100030CFEFE1FEE43197F1F72BCF822F8F718A
:104A2000AFCF03373CE7130709F403CB80912C0485
:104A3000882309F4A3CDD090AE040E94861A88572B
:104A40009C4E9093200380931F03F7018581882358
:104A500009F494CD8D2D8D7909F0B7CD0034F2E5B0
:104A60001F0708F075CD011522E5120708F086CD65
:104A7000011530E4130708F04FCD011580E2180747
:104A800008F096CD063E110509F478CDC8014FCD4A
:104A900007378CE7180709F437CE0837ACE71A0751
:104AA00009F041CE82E031CECF93DF938091800236
:104AB000807F09F04DC080917F02882309F448C0AF
:104AC000E0910E055091C504C0917B02D0917A020D
:104AD00060917C0270917D0249E05E17C9F18E2FD2
:104AE00090E0E49FF0011124EA53FB4F248122233C
:104AF00091F1489FF001499FF00D1124DF01AA5365
:104B0000BB4F11962C9111972C1325C02C912D136E
:104B100022C015962C91159721111DC012962D912A
:104B20003C91261B370B283C3105A8F4809180026C
:104B30008F70806180938002E453FB4F80818F707F
:104B4000806180838AE792E00E946D1F0E94A10825
:104B5000DF91CF910895FC013196E770BECFA8E1B7
:104B6000B0E0E5EBF5E20C9499348C0186E0F801B5
:104B7000DE01539601900D928A95E1F7F801848148
:104B8000E5809AE7A92E92E0B92E90917E029111CC
:104B900028C0882319F1EE20F1F0C8010E94EE111F
:104BA000F82E8823C1F089E0F801D50101900D921B
:104BB0008A95E1F780917E02813031F480917A020A
:104BC00090917B020E94E1110E9454258F2D6896DE
:104BD000ECE00C94B534C8010E946D1FFF24F394DF
:104BE000F5CFD080C18082809380F0907F022091A9
:104BF0007C0230917D02A401421B530BFF2009F47B
:104C00000DC1483C510508F0B6C08823F9F29091D7
:104C10007B0280918002282F207F09F05FC0C9129B
:104C20001DC090917A02D91219C040918102509111
:104C30008202278130854217530781F4E11048C072
:104C40008F708061809380028AE792E00E946D1FDE
:104C500080918002F8018683F12CB8CFE11038C032
:104C60006C2D8D2D0E944F056C2D8D2D0E944F05B2
:104C7000E82E8111F1CFDB8ACC8A8B899C890E9436
:104C8000E111292F22952F70243058F49F70223083
:104C900088F0992399F0F8019681907F79F4FE2CA1
:104CA00095CF2A5F2F70223068F0C8010E946D1FD7
:104CB000EF2CF5CF992311F0882389F3805E88309B
:104CC00070F3F3CF803F58F3815F833070F7E7CF05
:104CD00080918002816080938002BECFC9121CC087
:104CE00090917A02D91218C04091810250918202AB
:104CF000278130854217530779F4E1100DC0868370
:104D0000C8010E946D1F89E0F801AAE7B2E0019096
:104D10000D928A95E1F75ACFC8010E94EE118823BF
:104D200009F459CFEE2009F456CF809180028032E9
:104D3000B8F020917A0230917B023B872A879D86CA
:104D40008C8690917E029E871F86888B809181023F
:104D5000909182029A8B898BCE010A960E946D1FD8
:104D600089E0F801AAE7B2E001900D928A95E1F797
:104D70000E94542533CF90918002292F207F51F437
:104D80008AE792E00E946D1F89E0F50111928A95F1
:104D9000E9F762CF882309F419CF80917B028C1147
:104DA00019C080917A02D81215C0409181025091A9
:104DB0008202278130854217530761F4E1100AC04F
:104DC0009683C8010E946D1F89E0F50111928A95B2
:104DD000E9F7FCCEC8010E94EE11882309F4FBCE4E
:104DE000EE2009F4F8CE80918002803208F4B8CF2A
:104DF00020917A0230917B023A8329839C828B82B4
:104E000090917E029D831E828F838091810290917A
:104E1000820299878887CE010196A0CF483C510530
:104E200098F6882309F4DACEFE2CEE2009F4D3CECE
:104E300080917B028C1120C080917A02D8121CC014
:104E4000209181023091820287819085281739074D
:104E500099F49091800290FD56CF907F09F453CF42
:104E6000809180028683903F09F44ACF982F907FEB
:104E7000905F8F70892B43CFC8010E94EE11811182
:104E80006FCF80918002816080938002C8010E9470
:104E90006D1F9CCEA2E1B0E0E0E5F7E20C94A134F6
:104EA0000A871B872C873D874E875F87688B798BA6
:104EB0008A8BCE010A960E94AF2581110CC089E031
:104EC000FE013A96DE01119601900D928A95E1F766
:104ED0008E8581110BC019E080910E059091C5045B
:104EE000891333C06296E4E00C94BD342091C5046C
:104EF00030E0C90101968770992740910E05481747
:104F0000190699F099E0929FD001939FB00D11245A
:104F1000AA53BB4FFE01319601900D929A95E1F78D
:104F20008093C5040E94A108D6CF1092AE040E94BF
:104F3000B00B1092C50410920E0589E0EAE7F2E08A
:104F4000DF011D928A95E9F7C6CF819FC001112428
:104F50008A539B4F0E94AF25882321F280910E0532
:104F600090E001968770992780930E05B5CFB0E049
:104F7000A0E0EDEBF7E20C949C348091310488239F
:104F800069F0C0913004C12C8DE0D82E809131049D
:104F9000C81748F01092310410923004CDB7DEB734
:104FA000E9E00C94B834BB24B394BC0EB092300446
:104FB000EC2EF12CCD9DE0011124CE5CDB4F8C81D9
:104FC000882361F18F819885892B21F489859A85C1
:104FD000019659F4088119812A813B814C815D81B8
:104FE0006E817F8188850E944A27DE9CF001DF9CCC
:104FF000F00D1124EE5CFB4F148210922F04C110AF
:105000000DC0CE010E94EE11811108C08FE19EE417
:105010000197F1F700C00000CC24C394CB2DB6CF8C
:105020001092A5041092A4041092FA018091A30496
:105030008093A2040E9417070E94B7270895B0E04A
:10504000A0E0E5E2F8E20C949334C091A204E7E01A
:10505000FE2E01E010E0FDE02F2EEE24E39480917F
:10506000A3048C1309C00E94B7270E941707CDB76D
:10507000DEB7E2E10C94AF34D0E0FE01EE0FFF1F8B
:10508000E656FB4F80819181F89EF001F99EF00D6C
:105090001124E458FE4F248121115AC0309031046C
:1050A000A2E3B4E030E020E0412C5F01231508F0DA
:1050B0004DC01B966D907C901C97F501808091806F
:1050C0004FEF5FEF512CC52CD12CF601EE0FFF1FD7
:1050D000E80DF91D659174916616770609F4A6012D
:1050E000672B11F05394EFCF4F3F5407B9F1B8013C
:1050F00002C0660F771F4A95E2F7462AA801052CE1
:1051000002C0440F551F0A94E2F74150510944165A
:10511000150609F5229EF001239EF00D1124EE5C88
:10512000FB4FF89ED001F99EB00D1124A458BE4F3C
:1051300012962D913C9113973087278374E07483E6
:1051400010821182928781871596EC920E94E9065F
:105150002196C37084CF14961C9214972F5F3F4FF3
:105160001D96A4CFAEE1B0E0E8EBF8E20C949334E6
:105170004B8B5C8B6D8B7E8B8F8B988F91111092EC
:105180002F04188A198A1A8A86E0FE017396DE01B6
:105190001A9601900D928A95E1F78E85882381F009
:1051A00061E0CE010A960E9418129C019F8520356D
:1051B0004CE7340789F4992311F181E08093FA01D7
:1051C0000A851B852C853D854E855F856889798993
:1051D0008A890E944A27CBC021355CE7350729F42C
:1051E000992369F00E941028EBCF22353C4739F40F
:1051F000992329F08091FA018111F4CFDECF6A85DD
:105200007B8580E00E94A4114C01FCE7EF2EF1E0C9
:10521000FF2E512CD12CC12CAA24A394B12CB7E081
:105220004B2EFE013196FA8FE98F33243394F70128
:105230004081518166246A94762C60E0262F30E00C
:10524000F901EE0FFF1FE40FF51F85919491881669
:10525000990609F43901892B11F06F5FEFCF10E047
:10526000FFEF6F167F0609F443C0F70144811091E8
:10527000FA01812F411180E0182F1170F70125806C
:1052800086819F85992309F4F2C0112309F4EFC0A8
:10529000211014C09501062C01C0220F0A94EAF7D0
:1052A000822B868380912D0490912E04C29730F436
:1052B00022E330E030932E0420932D04C50102C078
:1052C000880F991F6A95E2F70197F7012681281741
:1052D000190671F48091A4049091A504009709F433
:1052E0004AC00E94771AC39708F445C0F701348278
:1052F000512AFFEFCF1ADF0A27E0E20EF11C32E15C
:10530000C316D10409F093CF8F85882309F40EC109
:10531000552009F40BC10E94861A9093A50480932E
:10532000A40480913104883010F591E0980F909397
:10533000310499E0FE013A96DE01119601900D923A
:105340009A95E1F74DE0849FC00111248E5C9B4F3C
:1053500029E0FE013196DC0101900D922A95E1F7DA
:105360002FEF3FEFFC0132872187948683866E966C
:10537000E2E10C94AF348091A2046091A304982FD1
:10538000F0E0E0E0861314C09093A204EE15FF0550
:1053900009F4AECF90E0FC01EE0FFF1FE656FB4F85
:1053A000D182C0820196837099278093A304A0CFF5
:1053B000682E712CF301EE0FFF1FE656FB4F208184
:1053C0003181429ED001439EB00D1124A458BE4F9E
:1053D0002D913C9111973E8F2D8F00E070E0212C94
:1053E000E22DF0E0EE0FFF1F2D8D3E8DE20FF31F3B
:1053F0002591349121153105E1F0F7010190F081FB
:10540000E02DFC8FEB8F70E005C02417350709F401
:10541000012F7F5FE72FF0E0EE0FFF1F4B8D5C8DBC
:10542000E40FF51F459154914115510571F72394EF
:10543000D7CF0023C9F0F701721508F0FD013482BF
:10544000EE16FF0621F49093A204102F51CF89137A
:1054500005C0AE17BF0711F49F5F937093012F5FD4
:105460003F4F822F83708ECFF0E0E0E0F7CF90E0E7
:1054700021101FC0950102C0220F331F6A95E2F769
:10548000215031098217930731F4442309F44CC0A9
:10549000C6010E94E906C501062C01C0880F0A94C6
:1054A000EAF7982F9095F701868189238683122D3C
:1054B0001FCFAC01062C02C0559547950A94E2F720
:1054C000BA01617077279C0121503109822393230F
:1054D000892B31F5672B21F1F70182819381892B8B
:1054E000E1F0E98DFA8D242D11922A95E9F70E94B9
:1054F000861A282F8B839C8334E03D83F7018281B9
:105500009381782F8887998709811A813C8144E0AB
:105510005E816F81892F0E944A27F7011582BBCFD8
:10552000F42FF1702F2EB7CF212EB5CF9091A2047A
:105530008091A304981729F00E941F28511017CFBB
:105540003FCE0E94B7271092A5041092A4040E9497
:105550001707F4CFA6E0B0E0E0EBFAE20C94A13438
:105560000E94861A8C0180918C0290918D02801786
:10557000910781F019821A820E94861A682F498148
:105580005A81792F80E090E00E94B22810938D021A
:1055900000938C022696E4E00C94BD341F921FB653
:1055A0001F9211248F939F93AF93BF938091A80470
:1055B000811113C08091A9049091AA04A091AB0419
:1055C000B091AC044196A11DB11D8093A9049093A4
:1055D000AA04A093AB04B093AC04BF91AF919F9188
:1055E0008F911F901FBE1F901895CDB7DEB7A6975D
:1055F0000FB6F894DEBF0FBECDBF85B7806885BFFC
:1056000085B7806885BF84B7877F84BF0FB6F8945D
:10561000A89580916000886180936000109260007E
:105620000FBE80E890E00FB6F894809361009093ED
:1056300061000FBE84E997E0909355028093540275
:105640000E946E050E940F068091E20084608093A4
:10565000E20078948091BB048823A1F01091E900C6
:105660001F709091EC00892F817090FD80E8182BBD
:105670001092E9008091E80083FD0E94BC0B1F702E
:105680001093E90082E084BD93E095BD9AEF97BD49
:1056900080936E0010920703109208031092090382
:1056A00010920A030E945112811102C00E946511DA
:1056B0000E9466108093000180910001882309F404
:1056C00060C01092FC018EE18093FD010E941610D3
:1056D00081110E941D33809100018091000194E0AE
:1056E000811190E09093140384E0891B809313034D
:1056F00084EF0E94C20785EF0E94C20786EF0E94D6
:10570000C20787EF0E94C2070DE212E0D8018D9117
:105710008D018F3F11F00E94C207B2E003331B07D7
:10572000A9F788E0E2E2F3E0DF01882E1D928A9477
:10573000E9F7EBE0F3E0DF011D928A95E9F70E94BB
:105740001E15811102C00E94311782E090E00E9474
:105750005A35809316030E94B41DEFE3FCE931979C
:10576000F1F700C000000E94B41D8091220380FF69
:105770000CC06FEF7FEF90E080E00E949C350E94AC
:10578000CC068EE18093FC019FCF83E090E00E94E5
:105790005A350E941609809101040E94E3130E9469
:1057A0001610882309F4A8C180E08093220480E8C1
:1057B00080930F050E94D7316BE070E083EC92E09C
:1057C0000E946A128823E9F18091220465E070E06A
:1057D00081FD94C18EEB92E00E946A12882389F1C8
:1057E0006DE070E08CEA92E00E946A12882349F131
:1057F0000E94DD06605A75418F4F9F4F60932404CD
:10580000709325048093260490932704E2E1F5E049
:1058100080E092E0DF019C011D9221503040E1F7D1
:10582000F0931907E09318078FEF9FEF90931105FE
:105830008093100581E080932B04809328041092BC
:10584000230480911503811176C00E941E158111D9
:1058500004C00E9431170E94011588E090E00E9468
:1058600062354B015C0184E290E00E945A35282F9A
:1058700030E040E050E060E070E080E090E000E286
:105880000E940535282939294A295B292093F903E3
:105890003093FA034093FB035093FC036093FD03A2
:1058A0007093FE038093FF03909300048091440360
:1058B0008360809344032E7F89F50E94011588E060
:1058C00090E00E9462356B017C0184E290E00E94CE
:1058D0005A35282F30E040E050E060E070E080E092
:1058E00090E00E940535B22FA32FF42FE52F5B0126
:1058F00097018601BC29A12BFE29E32BB093F90364
:10590000A093FA03F093FB03E093FC036093FD0381
:10591000B092FE038093FF03909300040E9444071B
:105920008091F90380FF04C060E086950E94CA144C
:1059300081E0809315030E941610811102C00E941D
:1059400020330E94F3180E94161081112EC084EAA1
:1059500090E19093500180934F0129E130E0309322
:105960004B0120934A0189E390E090934E0180938C
:105970004D0140E857E05093580140935701309350
:1059800053012093520190935601809355014BEDA2
:1059900057E15093600140935F0130935B01209386
:1059A0005A0190935E0180935D010E941E15882329
:1059B00091F18FE090E00E9462358B01F82E862FE6
:1059C0008F770E94C617001F0027001F612F63708A
:1059D000660F602B6093130212FB882780F90E94E8
:1059E0003C0A812F887F09F48CC016951695169570
:1059F000212F30E02F5F3F4F44EF51E0249FC00143
:105A0000259F900D349F900D11240E942E0A8F2DFA
:105A10008370809314020E947E1081E691E090933F
:105A2000A7048093A60436E9E32EF12CCC24CA9473
:105A3000D12C8091BB0400E112E1853009F4A3C0B0
:105A40000E94B41D07E113E092E2A92E93E0B92E63
:105A500023E3822E22E0922E9401B501F801919168
:105A6000DB018D91BD01D9014D919D018423B3E0EE
:105A7000EF31FB0709F493C0981789F30E941610C1
:105A8000382E612CF50171905F01D4018D914D018B
:105A90007822F80121908F01271431F1512C4424F0
:105AA00043942724822D8421B9F03320A9F059A2F0
:105AB0006AA20E94861A9CA38BA3F1E0FDA391E049
:105AC000842D872109F490E09EA349A15AA16BA1DE
:105AD0007CA18DA10E94B2285394440C26E052125E
