:100000000C943C050C9459050C9459050C948834B7
:100010000C9459050C9459050C9459050C945905E8
:100020000C9459050C9459050C94F8190C94B419B6
:100030000C94F32B0C9459050C9459050C94590508
:100040000C9459050C9459050C9459050C945905B8
:100050000C9459050C94D11A0C9459050C9459051B
:100060000C9459050C9459050C9459050C94590598
:100070000C9459050C9459050C9459050C94590588
:100080000C9459050C9459050C9459050C94590578
:100090000C9459050C9459050C9459050C94590568
:1000A0000C9459050C9459050C9459051100100035
:1000B00000001C00180000000E000F0000000D00E2
:1000C0000E00000010003600000018000C000000B8
:1000D0000B000D0000000D00090000000D000F00D6
:1000E00000001A000800000009001C0000000900C0
:1000F000110000000D000800000009000B000000C6
:100100000D00040000000900180000000D000700A9
:1001100000000900130000000D00050000000D00A4
:100120001A0000000D00160000000D001400000071
:1001300005010902A10185020901A10005091901B2
:10014000290815002501950875018102050109306E
:1001500009311581257F95027508810609381581B9
:10016000257F950175088106050C0A380215812541
:100170007F950175088106C0C00660FF0961A10175
:100180000962150026FF0095207508810209631594
:100190000026FF00952075089102C005010906A1FF
:1001A00001050719E029E71500250195087501816A
:1001B000029501750881010507190029FF15002620
:1001C000FF0095067508810005081901290515002D
:1001D0002501950575019102950175039101C000F6
:1001E000000000000000000000000000000000000F
:1001F00000000000000000000000000000000000FF
:100200000000007E0F00D4FFFFFFC7000000780051
:10021000000000000000002A2B2800000000000061
:100220000000000000000000000029000000002C79
:100230001E3420212224342627252E362D37382718
:100240001E1F202122232425263333362E37381F24
:100250000405060708090A0B0C0D0E0F10111213E6
:100260001415161718191A1B1C1D2F3130232D3584
:100270000405060708090A0B0C0D0E0F10111213C6
:100280001415161718191A1B1C1D2F3130354C6107
:1002900062636465666768696A6B6C6D6E6F7071C6
:1002A00072737475767778797A31323334353637BC
:1002B000383930524542545F2D3D5B5D5C233B270E
:1002C000602C2E2F00DA0281FFD9F1DB20A4A62EAC
:1002D000AF00A0C0D30000A1C8D30000AED580A855
:1002E0001F408D14200000010101010101010101E5
:1002F00002020202020202020203030303030303D7
:1003000003040404040404040505050505060606A3
:100310000606070707070708080808090909090A60
:100320000A0A0B0B0B0C0C0C0D0D0D0E0E0E0F0F05
:100330000F10101111111212131314141515161693
:100340001717181819191A1A1B1B1C1D1D1E1E1F02
:100350002020212222232424252626272829292A51
:100360002B2C2D2D2E2F3031323233343536373879
:10037000393A3B3C3D3E3F40414243444546474875
:10038000494A4C4D4E4F50515354555658595A5B4B
:100390005D5E5F616264656668696B6C6D6F7072EB
:1003A000737577787A7B7D7E8082838587888A8C57
:1003B0008E8F91939596989A9C9EA0A2A3A5A7A98B
:1003C000ABADAFB1B3B5B7BABCBEC0C2C4C6C9CB82
:1003D000CDCFD1D4D6D8DBDDDFE2E4E7E9EBEEF038
:1003E000F3F5F8FAFDFF00AF00AE202000BABB0025
:1003F0004B657920B10020C0C100BEBF00484F004E
:100400005654003030200020202020B1BCBD0042D6
:10041000616C6CB100B4B500B2B300C2C3004CB69D
:10042000B772B100202000290014001A000800153E
:100430000017002B0004001600070009000A00E165
:10044000001D001B000600190005000000E200E38B
:100450000091212C4190434C00130012000C001815
:10046000001C00240233000F000E000D000B00875B
:10047000003800370036001000110000004600E68A
:1004800000913128422A000F7E3A003B003C003D9B
:10049000003E000D7E01000100520028004C000EBD
:1004A0007E0100500051004F002A000000010001B1
:1004B00000010001000100440043004200410040EF
:1004C000003F004500D300D2005200D1004B000194
:1004D0000001004F00510050004E000000010001DB
:1004E0000001000100010001003402240025002663
:1004F0000025020100330221002200230030000108
:10050000002D021E001F00200030020000270037CF
:1005100000010001000100010021022F0023021E42
:100520000226021F02340020022E022D0032008912
:100530000238022F022E0087023202000001000161
:1005400000010001004C0020780A7E0B7E0C7E0129
:1005500000010021782378257827780100087E2281
:10056000782478267828780100097E0000007C0035
:100570007E01000100010030782F782E782D782C34
:10058000782B7801000100347833783278317801A3
:100590007E0100047E027E037E057E0000007C005A
:1005A0007E010001000100010001000100010001C5
:1005B0000001000100010001000100010001000133
:1005C0000001000100010001000100000001000124
:1005D0000001000100010001000100010001000113
:1005E0000001000100010001000100010001000103
:1005F00000010001000100010001000000010001F4
:100600000001000100010009025B00030100A0FAE3
:100610000904000001030101000921110100012268
:1006200044000705810308000109040100020300DA
:100630000000092111010001222200070582032088
:100640000001070503032000010904020001030063
:10065000000009211101000122490007058403203F
:1006600000011201000200000008575900040001B7
:100670000102000114034B00650079006200610073
:100680006C006C00340034000000100359006F004F
:1006900077006B0065006500730000000403090427
:1006A00000000000000000002F000000000700070D
:1006B0000000123F123F1200242A7F2A120036093E
:1006C0001E241B0018262912280000000700000025
:1006D000001E214000000040211E000014083E08BA
:1006E000140008083E0808000000307000000808E8
:1006F0000808080000003030000020100C02010043
:100700001E2925231E0000223F2000002231292916
:100710002600122125251A001814123F1000172553
:10072000252518001E25252518000131090503007F
:100730001A2525251A00062929291E000000333311
:100740000000000033730000081414222200141467
:1007500014141400222214140800020129050200B6
:100760003E59555D3E003816111638003F252525A7
:100770001A001E21212112003F2121211E003F25A8
:10078000252521003F09090901001E2121291A0000
:100790003F0404043F0000213F21000010202020DE
:1007A0001F003F040C1221003F20202020003F02A8
:1007B00004023F003F020C103F001E2121211E00B9
:1007C0003F09090906001E2129112E003F090919B8
:1007D000260012252529120001013F0101001F20DA
:1007E00020201F000718201807000F300C300F00C2
:1007F00021120C122100030438040300312925239F
:100800002100007F4141000001020C102000004146
:10081000417F0000040201020400404040404000CB
:10082000000103040000102A2A2A3C003F2422224F
:100830001C001C22222224001C2222243F001C2AED
:100840002A2A0C0000043E0505000C5252543E00BA
:100850003F080404380000003D0000002040403DF7
:1008600000003F080814220000013F2000003E0263
:100870003C023C003E0402023C001C2222221C00DE
:100880007E1422221C001C2222147E003E0402023E
:100890000400242A2A2A120000021F2200001E201F
:1008A00020103E000618201806000E300C300E00F6
:1008B0002214081422000E5050483E0022322A26EC
:1008C000220008087741410000007F0000004141FC
:1008D00077080800180408100C0000000000000051
:1008E000000000000000000000000000C0F0F88CD4
:1008F00086C6E7FFFFFFFFFFFFFEFCFCF8E080007D
:100900000000F0F0F00000C0E0F0707000000000A7
:1009100000000000000000000000000000000000D7
:100920000000F8F8F80000000000000000000000DF
:100930000000000000000000F8F8F80000F8F8F8E7
:10094000000000000080E07078686C64C7C7C7C70B
:10095000C7C7E73F1F0F3FFFFFFFFFFFFF3F0F002E
:100960000000FFFFFF1E3FFFF3E1800000F8FCFEE8
:100970003636363EBCB8000E3EFEF080F0FE3E0E2F
:100980000000FFFFFF060606FEFEFC7000E6F6F61E
:100990003636FEFEFC000000FFFFFF0000FFFFFFF9
:1009A000000000003C7F6360E0C0C0C0C0C0C0C0A9
:1009B000C0FFFFC06030180F0303030100000000F8
:1009C000000003030300000003030303000103030B
:1009D000030303030301007070393F1F0701000088
:1009E00000000103030303030303010000010303E9
:1009F00003030303010000000303030000030303D8
:100A00000010101000000000550000003E635D5D06
:100A1000637F417B77413E00001C22221C003E0A7E
:100A2000003E0A00322A3C0026281E001C2A2C0008
:100A300000003F09360000001E21210000000000D8
:100A40003F0837001E2121001E2121003F0906001A
:100A5000213F2100222519001E2121003F093600D7
:100A60003F211E00213F21000F300F003E093E00B4
:100A70003F063F003F20200011241FBECFEFDAE0E9
:100A8000DEBFCDBF12E0A0E0B1E0EEE4FEE602C0C2
:100A900005900D92A037B107D9F727E0A0E7B2E0A3
:100AA00001C01D92A334B207E1F70E941A2C0C94E6
:100AB000D7360C940000482F209135059091EC0416
:100AC00059E0291302C080E0089530E0529FF00100
:100AD000539FF00D1124E351FB4F8181681306C031
:100AE0008081481303C085818111EECF2F5F3F4F76
:100AF0002770E7CFE8EDF0E080818E7F8083109251
:100B0000E2001092DA001092E100A0EEB0E08C91C9
:100B100081608C9380818F77808319BCA7EDB0E0D2
:100B20008C918E7F8C9380818F7E80831092D404F1
:100B300008952091E4003091E50095E6A901209107
:100B4000EC00822F817020FF06C08091E80080FFBA
:100B500006C080E008952091E80022FD1AC080912F
:100B6000E204882389F0853089F08091EB0085FDCF
:100B70000FC02091E4003091E50042175307F9F2CD
:100B80009150E1F684E0089582E0089583E00895AD
:100B900081E008958091E40487FF13C08091E8000C
:100BA00082FF06C08091E8008B778093E80004C044
:100BB0008091E2048111F2CF08958091E2048823AC
:100BC000D9F38091E80080FFF8CF8091E8008E771C
:100BD000ECCF982F9093E900242F762F50E08917BF
:100BE00031F07091EC002091ED005091F00021FD6A
:100BF00007C09F5F973071F78093E90081E0089507
:100C00003091EB003E7F3093EB003091ED003D7F63
:100C10003093ED003091EB0031603093EB00709336
:100C2000EC002093ED005093F0002091EE0027FDA2
:100C3000E0CF80E00895B0E0A0E0E1E2F6E00C94BF
:100C4000C235C8EDD0E088818F7E8883E7EDF0E083
:100C500080818160808384E082BF81E08093D404BE
:100C600088818E7F888302EE10E0F8011082109256
:100C7000DA0081EEC82ED12CF601108288818F77A0
:100C8000888388818068888388818F7D888319BC68
:100C90001092E2041092E3041092E1041092E00436
:100CA00090EEE92EF12CF70180818B7F8083888183
:100CB0008160888342E060E080E00E94E905F601FF
:100CC00080818E7F8083F801808181608083808134
:100CD00088608083F70180818E7F80838881806136
:100CE0008883CDB7DEB7E8E00C94DE35FC01809157
:100CF000EA049091EB0486179707A0F0611571053F
:100D000029F49091E8009E779093E80090E06115B7
:100D1000710551F4911108C08091E80082FF34C040
:100D200080E00895BC01F2CF8091E2048823C1F1F4
:100D30008530C1F18091E80083FD30C08091E800EA
:100D400082FDEACF8091E80080FFE1CF8091F3003F
:100D50002091F200382F6115710519F02830310506
:100D600058F091E02830310509F090E02091E8003A
:100D70002E772093E800CBCF81918093F1006150D2
:100D800071092F5F3F4FE7CF8091E204882341F044
:100D9000853041F08091E80083FFBECF81E0089567
:100DA00082E0089583E0089508958091D70408951E
:100DB00087E797E7909301088093000888E19AE01D
:100DC0000FB6F894A895809360000FBE90936000D2
:100DD000FFCF2FB7F8946091D0047091D104809127
:100DE000D2049091D3042FBF0895DC016091C9040F
:100DF0008091CA04962F891301C00895292F30E0ED
:100E0000F901EE0FFF1FEF53FB4F408151814A174D
:100E10005B07A1F487E08A9FA0018B9F500D1124EE
:100E200044585E4F81E0FA0184839613E6CF2F5F2A
:100E30003F4F237033272093C90408952F5F3F4FFE
:100E4000922F9370D8CF1092550410925404ECE76F
:100E5000F1E08581811102C014821682379682E00A
:100E6000E631F807B1F70895FC01680F791F8FEF9D
:100E700091E32191822728E030E087FF09C0880FA5
:100E8000892721503109C9F7E617F70791F7089527
:100E9000880FF7CFFA01811101C0FB010995089570
:100EA00080912004982F9E7F71F48091200481709E
:100EB00082608093200480912304873918F086E9AA
:100EC000809323040895843080F7F5CF90917401C6
:100ED000882341F09F5F90937401109271011092EA
:100EE000700108959150F7CFE9E6F1E0828591E035
:100EF0008927828710861782089580917201811157
:100F000008C080917401811104C0809173018170C7
:100F1000089581E090E0FBCFCF93DF93EDE1F2E025
:100F200083819481A581B681E90188839983AA830D
:100F3000BB831482138216821582DF91CF910895AC
:100F400080E0089563E070E08CEC92E00E9434074A
:100F50009091CB02891318C0E091CC02EC30A4F43C
:100F600088E0E802F0011124EF5FFE4F0680F78170
:100F7000E02D309749F02FEE32E04091CE026FEC39
:100F800072E08091CD0209950895E6EBF2E0878941
:100F900080933101808D809344010895F894E82F67
:100FA000E295EF70F0E031A1282F2F7081E090E002
:100FB00001C0880F2A95EAF7982F9095932391A363
:100FC00092A1892B82A378940895811522E5920736
:100FD00080F5811540E5940708F0A3C0883E91058F
:100FE000A0F4803E910558F4853A910548F4843088
:100FF000910528F48130910511F090E080E008958A
:101000008D3C9105D0F390650895811550E49507C6
:1010100008F062C0811560E2960708F09BC0811558
:1010200071E0970750F320E0392FB901682BCB010D
:101030000895803622E59207F8F4803442E594075B
:1010400008F054C0803252E5950708F048C0282FB8
:101050002695269570E2279F90011124837041E028
:1010600050E0BA0102C0660F771F8A95E2F7CB0104
:10107000822B932B9D680895803C62E5960700F5CE
:10108000803A72E5970708F047C0803822E592075A
:1010900008F0B3CF282F26952695277070E2279F5A
:1010A00090011124837041E050E0BA0102C0660F44
:1010B000771F8A95E2F7CB01822B932B9A680895CC
:1010C000803E42E5940708F098CF982F882788271C
:1010D0009F71806F906A08959F70906A08958F71D4
:1010E00090E0982F8827816F906A0895282F269581
:1010F0002695277070E2279F90011124837041E0AC
:1011000050E0BA0102C0660F771F8A95E2F7CB0163
:10111000822B932B9C6808958F7190E0982F8827DD
:1011200008959C0195E0369527959A95E1F72F70E3
:1011300030E0322F2227482F4F7150E084FF05C046
:1011400084E0440F551F8A95E1F7C901842B952B44
:10115000906908959F7190620895809135059091EE
:10116000EC04981301C008958F5F8770FACF292F80
:10117000983078F5863068F590E036E0239F800D52
:10118000911D1124682F677023E0969587952A9505
:10119000E1F7FC01EE0FFF1FE80FF91FEB57FD4FC2
:1011A00050E040E080E0219130E0062E02C036950C
:1011B00027950A94E2F721703327042E01C0220FED
:1011C0000A94EAF7822B4F5F5F4F4330510559F77E
:1011D000089580E00895292F983098F5863088F595
:1011E00090E036E0239F800D911D1124282F277059
:1011F00041E001C0440F2A95EAF723E096958795D0
:101200002A95E1F7FC01EE0FFF1FE80FF91FEB57DE
:10121000FD4F30E020E070E05191DF011197CB01EC
:10122000022E02C0969587950A94E2F78170819507
:101230008527842385278C932F5F3F4F23303105EB
:1012400059F708958093A8020895982F92959F705A
:1012500011F0892F94E0282F2695269511F09E5F96
:10126000822F869509F09F5F892F0895CF93C82F0D
:1012700080912A028C1751F00E94E90660932B029C
:1012800070932C0280932D0290932E02C0932A0219
:10129000CF910895B0E0A0E0E0E5F9E00C94C2350C
:1012A0008C01EB01E0912F02E11101C0E7E0E15078
:1012B000FF0B81E090E06C010E2E02C0CC0CDD1C17
:1012C0000A94E2F7D801ED90FC90C701B6010E94A4
:1012D00009369B01CB010E2E02C0880F991F0A947C
:1012E000E2F7E81AF90AD8011196FC92EE921296EA
:1012F000ED90FC90C701B6010E940936CB0102C0F7
:10130000880F991FEA95E2F7E81AF90AF801F382C3
:10131000E2826138FFEF7F07F4F060387105ECF48A
:101320006D8321388FEF3807D4F020383105CCF4A5
:10133000822F81958C83442319F061956D832C83D2
:1013400080913002882379F0813079F0CDB7DEB713
:10135000E8E00C94DE3561E8E3CF6FE7E1CF21E808
:10136000E7CF2FE7E5CF1D82F1CF1C82EFCFFC0145
:10137000DB012281338191E821388FEF38072CF08F
:10138000922F203831050CF09FE712969C9312970C
:101390002081318121388FEF3807A4F020383105C2
:1013A0009CF413962C931397442339F0919512963D
:1013B0009C931297219513962C931182108213827D
:1013C0001282089521E8EDCF2FE7EBCF8F708A309E
:1013D00010F4805D0895895A0895382F20E287FF20
:1013E00002C031952DE24AE0832F642F0E94FB3525
:1013F000905D90937D0281110BC020937C0220E2CE
:1014000020937B0220E220937A028AE792E00895FB
:10141000642F0E94FB35905D90937C02832F64E6DD
:101420000E94FB35882361F3805D80937B02EBCFC4
:101430009C01860F971F37FD07C077FD04C097FFFB
:1014400002C08FEF9FE7089577FFFDCF97FDFBCF99
:1014500080E090E80895E2E7F1E083E0DF011D928B
:101460008A95E9F7EEE6F1E084E0DF011D928A95C6
:10147000E9F7089520916B0130916C012817390725
:1014800031F090936C0180936B010E942B0A0895B8
:1014900090916901981721F0809369010E942B0AAD
:1014A0000895CF939091640380915303981323C0C0
:1014B00080916503882321F09091540389131BC008
:1014C00080916603882321F090915503891313C0FE
:1014D00080916803882321F09091570389130BC0F2
:1014E00090916703992329F081E0209156032913F5
:1014F00003C080E001C081E0C82FC17080FF0FC031
:10150000E091CD04F091CE04309749F082E08093D1
:1015100063030480F581E02D83E693E009959091C3
:10152000640386E0E3E6F3E0DF01282F1D922A95AD
:10153000E9F790936403A2E5B3E001900D928A95D8
:10154000E1F781E0C11103C0911101C080E0817019
:10155000CF9108952FE2280F283078F481E090E0B1
:1015600001C0880F2A95EAF720916403662331F0C1
:10157000822B809364030E94510A089580958223F0
:10158000F8CFCF93DF93282F81E02A3019F02D3048
:1015900031F480E00E94550BDF91CF910895809146
:1015A0003F079091400736E0FC01A9E3B7E00190C6
:1015B0000D923A95E1F730EE320F343A08F458C004
:1015C00026E0FC0111922A95E9F7C0913F07D091DE
:1015D000400746E050E0BE0189E397E00E9469368B
:1015E0009E0129533540892B41F1C90145E096956B
:1015F00087954A95E1F741E050E0BA0102C0660FD5
:10160000771F8A95E2F7CB01609137057091380515
:10161000862B972BB9016B5F7F4FE5E07695679539
:10162000EA95E1F702C0440F551F6A95E2F7842B53
:10163000952B90933805809337052A5F3F4F409153
:101640003605642F70E0C9010E94A435481B46305E
:1016500010F4240F311D211572E0370710F030E02F
:1016600020E0275C3A4F3093400720933F0794CF08
:101670002052330B46E0429FB001439F700D11246E
:101680006056794F46E050E00E9460369ECFCF937F
:10169000DF93EC01FE018491811103C0DF91CF91B2
:1016A00008950E94C10A2196F5CFCF93382FE0917B
:1016B0003F07F0914007E953F54020913605622F2E
:1016C00070E0CF010E94A435281B822F332361F0E4
:1016D00066E00E94EF35C82FC15010F4CF910895F5
:1016E00080E20E94C10AF8CF9F01280F311D211509
:1016F000324018F080E0F0E0E0E08E0F9F2F911D67
:10170000875C9A4F9093400780933F07E7CF809183
:10171000D50490915604892B8093720248E050E0E2
:1017200060EA72E082E792E00E946936892BA9F0B4
:1017300088E0E2E7F2E0A0EAB2E001900D928A953B
:10174000E1F7E091CD04F091CE04309731F00280C2
:10175000F381E02D82E792E009950895809153048A
:10176000882349F0809156048D7D809356040E9411
:10177000870B109253040895E4E7F2E086E0DF015E
:101780001D928A95E9F7109256040E94870B0895DE
:10179000AAE2B0E0EEECFBE00C94C73584EE94E0F6
:1017A0002091F100DC012D93CD01B4E08C3E9B072C
:1017B000B9F78091E504833009F472C0B8F4813040
:1017C00009F449C0823009F4B5C08091E80083FF74
:1017D0008DC28091E4049091E5049A3008F086C2AD
:1017E000E92FF0E0E752F94C0C941D368A3009F4E9
:1017F00090C08B3009F471C0893039F78091E404CE
:10180000813219F78091E8049091E904009711F072
:101810000297D9F68091E800877F8093E800809155
:10182000E80082FF38C09091F3008091F2000297A7
:1018300031F48091F100813011F0863021F48091F3
:10184000F1008093D7048091E8008B778093E800C3
:101850000E94CA05BACF8091E404813A09F0B5CF5D
:101860008091E800877F8093E8008091E804909160
:10187000E904892B61F468E088ED94E070E00E944F
:1018800076068091E8008B778093E8009ECF60E039
:1018900090E080E0F3CF8091E2048111C0CF95CF3A
:1018A0008091E404813A09F090CF8091E80490910E
:1018B000E904892B09F089CF8091E800877F809324
:1018C000E8008091E80080FFFCCF809117028093B0
:1018D000F1008091E8008E77B9CF8091E4048132E5
:1018E00009F073CF8091E8049091E904892B09F005
:1018F0006CCF8091E800877F8093E8000E94CA0542
:101900008091E604809317021092D5040E94BC0BCC
:101910005CCF8091E404813209F057CF8091E800D8
:10192000877F8093E8000E94CA058091E704809336
:10193000D6044BCF8091E404813A09F046CF8091E0
:10194000E800877F8093E8008091E80080FFFCCF6B
:101950008091D604BCCF803899F0823809F0C6C196
:101960008091E8048F70873008F0C0C18093E9004F
:101970008091EB0085FB882780F91092E90006C072
:101980008091E0049091E104911182609091E800CF
:10199000977F9093E8008093F1001092F10080917E
:1019A000E8008E779FC1882309F48DC1823009F049
:1019B0009DC18091E604811190C18091E8048F70EF
:1019C0002FEF280F263008F091C18093E900209175
:1019D000EB0020FF82C1933031F48091EB008062F4
:1019E0008093EB007AC19091EB0090619093EB00B3
:1019F00021E030E001C0220F8A95EAF72093EA0047
:101A00001092EA008091EB008860EACF81116EC1EC
:101A10001091E6041F778091E3008078812B8093FA
:101A2000E3008091E800877F8093E8000E94CA0568
:101A30008091E80080FFFCCF8091E3008068809374
:101A4000E30082E0111183E08093E2044FC18058EB
:101A5000823008F04BC12091E6043091E7042C3D20
:101A6000E3E03E07A1F583E08A838AE289834FB7EA
:101A7000F894DE01139620E03EE051E2E32FF0E01F
:101A800050935700E49120FF03C0E295EF703F5F51
:101A9000EF708E2F90E0EA30C0F0C7968D939D9343
:101AA0002F5F243159F74FBF8091E800877F8093E3
:101AB000E8006AE270E0CE0101960E94760680910D
:101AC000E8008B778093E80011C1C096E7CF809142
:101AD000E8049091E904432F55274330510509F458
:101AE0004AC078F54130510509F47AC08BE590E0A1
:101AF000E7E0F6E04230510509F0F8C02091E80037
:101B0000277F2093E8002091EA043091EB048217AC
:101B1000930708F49C0140E02115310509F065C0E8
:101B2000411163C08091E80082FDC9CF8091E20439
:101B3000882329F2853019F28091E80083FFF2CFE3
:101B4000BECF4132510509F43CC04232510509F083
:101B5000CDC08330910508F0C9C0FC01EE0FFF1F16
:101B6000EC59FD4F0190F081E02D8F599D4FDC0124
:101B70008C9190E01AC0332721303105D1F0211526
:101B8000310561F02230310509F0B0C0E4E7F6E03C
:101B9000E4918E2F90E0E4E7F6E007C0ECE9F6E090
:101BA000E4918E2F90E0ECE9F6E0009709F49EC0F6
:101BB000A5CFEAE8F6E0E4918E2F90E0EAE8F6E0BF
:101BC000F4CF8330910508F091C0880F991FFC0174
:101BD000E659FD4F0190F081E02D89E090E08ECF35
:101BE00082E190E0E2E6F6E089CF8091E20488238A
:101BF00009F465CF853009F462CF8091E80083FD58
:101C00005ECF8091E80082FD8DCF8091E80080FF5B
:101C100083CF9091F3008091F2002115310519F0E6
:101C20008830910550F041E0089709F040E080913C
:101C3000E8008E778093E8006FCF44914093F100E5
:101C40003196215031090196E8CF803809F04EC015
:101C50008091E800877F8093E8008091E30480937F
:101C6000F1009DCE811142C01091E6041230F0F5D2
:101C70008091E800877F8093E8001093E3040E943E
:101C8000CA05112311F084E005C08091E30087FDAF
:101C9000FACF81E08093E20442E061EC81E00E94AF
:101CA000E90542E261EC84E00E94E90542E261EC70
:101CB00082E00E94E90542E260EC83E00E94E905CF
:101CC0008091E20413C08091E604813079F481E0D0
:101CD000933009F080E08093E1041092E900809154
:101CE000E800877F8093E8000E94CA058091E800A1
:101CF00083FF0AC08091E800877F8093E80080918D
:101D0000EB0080628093EB00AA96E3E00C94E3354D
:101D1000882341F080959091D50489238093D50440
:101D20000E94870B0895882339F09091D504982B51
:101D30009093D5040E94870B0895882379F19CEF36
:101D4000980F913A78F4E4E7F2E09191891303C097
:101D5000DF0111971C9242E0EA37F407B1F70E94C5
:101D6000870B089590E2980F983088F4877021E0EF
:101D700030E0A90102C0440F551F8A95E2F7CA015D
:101D800080959091D50489238093D504E8CF93E37F
:101D9000980F933118F460E00E94AA0A08950F93F7
:101DA0001F93CF93C82F882341F18CEF8C0F813A7A
:101DB000B0F504E712E08AE792E0F8012191C2173A
:101DC00001F18E179F07D1F7EFEF80E0D8019D91C9
:101DD0008D01C91781F0EF3F19F4911101C0E82F6F
:101DE0008F5F863099F7EF3F31F00E2E000CFF0B1E
:101DF000EE58FD4FC2830E94870BCF911F910F9128
:101E00000895E4E7F2E02191C21303C0DF011197C6
:101E10001C928E179F07B9F70E94870BD5CF80E2DF
:101E20008C0F883068F4C77021E030E001C0220FC9
:101E3000CA95EAF78091D504822B8093D504DBCF35
:101E400083E38C0F8331C8F661E08C2F0E94AA0ACD
:101E5000D4CF0F931F93CF93DF93EC01FC0101903C
:101E60000020E9F78F0101501109C017D10728F0B0
:101E7000DF91CF911F910F91089589910E94C10A1E
:101E8000F4CF0F931F93CF93DF938B01EA019091CF
:101E9000E204943061F58093E9008FEF9091E800BF
:101EA000815095FD06C095ED9A95F1F700008111DE
:101EB000F5CF8091E80085FF1AC00E949905811135
:101EC00011C08091E80085FD06C08091E8008E7702
:101ED0008093E800F2CFF80181918F018093F100A7
:101EE000219779F78091E8008E778093E800DF9161
:101EF000CF911F910F91089546E050E0BC0184E01E
:101F00000E94410F0895CF93DF93EC0148E050E029
:101F1000BC0181E00E94410F88E0FE01A8EDB4E021
:101F200001900D928A95E1F7DF91CF91089560912C
:101F300019028091200480FF20C08091180243E0A4
:101F4000849FC001112484599C4F539A2BB1277F41
:101F50003BB138605FB7F894FC01649FE00DF11D60
:101F60001124BF0168177907D1F45FBF8FE594E0B2
:101F70000197F1F700C00000089580911A02909136
:101F80001B0223E0829FF0011124E459FC4F8917C2
:101F9000A0F61182108212828F5F3396F8CFFC0177
:101FA0004191CF01E8E03BB9000000C047FF2BB9E9
:101FB000440F000000C000C000C02BB900C0EA956B
:101FC00091F7D0CFE0E2F4E080818E7F8083E9E674
:101FD000F3E08281816082830E94970F0895B0E0D0
:101FE000A0E0E5EFFFE00C94C0357C015B016A01E5
:101FF0008091230301E010E08A3010F40AE010E041
:10200000C1E0D0E0B501C701F6010995811104C016
:1020100021960C171D072CF4CDB7DEB7EAE00C941F
:10202000DC35CC9F9001CD9F300D300D112490E018
:1020300080E045E34A95F1F7000001968217930787
:10204000C1F7E0CF8091B502811119C088EC90E012
:102050002091E30027FD10C0EFE3FCE93197F1F791
:1020600000C000000197A1F782E08093B5020E94B2
:102070007A051092E20403C081E08093B50281E00A
:102080009091B502913011F080E0089508950E947A
:102090002210882359F0E091CD04F091CE043097BE
:1020A00029F00190F081E02D0995089580E00895D0
:1020B0000F931F930E942210882329F00E94E906A3
:1020C0001F910F9108950E94E90600912403109139
:1020D00025032091260330912703600F711F821F73
:1020E000931FEECF54985C9A879A8F9885E08A95D3
:1020F000F1F7000089B187988F9A90EA9A95F1F7E5
:1021000090E024E0959587952A95E1F78095909544
:1021100081700895CF93DF9380911D02CEE18111EC
:10212000CDE180911E02D0E0882329F080911F022A
:10213000DEE18111DDE10E94721081110FC08D2F4F
:1021400080931802C0931902CD0F10921A02C09307
:102150001B02C0931C02DF91CF91089580E0F0CF65
:1021600080911D02F90180830E948A1008951F93B7
:10217000CF93DF93182FEB010E94CF0E8FE99FE0E2
:102180000197F1F700C000002197C1F7812F0E944D
:102190009D0EDF91CF911F9108951092D5040E945A
:1021A000BC0B2FEF84E39CE0215080409040E1F78E
:1021B00000C0000088E19AE00FB6F894A8958093DB
:1021C00060000FBE90936000FFCFCF93DF93C9E014
:1021D000D2E060E0CE010E94A3362196C11584E0D2
:1021E000D807B9F7DF91CF9108951F93CF93DF936D
:1021F000122F8530E0F46830D0F44630C0F4C42F9C
:10220000D0E0CC0FDD1F9CE0699FC00DD11D1124D3
:1022100090E6899FC00DD11D1124632FCE018996B0
:102220000E94A336612FCE018A960E94A336DF91C9
:10223000CF911F910895AF92BF92CF92DF92EF920C
:10224000FF921F93CF93DF9387E2C82E84E0D82EAE
:10225000D0E07601C0E014C0F50125913491412F02
:102260006C2F8D2F0E94F51082E0A80EB11C1F5F0D
:10227000163091F78CE0E80EF11CCF5FC83019F0F2
:10228000570110E0E9CFDF5F80E6C80ED11CD530E2
:1022900001F7DF91CF911F91FF90EF90DF90CF90EA
:1022A000BF90AF90089588E290E00E94A336089511
:1022B000CF93C82F6FEF811166E285E290E00E9414
:1022C000A3366FEFC11167E086E290E00E94A3366B
:1022D0006FEFC11168E187E290E00E94A336CF91D1
:1022E000089580E00E94581160E070E0CB010E94E8
:1022F00053110E941B110E94E51081E00E945811A9
:1023000008950F931F93CF93DF93853030F5683096
:1023100020F5463010F5C42FD0E0CC0FDD1F2CE0A7
:10232000629FC00DD11D112430E6839FC00DD11DC9
:102330001124CE0189960E947F36082F10E0102FBD
:102340000027CE018A960E947F369801282BC9016A
:10235000DF91CF911F910F91089590E080E0F8CF29
:10236000462F783040F4663030F4853020F4672F03
:102370000E948111089590E080E00895CF92DF924D
:10238000FF920F931F93CF93DF936C01009128046A
:102390008091A802082BC4E0D0E010E0FC2EC80118
:1023A0000C2E02C0959587950A94E2F780FD0CC02B
:1023B0002197A0F7F12C8F2DDF91CF911F910F91D5
:1023C000FF90DF90CF900895B6018C2F0E94B0113E
:1023D0000E94E507019761F3EECFCF93DF93EC0105
:1023E0000E94BE11BE010E94B0110E94E507DF915C
:1023F000CF910895FC0184818823F9F0878190852D
:10240000009791F00E94E50792959F709630B9F081
:1024100080F4925F9F70923080F4803F19F058F4FE
:10242000883E58F481E00895808191810E94ED11E9
:10243000EBCF9A5FEFCF843FA9F380E00895883E09
:1024400088F3813FD1F7EECFA6E0B0E0EAE2F2E117
:102450000C94C7359C01FC01878190850097E1F4BD
:1024600086E0DE01119601900D928A95E1F7F9015F
:10247000258189819A81222399F0662389F00E941F
:10248000BE11182F682F89819A810E94EB086981FB
:102490007A81812F0E94B0112696E3E00C94E335F7
:1024A0000E94B708182FF3CF88E290E00E947F3691
:1024B000682F70E090E080E0089585E290E00E944F
:1024C0007F36863289F486E290E00E947F3687303C
:1024D00059F487E290E00E947F3691E0883109F05C
:1024E00090E0892F8170089580E0FCCFB0E0A0E0FB
:1024F000ECE7F2E10C94C2356C017B0164E670E01C
:1025000088E70E9402338C01E601EC0CFD1C17FDEC
:102510000BC0FE01849164E670E00E946E338C0172
:102520002196CE15DF0599F70E94E43381E001156D
:10253000110509F080E0CDB7DEB7E8E00C94DE3598
:1025400080914F0490915204911103C091E089272A
:102550000895882369F062E070E088EE93E00E94BD
:102560007612811103C080914F04089510924F0498
:1025700080914F04EBCFCF93C0914F0480915204D0
:102580008823D1F00E94E906605A75418F4F9F4F12
:1025900060934B0470934C0480934D0490934E04CD
:1025A000C11108C062E070E086EE93E00E947612EE
:1025B000811105C0C0914F048C2FCF91089581E007
:1025C00080934F04F7CFB0E0A0E0E9EEF2E10C9485
:1025D000BE3549015A016B017C010E9450078401FC
:1025E000A4016A2D7B2D88E090E00E94B53694010D
:1025F0004A2D5B2DB601C70100E20E944536622FCD
:1026000084E290E00E94A336CDB7DEB7ECE00C94F4
:10261000DA35B0E0A0E0EFE0F3E10C94BE35182F1E
:10262000C62FD42F822E0091200400FF50C080912D
:102630002104811308C080912204861304C0809174
:102640002304841729F080916B03826080936B03CD
:10265000E02FE695F0E0E95AFD4F80818093690311
:10266000802F8E7F8230E9F4ED2FD73908F0E6E92C
:10267000F0E0EA51FD4FC1112FC02491F22FE22F5B
:1026800000FF0FC080911A0290911B0233E0839FDC
:10269000D0011124A459BC4F891708F492C00E949C
:1026A000970F10932104C0932204D0932304882011
:1026B00071F0209120046091240470912504312F41
:1026C000AE0180912604909127040E94E312CDB7B9
:1026D000DEB7ECE00C94DA35EC2EF12CE4919E2E72
:1026E000CE2ED12C26E0129FC00111242FEF30E016
:1026F000B9010E94A435812F90E0880F991FF5E55C
:10270000F69FA001F79F500D1124841B950BB82E46
:10271000BB0CB80EA9014E195F094C9DC0014D9D1F
:10272000900D5C9D900D1124F92FCB9DA0011124DB
:10273000452F5527D901A41BB50BAC9DA001AD9D1C
:10274000500DBC9D500D1124D901AB19B1095D018B
:10275000AE9CD001AF9CB00DBE9CB00D1124AB2F30
:10276000BB272A1B3B0B2C9DD0012D9DB00D3C9D02
:10277000B00D11242B2F62307105A1F050F46115BA
:10278000710509F47DCF6130710581F0292FF52F96
:1027900077CF6430710569F080F06630710509F417
:1027A0006FCFF4CF2E2FE92FFB2F6ACF2E2FE52FDF
:1027B00067CF292FFE2FEB2F63CFE92FF92D252F80
:1027C0005FCF1196EC9311972C931296FC9312976E
:1027D0008F5F139661CF20E00E94091308950F9335
:1027E0001F93CF93C82F0E94250991E0833009F0F1
:1027F00090E0892F0E9436094C2F50E070E060E095
:10280000DB01CA01F4E0B695A79597958795FA95EF
:10281000D1F70097A105B10549F1AC01BD0184E0F4
:102820008A019B01E2E03695279517950795EA9571
:10283000D1F7011511052105310519F08E5FB90198
:10284000A8017695679557954795452B462B472BBD
:1028500009F08F5F823009F443C050F48823E1F01F
:10286000813079F140E060E080E024C080E0D8CFA2
:10287000833009F444C08430A9F740E060E080E090
:102880000E94EB138FE39CE90197F1F700C0000071
:1028900046E666EE87E20EC040E060E080E00E941F
:1028A000EB138FE39CE90197F1F700C0000040E5CE
:1028B0006CEC8AE60E94EB138C2FCF911F910F9145
:1028C000089540E060E080E00E94EB138FE39CE914
:1028D0000197F1F700C0000041EB66EE8FEFEACF01
:1028E00040E060E080E00E94EB138FE39CE90197F9
:1028F000F1F700C0000048E26CEC81EBDBCF40E078
:1029000060E080E00E94EB138FE39CE90197F1F710
:1029100000C0000041EB6FEF84E0CCCF0E94EF13CA
:102920008093280408959091280421E030E0F90173
:1029300001C0EE0F8A95EAF7D90102C0AA0FBB1FAA
:102940006A95E2F7EA2B01C0220F4A95EAF7892F30
:102950008E23E81305C0292B822F0E948E14089520
:1029600020952923F9CF21E030E001C0220F8A957C
:10297000EAF720958091280482230E948E140895FE
:1029800021E030E001C0220F8A95EAF78091280407
:10299000822B0E948E140895E0E2F4E043812FE040
:1029A000421B08F440E021E0628181810E9409130A
:1029B0000895E0E2F4E043812FE0420F08F44FEF86
:1029C00021E0628181810E9409130895E0E2F4E030
:1029D000628121E1621B08F460E021E04381818192
:1029E0000E9409130895E0E2F4E0628121E1620FA0
:1029F00008F46FEF21E0438181810E94091308955B
:102A0000E0E2F4E0818121E04381628181510E9412
:102A100009130895E0E2F4E0818121E043816281BD
:102A20008F5E0E940913089580912404882319F071
:102A300081508093240420912004309121044091FE
:102A40002204509123046091240470912504809104
:102A50002604909127040E94E31208958091240493
:102A6000833018F48F5F80932404209120043091E8
:102A70002104409122045091230460912404709118
:102A8000250480912604909127040E94E312089562
:102A90002091200420FF23C0217022602093200475
:102AA00080916B03816080936B03662381F030918A
:102AB00021044091220450912304609124047091D8
:102AC000250480912604909127040E94E3124091EE
:102AD000230460912204809121040E94EB13089545
:102AE000809120048695815009F481E061E00E9484
:102AF0004815089561E081E00E9448150895E0E2DC
:102B0000F4E083E0808311828FEF828386E9838300
:102B10001482A9E6B3E012968C9112978360129604
:102B20008C93758123E030E04FEF56E960E08681B9
:102B300097810E94E312089590E080E00E948D3614
:102B4000863E9E4F19F40E945D12089580E008951C
:102B5000B0E0A0E0EEEAF5E10C94C3357901C82FAE
:102B6000880FDD0B41155105A9F0FE0193E0EE0F32
:102B7000FF1F9A95E1F7EF5FFE4F818192818A54A2
:102B80009D4F208130E04217530708F49A01A901B4
:102B90000E947636CE010E942E35D82E8823D1F0A1
:102BA00001151105B9F083E0CC0FDD1F8A95E1F71F
:102BB000FE01EF5FFE4F438150E00417150708F454
:102BC000A801CF5FDE4F6C817D816A547D4FC701C4
:102BD0000E9476368D2DCDB7DEB7E7E00C94DF3559
:102BE000A5E0B0E0E6EFF5E10C94C0358D83E62E6C
:102BF0005A01F22E6801809123038A3028F080E088
:102C00002596EAE00C94DC358D818930C4F31A8274
:102C100019828A836B832C8363E070E0CE01029675
:102C20000E9434078983E0923101F092440110E060
:102C300000E030E020E044E050E0BE016F5F7F4FF5
:102C400085E00E94A8158823D1F24E2D50E030E097
:102C500020E0B50186E00E94A815882381F230E0CB
:102C600020E041E050E0BE016B5F7F4F87E00E94B3
:102C7000A815882321F20F2D10E0960150E040E0C6
:102C800070E060E088E00E94A815BACFA4E0B0E050
:102C9000ECE4F6E10C94C63540911703509118030B
:102CA0006091190370911A032FB7F8948091D004A2
:102CB0009091D104A091D204B091D3042FBF841B72
:102CC000950BA60BB70B11E084369105A105B10554
:102CD00018F10E9458106E5F7F4F8F4F9F4F69838E
:102CE0007A838B839C8310E000E030E020E044E0B6
:102CF00050E0BE016F5F7F4F82E00E94A815182F41
:102D0000882351F00E94E90660931703709318031B
:102D10008093190390931A03812F2496E4E00C9476
:102D2000E235A5E0B0E0E7E9F6E10C94C4357B01BB
:102D300001E010E09E012B5F3F4F50E040E070E06B
:102D400060E080E00E94A815182F882309F456C07F
:102D50004091130350911403609115037091160371
:102D60002FB7F8948091D0049091D104A091D2040F
:102D7000B091D3042FBF841B950BA60BB70B8436E1
:102D80009105A105B10548F464E070E087EB92E09D
:102D90000E9434079D81891789F104E010E09E01AB
:102DA0002F5F3F4F50E040E070E060E081E00E9424
:102DB000A815082F64E070E087EB92E00E943407CA
:102DC00011E09D81981310E0102331F10E94E90673
:102DD0006093130370931403809315039093160369
:102DE00089819A81AB81BC8180930F0390931003FA
:102DF000A0931103B093120311E00EC08091B702AB
:102E00009091B802A091B902B091BA0289839A83D5
:102E1000AB83BC831111E4CF80910F039091100319
:102E2000A0911103B0911203F70180839183A283D3
:102E3000B383812F2596E6E00C94E0358F929F9224
:102E4000AF92BF92EF92FF920F931F93CF937B01AC
:102E5000942FB901A801F70180809180A280B380EE
:102E6000EFB7F8940091D0041091D1042091D204CE
:102E70003091D304EFBF081919092A093B09043618
:102E800011052105310518F4C1E0992381F010E006
:102E900000E030E020E00E94A815C82F882339F018
:102EA0000E94E906F70160837183828393838C2FEC
:102EB000CF911F910F91FF90EF90BF90AF909F9097
:102EC0008F900895A1E0B0E0E8E6F7E10C94C635F4
:102ED00080914F0489832091CA0290E041E0281735
:102EE000190609F440E001E010E09E012F5F3F4F1A
:102EF0006FE173E084E00E941E172196E4E00C94D9
:102F0000E235ABE0B0E0E7E8F7E10C94C63588E0E5
:102F1000E0E2F4E0DE01119601900D928A95E1F76E
:102F20008091690390916A03A0916B0389879A87C6
:102F3000AB8741E08B85811101C040E00BE010E0E0
:102F40009E012F5F3F4F6BE173E083E00E941E17ED
:102F5000811110926B032B96E4E00C94E235A8E00B
:102F6000B0E0E5EBF7E10C94C83566EE7EEF90E05B
:102F700080E00E94C13660E082E090E00E94A336CB
:102F800060E083E090E00E94A3361092A80260E027
:102F900074E184E090E00E94C13660E086E090E059
:102FA0000E94A3366FEF87E090E00E94A33640E0D6
:102FB00050E0BA0188E090E00E94B53660E084E21B
:102FC00090E00E94A33660E087E190E00E94A33683
:102FD00060E08CE090E00E94A33660E08DE090E03D
:102FE0000E94A33619821A821B821C821D821E82B5
:102FF0001F82188648E050E068E170E0CE0101963B
:103000000E94933640E050E0BA0180E290E00E94D6
:10301000B53680E00E9458110E94711140E050E0E6
:10302000BA018FE090E00E94B53640E050E0BA016E
:1030300083E190E00E94B5362896E2E00C94E435F6
:1030400028E030E043E060E086E30E942A32089501
:10305000CF93DF93D82FC62F0E9420188D2F806822
:103060000E94A2328C2F0E94A2328AEB8A95F1F73D
:1030700000C00E94D23283E492E00197F1F700C0D1
:103080000000DF91CF910895682F893708F068E735
:103090006093280291E09093290290911D02992358
:1030A00039F06150811101C064E08FE00E9428185E
:1030B0000895FB0180810E94441808959091280290
:1030C000911101C095E0282F880F330BA901490FFA
:1030D000511DCA011816190614F081E090E00E94F3
:1030E00044180895ACE0B0E0E8E7F8E10C94C2358C
:1030F0004F83588769877A878B879C8780911D02C9
:10310000882309F446C080917F02811107C060E0E6
:1031100080E50E94281881E080937F020E94201899
:1031200080E50E94A2328AEB8A95F1F700C00E94E6
:10313000BA320E94BA320E94BA327C010E94BA327C
:1031400020E0E22AF82A0E94BA328C010E94BA32A8
:1031500020E0022B182B0E94D23285E08A95F1F7ED
:103160000000F894B70180912002909121020E9402
:10317000180A9093210280932002B80180912202C4
:10318000909123020E94180A9093230280932202B6
:1031900078940E942210882309F469C00E94E906ED
:1031A000009180021091810220918202309183026D
:1031B0006B017C01C01AD10AE20AF30A9701860169
:1031C000083011052105310508F451C060938002D3
:1031D00070938102809382029093830200912B026C
:1031E00010912C0220912D0230912E02601B710B48
:1031F000820B930B623371058105910580F4109267
:1032000021021092200210922302109222021092A8
:103210002502109224021092270210922602109189
:103220002A020E947210482FBE01695F7F4F80E220
:1032300092E0112389F10E944A0900912A0210911B
:103240001D020E94721041E04827BE01695F7F4F56
:1032500084E292E0011719F10E944A0986E0FE011A
:103260003796A5E3B2E001900D928A95E1F786E0EA
:10327000FE013796DE01119601900D928A95E1F7D5
:1032800029813A814B815C816D817E8180E090E073
:103290002C96E8E00C94DE350E94B709CECF0E9450
:1032A000B709DCCFCF93C82F0E9420188C2F0E9423
:1032B000A2328FE792E00197F1F700C000000E9470
:1032C000BA32C82F95E09A95F1F700000E94D232E9
:1032D00085E68A95F1F7000010927F028C2FCF913E
:1032E0000895CF93DF930E942232269A0E942018DD
:1032F0006AE58AE30E9428182FEF80E792E02150C8
:1033000080409040E1F700C0000082E00E94521926
:1033100083E00E94521984E00E94521985E00E94C5
:10332000521986E00E94521960E080E10E9428183C
:1033300080E00E945219D82F81E00E945219C82FB4
:103340000E94D232D23419F481E0C13009F080E019
:10335000817080931D02882321F064E08FE00E9439
:103360002818DF91CF9108951F920F920FB60F92F8
:1033700011242F933F934F935F936F937F938F937A
:103380009F93AF93BF93CF93DF93EF93FF93D0912E
:10339000E900DF708091EC00C82FC17080FDC0E8AB
:1033A0001092E9008091F000877F8093F00078947C
:1033B0000E94C80B1092E9008091F0008860809311
:1033C000F000CD2BCF70C093E900FF91EF91DF911A
:1033D000CF91BF91AF919F918F917F916F915F91AD
:1033E0004F913F912F910F900FBE0F901F90189506
:1033F0001F920F920FB60F9211242F933F934F936A
:103400005F936F937F938F939F93AF93BF93EF934C
:10341000FF938091E10082FF09C08091E20082FF6A
:1034200005C08091E1008B7F8093E1008091DA00FC
:1034300080FF24C08091D80080FF20C08091DA00F6
:103440008E7F8093DA008091D90080FF9DC080E15B
:1034500089BD82E189BD09B400FEFDCF81E0809382
:10346000E2048091D404811109C00E947A050E946F
:103470001B068091E20084608093E2008091E1006D
:1034800080FF17C08091E20080FF13C08091E200AE
:103490008E7F8093E2008091E20080618093E20061
:1034A0008091D80080628093D80019BC85E0809319
:1034B000E2048091E10084FF2BC08091E20084FF50
:1034C00027C080E189BD82E189BD89B5982F9170BF
:1034D00080FFFBCF8091D8008F7D8093D8008091B2
:1034E000E1008F7E8093E1008091E2008F7E8093E7
:1034F000E2008091E20081608093E2008091E30429
:10350000882309F447C084E08093E2048091E204B8
:103510008091E10083FF27C08091E20083FF23C0F8
:103520008091E100877F8093E10082E08093E20454
:103530001092E3048091E1008E7F8093E1008091FE
:10354000E2008E7F8093E2008091E20080618093B0
:10355000E20042E060E080E00E94E9058091F00036
:1035600088608093F000FF91EF91BF91AF919F91A0
:103570008F917F916F915F914F913F912F910F901C
:103580000FBE0F901F90189519BC1092E204109274
:10359000D40474CF8091E30087FD93E09093E2041C
:1035A000B5CF78941F921FB61F9211248F939F93CB
:1035B000AF93BF938091D0049091D104A091D20495
:1035C000B091D3040196A11DB11D8093D0049093B6
:1035D000D104A093D204B093D304BF91AF919F9133
:1035E0008F911F901FBE1F9018959C014FB7F894A4
:1035F0008091D0049091D104A091D204B091D304D1
:103600004FBF821B930B08952FB7F8948091D0047D
:103610009091D104A091D204B091D3042FBF08950A
:103620002F923F925F926F927F928F929F92AF9272
:10363000BF92CF92DF92EF92FF920F931F93CF939F
:10364000DF9380915204882309F4FEC080915004D6
:10365000909151040E94F51AC29708F4D5C00E94B7
:10366000041B909351048093500489E395E0909358
:10367000400780933F070E942210882309F401C16C
:1036800080EF93E00E94470B88EB0E94C10A809173
:1036900034020E94E6090E94C10A89EB0E94C10A15
:1036A000809133020E94E6090E94C10A8DEE93E0E8
:1036B0000E94470B809131029091320254E096951E
:1036C00087955A95E1F70E94E6090E94C10A809108
:1036D00031020E94E6090E94C10A8AEE93E00E942C
:1036E000470B8BE392E00E94290F8FE094E00E9449
:1036F000470B809137020E94ED090E94290F8091AB
:1037000038020E94ED090E94290F80913A020E941E
:10371000ED090E94290F809139020E94ED090E9453
:10372000290F87E094E00E94470B809128028111C5
:1037300001C085E00E94ED0901960E94290F83E0F7
:1037400094E00E94470B80913002882331F0813051
:1037500009F48CC08AEF93E002C080E094E00E94FC
:10376000470B80912A02882309F483C088E194E002
:103770000E94470B86EF93E00E94470B80912F0237
:10378000811101C087E0805D0E94C10A8EE194E052
:103790000E94470BC1E0D0E080912804882309F4FF
:1037A0006BC090E00C2E02C0959587950A94E2F7C5
:1037B00080FF62C08C2F0E94E6090E94C10A2196F8
:1037C000C830D10549F780E20E94C10A8BE194E03C
:1037D0000E94470B80916901882309F44FC088E15A
:1037E00094E00E94470B80916B0190916C0168EE10
:1037F00073E00E94A435862F0E94ED0901960E9475
:10380000290F83E70E94C10A8091370590913805FE
:10381000892B09F04CC080914F048823A9F00E94A5
:10382000E90600914B0410914C0420914D04309115
:103830004E04601B710B820B930B6F3F7F4F8F4FBA
:103840009F4710F40E94A012DF91CF911F910F911A
:10385000FF90EF90DF90CF90BF90AF909F908F90B0
:103860007F906F905F903F902F9008958DEF93E041
:1038700076CF85E194E07CCF80EB9FCF85E194E02B
:10388000B0CFC0E9D0EFDC0F84E294E00E94470B98
:1038900011E01D0F8D2F0E94C10AD12F1C13F8CFEC
:1038A00080E00E94550BC05FC03C61F7ADCF8091B6
:1038B0005204882309F4AFCF80914A048111ABCF21
:1038C0000E94BB1220913705309138052115310532
:1038D00009F4A1CF80E041E050E0082F10E01A0188
:1038E000082E02C0220C331C0A94E2F7B1016223B5
:1038F0007323672B11F48F5FF0CF9091490490FFF1
:1039000095C0880F880F880F8093770110927A01F5
:10391000895F8093780183E080937B0124E630E027
:1039200047E050E065E771E088E70E949C33892B0F
:1039300009F071CFA80125E0440F551F2A95E1F742
:103940008091490480FF84C0E9E2F4E080E2DF0175
:103950001D928A95E9F7ADE5B2E009E512E081E64E
:10396000C82E82E0D82E97E0592E772473948D913B
:10397000E80129918E01240F352F311D275C3A4F24
:10398000E82FF0E0E75DFB4F90E080E0652C681ADF
:10399000872C082E01C0880C0A94EAF77901A12C23
:1039A000E701B9907E01B820662D6A196770962EDE
:1039B000062E000C770BDB2D01C0DD0F9A94EAF781
:1039C0007195619571096770772701C0B6946A9502
:1039D000EAF7BD2A6081962E9B289082A39468E026
:1039E000A612DECF019631968830910579F6CA1677
:1039F000DB0609F0BCCF04E610E020E230E049E24B
:103A000054E060E488E70E94BD33892B09F003CFBE
:103A1000E101C095D0958091370590913805C82374
:103A2000D923D0933805C0933705F5CE8295880FFA
:103A3000807680937701980136952795369527955E
:103A400020937A01815E8093780120937B0166CF79
:103A5000475C5A4F04E610E020E230E0D2CFAEE1FE
:103A6000B0E0E5E3FDE10C94C23540916303509171
:103A70006403609165037091660380916703909180
:103A800068030E9472182093630330936403409389
:103A9000650350936603609367037093680386E041
:103AA000E3E6F3E0DE01179601900D928A95E1F7C7
:103AB00086E0FE013796DE011D9601900D928A95F3
:103AC000E1F786E0FE013D96DE01119601900D9230
:103AD0008A95E1F786E0FE013196A3E6B3E0019016
:103AE0000D928A95E1F786E0E3E6F3E0DE01599670
:103AF00001900D928A95E1F786E0FE017996DE014C
:103B0000179601900D928A95E1F786E0FE013796AF
:103B1000DE01119601900D928A95E1F786E0FE0193
:103B20003196DE01539601900D928A95E1F786E079
:103B3000FE017396DE01179601900D928A95E1F7CA
:103B400086E0FE013796A3E6B3E001900D928A95D8
:103B5000E1F786E0E3E6F3E0DE01179601900D92CF
:103B60008A95E1F710916901112309F4D5C080917C
:103B70006E0190916F010E94F51A20916D01281736
:103B8000190608F0C9C080917001909171010E94DE
:103B9000F51A893C910508F4BFC00885C984DA8408
:103BA000FB84EC848C2D8D298F298E2909F44FC03C
:103BB00080916003909161030E94F51A893C910500
:103BC00080F010925F0310925E0310925D031092DA
:103BD0005C0310925B0310925A03109259031092E7
:103BE00058030E94041B90936103809360038091AB
:103BF0005E0390915F038C0D911DC7FC9A95909385
:103C00005F0380935E0380915C0390915D038D0D53
:103C1000911DD7FC9A9590935D0380935C038091EE
:103C20005A0390915B038E0D911DE7FC9A9590933A
:103C30005B0380935A0380915803909159038F0D31
:103C4000911DF7FC9A9590935903809358038091A6
:103C50005E0390915F0397FF03C091958195910951
:103C60004F971CF580915C0390915D0397FF03C013
:103C70009195819591094F97C4F480915A03909141
:103C80005B0397FF03C09195819591094F976CF461
:103C9000809158039091590397FF03C091958195A6
:103CA00091094F9714F4002359F110925F03109279
:103CB0005E0310925D0310925C0310925B031092FE
:103CC0005A031092590310925803109372010E94E4
:103CD0007D0710912804882361F10E94041B9093B2
:103CE0006F0180936E0110927101109270018091AA
:103CF0006A01111107C0882379F00E94C0140CC01A
:103D000010E0E3CF212F30E0082E02C03595279533
:103D10000A94E2F720FFF1CF0E94510A81112FC0CF
:103D2000809162031092620381706E96E8E00C94B9
:103D3000DE3580916A01111118C08111EDCF80919B
:103D40006E0190916F010E94F51A20916B013091E4
:103D50006C012817390700F780916A010E94B3149B
:103D600010926F0110926E01D7CF212F30E002C068
:103D7000359527958A95E2F720FFCECFE0CF81E0F9
:103D800090E0D0CFA3E1B0E0E8ECFEE10C94BD35CB
:103D90008E01045F1F4F88E0D8011D928A95E9F7D4
:103DA00085E4C82E82E0D82EF12CE12CAA24A3941D
:103DB000B12C2FE4822E22E0922EF60181916F0128
:103DC0008F3F09F442C0F894E82FE295EF70F0E0DD
:103DD00021A18F70A50102C0440F551F8A95E2F7FB
:103DE000CA01922F982B91A392A18095892382A337
:103DF000789400C0E9E4F2E0712C31E021912F3F8A
:103E000009F46BC0A22FA295AF70B0E090968C9190
:103E100090E02F7002C0959587952A95E2F780FD76
:103E20005CC0832F782A330F8E169F0639F7F60170
:103E3000319780818F3F11F00E94CE0750EA5A954A
:103E4000F1F7F801EE0DFF1D70828FEFE81AF80A06
:103E5000A4E0EA16F10409F0B0CF48E050E0B80160
:103E600088E293E00E946936009741F028E0F8016B
:103E7000A8E2B3E001900D922A95E1F70091310399
:103E8000892B69F181E08093AD020E94041B90931D
:103E9000AC028093AB028091AB029091AC020E9485
:103EA000F51A059700F110E0015C1C4F44E050E06A
:103EB00068E273E0C8010E946936B12C892B51F089
:103EC00084E0E8E2F3E0D80101900D928A95E1F7F1
:103ED000BB24B3941092AD0207C080E0A3CF8091C1
:103EE000AD028111D8CFB12C0E942210A82EE091F2
:103EF0003103882309F489C019821A821B821C822B
:103F00000E2F10E0015C1C4F809123038A3008F0D3
:103F100046C041E956E1BE016F5F7F4FC8010E9474
:103F2000EF0F882309F460C046E456E1BE016F5FDD
:103F30007F4FC8010E94EF0F882309F455C041E864
:103F400057E1BE016F5F7F4FC8010E94EF0F8823CA
:103F500009F44AC042E657E1BE016F5F7F4FC801D6
:103F60000E94EF0F882309F43FC010922303809131
:103F7000300390E044E050E0BE016F5F7F4F815C12
:103F80009C4F0E94693621E02093B402892BF1F402
:103F9000A12C8A2D8B296396EDE00C94D935809164
:103FA000AE029091AF020E94F51A843F914008F052
:103FB000B0CF8091B402882359F384E0FE0131969A
:103FC000DF011D928A95E9F71092B402E091300367
:103FD000F0E0E15CFC4F89819A81AB81BC818083F8
:103FE0009183A283B383D5CF809123038F3F31F098
:103FF0008F5F809323038A3008F4B9CF0E94041B9B
:104000009093AF028093AE02D4CFF0E0E15CFC4F1E
:1040100084E0A7EBB2E001900D928A95E1F764E0AD
:1040200070E087EB92E00E9434078093B602C09064
:10403000BB02D090BC02E090BD02F090BE02809125
:10404000B0029091B102A091B202B091B302C81631
:10405000D906EA06FB06D1F0C092B002D092B102B6
:10406000E092B202F092B3020E94221081110EC0BF
:104070000E94E906C61AD70AE80AF90AC092240380
:10408000D0922503E0922603F09227038BE0EFEB1A
:10409000F2E0DE01119601900D928A95E1F7998187
:1040A000892F86950A81FB80EC801B851092C902BE
:1040B0001123A1F010FF0AC090FF17C090912004B7
:1040C00091609093200460E00E94481511FF06C0A3
:1040D00020E04E2D6F2D802F0E9409138091CA027F
:1040E000882331F00E94BB1254CF0E94E20FEECF22
:1040F0000E94A0124ECFA8E0B0E0E1E8F0E20C94FC
:10410000BC357C01DC0114968C91882309F49FC096
:1041100061E0C7010E9424128C01F701D580DD20E7
:1041200009F44FC197578038910508F04AC1003112
:1041300008F08DC08FEF93E00E947F36811187C019
:1041400049E0E42E42E0F42E01114EC0FE01339608
:1041500086E0DF011D928A95E9F73AE0632E870138
:104160000F5F1F4FC7010E947F3689831A82882301
:1041700009F46DC0813009F06EC06701B2E0CB0E6A
:10418000D11CC8010E947F368A83882309F45FC04E
:104190009FEF980F9330B0F5E3E0EE0EF11CC601EF
:1041A0000E947F368B83882309F451C01C828E01C4
:1041B0000F5F1F4FD8012C91222389F2213009F083
:1041C000A2C011969C91119712968C91913009F092
:1041D00044C00E5F1F4F65E070E0893311F460E565
:1041E00070E00E94B7103FC0E114F4E0FF0679F1DF
:1041F000C7010E947F36811101C001502FEFE21AE2
:10420000F20AA2CF7601843091F602E010E0760146
:10421000FFEFEF1AFF0AC6010E947F36E1E0F0E0EF
:10422000EC0FFD1FE00FF11F8083882381F08C3796
:1042300041F4E2E0F0E0EC0FFD1FE00FF11F10820F
:10424000B6CF0F5F1F4F67010730110501F72896A2
:10425000EEE00C94D8357801AACF923029F50E5FA4
:104260001F4F0E94CF0E0F5F1F4F8FE99FE00197F6
:10427000F1F700C00000AFE9BFE01197F1F700C00F
:104280000000EFE9FFE03197F1F700C000008FE98F
:104290009FE00197F1F700C00000AFE9BFE0119780
:1042A000F1F700C0000086CF933029F40E5F1F4F56
:1042B0000E949D0ED8CF943019F00F5F1F4FD3CFBF
:1042C0000E5F1F4F30E020E0B8016F5F7F4FF801B5
:1042D00041818053990B8A30910550F0215031096A
:1042E00010F28FE99FE00197F1F700C00000F6CFD0
:1042F000629EF001639EF00D11249C012E0F3F1F62
:10430000842F8B01E1CFE22FF0E0E15FFD4F74904D
:10431000822F86958695869590E0FC01E150FE4FB0
:10432000C4902770D12C022E02C0D594C7940A9451
:10433000E2F7A1E0CA22DD24FC01E151FE4FA49086
:10434000B12C022E02C0B594A7940A94E2F7B1E012
:10435000AB22BB24FC01E152FE4F8490912C02C0A1
:10436000959487942A95E2F7E1E08E229924C1146E
:10437000D10419F081EE0E94CF0EA114B10419F0FE
:1043800086EE0E94CF0EF9E365E070E07F1202C076
:1043900060E570E0872D0E94B710A114B10419F0F8
:1043A00086EE0E949D0EC114D10419F081EE0E9488
:1043B0009D0E8114910409F456CF65E070E08CE203
:1043C00010CF80916901882309F46BC00115B2E513
:1043D0001B0708F047C00115E0E51E0708F0B9C04B
:1043E0000115F0E21F0798F5011521E0120708F00A
:1043F00053C0C801805E9109089708F44DC0F701C9
:104400008481882309F448C00730FEE71F0709F4B8
:10441000AEC0C8018D5C9109439708F4A8C00E9402
:104420007D07811139C0DD2059F080916A0120910A
:1044300028042111ADC0882309F4B3C00E942B0ABF
:104440000E94041B909371018093700125C0D701D5
:1044500016968C910115B0E41B0708F092C0807F7E
:10446000D9F0CDCF0036E2E51E0708F044C0003495
:10447000F2E51F0788F4C8018F71992720916A011E
:10448000003232E5130708F06EC02817190621F430
:10449000D11002C00E9474078091740187FD1092B0
:1044A00074011093320200933102D7018D919C91D7
:1044B00011979093340280933302F8013497E533D7
:1044C000F10508F077C0E157FD4FE49115968C9106
:1044D00020EB811102C02E2FE0EBABE3B2E090E0C5
:1044E00080E03D91321360C0835E9D4FDC015E969B
:1044F000EC93F8017DC0003882E5180720F1C8016F
:10450000805C9245809708F07ACF20916A01C801BB
:104510008F7199272817190609F0BECF8D2D0E949B
:104520006607D70116968C911697807F803509F023
:10453000B3CF15968C918823F1F08091740181504E
:1045400080937401A9CF20916A01C8018F719927C6
:104550009CCFC80125E0969587952A95E1F78F7045
:10456000992720916A012817190609F095CF8D2DFA
:104570000E94660791CF0E947407809174018F5F3B
:10458000DFCF982F907F09F06ACF812F9927E7CF4F
:1045900030E0082E02C0359527950A94E2F720FFF7
:1045A0004DCF0E94B3144ACF01968630910509F091
:1045B00098CF9FCF0231BEE71B0791F4F7018581A9
:1045C000882359F080912802811101C085E08093F1
:1045D000840284E00E9444183ACE80918402FACF8B
:1045E000C8019A9581159F4108F083CFF801FF27F4
:1045F000D70115968C91E13DF10538F0E93DF105C3
:1046000078F0E730BEE7FB0711F1882309F42EC3E9
:10461000FE57E031F10540F4ED51F94C0C941D3694
:10462000682F8E2F0E94AA0A0337ECE71E0709F0B5
:1046300022C3D70115968C91882309F408CE809166
:104640005304882309F47FC00E94AE0B00CE0E9461
:104650003609EACF80E00E94441810922F0280E0D1
:104660000E94480A80E197E20E943A0AF0CD409108
:10467000280220912F0220FB47F926952370809174
:10468000690180FB22F980916B0190916C0164EFCC
:1046900071E00E94A4355FEF560F550F550F550F6F
:1046A000522B60913002637070E08FE090E00E94C6
:1046B000B536CDCD81E00E945E18C9CD8FEFFBCF1E
:1046C0008AE0F9CF86EFF7CF90912A0281E089271F
:1046D0000E943609BCCD80912F02811101C087E074
:1046E0008F5F18160CF081E0883008F087E0809327
:1046F0002F02ADCD80912F02811101C087E0815042
:10470000F0CF81E080933002A2CD109230029FCD95
:1047100082E0F8CF9091690181E089270E94480AE0
:1047200096CD80916B0190916C01C2969DCF809146
:104730006B0190916C01C2978436910508F094CF7B
:1047400084E690E091CF1092D5040E94041B885714
:104750009C4E90933D0380933C0381E080935304EF
:1047600076CD011590E5190708F0B5C2F7018681ED
:10477000807F49F1C801992710925604883291052B
:1047800008F052C08E31910508F055C0049708F426
:1047900041C082E0809356044EC0003EA2E51A0755
:1047A00028F5003CB2E51B0770F40036E2E51E0771
:1047B00008F491C2003AF2E51F0728F0043B22E515
:1047C000120709F088C2D70115969C91911185C2F4
:1047D0008091D5048272F801E052F847E531F10585
:1047E00008F092C0ED50F94C0C941D36C801875763
:1047F0009C47029708F06FC2E6CFD70116968C91BE
:10480000807F09F0B7CF812F8F71823151F028F46A
:10481000823039F00E94AE0BD6CF8431A1F28631BE
:10482000C9F710925604F6CF8D32910509F4B1CF35
:1048300028F48A9779F70E94870BC5CF8C349105AD
:10484000D1F38D329240B9F3E5CF8091200480FFFF
:104850001CC0282F2E7F20932004309121044091EA
:1048600022045091230460912404709125048091C6
:104870002604909127040E94E31280916B038160CB
:1048800080936B030E94970FE2CC81608093200499
:1048900061E086950E944815DACC40E755E16AE769
:1048A00075E10E944A07D3CC4AE755E160E775E11C
:1048B000F8CF40E055E16AE075E1F3CF4AE055E119
:1048C00060E075E1EECF46EE54E163EF74E1E9CFCD
:1048D00043EF54E166EE74E1E4CF4CEC54E169ED52
:1048E00074E1DFCF49ED54E16CEC74E1DACF44E1DF
:1048F00055E16EE275E1D5CF4EE255E164E175E137
:10490000D0CF61E081E0C6CF0737BCE71B0751F18C
:104910000837ECE71E0751F1F70127813085211593
:10492000310509F448C0C9010E94E507182F292F55
:10493000F7016581368132953F7092959F70C92E3F
:10494000D12C9C3008F081C0F601E85FF84C0C9443
:104950001D3681E00E94C01443E062E081E00E94C5
:10496000931475CC81E00E94B314F6CF82E0FBCFA4
:104970000130FCE71F07E9F003302CE7120799F03C
:1049800001153CE7130741F61092D5040E94BC0BB9
:104990008FEF94E3ACE081509040A040E1F700C07D
:1049A00000000E94D8066FEF7FEF90E080E00E9449
:1049B000C1360E94CD1000811181992369F0C80190
:1049C0000E94BE11D82E682FC8010E94EB08B801C2
:1049D0008D2D0E94B011A8CFC8010E94B708D82E13
:1049E000F6CF022F0F70207F11F00295007F662313
:1049F000C9F0002369F080E2810F883010F01111B6
:104A00000BC08091D504082B0093D5040E94870B1E
:104A1000812F0E94CF0E19C080915604082B00935D
:104A20005604F4CF812F0E949D0E002371F0009553
:104A300080E2810F883010F0111115C08091D504EB
:104A400008230093D5040E94870BF8E0CF1AD10801
:104A500024E0C216D10410F40E94471060E0C701A0
:104A60000E942412F4CB809156040823009356042C
:104A7000EACF822F8F70207F203211F08295807FC5
:104A8000113061F4662329F03630F8F60E94930E57
:104A9000DCCF3530D0F60E94880ED7CF662319F0D0
:104AA0003323A1F3B5CF3323B1F3193369F4FFEF07
:104AB00027EE33E0F15020403040E1F700C0000025
:104AC000812F0E949D0EC1CF8FE19EE40197F1F7E7
:104AD000F5CF812F0E94AA0AB8CF822F837089F563
:104AE0006111B3CF312F329536953770330F330FB5
:104AF000812F8F70032E01C0880F0A94EAF7412F8F
:104B0000407114FF07C04FE050E001C0440F3A95D8
:104B1000EAF74095269526952370223069F050F4E7
:104B20003091A802213029F0842B83230E9422098E
:104B30008CCF832B842BFACF482B8091A80284271B
:104B4000F5CF8695662311F0822F8170882309F4B2
:104B50007CCF312F329536953770330F330F812F3D
:104B60008F70032E01C0880F0A94EAF7412F40711D
:104B700014FF07C04FE050E001C0440F3A95EAF738
:104B80004095269526952370223069F050F4309197
:104B90002804213029F0842B83230E948E1455CFC2
:104BA000832B842BFACF482B809128048427F5CFC0
:104BB000022F0F70662329F0802F0E94C014812FCE
:104BC00065CF812F0E94880E802F0E94B3143DCFA5
:104BD000113F61F148F4103FA9F0662399F13111BA
:104BE00017CF822F8F7126C0123F39F1133FA9F7DB
:104BF00080E0662391F22F7181E001C0880F2A9531
:104C0000EAF7CBCF662371F0353008F01ECF2F7155
:104C100081E090E001C0880F2A95EAF7909128047E
:104C20008927BBCF363008F010CFF1CF822F8F719C
:104C3000662359F20E94C01408CF822F8F71662319
:104C4000C9F3C3CF332379F0193341F49FEFA7EEB3
:104C5000B3E09150A040B040E1F730CFEFE1FEE487
:104C60003197F1F72BCF822F8F71AFCF03373CE70E
:104C7000130709F4ECCA80915304882309F4A3CDE7
:104C8000D090D5040E94041B88579C4E90933D03FE
:104C900080933C03F7018581882309F494CD8D2D01
:104CA0008D7909F0B7CD0034F2E51F0708F075CD16
:104CB000011522E5120708F086CD011530E413072F
:104CC00008F04FCD011580E2180708F096CD063E9A
:104CD000110509F478CDC8014FCD07378CE71807C7
:104CE00009F437CE0837ACE71A0709F041CE82E065
:104CF00031CECF93DF9380919D02807F09F04DC02C
:104D000080919C02882309F448C0E09135055091B8
:104D1000EC04C0919802D091970260919902709131
:104D20009A0249E05E17C9F18E2F90E0E49FF001EE
:104D30001124E351FB4F2481222391F1489FF0017C
:104D4000499FF00D1124DF01A351BB4F11962C9107
:104D500011972C1325C02C912D1322C015962C9140
:104D6000159721111DC012962D913C91261B370BD2
:104D7000283C3105A8F480919D028F70806180935A
:104D80009D02ED50FB4F80818F708061808387E9A9
:104D900092E00E947B200E94AD08DF91CF910895A0
:104DA000FC013196E770BECFA8E1B0E0EAEDF6E293
:104DB0000C94BE358C0186E0F801DE01539601901B
:104DC0000D928A95E1F7F8018481E58097E9A92E93
:104DD00092E0B92E90919B02911128C0882319F17D
:104DE000EE20F1F0C8010E94FA11F82E8823C1F0DC
:104DF00089E0F801D50101900D928A95E1F7809143
:104E00009B02813031F480919702909198020E9428
:104E1000ED110E9479268F2D6896ECE00C94DA351E
:104E2000C8010E947B20FF24F394F5CFD080C1807D
:104E300082809380F0909C022091990230919A0296
:104E4000A401421B530BFF2009F40DC1483C51053E
:104E500008F0B6C08823F9F29091980280919D02E3
:104E6000282F207F09F05FC0C9121DC090919702C2
:104E7000D91219C040919E0250919F02278130851E
:104E80004217530781F4E11048C08F70806180930E
:104E90009D0287E992E00E947B2080919D02F801AB
:104EA0008683F12CB8CFE11038C06C2D8D2D0E9477
:104EB0005B056C2D8D2D0E945B05E82E8111F1CFD5
:104EC000DB8ACC8A8B899C890E94ED11292F22953F
:104ED0002F70243058F49F70223088F0992399F075
:104EE000F8019681907F79F4FE2C95CF2A5F2F7080
:104EF000223068F0C8010E947B20EF2CF5CF992367
:104F000011F0882389F3805E883070F3F3CF803FFF
:104F100058F3815F833070F7E7CF80919D02816005
:104F200080939D02BECFC9121CC090919702D912E6
:104F300018C040919E0250919F02278130854217F0
:104F4000530779F4E1100DC08683C8010E947B20CD
:104F500089E0F801A7E9B2E001900D928A95E1F7A6
:104F60005ACFC8010E94FA11882309F459CFEE20C4
:104F700009F456CF80919D028032B8F020919702BB
:104F8000309198023B872A879D868C8690919B0260
:104F90009E871F86888B80919E0290919F029A8B9C
:104FA000898BCE010A960E947B2089E0F801A7E94F
:104FB000B2E001900D928A95E1F70E94792633CFF5
:104FC00090919D02292F207F51F487E992E00E9461
:104FD0007B2089E0F50111928A95E9F762CF882359
:104FE00009F419CF809198028C1119C08091970211
:104FF000D81215C040919E0250919F0227813085A2
:105000004217530761F4E1100AC09683C8010E9459
:105010007B2089E0F50111928A95E9F7FCCEC80161
:105020000E94FA11882309F4FBCEEE2009F4F8CE91
:1050300080919D02803208F4B8CF20919702309180
:1050400098023A8329839C828B8290919B029D8354
:105050001E828F8380919E0290919F0299878887FC
:10506000CE010196A0CF483C510598F6882309F45B
:10507000DACEFE2CEE2009F4D3CE809198028C116A
:1050800020C080919702D8121CC020919E023091BE
:105090009F02878190852817390799F490919D0286
:1050A00090FD56CF907F09F453CF80919D02868367
:1050B000903F09F44ACF982F907F905F8F70892B93
:1050C00043CFC8010E94FA1181116FCF80919D02D8
:1050D000816080939D02C8010E947B209CCEA2E14A
:1050E000B0E0E5E7F8E20C94C6350A871B872C8709
:1050F0003D874E875F87688B798B8A8BCE010A96B6
:105100000E94D42681110CC089E0FE013A96DE018E
:10511000119601900D928A95E1F78E8581110BC051
:1051200019E0809135059091EC04891333C06296A3
:10513000E4E00C94E2352091EC0430E0C9010196E2
:1051400087709927409135054817190699F099E01D
:10515000929FD001939FB00D1124A351BB4FFE012C
:10516000319601900D929A95E1F78093EC040E949C
:10517000AD08D6CF1092D5040E94BC0B1092EC045F
:105180001092350589E0E7E9F2E0DF011D928A958A
:10519000E9F7C6CF819FC001112483519B4F0E9424
:1051A000D426882321F28091350590E001968770FE
:1051B000992780933505B5CFB0E0A0E0E2EEF8E2A4
:1051C0000C94C13580915804882369F0C09157042C
:1051D000C12C8DE0D82E80915804C81748F0109249
:1051E000580410925704CDB7DEB7E9E00C94DD35D2
:1051F000BB24B394BC0EB0925704EC2EF12CCD9D81
:10520000E0011124C75ADB4F8C81882361F18F8123
:105210009885892B21F489859A85019659F408810E
:1052200019812A813B814C815D816E817F818885D6
:105230000E946F28DE9CF001DF9CF00D1124E75ADC
:10524000FB4F148210925604C1100DC0CE010E9473
:10525000FA11811108C08FE19EE40197F1F700C0B7
:105260000000CC24C394CB2DB6CF1092CC04109266
:10527000CB04109216028091CA048093C9040E9444
:1052800023070E94DC280895B0E0A0E0EAE4F9E2F8
:105290000C94B835C091C904E7E0FE2E01E010E09F
:1052A000FDE02F2EEE24E3948091CA048C1309C0F4
:1052B0000E94DC280E942307CDB7DEB7E2E10C9400
:1052C000D435D0E0FE01EE0FFF1FEF53FB4F80817E
:1052D0009181F89EF001F99EF00D1124E458FE4FE3
:1052E000248121115AC030905804A9E5B4E030E07F
:1052F00020E0412C5F01231508F04DC01B966D90F6
:105300007C901C97F501808091804FEF5FEF512CCE
:10531000C52CD12CF601EE0FFF1FE80DF91D65918C
:1053200074916616770609F4A601672B11F0539461
:10533000EFCF4F3F5407B9F1B80102C0660F771F96
:105340004A95E2F7462AA801052C02C0440F551FD2
:105350000A94E2F7415051094416150609F5229EB8
:10536000F001239EF00D1124E75AFB4FF89ED00167
:10537000F99EB00D1124A458BE4F12962D913C9168
:1053800013973087278374E0748310821182928789
:1053900081871596EC920E94F5062196C37084CF02
:1053A00014961C9214972F5F3F4F1D96A4CFAEE129
:1053B000B0E0EDEDF9E20C94B8354B8B5C8B6D8B66
:1053C0007E8B8F8B988F911110925604188A198AB0
:1053D0001A8A86E0FE017396DE011A9601900D92FC
:1053E0008A95E1F78E85882381F061E0CE010A96E7
:1053F0000E9424129C019F8520354CE7340789F4D4
:10540000992311F181E0809316020A851B852C8572
:105410003D854E855F85688979898A890E946F28D4
:10542000CBC021355CE7350729F4992369F00E9448
:105430003529EBCF22353C4739F4992329F0809167
:1054400016028111F4CFDECF6A857B8580E00E9451
:10545000B0114C01FCE7EF2EF1E0FF2E512CD12CC6
:10546000C12CAA24A394B12CB7E04B2EFE01319697
:10547000FA8FE98F33243394F701408151816624F8
:105480006A94762C60E0262F30E0F901EE0FFF1FC2
:10549000E40FF51F859194918816990609F4390156
:1054A000892B11F06F5FEFCF10E0FFEF6F167F06D3
:1054B00009F443C0F701448110911602812F411174
:1054C00080E0182F1170F701258086819F85992330
:1054D00009F4F2C0112309F4EFC0211014C09501A2
:1054E000062C01C0220F0A94EAF7822B8683809152
:1054F000540490915504C29730F422E330E0309385
:10550000550420935404C50102C0880F991F6A9561
:10551000E2F70197F70126812817190671F48091A7
:10552000CB049091CC04009709F44AC00E94F51A6C
:10553000C39708F445C0F7013482512AFFEFCF1A10
:10554000DF0A27E0E20EF11C36E1C316D10409F0B0
:1055500093CF8F85882309F40EC1552009F40BC120
:105560000E94041B9093CC048093CB048091580438
:10557000883010F591E0980F9093580499E0FE015F
:105580003A96DE01119601900D929A95E1F74DE061
:10559000849FC0011124875A9B4F29E0FE01319658
:1055A000DC0101900D922A95E1F72FEF3FEFFC010E
:1055B00032872187948683866E96E2E10C94D435F7
:1055C0008091C9046091CA04982FF0E0E0E086134E
:1055D00014C09093C904EE15FF0509F4AECF90E016
:1055E000FC01EE0FFF1FEF53FB4FD182C0820196EB
:1055F000837099278093CA04A0CF682E712CF30181
:10560000EE0FFF1FEF53FB4F20813181429ED001EF
:10561000439EB00D1124A458BE4F2D913C9111977B
:105620003E8F2D8F00E070E0212CE22DF0E0EE0F98
:10563000FF1F2D8D3E8DE20FF31F25913491211513
:105640003105E1F0F7010190F081E02DFC8FEB8F47
:1056500070E005C02417350709F4012F7F5FE72F9D
:10566000F0E0EE0FFF1F4B8D5C8DE40FF51F4591B1
:1056700054914115510571F72394D7CF0023C9F0F8
:10568000F701721508F0FD013482EE16FF0621F4D1
:105690009093C904102F51CF891305C0AE17BF07CF
:1056A00011F49F5F937093012F5F3F4F822F8370A0
:1056B0008ECFF0E0E0E0F7CF90E021101FC0950121
:1056C00002C0220F331F6A95E2F721503109821779
:1056D000930731F4442309F44CC0C6010E94F50637
:1056E000C501062C01C0880F0A94EAF7982F9095FF
:1056F000F701868189238683122D1FCFAC01062CEA
:1057000002C0559547950A94E2F7BA016170772770
:105710009C012150310982239323892B31F5672B7A
:1057200021F1F70182819381892BE1F0E98DFA8DD6
:10573000242D11922A95E9F70E94041B282F8B83B0
:105740009C8334E03D83F70182819381782F8887A1
:10575000998709811A813C8144E05E816F81892F9C
:105760000E946F28F7011582BBCFF42FF1702F2E06
:10577000B7CF212EB5CF9091C9048091CA04981754
:1057800029F00E944429511017CF3FCE0E94DC28F7
:105790001092CC041092CB040E942307F4CFA6E011
:1057A000B0E0E5EDFBE20C94C6350E94041B8C01D1
:1057B0008091A9029091AA028017910781F0198225
:1057C0001A820E94041B682F49815A81792F80E038
:1057D00090E00E94D7291093AA020093A90226966E
:1057E000E4E00C94E2351F921FB61F9211248F93B0
:1057F0009F93AF93BF938091CF04811113C0809189
:10580000D0049091D104A091D204B091D3044196D8
:10581000A11DB11D8093D0049093D104A093D20414
:10582000B093D304BF91AF919F918F911F901FBEF2
:105830001F901895CDB7DEB7A6970FB6F894DEBFC8
:105840000FBECDBF85B7806885BF85B7806885BF2F
:1058500084B7877F84BF0FB6F894A89580916000C5
:10586000886180936000109260000FBE80E890E035
:105870000FB6F89480936100909361000FBE80EAA8
:1058800097E090937102809370020E947A050E94C3
:105890001B068091E20084608093E20078948091FE
:1058A000E2048823A1F01091E9001F709091EC00B0
:1058B000892F817090FD80E8182B1092E90080916B
:1058C000E80083FD0E94C80B1F701093E90082E07E
:1058D00084BD93E095BD9AEF97BD80936E001092C2
:1058E00024031092250310922603109227030E948E
:1058F0005D12811102C00E9471110E94721080938A
:10590000000180910001882309F460C01092180200
:105910008EE1809319020E94221081110E9442346C
:10592000809100018091000194E0811190E09093BA
:10593000310384E0891B8093300384EF0E94CE07FB
:1059400085EF0E94CE0786EF0E94CE0787EF0E9468
:10595000CE0709E412E0D8018D918D018F3F11F03F
:105960000E94CE07B2E00F341B07A9F788E0EFE3EF
:10597000F3E0DF01882E1D928A94E9F7E8E2F3E074
:10598000DF011D928A95E9F70E949C15811102C0E2
:105990000E94AF1782E090E00E947F36809333032D
:1059A0000E94C21EEFE3FCE93197F1F700C000004E
:1059B0000E94C21E80913F0380FF0CC06FEF7FEFFB
:1059C00090E080E00E94C1360E94D8068EE180936C
:1059D00018029FCF83E090E00E947F360E94220948
:1059E000809128040E94EF130E942210882309F45A
:1059F000A8C180E08093490480E8809336050E9426
:105A0000FC326BE070E08BED92E00E94761288230E
:105A1000E9F18091490465E070E081FD94C186ED73
:105A200092E00E947612882389F16DE070E084ECA8
:105A300092E00E947612882349F10E94E906605A9A
:105A400075418F4F9F4F60934B0470934C0480932C
:105A50004D0490934E04E9E3F5E080E092E0DF012D
:105A60009C011D9221503040E1F7F0934007E093F4
:105A70003F078FEF9FEF909338058093370581E0C4
:105A80008093520480934F0410924A048091320311
:105A9000811176C00E949C15811104C00E94AF172D
:105AA0000E947F1588E090E00E9487364B015C01E0
:105AB00084E290E00E947F36282F30E040E050E002
:105AC00060E070E080E090E000E20E942A36282941
:105AD00039294A295B2920932004309321044093DB
