:100000000C9409050C9426050C9426050C94FE33DB
:100010000C9426050C9426050C9426050C942605B4
:100020000C9426050C9426050C94CF190C948B196E
:100030000C94722B0C9426050C9426050C94260522
:100040000C9426050C9426050C9426050C94260584
:100050000C9426050C94A81A0C9426050C942605DD
:100060000C9426050C9426050C9426050C94260564
:100070000C9426050C9426050C9426050C94260554
:100080000C9426050C9426050C9426050C94260544
:100090000C9426050C9426050C9426050C94260534
:1000A0000C9426050C9426050C9426050E000F00D2
:1000B00000000D000E0000001000360000000C00D3
:1000C0001800000004001600000005010902A1014B
:1000D00085020901A100050919012908150025015A
:1000E0009508750181020501093009311581257FC7
:1000F00095027508810609381581257F95017508D7
:100100008106050C0A38021581257F950175088145
:1001100006C0C00660FF0961A1010962150026FF43
:10012000009520750881020963150026FF009520BF
:1001300075089102C005010906A101050719E0290A
:10014000E715002501950875018102950175088163
:10015000010507190029FF150026FF0095067508FF
:10016000810005081901290515002501950575016E
:100170009102950175039101C0000000000000008C
:10018000000000000000000000000000000000006F
:10019000000000000000000000000000007E0F00D2
:1001A000D4FFFFFFC700000078000000000000003F
:1001B000002A2B28000000000000000000000000C2
:1001C0000000000029000000002C1E342021222401
:1001D000342627252E362D3738271E1F202122238F
:1001E0002425263333362E37381F04050607080921
:1001F0000A0B0C0D0E0F10111213141516171819E7
:100200001A1B1C1D2F3130232D3504050607080944
:100210000A0B0C0D0E0F10111213141516171819C6
:100220001A1B1C1D2F3130354C6162636465666793
:1002300068696A6B6C6D6E6F7071727374757677C6
:1002400078797A313233343536373839305245425D
:10025000545F2D3D5B5D5C233B27602C2E2F00DA25
:100260000281FFD9F1DB20A4A62EAF00A0C0D300ED
:1002700000A1C8D30000AED580A81F408D14200077
:100280000001010101010101010102020202020259
:10029000020202030303030303030304040404042C
:1002A00004040505050505060606060607070707F3
:1002B0000708080808090909090A0A0A0B0B0B0CA8
:1002C0000C0C0D0D0D0E0E0E0F0F0F101011111145
:1002D00012121313141415151616171718181919C6
:1002E0001A1A1B1B1C1D1D1E1E1F2020212222232B
:1002F0002424252626272829292A2B2C2D2D2E2F6C
:1003000030313232333435363738393A3B3C3D3E82
:100310003F404142434445464748494A4C4D4E4F71
:1003200050515354555658595A5B5D5E5F61626433
:10033000656668696B6C6D6F7072737577787A7BC0
:100340007D7E8082838587888A8C8E8F9193959617
:10035000989A9C9EA0A2A3A5A7A9ABADAFB1B3B537
:10036000B7BABCBEC0C2C4C6C9CBCDCFD1D4D6D813
:10037000DBDDDFE2E4E7E9EBEEF0F3F5F8FAFDFFB1
:1003800000AF00AE202000BABB004B657920B10061
:1003900020C0C100BEBF00484F005654003030207E
:1003A0000020202020B1BCBD0042616C6CB100B4C3
:1003B000B500B2B300C2C3004CB6B772B100202082
:1003C00000290014001A000800150017002B000473
:1003D000001600070009000A00E1001D001B0006CE
:1003E00000190005000000E200E30091212C41907B
:1003F000434C00130012000C0018001C00240233B0
:10040000000F000E000D000B00870038003700368B
:10041000001000110000004600E600913128422A39
:10042000000F7E3A003B003C003D003E000D7E0187
:10043000000100520028004C000E7E0100500051C7
:10044000004F002A0000000100010001000100012E
:1004500000440043004200410040003F004500D3FB
:1004600000D2005200D1004B00010001004F0051AA
:100470000050004E000000010001000100010001D9
:10048000000100340224002500260025020100336B
:1004900002210022002300300001002D021E001F57
:1004A0000020003002000027003700010001000199
:1004B00000010021022F0023021E0226021F023427
:1004C0000020022E022D003200890238022F022E57
:1004D0000087023202000001000100010001004C0F
:1004E0000020780A7E0B7E0C7E010001002178231B
:1004F00078257827780100087E22782478267828C5
:10050000780100097E0000007C007E0100010001EE
:100510000030782F782E782D782C782B78010001F8
:10052000003478337832783178017E0100047E021D
:100530007E037E057E0000007C007E01000100013C
:1005400000010001000100010001000100010001A3
:100550000001000100010001000100010001000193
:100560000001000100000001000100010001000184
:100570000001000100010001000100010001000173
:100580000001000100010001000100010001000163
:100590000001000100000001000100010001000154
:1005A0000009025B00030100A0FA09040000010336
:1005B0000101000921110100012244000705810306
:1005C00008000109040100020300000009211101D3
:1005D0000001222200070582032000010705030312
:1005E000200001090402000103000000092111019B
:1005F00000012249000705840320000112010002C6
:100600000000000857590004000101020001140312
:100610004B0065007900620061006C006C003400E2
:1006200034000000100359006F0077006B00650074
:1006300065007300000004030904000000000000CE
:1006400000002F000000000700070000123F123FCB
:100650001200242A7F2A120036091E241B001826A5
:1006600029122800000007000000001E21400000A1
:100670000040211E000014083E08140008083E082F
:10068000080000003070000008080808080000009A
:100690003030000020100C0201001E2925231E000E
:1006A00000223F2000002231292926001221252581
:1006B0001A001814123F10001725252518001E25B2
:1006C000252518000131090503001A2525251A00E2
:1006D000062929291E00000033330000000033736F
:1006E00000000814142222001414141414002222EE
:1006F000141408000201290502003E59555D3E0010
:100700003816111638003F2525251A001E212121F3
:1007100012003F2121211E003F25252521003F09F0
:10072000090901001E2121291A003F0404043F0089
:1007300000213F210000102020201F003F040C1248
:1007400021003F20202020003F0204023F003F0202
:100750000C103F001E2121211E003F09090906003F
:100760001E2129112E003F090919260012252529CD
:10077000120001013F0101001F2020201F00071867
:10078000201807000F300C300F0021120C1221002E
:10079000030438040300312925232100007F41414F
:1007A000000001020C1020000041417F0000040203
:1007B00001020400404040404000000103040000EA
:1007C000102A2A2A3C003F2422221C001C2222221A
:1007D00024001C2222243F001C2A2A2A0C00000488
:1007E0003E0505000C5252543E003F0804043800F8
:1007F00000003D0000002040403D00003F0808147C
:10080000220000013F2000003E023C023C003E046A
:1008100002023C001C2222221C007E1422221C0008
:100820001C2222147E003E0402020400242A2A2AEA
:10083000120000021F2200001E2020103E00061899
:10084000201806000E300C300E002214081422006E
:100850000E5050483E0022322A26220008087741D6
:10086000410000007F0000004141770808001804A3
:1008700008100C0000000000000000000000000054
:10088000000000000000C0F0F88C86C6E7FFFFFF04
:10089000FFFFFFFEFCFCF8E080000000F0F0F0003D
:1008A00000C0E0F0707000000000000000000000D8
:1008B000000000000000000000000000F8F8F80050
:1008C0000000000000000000000000000000000028
:1008D0000000F8F8F80000F8F8F8000000000080C8
:1008E000E07078686C64C7C7C7C7C7C7E73F1F0F0A
:1008F0003FFFFFFFFFFFFF3F0F000000FFFFFF1E56
:100900003FFFF3E1800000F8FCFE3636363EBCB80F
:10091000000E3EFEF080F0FE3E0E0000FFFFFF06E0
:100920000606FEFEFC7000E6F6F63636FEFEFC001D
:100930000000FFFFFF0000FFFFFF000000003C7F02
:100940006360E0C0C0C0C0C0C0C0C0FFFFC06030B6
:10095000180F03030301000000000000030303005D
:100960000000030303030001030303030303030164
:10097000007070393F1F07010000000001030303EE
:100980000303030301000001030303030303010046
:100990000000030303000003030300101010000015
:1009A0000000550000003E635D5D637F417B774141
:1009B0003E00001C22221C003E0A003E0A00322A91
:1009C0003C0026281E001C2A2C0000003F0936008F
:1009D00000001E212100000000003F0837001E21FA
:1009E00021001E2121003F090600213F2100222570
:1009F00019001E2121003F0936003F211E00213F22
:100A000021000F300F003E093E003F063F003F200F
:100A1000200011241FBECFEFDAE0DEBFCDBF11E012
:100A2000A0E0B1E0EAE3FDE602C005900D92AA3F26
:100A3000B107D9F726E0AAEFB1E001C01D92A43CAE
:100A4000B207E1F70E94992B0C944D360C940000EC
:100A5000482F2091B60490916D0459E0291302C0EB
:100A600080E0089530E0529FF001539FF00D112473
:100A7000E259FB4F8181681306C08081481303C08F
:100A800085818111EECF2F5F3F4F2770E7CFE8EDD3
:100A9000F0E080818E7F80831092E2001092DA0075
:100AA0001092E100A0EEB0E08C9181608C93808187
:100AB0008F77808319BCA7EDB0E08C918E7F8C93EB
:100AC00080818F7E80831092550408952091E400E8
:100AD0003091E50095E6A9012091EC00822F81700C
:100AE00020FF06C08091E80080FF06C080E00895E6
:100AF0002091E80022FD1AC080916304882389F0C8
:100B0000853089F08091EB0085FD0FC02091E400D5
:100B10003091E50042175307F9F29150E1F684E075
:100B2000089582E0089583E0089581E0089580911A
:100B3000650487FF13C08091E80082FF06C08091A2
:100B4000E8008B778093E80004C0809163048111F2
:100B5000F2CF0895809163048823D9F38091E8004F
:100B600080FFF8CF8091E8008E77ECCF982F90939C
:100B7000E900242F762F50E0891731F07091EC00B6
:100B80002091ED005091F00021FD07C09F5F97304C
:100B900071F78093E90081E008953091EB003E7F8A
:100BA0003093EB003091ED003D7F3093ED003091BC
:100BB000EB0031603093EB007093EC002093ED007C
:100BC0005093F0002091EE0027FDE0CF80E00895E3
:100BD000B0E0A0E0EEEEF5E00C943835C8EDD0E0E2
:100BE00088818F7E8883E7EDF0E08081816080835B
:100BF00084E082BF81E08093550488818E7F888362
:100C000002EE10E0F80110821092DA0081EEC82E98
:100C1000D12CF601108288818F7788838881806843
:100C2000888388818F7D888319BC10926304109219
:100C30006404109262041092610490EEE92EF12C8B
:100C4000F70180818B7F808388818160888342E087
:100C500060E080E00E94B605F60180818E7F80838F
:100C6000F801808181608083808188608083F701C2
:100C700080818E7F8083888180618883CDB7DEB755
:100C8000E8E00C945435FC0180916B0490916C0465
:100C900086179707A0F06115710529F49091E80077
:100CA0009E779093E80090E06115710551F49111E1
:100CB00008C08091E80082FF34C080E00895BC0144
:100CC000F2CF809163048823C1F18530C1F1809116
:100CD000E80083FD30C08091E80082FDEACF80917A
:100CE000E80080FFE1CF8091F3002091F200382FDF
:100CF0006115710519F02830310558F091E0283060
:100D0000310509F090E02091E8002E772093E8006B
:100D1000CBCF81918093F100615071092F5F3F4FDC
:100D2000E7CF80916304882341F0853041F08091C2
:100D3000E80083FFBECF81E0089582E0089583E05C
:100D40000895089580915804089587E797E7909350
:100D500001088093000888E19AE00FB6F894A895FE
:100D6000809360000FBE90936000FFCF2FB7F89480
:100D700060915104709152048091530490915404F5
:100D80002FBF0895DC0160914A0480914B04962F97
:100D9000891301C00895292F30E0F901EE0FFF1FDC
:100DA000EE5BFB4F408151814A175B07A1F487E05E
:100DB0008A9FA0018B9F500D112444585E4F81E003
:100DC000FA0184839613E6CF2F5F3F4F23703327BA
:100DD00020934A0408952F5F3F4F922F9370D8CFEE
:100DE0001092D6031092D503ECE7F1E085818111D2
:100DF00002C014821682379681E0EF39F807B1F706
:100E00000895FC01680F791F8FEF91E321918227EC
:100E100028E030E087FF09C0880F89272150310979
:100E2000C9F7E617F70791F70895880FF7CFFA018A
:100E3000811101C0FB01099508958091A203982FAB
:100E40009E7F71F48091A203817082608093A203DF
:100E50008091A503873918F086E98093A50308954A
:100E6000843080F7F5CF90917401882341F09F5F23
:100E70009093740110927101109270010895915035
:100E8000F7CFE9E6F1E0828591E089278287108635
:100E90001782089580917201811114C080917401AC
:100EA000811110C08091730181110CC09091EA02F0
:100EB00096959695969581E020916A01921380E02F
:100EC0008170089581E0FCCFCF93DF93E6EAF1E0F3
:100ED00083819481A581B681E90188839983AA835E
:100EE000BB831482138216821582DF91CF910895FD
:100EF00080E0089563E070E087E592E00E940107DA
:100F000090915602891318C0E0915702EC30A4F476
:100F100088E0E802F0011124EF5FFE4F0680F781C0
:100F2000E02D309749F02AE732E0409159026AE516
:100F300072E08091580209950895E1E4F2E0878912
:100F400080933101808D809344010895F894E82FB7
:100F5000E295EF70F0E031A1282F2F7081E090E052
:100F600001C0880F2A95EAF7982F9095932391A3B3
:100F700092A1892B82A378940895811522E5920786
:100F800080F5811530E5930708F0ABC0883E9105E8
:100F9000A0F4803E910558F4853A910548F48430D8
:100FA000910528F48130910511F090E080E00895DA
:100FB0008D3C9105D0F390650895811540E4940728
:100FC00008F044C0811550E2950708F0A3C08115D0
:100FD00061E0960750F320E0392FA901482BCA01A0
:100FE0000895803872E59707A8F4803622E59207C5
:100FF00008F05AC0803432E5930708F03FC08032D1
:1010000042E5940730F18F7190E0982F8827816F27
:10101000906A0895803C52E5950760F4282F2F715F
:10102000803A924508F456C0822F90E0982F882786
:1010300090620895803E72E5970708F0B6CF982F2A
:10104000882788279F71806F906A08959F70906AA3
:101050000895282F2695269550E2259F900111246A
:10106000837041E050E0BA0102C0660F771F8A9595
:10107000E2F7CB01822B932B9D680895282F2695AC
:101080002695277070E2279F90011124837041E01C
:1010900050E0BA0102C0660F771F8A95E2F7CB01D4
:1010A000822B932B9C680895282F269526952770D0
:1010B00070E2279F90011124837041E050E0BA0153
:1010C00002C0660F771F8A95E2F7CB01822B932B24
:1010D0009A680895822F90E0982F8827846F906AED
:1010E00008959C0195E0369527959A95E1F72F7024
:1010F00030E0322F2227482F4F7150E084FF05C087
:1011000084E0440F551F8A95E1F7C901842B952B84
:10111000906908959F718CCF809590915604982383
:101120009093560408958091B60490916D0498139D
:1011300001C008958F5F8770FACF292F983078F516
:10114000863068F590E036E0239F800D911D1124D4
:10115000682F677023E0969587952A95E1F7FC0143
:10116000EE0FFF1FE80FF91FE15FFD4F50E040E079
:1011700080E0219130E0062E02C0369527950A9432
:10118000E2F721703327042E01C0220F0A94EAF7F8
:10119000822B4F5F5F4F4330510559F7089580E030
:1011A0000895292F983098F5863088F590E036E03C
:1011B000239F800D911D1124282F277041E001C02D
:1011C000440F2A95EAF723E0969587952A95E1F74B
:1011D000FC01EE0FFF1FE80FF91FE15FFD4F30E04C
:1011E00020E070E05191DF011197CB01022E02C087
:1011F000969587950A94E2F78170819585278423D7
:1012000085278C932F5F3F4F2330310559F7089581
:10121000809333020895982F92959F7011F0892F33
:1012200094E0282F2695269511F09E5F822F8695B3
:1012300009F09F5F892F0895CF93C82F8091B30144
:101240008C1751F00E94B6066093B4017093B501FB
:101250008093B6019093B701C093B301CF910895E5
:10126000B0E0A0E0E6E3F9E00C9438358C01EB0146
:10127000E091B801E11101C0E7E0E150FF0B81E02E
:1012800090E06C010E2E02C0CC0CDD1C0A94E2F73B
:10129000D801ED90FC90C701B6010E947F359B01FB
:1012A000CB010E2E02C0880F991F0A94E2F7E81AAC
:1012B000F90AD8011196FC92EE921296ED90FC90EC
:1012C000C701B6010E947F35CB0102C0880F991F6C
:1012D000EA95E2F7E81AF90AF801F382E282613846
:1012E000FFEF7F07F4F060387105ECF46D8321386F
:1012F0008FEF3807D4F020383105CCF4822F819558
:101300008C83442319F061956D832C838091B901FE
:10131000882379F0813079F0CDB7DEB7E8E00C941E
:10132000543561E8E3CF6FE7E1CF21E8E7CF2FE75E
:10133000E5CF1D82F1CF1C82EFCFFC01DB012281C2
:10134000338191E821388FEF38072CF0922F203825
:1013500031050CF09FE712969C9312972081318102
:1013600021388FEF3807A4F0203831059CF413960C
:101370002C931397442339F0919512969C931297CE
:10138000219513962C931182108213821282089554
:1013900021E8EDCF2FE7EBCF8F708A3010F4805D1E
:1013A0000895895A0895382F20E287FF02C03195A9
:1013B0002DE24AE0832F642F0E947135905D909357
:1013C000070281110BC02093060220E22093050240
:1013D00020E22093040284E092E00895642F0E94AA
:1013E0007135905D90930602832F64E60E947135FB
:1013F000882361F3805D80930502EBCF9C01860F0B
:10140000971F37FD07C077FD04C097FF02C08FEF1D
:101410009FE7089577FFFDCF97FDFBCF80E090E831
:101420000895E2E7F1E083E0DF011D928A95E9F794
:10143000EEE6F1E084E0DF011D928A95E9F7089578
:1014400020916B0130916C012817390731F090938E
:101450006C0180936B010E94110A089590916901BB
:10146000981721F0809369010E94110A0895CF9383
:101470009091E5028091DE02981323C08091E602EC
:10148000882321F09091DF0289131BC08091E7022D
:10149000882321F09091E002891313C08091E90222
:1014A000882321F09091E20289130BC09091E80209
:1014B000992329F081E02091E102291303C080E003
:1014C00001C081E0C82FC17080FF0FC0E0914E04C1
:1014D000F0914F04309749F082E08093E402048059
:1014E000F581E02D84EE92E009959091E50286E089
:1014F000E4EEF2E0DF01282F1D922A95E9F79093A0
:10150000E502ADEDB2E001900D928A95E1F781E040
:10151000C11103C0911101C080E08170CF91089585
:101520002FE2280F283078F481E090E001C0880F86
:101530002A95EAF72091E502662331F0822B809309
:10154000E5020E94370A089580958223F8CFCF9351
:10155000DF93282F81E02A3019F02D3031F480E01C
:101560000E943B0BDF91CF9108958091C00690912E
:10157000C10636E0FC01AAEBB6E001900D923A9567
:10158000E1F730EE320F343A08F458C026E0FC019F
:1015900011922A95E9F7C091C006D091C10646E0A4
:1015A00050E0BE018AEB96E00E94DF359E012A5B87
:1015B0003440892B41F1C90145E0969587954A95BC
:1015C000E1F741E050E0BA0102C0660F771F8A954B
:1015D000E2F7CB016091B8047091B904862B972B88
:1015E000B9016B5F7F4FE5E076956795EA95E1F786
:1015F00002C0440F551F6A95E2F7842B952B9093F8
:10160000B9048093B8042A5F3F4F4091B704642F18
:1016100070E0C9010E941A35481B463010F4240FAF
:10162000311D211572E0370710F030E020E026541C
:101630003B4F3093C1062093C00694CF2052330B0A
:1016400046E0429FB001439F700D1124665C794FC4
:1016500046E050E00E94D6359ECFCF93DF93EC0159
:10166000FE018491811103C0DF91CF9108950E9402
:10167000A70A2196F5CFCF93382FE091C006F091BD
:10168000C106EA5BF4402091B704622F70E0CF01FD
:101690000E941A35281B822F332361F066E00E94D6
:1016A0006535C82FC15010F4CF91089580E20E9493
:1016B000A70AF8CF9F01280F311D2115324018F0DD
:1016C00080E0F0E0E0E08E0F9F2F911D86549B4F4D
:1016D0009093C1068093C006E7CF80915604909105
:1016E000D703892B8093FC0190913202992391F0CA
:1016F000892B8093FC0120E08EEF91E0FC01319179
:10170000CF0131112F5FF2E084309F07B9F721112B
:101710001092320248E050E06AE272E08CEF91E011
:101720000E94DF35892BA9F088E0ECEFF1E0AAE216
:10173000B2E001900D928A95E1F7E0914E04F091AC
:101740004F04309731F00280F381E02D8CEF91E06F
:1017500009950895EEEFF1E086E0DF011D928A958C
:10176000E9F71092D7030E946D0B0895AAE2B0E04A
:10177000ECEBFBE00C943D3585E694E02091F10024
:10178000DC012D93CD01B4E08D369B07B9F7809134
:101790006604833009F472C0B8F4813009F449C09A
:1017A000823009F4B5C08091E80083FF8DC280913A
:1017B0006504909166049A3008F086C2E92FF0E043
:1017C000E15BF94C0C9493358A3009F490C08B306E
:1017D00009F471C0893039F780916504813219F7B5
:1017E0008091690490916A04009711F00297D9F6EC
:1017F0008091E800877F8093E8008091E80082FF75
:1018000038C09091F3008091F200029731F48091FA
:10181000F100813011F0863021F48091F100809345
:1018200058048091E8008B778093E8000E94970528
:10183000BACF80916504813A09F0B5CF8091E80074
:10184000877F8093E8008091690490916A04892BD6
:1018500061F468E089E594E070E00E9443068091BD
:10186000E8008B778093E8009ECF60E090E080E016
:10187000F3CF809163048111C0CF95CF809165042F
:10188000813A09F090CF8091690490916A04892B84
:1018900009F089CF8091E800877F8093E8008091EC
:1018A000E80080FFFCCF8091A0018093F10080913F
:1018B000E8008E77B9CF80916504813209F073CF4B
:1018C0008091690490916A04892B09F06CCF809112
:1018D000E800877F8093E8000E9497058091670465
:1018E0008093A001109256040E94AA0B5CCF8091B5
:1018F0006504813209F057CF8091E800877F80939B
:10190000E8000E94970580916804809357044BCFAC
:1019100080916504813A09F046CF8091E800877F85
:101920008093E8008091E80080FFFCCF809157040D
:10193000BCCF803899F0823809F0C6C18091690423
:101940008F70873008F0C0C18093E9008091EB0070
:1019500085FB882780F91092E90006C08091610418
:1019600090916204911182609091E800977F90932A
:10197000E8008093F1001092F1008091E8008E77EA
:101980009FC1882309F48DC1823009F09DC18091E7
:101990006704811190C1809169048F702FEF280F27
:1019A000263008F091C18093E9002091EB0020FFE0
:1019B00082C1933031F48091EB0080628093EB0020
:1019C0007AC19091EB0090619093EB0021E030E0C0
:1019D00001C0220F8A95EAF72093EA001092EA00EC
:1019E0008091EB008860EACF81116EC1109167048D
:1019F0001F778091E3008078812B8093E3008091B2
:101A0000E800877F8093E8000E9497058091E800B6
:101A100080FFFCCF8091E30080688093E30082E048
:101A2000111183E0809363044FC18058823008F025
:101A30004BC120916704309168042C3DE3E03E07E0
:101A4000A1F583E08A838AE289834FB7F894DE01A7
:101A5000139620E03EE051E2E32FF0E05093570070
:101A6000E49120FF03C0E295EF703F5FEF708E2F8F
:101A700090E0EA30C0F0C7968D939D932F5F24319C
:101A800059F74FBF8091E800877F8093E8006AE2B2
:101A900070E0CE0101960E9443068091E8008B77AA
:101AA0008093E80011C1C096E7CF809169049091BE
:101AB0006A04432F55274330510509F44AC078F58D
:101AC0004130510509F47AC08BE590E0E1EAF5E098
:101AD0004230510509F0F8C02091E800277F20939B
:101AE000E80020916B0430916C048217930708F48E
:101AF0009C0140E02115310509F065C0411163C02A
:101B00008091E80082FDC9CF80916304882329F287
:101B1000853019F28091E80083FFF2CFBECF4132C9
:101B2000510509F43CC04232510509F0CDC0833063
:101B3000910508F0C9C0FC01EE0FFF1FE351FE4FF5
:101B40000190F081E02D86519E4FDC018C9190E058
:101B50001AC0332721303105D1F02115310561F04C
:101B60002230310509F0B0C0EEE0F6E0E4918E2FAE
:101B700090E0EEE0F6E007C0E6E3F6E0E4918E2FB9
:101B800090E0E6E3F6E0009709F49EC0A5CFE4E21A
:101B9000F6E0E4918E2F90E0E4E2F6E0F4CF8330BB
:101BA000910508F091C0880F991FFC01ED50FE4F80
:101BB0000190F081E02D89E090E08ECF82E190E00D
:101BC000ECEFF5E089CF80916304882309F465CFB9
:101BD000853009F462CF8091E80083FD5ECF80916B
:101BE000E80082FD8DCF8091E80080FF83CF909147
:101BF000F3008091F2002115310519F0883091052C
:101C000050F041E0089709F040E08091E8008E77BD
:101C10008093E8006FCF44914093F10031962150BA
:101C200031090196E8CF803809F04EC08091E80074
:101C3000877F8093E800809164048093F1009DCEBB
:101C4000811142C0109167041230F0F58091E800D4
:101C5000877F8093E800109364040E949705112306
:101C600011F084E005C08091E30087FDFACF81E0A8
:101C70008093630442E061EC81E00E94B60542E299
:101C800061EC84E00E94B60542E261EC82E00E94D1
:101C9000B60542E260EC83E00E94B60580916304E1
:101CA00013C080916704813079F481E0933009F0AA
:101CB00080E0809362041092E9008091E800877FC1
:101CC0008093E8000E9497058091E80083FF0AC096
:101CD0008091E800877F8093E8008091EB0080622C
:101CE0008093EB00AA96E3E00C945935882321F009
:101CF0000E948C080E946D0B0895882339F0909102
:101D00005604982B909356040E946D0B08958823D7
:101D100049F19CEF980F913A80F4EEEFF1E024E066
:101D200032E09191891303C0DF0111971C922E17A5
:101D30003F07B9F70E946D0B089590E2980F983015
:101D400050F4877091E001C0990F8A95EAF7892FC6
:101D50000E948C08EFCF93E3980F933118F460E062
:101D60000E94900A08950F931F93CF93C82F882342
:101D700041F18CEF8C0F813AB0F50EEF11E084E069
:101D800092E0F8012191C21701F18E179F07D1F758
:101D9000EFEF80E0D8019D918D01C91781F0EF3FF1
:101DA00019F4911101C0E82F8F5F863099F7EF3F4A
:101DB00031F00E2E000CFF0BE450FE4FC2830E9448
:101DC0006D0BCF911F910F910895EEEFF1E02191EE
:101DD000C21303C0DF0111971C928E179F07B9F73A
:101DE0000E946D0BD5CF80E28C0F883068F4C770ED
:101DF00021E030E001C0220FCA95EAF78091560435
:101E0000822B80935604DBCF83E38C0F8331C8F69B
:101E100061E08C2F0E94900AD4CF0F931F93CF9331
:101E2000DF93EC01FC0101900020E9F78F010150E4
:101E30001109C017D10728F0DF91CF911F910F91A1
:101E4000089589910E94A70AF4CF0F931F93CF930F
:101E5000DF938B01EA0190916304943061F58093E4
:101E6000E9008FEF9091E800815095FD06C095ED57
:101E70009A95F1F700008111F5CF8091E80085FF78
:101E80001AC00E946605811111C08091E80085FD8D
:101E900006C08091E8008E778093E800F2CFF801C9
:101EA00081918F018093F100219779F78091E8006B
:101EB0008E778093E800DF91CF911F910F91089565
:101EC00046E050E0BC0184E00E94250F0895CF93C6
:101ED000DF93EC0148E050E0BC0181E00E94250F57
:101EE00088E0FE01A9E5B4E001900D928A95E1F742
:101EF000DF91CF9108956091A2018091A20380FFAC
:101F000020C08091A10143E0849FC001112482512F
:101F10009D4F539A2BB1277F3BB138605FB7F89440
:101F2000FC01649FE00DF11D1124BF0168177907C2
:101F3000D1F45FBF8FE594E00197F1F700C0000096
:101F400008958091A3019091A40123E0829FF00164
:101F50001124E251FD4F8917A0F6118210821282DE
:101F60008F5F3396F8CFFC014191CF01E8E03BB998
:101F7000000000C047FF2BB9440F000000C000C0A4
:101F800000C02BB900C0EA9591F7D0CFE2EAF3E0A8
:101F900080818E7F8083EBEEF2E08281816082839C
:101FA0000E947B0F0895B0E0A0E0E9EDFFE00C9403
:101FB00036357C015B016A018091AE0201E010E0E0
:101FC0008A3010F40AE010E0C1E0D0E0B501C701AA
:101FD000F6010995811104C021960C171D072CF4F8
:101FE000CDB7DEB7EAE00C945235CC9F9001CD9F7F
:101FF000300D300D112490E080E045E34A95F1F773
:102000000000019682179307C1F7E0CF809140024C
:10201000811119C088EC90E02091E30027FD10C0E9
:10202000EFE3FCE93197F1F700C000000197A1F759
:1020300082E0809340020E9447051092630403C02F
:1020400081E08093400281E090914002913011F054
:1020500080E0089508950E940610882359F0E091C9
:102060004E04F0914F04309729F00190F081E02D5B
:102070000995089580E008950F931F930E9406101C
:10208000882329F00E94B6061F910F9108950E949F
:10209000B6060091AF021091B0022091B1023091CA
:1020A000B202600F711F821F931FEECF54985C9A8B
:1020B000879A8F9885E08A95F1F7000089B1879813
:1020C0008F9A90EA9A95F1F790E024E0959587959C
:1020D0002A95E1F78095909581700895CF93DF93CD
:1020E0008091A601CEE18111CDE18091A701D0E0E0
:1020F000882329F08091A801DEE18111DDE10E94B1
:10210000561081110FC08D2F8093A101C093A201A1
:10211000CD0F1092A301C093A401C093A501DF913C
:10212000CF91089580E0F0CF8091A601F9018083DE
:102130000E946E1008951F93CF93DF93182FEB0129
:102140000E94B30E8FE99FE00197F1F700C00000F5
:102150002197C1F7812F0E94870EDF91CF911F91A8
:102160000895109256040E94AA0B2FEF84E39CE07E
:10217000215080409040E1F700C0000088E19AE0E3
:102180000FB6F894A895809360000FBE90936000FE
:10219000FFCFCF93DF93C9E0D2E060E0CE010E9491
:1021A00019362196C11584E0D807B9F7DF91CF9190
:1021B00008951F93CF93DF93122F8530E0F468309A
:1021C000D0F44630C0F4C42FD0E0CC0FDD1F9CE02B
:1021D000699FC00DD11D112490E6899FC00DD11DAE
:1021E0001124632FCE0189960E941936612FCE01EA
:1021F0008A960E941936DF91CF911F910895AF9270
:10220000BF92CF92DF92EF92FF921F93CF93DF9313
:1022100081ECC82E83E0D82ED0E07601C0E014C057
:10222000F50125913491412F6C2F8D2F0E94D910EB
:1022300082E0A80EB11C1F5F163091F78CE0E80E0B
:10224000F11CCF5FC83019F0570110E0E9CFDF5F14
:1022500080E6C80ED11CD53001F7DF91CF911F91D8
:10226000FF90EF90DF90CF90BF90AF90089588E2FD
:1022700090E00E9419360895CF93C82F6FEF811117
:1022800066E285E290E00E9419366FEFC11167E0C7
:1022900086E290E00E9419366FEFC11164E187E297
:1022A00090E00E941936CF91089580E00E943C1181
:1022B00060E070E0CB010E9437110E94FF100E9485
:1022C000C91081E00E943C1108950F931F93CF9392
:1022D000DF93853030F5683020F5463010F5C42F97
:1022E000D0E0CC0FDD1F2CE0629FC00DD11D11246A
:1022F00030E6839FC00DD11D1124CE0189960E9426
:10230000F535082F10E0102F0027CE018A960E9485
:10231000F5359801282BC901DF91CF911F910F91BD
:10232000089590E080E0F8CF462F783040F4663092
:1023300030F4853020F4672F0E946511089590E0F5
:1023400080E00895CF92DF92FF920F931F93CF9377
:10235000DF936C010091AA0380913302082BC4E043
:10236000D0E010E0FC2EC8010C2E02C09595879598
:102370000A94E2F780FD0CC02197A0F7F12C8F2D75
:10238000DF91CF911F910F91FF90DF90CF90089533
:10239000B6018C2F0E9494110E94BD07019761F332
:1023A000EECFCF93DF93EC010E94A211BE010E94F9
:1023B00094110E94BD07DF91CF910895FC018481A3
:1023C0008823F9F087819085009791F00E94BD07DE
:1023D00092959F709630B9F080F4925F9F70923022
:1023E00080F4803F19F058F4883E58F481E0089555
:1023F000808191810E94D111EBCF9A5FEFCF843F12
:10240000A9F380E00895883E88F3813FD1F7EECFAD
:10241000A6E0B0E0EEE0F2E10C943D359C01FC0159
:10242000878190850097E1F486E0DE0111960190A6
:102430000D928A95E1F7F901258189819A812223FC
:1024400099F0662389F00E94A211182F682F8981C4
:102450009A810E94D10869817A81812F0E9494110A
:102460002696E3E00C9459350E949D08182FF3CF6F
:1024700088E290E00E94F535682F70E090E080E0FF
:10248000089585E290E00E94F535863289F486E26F
:1024900090E00E94F535873059F487E290E00E9481
:1024A000F53591E0843109F090E0892F817008952D
:1024B00080E0FCCFB0E0A0E0E0E6F2E10C9438353B
:1024C0006C017B0164E670E088E70E9478328C0141
:1024D000E601EC0CFD1C17FD0BC0FE01849164E6C7
:1024E00070E00E94E4328C012196CE15DF0599F749
:1024F0000E945A3381E00115110509F080E0CDB743
:10250000DEB7E8E00C9454358091D1039091D40368
:10251000911103C091E089270895882369F062E052
:1025200070E082E893E00E945A12811103C080910A
:10253000D10308951092D1038091D103EBCFCF93B3
:10254000C091D1038091D4038823D1F00E94B606B4
:10255000605A75418F4F9F4F6093CD037093CE03A8
:102560008093CF039093D003C11108C062E070E064
:1025700080E893E00E945A12811105C0C091D103F6
:102580008C2FCF91089581E08093D103F7CFB0E0F5
:10259000A0E0EDECF2E10C94343549015A016B01F5
:1025A0007C010E941D078401A4016A2D7B2D88E017
:1025B00090E00E942B3694014A2D5B2DB601C70195
:1025C00000E20E94BB35622F84E290E00E9419363F
:1025D000CDB7DEB7ECE00C945035B0E0A0E0E3EF0F
:1025E000F2E10C943435182FC62FD42F822E00918F
:1025F000A20300FF50C08091A303811308C0809103
:10260000A403861304C08091A503841729F0809148
:10261000ED0282608093ED02E02FE695F0E0E0525B
:10262000FE4F80818093EB02802F8E7F8230E9F411
:10263000ED2FD73908F0E6E9F0E0E058FD4FC11181
:102640002FC02491F22FE22F00FF0FC08091A30131
:102650009091A40133E0839FD0011124A251BD4F7A
:10266000891708F492C00E947B0F1093A303C093B4
:10267000A403D093A503882071F02091A203609158
:10268000A6037091A703312FAE018091A80390910A
:10269000A9030E94C712CDB7DEB7ECE00C94503509
:1026A000EC2EF12CE4919E2ECE2ED12C26E0129F02
:1026B000C00111242FEF30E0B9010E941A35812F9B
:1026C00090E0880F991FF5E5F69FA001F79F500D48
:1026D0001124841B950BB82EBB0CB80EA9014E1902
:1026E0005F094C9DC0014D9D900D5C9D900D112486
:1026F000F92FCB9DA0011124452F5527D901A41BEB
:10270000B50BAC9DA001AD9D500DBC9D500D11248D
:10271000D901AB19B1095D01AE9CD001AF9CB00DE0
:10272000BE9CB00D1124AB2FBB272A1B3B0B2C9D4D
:10273000D0012D9DB00D3C9DB00D11242B2F62308A
:102740007105A1F050F46115710509F47DCF613078
:10275000710581F0292FF52F77CF6430710569F06D
:1027600080F06630710509F46FCFF4CF2E2FE92F7A
:10277000FB2F6ACF2E2FE52F67CF292FFE2FEB2FB0
:1027800063CFE92FF92D252F5FCF1196EC93119789
:102790002C931296FC9312978F5F139661CF20E0D3
:1027A0000E94ED1208950F931F93CF93C82F0E949C
:1027B0000B0991E0833009F090E0892F0E941C09F9
:1027C0004C2F50E070E060E0DB01CA01F4E0B69508
:1027D000A79597958795FA95D1F70097A105B1052B
:1027E00031F1AC01BD0184E08A019B01E2E0369544
:1027F000279517950795EA95D1F70115110521053C
:10280000310519F08E5FB901A80176956795579546
:102810004795452B462B472B09F08F5F8230F9F007
:1028200040F4882371F08130B1F040E007C080E0CF
:10283000DBCF8330C1F04FEF8430B9F760E080E048
:1028400003C04FEF6FEF85E50E94CF138C2FCF9120
:102850001F910F9108954FEF6FEF85EDF5CF4FEF7B
:1028600066E684E8F1CF4FEF6FEF85E1EDCF0E9490
:10287000D3138093AA0308959091AA0321E030E036
:10288000F90101C0EE0F8A95EAF7D90102C0AA0F3B
:10289000BB1F6A95E2F7EA2B01C0220F4A95EAF7BF
:1028A000892F8E23E81305C0292B822F0E9437140D
:1028B000089520952923F9CF21E030E001C0220FAF
:1028C0008A95EAF720958091AA0382230E94371403
:1028D00008959091EA02809589238093EA02282F37
:1028E000277069F4891759F09091BE0292FF07C0D2
:1028F0008695869586950E945C141092EA0208954A
:1029000021E030E001C0220F8A95EAF78091AA0306
:10291000822B0E9437140895E2EAF3E043812FE00E
:10292000421B08F440E021E0628181810E94ED12A7
:102930000895E2EAF3E043812FE0420F08F44FEFFD
:1029400021E0628181810E94ED120895E2EAF3E0C4
:10295000628121E1621B08F460E021E04381818112
:102960000E94ED120895E2EAF3E0628121E1620F34
:1029700008F46FEF21E0438181810E94ED120895F8
:10298000E2EAF3E0818121E04381628181510E948A
:10299000ED120895E2EAF3E0818121E04381628152
:1029A0008F5E0E94ED1208958091A603882319F08E
:1029B00081508093A6032091A2033091A3034091FC
:1029C000A4035091A5036091A6037091A703809181
:1029D000A8039091A9030E94C71208958091A603AD
:1029E000833018F48F5F8093A6032091A203309167
:1029F000A3034091A4035091A5036091A603709195
:102A0000A7038091A8039091A9030E94C71208957B
:102A10002091A20320FF23C0217022602093A203F3
:102A20008091ED0281608093ED02662381F0309108
:102A3000A3034091A4035091A5036091A603709154
:102A4000A7038091A8039091A9030E94C712409107
:102A5000A5036091A4038091A3030E94CF1308955E
:102A60008091A2038695815009F481E061E00E9483
:102A70000815089561E081E00E9408150895E2EAD2
:102A8000F3E083E0808311828FEF828386E9838382
:102A90001482ABEEB2E012968C911297836012967C
:102AA0008C93758123E030E04FEF56E960E086813A
:102AB00097810E94C71208959091BE0292FB22272F
:102AC00020F9281779F080FB92F99093BE0260916B
:102AD000BD027091BE0284E090E00E94373682E031
:102AE0000E946914089590E080E00E940336863EBB
:102AF0009E4F19F40E944112089580E00895B0E0BD
:102B0000A0E0E5E8F5E10C9439357901C82F880F8C
:102B1000DD0B41155105A9F0FE0193E0EE0FFF1FFB
:102B20009A95E1F7EF5FFE4F818192818F5B9D4F18
:102B3000208130E04217530708F49A01A9010E944E
:102B4000EC35CE010E94A434D82E8823D1F0011593
:102B50001105B9F083E0CC0FDD1F8A95E1F7FE0186
:102B6000EF5FFE4F438150E00417150708F4A801FA
:102B7000CF5FDE4F6C817D816F5B7D4FC7010E940F
:102B8000EC358D2DCDB7DEB7E7E00C945535A5E0DB
:102B9000B0E0EDECF5E10C9436358D83E62E5A016C
:102BA000F22E68018091AE028A3028F080E02596EE
:102BB000EAE00C9452358D818930C4F31A8219826F
:102BC0008A836B832C8363E070E0CE0102960E94BF
:102BD00001078983E0923101F092440110E000E0A6
:102BE00030E020E044E050E0BE016F5F7F4F85E0C1
:102BF0000E947F158823D1F24E2D50E030E020E076
:102C0000B50186E00E947F15882381F230E020E044
:102C100041E050E0BE016B5F7F4F87E00E947F156F
:102C2000882321F20F2D10E0960150E040E070E083
:102C300060E088E00E947F15BACFA4E0B0E0E3E254
:102C4000F6E10C943C354091A2025091A3026091B0
:102C5000A4027091A5022FB7F8948091510490912D
:102C60005204A0915304B09154042FBF841B950BC0
:102C7000A60BB70B11E084369105A105B10518F13B
:102C80000E943C106E5F7F4F8F4F9F4F69837A8306
:102C90008B839C8310E000E030E020E044E050E0D3
:102CA000BE016F5F7F4F82E00E947F15182F88233F
:102CB00051F00E94B6066093A2027093A302809323
:102CC000A4029093A502812F2496E4E00C94583539
:102CD000A5E0B0E0EEE6F6E10C943A357B0101E0C8
:102CE00010E09E012B5F3F4F50E040E070E060E05D
:102CF00080E00E947F15182F882309F456C0409168
:102D00009E0250919F026091A0027091A1022FB784
:102D1000F8948091510490915204A0915304B09181
:102D200054042FBF841B950BA60BB70B843691055B
:102D3000A105B10548F464E070E082E492E00E94ED
:102D400001079D81891789F104E010E09E012F5F42
:102D50003F4F50E040E070E060E081E00E947F156E
:102D6000082F64E070E082E492E00E94010711E025
:102D70009D81981310E0102331F10E94B6066093F4
:102D80009E0270939F028093A0029093A10289817A
:102D90009A81AB81BC8180939A0290939B02A0930D
:102DA0009C02B0939D0211E00EC08091420290916E
:102DB0004302A0914402B091450289839A83AB8378
:102DC000BC831111E4CF80919A0290919B02A09153
:102DD0009C02B0919D02F70180839183A283B3830B
:102DE000812F2596E6E00C9456358F929F92AF92F4
:102DF000BF92EF92FF920F931F93CF937B01942F7B
:102E0000B901A801F70180809180A280B380EFB75B
:102E1000F894009151041091520420915304309180
:102E20005404EFBF081919092A093B090436110592
:102E30002105310518F4C1E0992381F010E000E08C
:102E400030E020E00E947F15C82F882339F00E94CF
:102E5000B606F70160837183828393838C2FCF91B1
:102E60001F910F91FF90EF90BF90AF909F908F9028
:102E70000895A1E0B0E0EFE3F7E10C943C358091D8
:102E8000D10389832091550290E041E0281719066B
:102E900009F440E001E010E09E012F5F3F4F6AEA35
:102EA00072E084E00E94F5162196E4E00C94583517
:102EB000ABE0B0E0EEE5F7E10C943C3588E0E2EA07
:102EC000F3E0DE01119601900D928A95E1F7809171
:102ED000EB029091EC02A091ED0289879A87AB8773
:102EE00041E08B85811101C040E00BE010E09E01C4
:102EF0002F5F3F4F66EA72E083E00E94F516811172
:102F00001092ED022B96E4E00C945835A8E0B0E066
:102F1000ECE8F7E10C943E3566EE7EEF90E080E061
:102F20000E94373660E082E090E00E94193660E04F
:102F300083E090E00E9419361092330260E074E161
:102F400084E090E00E94373660E086E090E00E94E6
:102F500019366FEF87E090E00E94193640E050E0AC
:102F6000BA0188E090E00E942B3660E084E290E0B5
:102F70000E94193660E087E190E00E94193660E017
:102F80008CE090E00E94193660E08DE090E00E94B5
:102F9000193619821A821B821C821D821E821F8290
:102FA000188648E050E068E170E0CE0101960E948A
:102FB000093640E050E0BA0180E290E00E942B36F2
:102FC00080E00E943C110E94551140E050E0BA019F
:102FD0008FE090E00E942B3640E050E0BA0183E1A0
:102FE00090E00E942B362896E2E00C945A3528E0B7
:102FF00030E043E060E086E30E94A0310895CF9383
:10300000DF93D82FC62F0E94F7178D2F80680E945C
:1030100018328C2F0E9418328AEB8A95F1F700C083
:103020000E94483283E492E00197F1F700C000006B
:10303000DF91CF910895682F893708F068E7609392
:10304000B10191E09093B2019091A601992339F0DA
:103050006150811101C064E08FE00E94FF17089564
:10306000FB0180810E941B1808959091B10191117C
:1030700001C095E0282F880F330BA901490F511D7E
:10308000CA011816190614F081E090E00E941B187E
:103090000895ACE0B0E0EFE4F8E10C9438354F83EC
:1030A000588769877A878B879C878091A6018823B8
:1030B00009F446C080910902811107C060E080E5F3
:1030C0000E94FF1781E0809309020E94F71780E5B4
:1030D0000E9418328AEB8A95F1F700C00E943032C4
:1030E0000E9430320E9430327C010E94303220E057
:1030F000E22AF82A0E9430328C010E94303220E00D
:10310000022B182B0E94483285E08A95F1F70000C7
:10311000F894B7018091A9019091AA010E94FE093B
:103120009093AA018093A901B8018091AB0190917D
:10313000AC010E94FE099093AC018093AB0178949E
:103140000E940610882309F469C00E94B606009107
:103150000A0210910B0220910C0230910D026B01BA
:103160007C01C01AD10AE20AF30A970186010830ED
:1031700011052105310508F451C060930A027093CE
:103180000B0280930C0290930D020091B4011091F8
:10319000B5012091B6013091B701601B710B820B14
:1031A000930B623371058105910580F41092AA0199
:1031B0001092A9011092AC011092AB011092AE01D5
:1031C0001092AD011092B0011092AF011091B301B5
:1031D0000E945610482FBE01695F7F4F89EA91E037
:1031E000112389F10E9430090091B3011091A601C9
:1031F0000E94561041E04827BE01695F7F4F8DEA6B
:1032000091E0011719F10E94300986E0FE0137961E
:10321000AEEBB1E001900D928A95E1F786E0FE01F8
:103220003796DE01119601900D928A95E1F729817A
:103230003A814B815C816D817E8180E090E02C96AB
:10324000E8E00C9454350E949D09CECF0E949D0960
:10325000DCCFCF93C82F0E94F7178C2F0E94183213
:103260008FE792E00197F1F700C000000E94303232
:10327000C82F95E09A95F1F700000E94483285E644
:103280008A95F1F70000109209028C2FCF910895D2
:10329000CF93DF930E949831269A0E94F7176AE530
:1032A0008AE30E94FF172FEF80E792E021508040D1
:1032B0009040E1F700C0000082E00E94291983E0FD
:1032C0000E94291984E00E94291985E00E94291989
:1032D00086E00E94291960E080E10E94FF1780E0EB
:1032E0000E942919D82F81E00E942919C82F0E9415
:1032F0004832D23419F481E0C13009F080E08170A5
:103300008093A601882321F064E08FE00E94FF17DC
:10331000DF91CF9108951F920F920FB60F92112453
:103320002F933F934F935F936F937F938F939F93CD
:10333000AF93BF93CF93DF93EF93FF93D091E900C7
:10334000DF708091EC00C82FC17080FDC0E8109242
:10335000E9008091F000877F8093F00078940E94CC
:10336000B60B1092E9008091F00088608093F00025
:10337000CD2BCF70C093E900FF91EF91DF91CF91FA
:10338000BF91AF919F918F917F916F915F914F917D
:103390003F912F910F900FBE0F901F9018951F9285
:1033A0000F920FB60F9211242F933F934F935F9379
:1033B0006F937F938F939F93AF93BF93EF93FF93FD
:1033C0008091E10082FF09C08091E20082FF05C088
:1033D0008091E1008B7F8093E1008091DA0080FF93
:1033E00024C08091D80080FF20C08091DA008E7FB9
:1033F0008093DA008091D90080FF9DC080E189BD73
:1034000082E189BD09B400FEFDCF81E080936304B1
:1034100080915504811109C00E9447050E94E8056A
:103420008091E20084608093E2008091E10080FF5F
:1034300017C08091E20080FF13C08091E2008E7F70
:103440008093E2008091E20080618093E2008091AD
:10345000D80080628093D80019BC85E08093630413
:103460008091E10084FF2BC08091E20084FF27C09F
:1034700080E189BD82E189BD89B5982F917080FF77
:10348000FBCF8091D8008F7D8093D8008091E100A0
:103490008F7E8093E1008091E2008F7E8093E20036
:1034A0008091E20081608093E2008091640488232F
:1034B00009F447C084E080936304809163048091A1
:1034C000E10083FF27C08091E20083FF23C0809149
:1034D000E100877F8093E10082E080936304109293
:1034E00064048091E1008E7F8093E1008091E2008E
:1034F0008E7F8093E2008091E20080618093E20001
:1035000042E060E080E00E94B6058091F0008860B3
:103510008093F000FF91EF91BF91AF919F918F91B8
:103520007F916F915F914F913F912F910F900FBEBF
:103530000F901F90189519BC1092630410925504B7
:1035400074CF8091E30087FD93E090936304B5CF3F
:1035500078941F921FB61F9211248F939F93AF935D
:10356000BF938091510490915204A0915304B09163
:1035700054040196A11DB11D8093510490935204EF
:10358000A0935304B0935404BF91AF919F918F9136
:103590001F901FBE1F9018959C014FB7F894809103
:1035A000510490915204A0915304B09154044FBF20
:1035B000821B930B08952FB7F8948091510490913A
:1035C0005204A0915304B09154042FBF08952F9238
:1035D0003F925F926F927F928F929F92AF92BF9233
:1035E000CF92DF92EF92FF920F931F93CF93DF93CF
:1035F0008091D403882309F4FEC08091D203909176
:10360000D3030E94CC1AC29708F4D5C00E94DB1ADB
:103610009093D3038093D2038AEB94E09093C106F6
:103620008093C0060E940610882309F401C18AE82D
:1036300093E00E942D0B88EB0E94A70A8091BD01A8
:103640000E94CC090E94A70A89EB0E94A70A8091D8
:10365000BC010E94CC090E94A70A87E893E00E945F
:103660002D0B8091BA019091BB0154E096958795FE
:103670005A95E1F70E94CC090E94A70A8091BA01ED
:103680000E94CC090E94A70A84E893E00E942D0BB7
:1036900084EC91E00E940D0F89EA93E00E942D0BCB
:1036A0008091C0010E94D3090E940D0F8091C10139
:1036B0000E94D3090E940D0F8091C3010E94D3097B
:1036C0000E940D0F8091C2010E94D3090E940D0F2C
:1036D00081EA93E00E942D0B8091B101811101C01C
:1036E00085E00E94D30901960E940D0F8DE993E0B9
:1036F0000E942D0B8091B901882331F0813009F4AB
:103700008CC084E993E002C08AE993E00E942D0B0B
:103710008091B301882309F483C082EB93E00E9477
:103720002D0B80E993E00E942D0B8091B80181114F
:1037300001C087E0805D0E94A70A88EB93E00E94A9
:103740002D0BC1E0D0E08091AA03882309F46BC05F
:1037500090E00C2E02C0959587950A94E2F780FFC1
:1037600062C08C2F0E94CC090E94A70A2196C83003
:10377000D10549F780E20E94A70A85EB93E00E94F9
:103780002D0B80916901882309F44FC082EB93E0EF
:103790000E942D0B80916B0190916C0168EE73E09B
:1037A0000E941A35862F0E94D30901960E940D0FA0
:1037B00083E70E94A70A8091B8049091B904892BED
:1037C00009F04CC08091D1038823A9F00E94B6066D
:1037D0000091CD031091CE032091CF033091D003FF
:1037E000601B710B820B930B6F3F7F4F8F4F9F4777
:1037F00010F40E948412DF91CF911F910F91FF90DE
:10380000EF90DF90CF90BF90AF909F908F907F9080
:103810006F905F903F902F90089587E993E076CF67
:103820008FEA93E07CCF80EB9FCF8FEA93E0B0CF1D
:10383000C0E9D0EFDC0F8EEB93E00E942D0B11E07E
:103840001D0F8D2F0E94A70AD12F1C13F8CF80E0E7
:103850000E943B0BC05FC03C61F7ADCF8091D403A9
:10386000882309F4AFCF8091CC038111ABCF0E94A4
:103870009F122091B8043091B9042115310509F443
:10388000A1CF80E041E050E0082F10E01A01082E9F
:1038900002C0220C331C0A94E2F7B10162237323A5
:1038A000672B11F48F5FF0CF9091CB0390FF95C001
:1038B000880F880F880F8093770110927A01895FB3
:1038C0008093780183E080937B0124E630E047E039
:1038D00050E065E771E088E70E941233892B09F018
:1038E00071CFA80125E0440F551F2A95E1F780917B
:1038F000CB0380FF84C0EBEAF3E080E2DF011D929E
:103900008A95E9F7A6EEB1E002EE11E08AEEC82E44
:1039100081E0D82E97E0592E772473948D91E80199
:1039200029918E01240F352F311D26543B4FE82F4E
:10393000F0E0E555FC4F90E080E0652C681A872C9C
:10394000082E01C0880C0A94EAF77901A12CE7013E
:10395000B9907E01B820662D6A196770962E062EE2
:10396000000C770BDB2D01C0DD0F9A94EAF77195FF
:10397000619571096770772701C0B6946A95EAF777
:10398000BD2A6081962E9B289082A39468E0A6129F
:10399000DECF019631968830910579F6CA16DB069E
:1039A00009F0BCCF04E610E020E230E04BEA53E03F
:1039B00060E488E70E943333892B09F003CFE101EB
:1039C000C095D0958091B8049091B904C823D923AB
:1039D000D093B904C093B804F5CE8295880F807651
:1039E00080937701980136952795369527952093F2
:1039F0007A01815E8093780120937B0166CF4654E3
:103A00005B4F04E610E020E230E0D2CFAEE1B0E060
:103A1000ECE0FDE10C943D354091E4025091E5026B
:103A20006091E6027091E7028091E8029091E902CC
:103A30000E9449182093E4023093E5024093E60285
:103A40005093E7026093E8027093E90286E0E4EEA7
:103A5000F2E0DE01179601900D928A95E1F786E07B
:103A6000FE013796DE011D9601900D928A95E1F7D1
:103A700086E0FE013D96DE01119601900D928A9539
:103A8000E1F786E0FE013196A4EEB2E001900D92DE
:103A90008A95E1F786E0E4EEF2E0DE0159960190C6
:103AA0000D928A95E1F786E0FE017996DE01179680
:103AB00001900D928A95E1F786E0FE013796DE01CE
:103AC000119601900D928A95E1F786E0FE013196FC
:103AD000DE01539601900D928A95E1F786E0FE0192
:103AE0007396DE01179601900D928A95E1F786E0B4
:103AF000FE013796A4EEB2E001900D928A95E1F7AF
:103B000086E0E4EEF2E0DE01179601900D928A95D0
:103B1000E1F780916901882309F445C080916E0125
:103B200090916F010E94CC1A20916D0128171906FF
:103B3000D0F580917001909171010E94CC1A893C5E
:103B4000910588F189859A85892B9B85892B9C8590
:103B5000892B9885892B91E009F490E0909372016C
:103B60000E944A071091AA03882351F10E94DB1A90
:103B700090936F0180936E01109271011092700109
:103B800080916A01111105C0882369F00E94801498
:103B90000AC0212F30E0082E02C0359527950A94DF
:103BA000E2F720FFF3CF0E94370A81112FC08091E6
:103BB000E3021092E30281706E96E3E00C945935B3
:103BC00080916A01111118C08111EDCF80916E01B1
:103BD00090916F010E94CC1A20916B0130916C0181
:103BE0002817390700F780916A010E945C1410922F
:103BF0006F0110926E01D7CF212F30E002C03595B2
:103C000027958A95E2F720FFCECFE0CF81E090E0C4
:103C1000D0CFA3E1B0E0EFE0FEE10C9433358E01AC
:103C2000045F1F4F88E0D8011D928A95E9F78EEC5A
:103C3000C82E81E0D82EF12CE12CAA24A394B12C1B
:103C400028ED822E21E0922EF60181916F018F3FA7
:103C500009F442C0F894E82FE295EF70F0E021A15A
:103C60008F70A50102C0440F551F8A95E2F7CA0163
:103C7000922F982B91A392A18095892382A3789467
:103C800000C0E2EDF1E0712C31E021912F3F09F409
:103C90006BC0A22FA295AF70B0E090968C9190E08F
:103CA0002F7002C0959587952A95E2F780FD5CC03C
:103CB000832F782A330F8E169F0639F7F601319736
:103CC00080818F3F11F00E94A60750EA5A95F1F7C4
:103CD000F801EE0DFF1D70828FEFE81AF80AA4E0DC
:103CE000EA16F10409F0B0CF48E050E0B80183EBE8
:103CF00092E00E94DF35009741F028E0F801A3EB45
:103D0000B2E001900D922A95E1F70091BC02892B57
:103D100069F181E0809338020E94DB1A90933702A8
:103D20008093360280913602909137020E94CC1A1D
:103D3000059700F110E006531D4F44E050E063EB9F
:103D400072E0C8010E94DF35B12C892B51F084E06C
:103D5000E3EBF2E0D80101900D928A95E1F7BB24E4
:103D6000B3941092380207C080E0A3CF809138024C
:103D70008111D8CFB12C0E940610A82EE091BC0270
:103D8000882309F489C019821A821B821C820E2F93
:103D900010E006531D4F8091AE028A3008F046C0F5
:103DA00048E656E1BE016F5F7F4FC8010E94D30F06
:103DB000882309F460C04DE156E1BE016F5F7F4F7B
:103DC000C8010E94D30F882309F455C048E557E184
:103DD000BE016F5F7F4FC8010E94D30F882309F493
:103DE0004AC049E357E1BE016F5F7F4FC8010E949F
:103DF000D30F882309F43FC01092AE028091BB021A
:103E000090E044E050E0BE016F5F7F4F86539D4FCE
:103E10000E94DF3521E020933F02892BF1F4A12C91
:103E20008A2D8B296396EDE00C944F3580913902F1
:103E300090913A020E94CC1A843F914008F0B0CF92
:103E400080913F02882359F384E0FE013196DF011F
:103E50001D928A95E9F710923F02E091BB02F0E0D3
:103E6000E653FD4F89819A81AB81BC818083918328
:103E7000A283B383D5CF8091AE028F3F31F08F5FA5
:103E80008093AE028A3008F4B9CF0E94DB1A909377
:103E90003A0280933902D4CFF0E0E653FD4F84E03C
:103EA000A2E4B2E001900D928A95E1F764E070E03F
:103EB00082E492E00E94010780934102C090460292
:103EC000D0904702E0904802F090490280913B0276
:103ED00090913C02A0913D02B0913E02C816D906D5
:103EE000EA06FB06D1F0C0923B02D0923C02E0927F
:103EF0003D02F0923E020E94061081110EC00E9407
:103F0000B606C61AD70AE80AF90AC092AF02D092DA
:103F1000B002E092B102F092B2028BE0EAE4F2E089
:103F2000DE01119601900D928A95E1F79981892F12
:103F300086950A81FB80EC801B8510925402112328
:103F4000A1F010FF0AC090FF17C09091A2039160EA
:103F50009093A20360E00E94081511FF06C020E0C4
:103F60004E2D6F2D802F0E94ED12809155028823D7
:103F700031F00E949F1254CF0E94C60FEECF0E94D4
:103F800084124ECFA8E0B0E0E8ECFFE10C943035AD
:103F90008C01DC0114968C91882309F4B2C061E095
:103FA000C8010E9408127C01F801D580DD2009F4C7
:103FB00069C197578038910508F064C1FFE0FE158C
:103FC00008F48FC08FEF93E00E94F535811189C00E
:103FD000E9E0AE2EE2E0BE2EE1104DC0FE013396C8
:103FE00086E0DF011D928A95E9F77AE0472E750198
:103FF000BFEFEB1AFB0AC5010E94F53589831A82CF
:10400000882309F46EC0813009F07FC06501E2E0C9
:10401000CE0ED11CC7010E94F5358A83882309F48E
:1040200060C09FEF980F9330A0F5F3E0AF0EB11C86
:10403000C6010E94F5358B83882309F452C01C8287
:10404000DE0111967D01F7012081222381F22130CA
:1040500009F0BAC091818281913009F058C0F2E034
:10406000EF0EF11C65E070E0893311F460E570E05B
:104070000E949B1053C0A11424E0B20691F1C50127
:104080000E94F535811101C0EA943FEFA31AB30AEB
:10409000A3CF56018430A1F662E0E62EF12C560142
:1040A0002FEFA21AB20AC6010E94F535E1E0F0E056
:1040B000EC0FFD1FEE0DFF1D8083882391F08C37E0
:1040C00041F4E2E0F0E0EC0FFD1FEE0DFF1D108269
:1040D000B7CF3FEFE31AF30A650187E0E816F10472
:1040E000F1F68091EA02877061F0D80115968C9103
:1040F000882339F08091BE0282FF03C082E00E94D3
:1041000069142896E0E10C944C35570199CF923010
:1041100039F522E0E20EF11C0E94B30EFFEFEF1A18
:10412000FF0A8FE99FE00197F1F700C00000AFE9B7
:10413000BFE01197F1F700C00000EFE9FFE0319711
:10414000F1F700C000008FE99FE00197F1F700C090
:104150000000AFE9BFE01197F1F700C0000073CF96
:10416000933031F432E0E30EF11C0E94870ED6CF7B
:10417000943021F08FEFE81AF80AD0CF92E0E90EE0
:10418000F11C30E020E0B7016F5F7F4FD70111963F
:104190004C918053990B8A30910558F02150310988
:1041A00008F4BCCFEFE9FFE03197F1F700C0000061
:1041B000F5CF429EF001439EF00D11249C012E0F7D
:1041C0003F1F842F7B01DFCFE22FF0E0E755FE4F4A
:1041D0005490822F86958695869590E0FC01E7564F
:1041E000FE4F64902770712C022E02C07594679464
:1041F0000A94E2F731E063227724FC01E757FE4F8F
:104200008490912C022E02C0959487940A94E2F730
:10421000A1E08A229924FC01E758FE4FC490D12CDA
:1042200002C0D594C7942A95E2F7B1E0CB22DD24F1
:104230006114710419F081EE0E94B30E811491048F
:1042400019F086EE0E94B30EE9E365E070E05E12BD
:1042500002C060E570E0852D0E949B1081149104DE
:1042600019F086EE0E94870E6114710419F081EE38
:104270000E94870EC114D10409F450CF65E070E0AC
:104280008CE2F6CE80916901882309F46FC0B0E218
:10429000EB16B2E5FB0608F052C0E114E2E5FE06BB
:1042A00008F0B7C0E114F0E4FF06E0F5E11420E205
:1042B000F20608F0DAC030EEE316F10450F088EEB2
:1042C000E816F10408F44DC0E11491E0F90608F095
:1042D00048C0F8018481882309F443C0F7E0EF1651
:1042E000FEE7FF0609F4ACC0C7018D5C9109439756
:1042F00008F4A6C00E944A07811133C0DD2059F09E
:1043000080916A012091AA032111B6C0882309F483
:10431000BCC00E94110A0E94DB1A90937101809325
:1043200070011FC0E114A0E5FA0608F08DC0F80185
:104330008681807F09F099C08F2D99278BC0B0E8C6
:10434000EB16B2E5FB0608F03BC0E0E6EE16E2E550
:10435000FE0608F05EC0F0E4EF16F2E5FF0608F492
:1043600066C08091740187FD10927401F092BB01C8
:10437000E092BA01D8018D919C9111979093BD0163
:104380008093BC01F7013497E533F10508F086C04E
:10439000E75DFD4FE49115968C9120EB811102C0F1
:1043A0002E2FE0EBA4ECB1E090E080E03D913213E1
:1043B0006FC08A559E4FDC015E96EC93F70175C085
:1043C00020ECE21622E5F20660F230EEE31632E56A
:1043D000F30608F07ECF20916A01C7018F719927FB
:1043E0002817190609F0BDCF8D2D0E943307D8017B
:1043F00016968C911697807F803509F0B2CF15966E
:104400008C91882361F180917401815080937401B3
:10441000A8CF20916A01C7018F7199272817190623
:1044200009F09FCFD1109DCF0E9441079ACF2091D4
:104430006A01C7018F7199272817190609F091CFD2
:104440008D2D0E9433078DCFC70155E09695879536
:104450005A95E1F78F70992720916A01EDCF0E945C
:104460004107809174018F5FD1CFD80116968C914E
:10447000807F09F476CF2DCF30E0082E02C035952D
:1044800027950A94E2F720FF44CF0E945C1441CFA5
:1044900001968630910509F089CF90CFC7019A9592
:1044A000F70181159F4108F4FF27D80115968C91DB
:1044B000E13DF10538F0E93DF10570F0E730BEE788
:1044C000FB0701F1882361F0FE57E031F10540F46C
:1044D000E75AF94C0C949335682F8E2F0E94900A5E
:1044E000F8018581811176C3809156048272F701AB
:1044F000E052F847E531F10508F0DFC0E759F94C23
:104500000C9493350E941C09EBCF80E00E941B188D
:104510001092B80180E00E942E0A80E197E20E948A
:10452000200ADFCD4091B1012091B80120FB47F96D
:10453000269523708091690180FB22F980916B019F
:1045400090916C0164EF71E00E941A355FEF560F95
:10455000550F550F550F522B6091B901637070E0E4
:104560008FE090E00E942B36BCCD81E00E94351890
:10457000B8CD8FEFFBCF8AE0F9CF86EFF7CF9091E0
:10458000B30181E089270E941C09ABCD8091B8015D
:10459000811101C087E08F5F18160CF081E0883030
:1045A00008F087E08093B8019CCD8091B80181111B
:1045B00001C087E08150F0CF81E08093B90191CDB7
:1045C0001092B9018ECD82E0F8CF9091690181E01F
:1045D00089270E942E0A85CD80916B0190916C01F4
:1045E000C2969DCF80916B0190916C01C2978436E9
:1045F000910508F094CF84E690E091CF8091A203DA
:1046000080FF1CC0282F2E7F2093A2033091A3038C
:104610004091A4035091A5036091A6037091A70354
:104620008091A8039091A9030E94C7128091ED0286
:1046300081608093ED020E947B0F53CD8160809357
:10464000A20361E086950E9408154BCD40E355E139
:104650006AE375E10E94170744CD4AE355E160E340
:1046600075E1F8CF40EC54E16AEC74E1F3CF4AEC29
:1046700054E160EC74E1EECF46EA54E163EB74E19F
:10468000E9CF43EB54E166EA74E1E4CF4CE854E14E
:1046900069E974E1DFCF49E954E16CE874E1DACF0C
:1046A00044ED54E16EEE74E1D5CF4EEE54E164ED8D
:1046B00074E1D0CF61E081E0C6CFF7E7EF16FCE709
:1046C000FF0609F44FC028E7E2162CE7F20609F4CA
:1046D0004DC0F80187819085009709F48FC00E9432
:1046E000BD077C01F801A580968092943FE093225B
:1046F0008091EA028770F1F0CA2CAA20E1F08F2D98
:10470000807F803451F080E28E0D883098F09110D7
:1047100004C08F2D807E803269F08091BE0282FFBE
:1047200009C082E00E9469148091EA028770CC245B
:10473000C3948111C12CBF2CB2942FE0B222FBE0B4
:10474000FB1508F4D5C0EB2DF0E0E258F94C0C94C1
:10475000933581E00E94801443E062E081E00E9492
:104760003C14BFCC81E00E945C14F6CF82E0FBCF0A
:1047700033E0E3163CE7F30671F160F4E1149CE7E3
:10478000F906D1F0A1E0EA16ACE7FA0609F0A1CFEC
:104790000E94B110BBE5EB16BCE7FB0669F1ECE546
:1047A000EE16ECE7FE06F1F0FAE5EF16FCE7FF0681
:1047B00009F08FCF81E01DC0109256040E94AA0B11
:1047C0002FEF34E38CE0215030408040E1F700C00F
:1047D00000000E94A5066FEF7FEF90E080E00E944E
:1047E0003736D6CF8091BE0282FB882780F991E0D0
:1047F00089270E945C156DCF80E0FBCF8581E0802A
:10480000F180882369F0C7010E94A211D82E682F79
:10481000C7010E94D108B7018D2D0E9494115FCF6E
:10482000C7010E949D08D82EF6CF2F2D2F70D22EB3
:104830008F2D807F19F0D29490EFD922AA20B9F061
:10484000DD2069F080E28E0D883010F0E11009C0A3
:1048500080915604D82AD09256040E946D0B8E2D5A
:1048600045C08091D703D82AD092D703F6CF8E2D9A
:104870000E94870EDD20E1F180E28E0D883010F07D
:10488000E11004C08D2D0E948C0806C0D094809148
:10489000D703D822D092D7030E946D0B29C03F2D99
:1048A0003F70D32E8F2D807F803219F0D29480EF0D
:1048B000D822EE2059F081E0E81609F471C0AA2050
:1048C00009F47DC0992009F440C0C9CF8091BE028F
:1048D00082FD37C0AA2079F1DD2039F0809156049D
:1048E000D82AD09256040E946D0B80E00E94B30E2D
:1048F000AB2DA850BB0B149710F40E942B10CC20AA
:10490000A9F08091EA0280FD11C0F8011582869518
:10491000869586950E948014C8010E94C21F8091CE
:10492000EA028695869586950E945C1460E0C8012F
:104930000E940812E6CB80E00E94870EDD20C1F2C3
:10494000A1CFAA2099F0911004C08D2D0E947D0E58
:10495000CFCF91E09912CCCF809132029D2D982338
:10496000D91631F2D82AD0923202C2CF9110C0CFDC
:104970008D2D0E94760E909132028D2D892329F083
:104980008D2D809589238093320280910E029D2D7A
:10499000982309F4ADCFD094D822D0920E02A8CF9C
:1049A000AA2029F0A5E0A91508F4A2CFCECFB4E043
:1049B000B91508F49DCF8D2D0E94760E99CF9920C0
:1049C000D1F3E9E3EE1201C1FFEF27EE33E0F1503E
:1049D00020403040E1F700C000008E2D0E94870E7D
:1049E00087CF6A2D8E2D0E94900A82CF8F2D8370E3
:1049F00091F5A1107DCF4E2D429546954770440FFD
:104A0000440F8E2D8F70042E01C0880F0A94EAF790
:104A10002E2D2071E4FE07C02FE030E001C0220FF0
:104A20004A95EAF720953F2D36953695337032300A
:104A300069F050F440913302313029F0822B842305
:104A40000E94080955CF842B822BFACF282B809106
:104A500033028227F5CF8695AA2011F08F2D817021
:104A6000882309F445CF4E2D429546954770440F53
:104A7000440F8E2D8F70042E01C0880F0A94EAF720
:104A80002E2D2071E4FE07C02FE030E001C0220F80
:104A90004A95EAF720953F2D36953695337032309A
:104AA00069F050F44091AA03313029F0822B84231D
:104AB0000E9437141DCF842B822BFACF282B809194
:104AC000AA038227F5CF9F2D9F70F92EAA2029F0E7
:104AD000892F0E9480148E2D39CF8E2D0E94760E44
:104AE0008F2D0E945C1404CFA2EFEA16B1F1AE152F
:104AF00070F0B0EFEB16D1F0E1EFEE1691F0AA20D6
:104B000009F45EC09110ABCE8F2D8F712AC0F3EFE8
:104B1000EF1651F124EFE212F2CF8091BE0282FD36
:104B20002FC08F2D8F71AA20E1F21BC0AA2081F027
:104B300034E0391508F4DCCE2F2D2F7181E090E0A0
:104B400001C0880F2A95EAF79091AA038927B0CF70
:104B500085E0891508F4CCCEEFCF8F2D8F71A11091
:104B6000C0CF0E948014C4CE80E0AA2009F4A0CF58
:104B70009F2D9F7181E001C0880F9A95EAF798CF29
:104B8000AA2099F09F2D9F71F92E892F0E948014E1
:104B90008091BE0282FF07C0A8E0FA9EC0011124E6
:104BA00083608093EA028F2DDCCF81E00E9469143C
:104BB000B1E0B91508F09CCE82E00E94691498CE4D
:104BC0009110FFCE8F2D8F718CCF8FE19EE40197D6
:104BD000F1F701CFF7E7EF16FCE7FF0609F4B9CDCF
:104BE00028E7E2162CE7F20609F0C2CD82E0B2CD4A
:104BF000CF93DF9380912702807F09F04DC0809191
:104C00002602882309F448C0E091B60450916D044F
:104C1000C0912202D091210260912302709124025E
:104C200049E05E17C9F18E2F90E0E49FF001112456
:104C3000E259FB4F2481222391F1489FF001499FC3
:104C4000F00D1124DF01A259BB4F11962C91119741
:104C50002C1325C02C912D1322C015962C9115973D
:104C600021111DC012962D913C91261B370B283C1B
:104C70003105A8F4809127028F708061809327020C
:104C8000EC58FB4F80818F708061808381E292E0DD
:104C90000E94C21F0E949308DF91CF910895FC01EA
:104CA0003196E770BECFA8E1B0E0E9E5F6E20C94FA
:104CB00034358C0186E0F801DE01539601900D92A7
:104CC0008A95E1F7F8018481E58091E2A92E92E0CE
:104CD000B92E90912502911128C0882319F1EE2058
:104CE000F1F0C8010E94DE11F82E8823C1F089E09E
:104CF000F801D50101900D928A95E1F78091250286
:104D0000813031F480912102909122020E94D111D0
:104D10000E94F8258F2D6896ECE00C945035C80160
:104D20000E94C21FFF24F394F5CFD080C1808280FF
:104D30009380F09026022091230230912402A40156
:104D4000421B530BFF2009F40DC1483C510508F0EC
:104D5000B6C08823F9F29091220280912702282F71
:104D6000207F09F05FC0C9121DC090912102D912A5
:104D700019C040912802509129022781308542179D
:104D8000530781F4E11048C08F708061809327023F
:104D900081E292E00E94C21F80912702F80186837F
:104DA000F12CB8CFE11038C06C2D8D2D0E94280554
:104DB0006C2D8D2D0E942805E82E8111F1CFDB8A04
:104DC000CC8A8B899C890E94D111292F22952F7022
:104DD000243058F49F70223088F0992399F0F8011C
:104DE0009681907F79F4FE2C95CF2A5F2F70223028
:104DF00068F0C8010E94C21FEF2CF5CF992311F073
:104E0000882389F3805E883070F3F3CF803F58F3B6
:104E1000815F833070F7E7CF8091270281608093B4
:104E20002702BECFC9121CC090912102D91218C00E
:104E3000409128025091290227813085421753075B
:104E400079F4E1100DC08683C8010E94C21F89E079
:104E5000F801A1E2B2E001900D928A95E1F75ACFF4
:104E6000C8010E94DE11882309F459CFEE2009F40D
:104E700056CF809127028032B8F0209121023091E4
:104E800022023B872A879D868C86909125029E87E9
:104E90001F86888B80912802909129029A8B898B9A
:104EA000CE010A960E94C21F89E0F801A1E2B2E099
:104EB00001900D928A95E1F70E94F82533CF9091E9
:104EC0002702292F207F51F481E292E00E94C21F25
:104ED00089E0F50111928A95E9F762CF882309F4F8
:104EE00019CF809122028C1119C080912102D81211
:104EF00015C0409128025091290227813085421720
:104F0000530761F4E1100AC09683C8010E94C21FD2
:104F100089E0F50111928A95E9F7FCCEC8010E945B
:104F2000DE11882309F4FBCEEE2009F4F8CE80913F
:104F30002702803208F4B8CF20912102309122025A
:104F40003A8329839C828B82909125029D831E82C5
:104F50008F83809128029091290299878887CE01BA
:104F60000196A0CF483C510598F6882309F4DACE83
:104F7000FE2CEE2009F4D3CE809122028C1120C0A9
:104F800080912102D8121CC0209128023091290260
:104F9000878190852817390799F49091270290FD11
:104FA00056CF907F09F453CF809127028683903F9C
:104FB00009F44ACF982F907F905F8F70892B43CF51
:104FC000C8010E94DE1181116FCF8091270281609C
:104FD00080932702C8010E94C21F9CCEA2E1B0E0CC
:104FE000E4EFF7E20C943C350A871B872C873D875A
:104FF0004E875F87688B798B8A8BCE010A960E94D9
:10500000532681110CC089E0FE013A96DE0111960B
:1050100001900D928A95E1F78E8581110BC019E000
:105020008091B60490916D04891333C06296E4E0D8
:105030000C94583520916D0430E0C90101968770B9
:1050400099274091B6044817190699F099E0929F64
:10505000D001939FB00D1124A259BB4FFE01319690
:1050600001900D929A95E1F780936D040E94930848
:10507000D6CF109256040E94AA0B10926D04109283
:10508000B60489E0E1E2F2E0DF011D928A95E9F7DA
:10509000C6CF819FC001112482599B4F0E94532685
:1050A000882321F28091B60490E0019687709927B9
:1050B0008093B604B5CFB0E0A0E0E1E6F8E20C944E
:1050C00037358091D903882369F0C091D803C12C6A
:1050D0008DE0D82E8091D903C81748F01092D903DB
:1050E0001092D803CDB7DEB7E9E00C945335BB245A
:1050F000B394BC0EB092D803EC2EF12CCD9DE00100
:105100001124C652DC4F8C81882361F18F819885F0
:10511000892B21F489859A85019659F40881198192
:105120002A813B814C815D816E817F8188850E94CF
:10513000EE27DE9CF001DF9CF00D1124E652FC4FBF
:1051400014821092D703C1100DC0CE010E94DE114F
:10515000811108C08FE19EE40197F1F700C00000C3
:10516000CC24C394CB2DB6CF10924D0410924C0496
:1051700010929F0180914B0480934A040E94F00694
:105180000E945B280895B0E0A0E0E9ECF8E20C94FE
:105190002E35C0914A04E7E0FE2E01E010E0FDE06C
:1051A0002F2EEE24E39480914B048C1309C00E94AF
:1051B0005B280E94F006CDB7DEB7E2E10C944A35D9
:1051C000D0E0FE01EE0FFF1FEE5BFB4F808191816F
:1051D000F89EF001F99EF00D1124E458FE4F248151
:1051E00021115AC03090D903AAEDB3E030E020E09D
:1051F000412C5F01231508F04DC01B966D907C90EB
:105200001C97F501808091804FEF5FEF512CC52CEA
:10521000D12CF601EE0FFF1FE80DF91D6591749179
:105220006616770609F4A601672B11F05394EFCFA9
:105230004F3F5407B9F1B80102C0660F771F4A9576
:10524000E2F7462AA801052C02C0440F551F0A9414
:10525000E2F7415051094416150609F5229EF00166
:10526000239EF00D1124E652FC4FF89ED001F99ECA
:10527000B00D1124A458BE4F12962D913C91139756
:105280003087278374E0748310821182928781872C
:105290001596EC920E94C2062196C37084CF149694
:1052A0001C9214972F5F3F4F1D96A4CFAEE1B0E044
:1052B000ECE5F9E20C942E354B8B5C8B6D8B7E8B81
:1052C0008F8B988F91111092D703188A198A1A8A96
:1052D00086E0FE017396DE011A9601900D928A9582
:1052E000E1F78E85882381F061E0CE010A960E9465
:1052F00008129C019F8520354CE7340789F49923D7
:1053000011F181E080939F010A851B852C853D85E5
:105310004E855F85688979898A890E94EE27CBC08E
:1053200021355CE7350729F4992369F00E94B428F8
:10533000EBCF22353C4739F4992329F080919F0126
:105340008111F4CFDECF6A857B8580E00E949411C5
:105350004C01FCE7EF2EF1E0FF2E512CD12CC12C9B
:10536000AA24A394B12CB7E04B2EFE013196FA8FFC
:10537000E98F33243394F7014081518166246A9484
:10538000762C60E0262F30E0F901EE0FFF1FE40FCE
:10539000F51F859194918816990609F43901892B96
:1053A00011F06F5FEFCF10E0FFEF6F167F0609F48B
:1053B00043C0F701448110919F01812F411180E08A
:1053C000182F1170F701258086819F85992309F494
:1053D000F2C0112309F4EFC0211014C09501062C6E
:1053E00001C0220F0A94EAF7822B86838091D503AD
:1053F0009091D603C29730F422E330E03093D60385
:105400002093D503C50102C0880F991F6A95E2F762
:105410000197F70126812817190671F480914C0431
:1054200090914D04009709F44AC00E94CC1AC3978A
:1054300008F445C0F7013482512AFFEFCF1ADF0A82
:1054400027E0E20EF11C35E0C316D10409F093CF3A
:105450008F85882309F40EC1552009F40BC10E94E1
:10546000DB1A90934D0480934C048091D9038830CB
:1054700010F591E0980F9093D90399E0FE013A96C8
:10548000DE01119601900D929A95E1F74DE0849F0F
:10549000C001112486529C4F29E0FE013196DC01A7
:1054A00001900D922A95E1F72FEF3FEFFC01328733
:1054B0002187948683866E96E2E10C944A3580912A
:1054C0004A0460914B04982FF0E0E0E0861314C08A
:1054D00090934A04EE15FF0509F4AECF90E0FC016D
:1054E000EE0FFF1FEE5BFB4FD182C08201968370EF
:1054F000992780934B04A0CF682E712CF301EE0FF7
:10550000FF1FEE5BFB4F20813181429ED001439E05
:10551000B00D1124A458BE4F2D913C9111973E8F90
:105520002D8F00E070E0212CE22DF0E0EE0FFF1F48
:105530002D8D3E8DE20FF31F2591349121153105FC
:10554000E1F0F7010190F081E02DFC8FEB8F70E02E
:1055500005C02417350709F4012F7F5FE72FF0E01E
:10556000EE0FFF1F4B8D5C8DE40FF51F459154919D
:105570004115510571F72394D7CF0023C9F0F701E6
:10558000721508F0FD013482EE16FF0621F49093A7
:105590004A04102F51CF891305C0AE17BF0711F46D
:1055A0009F5F937093012F5F3F4F822F83708ECF49
:1055B000F0E0E0E0F7CF90E021101FC0950102C0BD
:1055C000220F331F6A95E2F72150310982179307A2
:1055D00031F4442309F44CC0C6010E94C206C5013F
:1055E000062C01C0880F0A94EAF7982F9095F701CE
:1055F000868189238683122D1FCFAC01062C02C021
:10560000559547950A94E2F7BA01617077279C0196
:105610002150310982239323892B31F5672B21F106
:10562000F70182819381892BE1F0E98DFA8D242D98
:1056300011922A95E9F70E94DB1A282F8B839C830D
:1056400034E03D83F70182819381782F88879987A1
:1056500009811A813C8144E05E816F81892F0E941B
:10566000EE27F7011582BBCFF42FF1702F2EB7CFA5
:10567000212EB5CF90914A0480914B04981729F0C0
:105680000E94C328511017CF3FCE0E945B28109272
:105690004D0410924C040E94F006F4CFA6E0B0E056
:1056A000E4E5FBE20C943C350E94DB1A8C0180910E
:1056B0003402909135028017910781F019821A8285
:1056C0000E94DB1A682F49815A81792F80E090E08F
:1056D0000E94562910933502009334022696E4E086
:1056E0000C9458351F921FB61F9211248F939F93CD
:1056F000AF93BF9380915004811113C080915104E6
:1057000090915204A0915304B09154044196A11D6C
:10571000B11D8093510490935204A0935304B0930D
:105720005404BF91AF919F918F911F901FBE1F9006
:105730001895CDB7DEB7A6970FB6F894DEBF0FBEAB
:10574000CDBF85B7806885BF85B7806885BF84B7C2
:10575000877F84BF0FB6F894A89580916000886118
:1057600080936000109260000FBE80E890E00FB65A
:10577000F89480936100909361000FBE88E797E0F2
:105780009093FB018093FA010E9447050E94E8056F
:105790008091E20084608093E200789480916304B9
:1057A0008823A1F01091E9001F709091EC00892FDF
:1057B000817090FD80E8182B1092E9008091E8003C
:1057C00083FD0E94B60B1F701093E90082E084BD38
:1057D00093E095BD9AEF97BD80936E001092AF0253
:1057E0001092B0021092B1021092B2020E944112C5
:1057F000811102C00E9455110E9456108093000131
:1058000080910001882309F468C01092A1018EE103
:105810008093A2010E94061081110E94B8338091EA
:1058200000018091000194E0811190E09093BC020E
:1058300084E0891B8093BB0284EF0E94A60785EF5A
:105840000E94A60786EF0E94A60787EF0E94A60780
:1058500002ED11E0D8018D918D018F3F11F00E9472
:10586000A607B1E0083D1B07A9F788E0EAECF2E0E3
:10587000DF01882E1D928A94E9F7E3EBF2E0DF0165
:105880001D928A95E9F70E947315811102C00E944A
:10589000861782E090E00E94F5358093C00284E094
:1058A00090E00E9403369093BE028093BD020E9456
:1058B000091EEFE3FCE93197F1F700C000000E94F8
:1058C000091E8091CA0280FF0CC06FEF7FEF90E04D
:1058D00080E00E9437360E94A5068EE18093A101E8
:1058E00097CF83E090E00E94F5350E9408098091EF
:1058F000AA030E94D3130E940610882309F4A8C1AA
:1059000080E08093CB0380E88093B7040E947232DA
:105910006BE070E085E792E00E945A128823E9F17B
:105920008091CB0365E070E081FD94C180E792E057
:105930000E945A12882389F16DE070E08EE592E0B2
:105940000E945A12882349F10E94B606605A754196
:105950008F4F9F4F6093CD037093CE038093CF03FF
:105960009093D003EAEBF4E080E092E0DF019C0149
:105970001D9221503040E1F7F093C106E093C0063C
:105980008FEF9FEF9093B9048093B80481E08093E8
:10599000D4038093D1031092CC038091BF02811174
:1059A00076C00E947315811104C00E9486170E9460
:1059B0003F1588E090E00E94FD354B015C0184E2D8
:1059C00090E00E94F535282F30E040E050E060E0A4
:1059D00070E080E090E000E20E94A035282939299B
:1059E0004A295B292093A2033093A3034093A40385
:1059F0005093A5036093A6037093A7038093A80315
:105A00009093A9038091ED0283608093ED022E7F35
:105A100089F50E943F1588E090E00E94FD356B01FA
:105A20007C0184E290E00E94F535282F30E040E0D0
:105A300050E060E070E080E090E00E94A035B22F7E
:105A4000A32FF42FE52F5B0197018601BC29A12B21
:105A5000FE29E32BB093A203A093A303F093A40326
:105A6000E093A5036093A603B092A7038093A803D5
:105A70009093A9030E941D078091A20380FF04C098
:105A800060E086950E94081581E08093BF020E9425
:105A90000610811102C00E94BB330E9448190E9467
:105AA000061081112EC084E990E1909350018093FB
:105AB0004F0129E130E030934B0120934A0189E303
:105AC00090E090934E0180934D0144E657E050934F
:105AD0005801409357013093530120935201909302
