:100000000C9436050C9453050C9453050C942B3426
:100010000C9453050C9453050C9453050C94530500
:100020000C9453050C9453050C94FC190C94B819BA
:100030000C949F2B0C9453050C9453050C9453056E
:100040000C9453050C9453050C9453050C945305D0
:100050000C9453050C94D51A0C9453050C94530529
:100060000C9453050C9453050C9453050C945305B0
:100070000C9453050C9453050C9453050C945305A0
:100080000C9453050C9453050C9453050C94530590
:100090000C9453050C9453050C9453050C94530580
:1000A0000C9453050C9453050C9453050E000F004B
:1000B00000000D000E0000001000360000001800C7
:1000C0000C0000000D000900000014001A000000E0
:1000D00009000E00000009001C0000000D001700C0
:1000E00000000900110000000D00080000000900D8
:1000F0000B0000000D0004000000090018000000C3
:100100000D00070000000900130000000D000500AD
:1001100000000D001A0000000D00160000000D0088
:100120001400000005010902A10185020901A100D6
:100130000509190129081500250195087501810295
:100140000501093009311581257F95027508810661
:1001500009381581257F950175088106050C0A3837
:10016000021581257F950175088106C0C00660FFD4
:100170000961A1010962150026FF0095207508811B
:10018000020963150026FF00952075089102C0053D
:10019000010906A101050719E029E71500250195C8
:1001A000087501810295017508810105071900296B
:1001B000FF150026FF009506750881000508190146
:1001C0002905150025019505750191029501750315
:1001D0009101C000000000000000000000000000CD
:1001E000000000000000000000000000000000000F
:1001F000000000000000007E0F00D4FFFFFFC700DA
:1002000000007800000000000000002A2B280000F9
:1002100000000000000000000000000000002900B5
:100220000000002C1E3420212224342627252E36BF
:100230002D3738271E1F202122232425263333362D
:100240002E37381F0405060708090A0B0C0D0E0F80
:10025000101112131415161718191A1B1C1D2F3103
:1002600030232D350405060708090A0B0C0D0E0F67
:10027000101112131415161718191A1B1C1D2F31E3
:1002800030354C6162636465666768696A6B6C6D82
:100290006E6F707172737475767778797A313233E4
:1002A00034353637383930524542545F2D3D5B5D29
:1002B0005C233B27602C2E2F00DA0281FFD9F1DB73
:1002C00020A4A62EAF00A0C0D30000A1C8D3000078
:1002D000AED580A81F408D1420000001010101014E
:1002E00001010101020202020202020202030303EF
:1002F00003030303030404040404040405050505BF
:10030000050606060606070707070708080808097E
:100310000909090A0A0A0B0B0B0C0C0C0D0D0D0E2A
:100320000E0E0F0F0F1010111111121213131414BF
:10033000151516161717181819191A1A1B1B1C1D34
:100340001D1E1E1F2020212222232424252626278D
:100350002829292A2B2C2D2D2E2F303132323334BF
:1003600035363738393A3B3C3D3E3F4041424344C5
:1003700045464748494A4C4D4E4F505153545556A7
:1003800058595A5B5D5E5F616264656668696B6C53
:100390006D6F7072737577787A7B7D7E80828385CE
:1003A00087888A8C8E8F91939596989A9C9EA0A20E
:1003B000A3A5A7A9ABADAFB1B3B5B7BABCBEC0C218
:1003C000C4C6C9CBCDCFD1D4D6D8DBDDDFE2E4E7DC
:1003D000E9EBEEF0F3F5F8FAFDFF00AF00AE2020F8
:1003E00000BABB004B657920B10020C0C100BEBF80
:1003F00000484F005654003030200020202020B10B
:10040000BCBD0042616C6CB100B4B500B2B300C2B7
:10041000C3004CB6B772B100202000290014001AA6
:10042000000800150017002B000400160007000943
:10043000000A00E1001D001B000600190005000075
:1004400000E200E30091212C4190434C0013001284
:10045000000C0018001C00240233000F000E000DD9
:10046000000B008700380037003600100011000034
:10047000004600E600913128422A000F7E3A003BF8
:10048000003C003D003E000D7E01000100520028AE
:10049000004C000E7E0100500051004F002A000069
:1004A000000100010001000100010044004300427E
:1004B00000410040003F004500D300D2005200D16F
:1004C000004B00010001004F00510050004E0000A1
:1004D00000010001000100010001000100340224BC
:1004E00000250026002502010033022100220023FE
:1004F00000300001002D021E001F0020003002000D
:100500000027003700010001000100010021022F37
:100510000023021E0226021F02340020022E022D9A
:10052000003200890238022F022E008702320200B8
:100530000001000100010001004C0020780A7E0B40
:100540007E0C7E0100010021782378257827780130
:1005500000087E22782478267828780100097E0019
:1005600000007C007E01000100010030782F782E11
:10057000782D782C782B780100010034783378328C
:10058000783178017E0100047E027E037E057E00C4
:1005900000007C007E01000100010001000100015B
:1005A0000001000100010001000100010001000143
:1005B0000001000100010001000100010001000034
:1005C0000001000100010001000100010001000123
:1005D0000001000100010001000100010001000113
:1005E0000001000100010001000100010001000004
:1005F000000100010001000100010009025B00038D
:100600000100A0FA09040000010301010009211101
:1006100001000122440007058103080001090401CB
:10062000000203000000092111010001222200073D
:1006300005820320000107050303200001090402CD
:1006400000010300000009211101000122490007F7
:100650000584032000011201000200000008575920
:10066000000400010102000114034B006500790041
:10067000620061006C006C00340034000000100364
:1006800059006F0077006B00650065007300000083
:100690000403090400000000000000002F00000017
:1006A000000700070000123F123F1200242A7F2A91
:1006B000120036091E241B001826291228000000EB
:1006C00007000000001E214000000040211E000025
:1006D00014083E08140008083E08080000003070A6
:1006E0000000080808080800000030300000201052
:1006F0000C0201001E2925231E0000223F200000BD
:10070000223129292600122125251A001814123F0A
:1007100010001725252518001E2525251800013154
:10072000090503001A2525251A00062929291E0076
:10073000000033330000000033730000081414225B
:1007400022001414141414002222141408000201AC
:10075000290502003E59555D3E0038161116380035
:100760003F2525251A001E21212112003F2121218C
:100770001E003F25252521003F09090901001E21F2
:1007800021291A003F0404043F0000213F210000FA
:10079000102020201F003F040C1221003F202020A9
:1007A00020003F0204023F003F020C103F001E21C8
:1007B00021211E003F09090906001E2129112E00D2
:1007C0003F090919260012252529120001013F01C0
:1007D00001001F2020201F000718201807000F30DD
:1007E0000C300F0021120C12210003043804030006
:1007F000312925232100007F4141000001020C1016
:1008000020000041417F000004020102040040403A
:1008100040404000000103040000102A2A2A3C0046
:100820003F2422221C001C22222224001C222224DB
:100830003F001C2A2A2A0C0000043E0505000C5229
:1008400052543E003F080404380000003D00000000
:100850002040403D00003F080814220000013F20D6
:1008600000003E023C023C003E0402023C001C220E
:1008700022221C007E1422221C001C2222147E0034
:100880003E0402020400242A2A2A120000021F2227
:1008900000001E2020103E000618201806000E3012
:1008A0000C300E002214081422000E5050483E0056
:1008B00022322A26220008087741410000007F00EA
:1008C0000000414177080800180408100C000000DF
:1008D0000000000000000000000000000000000018
:1008E000C0F0F88C86C6E7FFFFFFFFFFFFFEFCFCB1
:1008F000F8E080000000F0F0F00000C0E0F0707060
:1009000000000000000000000000000000000000E7
:10091000000000000000F8F8F800000000000000EF
:10092000000000000000000000000000F8F8F800DF
:1009300000F8F8F8000000000080E07078686C644F
:10094000C7C7C7C7C7C7E73F1F0F3FFFFFFFFFFF6F
:10095000FF3F0F000000FFFFFF1E3FFFF3E180009D
:1009600000F8FCFE3636363EBCB8000E3EFEF08087
:10097000F0FE3E0E0000FFFFFF060606FEFEFC70C6
:1009800000E6F6F63636FEFEFC000000FFFFFF0034
:1009900000FFFFFF000000003C7F6360E0C0C0C0BC
:1009A000C0C0C0C0C0FFFFC06030180F0303030108
:1009B0000000000000000303030000000303030322
:1009C00000010303030303030301007070393F1F99
:1009D00007010000000001030303030303030100F8
:1009E00000010303030303030100000003030300EA
:1009F0000003030300101010000000005500000069
:100A00003E635D5D637F417B77413E00001C222297
:100A10001C003E0A003E0A00322A3C0026281E0026
:100A20001C2A2C0000003F09360000001E21210076
:100A3000000000003F0837001E2121001E21210078
:100A40003F090600213F2100222519001E21210017
:100A50003F0936003F211E00213F21000F300F00CB
:100A60003E093E003F063F003F20200011241FBEEC
:100A7000CFEFDAE0DEBFCDBF12E0A0E0B1E0E4E905
:100A8000FDE602C005900D92A236B107D9F727E026
:100A9000A2E6B2E001C01D92AC32B207E1F70E94BB
:100AA000C62B0C947A360C940000482F20911E051A
:100AB0009091D50459E0291302C080E0089530E0F8
:100AC000529FF001539FF00D1124EA52FB4F818198
:100AD000681306C08081481303C085818111EECF61
:100AE0002F5F3F4F2770E7CFE8EDF0E080818E7FEA
:100AF00080831092E2001092DA001092E100A0EEE2
:100B0000B0E08C9181608C9380818F77808319BC59
:100B1000A7EDB0E08C918E7F8C9380818F7E808357
:100B20001092BD0408952091E4003091E50095E60F
:100B3000A9012091EC00822F817020FF06C08091D6
:100B4000E80080FF06C080E008952091E80022FDC3
:100B50001AC08091CB04882389F0853089F0809178
:100B6000EB0085FD0FC02091E4003091E5004217B5
:100B70005307F9F29150E1F684E0089582E0089578
:100B800083E0089581E008958091CD0487FF13C02C
:100B90008091E80082FF06C08091E8008B77809307
:100BA000E80004C08091CB048111F2CF08958091B8
:100BB000CB048823D9F38091E80080FFF8CF80919F
:100BC000E8008E77ECCF982F9093E900242F762FB2
:100BD00050E0891731F07091EC002091ED005091B8
:100BE000F00021FD07C09F5F973071F78093E90007
:100BF00081E008953091EB003E7F3093EB0030911F
:100C0000ED003D7F3093ED003091EB00316030938B
:100C1000EB007093EC002093ED005093F0002091D6
:100C2000EE0027FDE0CF80E00895B0E0A0E0EBE12A
:100C3000F6E00C946535C8EDD0E088818F7E88831E
:100C4000E7EDF0E080818160808384E082BF81E015
:100C50008093BD0488818E7F888302EE10E0F801C6
:100C600010821092DA0081EEC82ED12CF60110828B
:100C700088818F77888388818068888388818F7D49
:100C8000888319BC1092CB041092CC041092CA0431
:100C90001092C90490EEE92EF12CF70180818B7F30
:100CA000808388818160888342E060E080E00E94E8
:100CB000E305F60180818E7F8083F8018081816069
:100CC0008083808188608083F70180818E7F80832C
:100CD000888180618883CDB7DEB7E8E00C948135E8
:100CE000FC018091D3049091D40486179707A0F05B
:100CF0006115710529F49091E8009E779093E800C2
:100D000090E06115710551F4911108C08091E800DF
:100D100082FF34C080E00895BC01F2CF8091CB0403
:100D20008823C1F18530C1F18091E80083FD30C096
:100D30008091E80082FDEACF8091E80080FFE1CF5A
:100D40008091F3002091F200382F6115710519F0A0
:100D50002830310558F091E02830310509F090E055
:100D60002091E8002E772093E800CBCF81918093EB
:100D7000F100615071092F5F3F4FE7CF8091CB04A5
:100D8000882341F0853041F08091E80083FFBECF99
:100D900081E0089582E0089583E0089508958091A8
:100DA000C004089587E797E79093010880930008AF
:100DB00088E19AE00FB6F894A895809360000FBE82
:100DC00090936000FFCF2FB7F8946091B9047091B1
:100DD000BA048091BB049091BC042FBF0895DC013C
:100DE0006091B2048091B304962F891301C00895D5
:100DF000292F30E0F901EE0FFF1FE655FB4F408130
:100E000051814A175B07A1F487E08A9FA0018B9F5D
:100E1000500D112444585E4F81E0FA0184839613EB
:100E2000E6CF2F5F3F4F237033272093B2040895FE
:100E30002F5F3F4F922F9370D8CF10923E041092A5
:100E40003D04ECE7F1E08581811102C01482168235
:100E5000379682E0E830F807B1F70895FC01680F93
:100E6000791F8FEF91E32191822728E030E087FFFF
:100E700009C0880F892721503109C9F7E617F707FC
:100E800091F70895880FF7CFFA01811101C0FB0196
:100E90000995089580910A04982F9E7F71F480919E
:100EA0000A048170826080930A0480910D0487395E
:100EB00018F086E980930D040895843080F7F5CF0B
:100EC00090917401882341F09F5F90937401109278
:100ED00071011092700108959150F7CFE9E6F1E0A9
:100EE000828591E0892782871086178208958091F4
:100EF0007201811114C080917401811110C0809120
:100F0000730181110CC09091520396959695969518
:100F100081E020916A01921380E08170089581E060
:100F2000FCCFCF93DF93EFE0F2E083819481A58142
:100F3000B681E90188839983AA83BB8314821382D3
:100F400016821582DF91CF91089580E0089563E0C5
:100F500070E08FEB92E00E942E079091BE02891301
:100F600018C0E091BF02EC30A4F488E0E802F00180
:100F70001124EF5FFE4F0680F781E02D309749F096
:100F800022EE32E04091C10262EC72E08091C00238
:100F900009950895E9EAF2E0878980933101808D0F
:100FA000809344010895F894E82FE295EF70F0E003
:100FB00031A1282F2F7081E090E001C0880F2A9581
:100FC000EAF7982F9095932391A392A1892B82A35E
:100FD00078940895811522E5920780F5811530E512
:100FE000930708F0ABC0883E9105A0F4803E9105C0
:100FF00058F4853A910548F48430910528F48130FD
:10100000910511F090E080E008958D3C9105D0F3BA
:1010100090650895811540E4940708F044C0811557
:1010200050E2950708F0A3C0811561E0960750F3E0
:1010300020E0392FA901482BCA010895803872E5B4
:101040009707A8F4803622E5920708F05AC080344A
:1010500032E5930708F03FC0803242E5940730F153
:101060008F7190E0982F8827816F906A0895803C57
:1010700052E5950760F4282F2F71803A924508F4C5
:1010800056C0822F90E0982F882790620895803E66
:1010900072E5970708F0B6CF982F882788279F71A9
:1010A000806F906A08959F70906A0895282F269502
:1010B000269550E2259F90011124837041E050E075
:1010C000BA0102C0660F771F8A95E2F7CB01822B27
:1010D000932B9D680895282F26952695277070E2FA
:1010E000279F90011124837041E050E0BA0102C0B3
:1010F000660F771F8A95E2F7CB01822B932B9C68B2
:101100000895282F26952695277070E2279F900135
:101110001124837041E050E0BA0102C0660F771FCE
:101120008A95E2F7CB01822B932B9A680895822F40
:1011300090E0982F8827846F906A08959C0195E02D
:10114000369527959A95E1F72F7030E0322F2227B8
:10115000482F4F7150E084FF05C084E0440F551FB5
:101160008A95E1F7C901842B952B906908959F71A9
:101170008CCF80959091BE0498239093BE040895DF
:1011800080911E059091D504981301C008958F5F3A
:101190008770FACF292F983078F5863068F590E07F
:1011A00036E0239F800D911D1124682F677023E086
:1011B000969587952A95E1F7FC01EE0FFF1FE80F42
:1011C000F91FE958FD4F50E040E080E0219130E008
:1011D000062E02C0369527950A94E2F72170332730
:1011E000042E01C0220F0A94EAF7822B4F5F5F4F53
:1011F0004330510559F7089580E00895292F98301C
:1012000098F5863088F590E036E0239F800D911D9B
:101210001124282F277041E001C0440F2A95EAF7D6
:1012200023E0969587952A95E1F7FC01EE0FFF1FC5
:10123000E80FF91FE958FD4F30E020E070E05191D0
:10124000DF011197CB01022E02C0969587950A9473
:10125000E2F7817081958527842385278C932F5F02
:101260003F4F2330310559F7089580939B0208952D
:10127000982F92959F7011F0892F94E0282F269532
:10128000269511F09E5F822F869509F09F5F892F2A
:101290000895CF93C82F80911C028C1751F00E94A3
:1012A000E30660931D0270931E0280931F029093C9
:1012B0002002C0931C02CF910895B0E0A0E0E3E6C5
:1012C000F9E00C9465358C01EB01E0912102E1110C
:1012D00001C0E7E0E150FF0B81E090E06C010E2ED1
:1012E00002C0CC0CDD1C0A94E2F7D801ED90FC9012
:1012F000C701B6010E94AC359B01CB010E2E02C086
:10130000880F991F0A94E2F7E81AF90AD801119692
:10131000FC92EE921296ED90FC90C701B6010E94ED
:10132000AC35CB0102C0880F991FEA95E2F7E81AA5
:10133000F90AF801F382E2826138FFEF7F07F4F0E7
:1013400060387105ECF46D8321388FEF3807D4F0E5
:1013500020383105CCF4822F81958C83442319F0F9
:1013600061956D832C8380912202882379F08130EE
:1013700079F0CDB7DEB7E8E00C94813561E8E3CFD2
:101380006FE7E1CF21E8E7CF2FE7E5CF1D82F1CF6F
:101390001C82EFCFFC01DB012281338191E82138EF
:1013A0008FEF38072CF0922F203831050CF09FE793
:1013B00012969C9312972081318121388FEF380744
:1013C000A4F0203831059CF413962C9313974423F2
:1013D00039F0919512969C931297219513962C9320
:1013E0001182108213821282089521E8EDCF2FE737
:1013F000EBCF8F708A3010F4805D0895895A08957C
:10140000382F20E287FF02C031952DE24AE0832F7A
:10141000642F0E949E35905D90936F0281110BC0E6
:1014200020936E0220E220936D0220E220936C0252
:101430008CE692E00895642F0E949E35905D909313
:101440006E02832F64E60E949E35882361F3805DDF
:1014500080936D02EBCF9C01860F971F37FD07C06D
:1014600077FD04C097FF02C08FEF9FE7089577FFD5
:10147000FDCF97FDFBCF80E090E80895E2E7F1E033
:1014800083E0DF011D928A95E9F7EEE6F1E084E062
:10149000DF011D928A95E9F7089520916B01309143
:1014A0006C012817390731F090936C0180936B0120
:1014B0000E943E0A089590916901981721F0809347
:1014C00069010E943E0A0895CF9390914D03809147
:1014D0004603981323C080914E03882321F09091F6
:1014E000470389131BC080914F03882321F09091FB
:1014F0004803891313C080915103882321F09091F0
:101500004A0389130BC090915003992329F081E07D
:1015100020914903291303C080E001C081E0C82F56
:10152000C17080FF0FC0E091B604F091B70430970E
:1015300049F082E080934C030480F581E02D8CE437
:1015400093E0099590914D0386E0ECE4F3E0DF0130
:10155000282F1D922A95E9F790934D03A5E4B3E057
:1015600001900D928A95E1F781E0C11103C09111BC
:1015700001C080E08170CF9108952FE2280F2830BC
:1015800078F481E090E001C0880F2A95EAF7209175
:101590004D03662331F0822B80934D030E94640A31
:1015A000089580958223F8CFCF93DF93282F81E091
:1015B0002A3019F02D3031F480E00E94680BDF9161
:1015C000CF910895809128079091290736E0FC017A
:1015D000A2E2B7E001900D923A95E1F730EE320FBA
:1015E000343A08F458C026E0FC0111922A95E9F734
:1015F000C0912807D091290746E050E0BE0182E261
:1016000097E00E940C369E0122523540892B41F111
:10161000C90145E0969587954A95E1F741E050E08C
:10162000BA0102C0660F771F8A95E2F7CB0160917D
:10163000200570912105862B972BB9016B5F7F4F99
:10164000E5E076956795EA95E1F702C0440F551FEE
:101650006A95E2F7842B952B9093210580932005C2
:101660002A5F3F4F40911F05642F70E0C9010E941F
:101670004735481B463010F4240F311D211572E008
:10168000370710F030E020E02E5D3A4F3093290705
:101690002093280794CF2052330B46E0429FB0019D
:1016A000439F700D11246C56794F46E050E00E9424
:1016B00003369ECFCF93DF93EC01FE01849181111D
:1016C00003C0DF91CF9108950E94D40A2196F5CFEF
:1016D000CF93382FE0912807F0912907E252F54087
:1016E00020911F05622F70E0CF010E944735281B13
:1016F000822F332361F066E00E949235C82FC150DB
:1017000010F4CF91089580E20E94D40AF8CF9F018F
:10171000280F311D2115324018F080E0F0E0E0E0A4
:101720008E0F9F2F911D8E5D9A4F90932907809366
:101730002807E7CF8091BE0490913F04892B8093C6
:10174000640290919A02992391F0892B809364020C
:1017500020E086E692E0FC013191CF0131112F5F4C
:10176000F2E08C369F07B9F7211110929A0248E0F7
:1017700050E062E972E084E692E00E940C36892B28
:10178000A9F088E0E4E6F2E0A2E9B2E001900D926F
:101790008A95E1F7E091B604F091B704309731F003
:1017A0000280F381E02D84E692E009950895E6E653
:1017B000F2E086E0DF011D928A95E9F710923F047E
:1017C0000E949A0B0895AAE2B0E0E9EEFBE00C94C7
:1017D0006A358DEC94E02091F100DC012D93CD0170
:1017E000B4E0853D9B07B9F78091CE04833009F4BE
:1017F00072C0B8F4813009F449C0823009F4B5C030
:101800008091E80083FF8DC28091CD049091CE0439
:101810009A3008F086C2E92FF0E0E458F94C0C94B5
:10182000C0358A3009F490C08B3009F471C089301A
:1018300039F78091CD04813219F78091D1049091CC
:10184000D204009711F00297D9F68091E800877FC3
:101850008093E8008091E80082FF38C09091F30007
:101860008091F200029731F48091F100813011F003
:10187000863021F48091F1008093C0048091E800CB
:101880008B778093E8000E94C405BACF8091CD0485
:10189000813A09F0B5CF8091E800877F8093E80016
:1018A0008091D1049091D204892B61F468E081EC9D
:1018B00094E070E00E9470068091E8008B7780933E
:1018C000E8009ECF60E090E080E0F3CF8091CB0411
:1018D0008111C0CF95CF8091CD04813A09F090CF8E
:1018E0008091D1049091D204892B09F089CF809105
:1018F000E800877F8093E8008091E80080FFFCCFBC
:10190000809109028093F1008091E8008E77B9CF31
:101910008091CD04813209F073CF8091D1049091F0
:10192000D204892B09F06CCF8091E800877F8093E7
:10193000E8000E94C4058091CF04809309021092B0
:10194000BE040E94D70B5CCF8091CD04813209F098
:1019500057CF8091E800877F8093E8000E94C405FC
:101960008091D0048093BF044BCF8091CD04813A05
:1019700009F046CF8091E800877F8093E80080914E
:10198000E80080FFFCCF8091BF04BCCF803899F085
:10199000823809F0C6C18091D1048F70873008F079
:1019A000C0C18093E9008091EB0085FB882780F916
:1019B0001092E90006C08091C9049091CA04911167
:1019C00082609091E800977F9093E8008093F10007
:1019D0001092F1008091E8008E779FC1882309F46E
:1019E0008DC1823009F09DC18091CF04811190C1D9
:1019F0008091D1048F702FEF280F263008F091C10D
:101A00008093E9002091EB0020FF82C1933031F4F4
:101A10008091EB0080628093EB007AC19091EB00A3
:101A200090619093EB0021E030E001C0220F8A9595
:101A3000EAF72093EA001092EA008091EB008860B8
:101A4000EACF81116EC11091CF041F778091E3001E
:101A50008078812B8093E3008091E800877F8093DA
:101A6000E8000E94C4058091E80080FFFCCF8091CF
:101A7000E30080688093E30082E0111183E08093AB
:101A8000CB044FC18058823008F04BC12091CF0465
:101A90003091D0042C3DE3E03E07A1F583E08A833A
:101AA0008AE289834FB7F894DE01139620E03EE086
:101AB00051E2E32FF0E050935700E49120FF03C080
:101AC000E295EF703F5FEF708E2F90E0EA30C0F04C
:101AD000C7968D939D932F5F243159F74FBF809107
:101AE000E800877F8093E8006AE270E0CE0101960B
:101AF0000E9470068091E8008B778093E80011C106
:101B0000C096E7CF8091D1049091D204432F5527FE
:101B10004330510509F44AC078F54130510509F4C4
:101B20007AC08BE590E0EBEFF5E04230510509F02B
:101B3000F8C02091E800277F2093E8002091D3048B
:101B40003091D4048217930708F49C0140E02115DA
:101B5000310509F065C0411163C08091E80082FD44
:101B6000C9CF8091CB04882329F2853019F2809166
:101B7000E80083FFF2CFBECF4132510509F43CC0EB
:101B80004232510509F0CDC08330910508F0C9C03B
:101B9000FC01EE0FFF1FEA5AFD4F0190F081E02D8E
:101BA0008D5A9D4FDC018C9190E01AC03327213073
:101BB0003105D1F02115310561F02230310509F0F0
:101BC000B0C0E8E6F6E0E4918E2F90E0E8E6F6E0BB
:101BD00007C0E0E9F6E0E4918E2F90E0E0E9F6E05E
:101BE000009709F49EC0A5CFEEE7F6E0E4918E2FB2
:101BF00090E0EEE7F6E0F4CF8330910508F091C075
:101C0000880F991FFC01E45AFD4F0190F081E02DEF
:101C100089E090E08ECF82E190E0E6E5F6E089CFC2
:101C20008091CB04882309F465CF853009F462CF15
:101C30008091E80083FD5ECF8091E80082FD8DCF2A
:101C40008091E80080FF83CF9091F3008091F200B3
:101C50002115310519F08830910550F041E00897C1
:101C600009F040E08091E8008E778093E8006FCF24
:101C700044914093F1003196215031090196E8CF0B
:101C8000803809F04EC08091E800877F8093E8009B
:101C90008091CC048093F1009DCE811142C01091BF
:101CA000CF041230F0F58091E800877F8093E80040
:101CB0001093CC040E94C405112311F084E005C0E8
:101CC0008091E30087FDFACF81E08093CB0442E06E
:101CD00061EC81E00E94E30542E261EC84E00E9455
:101CE000E30542E261EC82E00E94E30542E260EC3F
:101CF00083E00E94E3058091CB0413C08091CF0460
:101D0000813079F481E0933009F080E08093CA0457
:101D10001092E9008091E800877F8093E8000E949C
:101D2000C4058091E80083FF0AC08091E800877FA6
:101D30008093E8008091EB0080628093EB00AA968C
:101D4000E3E00C948635882321F00E94B9080E94B4
:101D50009A0B0895882339F09091BE04982B9093A4
:101D6000BE040E949A0B0895882349F19CEF980FB6
:101D7000913A80F4E6E6F2E02CE632E091918913A4
:101D800003C0DF0111971C922E173F07B9F70E947D
:101D90009A0B089590E2980F983050F4877091E074
:101DA00001C0990F8A95EAF7892F0E94B908EFCFF1
:101DB00093E3980F933118F460E00E94BD0A0895F0
:101DC0000F931F93CF93C82F882341F18CEF8C0F73
:101DD000813AB0F506E612E08CE692E0F801219136
:101DE000C21701F18E179F07D1F7EFEF80E0D801FE
:101DF0009D918D01C91781F0EF3F19F4911101C038
:101E0000E82F8F5F863099F7EF3F31F00E2E000CF0
:101E1000FF0BEC59FD4FC2830E949A0BCF911F918B
:101E20000F910895E6E6F2E02191C21303C0DF01AD
:101E300011971C928E179F07B9F70E949A0BD5CF66
:101E400080E28C0F883068F4C77021E030E001C078
:101E5000220FCA95EAF78091BE04822B8093BE04BC
:101E6000DBCF83E38C0F8331C8F661E08C2F0E94B7
:101E7000BD0AD4CF0F931F93CF93DF93EC01FC01E6
:101E800001900020E9F78F0101501109C017D10717
:101E900028F0DF91CF911F910F91089589910E94B1
:101EA000D40AF4CF0F931F93CF93DF938B01EA01F2
:101EB0009091CB04943061F58093E9008FEF90917D
:101EC000E800815095FD06C095ED9A95F1F7000068
:101ED0008111F5CF8091E80085FF1AC00E9493051B
:101EE000811111C08091E80085FD06C08091E80055
:101EF0008E778093E800F2CFF80181918F01809373
:101F0000F100219779F78091E8008E778093E800BF
:101F1000DF91CF911F910F91089546E050E0BC01F1
:101F200084E00E94520F0895CF93DF93EC0148E0C4
:101F300050E0BC0181E00E94520F88E0FE01A1EC5C
:101F4000B4E001900D928A95E1F7DF91CF91089569
:101F500060910B0280910A0480FF20C080910A02E8
:101F600043E0849FC00111248A5A9C4F539A2BB19D
:101F7000277F3BB138605FB7F894FC01649FE00DA8
:101F8000F11D1124BF0168177907D1F45FBF8FE5F8
:101F900094E00197F1F700C00000089580910C02D1
:101FA00090910D0223E0829FF0011124EA5AFC4F28
:101FB0008917A0F61182108212828F5F3396F8CFB4
:101FC000FC014191CF01E8E03BB9000000C047FFB0
:101FD0002BB9440F000000C000C000C02BB900C0E6
:101FE000EA9591F7D0CFEAE0F4E080818E7F80839C
:101FF000E3E5F3E08281816082830E94A80F089567
:10200000B0E0A0E0E6E0F0E10C9463357C015B0118
:102010006A018091160301E010E08A3010F40AE0B2
:1020200010E0C1E0D0E0B501C701F60109958111CA
:1020300004C021960C171D072CF4CDB7DEB7EAE0DB
:102040000C947F35CC9F9001CD9F300D300D112425
:1020500090E080E045E34A95F1F700000196821791
:102060009307C1F7E0CF8091A802811119C088ECD5
:1020700090E02091E30027FD10C0EFE3FCE93197E9
:10208000F1F700C000000197A1F782E08093A80259
:102090000E9474051092CB0403C081E08093A802D3
:1020A00081E09091A802913011F080E008950895A8
:1020B0000E943310882359F0E091B604F091B704E0
:1020C000309729F00190F081E02D0995089580E086
:1020D00008950F931F930E943310882329F00E94C4
:1020E000E3061F910F9108950E94E30600911703E4
:1020F000109118032091190330911A03600F711F7A
:10210000821F931FEECF54985C9A879A8F9885E030
:102110008A95F1F7000089B187988F9A90EA9A958D
:10212000F1F790E024E0959587952A95E1F7809561
:10213000909581700895CF93DF9380910F02CEE147
:102140008111CDE180911002D0E0882329F08091A7
:102150001102DEE18111DDE10E94831081110FC0C7
:102160008D2F80930A02C0930B02CD0F10920C02A8
:10217000C0930D02C0930E02DF91CF91089580E0CD
:10218000F0CF80910F02F90180830E949B10089587
:102190001F93CF93DF93182FEB010E94E00E8FE97E
:1021A0009FE00197F1F700C000002197C1F7812F50
:1021B0000E94B40EDF91CF911F9108951092BE043A
:1021C0000E94D70B2FEF84E39CE021508040904089
:1021D000E1F700C0000088E19AE00FB6F894A895F6
:1021E000809360000FBE90936000FFCFCF93DF938A
:1021F000C9E0D2E060E0CE010E9446362196C115CA
:1022000084E0D807B9F7DF91CF9108951F93CF935A
:10221000DF93122F8530E0F46830D0F44630C0F4FC
:10222000C42FD0E0CC0FDD1F9CE0699FC00DD11DF5
:10223000112490E6899FC00DD11D1124632FCE017A
:1022400089960E944636612FCE018A960E944636B4
:10225000DF91CF911F910895AF92BF92CF92DF92FD
:10226000EF92FF921F93CF93DF938BE1C82E84E010
:10227000D82ED0E07601C0E014C0F501259134914C
:10228000412F6C2F8D2F0E94061182E0A80EB11CE9
:102290001F5F163091F78CE0E80EF11CCF5FC8305D
:1022A00019F0570110E0E9CFDF5F80E6C80ED11CBE
:1022B000D53001F7DF91CF911F91FF90EF90DF9024
:1022C000CF90BF90AF90089588E290E00E9446368C
:1022D0000895CF93C82F6FEF811166E285E290E0F9
:1022E0000E9446366FEFC11167E086E290E00E94DF
:1022F00046366FEFC11164E187E290E00E944636F6
:10230000CF91089580E00E94691160E070E0CB01F8
:102310000E9464110E942C110E94F61081E00E941C
:10232000691108950F931F93CF93DF93853030F594
:10233000683020F5463010F5C42FD0E0CC0FDD1FFB
:102340002CE0629FC00DD11D112430E6839FC00D8B
:10235000D11D1124CE0189960E942236082F10E04B
:10236000102F0027CE018A960E9422369801282B32
:10237000C901DF91CF911F910F91089590E080E006
:10238000F8CF462F783040F4663030F4853020F4B2
:10239000672F0E949211089590E080E00895CF92F7
:1023A000DF92FF920F931F93CF93DF936C01009105
:1023B000120480919B02082BC4E0D0E010E0FC2EB8
:1023C000C8010C2E02C0959587950A94E2F780FD0E
:1023D0000CC02197A0F7F12C8F2DDF91CF911F9189
:1023E0000F91FF90DF90CF900895B6018C2F0E943F
:1023F000C1110E94EA07019761F3EECFCF93DF93FB
:10240000EC010E94CF11BE010E94C1110E94EA0797
:10241000DF91CF910895FC0184818823F9F08781B1
:102420009085009791F00E94EA0792959F709630F0
:10243000B9F080F4925F9F70923080F4803F19F081
:1024400058F4883E58F481E00895808191810E947B
:10245000FE11EBCF9A5FEFCF843FA9F380E00895A0
:10246000883E88F3813FD1F7EECFA6E0B0E0EBE302
:10247000F2E10C946A359C01FC01878190850097FC
:10248000E1F486E0DE01119601900D928A95E1F764
:10249000F901258189819A81222399F0662389F0A7
:1024A0000E94CF11182F682F89819A810E94FE08FF
:1024B00069817A81812F0E94C1112696E3E00C94F4
:1024C00086350E94CA08182FF3CF88E290E00E9458
:1024D0002236682F70E090E080E0089585E290E079
:1024E0000E942236863289F486E290E00E942236EB
:1024F000873059F487E290E00E94223691E08431DF
:1025000009F090E0892F8170089580E0FCCFB0E061
:10251000A0E0EDE8F2E10C9465356C017B0164E626
:1025200070E088E70E94A5328C01E601EC0CFD1CEE
:1025300017FD0BC0FE01849164E670E00E94113328
:102540008C012196CE15DF0599F70E94873381E033
:102550000115110509F080E0CDB7DEB7E8E00C9475
:1025600081358091390490913C04911103C091E030
:1025700089270895882369F062E070E08CED93E08C
:102580000E948712811103C080913904089510922E
:10259000390480913904EBCFCF93C09139048091F5
:1025A0003C048823D1F00E94E306605A75418F4FA6
:1025B0009F4F609335047093360480933704909353
:1025C0003804C11108C062E070E08AED93E00E9417
:1025D0008712811105C0C09139048C2FCF910895C5
:1025E00081E080933904F7CFB0E0A0E0EAEFF2E1B8
:1025F0000C94613549015A016B017C010E944A0724
:102600008401A4016A2D7B2D88E090E00E94583659
:1026100094014A2D5B2DB601C70100E20E94E83506
:10262000622F84E290E00E944636CDB7DEB7ECE040
:102630000C947D35B0E0A0E0E0E2F3E10C9461356C
:10264000182FC62FD42F822E00910A0400FF50C0ED
:1026500080910B04811308C080910C04861304C080
:1026600080910D04841729F0809155038260809336
:102670005503E02FE695F0E0E75BFD4F8081809306
:102680005303802F8E7F8230E9F4ED2FD73908F085
:10269000E6E9F0E0E652FD4FC1112FC02491F22F80
:1026A000E22F00FF0FC080910C0290910D0233E0E9
:1026B000839FD0011124AA5ABC4F891708F492C0F5
:1026C0000E94A80F10930B04C0930C04D0930D0428
:1026D000882071F020910A0460910E0470910F041B
:1026E000312FAE0180911004909111040E94F412D8
:1026F000CDB7DEB7ECE00C947D35EC2EF12CE491F7
:102700009E2ECE2ED12C26E0129FC00111242FEF39
:1027100030E0B9010E944735812F90E0880F991F62
:10272000F5E5F69FA001F79F500D1124841B950B32
:10273000B82EBB0CB80EA9014E195F094C9DC00103
:102740004D9D900D5C9D900D1124F92FCB9DA00106
:102750001124452F5527D901A41BB50BAC9DA00111
:10276000AD9D500DBC9D500D1124D901AB19B1097F
:102770005D01AE9CD001AF9CB00DBE9CB00D11248C
:10278000AB2FBB272A1B3B0B2C9DD0012D9DB00DE1
:102790003C9DB00D11242B2F62307105A1F050F437
:1027A0006115710509F47DCF6130710581F0292F24
:1027B000F52F77CF6430710569F080F066307105D0
:1027C00009F46FCFF4CF2E2FE92FFB2F6ACF2E2FD6
:1027D000E52F67CF292FFE2FEB2F63CFE92FF92DA0
:1027E000252F5FCF1196EC9311972C931296FC93A3
:1027F00012978F5F139661CF20E00E941A130895FD
:102800000F931F93CF93C82F0E94380991E0833014
:1028100009F090E0892F0E9449094C2F50E070E0A8
:1028200060E0DB01CA01F4E0B695A795979587951E
:10283000FA95D1F70097A105B10531F1AC01BD01C1
:1028400084E08A019B01E2E036952795179507956C
:10285000EA95D1F7011511052105310519F08E5FB3
:10286000B901A8017695679557954795452B462B55
:10287000472B09F08F5F8230F9F040F4882371F024
:102880008130B1F040E007C080E0DBCF8330C1F0A1
:102890004FEF8430B9F760E080E003C04FEF6FEF97
:1028A0008AE60E94FC138C2FCF911F910F910895FF
:1028B0004FEF60E88AEEF5CF4FEF66E684E8F1CFA0
:1028C0004FEF6FEF8BE2EDCF0E9400148093120464
:1028D00008959091120421E030E0F90101C0EE0F5B
:1028E0008A95EAF7D90102C0AA0FBB1F6A95E2F7E1
:1028F000EA2B01C0220F4A95EAF7892F8E23E813AD
:1029000005C0292B822F0E94641408952095292345
:10291000F9CF21E030E001C0220F8A95EAF7209537
:102920008091120482230E946414089590915203AE
:102930008095892380935203282F277069F4891783
:1029400059F09091260392FF07C08695869586954B
:102950000E94891410925203089521E030E001C0D2
:10296000220F8A95EAF780911204822B0E94641448
:102970000895EAE0F4E043812FE0421B08F440E0D0
:1029800021E0628181810E941A130895EAE0F4E057
:1029900043812FE0420F08F44FEF21E062818181F3
:1029A0000E941A130895EAE0F4E0628121E1621BBB
:1029B00008F460E021E0438181810E941A130895A8
:1029C000EAE0F4E0628121E1620F08F46FEF21E0B8
:1029D000438181810E941A130895EAE0F4E0818125
:1029E00021E04381628181510E941A130895EAE037
:1029F000F4E0818121E0438162818F5E0E941A139D
:102A0000089580910E04882319F0815080930E045C
:102A100020910A0430910B0440910C0450910D0454
:102A200060910E0470910F04809110049091110434
:102A30000E94F412089580910E04833018F48F5F81
:102A400080930E0420910A0430910B0440910C04F1
:102A500050910D0460910E0470910F048091100448
:102A6000909111040E94F412089520910A0420FF0D
:102A700023C02170226020930A0480915503816055
:102A800080935503662381F030910B0440910C0430
:102A900050910D0460910E0470910F048091100408
:102AA000909111040E94F41240910D0460910C0465
:102AB00080910B040E94FC13089580910A0486956E
:102AC000815009F481E061E00E943515089561E0CC
:102AD00081E00E9435150895EAE0F4E083E0808308
:102AE00011828FEF828386E983831482A3E5B3E0AA
:102AF00012968C911297836012968C93758123E0C5
:102B000030E04FEF56E960E0868197810E94F41231
:102B100008959091260392FB222720F9281779F037
:102B200080FB92F990932603609125037091260310
:102B300084E090E00E94643682E00E94961408953A
:102B400090E080E00E943036863E9E4F19F40E944D
:102B50006E12089580E00895B0E0A0E0E2EBF5E1A8
:102B60000C9466357901C82F880FDD0B411551058E
:102B7000A9F0FE0193E0EE0FFF1F9A95E1F7EF5FDA
:102B8000FE4F8181928187559D4F208130E0421711
:102B9000530708F49A01A9010E941936CE010E9438
:102BA000D134D82E8823D1F001151105B9F083E076
:102BB000CC0FDD1F8A95E1F7FE01EF5FFE4F4381E9
:102BC00050E00417150708F4A801CF5FDE4F6C81B1
:102BD0007D8167557D4FC7010E9419368D2DCDB778
:102BE000DEB7E7E00C948235A5E0B0E0EAEFF5E16E
:102BF0000C9463358D83E62E5A01F22E6801809184
:102C000016038A3028F080E02596EAE00C947F35A0
:102C10008D818930C4F31A8219828A836B832C8355
:102C200063E070E0CE0102960E942E078983E09255
:102C30003101F092440110E000E030E020E044E097
:102C400050E0BE016F5F7F4F85E00E94AC15882386
:102C5000D1F24E2D50E030E020E0B50186E00E9438
:102C6000AC15882381F230E020E041E050E0BE0165
:102C70006B5F7F4F87E00E94AC15882321F20F2DF8
:102C800010E0960150E040E070E060E088E00E94D3
:102C9000AC15BACFA4E0B0E0E0E5F6E10C946935FC
:102CA00040910A0350910B0360910C0370910D0346
:102CB0002FB7F8948091B9049091BA04A091BB0405
:102CC000B091BC042FBF841B950BA60BB70B11E072
:102CD00084369105A105B10518F10E9469106E5F57
:102CE0007F4F8F4F9F4F69837A838B839C8310E044
:102CF00000E030E020E044E050E0BE016F5F7F4F35
:102D000082E00E94AC15182F882351F00E94E30640
:102D100060930A0370930B0380930C0390930D034D
:102D2000812F2496E4E00C948535A5E0B0E0EBE932
:102D3000F6E10C9467357B0101E010E09E012B5F0A
:102D40003F4F50E040E070E060E080E00E94AC1552
:102D5000182F882309F456C04091060350910703A9
:102D600060910803709109032FB7F8948091B9041A
:102D70009091BA04A091BB04B091BC042FBF841BF6
:102D8000950BA60BB70B84369105A105B10548F448
:102D900064E070E08AEA92E00E942E079D81891724
:102DA00089F104E010E09E012F5F3F4F50E040E0CA
:102DB00070E060E081E00E94AC15082F64E070E0F4
:102DC0008AEA92E00E942E0711E09D81981310E09C
:102DD000102331F10E94E30660930603709307030A
:102DE000809308039093090389819A81AB81BC8108
:102DF0008093020390930303A0930403B09305030D
:102E000011E00EC08091AA029091AB02A091AC0299
:102E1000B091AD0289839A83AB83BC831111E4CF57
:102E20008091020390910303A0910403B0910503E4
:102E3000F70180839183A283B383812F2596E6E0F7
:102E40000C9483358F929F92AF92BF92EF92FF9234
:102E50000F931F93CF937B01942FB901A801F70122
:102E600080809180A280B380EFB7F8940091B9047C
:102E70001091BA042091BB043091BC04EFBF081933
:102E800019092A093B09043611052105310518F4F1
:102E9000C1E0992381F010E000E030E020E00E94E2
:102EA000AC15C82F882339F00E94E306F701608330
:102EB0007183828393838C2FCF911F910F91FF9009
:102EC000EF90BF90AF909F908F900895A1E0B0E0F9
:102ED000ECE6F7E10C9469358091390489832091FF
:102EE000BD0290E041E02817190609F440E001E036
:102EF00010E09E012F5F3F4F62E173E084E00E948B
:102F000022172196E4E00C948535ABE0B0E0EBE8C5
:102F1000F7E10C94693588E0EAE0F4E0DE0111960F
:102F200001900D928A95E1F780915303909154039B
:102F3000A091550389879A87AB8741E08B858111E2
:102F400001C040E00BE010E09E012F5F3F4F6EE0BC
:102F500073E083E00E9422178111109255032B9693
:102F6000E4E00C948535A8E0B0E0E9EBF7E10C94DF
:102F70006B3566EE7EEF90E080E00E94643660E0A4
:102F800082E090E00E94463660E083E090E00E949C
:102F9000463610929B0260E074E184E090E00E946B
:102FA000643660E086E090E00E9446366FEF87E08E
:102FB00090E00E94463640E050E0BA0188E090E0A0
:102FC0000E94583660E084E290E00E94463660E05D
:102FD00087E190E00E94463660E08CE090E00E943D
:102FE000463660E08DE090E00E94463619821A82F3
:102FF0001B821C821D821E821F82188648E050E0C0
:1030000068E170E0CE0101960E94363640E050E063
:10301000BA0180E290E00E94583680E00E94691177
:103020000E94821140E050E0BA018FE090E00E94DF
:10303000583640E050E0BA0183E190E00E945836F3
:103040002896E2E00C94873528E030E043E060E029
:1030500086E30E94CD310895CF93DF93D82FC62FFA
:103060000E9424188D2F80680E9445328C2F0E9468
:1030700045328AEB8A95F1F700C00E94753283E4ED
:1030800092E00197F1F700C00000DF91CF91089521
:10309000682F893708F068E760931A0291E09093EF
:1030A0001B0290910F02992339F06150811101C0E8
:1030B00064E08FE00E942C180895FB0180810E943B
:1030C0004818089590911A02911101C095E0282F97
:1030D000880F330BA901490F511DCA011816190693
:1030E00014F081E090E00E9448180895ACE0B0E050
:1030F000ECE7F8E10C9465354F83588769877A8748
:103100008B879C8780910F02882309F446C08091A9
:103110007102811107C060E080E50E942C1881E0F7
:10312000809371020E94241880E50E9445328AEB48
:103130008A95F1F700C00E945D320E945D320E94C4
:103140005D327C010E945D3220E0E22AF82A0E9472
:103150005D328C010E945D3220E0022B182B0E9410
:10316000753285E08A95F1F70000F894B7018091F7
:103170001202909113020E942B0A909313028093E3
:103180001202B80180911402909115020E942B0A3C
:10319000909315028093140278940E943310882330
:1031A00009F469C00E94E306009172021091730253
:1031B00020917402309175026B017C01C01AD10A12
:1031C000E20AF30A9701860108301105210531054D
:1031D00008F451C06093720270937302809374027A
:1031E0009093750200911D0210911E0220911F0202
:1031F00030912002601B710B820B930B62337105BF
:103200008105910580F4109213021092120210921F
:1032100015021092140210921702109216021092C8
:1032200019021092180210911C020E948310482F5C
:10323000BE01695F7F4F82E192E0112389F10E9414
:103240005D0900911C0210910F020E94831041E061
:103250004827BE01695F7F4F86E192E0011719F1AF
:103260000E945D0986E0FE013796A7E2B2E0019078
:103270000D928A95E1F786E0FE013796DE01119600
:1032800001900D928A95E1F729813A814B815C8109
:103290006D817E8180E090E02C96E8E00C94813591
:1032A0000E94CA09CECF0E94CA09DCCFCF93C82F93
:1032B0000E9424188C2F0E9445328FE792E00197DC
:1032C000F1F700C000000E945D32C82F95E09A958A
:1032D000F1F700000E94753285E68A95F1F700004B
:1032E000109271028C2FCF910895CF93DF930E949B
:1032F000C531269A0E9424186AE58AE30E942C1898
:103300002FEF80E792E0215080409040E1F700C02D
:10331000000082E00E94561983E00E94561984E062
:103320000E94561985E00E94561986E00E9456199F
:1033300060E080E10E942C1880E00E945619D82F8E
:1033400081E00E945619C82F0E947532D23419F4B8
:1033500081E0C13009F080E0817080930F02882302
:1033600021F064E08FE00E942C18DF91CF91089546
:103370001F920F920FB60F9211242F933F934F93EA
:103380005F936F937F938F939F93AF93BF93CF93ED
:10339000DF93EF93FF93D091E900DF708091EC0011
:1033A000C82FC17080FDC0E81092E9008091F00044
:1033B000877F8093F00078940E94E30B1092E900DD
:1033C0008091F00088608093F000CD2BCF70C09387
:1033D000E900FF91EF91DF91CF91BF91AF919F9164
:1033E0008F917F916F915F914F913F912F910F90AE
:1033F0000FBE0F901F9018951F920F920FB60F924D
:1034000011242F933F934F935F936F937F938F93E9
:103410009F93AF93BF93EF93FF938091E10082FF5F
:1034200009C08091E20082FF05C08091E1008B7F9E
:103430008093E1008091DA0080FF24C08091D80061
:1034400080FF20C08091DA008E7F8093DA00809127
:10345000D90080FF9DC080E189BD82E189BD09B4AA
:1034600000FEFDCF81E08093CB048091BD048111EB
:1034700009C00E9474050E9415068091E2008460D4
:103480008093E2008091E10080FF17C08091E2000C
:1034900080FF13C08091E2008E7F8093E2008091D4
:1034A000E20080618093E2008091D8008062809386
:1034B000D80019BC85E08093CB048091E10084FFA3
:1034C0002BC08091E20084FF27C080E189BD82E1AA
:1034D00089BD89B5982F917080FFFBCF8091D8006E
:1034E0008F7D8093D8008091E1008F7E8093E100F2
:1034F0008091E2008F7E8093E2008091E200816003
:103500008093E2008091CC04882309F447C084E0D2
:103510008093CB048091CB048091E10083FF27C08E
:103520008091E20083FF23C08091E100877F809338
:10353000E10082E08093CB041092CC048091E10002
:103540008E7F8093E1008091E2008E7F8093E20085
:103550008091E20080618093E20042E060E080E0E0
:103560000E94E3058091F00088608093F000FF9155
:10357000EF91BF91AF919F918F917F916F915F91EB
:103580004F913F912F910F900FBE0F901F90189564
:1035900019BC1092CB041092BD0474CF8091E3004B
:1035A00087FD93E09093CB04B5CF78941F921FB61C
:1035B0001F9211248F939F93AF93BF938091B9046F
:1035C0009091BA04A091BB04B091BC040196A11DD6
:1035D000B11D8093B9049093BA04A093BB04B09337
:1035E000BC04BF91AF919F918F911F901FBE1F9000
:1035F00018959C014FB7F8948091B9049091BA0442
:10360000A091BB04B091BC044FBF821B930B0895E3
:103610002FB7F8948091B9049091BA04A091BB049B
:10362000B091BC042FBF08952F923F925F926F928A
:103630007F928F929F92AF92BF92CF92DF92EF9242
:10364000FF920F931F93CF93DF9380913C048823C5
:1036500009F4FEC080913A0490913B040E94F91A4B
:10366000C29708F4D5C00E94081B90933B04809336
:103670003A0482E295E090932907809328070E94FC
:103680003310882309F401C184EE93E00E945A0BA1
:1036900088EB0E94D40A809126020E94F9090E94B8
:1036A000D40A89EB0E94D40A809125020E94F9096C
:1036B0000E94D40A81EE93E00E945A0B809123026B
:1036C0009091240254E0969587955A95E1F70E94CF
:1036D000F9090E94D40A809123020E94F9090E94EC
:1036E000D40A8EED93E00E945A0B8DE292E00E9484
:1036F0003A0F83E094E00E945A0B809129020E94C5
:10370000000A0E943A0F80912A020E94000A0E9439
:103710003A0F80912C020E94000A0E943A0F809179
:103720002B020E94000A0E943A0F8BEF93E00E9446
:103730005A0B80911A02811101C085E00E94000A93
:1037400001960E943A0F87EF93E00E945A0B8091F6
:103750002202882331F0813009F48CC08EEE93E090
:1037600002C084EF93E00E945A0B80911C028823D0
:1037700009F483C08CE094E00E945A0B8AEE93E037
:103780000E945A0B80912102811101C087E0805D67
:103790000E94D40A82E194E00E945A0BC1E0D0E07A
:1037A00080911204882309F46BC090E00C2E02C0B3
:1037B000959587950A94E2F780FF62C08C2F0E944E
:1037C000F9090E94D40A2196C830D10549F780E250
:1037D0000E94D40A8FE094E00E945A0B8091690104
:1037E000882309F44FC08CE094E00E945A0B80912A
:1037F0006B0190916C0168EE73E00E944735862F53
:103800000E94000A01960E943A0F83E70E94D40AA0
:103810008091200590912105892B09F04CC0809161
:1038200039048823A9F00E94E30600913504109121
:1038300036042091370430913804601B710B820BE1
:10384000930B6F3F7F4F8F4F9F4710F40E94B11231
:10385000DF91CF911F910F91FF90EF90DF90CF906C
:10386000BF90AF909F908F907F906F905F903F90B0
:103870002F90089581EF93E076CF89E094E07CCF9C
:1038800080EB9FCF89E094E0B0CFC0E9D0EFDC0FB0
:1038900088E194E00E945A0B11E01D0F8D2F0E94C9
:1038A000D40AD12F1C13F8CF80E00E94680BC05FB0
:1038B000C03C61F7ADCF80913C04882309F4AFCFC1
:1038C000809134048111ABCF0E94CC12209120054D
:1038D000309121052115310509F4A1CF80E041E0A7
:1038E00050E0082F10E01A01082E02C0220C331CF1
:1038F0000A94E2F7B10162237323672B11F48F5FFF
:10390000F0CF9091330490FF95C0880F880F880FF7
:103910008093770110927A01895F8093780183E028
:1039200080937B0124E630E047E050E065E771E0FA
:1039300088E70E943F33892B09F071CFA80125E069
:10394000440F551F2A95E1F78091330480FF84C00E
:10395000E3E1F4E080E2DF011D928A95E9F7AFE44C
:10396000B2E00BE412E083E5C82E82E0D82E97E0A7
:10397000592E772473948D91E80129918E01240F9B
:10398000352F311D2E5D3A4FE82FF0E0ED5EFB4FF5
:1039900090E080E0652C681A872C082E01C0880C06
:1039A0000A94EAF77901A12CE701B9907E01B820C9
:1039B000662D6A196770962E062E000C770BDB2D8C
:1039C00001C0DD0F9A94EAF77195619571096770EE
:1039D000772701C0B6946A95EAF7BD2A6081962ED2
:1039E0009B289082A39468E0A612DECF01963196C0
:1039F0008830910579F6CA16DB0609F0BCCF04E6DB
:103A000010E020E230E043E154E060E488E70E9407
:103A10006033892B09F003CFE101C095D0958091E7
:103A2000200590912105C823D923D0932105C09367
:103A30002005F5CE8295880F8076809377019801D6
:103A4000369527953695279520937A01815E809348
:103A5000780120937B0166CF4E5D5A4F04E610E05B
:103A600020E230E0D2CFAEE1B0E0E9E3FDE10C943A
:103A70006A3540914C0350914D0360914E03709113
:103A80004F0380915003909151030E947618209328
:103A90004C0330934D0340934E0350934F03609378
:103AA00050037093510386E0ECE4F3E0DE011796D7
:103AB00001900D928A95E1F786E0FE013796DE01CE
:103AC0001D9601900D928A95E1F786E0FE013D96E4
:103AD000DE01119601900D928A95E1F786E0FE01D4
:103AE0003196ACE4B3E001900D928A95E1F786E05F
:103AF000ECE4F3E0DE01599601900D928A95E1F72E
:103B000086E0FE017996DE01179601900D928A9566
:103B1000E1F786E0FE013796DE01119601900D92E5
:103B20008A95E1F786E0FE013196DE015396019019
:103B30000D928A95E1F786E0FE017396DE011796F5
:103B400001900D928A95E1F786E0FE013796ACE48C
:103B5000B3E001900D928A95E1F786E0ECE4F3E0A2
:103B6000DE01179601900D928A95E1F78091690127
:103B7000882309F445C080916E0190916F010E94E5
:103B8000F91A20916D0128171906D0F5809170015E
:103B9000909171010E94F91A893C910588F18985FB
:103BA0009A85892B9B85892B9C85892B9885892BC8
:103BB00091E009F490E0909372010E9477071091D0
:103BC0001204882351F10E94081B90936F01809387
:103BD0006E01109271011092700180916A011111B1
:103BE00005C0882369F00E94AD140AC0212F30E07F
:103BF000082E02C0359527950A94E2F720FFF3CFEF
:103C00000E94640A81112FC080914B0310924B03D4
:103C100081706E96E3E00C94863580916A011111F3
:103C200018C08111EDCF80916E0190916F010E94BB
:103C3000F91A20916B0130916C012817390700F7B0
:103C400080916A010E94891410926F0110926E0196
:103C5000D7CF212F30E002C0359527958A95E2F71E
:103C600020FFCECFE0CF81E090E0D0CFA3E1B0E065
:103C7000ECE3FEE10C9460358E01045F1F4F88E099
:103C8000D8011D928A95E9F787E3C82E82E0D82EE5
:103C9000F12CE12CAA24A394B12C21E4822E22E061
:103CA000922EF60181916F018F3F09F442C0F89482
:103CB000E82FE295EF70F0E021A18F70A50102C01E
:103CC000440F551F8A95E2F7CA01922F982B91A3B2
:103CD00092A18095892382A3789400C0EBE3F2E05F
:103CE000712C31E021912F3F09F46BC0A22FA295D6
:103CF000AF70B0E090968C9190E02F7002C09595D7
:103D000087952A95E2F780FD5CC0832F782A330FD0
:103D10008E169F0639F7F601319780818F3F11F09B
:103D20000E94D30750EA5A95F1F7F801EE0DFF1DF6
:103D300070828FEFE81AF80AA4E0EA16F10409F09D
:103D4000B0CF48E050E0B8018BE193E00E940C3620
:103D5000009741F028E0F801ABE1B3E001900D924B
:103D60002A95E1F700912403892B69F181E0809382
:103D7000A0020E94081B90939F0280939E02809154
:103D80009E0290919F020E94F91A059700F110E09F
:103D90000E5C1C4F44E050E06BE173E0C8010E94F0
:103DA0000C36B12C892B51F084E0EBE1F3E0D80123
:103DB00001900D928A95E1F7BB24B3941092A00272
:103DC00007C080E0A3CF8091A0028111D8CFB12C91
:103DD0000E943310A82EE0912403882309F489C09F
:103DE00019821A821B821C820E2F10E00E5C1C4F5F
:103DF000809116038A3008F046C045E956E1BE01BD
:103E00006F5F7F4FC8010E940010882309F460C0D3
:103E10004AE456E1BE016F5F7F4FC8010E94001067
:103E2000882309F455C045E857E1BE016F5F7F4F15
:103E3000C8010E940010882309F44AC046E657E1F1
:103E4000BE016F5F7F4FC8010E940010882309F4F4
:103E50003FC0109216038091230390E044E050E0AD
:103E6000BE016F5F7F4F8E5C9C4F0E940C3621E03D
:103E70002093A702892BF1F4A12C8A2D8B2963961C
:103E8000EDE00C947C358091A1029091A2020E94F9
:103E9000F91A843F914008F0B0CF8091A70288239F
:103EA00059F384E0FE013196DF011D928A95E9F70E
:103EB0001092A702E0912303F0E0EE5CFC4F8981B1
:103EC0009A81AB81BC8180839183A283B383D5CF58
:103ED000809116038F3F31F08F5F809316038A30F5
:103EE00008F4B9CF0E94081B9093A2028093A1020C
:103EF000D4CFF0E0EE5CFC4F84E0AAEAB2E001909F
:103F00000D928A95E1F764E070E08AEA92E00E94FF
:103F10002E078093A902C090AE02D090AF02E0902D
:103F2000B002F090B1028091A3029091A402A091FE
:103F3000A502B091A602C816D906EA06FB06D1F082
:103F4000C092A302D092A402E092A502F092A6022F
:103F50000E94331081110EC00E94E306C61AD70AD0
:103F6000E80AF90AC0921703D0921803E0921903E5
:103F7000F0921A038BE0E2EBF2E0DE011196019081
:103F80000D928A95E1F79981892F86950A81FB80A8
:103F9000EC801B851092BC021123A1F010FF0AC017
:103FA00090FF17C090910A04916090930A0460E01A
:103FB0000E94351511FF06C020E04E2D6F2D802F79
:103FC0000E941A138091BD02882331F00E94CC1206
:103FD00054CF0E94F30FEECF0E94B1124ECFA8E053
:103FE000B0E0E5EFFFE10C945D358C01DC01149647
:103FF0008C91882309F4B2C061E0C8010E94351297
:104000007C01F801D580DD2009F469C1975780381B
:10401000910508F064C1FFE0FE1508F48FC08FEF32
:1040200093E00E942236811189C0E9E0AE2EE2E0E1
:10403000BE2EE1104DC0FE01339686E0DF011D92D9
:104040008A95E9F77AE0472E7501BFEFEB1AFB0A74
:10405000C5010E94223689831A82882309F46EC022
:10406000813009F07FC06501E2E0CE0ED11CC701AE
:104070000E9422368A83882309F460C09FEF980F3C
:104080009330A0F5F3E0AF0EB11CC6010E942236BA
:104090008B83882309F452C01C82DE0111967D01B6
:1040A000F7012081222381F2213009F0BAC09181E9
:1040B0008281913009F058C0F2E0EF0EF11C65E00A
:1040C00070E0893311F460E570E00E94C81053C0BD
:1040D000A11424E0B20691F1C5010E94223681119B
:1040E00001C0EA943FEFA31AB30AA3CF560184306C
:1040F000A1F662E0E62EF12C56012FEFA21AB20AC9
:10410000C6010E942236E1E0F0E0EC0FFD1FEE0D4B
:10411000FF1D8083882391F08C3741F4E2E0F0E0CA
:10412000EC0FFD1FEE0DFF1D1082B7CF3FEFE31A1E
:10413000F30A650187E0E816F104F1F68091520375
:10414000877061F0D80115968C91882339F08091A1
:10415000260382FF03C082E00E9496142896E0E1C5
:104160000C947935570199CF923039F522E0E20E5F
:10417000F11C0E94E00EFFEFEF1AFF0A8FE99FE0AB
:104180000197F1F700C00000AFE9BFE01197F1F728
:1041900000C00000EFE9FFE03197F1F700C0000038
:1041A0008FE99FE00197F1F700C00000AFE9BFE0A1
:1041B0001197F1F700C0000073CF933031F432E073
:1041C000E30EF11C0E94B40ED6CF943021F08FEF95
:1041D000E81AF80AD0CF92E0E90EF11C30E020E0B6
:1041E000B7016F5F7F4FD70111964C918053990BA8
:1041F0008A30910558F02150310908F4BCCFEFE91D
:10420000FFE03197F1F700C00000F5CF429EF001CA
:10421000439EF00D11249C012E0F3F1F842F7B0124
:10422000DFCFE22FF0E0ED5FFD4F5490822F8695B7
:104230008695869590E0FC01ED50FE4F64902770C6
:10424000712C022E02C0759467940A94E2F731E053
:1042500063227724FC01ED51FE4F8490912C022EB5
:1042600002C0959487940A94E2F7A1E08A229924E7
:10427000FC01ED52FE4FC490D12C02C0D594C794DE
:104280002A95E2F7B1E0CB22DD246114710419F024
:1042900081EE0E94E00E8114910419F086EE0E94D6
:1042A000E00EE9E365E070E05E1202C060E570E0F8
:1042B000852D0E94C8108114910419F086EE0E9489
:1042C000B40E6114710419F081EE0E94B40EC11491
:1042D000D10409F450CF65E070E08CE2F6CE809115
:1042E0006901882309F46FC0B0E2EB16B2E5FB0662
:1042F00008F052C0E114E2E5FE0608F0B7C0E11490
:10430000F0E4FF06E0F5E11420E2F20608F0DAC07E
:1043100030EEE316F10450F088EEE816F10408F4EC
:104320004DC0E11491E0F90608F048C0F80184811D
:10433000882309F443C0F7E0EF16FEE7FF0609F40F
:10434000ACC0C7018D5C9109439708F4A6C00E94D8
:104350007707811133C0DD2059F080916A012091E7
:1043600012042111B6C0882309F4BCC00E943E0A81
:104370000E94081B90937101809370011FC0E1148B
:10438000A0E5FA0608F08DC0F8018681807F09F06B
:1043900099C08F2D99278BC0B0E8EB16B2E5FB06CC
:1043A00008F03BC0E0E6EE16E2E5FE0608F05EC06F
:1043B000F0E4EF16F2E5FF0608F466C080917401A0
:1043C00087FD10927401F0922402E0922302D8013A
:1043D0008D919C9111979093260280932502F7016D
:1043E0003497E533F10508F086C0ED57FD4FE491B1
:1043F00015968C9120EB811102C02E2FE0EBADE2DF
:10440000B2E090E080E03D9132136FC0815F9D4F3C
:10441000DC015E96EC93F70175C020ECE21622E514
:10442000F20660F230EEE31632E5F30608F07ECFD6
:1044300020916A01C7018F7199272817190609F081
:10444000BDCF8D2D0E946007D80116968C911697CE
:10445000807F803509F0B2CF15968C91882361F169
:1044600080917401815080937401A8CF20916A01DA
:10447000C7018F7199272817190609F09FCFD1100E
:104480009DCF0E946E079ACF20916A01C7018F715C
:1044900099272817190609F091CF8D2D0E946007E2
:1044A0008DCFC70155E0969587955A95E1F78F70A6
:1044B000992720916A01EDCF0E946E0780917401C7
:1044C0008F5FD1CFD80116968C91807F09F476CF7B
:1044D0002DCF30E0082E02C0359527950A94E2F7DB
:1044E00020FF44CF0E94891441CF01968630910568
:1044F00009F089CF90CFC7019A95F70181159F41A7
:1045000008F4FF27D80115968C91E13DF10538F0AC
:10451000E93DF10570F0E730BEE7FB0701F18823C4
:1045200061F0FE57E031F10540F4EA57F94C0C9484
:10453000C035682F8E2F0E94BD0AF8018581811138
:1045400076C38091BE048272F701E052F847E531EC
:10455000F10508F0DFC0EA56F94C0C94C0350E9412
:104560004909EBCF80E00E9448181092210280E0B8
:104570000E945B0A80E197E20E944D0ADFCD4091E4
:104580001A022091210220FB47F926952370809181
:10459000690180FB22F980916B0190916C0164EFBD
:1045A00071E00E9447355FEF560F550F550F550FBD
:1045B000522B60912202637070E08FE090E00E94C5
:1045C0005836BCCD81E00E946218B8CD8FEFFBCF8A
:1045D0008AE0F9CF86EFF7CF90911C0281E089271E
:1045E0000E944909ABCD80912102811101C087E071
:1045F0008F5F18160CF081E0883008F087E0809318
:1046000021029CCD80912102811101C087E081505F
:10461000F0CF81E08093220291CD109222028ECDC4
:1046200082E0F8CF9091690181E089270E945B0ABE
:1046300085CD80916B0190916C01C2969DCF809148
:104640006B0190916C01C2978436910508F094CF6C
:1046500084E690E091CF80910A0480FF1CC0282F4F
:104660002E7F20930A0430910B0440910C0450914A
:104670000D0460910E0470910F04809110049091CC
:1046800011040E94F41280915503816080935503B8
:104690000E94A80F53CD816080930A0461E0869543
:1046A0000E9435154BCD4DE555E167E675E10E9459
:1046B000440744CD47E655E16DE575E1F8CF4DEE91
:1046C00054E167EF74E1F3CF47EF54E16DEE74E12D
:1046D000EECF43ED54E160EE74E1E9CF40EE54E1FA
:1046E00063ED74E1E4CF49EB54E166EC74E1DFCFB4
:1046F00046EC54E169EB74E1DACF41E055E16BE15E
:1047000075E1D5CF4BE155E161E075E1D0CF61E0D6
:1047100081E0C6CFF7E7EF16FCE7FF0609F44FC0CC
:1047200028E7E2162CE7F20609F44DC0F80187816C
:104730009085009709F48FC00E94EA077C01F80178
:10474000A580968092943FE09322809152038770D7
:10475000F1F0CA2CAA20E1F08F2D807F803451F037
:1047600080E28E0D883098F0911004C08F2D807EED
:10477000803269F08091260382FF09C082E00E94A6
:104780009614809152038770CC24C3948111C12C5C
:10479000BF2CB2942FE0B222FBE0FB1508F4D5C089
:1047A000EB2DF0E0E555F94C0C94C03581E00E940A
:1047B000AD1443E062E081E00E946914BFCC81E067
:1047C0000E948914F6CF82E0FBCF33E0E3163CE78A
:1047D000F30671F160F4E1149CE7F906D1F0A1E071
:1047E000EA16ACE7FA0609F0A1CF0E94DE10BBE59D
:1047F000EB16BCE7FB0669F1ECE5EE16ECE7FE060E
:10480000F1F0FAE5EF16FCE7FF0609F08FCF81E043
:104810001DC01092BE040E94D70B2FEF34E38CE032
:10482000215030408040E1F700C000000E94D206D5
:104830006FEF7FEF90E080E00E946436D6CF8091EA
:10484000260382FB882780F991E089270E94891539
:104850006DCF80E0FBCF8581E080F180882369F017
:10486000C7010E94CF11D82E682FC7010E94FE08F1
:10487000B7018D2D0E94C1115FCFC7010E94CA08E8
:10488000D82EF6CF2F2D2F70D22E8F2D807F19F09E
:10489000D29490EFD922AA20B9F0DD2069F080E20D
:1048A0008E0D883010F0E11009C08091BE04D82A26
:1048B000D092BE040E949A0B8E2D45C080913F0479
:1048C000D82AD0923F04F6CF8E2D0E94B40EDD2060
:1048D000E1F180E28E0D883010F0E11004C08D2DE2
:1048E0000E94B90806C0D09480913F04D822D0928B
:1048F0003F040E949A0B29C03F2D3F70D32E8F2D6D
:10490000807F803219F0D29480EFD822EE2059F0C7
:1049100081E0E81609F471C0AA2009F47DC099204D
:1049200009F440C0C9CF8091260382FD37C0AA2078
:1049300079F1DD2039F08091BE04D82AD092BE04EE
:104940000E949A0B80E00E94E00EAB2DA850BB0B9A
:10495000149710F40E945810CC20A9F080915203B3
:1049600080FD11C0F80115828695869586950E9476
:10497000AD14C8010E94EF1F809152038695869561
:1049800086950E94891460E0C8010E943512E6CB2A
:1049900080E00E94B40EDD20C1F2A1CFAA2099F0E0
:1049A000911004C08D2D0E94AA0ECFCF91E09912D4
:1049B000CCCF80919A029D2D9823D91631F2D82A16
:1049C000D0929A02C2CF9110C0CF8D2D0E94A30E1B
:1049D00090919A028D2D892329F08D2D8095892320
:1049E00080939A02809176029D2D982309F4ADCF91
:1049F000D094D822D0927602A8CFAA2029F0A5E0A0
:104A0000A91508F4A2CFCECFB4E0B91508F49DCF14
:104A10008D2D0E94A30E99CF9920D1F3E9E3EE12D8
:104A200001C1FFEF27EE33E0F15020403040E1F7C5
:104A300000C000008E2D0E94B40E87CF6A2D8E2DEF
:104A40000E94BD0A82CF8F2D837091F5A1107DCF7A
:104A50004E2D429546954770440F440F8E2D8F7012
:104A6000042E01C0880F0A94EAF72E2D2071E4FE6F
:104A700007C02FE030E001C0220F4A95EAF72095E9
:104A80003F2D369536953370323069F050F44091B1
:104A90009B02313029F0822B84230E94350955CFA7
:104AA000842B822BFACF282B80919B028227F5CF73
:104AB0008695AA2011F08F2D8170882309F445CFA7
:104AC0004E2D429546954770440F440F8E2D8F70A2
:104AD000042E01C0880F0A94EAF72E2D2071E4FEFF
:104AE00007C02FE030E001C0220F4A95EAF7209579
:104AF0003F2D369536953370323069F050F4409141
:104B00001204313029F0822B84230E9464141DCFBB
:104B1000842B822BFACF282B809112048227F5CF89
:104B20009F2D9F70F92EAA2029F0892F0E94AD1485
:104B30008E2D39CF8E2D0E94A30E8F2D0E948914A9
:104B400004CFA2EFEA16B1F1AE1570F0B0EFEB169C
:104B5000D1F0E1EFEE1691F0AA2009F45EC09110B9
:104B6000ABCE8F2D8F712AC0F3EFEF1651F124EFEA
:104B7000E212F2CF8091260382FD2FC08F2D8F711C
:104B8000AA20E1F21BC0AA2081F034E0391508F414
:104B9000DCCE2F2D2F7181E090E001C0880F2A9587
:104BA000EAF7909112048927B0CF85E0891508F4BF
:104BB000CCCEEFCF8F2D8F71A110C0CF0E94AD143E
:104BC000C4CE80E0AA2009F4A0CF9F2D9F7181E080
:104BD00001C0880F9A95EAF798CFAA2099F09F2DE7
:104BE0009F71F92E892F0E94AD148091260382FFB8
:104BF00007C0A8E0FA9EC00111248360809352038D
:104C00008F2DDCCF81E00E949614B1E0B91508F039
:104C10009CCE82E00E94961498CE9110FFCE8F2DEC
:104C20008F718CCF8FE19EE40197F1F701CFF7E709
:104C3000EF16FCE7FF0609F4B9CD28E7E2162CE7EA
:104C4000F20609F0C2CD82E0B2CDCF93DF9380911E
:104C50008F02807F09F04DC080918E02882309F475
:104C600048C0E0911E055091D504C0918A02D091B0
:104C7000890260918B0270918C0249E05E17C9F144
:104C80008E2F90E0E49FF0011124EA52FB4F248123
:104C9000222391F1489FF001499FF00D1124DF017B
:104CA000AA52BB4F11962C9111972C1325C02C9111
:104CB0002D1322C015962C91159721111DC0129607
:104CC0002D913C91261B370B283C3105A8F480918F
:104CD0008F028F70806180938F02E452FB4F80813E
:104CE0008F708061808389E892E00E94EF1F0E94AC
:104CF000C008DF91CF910895FC013196E770BECFD7
:104D0000A8E1B0E0E6E8F6E20C9461358C0186E0BB
:104D1000F801DE01539601900D928A95E1F7F801B2
:104D20008481E58099E8A92E92E0B92E90918D02B8
:104D3000911128C0882319F1EE20F1F0C8010E94DA
:104D40000B12F82E8823C1F089E0F801D5010190FB
:104D50000D928A95E1F780918D02813031F4809136
:104D6000890290918A020E94FE110E9425268F2DB1
:104D70006896ECE00C947D35C8010E94EF1FFF247B
:104D8000F394F5CFD080C18082809380F0908E0222
:104D900020918B0230918C02A401421B530BFF2007
:104DA00009F40DC1483C510508F0B6C08823F9F25A
:104DB00090918A0280918F02282F207F09F05FC096
:104DC000C9121DC090918902D91219C04091900258
:104DD00050919102278130854217530781F4E110E9
:104DE00048C08F70806180938F0289E892E00E94B2
:104DF000EF1F80918F02F8018683F12CB8CFE1106C
:104E000038C06C2D8D2D0E9455056C2D8D2D0E9466
:104E10005505E82E8111F1CFDB8ACC8A8B899C89DC
:104E20000E94FE11292F22952F70243058F49F7074
:104E3000223088F0992399F0F8019681907F79F4D7
:104E4000FE2C95CF2A5F2F70223068F0C8010E9497
:104E5000EF1FEF2CF5CF992311F0882389F3805EA3
:104E6000883070F3F3CF803F58F3815F833070F761
:104E7000E7CF80918F02816080938F02BECFC912ED
:104E80001CC090918902D91218C040919002509193
:104E90009102278130854217530779F4E1100DC044
:104EA0008683C8010E94EF1F89E0F801A9E8B2E0FB
:104EB00001900D928A95E1F75ACFC8010E940B121A
:104EC000882309F459CFEE2009F456CF80918F0240
:104ED0008032B8F02091890230918A023B872A877C
:104EE0009D868C8690918D029E871F86888B8091EF
:104EF0009002909191029A8B898BCE010A960E9422
:104F0000EF1F89E0F801A9E8B2E001900D928A95BF
:104F1000E1F70E94252633CF90918F02292F207F21
:104F200051F489E892E00E94EF1F89E0F5011192A7
:104F30008A95E9F762CF882309F419CF80918A0214
:104F40008C1119C080918902D81215C0409190022D
:104F500050919102278130854217530761F4E11087
:104F60000AC09683C8010E94EF1F89E0F5011192E3
:104F70008A95E9F7FCCEC8010E940B12882309F438
:104F8000FBCEEE2009F4F8CE80918F02803208F437
:104F9000B8CF2091890230918A023A8329839C827A
:104FA0008B8290918D029D831E828F8380919002CF
:104FB0009091910299878887CE010196A0CF483CB5
:104FC000510598F6882309F4DACEFE2CEE2009F478
:104FD000D3CE80918A028C1120C080918902D81290
:104FE0001CC02091900230919102878190852817F2
:104FF000390799F490918F0290FD56CF907F09F474
:1050000053CF80918F028683903F09F44ACF982F27
:10501000907F905F8F70892B43CFC8010E940B1245
:1050200081116FCF80918F02816080938F02C801C0
:105030000E94EF1F9CCEA2E1B0E0E1E2F8E20C9406
:1050400069350A871B872C873D874E875F87688B6A
:10505000798B8A8BCE010A960E94802681110CC022
:1050600089E0FE013A96DE01119601900D928A9533
:10507000E1F78E8581110BC019E080911E0590919A
:10508000D504891333C06296E4E00C9485352091F1
:10509000D50430E0C90101968770992740911E051B
:1050A0004817190699F099E0929FD001939FB00D8F
:1050B0001124AA52BB4FFE01319601900D929A9590
:1050C000E1F78093D5040E94C008D6CF1092BE04A9
:1050D0000E94D70B1092D50410921E0589E0E9E8D2
:1050E000F2E0DF011D928A95E9F7C6CF819FC001EA
:1050F00011248A529B4F0E948026882321F280919E
:105100001E0590E001968770992780931E05B5CF04
:10511000B0E0A0E0EEE8F8E20C9464358091410440
:10512000882369F0C0914004C12C8DE0D82E809175
:105130004104C81748F01092410410924004CDB7C2
:10514000DEB7E9E00C948035BB24B394BC0EB0927A
:105150004004EC2EF12CCD9DE0011124CE5BDB4F01
:105160008C81882361F18F819885892B21F4898531
:105170009A85019659F4088119812A813B814C81D5
:105180005D816E817F8188850E941B28DE9CF001F5
:10519000DF9CF00D1124EE5BFB4F148210923F0454
:1051A000C1100DC0CE010E940B12811108C08FE109
:1051B0009EE40197F1F700C00000CC24C394CB2DEE
:1051C000B6CF1092B5041092B404109208028091E8
:1051D000B3048093B2040E941D070E94882808959A
:1051E000B0E0A0E0E6EFF8E20C945B35C091B204C9
:1051F000E7E0FE2E01E010E0FDE02F2EEE24E39428
:105200008091B3048C1309C00E9488280E941D0756
:10521000CDB7DEB7E2E10C947735D0E0FE01EE0FBA
:10522000FF1FE655FB4F80819181F89EF001F99EAA
:10523000F00D1124E458FE4F248121115AC0309002
:105240004104A2E4B4E030E020E0412C5F012315EA
:1052500008F04DC01B966D907C901C97F5018080E6
:1052600091804FEF5FEF512CC52CD12CF601EE0F42
:10527000FF1FE80DF91D659174916616770609F414
:10528000A601672B11F05394EFCF4F3F5407B9F1AC
:10529000B80102C0660F771F4A95E2F7462AA801B7
:1052A000052C02C0440F551F0A94E2F741505109E2
:1052B0004416150609F5229EF001239EF00D1124D7
:1052C000EE5BFB4FF89ED001F99EB00D1124A4585F
:1052D000BE4F12962D913C9113973087278374E02F
:1052E000748310821182928781871596EC920E94B6
:1052F000EF062196C37084CF14961C9214972F5FEB
:105300003F4F1D96A4CFAEE1B0E0E9E8F9E20C947E
:105310005B354B8B5C8B6D8B7E8B8F8B988F91115C
:1053200010923F04188A198A1A8A86E0FE01739641
:10533000DE011A9601900D928A95E1F78E858823F9
:1053400081F061E0CE010A960E9435129C019F8592
:1053500020354CE7340789F4992311F181E08093DB
:1053600008020A851B852C853D854E855F856889E9
:1053700079898A890E941B28CBC021355CE73507D3
:1053800029F4992369F00E94E128EBCF22353C47AC
:1053900039F4992329F0809108028111F4CFDECFEE
:1053A0006A857B8580E00E94C1114C01FCE7EF2EED
:1053B000F1E0FF2E512CD12CC12CAA24A394B12CA6
:1053C000B7E04B2EFE013196FA8FE98F33243394E8
:1053D000F7014081518166246A94762C60E0262F83
:1053E00030E0F901EE0FFF1FE40FF51F8591949156
:1053F0008816990609F43901892B11F06F5FEFCFF8
:1054000010E0FFEF6F167F0609F443C0F7014481F7
:1054100010910802812F411180E0182F1170F701BF
:10542000258086819F85992309F4F2C0112309F410
:10543000EFC0211014C09501062C01C0220F0A9460
:10544000EAF7822B868380913D0490913E04C297B7
:1054500030F422E330E030933E0420933D04C50154
:1054600002C0880F991F6A95E2F70197F70126811C
:105470002817190671F48091B4049091B50400972F
:1054800009F44AC00E94F91AC39708F445C0F7010D
:105490003482512AFFEFCF1ADF0A27E0E20EF11C17
:1054A00034E1C316D10409F093CF8F85882309F422
:1054B0000EC1552009F40BC10E94081B9093B5043E
:1054C0008093B40480914104883010F591E0980FE6
:1054D0009093410499E0FE013A96DE011196019005
:1054E0000D929A95E1F74DE0849FC00111248E5BE7
:1054F0009B4F29E0FE013196DC0101900D922A9527
:10550000E1F72FEF3FEFFC013287218794868386F6
:105510006E96E2E10C9477358091B2046091B30409
:10552000982FF0E0E0E0861314C09093B204EE15DB
:10553000FF0509F4AECF90E0FC01EE0FFF1FE6552A
:10554000FB4FD182C0820196837099278093B30468
:10555000A0CF682E712CF301EE0FFF1FE655FB4F15
:1055600020813181429ED001439EB00D1124A45868
:10557000BE4F2D913C9111973E8F2D8F00E070E032
:10558000212CE22DF0E0EE0FFF1F2D8D3E8DE20F5E
:10559000F31F2591349121153105E1F0F7010190B8
:1055A000F081E02DFC8FEB8F70E005C024173507EC
:1055B00009F4012F7F5FE72FF0E0EE0FFF1F4B8D07
:1055C0005C8DE40FF51F459154914115510571F71C
:1055D0002394D7CF0023C9F0F701721508F0FD011D
:1055E0003482EE16FF0621F49093B204102F51CFAF
:1055F000891305C0AE17BF0711F49F5F9370930125
:105600002F5F3F4F822F83708ECFF0E0E0E0F7CF27
:1056100090E021101FC0950102C0220F331F6A9530
:10562000E2F7215031098217930731F4442309F43A
:105630004CC0C6010E94EF06C501062C01C0880FB0
:105640000A94EAF7982F9095F7018681892386833B
:10565000122D1FCFAC01062C02C0559547950A9418
:10566000E2F7BA01617077279C012150310982234A
:105670009323892B31F5672B21F1F70182819381E7
:10568000892BE1F0E98DFA8D242D11922A95E9F705
:105690000E94081B282F8B839C8334E03D83F701F5
:1056A00082819381782F8887998709811A813C812B
:1056B00044E05E816F81892F0E941B28F7011582CB
:1056C000BBCFF42FF1702F2EB7CF212EB5CF9091F5
:1056D000B2048091B304981729F00E94F028511069
:1056E00017CF3FCE0E9488281092B5041092B404C0
:1056F0000E941D07F4CFA6E0B0E0E1E8FBE20C94C5
:1057000069350E94081B8C0180919C0290919D023A
:105710008017910781F019821A820E94081B682F56
:1057200049815A81792F80E090E00E94832910936B
:105730009D0200939C022696E4E00C9485351F920E
:105740001FB61F9211248F939F93AF93BF938091A5
:10575000B804811113C08091B9049091BA04A0914A
:10576000BB04B091BC044196A11DB11D8093B90446
:105770009093BA04A093BB04B093BC04BF91AF91C3
:105780009F918F911F901FBE1F901895CDB7DEB7C8
:10579000A6970FB6F894DEBF0FBECDBF85B7806861
:1057A00085BF85B7806885BF84B7877F84BF0FB604
:1057B000F894A895809160008861809360001092B1
:1057C00060000FBE80E890E00FB6F894809361000F
:1057D000909361000FBE85EA97E0909363028093F7
:1057E00062020E9474050E9415068091E2008460A6
:1057F0008093E20078948091CB048823A1F01091EB
:10580000E9001F709091EC00892F817090FD80E875
:10581000182B1092E9008091E80083FD0E94E30BB1
:105820001F701093E90082E084BD93E095BD9AEF6C
:1058300097BD80936E001092170310921803109278
:10584000190310921A030E946E12811102C00E9465
:1058500082110E94831080930001809100018823AF
:1058600009F468C010920A028EE180930B020E9434
:10587000331081110E94E533809100018091000175
:1058800094E0811190E09093240384E0891B80933D
:10589000230384EF0E94D30785EF0E94D30786EF8E
:1058A0000E94D30787EF0E94D3070BE312E0D801D1
:1058B0008D918D018F3F11F00E94D307B2E001342A
:1058C0001B07A9F788E0E2E3F3E0DF01882E1D92D1
:1058D0008A94E9F7EBE1F3E0DF011D928A95E9F79D
:1058E0000E94A015811102C00E94B31782E090E0CF
:1058F0000E9422368093280384E090E00E94303694
:1059000090932603809325030E94361EEFE3FCE963
:105910003197F1F700C000000E94361E80913203DB
:1059200080FF0CC06FEF7FEF90E080E00E94643654
:105930000E94D2068EE180930A0297CF83E090E026
:105940000E9422360E943509809112040E940014A0
:105950000E943310882309F4A8C180E080933304A7
:1059600080E880931F050E949F326BE070E08FEC0F
:1059700092E00E9487128823E9F18091330465E068
:1059800070E081FD94C18AEC92E00E948712882326
:1059900089F16DE070E088EB92E00E948712882325
:1059A00049F10E94E306605A75418F4F9F4F609303
:1059B0003504709336048093370490933804E2E200
:1059C000F5E080E092E0DF019C011D922150304023
:1059D000E1F7F0932907E09328078FEF9FEF90936B
:1059E00021058093200581E080933C048093390455
:1059F0001092340480912703811176C00E94A01573
:105A0000811104C00E94B3170E946C1588E090E0D9
:105A10000E942A364B015C0184E290E00E9422360B
:105A2000282F30E040E050E060E070E080E090E05F
:105A300000E20E94CD35282939294A295B29209383
:105A40000A0430930B0440930C0450930D046093AC
:105A50000E0470930F0480931004909311048091AE
:105A600055038360809355032E7F89F50E946C1542
:105A700088E090E00E942A366B017C0184E290E08D
:105A80000E942236282F30E040E050E060E070E0D5
:105A900080E090E00E94CD35B22FA32FF42FE52FA8
:105AA0005B0197018601BC29A12BFE29E32BB09352
:105AB0000A04A0930B04F0930C04E0930D0460938C
:105AC0000E04B0920F0480931004909311040E946E
:105AD0004A0780910A0480FF04C060E086950E9416
