:100000000C94C2030C94DF030C94DF030C94652A58
:100010000C94DF030C94DF030C94DF030C94DF03D8
:100020000C94DF030C94DF030C940C180C94C81789
:100030000C94C8230C94DF030C94DF030C94DF03AF
:100040000C94DF030C94DF030C94DF030C94DF03A8
:100050000C94DF030C94E5180C94DF030C94DF037D
:100060000C94DF030C94DF030C94DF030C94DF0388
:100070000C94DF030C94DF030C94DF030C94DF0378
:100080000C94DF030C94DF030C94DF030C94DF0368
:100090000C94DF030C94DF030C94DF030C94DF0358
:1000A0000C94DF030C94DF030C94DF036162636440
:1000B00065666768696A6B6C6D6E6F707172737478
:1000C00075767778797A3132333435363738393056
:1000D000524542545F2D3D5B5D5C233B27602C2ED7
:1000E0002F290014001A000800150017002B000427
:1000F000001600070009000A00E1001D001B0006B1
:1001000000190005000000E000E300E2002C004CB4
:10011000002D00130012000C0018001C00340033E6
:10012000000F000E000D000B00E500380037003610
:1001300000100011000000E400E700E60028002A9B
:100140000000DA0281FFD9F1DB20A4A62EAF00A0C7
:10015000C0D30000A1C8D30000AED580A81F408D39
:10016000142000000400010101010101010101024C
:100170000202020202020202030303030303030357
:100180000404040404040405050505050606060622
:1001900006070707070708080808090909090A0ADE
:1001A0000A0B0B0B0C0C0C0D0D0D0E0E0E0F0F0F82
:1001B000101011111112121313141415151616170D
:1001C00017181819191A1A1B1B1C1D1D1E1E1F207B
:1001D00020212222232424252626272829292A2BC8
:1001E0002C2D2D2E2F3031323233343536373839ED
:1001F0003A3B3C3D3E3F40414243444546474849E7
:100200004A4C4D4E4F50515354555658595A5B5DB8
:100210005E5F616264656668696B6C6D6F70727356
:100220007577787A7B7D7E8082838587888A8C8EBD
:100230008F91939596989A9C9EA0A2A3A5A7A9ABEF
:10024000ADAFB1B3B5B7BABCBEC0C2C4C6C9CBCDE1
:10025000CFD1D4D6D8DBDDDFE2E4E7E9EBEEF0F393
:10026000F5F8FAFDFF00AF00AE202000BABB004B4E
:10027000657920B10020C0C100B4B500B2B300BEA2
:10028000BF003030200020202020B1BCBD004261E2
:100290006C6CB100C2C3B4B5202D2D2D004CB6B787
:1002A00072B10020200005010902A10185020901A7
:1002B000A1000509190129081500250195087501F6
:1002C00081020501093009311581257F95027508E4
:1002D000810609381581257F950175088106050C71
:1002E0000A38021581257F950175088106C0C00571
:1002F000010906A101050719E029E7150025019567
:100300000875018102950175088101050719002909
:10031000FF150026FF0095067508810005081901E4
:1003200029051500250195057501910295017503B3
:100330009101C009023B00020100A0FA090400007B
:1003400001030101000921110100012244000705F8
:1003500081030800010904010001030000000921D4
:10036000110100012249000705820320000112014A
:1003700000020000000857590004000101020001BA
:1003800014034B0065007900620061006C006C0092
:10039000340034000000100359006F0077006B0038
:1003A00065006500730000000403090400000000FC
:1003B000000000005F000000000700070000147F3D
:1003C000147F1400242A7F2A120023130864620079
:1003D000364956205000000807030000001C224147
:1003E00000000041221C00002A1C7F1C2A00080873
:1003F0003E08080000807030000008080808080067
:100400000000606000002010080402003E514945D1
:100410003E0000427F4000007249494946002141A8
:10042000494D33001814127F100027454545390007
:100430003C4A4949310041211109070036494949DF
:100440003600464949291E00000014000000004003
:100450003400000000081422410014141414140085
:100460000041221408000201590906003E415D596D
:100470004E007C1211127C007F49494936003E41F2
:10048000414122007F4141413E007F4949494100AD
:100490007F09090901003E41415173007F080808A6
:1004A0007F0000417F4100002040413F01007F0864
:1004B000142241007F40404040007F021C027F0028
:1004C0007F0408107F003E4141413E007F09090939
:1004D00006003E4151215E007F0919294600264948
:1004E0004949320003017F0103003F4040403F0083
:1004F0001F2040201F003F4038403F006314081475
:1005000063000304780403006159494D4300007FF0
:1005100041414100020408102000004141417F0098
:10052000040201020400404040404000000307086C
:1005300000002054547840007F2844443800384458
:1005400044442800384444287F0038545454180048
:1005500000087E0902001824241C78007F08040487
:10056000780000447D4000002040403D00007F10A6
:100570002844000000417F4000007C04780478009B
:100580007C08040478003844444438007C1824244F
:100590001800182424187C007C080404080048541F
:1005A0005454240004043F4424003C4040207C0078
:1005B0001C2040201C003C4030403C0044281028B7
:1005C00044004C9090907C004464544C44000008DB
:1005D00036410000000077000000004136080000AE
:1005E0000201020402003C2623263C000000000019
:1005F0000000000000000000C0F0F88C86C6E7FF95
:10060000FFFFFFFFFFFEFCFCF8E080000000F0F0C1
:10061000F00000C0E0F0707000000000000000007A
:100620000000000000000000000000000000F8F8DA
:10063000F8000000000000000000000000000000C2
:1006400000000000F8F8F80000F8F8F800000000DA
:100650000080E07078686C64C7C7C7C7C7C7E73F4A
:100660001F0F3FFFFFFFFFFFFF3F0F000000FFFFD7
:10067000FF1E3FFFF3E1800000F8FCFE3636363EF9
:10068000BCB8000E3EFEF080F0FE3E0E0000FFFF04
:10069000FF060606FEFEFC7000E6F6F63636FEFEA7
:1006A000FC000000FFFFFF0000FFFFFF0000000054
:1006B0003C7F6360E0C0C0C0C0C0C0C0C0FFFFC01E
:1006C0006030180F03030301000000000000030363
:1006D00003000000030303030001030303030303F8
:1006E0000301007070393F1F070100000000010383
:1006F00003030303030301000001030303030303D4
:1007000001000000030303000003030300101010A6
:1007100000000000AA0000003E635D5D637F417B36
:1007200077413E00001C22221C003E0A003E0A00C7
:10073000645478004C503C003854580000007F0945
:10074000760000003E414100000000007F08770075
:100750003E4141003E4141007F090600417F41008A
:10076000464931003E4141007F0976007F413E000D
:10077000417F41001F601F007E097E007F067F00D1
:100780007F40400011241FBECFEFDAE0DEBFCDBFB7
:1007900011E0A0E0B1E0E2EEF9E502C005900D92B3
:1007A000A03CB107D9F726E0A0ECB1E001C01D9252
:1007B000AB30B207E1F70E94EF230C94BA2C0C94F3
:1007C0000000482F2091FD039091C40357E02913A6
:1007D00002C080E0089530E0529FF001539FF00D79
:1007E0001124EB53FC4F8181681306C080814813AC
:1007F00003C085818111EECF2F5F3F4F2770E7CF78
:10080000E8EDF0E080818E7F80831092E20010920C
:10081000DA001092E100A0EEB0E08C9181608C9340
:1008200080818F77808319BCA7EDB0E08C918E7F9B
:100830008C9380818F7E80831092AC0308952091E9
:10084000E4003091E50095E6A9012091EC00822FAB
:10085000817020FF06C08091E80080FF06C080E024
:1008600008952091E80022FD1AC08091BA038823E0
:1008700089F0853089F08091EB0085FD0FC02091D3
:10088000E4003091E50042175307F9F29150E1F688
:1008900084E0089582E0089583E0089581E008955A
:1008A0008091BC0387FF13C08091E80082FF06C0DF
:1008B0008091E8008B778093E80004C08091BA03B0
:1008C0008111F2CF08958091BA038823D9F38091E2
:1008D000E80080FFF8CF8091E8008E77ECCF982F6A
:1008E0009093E900242F762F50E0891731F0709112
:1008F000EC002091ED005091F00021FD07C09F5FBA
:10090000973071F78093E90081E008953091EB0012
:100910003E7F3093EB003091ED003D7F3093ED0052
:100920003091EB0031603093EB007093EC0020933A
:10093000ED005093F0002091EE0027FDE0CF80E025
:100940000895B0E0A0E0E7EAF4E00C949F2BC8ED36
:10095000D0E088818F7E8883E7EDF0E08081816040
:10096000808384E082BF81E08093AC0388818E7FA6
:10097000888302EE10E0F80110821092DA0081EE16
:10098000C82ED12CF601108288818F7788838881C8
:100990008068888388818F7D888319BC1092BA0310
:1009A0001092BB031092B9031092B80390EEE92E97
:1009B000F12CF70180818B7F80838881816088831F
:1009C00042E060E080E00E946F04F60180818E7F4B
:1009D0008083F8018081816080838081886080834A
:1009E000F70180818E7F8083888180618883CDB785
:1009F000DEB7E8E00C94BB2BFC018091C203909120
:100A0000C30386179707A0F06115710529F490912B
:100A1000E8009E779093E80090E06115710551F42D
:100A2000911108C08091E80082FF34C080E00895F1
:100A3000BC01F2CF8091BA038823C1F18530C1F1A6
:100A40008091E80083FD30C08091E80082FDEACF0C
:100A50008091E80080FFE1CF8091F3002091F200C7
:100A6000382F6115710519F02830310558F091E0E3
:100A70002830310509F090E02091E8002E7720938E
:100A8000E800CBCF81918093F100615071092F5F15
:100A90003F4FE7CF8091BA03882341F0853041F082
:100AA0008091E80083FFBECF81E0089582E0089541
:100AB00083E00895089508958091AF0308952FB7B6
:100AC000F8946091A8037091A9038091AA03909172
:100AD000AB032FBF08959C01FC0132969FEF80E08D
:100AE0004191461751F09F3F19F4411101C0982FD1
:100AF0008F5F8630A9F79F3F09F40895290F311DB4
:100B000097FD3A95F90162830895FC01680F791FFA
:100B10008FEF91E32191822728E030E087FF09C021
:100B2000880F892721503109C9F7E617F70791F790
:100B30000895880FF7CFFA01811101C0FB010995D3
:100B40000895E6E7F3E0118282818460828308954C
:100B500080916E03982F9E7F61F4817082608093F4
:100B60006E0380917103873918F086E980937103D1
:100B700008958630B0F381708460F1CFAF92BF9258
:100B8000DF92EF92FF920F931F93CF93DF93082F83
:100B9000162FE901E42FF0E0EB59FE4F611110C070
:100BA000E4915E2F4E2F4983E8835A83DF91CF91E2
:100BB0001F910F91FF90EF90DF90BF90AF9008953D
:100BC000E62EF12C4491D42EE42FF0E026E0829F13
:100BD000C00111242FEF30E0B9010E94812B802F3A
:100BE00090E0880F991F55E5569FD001579FB00D93
:100BF00011248A1B9B0B982F990F890F5901AE184E
:100C0000BF08AE9ED001AF9EB00DBE9EB00D1124A8
:100C10005B2F189F80011124012F11275901A01A61
:100C2000B10AAE9E8001AF9E100DBE9E100D112424
:100C30005901A81AB108AE9CC001AF9C900DBE9C92
:100C4000900D1124892F9927281B390B2E9FC00145
:100C50002F9F900D3E9F900D1124E92F623071055A
:100C6000A1F050F46115710509F49DCF6130710553
:100C700081F0EB2F512F97CF6430710569F080F030
:100C80006630710509F48FCFF4CFE42F4B2F592F25
:100C90008ACFE42F412F87CFEB2F542F492F83CFBB
:100CA0004B2F5D2DE12F7FCFCF93DF93E7E7F1E06F
:100CB00083819481A581B681E90188839983AA8380
:100CC000BB831482138216821582DF91CF9108951F
:100CD00080E0089563E070E08EE192E00E94850577
:100CE00090911D02891318C0E0911E02EC30A4F40B
:100CF00088E0E802F0011124EF5FFE4F0680F781E3
:100D0000E02D309749F021E432E04091200261E289
:100D100072E080911F0209950895E8E0F2E087896A
:100D200080933101808D809344010895F894E82FD9
:100D3000E295EF70F0E031A1282F2F7081E090E074
:100D400001C0880F2A95EAF7982F9095932391A3D5
:100D500092A1892B82A3789408959091840292FFA6
:100D600010C041E0282F2471243009F040E031E028
:100D7000282F2871283009F030E0431711F02CE0BB
:100D8000822793FF10C041E0282F2471243109F0FD
:100D900040E031E0282F2871283109F030E0431776
:100DA00011F02CE082273091850230FF10C051E015
:100DB000282F2171213009F050E041E0282F2871BF
:100DC000283009F040E0541711F029E0822731FF64
:100DD00010C041E0282F2171213109F040E031E0BD
:100DE000282F2871283109F030E0431711F029E04D
:100DF000822794FD877E089582389105B9F1B0F479
:100E00008133910509F47DC048F48932910509F4D4
:100E10006DC08A32910509F47BC008958533910530
:100E200009F45FC08933910509F10895833E910566
:100E3000D9F138F4803E910529F1823E910579F18E
:100E40000895863E9105D9F1873E910509F43EC08B
:100E5000843E910541F52091850221FF24C08091B7
:100E6000840284FD19C087EE90E0089520918402E9
:100E7000237009F05AC02091850223FF14C089E233
:100E800090E008952091840220FD38C030918502C1
:100E900030FF09C024FF43C090E080E00895209116
:100EA000840222FDF7CF08952091840222FD3AC0EA
:100EB0003091850230FD39C024FFF5CFEDCF209170
:100EC000840223FFF0CF24FDE7CFCDCF2091840211
:100ED00023FD2EC03091850231FFEECF84EE90E0ED
:100EE00008952091840225FFDECFC9CF209184028E
:100EF00025FD21C02091850223FFD5CF89E390E015
:100F0000D2CF2091840226FFCECF8AE290E00895CE
:100F10002091840226FFC7CF81E390E0089583EEFD
:100F200090E0089582EE90E0089580EE90E00895BC
:100F300086EE90E0089585E390E00895783090F48F
:100F4000663080F4811111C0E62FF0E086E0789FD2
:100F5000E00DF11D1124EE0FFF1FEF51FF4F8591A2
:100F60009491089580E090E0089581E0FCCF1F9374
:100F7000CF93DF930E94FC06EC01C11582E5D807F0
:100F800008F03FC0C11590E5D90708F0C2C0C83EBF
:100F9000D105C0F4C03ED10580F4C53AD10548F46E
:100FA000C430D10550F4C130D10539F0D0E0C0E0F3
:100FB00004C0CD3CD105D0F3D065CE01DF91CF91F7
:100FC0001F910895C11580E4D80708F053C0C115DA
:100FD00090E2D90708F0B7C0C11581E0D80730F317
:100FE0008D2F0E94AD06182FCE0199270E94FC0676
:100FF000C12FD0E0DC2FCC27CC27DF71C82BD92B19
:10100000DCCFC03892E5D907A8F4C03682E5D8070E
:1010100008F063C0C03492E5D90708F049C0C03277
:1010200082E5D80788F1CF71D0E0DC2FCC27C16FE3
:10103000D06AC3CFC03C92E5D90780F48C2F8F7162
:10104000C03AD24508F45EC00E94AD06C82FD0E079
:10105000DC2FCC27CC27DF71D062AFCFC03E82E53A
:10106000D80708F0A3CFDC2FCC27CC27DF71C06FC7
:10107000D06AA3CFCE0199270E94FC06CC27DF704F
:10108000C82BD92BD06A99CF2C2F2695269590E284
:10109000299F900111248C2F8370C1E0D0E002C001
:1010A000CC0FDD1F8A95E2F7C22BD32BDD6885CFED
:1010B0002C2F26952695277080E2289F90011124D9
:1010C0008C2F8370C1E0D0E002C0CC0FDD1F8A9569
:1010D000E2F7C22BD32BDC6870CF2C2F26952695F8
:1010E000277090E2299F900111248C2F8370C1E01A
:1010F000D0E002C0CC0FDD1F8A95E2F7C22BD32BC4
:10110000DA685BCFC82FD0E0DC2FCC27C46FD06A61
:1011100054CF8C2F8F710E94AD0655E0D695C795A0
:101120005A95E1F7CF70D0E0DC2FCC27282F30E0A4
:1011300084FF05C044E0220F331F4A95E1F7C22B1C
:10114000D32BD0693ACF8D2F8F710E94AD06182F07
:10115000CE0199270E94FC06C12FD0E0DC2FCC27BE
:10116000CC27DF71C82BD92B77CF80959091AD0319
:1011700098239093AD0308958091FD039091C4034B
:10118000981301C008958F5F8770FACFCF92DF92D6
:10119000FF920F931F93CF93DF936C0100917A031B
:1011A0008091FA01082BC7E0D0E010E0FC2EC801C6
:1011B0000C2E02C0959587950A94E2F780FD0CC02D
:1011C0002197A0F7F12C8F2DDF91CF911F910F91D7
:1011D000FF90DF90CF900895B6018C2F0E949E075C
:1011E0000E94B707019761F3EECFCF93DF93EC0135
:1011F0000E94C608BE010E949E070E94B707DF91A9
:10120000CF910895292F983078F5863068F590E0D1
:1012100036E0239F800D911D1124682F677023E015
:10122000969587952A95E1F7FC01EE0FFF1FE80FD1
:10123000F91FEA52FE4F50E040E080E0219130E09B
:10124000062E02C0369527950A94E2F721703327BF
:10125000042E01C0220F0A94EAF7822B4F5F5F4FE2
:101260004330510559F7089580E00895292F9830AB
:1012700098F5863088F590E036E0239F800D911D2B
:101280001124282F277041E001C0440F2A95EAF766
:1012900023E0969587952A95E1F7FC01EE0FFF1F55
:1012A000E80FF91FEA52FE4F30E020E070E0519164
:1012B000DF011197CB01022E02C0969587950A9403
:1012C000E2F7817081958527842385278C932F5F92
:1012D0003F4F2330310559F7089580937A030895DD
:1012E00021E030E001C0220F8A95EAF72095809135
:1012F0007A0382230E946D0908959091EF018095F1
:1013000089238093EF01282F277069F4891759F0FA
:101310009091850292FF07C08695869586950E94DA
:1013200070091092EF01089521E030E001C0220F12
:101330008A95EAF780917A03822B0E946D090895BD
:101340008093FA010895FC0124812223C1F0808159
:1013500091810E94F50892959F70963091F058F413
:10136000925F9F70923058F4803F19F030F4883EBD
:1013700030F481E008959A5FF4CF843FD1F380E0A8
:101380000895883EB0F3813FD1F7F3CFA6E0B0E0F7
:10139000ECECF9E00C94A42B49835A8349815A81DF
:1013A0009923A1F0222391F0CA010E94C608182FA8
:1013B000682F89819A810E94360969817A81812FFB
:1013C0000E949E072696E3E00C94C02BCA010E945F
:1013D0000209182FF2CFCF93C82F809184018C1768
:1013E00051F00E945F0560938501709386018093A0
:1013F000870190938801C0938401CF910895B0E054
:10140000A0E0E5E0FAE00C949D2B7C01EB01E0917B
:101410008901E11101C0E4E0E150FF0B81E090E0BF
:101420006C010E2E02C0CC0CDD1C0A94E2F7D70131
:101430000D911C91C801B6010E94E62B9B01CB01C6
:101440000E2E02C0880F991F0A94E2F7081B190B91
:10145000D70111961C930E931296AD90BC90C501C6
:10146000B6010E94E62B8B01CB0102C0880F991FA9
:10147000EA95E2F7A81AB90AF701B382A28281E8D5
:101480006138FFEF7F072CF0862F603871050CF074
:101490008FE78D8321389FEF390754F120383105CC
:1014A0004CF5922F91959C83442319F081958D835F
:1014B0002C830E945F052D81211103C02C812223E2
:1014C000D9F060938A0170938B0180938C01909383
:1014D0008D0180918E019BE0980F973120F4080FC9
:1014E00000938E011D82CDB7DEB7EAE00C94B92BD4
:1014F00021E8D7CF2FE7D5CFC0908A01D0908B01BC
:10150000E0908C01F0908D016C197D098E099F0986
:101510006436710581059105E0F210928E01D9CFF4
:10152000FC01DB012281338191E821388FEF3807FC
:101530002CF0922F203831050CF09FE712969C93E7
:1015400012972081318121388FEF3807A4F020389D
:1015500031059CF413962C931397442339F09195FD
:1015600012969C931297219513962C9311821082B8
:1015700013821282089521E8EDCF2FE7EBCF8F7011
:101580008A3010F4805D0895895A0895382F20E23A
:1015900087FF02C031952DE24AE0832F642F0E941D
:1015A000D82B905D9093CD0181110BC02093CC017D
:1015B00020E22093CB0120E22093CA018AEC91E043
:1015C0000895642F0E94D82B905D9093CC01832FB7
:1015D00064E60E94D82B882361F3805D8093CB0161
:1015E000EBCF9C01860F971F37FD07C077FD04C026
:1015F00097FF02C08FEF9FE7089577FFFDCF97FD1C
:10160000FBCF80E090E80895CF939091AF02809156
:10161000A802981323C08091B002882321F09091F2
:10162000A90289131BC08091B102882321F09091F7
:10163000AA02891313C08091B302882321F09091EC
:10164000AC0289130BC09091B202992329F081E07A
:101650002091AB02291303C080E001C081E0C82FB4
:10166000C17080FF0FC0E091A503F091A6033097F1
:1016700049F082E08093AE020480F581E02D8EEA8D
:1016800092E009959091AF0286E0EEEAF2E0DF0188
:10169000282F1D922A95E9F79093AF02A7EAB2E0AE
:1016A00001900D928A95E1F781E0C11103C091117B
:1016B00001C080E08170CF910895AEE1B0E0E3E633
:1016C000FBE00C94A52B4091AE025091AF026091CB
:1016D000B0027091B1028091B2029091B3020E9467
:1016E00086162093AE023093AF024093B00250931F
:1016F000B1026093B2027093B30286E0EEEAF2E0C8
:10170000DE01179601900D928A95E1F786E0FE01C1
:101710003796DE011D9601900D928A95E1F786E0DD
:10172000FE013D96DE01119601900D928A95E1F73A
:1017300086E0FE013196AEEAB2E001900D928A9504
:10174000E1F786E0EEEAF2E0DE01599601900D92B3
:101750008A95E1F786E0FE017996DE011796019001
:101760000D928A95E1F786E0FE013796DE0111962B
:1017700001900D928A95E1F786E0FE013196DE0137
:10178000539601900D928A95E1F786E0FE017396DB
:10179000DE01179601900D928A95E1F786E0FE0131
:1017A0003796AEEAB2E001900D928A95E1F70E9479
:1017B000040B811109C08091AD021092AD028170BD
:1017C0006E96E2E00C94C12B81E090E0F6CF2FE220
:1017D000280F283078F481E090E001C0880F2A9526
:1017E000EAF72091AF02662331F0822B8093AF029B
:1017F0000E94040B089580958223F8CFCF93DF9346
:10180000282F81E02A3019F02D3031F480E00E9439
:10181000920CDF91CF910895809107069091080670
:1018200036E0FC01A1E0B6E001900D923A95E1F7B7
:1018300030EE320F343A08F458C026E0FC01119221
:101840002A95E9F7C0910706D091080646E050E0D6
:10185000BE0181E096E00E944C2C9E012150344054
:10186000892B41F1C90145E0969587954A95E1F7A5
:1018700041E050E0BA0102C0660F771F8A95E2F797
:10188000CB016091FF0370910004862B972BB90167
:101890006B5F7F4FE5E076956795EA95E1F702C0CB
:1018A000440F551F6A95E2F7842B952B9093000403
:1018B0008093FF032A5F3F4F4091FE03642F70E047
:1018C000C9010E94812B481B463010F4240F311DA2
:1018D000211572E0370710F030E020E02F5F3B4F1A
:1018E000309308062093070694CF2052330B46E02E
:1018F000429FB001439F700D112464557C4F46E018
:1019000050E00E94362C9ECFCF93DF93EC01FE0176
:101910008491811103C0DF91CF9108950E94FE0B45
:101920002196F5CFCF93382FE0910706F091080666
:10193000E150F4402091FE03622F70E0CF010E943D
:10194000812B281B822F332361F066E00E94CC2B71
:10195000C82FC15010F4CF91089580E20E94FE0B71
:10196000F8CF9F01280F311D2115324018F080E07B
:10197000F0E0E0E08E0F9F2F911D8F5F9B4F9093C3
:10198000080680930706E7CF8091AD039091F90197
:10199000892B8093C2019091F801992391F0892BB2
:1019A0008093C20120E084EC91E0FC013191CF01F1
:1019B00031112F5FF1E08A3C9F07B9F72111109296
:1019C000F80148E050E060EF71E082EC91E00E94A5
:1019D0004C2C892BA9F088E0E2ECF1E0A0EFB1E01B
:1019E00001900D928A95E1F7E091A503F091A6038D
:1019F000309731F00280F381E02D82EC91E009957F
:101A00000895E4ECF1E086E0DF011D928A95E9F7A4
:101A10001092F9010E94C40C0895AAE2B0E0E3E13B
:101A2000FDE00C94A42B8CEB93E02091F100FC01E1
:101A30002193CF01F3E0843C9F07B9F78091BD0368
:101A4000833009F470C0B8F4813009F447C08230A3
:101A500009F4B3C08091E80083FF80C28091BC0389
:101A60009091BD039A3008F079C2E92FF0E0E45478
:101A7000F34D0C94FA2B8A3009F48EC08B3009F4A4
:101A80006FC0893039F78091BC03813219F780919A
:101A9000C0039091C1030297E8F68091E800877F28
:101AA0008093E8008091E80082FF38C09091F300B5
:101AB0008091F200029731F48091F100813011F0B1
:101AC000863021F48091F1008093AF038091E8008B
:101AD0008B778093E8000E945004BCCF8091BC03B8
:101AE000813A09F0B7CF8091E800877F8093E800C2
:101AF0008091C0039091C103892B61F468E080EB71
:101B000093E070E00E94FC048091E8008B77809362
:101B1000E800A0CF60E090E080E0F3CF8091BA03CE
:101B20008111C0CF97CF8091BC03813A09F092CF49
:101B30008091C0039091C103892B09F08BCF8091D4
:101B4000E800877F8093E8008091E80080FFFCCF69
:101B5000809171018093F1008091E8008E77B9CF78
:101B60008091BC03813209F075CF8091C0039091C0
:101B7000C103892B09F06ECF8091E800877F8093A5
:101B8000E8000E9450048091BE038093710110927E
:101B9000AD030E94010D5ECF8091BC03813209F03C
:101BA00059CF8091E800877F8093E8000E9450041D
:101BB0008091BF038093AE034DCF8091BC03813AE7
:101BC00009F048CF8091E800877F8093E8008091FA
:101BD000E80080FFFCCF8091AE03BCCF803899F045
:101BE000823809F0BBC18091C0038F70873008F044
:101BF000B5C18093E9008091EB0085FB882780F9CF
:101C00001092E90006C08091B8039091B903911138
:101C100082609091E800977F9093E8008093F100B4
:101C20001092F1008091E8008E7794C1882309F426
:101C300082C1823009F092C18091BE03811185C1B9
:101C40008091C0038F702FEF280F263008F086C1D7
:101C50008093E9002091EB0020FF77C1933031F4AD
:101C60008091EB0080628093EB006FC19091EB005C
:101C700090619093EB0021E030E001C0220F8A9543
:101C8000EAF72093EA001092EA008091EB00886066
:101C9000EACF811163C11091BE031F778091E300E9
:101CA0008078812B8093E3008091E800877F809388
:101CB000E8000E9450048091E80080FFFCCF8091F2
:101CC000E30080688093E30082E0111183E0809359
:101CD000BA0344C18058823008F040C18091BE03ED
:101CE0009091BF038C3D23E09207A1F583E08A83A6
:101CF0008AE289834FB7F894DE01139620E03EE034
:101D000051E2E32FF0E050935700E49120FF03C02D
:101D1000E295EF703F5FEF708E2F90E0EA30C0F0F9
:101D2000C7968D939D932F5F243159F74FBF8091B4
:101D3000E800877F8093E8006AE270E0CE010196B8
:101D40000E94FC048091E8008B778093E80006C134
:101D5000C096E7CF4091C0035091C103292F33278C
:101D60002330310509F444C078F52130310509F4F8
:101D70006FC08BE390E0E3E3F3E02230310509F03C
:101D8000EDC02091E800277F2093E8002091C20356
:101D90003091C3038217930708F49C0140E021159A
:101DA000310509F064C0411162C08091E80082FDF4
:101DB000C9CF8091BA03882329F2853019F2809126
:101DC000E80083FFF2CFBECF21323105A9F12232E4
:101DD000310509F0C3C04115510509F443C0413034
:101DE000510509F0BBC089E490E0E6EAF2E0C9CF12
:101DF000992781309105C1F0009759F0029709F0B9
:101E0000ADC0E0E8F3E0E4918E2F90E0E0E8F3E08D
:101E100007C0E8EAF3E0E4918E2F90E0E8EAF3E00F
:101E2000009709F49BC0ADCFE6E9F3E0E4918E2F73
:101E300090E0E6E9F3E0F4CF4115510571F041304F
:101E4000510509F08BC089E090E0EEE5F3E099CF11
:101E500082E190E0EEE6F3E094CF89E090E0E5E403
:101E6000F3E08FCF84E490E0EFEEF2E08ACF809150
:101E7000BA03882309F466CF853009F463CF8091D3
:101E8000E80083FD5FCF8091E80082FD8ECF8091D6
:101E9000E80080FF84CF9091F3008091F20021153B
:101EA000310519F08830910550F041E0089709F0AC
:101EB00040E08091E8008E778093E80070CF4491F5
:101EC0004093F1003196215031090196E8CF8038D6
:101ED00009F044C08091E800877F8093E8008091FA
:101EE000BB038093F1009ECE811138C01091BE03D8
:101EF0001230A0F58091E800877F8093E80010936E
:101F0000BB030E945004112311F084E005C08091AE
:101F1000E30087FDFACF81E08093BA0342E061ECF1
:101F200081E00E946F0442E261EC82E00E946F0453
:101F30008091BA0313C08091BE03813079F481E0AF
:101F4000933009F080E08093B9031092E90080910A
:101F5000E800877F8093E8000E9450048091E800A9
:101F600083FF0AC08091E800877F8093E80080911A
:101F7000EB0080628093EB00AA96E3E00C94C02B08
:101F8000882321F00E94B5080E94C40C089588237C
:101F900039F09091AD03982B9093AD030E94C40C3F
:101FA0000895882349F19CEF980F913A80F4E4EC6E
:101FB000F1E02AEC31E09191891303C0DF01119720
:101FC0001C922E173F07B9F70E94C40C089590E2A7
:101FD000980F983050F4877091E001C0990F8A955E
:101FE000EAF7892F0E94B508EFCF93E3980F93315A
:101FF00018F460E00E94E70B0895CF93C82F882360
:10200000A9F08CEF8C0F813A00F5E4ECF1E0DF01F0
:102010008D91C81769F081E0AA3CB807C9F76C2F09
:1020200082EC91E00E946B050E94C40CCF91089550
:102030008191C81303C0DF0111971C9281E0EA3C33
:10204000F807B1F70E94C40CEACF80E28C0F883009
:1020500068F4C77021E030E001C0220FCA95EAF7AA
:102060008091AD03822B8093AD03DECF83E38C0F91
:102070008331E0F661E08C2F0E94E70BD7CF0F93FE
:102080001F93CF93DF93EC01FC0101900020E9F74F
:102090008F0101501109C017D10728F0DF91CF91AE
:1020A0001F910F91089589910E94FE0BF4CF0F9319
:1020B0001F93CF93DF938B01EA019091BA03943081
:1020C00061F58093E9008FEF9091E800815095FDD4
:1020D00006C095ED9A95F1F700008111F5CF80913A
:1020E000E80085FF1AC00E941F04811111C0809171
:1020F000E80085FD06C08091E8008E778093E800B7
:10210000F2CFF80181918F018093F100219779F747
:102110008091E8008E778093E800DF91CF911F9146
:102120000F91089546E050E0BC0182E00E945710F4
:102130000895CF93DF93EC0148E050E0BC0181E0CB
:102140000E94571088E0FE01A0EBB3E001900D92D1
:102150008A95E1F7DF91CF910895609173018091A5
:102160006E0380FF20C08091720143E0849FC00114
:1021700011248C549D4F539A2BB1277F3BB138606B
:102180005FB7F894FC01649FE00DF11D1124BF01BD
:1021900068177907D1F45FBF8FE594E00197F1F7F5
:1021A00000C000000895809174019091750123E0B2
:1021B000829FF0011124EC54FD4F8917A0F6118283
:1021C000108212828F5F3396F8CFFC014191CF01CC
:1021D000E8E03BB9000000C047FF2BB9440F000006
:1021E00000C000C000C02BB900C0EA9591F7D0CF65
:1021F00090916E0390FF0EC0909174012091750133
:1022000033E0939FF0011124EC54FD4F921718F026
:102210000E94AD1008958183608342839F5F33964F
:10222000F5CFA3E0B0E0E7E1F1E10C94A32B8C0142
:102230008091790381110AC09E012F5F3F4F46E9CB
:102240006FEF0E94BE058A8180937903F801648153
:10225000613069F08091790340E0662361F040E0ED
:10226000623011F44091790380E060E004C0609135
:10227000790340E080E00E94F810F801848190E04A
:10228000019663E070E00E94E62B84832396E4E0ED
:102290000C94BF2BB0E0A0E0E0E5F1E10C949D2BA5
:1022A0007C015B016A018091750201E010E08A30D7
:1022B00010F40AE010E0C1E0D0E0B501C701F6017A
:1022C0000995811104C021960C171D072CF4CDB778
:1022D000DEB7EAE00C94B92BCC9F9001CD9F300D76
:1022E000300D112490E080E045E34A95F1F70000BD
:1022F000019682179307C1F7E0CF80910702811101
:1023000019C082E390E02091E30027FD10C0EFE3C5
:10231000FCE93197F1F700C000000197A1F782E0D6
:10232000809307020E9400041092BA0303C081E068
:102330008093070281E090910702913011F080E0D4
:10234000089508950E947D11882359F0E091A50316
:10235000F091A603309729F00190F081E02D0995C6
:10236000089580E008950F931F930E947D118823A4
:1023700029F00E945F051F910F9108950E945F054B
:1023800000917602109177022091780230917902C3
:10239000600F711F821F931FEECF54985C9A879A2B
:1023A0008F9885E08A95F1F7000089B187988F9A18
:1023B00090EA9A95F1F790E024E0959587952A9513
:1023C000E1F78095909581700895CF93DF93809188
:1023D0007701CEE18111CDE180917801D0E08823B1
:1023E00029F080917901DEE18111DDE10E94CD11BA
:1023F00081110FC08D2F80937201C0937301CD0F97
:1024000010927401C0937501C0937601DF91CF9152
:10241000089580E0F0CF80917701F90180830E94D8
:10242000E51108951092AD030E94010D2FEF84E392
:102430009CE0215080409040E1F700C0000088E11E
:102440009AE00FB6F894A895809360000FBE909321
:102450006000FFCFB0E0A0E0E0E3F2E10C949F2B3E
:102460006C017B0164E670E088E70E94DF288C0144
:10247000E601EC0CFD1C17FD0BC0FE01849164E627
:1024800070E00E944B298C012196CE15DF0599F74B
:102490000E94C12981E00115110509F080E0CDB746
:1024A000DEB7E8E00C94BB2B8091A1039091A403CC
:1024B000911103C091E089270895882369F062E0B3
:1024C00070E087E692E00E942A12811103C0809199
:1024D000A10308951092A1038091A103EBCFCF93A4
:1024E000C091A1038091A4038823D1F00E945F05CD
:1024F000605A75418F4F9F4F60939D0370939E0369
:1025000080939F039093A003C11108C062E070E024
:1025100085E692E00E942A12811105C0C091A103B4
:102520008C2FCF91089581E08093A103F7CFB0E085
:10253000A0E0EDE9F2E10C949B2B49015A016B01FB
:102540007C010E94A8058401A4016A2D7B2D88E0EE
:1025500090E00E94982C94014A2D5B2DB601C70192
:1025600000E20E941B2C622F84E290E00E94862CE5
:10257000CDB7DEB7ECE00C94B72BA3E0B0E0E3EC12
:10258000F2E10C94A12BF82E062F142FE22E80914D
:102590006E0380FF42C090916F039F1108C090911D
:1025A0007003961304C090917103941729F09091D1
:1025B0007803926090937803E82FE695F0E0EB546F
:1025C000FE4F9081909376038E7F823081F4412F6D
:1025D000173908F046E99E012F5F3F4F602F8F2D7E
:1025E0000E94BE054B8169818A810E94F810F09299
:1025F0006F030093700310937103EE2071F020912C
:102600006E0360917203709173033F2DA801809156
:102610007403909175030E9497122396E6E00C9440
:10262000BD2BEEE6F3E043812FE0421B08F440E0CF
:1026300021E0628181810E94BD120895EEE6F3E0FF
:1026400043812FE0420F08F44FEF21E06281818146
:102650000E94BD120895EEE6F3E0628121E1621B63
:1026600008F460E021E0438181810E94BD12089559
:10267000EEE6F3E0628121E1620F08F46FEF21E002
:10268000438181810E94BD120895EEE6F3E08181CD
:1026900021E04381628181510E94BD120895EEE6DE
:1026A000F3E0818121E0438162818F5E0E94BD124F
:1026B000089580917203882319F0815080937203EA
:1026C00020916E0330916F0340917003509171031C
:1026D00060917203709173038091740390917503FC
:1026E0000E949712089580917203833018F48F5FCF
:1026F0008093720320916E0330916F0340917003B9
:10270000509171036091720370917303809174030F
:10271000909175030E9497120895EEE6F3E083E02E
:10272000808311828FEF828386E983831482A6E7F8
:10273000B3E012968C911297836012968C937581F8
:1027400023E030E04FEF56E960E0868197810E94F8
:1027500097120895B0E0A0E0E0EBF3E10C94A02B19
:102760007901C82F880FDD0B41155105A9F0FE0135
:1027700093E0EE0FFF1F9A95E1F7EF5FFE4F818127
:102780009281885F9D4F208130E04217530708F403
:102790009A01A9010E94592CCE010E940B2BD82E20
:1027A0008823D1F001151105B9F083E0CC0FDD1FAE
:1027B0008A95E1F7FE01EF5FFE4F438150E0041779
:1027C000150708F4A801CF5FDE4F6C817D81685F3B
:1027D0007D4FC7010E94592C8D2DCDB7DEB7E7E0A4
:1027E0000C94BC2BA5E0B0E0E8EFF3E10C949D2B3A
:1027F0008D83E62E5A01F22E6801809175028A308F
:1028000028F080E02596EAE00C94B92B8D81893080
:10281000C4F31A8219828A836B832C8363E070E08D
:10282000CE0102960E9485058983E0923101F092E3
:10283000440110E000E030E020E044E050E0BE0160
:102840006F5F7F4F85E00E94AA138823D1F24E2D3F
:1028500050E030E020E0B50186E00E94AA13882312
:1028600081F230E020E041E050E0BE016B5F7F4F3D
:1028700087E00E94AA13882321F20F2D10E0960111
:1028800050E040E070E060E088E00E94AA13BACF18
:10289000A4E0B0E0EEE4F4E10C94A32B40916902D3
:1028A00050916A0260916B0270916C022FB7F8949C
:1028B0008091A8039091A903A091AA03B091AB03C2
:1028C0002FBF841B950BA60BB70B11E08436910527
:1028D000A105B10518F10E94B3116E5F7F4F8F4FB4
:1028E0009F4F69837A838B839C8310E000E030E004
:1028F00020E044E050E0BE016F5F7F4F82E00E9425
:10290000AA13182F882351F00E945F056093690273
:1029100070936A0280936B0290936C02812F2496CD
:10292000E4E00C94BF2BA5E0B0E0E9E9F4E10C94FD
:10293000A12B7B0101E010E09E012B5F3F4F50E097
:1029400040E070E060E080E00E94AA13182F882326
:1029500009F456C040916502509166026091670289
:10296000709168022FB7F8948091A8039091A90301
:10297000A091AA03B091AB032FBF841B950BA60BAC
:10298000B70B84369105A105B10548F464E070E009
:1029900089E092E00E9485059D81891789F104E014
:1029A00010E09E012F5F3F4F50E040E070E060E09C
:1029B00081E00E94AA13082F64E070E089E092E0B1
:1029C0000E94850511E09D81981310E0102331F1DC
:1029D0000E945F05609365027093660280936702B0
:1029E0009093680289819A81AB81BC818093610256
:1029F00090936202A0936302B093640211E00EC050
:102A00008091090290910A02A0910B02B0910C02F0
:102A100089839A83AB83BC831111E4CF80916102D7
:102A200090916202A0916302B0916402F7018083E9
:102A30009183A283B383812F2596E6E00C94BD2B6E
:102A40008F929F92AF92BF92EF92FF920F931F933C
:102A5000CF937B01942FB901A801F7018080918069
:102A6000A280B380EFB7F8940091A8031091A90356
:102A70002091AA033091AB03EFBF081919092A0965
:102A80003B09043611052105310518F4C1E09923ED
:102A900081F010E000E030E020E00E94AA13C82F8F
:102AA000882339F00E945F05F70160837183828378
:102AB00093838C2FCF911F910F91FF90EF90BF9038
:102AC000AF909F908F900895A1E0B0E0EAE6F5E125
:102AD0000C94A32B8091A103898320911C0290E088
:102AE00041E02817190609F440E001E010E09E01DA
:102AF0002F5F3F4F61E772E084E00E94201521962E
:102B0000E4E00C94BF2BABE0B0E0E9E8F5E10C9415
:102B1000A32B88E0EEE6F3E0DE01119601900D9222
:102B20008A95E1F78091760390917703A0917803DD
:102B300089879A87AB8741E08B85811101C040E08E
:102B40000BE010E09E012F5F3F4F6DE672E083E0E7
:102B50000E9420158111109278032B96E4E00C94CA
:102B6000BF2BA8E0B0E0E7EBF5E10C94A52B66EEF7
:102B70007EEF90E080E00E94A42C60E082E090E094
:102B80000E94862C60E083E090E00E94862C1092E8
:102B9000FA0160E074E184E090E00E94A42C60E01F
:102BA00086E090E00E94862C6FEF87E090E00E9424
:102BB000862C40E050E0BA0188E090E00E94982C1A
:102BC00060E084E290E00E94862C60E087E190E083
:102BD0000E94862C60E08CE090E00E94862C60E0F1
:102BE0008DE090E00E94862C19821A821B821C8242
:102BF0001D821E821F82188648E050E068E170E066
:102C0000CE0101960E94762C40E050E0BA0180E2AD
:102C100090E00E94982C40E050E0BA018FE090E0F4
:102C20000E94982C40E050E0BA0183E190E00E94BD
:102C3000982C2896E2E00C94C12B9091850292FB8F
:102C4000222720F9281779F080FB92F990938502CA
:102C5000609184027091850284E090E00E94A42C2F
:102C600082E00E947D09089528E030E043E060E0C2
:102C700086E30E9407280895CF93DF93D82FC62FAD
:102C80000E9434168D2F80680E947F288C2F0E940E
:102C90007F288AEB8A95F1F700C00E94AF2883E471
:102CA00092E00197F1F700C00000DF91CF91089505
:102CB000682F893708F068E76093820191E090936C
:102CC000830190917701992339F06150811101C0FE
:102CD00064E08FE00E943C160895FB0180810E9411
:102CE0005816089590918201911101C095E0282F06
:102CF000880F330BA901490F511DCA011816190677
:102D000014F081E090E00E9458160895ACE0B0E025
:102D1000ECE8F6E10C949F2B4F83588769877A87FC
:102D20008B879C8780917701882309F446C0809126
:102D3000CF01811107C060E080E50E943C1681E070
:102D40008093CF010E94341680E50E947F288AEB91
:102D50008A95F1F700C00E9497280E9497280E9448
:102D600097287C010E94972820E0E22AF82A0E94F6
:102D700097288C010E94972820E0022B182B0E9494
:102D8000AF2885E08A95F1F70000F894B7018091AB
:102D90007A0190917B010E94F10A90937B018093CC
:102DA0007A01B80180917C0190917D010E94F10A25
:102DB00090937D0180937C0178940E947D118823FB
:102DC00009F469C00E945F050091D0011091D10102
:102DD0002091D2013091D3016B017C01C01AD10A3C
:102DE000E20AF30A97018601083011052105310531
:102DF00008F451C06093D0017093D1018093D20147
:102E00009093D30100918501109186012091870153
:102E100030918801601B710B820B930B623371053B
:102E20008105910580F410927B0110927A01109235
:102E30007D0110927C0110927F0110927E01109210
:102E4000810110928001109184010E94CD11482FC0
:102E5000BE01695F7F4F8AE791E0112389F10E94EB
:102E6000FF0900918401109177010E94CD1141E08A
:102E70004827BE01695F7F4F8EE791E0011719F186
:102E80000E94FF0986E0FE013796A3E9B1E00190B8
:102E90000D928A95E1F786E0FE013796DE011196E4
:102EA00001900D928A95E1F729813A814B815C81ED
:102EB0006D817E8180E090E02C96E8E00C94BB2B45
:102EC0000E94900ACECF0E94900ADCCFCF93C82FE9
:102ED0000E9434168C2F0E947F288FE792E0019782
:102EE000F1F700C000000E949728C82F95E09A953E
:102EF000F1F700000E94AF2885E68A95F1F70000FF
:102F00001092CF018C2FCF910895CF93DF930E9421
:102F1000FF27269A0E9434166AE58AE30E943C162F
:102F20002FEF80E792E0215080409040E1F700C011
:102F3000000082E00E94661783E00E94661784E02A
:102F40000E94661785E00E94661786E00E94661759
:102F500060E080E10E943C1680E00E946617D82F56
:102F600081E00E946617C82F0E94AF28D23419F45E
:102F700081E0C13009F080E081708093770188237F
:102F800021F064E08FE00E943C16DF91CF9108951C
:102F90001F920F920FB60F9211242F933F934F93CE
:102FA0005F936F937F938F939F93AF93BF93CF93D1
:102FB000DF93EF93FF93D091E900DF708091EC00F5
:102FC000C82FC17080FDC0E81092E9008091F00028
:102FD000877F8093F00078940E940D0D1092E90095
:102FE0008091F00088608093F000CD2BCF70C0936B
:102FF000E900FF91EF91DF91CF91BF91AF919F9148
:103000008F917F916F915F914F913F912F910F9091
:103010000FBE0F901F9018951F920F920FB60F9230
:1030200011242F933F934F935F936F937F938F93CD
:103030009F93AF93BF93EF93FF938091E10082FF43
:1030400009C08091E20082FF05C08091E1008B7F82
:103050008093E1008091DA0080FF24C08091D80045
:1030600080FF20C08091DA008E7F8093DA0080910B
:10307000D90080FF9DC080E189BD82E189BD09B48E
:1030800000FEFDCF81E08093BA038091AC038111F3
:1030900009C00E9400040E94A1048091E2008460A3
:1030A0008093E2008091E10080FF17C08091E200F0
:1030B00080FF13C08091E2008E7F8093E2008091B8
:1030C000E20080618093E2008091D800806280936A
:1030D000D80019BC85E08093BA038091E10084FF99
:1030E0002BC08091E20084FF27C080E189BD82E18E
:1030F00089BD89B5982F917080FFFBCF8091D80052
:103100008F7D8093D8008091E1008F7E8093E100D5
:103110008091E2008F7E8093E2008091E2008160E6
:103120008093E2008091BB03882309F447C084E0C8
:103130008093BA038091BA038091E10083FF27C096
:103140008091E20083FF23C08091E100877F80931C
:10315000E10082E08093BA031092BB038091E1000A
:103160008E7F8093E1008091E2008E7F8093E20069
:103170008091E20080618093E20042E060E080E0C4
:103180000E946F048091F00088608093F000FF91AE
:10319000EF91BF91AF919F918F917F916F915F91CF
:1031A0004F913F912F910F900FBE0F901F90189548
:1031B00019BC1092BA031092AC0374CF8091E30053
:1031C00087FD93E09093BA03B5CF78941F921FB612
:1031D0001F9211248F939F93AF93BF938091A80365
:1031E0009091A903A091AA03B091AB030196A11DF0
:1031F000B11D8093A8039093A903A093AA03B09351
:10320000AB03BF91AF919F918F911F901FBE1F90F5
:1032100018959C014FB7F8948091A8039091A90349
:10322000A091AA03B091AB034FBF821B930B0895EB
:103230002FB7F8948091A8039091A903A091AA03B5
:10324000B091AB032FBF08952F923F925F926F9280
:103250007F928F929F92AF92BF92CF92DF92EF9226
:10326000FF920F931F93CF93DF938091A403882342
:1032700009F4DAC08091A2039091A3030E94091976
:10328000C29708F4B1C00E9418199093A3038093C9
:10329000A20381E094E090930806809307060E94C1
:1032A0007D11882309F4D7C08FE692E00E94840C38
:1032B00088EB0E94FE0B809192010E94BF0A0E943F
:1032C000FE0B89EB0E94FE0B809191010E94BF0AC8
:1032D0000E94FE0B8CE692E00E94840C80918F018C
:1032E0009091900154E0969587955A95E1F70E9448
:1032F000BF0A0E94FE0B80918F010E94BF0A0E94AC
:10330000FE0B89E692E00E94840C89E991E00E941C
:103310003F108EE892E00E94840C809195010E94FB
:10332000C60A0E943F10809196010E94C60A0E9420
:103330003F10809198010E94C60A0E943F10809120
:1033400097010E94C60A0E943F1086E892E00E9400
:10335000840C80918201811101C085E00E94C60A1F
:1033600001960E943F1082E892E00E94840C8FE751
:1033700092E00E94840C80918401882309F466C045
:103380008CE792E00E94840C85E792E00E94840C16
:1033900080918901811101C084E0805D0E94FE0B53
:1033A0008DE992E00E94840CC1E0D0E080917A0324
:1033B000882309F44EC090E00C2E02C095958795A5
:1033C0000A94E2F780FF45C08C2F0E94BF0A0E943A
:1033D000FE0B2196C830D10549F780E20E94FE0B12
:1033E00084E992E00E94840C8091FF039091000494
:1033F000892B09F046C08091A1038823A9F00E947F
:103400005F0500919D0310919E0320919F033091D1
:10341000A003601B710B820B930B6F3F7F4F8F4F8D
:103420009F4710F40E945412DF91CF911F910F918A
:10343000FF90EF90DF90CF90BF90AF909F908F90D4
:103440007F906F905F903F902F90089589E792E072
:1034500099CF80EBBCCFC0E9D0EFDC0F83EA92E0DC
:103460000E94840C11E01D0F8D2F0E94FE0BD12FA6
:103470001C13F8CF80E00E94920CC05FC03C61F743
:10348000B3CF8091A403882309F4B5CF80919C0326
:103490008111B1CF0E946F122091FF03309100047F
:1034A0002115310509F4A7CF80E041E050E0082F55
:1034B00010E01A01082E02C0220C331C0A94E2F715
:1034C000B10162237323672B11F48F5FF0CF9091CA
:1034D0009B0390FF95C0880F880F880F80936C0125
:1034E00010926F01895F80936D0183E0809370017A
:1034F00024E630E047E050E06AE671E088E70E94A9
:103500007929892B09F077CFA80125E0440F551FB1
:103510002A95E1F780919B0380FF84C0EBE7F3E0FD
:1035200080E2DF011D928A95E9F7ACEBB1E008EB90
:1035300011E080ECC82E81E0D82E97E0592E772438
:1035400073948D91E80129918E01240F352F311D3F
:103550002F5F3B4FE82FF0E0E558FC4F90E080E014
:10356000652C681A872C082E01C0880C0A94EAF78B
:103570007901A12CE701B9907E01B820662D6A1966
:103580006770962E062E000C770BDB2D01C0DD0F29
:103590009A94EAF77195619571096770772701C070
:1035A000B6946A95EAF7BD2A6081962E9B28908290
:1035B000A39468E0A612DECF01963196883091057B
:1035C00079F6CA16DB0609F0BCCF04E610E020E26B
:1035D00030E04BE753E060E488E70E949A29892BAA
:1035E00009F009CFE101C095D0958091FF0390913A
:1035F0000004C823D923D0930004C093FF03FBCE5B
:103600008295880F807680936C0198013695279576
:103610003695279520936F01815E80936D012093ED
:10362000700166CF4F5F5B4F04E610E020E230E0B0
:10363000D2CF0E947D11882319F00E941819089595
:103640000E94B311CB01089560916E03669570E0FE
:1036500041E050E089E691E00E943F2C892B19F46B
:1036600081E0809377030E94191B909369038093F4
:103670006803809178038460809378030895909123
:103680006E0390FF39C09170811137C092609093A2
:103690006E0380917803816080937803662391F0B4
:1036A00020916E0330916F0340917003509171032C
:1036B000609172037091730380917403909175030C
:1036C0000E94971260916E03669570E041E050E0B1
:1036D00089E691E00E943F2C892BB1F00E94A10560
:1036E00081E080936B0320E040917103609170034F
:1036F00080916F030E94BD120895833010F0946092
:10370000C6CF880F982BC3CF0E94241BE9CF80918E
:103710006E038695815009F482E061E00E943F1BB0
:10372000089580916E0386958F5F833008F081E065
:1037300061E00E943F1B0895B0E0A0E0E2EAFBE1F7
:103740000C949D2B8C01DC0114968C91149788238A
:1037500009F494C021E04C9111965C911197129656
:103760006C91129713967C91139715969C910E94D9
:10377000C609EC019093900180938F01F80180813C
:1037800091819093920180939101FE013497E533EA
:10379000F105F0F4E455FF4FE491D80115968C91B2
:1037A00020EB811102C02E2FE0EBA9E9B1E090E0FF
:1037B00080E03D91321307C089589E4FDC019296FC
:1037C000EC93FE010CC001968630910591F7F9CF7C
:1037D000CE019A95FE0181159F4108F4FF27D8017B
:1037E00015968C91E13DF10538F0E93DF10570F059
:1037F000E730BEE7FB0751F1882361F0FE57EA305E
:10380000F10540F4EA53F34D0C94FA2B682F8E2FF8
:103810000E94E70BF8018581C631FCE7DF0709F05C
:103820007DC0882309F465C08091AD038A7A91E058
:1038300009F490E09093D40169E2811165E382EC90
:1038400091E00E946B050E94C40C08C00E94EB0925
:10385000E1CF80E00E945816109289018091EF011B
:10386000877061F0D80115968C91882339F080918A
:10387000850282FF03C082E00E947D09CDB7DEB7DA
:10388000EAE00C94B92B409182015091890150FBE0
:1038900047F95695537060E070E08FE090E00E9429
:1038A000982CDCCF81E00E947216D8CF8FEFFBCF2F
:1038B0008AE0F9CF86EFF7CF9091840181E08927E4
:1038C0000E94EB09CBCF80918901811101C084E076
:1038D0008F5F18160CF081E0883008F087E0809345
:1038E0008901BCCF80918901811101C084E08150A0
:1038F000F0CF8091D40181110FC089E2E4ECF1E0B6
:103900002AEC31E09191891303C0DF0111971C92D9
:103910002E173F07B9F797CF85E3F0CF811172C01B
:103920008091AD038272FE01E052F847E531F10566
:1039300008F078C0E053F34D0C94FA2B80916E039D
:1039400080FF1EC0282F2E7F20936E0330916F03BF
:1039500040917003509171036091720370917303F1
:1039600080917403909175030E9497120E94A105A3
:10397000809178038160809378030E94AD106ECFB0
:10398000816080936E0361E086950E943F1B66CF45
:1039900047E85BE161E97BE10E949B055FCF41E97C
:1039A0005BE167E87BE1F8CF45E453E16FE473E165
:1039B000F3CF4FE453E165E473E1EECF4BE253E123
:1039C00068E373E1E9CF48E353E16BE273E1E4CFED
:1039D00041E153E16EE173E1DFCF4EE153E161E19B
:1039E00073E1DACF49E553E163E773E1D5CF43E70C
:1039F00053E169E573E1D0CF61E081E0C6CF61E0DA
:103A000082E0C3CFC3302CE7D20709F48AC008F0A4
:103A10005BC0C1158CE7D80709F465C0C130DC472D
:103A200009F485C0F8018581C081D181882309F41A
:103A30008CC0CE010E94C608F82E682FCE010E94CD
:103A40003609BE018F2D0E949E070E94B707D82F0E
:103A5000C92FA82ED8011596CC9015971696BC9014
:103A6000B2943FE0B3228091EF018770F1F0EC2C2B
:103A7000CC20E1F0892F807F803451F080E28D0FDF
:103A8000883098F0B11004C0892F807E803269F0B0
:103A90008091850282FF09C082E00E947D098091A9
:103AA000EF018770EE24E3948111E12CDC2ED29497
:103AB0002FE0D222BBE0BD1508F4ACC0ED2DF0E044
:103AC000EB51F34D0C94FA2BCB35ACE7DA0709F444
:103AD0003AC0CC35BCE7DB0761F1CA35DC4709F0F9
:103AE000A1CF81E02DC01092AD030E94010DFFEF28
:103AF00024E33CE0F15020403040E1F700C00000FA
:103B000087E797E7909301088093000888E19AE09F
:103B10000FB6F894A895809360000FBE9093600054
:103B2000FFCF6FEF7FEF90E080E00E94A42C0E9417
:103B300012128091850282FB882780F991E0892703
:103B40000E941D166FCF80E0FBCFCE010E940209BC
:103B5000F82E77CFEC2FEF70FE2EC07F19F0F29485
:103B600090EFF922CC20B9F0FF2069F080E28D0FB0
:103B7000883010F0A11009C08091AD03F82AF092AE
:103B8000AD030E94C40C8D2F43C08091F901F82A27
:103B9000F092F901F6CF8D2F0E94D10FFF20D1F1C5
:103BA000D05ED83010F0A11004C08F2D0E94B5084F
:103BB00006C0F0948091F901F822F092F9010E9478
:103BC000C40C28C0FC2FFF70FF2EC07FC03219F03C
:103BD000F29480EFF822AA2059F021E0A21609F40D
:103BE00079C0CC2009F485C0BB2009F447C0CBCFF5
:103BF0008091850282FD3EC0CC20B1F1FF2039F0DA
:103C00008091AD03F82AF092AD030E94C40C80E0CD
:103C10000E94FD0FED2DE850FF0B349710F40E9429
:103C2000A211EE20B1F08091EF0180FD12C0D80109
:103C300015961C928695869586950E949409C801D2
:103C40000E949C1B8091EF018695869586950E9427
:103C5000700920E0F8014081518162817381848183
:103C600095810E94C6090ACE80E00E94D10FFF20F4
:103C700089F29BCFCC20A1F0B11004C08F2D0E94FF
:103C8000C70FC8CF31E0B312C5CF8091F8019F2D87
:103C90009823F91609F4BECFF82AF092F801BACFAA
:103CA000B110B8CF8F2D0E94C00F9091F8018F2DC9
:103CB000892329F08F2D809589238093F8018091A5
:103CC000D5019F2D982309F4A5CFF094F822F09206
:103CD000D501A0CFCC2029F085E08B1508F49ACF30
:103CE000CDCF94E09B1508F495CF8F2D0E94C00F87
:103CF00091CFBB20D1F3A9E3AA1209C0BFEFE7EE31
:103D0000F3E0B150E040F040E1F700C000008D2F3B
:103D10000E94D10F7FCF6C2D8D2F0E94E70B7ACFA1
:103D20008C2F837089F5C11075CF4D2F4295469524
:103D30004770440F440F8D2F8F70042E01C0880FE1
:103D40000A94EAF72D2F2071D4FF07C02FE030E04E
:103D500001C0220F4A95EAF72095C695C695C37013
:103D6000C23069F050F43091FA01C13029F0822B51
:103D700083230E94A0094ECF832B822BFACF282BBE
:103D80008091FA018227F5CF8695CC2011F08C2FF7
:103D90008170882309F43ECF4D2F42954695477098
:103DA000440F440F8D2F8F70042E01C0880F0A948A
:103DB000EAF72D2F2071D4FF07C02FE030E001C0BB
:103DC000220F4A95EAF72095C695C695C370C23072
:103DD00069F050F430917A03C13029F0822B8323AB
:103DE0000E946D0917CF832B822BFACF282B80914D
:103DF0007A038227F5CFCF70CC2029F08C2F0E9438
:103E000094098D2F3CCF8D2F0E94C00F8C2F0E94C4
:103E1000700900CF8D2F22EFA216A9F12A1570F09C
:103E200030EFA316D1F091EFA91691F0CC2009F450
:103E30005AC0B110A8CE8C2F8F7129C0A3EFAA163B
:103E400049F1B4EFAB12F2CF8091850282FD2DC013
:103E50008C2F8F71CC20D9F21AC0CC2079F0E4E0FD
:103E6000EB1508F4D7CECF7181E090E001C0880F48
:103E7000CA95EAF790917A038927B2CFF5E0FB154E
:103E800008F4C8CEF0CF8C2F8F71C110C0CF0E9424
:103E90009409C0CE80E0CC2009F4A2CFCF7181E09C
:103EA00001C0880FCA95EAF79BCFCC2089F0CF716B
:103EB0008C2F0E9494098091850282FF07C028E020
:103EC000C29FC001112483608093EF018C2FDFCF4C
:103ED00081E00E947D0931E03B1508F09BCE82E035
:103EE0000E947D0997CEBB2059F0893309F00FCF8E
:103EF0008FEF97EEA3E081509040A040E1F705CF0F
:103F00008C2F8F7184CFCF93DF938091EE01807FD0
:103F100009F04DC08091ED01882309F448C0E0917B
:103F2000FD035091C403C091E901D091E801609173
:103F3000EA017091EB0147E05E17C9F18E2F90E026
:103F4000E49FF0011124EB53FC4F2481222391F1D3
:103F5000489FF001499FF00D1124DF01AB53BC4F86
:103F600011962C9111972C1325C02C912D1322C042
:103F700015962C91159721111DC012962D913C91EB
:103F8000261B370B283C3105A8F48091EE018F7079
:103F900080618093EE01E553FC4F80818F708061DA
:103FA000808388EE91E00E949C1B0E94BC08DF91F8
:103FB000CF910895FC013196E770BECFA4E1B0E047
:103FC000E4EEFFE10C949B2B8C0186E0F801DE010E
:103FD0001F9601900D928A95E1F7F8018481E580A2
:103FE00098EEA92E91E0B92E9091EC01911128C084
:103FF000882319F1EE20F1F0C8010E94A309F82EE0
:104000008823C1F087E0F801D50101900D928A95CF
:10401000E1F78091EC01813031F48091E8019091D9
:10402000E9010E94F5080E94831F8F2D6496ECE041
:104030000C94B72BC8010E949C1BFF24F394F5CF6E
:10404000D080C18082809380F090ED012091EA01C0
:104050003091EB01A401421B530BFF2009F4D9C09E
:10406000483C510508F092C08823F9F29091E9018B
:104070008091EE01282F207F09F056C0C91214C08C
:104080009091E801D91210C0E11048C08F70806192
:104090008093EE0188EE91E00E949C1B8091EE01DE
:1040A000F8018683F12CC1CFE11038C06C2D8D2D25
:1040B0000E94E1036C2D8D2D0E94E103E82E8111F9
:1040C000F1CFDF86C88A8F8598890E94F508292F4D
:1040D00022952F70243058F49F70223088F0992355
:1040E00099F0F8019681907F79F4FE2C9ECF2A5F9B
:1040F0002F70223068F0C8010E949C1BEF2CF5CF76
:10410000992311F0882389F3805E883070F3F3CF10
:10411000803F58F3815F833070F7E7CF8091EE01E5
:1041200081608093EE01BECFC91207C09091E80173
:10413000D91203C0EE2009F48DC0C8010E94A30962
:10414000882309F477CFEE2009F474CF8091EE0133
:10415000803288F02091E8013091E9013987288781
:104160009B868A869091EC019C871D868E87CE0166
:1041700008960E949C1B87E0F801A8EEB1E0019030
:104180000D928A95E1F70E94831F57CF9091EE011F
:10419000292F207F51F488EE91E00E949C1B87E03C
:1041A000F50111928A95E9F77DCF882309F43DCF77
:1041B0008091E9018C1110C08091E801D8120CC0E7
:1041C000E1100AC09683C8010E949C1B87E0F5019C
:1041D00011928A95E9F729CFC8010E94A309882383
:1041E00009F428CFEE2009F425CF8091EE0180322A
:1041F00010F22091E8013091E9013A8329839C82F1
:104200008B829091EC019D831E828F83CE0101965B
:10421000B0CF483C5105D0F6882309F40ECFFE2CD0
:10422000EE2009F407CF8091E9018C1120C0809124
:10423000E801D8121CC08091EE0180FD0FC0982FBC
:10424000907F61F08683903F31F0982F907F905F50
:104250008F70892B8683C8010E949C1B87E0F80120
:10426000A8EEB1E001900D928A95E1F7DECEC8018B
:104270000E94A30981117FCF8091EE01816080931C
:10428000EE01C8010E949C1BD0CEABE1B0E0EBE494
:10429000F1E20C94A32B4E8B5F8B688F798F8A8F02
:1042A0009B8F192F91111092F9011D8A86E0FE0152
:1042B0007696DE011F9601900D928A95E1F70A8DA0
:1042C000002341F021E04F85588969897A89C80126
:1042D0000E94C6090B8B1C8B87E0FE013F96DE0116
:1042E000189601900D928A95E1F7CE0108960E94EA
:1042F000DE1F81112AC087E0FE013896DE0111968B
:1043000001900D928A95E1F78C858823F1F0209138
:10431000C40330E0C9010196877099274091FD03DD
:1043200048171906E9F097E0929FD001939FB00DCE
:104330001124AB53BC4FFE01319601900D929A951A
:10434000E1F78093C4030E94BC0817E08091FD034D
:104350009091C403891314C06B96E4E00C94BF2BB6
:104360001092AD030E94010D1092C4031092FD0340
:1043700087E0E8EEF1E0DF011D928A95E9F7E5CFED
:10438000819FC00111248B539C4F0E94DE1F882304
:1043900019F38091FD0390E001968770992780932F
:1043A000FD03D4CFA3E1B0E0E8EDF1E20C949A2B49
:1043B0008E01045F1F4F88E0D8011D928A95E9F7AE
:1043C00083EAC82E81E0D82EF12CE12CAA24A394F4
:1043D000B12C2DEA822E21E0922EF60181916F01FF
:1043E0008F3F09F442C0F894E82FE295EF70F0E0B7
:1043F00021A18F70A50102C0440F551F8A95E2F7D5
:10440000CA01922F982B91A392A18095892382A310
:10441000789400C0E7EAF1E0712C31E021912F3F60
:1044200009F46BC0A22FA295AF70B0E090968C916A
:1044300090E02F7002C0959587952A95E2F780FD50
:104440005CC0832F782A330F8E169F0639F7F6014A
:10445000319780818F3F11F00E94960650EA5A955D
:10446000F1F7F801EE0DFF1D70828FEFE81AF80AE0
:10447000A4E0EA16F10409F0B0CF48E050E0B8013A
:104480008AE792E00E944C2C009741F028E0F80166
:10449000AAE7B2E001900D922A95E1F7009183021C
:1044A000892B69F181E08093FF010E941819909394
:1044B000FE018093FD018091FD019091FE010E941B
:1044C0000919059700F110E009571D4F44E050E02D
:1044D0006AE772E0C8010E944C2CF12C892B51F044
:1044E00084E0EAE7F2E0D80101900D928A95E1F7C5
:1044F000FF24F3941092FF0107C080E0A3CF8091C6
:10450000FF018111D8CFF12C0E947D11E82EE0919E
:104510008302882309F489C019821A821B821C82B3
:104520000E2F10E009571D4F809175028A3008F058
:1045300046C043E954E1BE016F5F7F4FC8010E944E
:104540004A11882309F460C048E454E1BE016F5F5A
:104550007F4FC8010E944A11882309F455C043E8DF
:1045600055E1BE016F5F7F4FC8010E944A11882349
:1045700009F44AC044E655E1BE016F5F7F4FC801B0
:104580000E944A11882309F43FC01092750280915D
:10459000820290E044E050E0BE016F5F7F4F895798
:1045A0009D4F0E944C2C21E020930602892BF1F4B0
:1045B000E12C8E2D8F296396EDE00C94B62B809123
:1045C0000002909101020E940919843F914008F075
:1045D000B0CF80910602882359F384E0FE01319622
:1045E000DF011D928A95E9F710920602E09182029E
:1045F000F0E0E957FD4F89819A81AB81BC818083CE
:104600009183A283B383D5CF809175028F3F31F020
:104610008F5F809375028A3008F4B9CF0E94181911
:104620009093010280930002D4CFF0E0E957FD4F50
:1046300084E0A9E0B2E001900D928A95E1F764E090
:1046400070E089E092E00E948505809308028090E6
:104650000D0290900E02A0900F02B0901002809177
:10466000020290910302A0910402B0910502881603
:104670009906AA06BB06D1F080920202909203022C
:10468000A0920402B09205020E947D1181110EC019
:104690000E945F05861A970AA80AB90A80927602D4
:1046A00090927702A0927802B09279028BE0E1E1D9
:1046B000F2E0DE01119601900D928A95E1F72981D1
:1046C000822F8695DA80CB80BC800A851B8510926C
:1046D0001B021123F9F010FF0AC090916E0320FF16
:1046E00020C0916090936E0360E00E943F1B11FF19
:1046F00006C020E04B2D6C2D8D2D0E94BD1212FFA7
:1047000004C00023D9F00E94241B13FF03C081E0E2
:1047100080936B0380911C02882399F00E946F1292
:1047200048CF9E7F90936E030E94A10580917803ED
:104730008160809378030E94AD10D9CF0E94A105BB
:10474000E4CF0E94541235CFA6E0B0E0EAEAF3E2EB
:104750000C94A32B0E9418198C018091FB0190915D
:10476000FC018017910781F019821A820E941819A2
:10477000682F49815A81792F80E090E00E9445217D
:104780001093FC010093FB012696E4E00C94BF2BF0
:104790001F921FB61F9211248F939F93AF93BF93C5
:1047A0008091A703811113C08091A8039091A90360
:1047B000A091AA03B091AB034196A11DB11D8093B6
:1047C000A8039093A903A093AA03B093AB03BF914E
:1047D000AF919F918F911F901FBE1F901895CDB7DD
:1047E000DEB72A970FB6F894DEBF0FBECDBF85B7F0
:1047F000806885BF85B7806885BF84B7877F84BFA1
:104800000FB6F894A895809160008861809360004D
:10481000109260000FBE80E890E00FB6F89480938D
:104820006100909361000FBE88E696E09093C1010D
:104830008093C0010E9400040E94A1048091E200C4
:1048400084608093E20078948091BA038823A1F079
:104850001091E9001F709091EC00892F817090FDFC
:1048600080E8182B1092E9008091E80083FD0E94F7
:104870000D0D1F701093E90082E084BD93E095BD9B
:104880009AEF97BD80936E00109276021092770295
:1048900010927802109279020E94CD11809300014B
:1048A00080910001882309F4FCC1109272018EE10D
:1048B000809373010E947D1181110E941F2A8091B3
:1048C00000018091000194E0811190E090938302B7
:1048D00084E0891B8093820284EF0E94960685EF14
:1048E0000E94960686EF0E94960687EF0E94960623
:1048F00007EA11E0D8018D918D018F3F11F00E94E0
:104900009606B1E00D3A1B07A9F788E0E7E8F2E068
:10491000DF01C82E1D92CA94E9F7EAE7F2E0DF0151
:104920001D928A95E9F790E080E00E94702C863E07
:104930009E4F11F00E94B11582E090E00E94622C1F
:1049400080938F0284E090E00E94702C9093850207
:104950008093840283E090E00E94622C0E94A00970
:104960000E947D11882309F4A0C180E080939B03FD
:1049700080E88093FE030E94D9286BE070E088E510
:1049800091E00E942A128823E9F180919B0365E05F
:1049900070E081FD8CC183E591E00E942A1288239A
:1049A00089F16DE070E081E491E00E942A12882391
:1049B00049F10E945F05605A75418F4F9F4F609388
:1049C0009D0370939E0380939F039093A003E1E067
:1049D000F4E080E092E0DF019C011D922150304024
:1049E000E1F7F0930806E09307068FEF9FEF9093AF
:1049F00000048093FF0381E08093A4038093A103CC
:104A000010929C038091860281117BC090E080E02F
:104A10000E94702C863E9E4F21F00E94B1150E948C
:104A20008D1388E090E00E946A2C4B015C0184E2C7
:104A300090E00E94622C282F30E040E050E060E0DF
:104A400070E080E090E000E20E94002C28293929E3
:104A50004A295B2920936E0330936F0340937003C0
:104A60005093710360937203709373038093740384
:104A700090937503809178038360809378032E7FF1
:104A800089F50E948D1388E090E00E946A2C6B01EA
:104A90007C0184E290E00E94622C282F30E040E00C
:104AA00050E060E070E080E090E00E94002CB22FC7
:104AB000A32FF42FE52F5B0197018601BC29A12BC1
:104AC000FE29E32BB0936E03A0936F03F093700362
:104AD000E093710360937203B09273038093740345
:104AE000909375030E94A8050E94A10580916E0312
:104AF00080FF04C060E086950E943F1B81E08093A8
:104B000086020E947D11811102C00E94222A0E9409
:104B100085170E947D1181112EC08BE092E1909348
:104B2000500180934F0129E130E030934B012093F5
:104B30004A0189E390E090934E0180934D0144E552
:104B400056E05093580140935701309353012093FE
:104B5000520190935601809355014DE656E15093D2
:104B6000600140935F0130935B0120935A01909361
:104B70005E0180935D0190E080E00E94702C863E93
:104B80009E4F89F48FE090E00E946A2C8B01862F63
:104B90008F770E945816001F0027001F1370110FF7
:104BA000102B109389010E94E51180916E038160A2
:104BB00080936E0360E086950E943F1B60E082E078
:104BC0000E943F1B81E691E09093A6038093A5038A
:104BD00048E1A42EB12C58E9852E52E0952E809103
:104BE000BA0312E1853009F4A2C00E94D22100E983
:104BF00012E027E8C22E22E0D22E3DEAE32E31E079
:104C0000F32E9701B601F8019191DB018D91BD0161
:104C1000D9014D919D0184238E169F0609F493C0FE
:104C2000981791F30E947D11282E612CF601719046
:104C30006F01D7018D917D017822F80131908F01AC
:104C4000371431F1512C442443943724832D84218B
:104C5000B9F02220A9F059826A820E9418199C8317
:104C60008B83F1E0FD8391E0842D872109F490E0AE
:104C70009E8349815A816B817C818D810E9445216F
:104C80005394440C26E05212E1CFF8013197708220
:104C9000639438E06312CACF0E94B31177247394EF
:104CA00057C08EE18093720103CE82E05FCE8EE426
:104CB00091E073CE8091BA03843031F10E94541296
:104CC0000E945D0B1092A70350E40FB6F894A895CC
:104CD000A09260000FBE5093600083B7817F846014
:104CE00083BF83B7816083BF7894889583B78E7FB5
:104CF00083BF0FB6F894A895809160008861809377
:104D00006000109260000FBE8091B903882379F093
:104D10000E94D221E7E8F2E0ADEAB1E081919D91F5
:104D2000892309F053C162E0EF38F607B9F78091A3
:104D3000BA03853009F4BECF1092AD030E94010D75
:104D40000E94A21152CF98136DCF0E94A423712C00
:104D50000E947D1180917703882309F467C09091A8
:104D6000760380916E038695891B80936A0300ED1C
:104D700017E08AE5E82E85E0F82E923041F4E3E66C
:104D8000F1E00591149191E1E92E91E1F92E8091E4
:104D90006B03882361F010926B030E94191B9093A0
:104DA00069038093680310926D0310926C030E9454
:104DB000191B2091680330916903AC01421B530B0E
:104DC0004F3F5F4798F540919A024423B1F010920B
:104DD0009A024091980250919902841B950B8F3F43
:104DE0009F4758F4405D5A48509399024093980267
:104DF00080917803886080937803C0906C03D09092
:104E00006D03020F131F109369030093680388E674
:104E100093E0F701099580916C0390916D03892BC4
:104E200029F4CD2819F0F1E0F0939A020E945D0B6D
:104E3000882339F00E94B3110E9424190E946F1236
:104E400004C00E9424197110F9CF0E94A211909100
:104E50009B02891721F080939B020E945F050E94AC
:104E60007D11882309F4BBCE0E945F052091A20228
:104E7000211147C000919E0210919F022091A00233
:104E80003091A1026B017C01C01AD10AE20AF30A37
:104E900097018601043F11402105310590F160938F
:104EA0009E0270939F028093A0029093A102809132
:104EB0009C0290919D02019690939D0280939C028A
:104EC0001F828E01095F1F4F21E050E040E060E04B
:104ED00089E00E94F213811106C080919C0290919A
:104EE0009D020A9774F051E05093A202509378010A
:104EF00081E09F81911101C080E0809379010E943F
:104F0000E51180917901882309F469CE0E945F053B
:104F10006B017C018091A3029091A402A091A50253
:104F2000B091A602A7019601281B390B4A0B5B0B17
:104F3000DA01C9010497A105B10580F11F82188625
:104F400019861A868E01095F1F4F24E050E040E069
:104F500060E08AE00E94F2138823C1F06F817885B7
:104F600080917E0190917F010E94F10A90937F01D0
:104F700080937E0169857A8580918001909181017D
:104F80000E94F10A9093810180938001C092A30254
:104F9000D092A402E092A502F092A6028091830131
:104FA000882309F41CCE809182018F8310E000E0F9
:104FB00020E0AE01495F5F4F61E08BE00E94F21399
:104FC000882309F40CCE1092830109CE30E139BD5B
:104FD00019BD09B400FEFDCF8091D8008F7D80936C
:104FE000D8008091E00082608093E0008091E00032
:104FF00081FDFCCF1092AD030E94010D98CE289A3E
:10500000219A229A23982B9880E58CBD089590913F
:10501000A0019F3F09F071C08F3F09F46EC061117C
:1050200044C010920A0690910A06423009F441C029
:10503000433009F442C094604130E1F141E050E076
:1050400042175307E0F190910A064031510509F4E7
:1050500052C0C0F54230510509F446C048305105F0
:1050600009F446C09CB520910A06922B9CBD9091F4
:105070000906992319F09DB591609DBD8093A0010B
:10508000E82FE295EF70F0E031A1282F2F7081E03A
:1050900090E001C0880F2A95EAF7382B31A392A13E
:1050A0008095892382A381E0089590E290930A0677
:1050B000BACF986090930A06C1CF9C60FBCF440F93
:1050C000551FBECF4034510549F04038510541F0DD
:1050D0004032510539F621E020930906926001C063
:1050E000936090930A06BECF91E090930906BACFE1
:1050F00021E0209309069160F4CF80E00895CF93DA
:10510000DF938EBD0E941819EC010DB407FE05C097
:105110008EB590E0DF91CF9108950E9418198C1BF5
:105120009D0B8436910588F38EEF9FEFF3CFCF93DD
:10513000DF931EBC0E941819EC010DB407FE05C0D8
:105140008EB590E0DF91CF9108950E9418198C1BC5
:105150009D0B8436910588F38EEF9FEFF3CF8091FE
:10516000A0018F3F29F1E82FE295EF70F0E041A117
:105170008F7021E030E0B90102C0660F771F8A9579
:10518000E2F7CB01942F982B91A392A1892B82A3B4
:105190008FEF8093A0018DB58E7F8DBD9CB58091E2
:1051A0000A06809589238CBD10920A061092090682
:1051B00008951092B9008CE08093B8000895B0E093
:1051C000A0E0E5EEF8E20C949C2BB82EEB010E94D7
:1051D00018196C01EE24E394F12CC431D10560F070
:1051E00025E0E22EF12CCF3FDC0731F0CE0164E167
:1051F00070E00E94812B7B0184EAA82E94E8992E0E
:105200001092BC00A092BC000E9418198C018091E1
:10521000BC0087FF0DC08091B900887F8830F9F00D
:105220008091B900887F8031D1F00FEF1FEF08C067
:10523000C8010E940919E816F90648F70EEF1FEF9A
:10524000CF3FDC07E9F2C6010E940919C817D90748
:10525000B8F6C801CDB7DEB7EBE00C94B82BB0922E
:10526000BB009092BC000E9418198C018091BC0078
:1052700087FF0AC08091B900887F883111F080349F
:10528000A1F610E000E0E5CFC8010E940919E81678
:10529000F90660F7D3CF0F931F93CF93DF93EB0102
:1052A0008093BB0084E88093BC000E9418198C0195
:1052B0008091BC0087FF11C02091B900287F81E058
:1052C00090E0283211F490E080E091958195910969
:1052D000DF91CF911F910F910895CF3FDC0741F3EC
:1052E000C8010E940919C817D90710F78EEF9FEF60
:1052F000EFCFB0E0A0E0EFE7F9E20C949F2B6B0159
:105300008A017901B9010E94DF28E6010C0D1D1DFB
:10531000C017D10711F097FF08C024E92093BC0003
:10532000CDB7DEB7E8E00C94BB2BB70189910E94A2
:105330004B29EECFB0E0A0E0E0EAF9E20C949F2B1D
:10534000C62F6A017901B8010E94DF2897FD0CC0C1
:10535000B8018C2F0E944B29E601EC0CFD1CCE15E8
:10536000DF0511F097FF08C024E92093BC00CDB7FA
:10537000DEB7E8E00C94BB2BB80189910E944B2961
:10538000EECF84E98093BC0008958EE14A9B02C071
:105390008150E1F74A9BFECF08955A9880E28A95A2
:1053A000F1F75A9A0895FC013BE03A95F1F798E03D
:1053B00020E080E031E040E14A95F1F7880F4A9B18
:1053C00002C08160232742E04A95F1F7000040E1E6
:1053D0004A95F1F7915079F790E19A95F1F799B1E3
:1053E00032E03A95F1F7000040E14A95F1F792FB7F
:1053F000992790F992272081920F90830895A1E038
:10540000B0E0E5E0FAE20C94A12B19828C017C015A
:10541000E60EF11C0E151F0541F481E099819111F2
:1054200080E02196E6E00C94BD2B0E94C529CE01B8
:1054300001960E94D329F80181938F01EBCF529AF4
:105440005A9A089552985A9AEA9AE9E6F0E08081C9
:105450008F7C808308956150770B91E001C0990F94
:105460006A95EAF720E031E0911108C0222391F01B
:105470005A9A80E28A95F1F75A980895492F48235D
:1054800039F05A9A232740E24A95F1F79695ECCFE6
:105490005A98F9CF5A98EDCFFF920F931F93CF935D
:1054A000DF93EC018C01060F111DC017D10729F401
:1054B000CDB7DEB7E5E00C94BE2BF9900E94CD2964
:1054C00068E08F2D0E942B2AF0CF1F920F920FB60B
:1054D0000F9211240F931F932F933F934F935F933A
:1054E0006F937F938F939F93AF93BF93EF93FF93AC
:1054F000CF93DF930F92CDB7DEB719820E94C529F3
:10550000CE0101960E94D329082F0695069506958F
:10551000282F22952570902F9570290F922F937028
:1055200026952695920F982797708981982B09F0D8
:105530005CC00D3008F059C080E18A95F1F75A9AA5
:10554000529A82E08A95F1F700C05A9888E0089F45
:1055500080011124D801AF5FBE4F1696ED91FC91EA
:1055600017973097A9F06091A1017091A20114964C
:105570002D913C911597260F371F11968D919C9177
:105580001297680F791F13964C9113978C91099578
:10559000F801EF5FFE4F6381662351F02091A10176
:1055A0003091A20184819581820F931F0E944C2A21
:1055B0000E94CD2980E18A95F1F75A9852985A9A1B
:1055C00080E18A95F1F7F801EF5FFE4F6081662375
:1055D00051F02091A1013091A20181819281820F2D
:1055E000931F0E94FF290E94C5290F90DF91CF9140
:1055F000FF91EF91BF91AF919F918F917F916F91AB
:105600005F914F913F912F911F910F910F900FBE7E
:105610000F901F9018950F931F93CF93DF93EC017A
:105620000D970CF04CC0F894529A5A9885E08A95E0
:10563000F1F700009C2F969595708C2F8570980F30
:10564000892F83709695969523E0CC0FDD1F2A95C0
:10565000E1F7980F8E01092B0E94CD2900C068E068
:10566000802F0E942B2A80E18A95F1F752985A9A4E
:105670004A9B1EC087E090E04A991CC0FE01EF5F84
:10568000FE4F63816623F9F02091A1013091A201C0
:1056900084819581820F931F0E94FF29811113C07D
:1056A000529A5A9A7894DF91CF911F910F91089551
:1056B00000C0DECF019729F4529A5A9A789480E07C
:1056C000F2CF00C0D9CF0E94C52980E28A95F1F7B8
:1056D0005A98529A80E18A95F1F7CF5FDE4F688140
:1056E000662351F02091A1013091A20189819A8114
:1056F000820F931F0E944C2A0E94CD29789481E04A
:10570000D2CFAA1BBB1B51E107C0AA1FBB1FA61704
:10571000B70710F0A61BB70B881F991F5A95A9F75A
:1057200080959095BC01CD0108952F923F924F92A4
:105730005F926F927F928F929F92AF92BF92CF9221
:10574000DF92EF92FF920F931F93CF93DF93CDB72A
:10575000DEB7CA1BDB0B0FB6F894DEBF0FBECDBFA2
:1057600009942A88398848885F846E847D848C8473
:105770009B84AA84B984C884DF80EE80FD800C817C
:105780001B81AA81B981CE0FD11D0FB6F894DEBF5F
:105790000FBECDBFED010895991B79E004C0991F9C
:1057A000961708F0961B881F7A95C9F7809508957B
:1057B00087FB082E062687FD819567FD61950E946F
:1057C000CC2B0EF4919507FC8195089597FB072E3D
:1057D00016F4009407D077FD09D00E94812B07FCB6
:1057E00005D03EF4909581959F4F089570956195F1
:1057F0007F4F0895EE0FFF1F0590F491E02D09945F
:10580000002E083090F0982F872F762F652F542F79
:10581000432F322F22270850F4CF220F331F441F6B
:10582000551F661F771F881F991F0A95B2F7002D15
:10583000089597FD1094002E083098F00850232FFB
:10584000342F452F562F672F782F892F912DF4CF86
:1058500015949795879577956795579547953795BB
:1058600027950A95AAF71124002D0895FB01DC0164
:1058700002C005900D9241505040D8F70895FC01A8
:105880004150504030F001900616D1F73197CF01CA
:105890000895882799270895FB01DC0104C08D91A4
:1058A0000190801921F441505040C8F7881B990B92
:1058B0000895FB01DC0102C001900D92415050405F
:1058C000D8F70895F999FECF92BD81BDF89A99272E
:1058D00080B50895A6E1B0E044E050E00C94AC2C13
:1058E000A8E1B0E042E050E00C94AC2CDC01A40F45
:1058F000B51F4150504048F0CB01840F951F2E91A9
:105900000E94872C41505040D0F70895262FF999D6
:10591000FECF92BD81BDF89A019700B4021639F00E
:105920001FBA20BD0FB6F894FA9AF99A0FBE0895DF
:105930000396272F0E94872C0E94862C252F0E94D9
:10594000872C242F0C94872C0196272F0E94872CBC
:105950000C94862CDC01CB01FC01F999FECF06C02A
:10596000F2BDE1BDF89A319600B40D92415050401D
:10597000B8F70895F894FFCFEE0D160EAE0F160E81
:10598000AE0F490E6A0EAE0F670F740F291C431C31
:10599000521C561C581C5A1C5C1C0A1C631C721C92
:1059A0009E1CC81CCF1CD41CD91CDE1CE31CE81C8C
:1059B000ED1CF21CF71CFC1C2E1C2E1C2E1C2E1C7D
:1059C0002E1C2E1C2E1CFF1C2E1CAA1DAA1DE21D07
:1059D000E21D0A1E8B1E0A1E0A1E901EFB1E0A1FB7
:0259E0000A1F9C
:1059E20001000000010000000000000004010000AE
:1059F2000004050000000000000B09000000000088
:105A02000001140000000000000415000000008DD9
:105A12000620190000000000000116000000006AC4
:105A22000600000020390000000000000000000015
:105A32000000000000000000000000000000000064
:105A4200005C05991092105B05010021007F220085
:105A52000301003C003C3C0000000000000000008C
:105A62000000000000000000000000000000000034
:105A7200000000000000000000B0B0B0B0B0B00004
:105A8200FF0802F4F5F6F7946697C634353F3F3FB8
:105A92003E3F3F3F3E000102000810181810080068
:00000001FF
