:100000000C9433050C9450050C9450050C94283432
:100010000C9450050C9450050C9450050C9450050C
:100020000C9450050C9450050C94F9190C94B519C6
:100030000C949C2B0C9450050C9450050C9450057A
:100040000C9450050C9450050C9450050C945005DC
:100050000C9450050C94D21A0C9450050C94500535
:100060000C9450050C9450050C9450050C945005BC
:100070000C9450050C9450050C9450050C945005AC
:100080000C9450050C9450050C9450050C9450059C
:100090000C9450050C9450050C9450050C9450058C
:1000A0000C9450050C9450050C9450050E000F0054
:1000B00000000D000E0000001000360000001800C7
:1000C0000C00000014001A00000009000E000000DF
:1000D00009001C0000000D001700000009001100BD
:1000E00000000D000800000009000B0000000D00DA
:1000F000040000000900180000000D0007000000C7
:100100000900130000000D00050000000D001A009A
:1001100000000D00160000000D0014000000050195
:100120000902A10185020901A10005091901290897
:100130001500250195087501810205010930093175
:100140001581257F95027508810609381581257F5F
:10015000950175088106050C0A38021581257F95E1
:100160000175088106C0C00660FF0961A10109622E
:10017000150026FF009520750881020963150026E9
:10018000FF00952075089102C005010906A101052F
:100190000719E029E71500250195087501810295E9
:1001A00001750881010507190029FF150026FF00C8
:1001B0009506750881000508190129051500250116
:1001C000950575019102950175039101C00000002C
:1001D000000000000000000000000000000000001F
:1001E000000000000000000000000000000000000F
:1001F000007E0F00D4FFFFFFC70000007800000062
:1002000000000000002A2B28000000000000000071
:10021000000000000000000029000000002C1E3437
:1002200020212224342627252E362D3738271E1F3D
:10023000202122232425263333362E37381F040568
:10024000060708090A0B0C0D0E0F101112131415D6
:10025000161718191A1B1C1D2F3130232D350405B4
:10026000060708090A0B0C0D0E0F101112131415B6
:10027000161718191A1B1C1D2F3130354C6162637B
:100280006465666768696A6B6C6D6E6F70717273B6
:100290007475767778797A31323334353637383940
:1002A00030524542545F2D3D5B5D5C233B27602C03
:1002B0002E2F00DA0281FFD9F1DB20A4A62EAF0099
:1002C000A0C0D30000A1C8D30000AED580A81F40B5
:1002D0008D14200000010101010101010101020250
:1002E00002020202020202030303030303030304E4
:1002F00004040404040405050505050606060606AF
:10030000070707070708080808090909090A0A0A68
:100310000B0B0B0C0C0C0D0D0D0E0E0E0F0F0F100A
:100320001011111112121313141415151616171794
:10033000181819191A1A1B1B1C1D1D1E1E1F202000
:10034000212222232424252626272829292A2B2C4A
:100350002D2D2E2F30313232333435363738393A6D
:100360003B3C3D3E3F404142434445464748494A65
:100370004C4D4E4F50515354555658595A5B5D5E33
:100380005F616264656668696B6C6D6F70727375CE
:1003900077787A7B7D7E8082838587888A8C8E8F32
:1003A00091939596989A9C9EA0A2A3A5A7A9ABAD60
:1003B000AFB1B3B5B7BABCBEC0C2C4C6C9CBCDCF4E
:1003C000D1D4D6D8DBDDDFE2E4E7E9EBEEF0F3F5FC
:1003D000F8FAFDFF00AF00AE202000BABB004B656D
:1003E0007920B10020C0C100BEBF00484F00565464
:1003F000003030200020202020B1BCBD0042616CC4
:100400006CB100B4B500B2B300C2C3004CB6B77251
:10041000B100202000290014001A00080015001760
:10042000002B0004001600070009000A00E1001D6F
:10043000001B000600190005000000E200E3009127
:10044000212C4190434C00130012000C0018001C9A
:1004500000240233000F000E000D000B008700384F
:1004600000370036001000110000004600E6009141
:100470003128422A000F7E3A003B003C003D003EFE
:10048000000D7E01000100520028004C000E7E018C
:1004900000500051004F002A00000001000100013F
:1004A0000001000100440043004200410040003FC1
:1004B000004500D300D2005200D1004B00010001E2
:1004C000004F00510050004E0000000100010001EB
:1004D000000100010001003402240025002600254F
:1004E0000201003302210022002300300001002D10
:1004F000021E001F0020003002000027003700010C
:100500000001000100010021022F0023021E02262B
:10051000021F02340020022E022D00320089023810
:10052000022F022E008702320200000100010001AA
:100530000001004C0020780A7E0B7E0C7E01000139
:100540000021782378257827780100087E227824F6
:1005500078267828780100097E0000007C007E0162
:10056000000100010030782F782E782D782C782B20
:1005700078010001003478337832783178017E01D7
:1005800000047E027E037E057E0000007C007E016A
:100590000001000100010001000100010001000153
:1005A0000001000100010001000100010001000143
:1005B0000001000100010001000000010001000134
:1005C0000001000100010001000100010001000123
:1005D0000001000100010001000100010001000113
:1005E0000001000100010001000000010001000104
:1005F000000100010009025B00030100A0FA0904E8
:100600000000010301010009211101000122440041
:10061000070581030800010904010002030000002E
:100620000921110100012222000705820320000197
:100630000705030320000109040200010300000074
:10064000092111010001224900070584032000014E
:1006500012010002000000085759000400010102C5
:10066000000114034B0065007900620061006C001A
:100670006C00340034000000100359006F00770054
:100680006B006500650073000000040309040000AE
:100690000000000000002F0000000007000700001D
:1006A000123F123F1200242A7F2A120036091E240C
:1006B0001B00182629122800000007000000001E59
:1006C000214000000040211E000014083E081400D4
:1006D00008083E08080000003070000008080808FC
:1006E000080000003030000020100C0201001E291C
:1006F00025231E0000223F20000022312929260048
:10070000122125251A001814123F1000172525253F
:1007100018001E25252518000131090503001A259A
:1007200025251A00062929291E0000003333000060
:10073000000033730000081414222200141414144F
:1007400014002222141408000201290502003E5957
:10075000555D3E003816111638003F2525251A0034
:100760001E21212112003F2121211E003F25252588
:1007700021003F09090901001E2121291A003F0417
:1007800004043F0000213F210000102020201F0012
:100790003F040C1221003F20202020003F020402D1
:1007A0003F003F020C103F001E2121211E003F0987
:1007B000090906001E2129112E003F0909192600EA
:1007C00012252529120001013F0101001F202020D0
:1007D0001F000718201807000F300C300F002112DF
:1007E0000C122100030438040300312925232100C1
:1007F000007F4141000001020C1020000041417FB8
:10080000000004020102040040404040400000019A
:1008100003040000102A2A2A3C003F2422221C0044
:100820001C22222224001C2222243F001C2A2A2AC5
:100830000C0000043E0505000C5252543E003F08D7
:100840000404380000003D0000002040403D00004E
:100850003F080814220000013F2000003E023C0235
:100860003C003E0402023C001C2222221C007E149A
:1008700022221C001C2222147E003E0402020400DC
:10088000242A2A2A120000021F2200001E20201003
:100890003E000618201806000E300C300E00221400
:1008A000081422000E5050483E0022322A26220010
:1008B00008087741410000007F00000041417708AF
:1008C0000800180408100C000000000000000000E0
:1008D00000000000000000000000C0F0F88C86C698
:1008E000E7FFFFFFFFFFFFFEFCFCF8E080000000D9
:1008F000F0F0F00000C0E0F07070000000000000B8
:1009000000000000000000000000000000000000E7
:10091000F8F8F800000000000000000000000000EF
:10092000000000000000F8F8F80000F8F8F80000F7
:1009300000000080E07078686C64C7C7C7C7C7C78D
:10094000E73F1F0F3FFFFFFFFFFFFF3F0F000000CC
:10095000FFFFFF1E3FFFF3E1800000F8FCFE36368C
:10096000363EBCB8000E3EFEF080F0FE3E0E0000AB
:10097000FFFFFF060606FEFEFC7000E6F6F63636C2
:10098000FEFEFC000000FFFFFF0000FFFFFF000075
:1009900000003C7F6360E0C0C0C0C0C0C0C0C0FFFA
:1009A000FFC06030180F03030301000000000000C7
:1009B0000303030000000303030300010303030315
:1009C00003030301007070393F1F0701000000009E
:1009D00001030303030303030100000103030303F3
:1009E00003030100000003030300000303030010DE
:1009F000101000000000550000003E635D5D637F45
:100A0000417B77413E00001C22221C003E0A003E32
:100A10000A00322A3C0026281E001C2A2C00000056
:100A20003F09360000001E212100000000003F08A1
:100A300037001E2121001E2121003F090600213F11
:100A40002100222519001E2121003F0936003F21E7
:100A50001E00213F21000F300F003E093E003F06DF
:100A60003F003F20200011241FBECFEFDAE0DEBFA1
:100A7000CDBF12E0A0E0B1E0EEE8FDE602C00590D7
:100A80000D92AC35B107D9F727E0ACE5B2E001C073
:100A90001D92A632B207E1F70E94C32B0C94773661
:100AA0000C940000482F209118059091CF0459E034
:100AB000291302C080E0089530E0529FF001539F57
:100AC000F00D1124E053FB4F8181681306C0808133
:100AD000481303C085818111EECF2F5F3F4F2770F0
:100AE000E7CFE8EDF0E080818E7F80831092E20016
:100AF0001092DA001092E100A0EEB0E08C918160DB
:100B00008C9380818F77808319BCA7EDB0E08C91A6
:100B10008E7F8C9380818F7E80831092B70408959E
:100B20002091E4003091E50095E6A9012091EC00C8
:100B3000822F817020FF06C08091E80080FF06C0F0
:100B400080E008952091E80022FD1AC08091C5043C
:100B5000882389F0853089F08091EB0085FD0FC0F6
:100B60002091E4003091E50042175307F9F29150CB
:100B7000E1F684E0089582E0089583E0089581E03D
:100B800008958091C70487FF13C08091E80082FF19
:100B900006C08091E8008B778093E80004C08091C4
:100BA000C5048111F2CF08958091C5048823D9F33B
:100BB0008091E80080FFF8CF8091E8008E77ECCF3D
:100BC000982F9093E900242F762F50E0891731F069
:100BD0007091EC002091ED005091F00021FD07C0D4
:100BE0009F5F973071F78093E90081E0089530911D
:100BF000EB003E7F3093EB003091ED003D7F309372
:100C0000ED003091EB0031603093EB007093EC001D
:100C10002093ED005093F0002091EE0027FDE0CFEF
:100C200080E00895B0E0A0E0E8E1F6E00C946235E1
:100C3000C8EDD0E088818F7E8883E7EDF0E0808189
:100C40008160808384E082BF81E08093B7048881E3
:100C50008E7F888302EE10E0F80110821092DA0095
:100C600081EEC82ED12CF601108288818F7788837F
:100C700088818068888388818F7D888319BC1092E1
:100C8000C5041092C6041092C4041092C30490EEDE
:100C9000E92EF12CF70180818B7F80838881816030
:100CA000888342E060E080E00E94E005F6018081F8
:100CB0008E7F8083F801808181608083808188605D
:100CC0008083F70180818E7F808388818061888323
:100CD000CDB7DEB7E8E00C947E35FC018091CD0401
:100CE0009091CE0486179707A0F06115710529F43D
:100CF0009091E8009E779093E80090E0611571056F
:100D000051F4911108C08091E80082FF34C080E066
:100D10000895BC01F2CF8091C5048823C1F18530CC
:100D2000C1F18091E80083FD30C08091E80082FD30
:100D3000EACF8091E80080FFE1CF8091F30020911D
:100D4000F200382F6115710519F02830310558F07F
:100D500091E02830310509F090E02091E8002E77ED
:100D60002093E800CBCF81918093F100615071090D
:100D70002F5F3F4FE7CF8091C504882341F0853036
:100D800041F08091E80083FFBECF81E0089582E0CA
:100D9000089583E0089508958091BA04089587E73F
:100DA00097E7909301088093000888E19AE00FB6D6
:100DB000F894A895809360000FBE90936000FFCFD9
:100DC0002FB7F8946091B3047091B4048091B50486
:100DD0009091B6042FBF0895DC016091AC0480911E
:100DE000AD04962F891301C00895292F30E0F90131
:100DF000EE0FFF1FEC55FB4F408151814A175B07F7
:100E0000A1F487E08A9FA0018B9F500D11244458C4
:100E10005E4F81E0FA0184839613E6CF2F5F3F4F48
:100E2000237033272093AC0408952F5F3F4F922FF8
:100E30009370D8CF1092380410923704ECE7F1E0A9
:100E40008581811102C014821682379682E0E130DA
:100E5000F807B1F70895FC01680F791F8FEF91E350
:100E60002191822728E030E087FF09C0880F892779
:100E700021503109C9F7E617F70791F70895880F50
:100E8000F7CFFA01811101C0FB0109950895809106
:100E90000404982F9E7F71F4809104048170826015
:100EA0008093040480910704873918F086E98093C1
:100EB00007040895843080F7F5CF9091740188235A
:100EC00041F09F5F90937401109271011092700134
:100ED00008959150F7CFE9E6F1E0828591E0892706
:100EE000828710861782089580917201811114C043
:100EF00080917401811110C08091730181110CC027
:100F000090914C0396959695969581E020916A0173
:100F1000921380E08170089581E0FCCFCF93DF933E
:100F2000E8E0F2E083819481A581B681E9018883BC
:100F30009983AA83BB831482138216821582DF9160
:100F4000CF91089580E0089563E070E089EB92E02E
:100F50000E942B079091B802891318C0E091B90242
:100F6000EC30A4F488E0E802F0011124EF5FFE4FBA
:100F70000680F781E02D309749F02CED32E040916A
:100F8000BB026CEB72E08091BA0209950895E3EA26
:100F9000F2E0878980933101808D80934401089528
:100FA000F894E82FE295EF70F0E031A1282F2F7030
:100FB00081E090E001C0880F2A95EAF7982F90957C
:100FC000932391A392A1892B82A3789408958115EC
:100FD00022E5920780F5811530E5930708F0ABC054
:100FE000883E9105A0F4803E910558F4853A91051C
:100FF00048F48430910528F48130910511F090E097
:1010000080E008958D3C9105D0F390650895811599
:1010100040E4940708F044C0811550E2950708F0B9
:10102000A3C0811561E0960750F320E0392FA90194
:10103000482BCA010895803872E59707A8F48036D6
:1010400022E5920708F05AC0803432E5930708F091
:101050003FC0803242E5940730F18F7190E0982FC5
:101060008827816F906A0895803C52E5950760F467
:10107000282F2F71803A924508F456C0822F90E0B5
:10108000982F882790620895803E72E5970708F0B0
:10109000B6CF982F882788279F71806F906A089510
:1010A0009F70906A0895282F2695269550E2259FD7
:1010B00090011124837041E050E0BA0102C0660F34
:1010C000771F8A95E2F7CB01822B932B9D680895B9
:1010D000282F26952695277070E2279F90011124CE
:1010E000837041E050E0BA0102C0660F771F8A9515
:1010F000E2F7CB01822B932B9C680895282F26952D
:101100002695277070E2279F90011124837041E09B
:1011100050E0BA0102C0660F771F8A95E2F7CB0153
:10112000822B932B9A680895822F90E0982F88271E
:10113000846F906A08959C0195E0369527959A955D
:10114000E1F72F7030E0322F2227482F4F7150E007
:1011500084FF05C084E0440F551F8A95E1F7C9015B
:10116000842B952B906908959F718CCF80959091D9
:10117000B80498239093B80408958091180590912D
:10118000CF04981301C008958F5F8770FACF292F7D
:10119000983078F5863068F590E036E0239F800D32
:1011A000911D1124682F677023E0969587952A95E5
:1011B000E1F7FC01EE0FFF1FE80FF91FEF58FD4F9D
:1011C00050E040E080E0219130E0062E02C03695EC
:1011D00027950A94E2F721703327042E01C0220FCD
:1011E0000A94EAF7822B4F5F5F4F4330510559F75E
:1011F000089580E00895292F983098F5863088F575
:1012000090E036E0239F800D911D1124282F277038
:1012100041E001C0440F2A95EAF723E096958795AF
:101220002A95E1F7FC01EE0FFF1FE80FF91FEF58B9
:10123000FD4F30E020E070E05191DF011197CB01CC
:10124000022E02C0969587950A94E2F781708195E7
:101250008527842385278C932F5F3F4F23303105CB
:1012600059F70895809395020895982F92959F704D
:1012700011F0892F94E0282F2695269511F09E5F76
:10128000822F869509F09F5F892F0895CF93C82FED
:10129000809115028C1751F00E94E00660931602AF
:1012A000709317028093180290931902C09315024D
:1012B000CF910895B0E0A0E0E0E6F9E00C9462354B
:1012C0008C01EB01E0911A02E11101C0E7E0E1506D
:1012D000FF0B81E090E06C010E2E02C0CC0CDD1CF7
:1012E0000A94E2F7D801ED90FC90C701B6010E9484
:1012F000A9359B01CB010E2E02C0880F991F0A94BD
:10130000E2F7E81AF90AD8011196FC92EE921296C9
:10131000ED90FC90C701B6010E94A935CB0102C037
:10132000880F991FEA95E2F7E81AF90AF801F382A3
:10133000E2826138FFEF7F07F4F060387105ECF46A
:101340006D8321388FEF3807D4F020383105CCF485
:10135000822F81958C83442319F061956D832C83B2
:1013600080911B02882379F0813079F0CDB7DEB708
:10137000E8E00C947E3561E8E3CF6FE7E1CF21E848
:10138000E7CF2FE7E5CF1D82F1CF1C82EFCFFC0125
:10139000DB012281338191E821388FEF38072CF06F
:1013A000922F203831050CF09FE712969C931297EC
:1013B0002081318121388FEF3807A4F020383105A2
:1013C0009CF413962C931397442339F0919512961D
:1013D0009C931297219513962C931182108213825D
:1013E0001282089521E8EDCF2FE7EBCF8F708A307E
:1013F00010F4805D0895895A0895382F20E287FF00
:1014000002C031952DE24AE0832F642F0E949B3564
:10141000905D9093690281110BC02093680220E2D5
:101420002093670220E22093660286E692E0089508
:10143000642F0E949B35905D90936802832F64E631
:101440000E949B35882361F3805D80936702EBCF18
:101450009C01860F971F37FD07C077FD04C097FFDB
:1014600002C08FEF9FE7089577FFFDCF97FDFBCF79
:1014700080E090E80895E2E7F1E083E0DF011D926B
:101480008A95E9F7EEE6F1E084E0DF011D928A95A6
:10149000E9F7089520916B0130916C012817390705
:1014A00031F090936C0180936B010E943B0A089588
:1014B00090916901981721F0809369010E943B0A7D
:1014C0000895CF939091470380914003981323C0D0
:1014D00080914803882321F09091410389131BC018
:1014E00080914903882321F090914203891313C00E
:1014F00080914B03882321F09091440389130BC002
:1015000090914A03992329F081E020914303291304
:1015100003C080E001C081E0C82FC17080FF0FC010
:10152000E091B004F091B104309749F082E08093EB
:1015300046030480F581E02D86E493E009959091BF
:10154000470386E0E6E4F3E0DF01282F1D922A95A9
:10155000E9F790934703AFE3B3E001900D928A95CA
:10156000E1F781E0C11103C0911101C080E08170F9
:10157000CF9108952FE2280F283078F481E090E091
:1015800001C0880F2A95EAF720914703662331F0BE
:10159000822B809347030E94610A089580958223DD
:1015A000F8CFCF93DF93282F81E02A3019F02D3028
:1015B00031F480E00E94650BDF91CF910895809116
:1015C00022079091230736E0FC01ACE1B7E00190DF
:1015D0000D923A95E1F730EE320F343A08F458C0E4
:1015E00026E0FC0111922A95E9F7C0912207D091DB
:1015F000230746E050E0BE018CE197E00E940936E7
:101600009E012C513540892B41F1C90145E0969549
:1016100087954A95E1F741E050E0BA0102C0660FB4
:10162000771F8A95E2F7CB0160911A0570911B052F
:10163000862B972BB9016B5F7F4FE5E07695679519
:10164000EA95E1F702C0440F551F6A95E2F7842B33
:10165000952B90931B0580931A052A5F3F4F40916D
:101660001905642F70E0C9010E944435481B4630BB
:1016700010F4240F311D211572E0370710F030E00F
:1016800020E0245E3A4F309323072093220794CF23
:101690002052330B46E0429FB001439F700D11244E
:1016A0006257794F46E050E00E9400369ECFCF93BC
:1016B000DF93EC01FE018491811103C0DF91CF9192
:1016C00008950E94D10A2196F5CFCF93382FE0914B
:1016D0002207F0912307EC51F54020911905622F64
:1016E00070E0CF010E944435281B822F332361F024
:1016F00066E00E948F35C82FC15010F4CF91089535
:1017000080E20E94D10AF8CF9F01280F311D2115D8
:10171000324018F080E0F0E0E0E08E0F9F2F911D46
:10172000845E9A4F9093230780932207E7CF80919E
:10173000B80490913904892B80935E0290919402B1
:10174000992391F0892B80935E0220E080E692E05D
:10175000FC013191CF0131112F5FF2E086369F07F6
:10176000B9F721111092940248E050E06CE872E061
:101770008EE592E00E940936892BA9F088E0EEE51B
:10178000F2E0ACE8B2E001900D928A95E1F7E091C9
:10179000B004F091B104309731F00280F381E02D74
:1017A0008EE592E009950895E0E6F2E086E0DF013B
:1017B0001D928A95E9F7109239040E94970B0895BB
:1017C000AAE2B0E0E6EEFBE00C94673587EC94E02B
:1017D0002091F100DC012D93CD01B4E08F3C9B07FB
:1017E000B9F78091C804833009F472C0B8F481302D
:1017F00009F449C0823009F4B5C08091E80083FF44
:101800008DC28091C7049091C8049A3008F086C2B6
:10181000E92FF0E0E758F94C0C94BD358A3009F413
:1018200090C08B3009F471C0893039F78091C704BA
:10183000813219F78091CB049091CC04009711F07C
:101840000297D9F68091E800877F8093E800809125
:10185000E80082FF38C09091F3008091F200029777
:1018600031F48091F100813011F0863021F48091C3
:10187000F1008093BA048091E8008B778093E800B0
:101880000E94C105BACF8091C704813A09F0B5CF53
:101890008091E800877F8093E8008091CB0490914D
:1018A000CC04892B61F468E08BEB94E070E00E943B
:1018B0006D068091E8008B778093E8009ECF60E012
:1018C00090E080E0F3CF8091C5048111C0CF95CF27
:1018D0008091C704813A09F090CF8091CB04909118
:1018E000CC04892B09F089CF8091E800877F809311
:1018F000E8008091E80080FFFCCF80910202809395
:10190000F1008091E8008E77B9CF8091C7048132D1
:1019100009F073CF8091CB049091CC04892B09F00E
:101920006CCF8091E800877F8093E8000E94C1051A
:101930008091C904809302021092B8040E94D40BD3
:101940005CCF8091C704813209F057CF8091E800C5
:10195000877F8093E8000E94C1058091CA0480932C
:10196000B9044BCF8091C704813A09F046CF8091EA
:10197000E800877F8093E8008091E80080FFFCCF3B
:101980008091B904BCCF803899F0823809F0C6C183
:101990008091CB048F70873008F0C0C18093E9003C
:1019A0008091EB0085FB882780F91092E90006C042
:1019B0008091C3049091C404911182609091E800D9
:1019C000977F9093E8008093F1001092F10080914E
:1019D000E8008E779FC1882309F48DC1823009F019
:1019E0009DC18091C904811190C18091CB048F70F9
:1019F0002FEF280F263008F091C18093E900209145
:101A0000EB0020FF82C1933031F48091EB008062C3
:101A10008093EB007AC19091EB0090619093EB0082
:101A200021E030E001C0220F8A95EAF72093EA0016
:101A30001092EA008091EB008860EACF81116EC1BC
:101A40001091C9041F778091E3008078812B8093E7
:101A5000E3008091E800877F8093E8000E94C10541
:101A60008091E80080FFFCCF8091E3008068809344
:101A7000E30082E0111183E08093C5044FC18058D8
:101A8000823008F04BC12091C9043091CA042C3D2A
:101A9000E3E03E07A1F583E08A838AE289834FB7BA
:101AA000F894DE01139620E03EE051E2E32FF0E0EF
:101AB00050935700E49120FF03C0E295EF703F5F21
:101AC000EF708E2F90E0EA30C0F0C7968D939D9313
:101AD0002F5F243159F74FBF8091E800877F8093B3
:101AE000E8006AE270E0CE0101960E946D068091E6
:101AF000E8008B778093E80011C1C096E7CF809112
:101B0000CB049091CC04432F55274330510509F461
:101B10004AC078F54130510509F47AC08BE590E070
:101B2000E5EFF5E04230510509F0F8C02091E800FA
:101B3000277F2093E8002091CD043091CE048217B6
:101B4000930708F49C0140E02115310509F065C0B8
:101B5000411163C08091E80082FDC9CF8091C50426
:101B6000882329F2853019F28091E80083FFF2CFB3
:101B7000BECF4132510509F43CC04232510509F053
:101B8000CDC08330910508F0C9C0FC01EE0FFF1FE6
:101B9000E15BFD4F0190F081E02D845B9D4FDC0106
:101BA0008C9190E01AC0332721303105D1F02115F6
:101BB000310561F02230310509F0B0C0E2E6F6E00F
:101BC000E4918E2F90E0E2E6F6E007C0EAE8F6E066
:101BD000E4918E2F90E0EAE8F6E0009709F49EC0C9
:101BE000A5CFE8E7F6E0E4918E2F90E0E8E7F6E095
:101BF000F4CF8330910508F091C0880F991FFC0144
:101C0000EB5AFD4F0190F081E02D89E090E08ECFFE
:101C100082E190E0E0E5F6E089CF8091C504882379
:101C200009F465CF853009F462CF8091E80083FD27
:101C30005ECF8091E80082FD8DCF8091E80080FF2B
:101C400083CF9091F3008091F2002115310519F0B6
:101C50008830910550F041E0089709F040E080910C
:101C6000E8008E778093E8006FCF44914093F100B5
:101C70003196215031090196E8CF803809F04EC0E5
:101C80008091E800877F8093E8008091C60480936C
:101C9000F1009DCE811142C01091C9041230F0F5BF
:101CA0008091E800877F8093E8001093C6040E942B
:101CB000C105112311F084E005C08091E30087FD88
:101CC000FACF81E08093C50442E061EC81E00E949C
:101CD000E00542E261EC84E00E94E00542E261EC52
:101CE00082E00E94E00542E260EC83E00E94E005B1
:101CF0008091C50413C08091C904813079F481E0DA
:101D0000933009F080E08093C4041092E900809140
:101D1000E800877F8093E8000E94C1058091E80079
:101D200083FF0AC08091E800877F8093E80080915C
:101D3000EB0080628093EB00AA96E3E00C9483357D
:101D4000882321F00E94B6080E94970B08958823EB
:101D500039F09091B804982B9093B8040E94970B97
:101D60000895882349F19CEF980F913A80F4E0E6BA
:101D7000F2E026E632E09191891303C0DF0111976A
:101D80001C922E173F07B9F70E94970B089590E217
:101D9000980F983050F4877091E001C0990F8A95A0
:101DA000EAF7892F0E94B608EFCF93E3980F93319B
:101DB00018F460E00E94BA0A08950F931F93CF931E
:101DC000C82F882341F18CEF8C0F813AB0F500E6E3
:101DD00012E086E692E0F8012191C21701F18E1718
:101DE0009F07D1F7EFEF80E0D8019D918D01C917D2
:101DF00081F0EF3F19F4911101C0E82F8F5F863019
:101E000099F7EF3F31F00E2E000CFF0BE25AFD4F19
:101E1000C2830E94970BCF911F910F910895E0E626
:101E2000F2E02191C21303C0DF0111971C928E17BB
:101E30009F07B9F70E94970BD5CF80E28C0F8830AF
:101E400068F4C77021E030E001C0220FCA95EAF7BC
:101E50008091B804822B8093B804DBCF83E38C0F8E
:101E60008331C8F661E08C2F0E94BA0AD4CF0F9359
:101E70001F93CF93DF93EC01FC0101900020E9F761
:101E80008F0101501109C017D10728F0DF91CF91C0
:101E90001F910F91089589910E94D10AF4CF0F9359
:101EA0001F93CF93DF938B01EA019091C504943087
:101EB00061F58093E9008FEF9091E800815095FDE6
:101EC00006C095ED9A95F1F700008111F5CF80914C
:101ED000E80085FF1AC00E949005811111C0809111
:101EE000E80085FD06C08091E8008E778093E800C9
:101EF000F2CFF80181918F018093F100219779F75A
:101F00008091E8008E778093E800DF91CF911F9158
:101F10000F91089546E050E0BC0184E00E944F0F0D
:101F20000895CF93DF93EC0148E050E0BC0181E0DD
:101F30000E944F0F88E0FE01ABEBB4E001900D92E0
:101F40008A95E1F7DF91CF91089560910402809125
:101F5000040480FF20C08091030243E0849FC001FD
:101F60001124805B9C4F539A2BB1277F3BB1386083
:101F70005FB7F894FC01649FE00DF11D1124BF01CF
:101F800068177907D1F45FBF8FE594E00197F1F707
:101F900000C000000895809105029091060223E0A0
:101FA000829FF0011124E05BFC4F8917A0F611829B
:101FB000108212828F5F3396F8CFFC014191CF01DE
:101FC000E8E03BB9000000C047FF2BB9440F000018
:101FD00000C000C000C02BB900C0EA9591F7D0CF77
:101FE000E4E0F4E080818E7F8083EDE4F3E08281A1
:101FF000816082830E94A50F0895B0E0A0E0E3E035
:10200000F0E10C9460357C015B016A018091100362
:1020100001E010E08A3010F40AE010E0C1E0D0E006
:10202000B501C701F6010995811104C021960C176D
:102030001D072CF4CDB7DEB7EAE00C947C35CC9FBD
:102040009001CD9F300D300D112490E080E045E3EC
:102050004A95F1F70000019682179307C1F7E0CF88
:102060008091A202811119C088EC90E02091E300D8
:1020700027FD10C0EFE3FCE93197F1F700C0000045
:102080000197A1F782E08093A2020E94710510924D
:10209000C50403C081E08093A20281E09091A20276
:1020A000913011F080E0089508950E943010882347
:1020B00059F0E091B004F091B104309729F001900B
:1020C000F081E02D0995089580E008950F931F9306
:1020D0000E943010882329F00E94E0061F910F9182
:1020E00008950E94E00600911103109112032091BF
:1020F000130330911403600F711F821F931FEECFE3
:1021000054985C9A879A8F9885E08A95F1F7000039
:1021100089B187988F9A90EA9A95F1F790E024E038
:10212000959587952A95E1F780959095817008950A
:10213000CF93DF9380910802CEE18111CDE18091B0
:102140000902D0E0882329F080910A02DEE18111A2
:10215000DDE10E94801081110FC08D2F809303025A
:10216000C0930402CD0F10920502C0930602C093E3
:102170000702DF91CF91089580E0F0CF80910802AF
:10218000F90180830E94981008951F93CF93DF93E5
:10219000182FEB010E94DD0E8FE99FE00197F1F708
:1021A00000C000002197C1F7812F0E94B10EDF917E
:1021B000CF911F9108951092B8040E94D40B2FEF75
:1021C00084E39CE0215080409040E1F700C0000093
:1021D00088E19AE00FB6F894A895809360000FBE4E
:1021E00090936000FFCFCF93DF93C9E0D2E060E02F
:1021F000CE010E9443362196C11584E0D807B9F775
:10220000DF91CF9108951F93CF93DF93122F8530E5
:10221000E0F46830D0F44630C0F4C42FD0E0CC0FE6
:10222000DD1F9CE0699FC00DD11D112490E6899FA0
:10223000C00DD11D1124632FCE0189960E94433613
:10224000612FCE018A960E944336DF91CF911F9174
:102250000895AF92BF92CF92DF92EF92FF921F93B9
:10226000CF93DF9385E1C82E84E0D82ED0E07601AD
:10227000C0E014C0F50125913491412F6C2F8D2FB2
:102280000E94031182E0A80EB11C1F5F163091F767
:102290008CE0E80EF11CCF5FC83019F0570110E058
:1022A000E9CFDF5F80E6C80ED11CD53001F7DF91A2
:1022B000CF911F91FF90EF90DF90CF90BF90AF90A4
:1022C000089588E290E00E9443360895CF93C82F86
:1022D0006FEF811166E285E290E00E9443366FEF76
:1022E000C11167E086E290E00E9443366FEFC111B2
:1022F00064E187E290E00E944336CF91089580E048
:102300000E94661160E070E0CB010E9461110E94A2
:1023100029110E94F31081E00E94661108950F9325
:102320001F93CF93DF93853030F5683020F546302A
:1023300010F5C42FD0E0CC0FDD1F2CE0629FC00D44
:10234000D11D112430E6839FC00DD11D1124CE0173
:1023500089960E941F36082F10E0102F0027CE010B
:102360008A960E941F369801282BC901DF91CF91D0
:102370001F910F91089590E080E0F8CF462F7830BC
:1023800040F4663030F4853020F4672F0E948F11BE
:10239000089590E080E00895CF92DF92FF920F932E
:1023A0001F93CF93DF936C0100910C0480919502F1
:1023B000082BC4E0D0E010E0FC2EC8010C2E02C0B7
:1023C000959587950A94E2F780FD0CC02197A0F7B8
:1023D000F12C8F2DDF91CF911F910F91FF90DF9006
:1023E000CF900895B6018C2F0E94BE110E94E7077E
:1023F000019761F3EECFCF93DF93EC010E94CC11F4
:10240000BE010E94BE110E94E707DF91CF9108959F
:10241000FC0184818823F9F087819085009791F0F1
:102420000E94E70792959F709630B9F080F4925F12
:102430009F70923080F4803F19F058F4883E58F431
:1024400081E00895808191810E94FB11EBCF9A5F1A
:10245000EFCF843FA9F380E00895883E88F3813F61
:10246000D1F7EECFA6E0B0E0E8E3F2E10C946735F7
:102470009C01FC01878190850097E1F486E0DE01F4
:10248000119601900D928A95E1F7F90125818981D4
:102490009A81222399F0662389F00E94CC11182F8B
:1024A000682F89819A810E94FB0869817A81812F36
:1024B0000E94BE112696E3E00C9483350E94C70863
:1024C000182FF3CF88E290E00E941F36682F70E04B
:1024D00090E080E0089585E290E00E941F36863209
:1024E00089F486E290E00E941F36873059F487E233
:1024F00090E00E941F3691E0843109F090E0892F2E
:102500008170089580E0FCCFB0E0A0E0EAE8F2E15D
:102510000C9462356C017B0164E670E088E70E94F0
:10252000A2328C01E601EC0CFD1C17FD0BC0FE0174
:10253000849164E670E00E940E338C012196CE15E2
:10254000DF0599F70E94843381E00115110509F038
:1025500080E0CDB7DEB7E8E00C947E35809133049F
:1025600090913604911103C091E089270895882342
:1025700069F062E070E086ED93E00E9484128111C0
:1025800003C0809133040895109233048091330482
:10259000EBCFCF93C0913304809136048823D1F0E0
:1025A0000E94E006605A75418F4F9F4F60932F0441
:1025B000709330048093310490933204C11108C0A9
:1025C00062E070E084ED93E00E948412811105C006
:1025D000C09133048C2FCF91089581E08093330410
:1025E000F7CFB0E0A0E0E7EFF2E10C945E354901EF
:1025F0005A016B017C010E9447078401A4016A2DE6
:102600007B2D88E090E00E94553694014A2D5B2D89
:10261000B601C70100E20E94E535622F84E290E036
:102620000E944336CDB7DEB7ECE00C947A35B0E0CB
:10263000A0E0EDE1F3E10C945E35182FC62FD42F06
:10264000822E0091040400FF50C080910504811384
:1026500008C080910604861304C080910704841783
:1026600029F080914F03826080934F03E02FE6951D
:10267000F0E0EE5BFD4F808180934D03802F8E7FD5
:102680008230E9F4ED2FD73908F0E6E9F0E0EC52BA
:10269000FD4FC1112FC02491F22FE22F00FF0FC078
:1026A000809105029091060233E0839FD0011124AE
:1026B000A05BBC4F891708F492C00E94A50F10932D
:1026C0000504C0930604D0930704882071F020917C
:1026D00004046091080470910904312FAE018091C7
:1026E0000A0490910B040E94F112CDB7DEB7ECE022
:1026F0000C947A35EC2EF12CE4919E2ECE2ED12C1A
:1027000026E0129FC00111242FEF30E0B9010E9492
:102710004435812F90E0880F991FF5E5F69FA001C1
:10272000F79F500D1124841B950BB82EBB0CB80ECF
:10273000A9014E195F094C9DC0014D9D900D5C9DF6
:10274000900D1124F92FCB9DA0011124452F552761
:10275000D901A41BB50BAC9DA001AD9D500DBC9D36
:10276000500D1124D901AB19B1095D01AE9CD00106
:10277000AF9CB00DBE9CB00D1124AB2FBB272A1B04
:102780003B0B2C9DD0012D9DB00D3C9DB00D112417
:102790002B2F62307105A1F050F46115710509F419
:1027A0007DCF6130710581F0292FF52F77CF64300F
:1027B000710569F080F06630710509F46FCFF4CFD0
:1027C0002E2FE92FFB2F6ACF2E2FE52F67CF292F32
:1027D000FE2FEB2F63CFE92FF92D252F5FCF119619
:1027E000EC9311972C931296FC9312978F5F13968C
:1027F00061CF20E00E94171308950F931F93CF938A
:10280000C82F0E94350991E0833009F090E0892FAC
:102810000E9446094C2F50E070E060E0DB01CA01E5
:10282000F4E0B695A79597958795FA95D1F7009717
:10283000A105B10531F1AC01BD0184E08A019B0124
:10284000E2E03695279517950795EA95D1F701159A
:1028500011052105310519F08E5FB901A8017695A2
:10286000679557954795452B462B472B09F08F5F6A
:102870008230F9F040F4882371F08130B1F040E00B
:1028800007C080E0DBCF8330C1F04FEF8430B9F771
:1028900060E080E003C04FEF6FEF8AE60E94F9131B
:1028A0008C2FCF911F910F9108954FEF60E88AEE22
:1028B000F5CF4FEF66E684E8F1CF4FEF6FEF8BE295
:1028C000EDCF0E94FD1380930C04089590910C04A9
:1028D00021E030E0F90101C0EE0F8A95EAF7D90155
:1028E00002C0AA0FBB1F6A95E2F7EA2B01C0220FB4
:1028F0004A95EAF7892F8E23E81305C0292B822FEA
:102900000E946114089520952923F9CF21E030E039
:1029100001C0220F8A95EAF7209580910C0482234A
:102920000E946114089590914C03809589238093AF
:102930004C03282F277069F4891759F090912003D0
:1029400092FF07C08695869586950E948614109200
:102950004C03089521E030E001C0220F8A95EAF788
:1029600080910C04822B0E9461140895E4E0F4E04D
:1029700043812FE0421B08F440E021E06281818125
:102980000E9417130895E4E0F4E043812FE0420F22
:1029900008F44FEF21E0628181810E9417130895AE
:1029A000E4E0F4E0628121E1621B08F460E021E0F0
:1029B000438181810E9417130895E4E0F4E062816D
:1029C00021E1620F08F46FEF21E0438181810E94D1
:1029D00017130895E4E0F4E0818121E043816281EE
:1029E00081510E9417130895E4E0F4E0818121E011
:1029F000438162818F5E0E941713089580910804BD
:102A0000882319F0815080930804209104043091A8
:102A100005044091060450910704609108047091E8
:102A2000090480910A0490910B040E94F112089508
:102A300080910804833018F48F5F809308042091FC
:102A400004043091050440910604509107046091FC
:102A500008047091090480910A0490910B040E946B
:102A6000F11208952091040420FF23C021702260F8
:102A70002093040480914F03816080934F03662369
:102A800081F0309105044091060450910704609153
:102A900008047091090480910A0490910B040E942B
:102AA000F1124091070460910604809105040E9490
:102AB000F9130895809104048695815009F481E00A
:102AC00061E00E943215089561E081E00E943215B4
:102AD0000895E4E0F4E083E0808311828FEF828345
:102AE00086E983831482ADE4B3E012968C91129749
:102AF000836012968C93758123E030E04FEF56E9A6
:102B000060E0868197810E94F112089590912003E0
:102B100092FB222720F9281779F080FB92F99093F5
:102B2000200360911F037091200384E090E00E94D5
:102B3000613682E00E949314089590E080E00E9444
:102B40002D36863E9E4F19F40E946B12089580E048
:102B50000895B0E0A0E0EFEAF5E10C946335790167
:102B6000C82F880FDD0B41155105A9F0FE0193E038
:102B7000EE0FFF1F9A95E1F7EF5FFE4F8181928183
:102B80008D559D4F208130E04217530708F49A017C
:102B9000A9010E941636CE010E94CE34D82E882379
:102BA000D1F001151105B9F083E0CC0FDD1F8A9536
:102BB000E1F7FE01EF5FFE4F438150E00417150778
:102BC00008F4A801CF5FDE4F6C817D816D557D4F8C
:102BD000C7010E9416368D2DCDB7DEB7E7E00C9405
:102BE0007F35A5E0B0E0E7EFF5E10C9460358D832B
:102BF000E62E5A01F22E6801809110038A3028F0E7
:102C000080E02596EAE00C947C358D818930C4F310
:102C10001A8219828A836B832C8363E070E0CE0171
:102C200002960E942B078983E0923101F0924401C1
:102C300010E000E030E020E044E050E0BE016F5FD3
:102C40007F4F85E00E94A9158823D1F24E2D50E0D8
:102C500030E020E0B50186E00E94A915882381F2CA
:102C600030E020E041E050E0BE016B5F7F4F87E045
:102C70000E94A915882321F20F2D10E0960150E043
:102C800040E070E060E088E00E94A915BACFA4E0BF
:102C9000B0E0EDE4F6E10C94663540910403509108
:102CA000050360910603709107032FB7F894809194
:102CB000B3049091B404A091B504B091B6042FBFB1
:102CC000841B950BA60BB70B11E084369105A1056B
:102CD000B10518F10E9466106E5F7F4F8F4F9F4FB6
:102CE00069837A838B839C8310E000E030E020E0EE
:102CF00044E050E0BE016F5F7F4F82E00E94A91563
:102D0000182F882351F00E94E0066093040370930B
:102D100005038093060390930703812F2496E4E034
:102D20000C948235A5E0B0E0E8E9F6E10C94643556
:102D30007B0101E010E09E012B5F3F4F50E040E03F
:102D400070E060E080E00E94A915182F882309F444
:102D500056C04091000350910103609102037091AD
:102D600003032FB7F8948091B3049091B404A09119
:102D7000B504B091B6042FBF841B950BA60BB70BFF
:102D800084369105A105B10548F464E070E084EA59
:102D900092E00E942B079D81891789F104E010E0E1
:102DA0009E012F5F3F4F50E040E070E060E081E027
:102DB0000E94A915082F64E070E084EA92E00E9466
:102DC0002B0711E09D81981310E0102331F10E9430
:102DD000E0066093000370930103809302039093D5
:102DE000030389819A81AB81BC818093FC0290931B
:102DF000FD02A093FE02B093FF0211E00EC080918D
:102E0000A4029091A502A091A602B091A702898385
:102E10009A83AB83BC831111E4CF8091FC02909123
:102E2000FD02A091FE02B091FF02F7018083918321
:102E3000A283B383812F2596E6E00C9480358F9290
:102E40009F92AF92BF92EF92FF920F931F93CF93F7
:102E50007B01942FB901A801F70180809180A280A5
:102E6000B380EFB7F8940091B3041091B4042091AB
:102E7000B5043091B604EFBF081919092A093B09B6
:102E8000043611052105310518F4C1E0992381F0BC
:102E900010E000E030E020E00E94A915C82F882350
:102EA00039F00E94E006F701608371838283938387
:102EB0008C2FCF911F910F91FF90EF90BF90AF900B
:102EC0009F908F900895A1E0B0E0E9E6F7E10C94BF
:102ED00066358091330489832091B70290E041E008
:102EE0002817190609F440E001E010E09E012F5F69
:102EF0003F4F6CE073E084E00E941F172196E4E0EE
:102F00000C948235ABE0B0E0E8E8F7E10C9466356C
:102F100088E0E4E0F4E0DE01119601900D928A95DC
:102F2000E1F780914D0390914E03A0914F03898763
:102F30009A87AB8741E08B85811101C040E00BE0AF
:102F400010E09E012F5F3F4F68E073E083E00E9436
:102F50001F17811110924F032B96E4E00C948235D9
:102F6000A8E0B0E0E6EBF7E10C94683566EE7EEFA2
:102F700090E080E00E94613660E082E090E00E9494
:102F8000433660E083E090E00E9443361092950261
:102F900060E074E184E090E00E94613660E086E0E9
:102FA00090E00E9443366FEF87E090E00E94433646
:102FB00040E050E0BA0188E090E00E94553660E0C1
:102FC00084E290E00E94433660E087E190E00E9456
:102FD000433660E08CE090E00E94433660E08DE094
:102FE00090E00E94433619821A821B821C821D8245
:102FF0001E821F82188648E050E068E170E0CE0132
:1030000001960E94333640E050E0BA0180E290E041
:103010000E94553680E00E9466110E947F1140E0B8
:1030200050E0BA018FE090E00E94553640E050E059
:10303000BA0183E190E00E9455362896E2E00C94B4
:10304000843528E030E043E060E086E30E94CA3146
:103050000895CF93DF93D82FC62F0E9421188D2F6C
:1030600080680E9442328C2F0E9442328AEB8A95FD
:10307000F1F700C00E94723283E492E00197F1F709
:1030800000C00000DF91CF910895682F893708F0C4
:1030900068E76093130291E0909314029091080204
:1030A000992339F06150811101C064E08FE00E94E2
:1030B00029180895FB0180810E9445180895909178
:1030C0001302911101C095E0282F880F330BA9013D
:1030D000490F511DCA011816190614F081E090E03D
:1030E0000E9445180895ACE0B0E0E9E7F8E10C94DF
:1030F00062354F83588769877A878B879C87809151
:103100000802882309F446C080916B02811107C030
:1031100060E080E50E94291881E080936B020E94A4
:10312000211880E50E9442328AEB8A95F1F700C0AF
:103130000E945A320E945A320E945A327C010E94E6
:103140005A3220E0E22AF82A0E945A328C010E9468
:103150005A3220E0022B182B0E94723285E08A95A9
:10316000F1F70000F894B70180910B0290910C02E6
:103170000E94280A90930C0280930B02B801809160
:103180000D0290910E020E94280A90930E028093E5
:103190000D0278940E943010882309F469C00E94BF
:1031A000E00600916C0210916D0220916E02309148
:1031B0006F026B017C01C01AD10AE20AF30A97017F
:1031C0008601083011052105310508F451C06093CE
:1031D0006C0270936D0280936E0290936F02009167
:1031E0001602109117022091180230911902601BEB
:1031F000710B820B930B623371058105910580F48D
:1032000010920C0210920B0210920E0210920D02FC
:103210001092100210920F021092120210921102DC
:10322000109115020E948010482FBE01695F7F4FE8
:103230008BE092E0112389F10E945A090091150256
:10324000109108020E94801041E04827BE01695F8A
:103250007F4F8FE092E0011719F10E945A0986E032
:10326000FE013796A0E2B2E001900D928A95E1F757
:1032700086E0FE013796DE01119601900D928A9547
:10328000E1F729813A814B815C816D817E8180E00B
:1032900090E02C96E8E00C947E350E94C709CECFD2
:1032A0000E94C709DCCFCF93C82F0E9421188C2F12
:1032B0000E9442328FE792E00197F1F700C00000D0
:1032C0000E945A32C82F95E09A95F1F700000E94AB
:1032D000723285E68A95F1F7000010926B028C2F0E
:1032E000CF910895CF93DF930E94C231269A0E9416
:1032F00021186AE58AE30E9429182FEF80E792E0FF
:10330000215080409040E1F700C0000082E00E9420
:10331000531983E00E94531984E00E94531985E0F9
:103320000E94531986E00E94531960E080E10E94D8
:10333000291880E00E945319D82F81E00E94531968
:10334000C82F0E947232D23419F481E0C13009F0E2
:1033500080E0817080930802882321F064E08FE090
:103360000E942918DF91CF9108951F920F920FB6F6
:103370000F9211242F933F934F935F936F937F93FB
:103380008F939F93AF93BF93CF93DF93EF93FF936D
:10339000D091E900DF708091EC00C82FC17080FDF2
:1033A000C0E81092E9008091F000877F8093F000E0
:1033B00078940E94E00B1092E9008091F000886000
:1033C0008093F000CD2BCF70C093E900FF91EF9177
:1033D000DF91CF91BF91AF919F918F917F916F912D
:1033E0005F914F913F912F910F900FBE0F901F90C3
:1033F00018951F920F920FB60F9211242F933F939F
:103400004F935F936F937F938F939F93AF93BF93EC
:10341000EF93FF938091E10082FF09C08091E20069
:1034200082FF05C08091E1008B7F8093E100809155
:10343000DA0080FF24C08091D80080FF20C08091F6
:10344000DA008E7F8093DA008091D90080FF9DC0E2
:1034500080E189BD82E189BD09B400FEFDCF81E034
:103460008093C5048091B704811109C00E94710541
:103470000E9412068091E20084608093E2008091B5
:10348000E10080FF17C08091E20080FF13C08091AF
:10349000E2008E7F8093E2008091E2008061809361
:1034A000E2008091D80080628093D80019BC85E04A
:1034B0008093C5048091E10084FF2BC08091E200DD
:1034C00084FF27C080E189BD82E189BD89B5982F3D
:1034D000917080FFFBCF8091D8008F7D8093D800C2
:1034E0008091E1008F7E8093E1008091E2008F7EE9
:1034F0008093E2008091E20081608093E2008091FD
:10350000C604882309F447C084E08093C5048091F1
:10351000C5048091E10083FF27C08091E20083FF12
:1035200023C08091E100877F8093E10082E0809357
:10353000C5041092C6048091E1008E7F8093E10063
:103540008091E2008E7F8093E2008091E2008061B2
:103550008093E20042E060E080E00E94E00580911C
:10356000F00088608093F000FF91EF91BF91AF91E0
:103570009F918F917F916F915F914F913F912F918B
:103580000F900FBE0F901F90189519BC1092C50494
:103590001092B70474CF8091E30087FD93E090937D
:1035A000C504B5CF78941F921FB61F9211248F9334
:1035B0009F93AF93BF938091B3049091B404A09173
:1035C000B504B091B6040196A11DB11D8093B3045A
:1035D0009093B404A093B504B093B604BF91AF9197
:1035E0009F918F911F901FBE1F9018959C014FB700
:1035F000F8948091B3049091B404A091B504B09173
:10360000B6044FBF821B930B08952FB7F894809197
:10361000B3049091B404A091B504B091B6042FBF47
:1036200008952F923F925F926F927F928F929F9216
:10363000AF92BF92CF92DF92EF92FF920F931F93C0
:10364000CF93DF9380913604882309F4FEC08091E4
:103650003404909135040E94F61AC29708F4D5C03C
:103660000E94051B90933504809334048CE195E00F
:1036700090932307809322070E943010882309F437
:1036800001C18EED93E00E94570B88EB0E94D10A96
:1036900080911F020E94F6090E94D10A89EB0E94C4
:1036A000D10A80911E020E94F6090E94D10A8BED78
:1036B00093E00E94570B80911C0290911D0254E0F0
:1036C000969587955A95E1F70E94F6090E94D10ACE
:1036D00080911C020E94F6090E94D10A88ED93E0B5
:1036E0000E94570B86E292E00E94370F8DEF93E025
:1036F0000E94570B809122020E94FD090E94370F01
:10370000809123020E94FD090E94370F80912502BB
:103710000E94FD090E94370F809124020E94FD093A
:103720000E94370F85EF93E00E94570B80911302A0
:10373000811101C085E00E94FD0901960E94370FAA
:1037400081EF93E00E94570B80911B02882331F098
:10375000813009F48CC088EE93E002C08EEE93E0D5
:103760000E94570B80911502882309F483C086E0DC
:1037700094E00E94570B84EE93E00E94570B8091D7
:103780001A02811101C087E0805D0E94D10A8CE09D
:1037900094E00E94570BC1E0D0E080910C04882394
:1037A00009F46BC090E00C2E02C0959587950A94A1
:1037B000E2F780FF62C08C2F0E94F6090E94D10AB6
:1037C0002196C830D10549F780E20E94D10A89E0EC
:1037D00094E00E94570B80916901882309F44FC03F
:1037E00086E094E00E94570B80916B0190916C01F0
:1037F00068EE73E00E944435862F0E94FD09019611
:103800000E94370F83E70E94D10A80911A05909198
:103810001B05892B09F04CC0809133048823A9F043
:103820000E94E00600912F04109130042091310491
:1038300030913204601B710B820B930B6F3F7F4FF3
:103840008F4F9F4710F40E94AE12DF91CF911F91CE
:103850000F91FF90EF90DF90CF90BF90AF909F902F
:103860008F907F906F905F903F902F9008958BEE98
:1038700093E076CF83E094E07CCF80EB9FCF83E032
:1038800094E0B0CFC0E9D0EFDC0F82E194E00E9479
:10389000570B11E01D0F8D2F0E94D10AD12F1C1341
:1038A000F8CF80E00E94650BC05FC03C61F7ADCFF0
:1038B00080913604882309F4AFCF80912E048111C2
:1038C000ABCF0E94C91220911A0530911B0521151A
:1038D000310509F4A1CF80E041E050E0082F10E06D
:1038E0001A01082E02C0220C331C0A94E2F7B1011F
:1038F00062237323672B11F48F5FF0CF90912D0417
:1039000090FF95C0880F880F880F809377011092E1
:103910007A01895F8093780183E080937B0124E6BC
:1039200030E047E050E065E771E088E70E943C3313
:10393000892B09F071CFA80125E0440F551F2A9566
:10394000E1F780912D0480FF84C0EDE0F4E080E297
:10395000DF011D928A95E9F7A8E4B2E004E412E0E1
:103960008CE4C82E82E0D82E97E0592E77247394E9
:103970008D91E80129918E01240F352F311D245E90
:103980003A4FE82FF0E0E35FFB4F90E080E0652CDA
:10399000681A872C082E01C0880C0A94EAF779016E
:1039A000A12CE701B9907E01B820662D6A196770D5
:1039B000962E062E000C770BDB2D01C0DD0F9A949E
:1039C000EAF77195619571096770772701C0B69420
:1039D0006A95EAF7BD2A6081962E9B289082A3946F
:1039E00068E0A612DECF019631968830910579F60F
:1039F000CA16DB0609F0BCCF04E610E020E230E096
:103A00004DE054E060E488E70E945D33892B09F0C3
:103A100003CFE101C095D09580911A0590911B05C7
:103A2000C823D923D0931B05C0931A05F5CE8295E0
:103A3000880F807680937701980136952795369583
:103A4000279520937A01815E8093780120937B01F2
:103A500066CF445E5A4F04E610E020E230E0D2CF59
:103A6000AEE1B0E0E6E3FDE10C946735409146033A
:103A700050914703609148037091490380914A0334
:103A800090914B030E947318209346033093470391
:103A9000409348035093490360934A0370934B0348
:103AA00086E0E6E4F3E0DE01179601900D928A9538
:103AB000E1F786E0FE013796DE011D9601900D923A
:103AC0008A95E1F786E0FE013D96DE0111960190B0
:103AD0000D928A95E1F786E0FE013196A6E4B3E007
:103AE00001900D928A95E1F786E0E6E4F3E0DE01CD
:103AF000599601900D928A95E1F786E0FE0179963C
:103B0000DE01179601900D928A95E1F786E0FE019D
:103B10003796DE01119601900D928A95E1F786E0C5
:103B2000FE013196DE01539601900D928A95E1F7E0
:103B300086E0FE017396DE01179601900D928A953C
:103B4000E1F786E0FE013796A6E4B3E001900D921E
:103B50008A95E1F786E0E6E4F3E0DE01179601904E
:103B60000D928A95E1F780916901882309F445C097
:103B700080916E0190916F010E94F61A20916D0163
:103B800028171906D0F580917001909171010E945B
:103B9000F61A893C910588F189859A85892B9B8540
:103BA000892B9C85892B9885892B91E009F490E0DD
:103BB000909372010E94740710910C04882351F1B4
:103BC0000E94051B90936F0180936E01109271010A
:103BD0001092700180916A01111105C0882369F06B
:103BE0000E94AA140AC0212F30E0082E02C0359589
:103BF00027950A94E2F720FFF3CF0E94610A811112
:103C00002FC0809145031092450381706E96E3E0CA
:103C10000C94833580916A01111118C08111EDCF88
:103C200080916E0190916F010E94F61A20916B01B4
:103C300030916C012817390700F780916A010E94C2
:103C4000861410926F0110926E01D7CF212F30E0B1
:103C500002C0359527958A95E2F720FFCECFE0CFB9
:103C600081E090E0D0CFA3E1B0E0E9E3FEE10C9485
:103C70005D358E01045F1F4F88E0D8011D928A9543
:103C8000E9F780E3C82E82E0D82EF12CE12CAA249B
:103C9000A394B12C2AE3822E22E0922EF601819188
:103CA0006F018F3F09F442C0F894E82FE295EF705E
:103CB000F0E021A18F70A50102C0440F551F8A9525
:103CC000E2F7CA01922F982B91A392A180958923A4
:103CD00082A3789400C0E4E3F2E0712C31E02191FA
:103CE0002F3F09F46BC0A22FA295AF70B0E0909661
:103CF0008C9190E02F7002C0959587952A95E2F7F8
:103D000080FD5CC0832F782A330F8E169F0639F70B
:103D1000F601319780818F3F11F00E94D00750EA61
:103D20005A95F1F7F801EE0DFF1D70828FEFE81A3A
:103D3000F80AA4E0EA16F10409F0B0CF48E050E038
:103D4000B80185E193E00E940936009741F028E030
:103D5000F801A5E1B3E001900D922A95E1F70091F9
:103D60001E03892B69F181E080939A020E94051B52
:103D70009093990280939802809198029091990271
:103D80000E94F61A059700F110E0045D1C4F44E014
:103D900050E065E173E0C8010E940936B12C892B1F
:103DA00051F084E0E5E1F3E0D80101900D928A95AD
:103DB000E1F7BB24B39410929A0207C080E0A3CF2E
:103DC00080919A028111D8CFB12C0E943010A82E78
:103DD000E0911E03882309F489C019821A821B828C
:103DE0001C820E2F10E0045D1C4F809110038A305E
:103DF00008F046C042E956E1BE016F5F7F4FC8013F
:103E00000E94FD0F882309F460C047E456E1BE011B
:103E10006F5F7F4FC8010E94FD0F882309F455C0D2
:103E200042E857E1BE016F5F7F4FC8010E94FD0F5E
:103E3000882309F44AC043E657E1BE016F5F7F4F14
:103E4000C8010E94FD0F882309F43FC0109210039F
:103E500080911D0390E044E050E0BE016F5F7F4F12
:103E6000845D9C4F0E94093621E02093A102892B9A
:103E7000F1F4A12C8A2D8B296396EDE00C94793511
:103E800080919B0290919C020E94F61A843F91407F
:103E900008F0B0CF8091A102882359F384E0FE019D
:103EA0003196DF011D928A95E9F71092A102E09107
:103EB0001D03F0E0E45DFC4F89819A81AB81BC81F8
:103EC00080839183A283B383D5CF809110038F3FEA
:103ED00031F08F5F809310038A3008F4B9CF0E94CD
:103EE000051B90939C0280939B02D4CFF0E0E45D8D
:103EF000FC4F84E0A4EAB2E001900D928A95E1F7CC
:103F000064E070E084EA92E00E942B078093A302B1
:103F1000C090A802D090A902E090AA02F090AB0253
:103F200080919D0290919E02A0919F02B091A0026B
:103F3000C816D906EA06FB06D1F0C0929D02D092BF
:103F40009E02E0929F02F092A0020E943010811126
:103F50000EC00E94E006C61AD70AE80AF90AC09203
:103F60001103D0921203E0921303F09214038BE03A
:103F7000ECEAF2E0DE01119601900D928A95E1F7EC
:103F80009981892F86950A81FB80EC801B85109290
:103F9000B6021123A1F010FF0AC090FF17C0909144
:103FA000040491609093040460E00E94321511FFB4
:103FB00006C020E04E2D6F2D802F0E941713809198
:103FC000B702882331F00E94C91254CF0E94F00F2B
:103FD000EECF0E94AE124ECFA8E0B0E0E2EFFFE1DC
:103FE0000C945A358C01DC0114968C91882309F4C9
:103FF000B2C061E0C8010E9432127C01F801D58094
:10400000DD2009F469C197578038910508F064C133
:10401000FFE0FE1508F48FC08FEF93E00E941F367B
:10402000811189C0E9E0AE2EE2E0BE2EE1104DC064
:10403000FE01339686E0DF011D928A95E9F77AE06A
:10404000472E7501BFEFEB1AFB0AC5010E941F3610
:1040500089831A82882309F46EC0813009F07FC0F9
:104060006501E2E0CE0ED11CC7010E941F368A8393
:10407000882309F460C09FEF980F9330A0F5F3E018
:10408000AF0EB11CC6010E941F368B83882309F432
:1040900052C01C82DE0111967D01F701208122238E
:1040A00081F2213009F0BAC091818281913009F00A
:1040B00058C0F2E0EF0EF11C65E070E0893311F4B6
:1040C00060E570E00E94C51053C0A11424E0B20660
:1040D00091F1C5010E941F36811101C0EA943FEFA2
:1040E000A31AB30AA3CF56018430A1F662E0E62EEC
:1040F000F12C56012FEFA21AB20AC6010E941F36F8
:10410000E1E0F0E0EC0FFD1FEE0DFF1D8083882342
:1041100091F08C3741F4E2E0F0E0EC0FFD1FEE0D82
:10412000FF1D1082B7CF3FEFE31AF30A650187E066
:10413000E816F104F1F680914C03877061F0D80124
:1041400015968C91882339F08091200382FF03C05B
:1041500082E00E9493142896E0E10C947635570192
:1041600099CF923039F522E0E20EF11C0E94DD0E6B
:10417000FFEFEF1AFF0A8FE99FE00197F1F700C008
:104180000000AFE9BFE01197F1F700C00000EFE9D0
:10419000FFE03197F1F700C000008FE99FE0019741
:1041A000F1F700C00000AFE9BFE01197F1F700C0E0
:1041B000000073CF933031F432E0E30EF11C0E9423
:1041C000B10ED6CF943021F08FEFE81AF80AD0CF95
:1041D00092E0E90EF11C30E020E0B7016F5F7F4F05
:1041E000D70111964C918053990B8A30910558F064
:1041F0002150310908F4BCCFEFE9FFE03197F1F726
:1042000000C00000F5CF429EF001439EF00D112446
:104210009C012E0F3F1F842F7B01DFCFE22FF0E0A8
:10422000E350FE4F5490822F86958695869590E0B8
:10423000FC01E351FE4F64902770712C022E02C0E6
:10424000759467940A94E2F731E063227724FC01C5
:10425000E352FE4F8490912C022E02C095948794D5
:104260000A94E2F7A1E08A229924FC01E353FE4F6D
:10427000C490D12C02C0D594C7942A95E2F7B1E03E
:10428000CB22DD246114710419F081EE0E94DD0E51
:104290008114910419F086EE0E94DD0EE9E365E0D9
:1042A00070E05E1202C060E570E0852D0E94C510CE
:1042B0008114910419F086EE0E94B10E611471040C
:1042C00019F081EE0E94B10EC114D10409F450CF4F
:1042D00065E070E08CE2F6CE80916901882309F4F4
:1042E0006FC0B0E2EB16B2E5FB0608F052C0E11475
:1042F000E2E5FE0608F0B7C0E114F0E4FF06E0F5E1
:10430000E11420E2F20608F0DAC030EEE316F10420
:1043100050F088EEE816F10408F44DC0E11491E085
:10432000F90608F048C0F8018481882309F443C0E5
:10433000F7E0EF16FEE7FF0609F4ACC0C7018D5C9D
:104340009109439708F4A6C00E947407811133C0F5
:10435000DD2059F080916A0120910C042111B6C032
:10436000882309F4BCC00E943B0A0E94051B90935D
:104370007101809370011FC0E114A0E5FA0608F0F6
:104380008DC0F8018681807F09F099C08F2D992713
:104390008BC0B0E8EB16B2E5FB0608F03BC0E0E6E8
:1043A000EE16E2E5FE0608F05EC0F0E4EF16F2E578
:1043B000FF0608F466C08091740187FD10927401B5
:1043C000F0921D02E0921C02D8018D919C911197F0
:1043D00090931F0280931E02F7013497E533F10595
:1043E00008F086C0E358FD4FE49115968C9120EBC0
:1043F000811102C02E2FE0EBA6E2B2E090E080E057
:104400003D9132136FC0885F9D4FDC015E96EC9347
:10441000F70175C020ECE21622E5F20660F230EEFC
:10442000E31632E5F30608F07ECF20916A01C7015A
:104430008F7199272817190609F0BDCF8D2D0E947D
:104440005D07D80116968C911697807F803509F00C
:10445000B2CF15968C91882361F1809174018150BF
:1044600080937401A8CF20916A01C7018F719927A9
:104470002817190609F09FCFD1109DCF0E946B0716
:104480009ACF20916A01C7018F71992728171906C1
:1044900009F091CF8D2D0E945D078DCFC70155E0AA
:1044A000969587955A95E1F78F70992720916A0123
:1044B000EDCF0E946B07809174018F5FD1CFD8013F
:1044C00016968C91807F09F476CF2DCF30E0082EA0
:1044D00002C0359527950A94E2F720FF44CF0E9449
:1044E000861441CF01968630910509F089CF90CF8F
:1044F000C7019A95F70181159F4108F4FF27D8015C
:1045000015968C91E13DF10538F0E93DF10570F02B
:10451000E730BEE7FB0701F1882361F0FE57E03189
:10452000F10540F4ED57F94C0C94BD35682F8E2FF2
:104530000E94BA0AF8018581811176C38091B8047E
:104540008272F701E052F847E531F10508F0DFC06B
:10455000ED56F94C0C94BD350E944609EBCF80E036
:104560000E94451810921A0280E00E94580A80E1C9
:1045700097E20E944A0ADFCD4091130220911A026D
:1045800020FB47F9269523708091690180FB22F971
:1045900080916B0190916C0164EF71E00E94443551
:1045A0005FEF560F550F550F550F522B60911B02A1
:1045B000637070E08FE090E00E945536BCCD81E0E2
:1045C0000E945F18B8CD8FEFFBCF8AE0F9CF86EF5E
:1045D000F7CF9091150281E089270E944609ABCD63
:1045E00080911A02811101C087E08F5F18160CF0CC
:1045F00081E0883008F087E080931A029CCD80919A
:104600001A02811101C087E08150F0CF81E08093D0
:104610001B0291CD10921B028ECD82E0F8CF9091BB
:10462000690181E089270E94580A85CD80916B013C
:1046300090916C01C2969DCF80916B0190916C011D
:10464000C2978436910508F094CF84E690E091CF2C
:104650008091040480FF1CC0282F2E7F2093040427
:1046600030910504409106045091070460910804BC
:104670007091090480910A0490910B040E94F11238
:1046800080914F03816080934F030E94A50F53CD0B
:1046900081608093040461E086950E9432154BCDC1
:1046A0004AE555E164E675E10E94410744CD44E6E0
:1046B00055E16AE575E1F8CF4AEE54E164EF74E143
:1046C000F3CF44EF54E16AEE74E1EECF40ED54E1F4
:1046D0006DED74E1E9CF4DED54E160ED74E1E4CFAF
:1046E00046EB54E163EC74E1DFCF43EC54E166EB5D
:1046F00074E1DACF4EEF54E168E175E1D5CF48E1DE
:1047000055E16EEF74E1D0CF61E081E0C6CFF7E70D
:10471000EF16FCE7FF0609F44FC028E7E2162CE786
:10472000F20609F44DC0F80187819085009709F4DD
:104730008FC00E94E7077C01F801A58096809294C3
:104740003FE0932280914C038770F1F0CA2CAA209D
:10475000E1F08F2D807F803451F080E28E0D883023
:1047600098F0911004C08F2D807E803269F0809186
:10477000200382FF09C082E00E94931480914C03C1
:104780008770CC24C3948111C12CBF2CB2942FE02C
:10479000B222FBE0FB1508F4D5C0EB2DF0E0E855A4
:1047A000F94C0C94BD3581E00E94AA1443E062E00C
:1047B00081E00E946614BFCC81E00E948614F6CF8F
:1047C00082E0FBCF33E0E3163CE7F30671F160F4DF
:1047D000E1149CE7F906D1F0A1E0EA16ACE7FA068D
:1047E00009F0A1CF0E94DB10BBE5EB16BCE7FB068E
:1047F00069F1ECE5EE16ECE7FE06F1F0FAE5EF16EE
:10480000FCE7FF0609F08FCF81E01DC01092B804CD
:104810000E94D40B2FEF34E38CE0215030408040D5
:10482000E1F700C000000E94CF066FEF7FEF90E03D
:1048300080E00E946136D6CF8091200382FB8827DA
:1048400080F991E089270E9486156DCF80E0FBCF2B
:104850008581E080F180882369F0C7010E94CC1136
:10486000D82E682FC7010E94FB08B7018D2D0E942A
:10487000BE115FCFC7010E94C708D82EF6CF2F2DDB
:104880002F70D22E8F2D807F19F0D29490EFD922E5
:10489000AA20B9F0DD2069F080E28E0D883010F09A
:1048A000E11009C08091B804D82AD092B8040E94BF
:1048B000970B8E2D45C080913904D82AD0923904A7
:1048C000F6CF8E2D0E94B10EDD20E1F180E28E0D3B
:1048D000883010F0E11004C08D2D0E94B60806C08B
:1048E000D09480913904D822D09239040E94970B39
:1048F00029C03F2D3F70D32E8F2D807F803219F03D
:10490000D29480EFD822EE2059F081E0E81609F425
:1049100071C0AA2009F47DC0992009F440C0C9CF14
:104920008091200382FD37C0AA2079F1DD2039F083
:104930008091B804D82AD092B8040E94970B80E0E6
:104940000E94DD0EAB2DA850BB0B149710F40E94F3
:104950005510CC20A9F080914C0380FD11C0F801C6
:1049600015828695869586950E94AA14C8010E9494
:10497000EC1F80914C038695869586950E9486143F
:1049800060E0C8010E943212E6CB80E00E94B10EC6
:10499000DD20C1F2A1CFAA2099F0911004C08D2D85
:1049A0000E94A70ECFCF91E09912CCCF80919402B4
:1049B0009D2D9823D91631F2D82AD0929402C2CFD5
:1049C0009110C0CF8D2D0E94A00E909194028D2D3C
:1049D000892329F08D2D80958923809394028091DD
:1049E00070029D2D982309F4ADCFD094D822D09297
:1049F0007002A8CFAA2029F0A5E0A91508F4A2CF3B
:104A0000CECFB4E0B91508F49DCF8D2D0E94A00E35
:104A100099CF9920D1F3E9E3EE1201C1FFEF27EE20
:104A200033E0F15020403040E1F700C000008E2D0F
:104A30000E94B10E87CF6A2D8E2D0E94BA0A82CFB6
:104A40008F2D837091F5A1107DCF4E2D4295469507
:104A50004770440F440F8E2D8F70042E01C0880FB5
:104A60000A94EAF72E2D2071E4FE07C02FE030E013
:104A700001C0220F4A95EAF720953F2D36953695CD
:104A80003370323069F050F440919502313029F0A2
:104A9000822B84230E94320955CF842B822BFACF9C
:104AA000282B809195028227F5CF8695AA2011F0B8
:104AB0008F2D8170882309F445CF4E2D4295469560
:104AC0004770440F440F8E2D8F70042E01C0880F45
:104AD0000A94EAF72E2D2071E4FE07C02FE030E0A3
:104AE00001C0220F4A95EAF720953F2D369536955D
:104AF0003370323069F050F440910C04313029F0B9
:104B0000822B84230E9461141DCF842B822BFACF29
:104B1000282B80910C048227F5CF9F2D9F70F92EB2
:104B2000AA2029F0892F0E94AA148E2D39CF8E2D0C
:104B30000E94A00E8F2D0E94861404CFA2EFEA16C9
:104B4000B1F1AE1570F0B0EFEB16D1F0E1EFEE166B
:104B500091F0AA2009F45EC09110ABCE8F2D8F7119
:104B60002AC0F3EFEF1651F124EFE212F2CF809159
:104B7000200382FD2FC08F2D8F71AA20E1F21BC070
:104B8000AA2081F034E0391508F4DCCE2F2D2F71E6
:104B900081E090E001C0880F2A95EAF790910C041B
:104BA0008927B0CF85E0891508F4CCCEEFCF8F2DC3
:104BB0008F71A110C0CF0E94AA14C4CE80E0AA2099
:104BC00009F4A0CF9F2D9F7181E001C0880F9A95B5
:104BD000EAF798CFAA2099F09F2D9F71F92E892F7F
:104BE0000E94AA148091200382FF07C0A8E0FA9EC9
:104BF000C0011124836080934C038F2DDCCF81E0B2
:104C00000E949314B1E0B91508F09CCE82E00E9496
:104C1000931498CE9110FFCE8F2D8F718CCF8FE192
:104C20009EE40197F1F701CFF7E7EF16FCE7FF06E7
:104C300009F4B9CD28E7E2162CE7F20609F0C2CD57
:104C400082E0B2CDCF93DF9380918902807F09F01B
:104C50004DC080918802882309F448C0E09118056E
:104C60005091CF04C0918402D0918302609185025B
:104C70007091860249E05E17C9F18E2F90E0E49FA3
:104C8000F0011124E053FB4F2481222391F1489F2E
:104C9000F001499FF00D1124DF01A053BB4F119685
:104CA0002C9111972C1325C02C912D1322C01596F1
:104CB0002C91159721111DC012962D913C91261B08
:104CC000370B283C3105A8F4809189028F708061F0
:104CD00080938902EA52FB4F80818F7080618083CC
:104CE00083E892E00E94EC1F0E94BD08DF91CF9103
:104CF0000895FC013196E770BECFA8E1B0E0E3E88B
:104D0000F6E20C945E358C0186E0F801DE015396E4
:104D100001900D928A95E1F7F8018481E58093E88E
:104D2000A92E92E0B92E90918702911128C0882374
:104D300019F1EE20F1F0C8010E940812F82E882324
:104D4000C1F089E0F801D50101900D928A95E1F753
:104D500080918702813031F48091830290918402A6
:104D60000E94FB110E9422268F2D6896ECE00C9485
:104D70007A35C8010E94EC1FFF24F394F5CFD08050
:104D8000C18082809380F0908802209185023091CA
:104D90008602A401421B530BFF2009F40DC1483CBD
:104DA000510508F0B6C08823F9F2909184028091F1
:104DB0008902282F207F09F05FC0C9121DC0909181
:104DC0008302D91219C040918A0250918B02278127
:104DD00030854217530781F4E11048C08F7080611D
:104DE0008093890283E892E00E94EC1F80918902FF
:104DF000F8018683F12CB8CFE11038C06C2D8D2DD1
:104E00000E9452056C2D8D2D0E945205E82E8111B5
:104E1000F1CFDB8ACC8A8B899C890E94FB11292FD8
:104E200022952F70243058F49F70223088F09923F7
:104E300099F0F8019681907F79F4FE2C95CF2A5F46
:104E40002F70223068F0C8010E94EC1FEF2CF5CFC4
:104E5000992311F0882389F3805E883070F3F3CFB3
:104E6000803F58F3815F833070F7E7CF80918902EC
:104E7000816080938902BECFC9121CC090918302C9
:104E8000D91218C040918A0250918B022781308537
:104E90004217530779F4E1100DC08683C8010E94C0
:104EA000EC1F89E0F801A3E8B2E001900D928A9529
:104EB000E1F75ACFC8010E940812882309F459CF9C
:104EC000EE2009F456CF809189028032B8F020910B
:104ED0008302309184023B872A879D868C8690913D
:104EE00087029E871F86888B80918A0290918B0211
:104EF0009A8B898BCE010A960E94EC1F89E0F801FB
:104F0000A3E8B2E001900D928A95E1F70E94222673
:104F100033CF90918902292F207F51F483E892E0CA
:104F20000E94EC1F89E0F50111928A95E9F762CFA2
:104F3000882309F419CF809184028C1119C08091C3
:104F40008302D81215C040918A0250918B022781AA
:104F500030854217530761F4E1100AC09683C801F7
:104F60000E94EC1F89E0F50111928A95E9F7FCCEC9
:104F7000C8010E940812882309F4FBCEEE2009F430
:104F8000F8CE80918902803208F4B8CF2091830254
:104F9000309184023A8329839C828B82909187028C
:104FA0009D831E828F8380918A0290918B029987C4
:104FB0008887CE010196A0CF483C510598F68823FA
:104FC00009F4DACEFE2CEE2009F4D3CE80918402CF
:104FD0008C1120C080918302D8121CC020918A02BB
:104FE00030918B02878190852817390799F4909129
:104FF000890290FD56CF907F09F453CF80918902AA
:105000008683903F09F44ACF982F907F905F8F70EE
:10501000892B43CFC8010E94081281116FCF809164
:105020008902816080938902C8010E94EC1F9CCE96
:10503000A2E1B0E0EEE1F8E20C9466350A871B8746
:105040002C873D874E875F87688B798B8A8BCE0153
:105050000A960E947D2681110CC089E0FE013A96D5
:10506000DE01119601900D928A95E1F78E858111EE
:105070000BC019E0809118059091CF04891333C0BB
:105080006296E4E00C9482352091CF0430E0C901AF
:10509000019687709927409118054817190699F0CD
:1050A00099E0929FD001939FB00D1124A053BB4F64
:1050B000FE01319601900D929A95E1F78093CF040D
:1050C0000E94BD08D6CF1092B8040E94D40B109253
:1050D000CF041092180589E0E3E8F2E0DF011D92A9
:1050E0008A95E9F7C6CF819FC001112480539B4F59
:1050F0000E947D26882321F28091180590E0019678
:105100008770992780931805B5CFB0E0A0E0EBE851
:10511000F8E20C94613580913B04882369F0C091DA
:105120003A04C12C8DE0D82E80913B04C81748F07A
:1051300010923B0410923A04CDB7DEB7E9E00C942C
:105140007D35BB24B394BC0EB0923A04EC2EF12C06
:10515000CD9DE0011124C45CDB4F8C81882361F17B
:105160008F819885892B21F489859A85019659F438
:10517000088119812A813B814C815D816E817F810B
:1051800088850E941828DE9CF001DF9CF00D112418
:10519000E45CFB4F148210923904C1100DC0CE01A3
:1051A0000E940812811108C08FE19EE40197F1F777
:1051B00000C00000CC24C394CB2DB6CF1092AF0416
:1051C0001092AE04109201028091AD048093AC0461
:1051D0000E941A070E9485280895B0E0A0E0E3EF3E
:1051E000F8E20C945835C091AC04E7E0FE2E01E0E3
:1051F00010E0FDE02F2EEE24E3948091AD048C139B
:1052000009C00E9485280E941A07CDB7DEB7E2E1E7
:105210000C947435D0E0FE01EE0FFF1FEC55FB4FF0
:1052200080819181F89EF001F99EF00D1124E458DF
:10523000FE4F248121115AC030903B04ACE3B4E00E
:1052400030E020E0412C5F01231508F04DC01B9693
:105250006D907C901C97F501808091804FEF5FEFFF
:10526000512CC52CD12CF601EE0FFF1FE80DF91DB6
:10527000659174916616770609F4A601672B11F003
:105280005394EFCF4F3F5407B9F1B80102C0660FF6
:10529000771F4A95E2F7462AA801052C02C0440F61
:1052A000551F0A94E2F7415051094416150609F5B5
:1052B000229EF001239EF00D1124E45CFB4FF89E2A
:1052C000D001F99EB00D1124A458BE4F12962D9115
:1052D0003C9113973087278374E074831082118286
:1052E000928781871596EC920E94EC062196C370F6
:1052F00084CF14961C9214972F5F3F4F1D96A4CF16
:10530000AEE1B0E0E6E8F9E20C9458354B8B5C8BEB
:105310006D8B7E8B8F8B988F911110923904188A28
:10532000198A1A8A86E0FE017396DE011A960190A8
:105330000D928A95E1F78E85882381F061E0CE0198
:105340000A960E9432129C019F8520354CE7340753
:1053500089F4992311F181E0809301020A851B856C
:105360002C853D854E855F85688979898A890E946B
:105370001828CBC021355CE7350729F4992369F05B
:105380000E94DE28EBCF22353C4739F4992329F0DF
:10539000809101028111F4CFDECF6A857B8580E0A8
:1053A0000E94BE114C01FCE7EF2EF1E0FF2E512CC4
:1053B000D12CC12CAA24A394B12CB7E04B2EFE0112
:1053C0003196FA8FE98F33243394F701408151816C
:1053D00066246A94762C60E0262F30E0F901EE0F07
:1053E000FF1FE40FF51F859194918816990609F423
:1053F0003901892B11F06F5FEFCF10E0FFEF6F16CF
:105400007F0609F443C0F701448110910102812F06
:10541000411180E0182F1170F701258086819F854A
:10542000992309F4F2C0112309F4EFC0211014C02C
:105430009501062C01C0220F0A94EAF7822B86837D
:105440008091370490913804C29730F422E330E021
:105450003093380420933704C50102C0880F991F88
:105460006A95E2F70197F70126812817190671F46A
:105470008091AE049091AF04009709F44AC00E9455
:10548000F61AC39708F445C0F7013482512AFFEF9A
:10549000CF1ADF0A27E0E20EF11C33E1C316D10474
:1054A00009F093CF8F85882309F40EC1552009F4A4
:1054B0000BC10E94051B9093AF048093AE048091B2
:1054C0003B04883010F591E0980F90933B0499E0ED
:1054D000FE013A96DE01119601900D929A95E1F740
:1054E0004DE0849FC0011124845C9B4F29E0FE01A4
:1054F0003196DC0101900D922A95E1F72FEF3FEFF5
:10550000FC0132872187948683866E96E2E10C94B3
:1055100074358091AC046091AD04982FF0E0E0E028
:10552000861314C09093AC04EE15FF0509F4AECFBA
:1055300090E0FC01EE0FFF1FEC55FB4FD182C082C3
:105540000196837099278093AD04A0CF682E712CAB
:10555000F301EE0FFF1FEC55FB4F20813181429E7E
:10556000D001439EB00D1124A458BE4F2D913C9103
:1055700011973E8F2D8F00E070E0212CE22DF0E09E
:10558000EE0FFF1F2D8D3E8DE20FF31F25913491FD
:1055900021153105E1F0F7010190F081E02DFC8F3C
:1055A000EB8F70E005C02417350709F4012F7F5FEA
:1055B000E72FF0E0EE0FFF1F4B8D5C8DE40FF51F22
:1055C000459154914115510571F72394D7CF00238C
:1055D000C9F0F701721508F0FD013482EE16FF06DE
:1055E00021F49093AC04102F51CF891305C0AE174E
:1055F000BF0711F49F5F937093012F5F3F4F822F7E
:1056000083708ECFF0E0E0E0F7CF90E021101FC074
:10561000950102C0220F331F6A95E2F7215031092C
:105620008217930731F4442309F44CC0C6010E9449
:10563000EC06C501062C01C0880F0A94EAF7982FE2
:105640009095F701868189238683122D1FCFAC01A7
:10565000062C02C0559547950A94E2F7BA0161708D
:1056600077279C012150310982239323892B31F51F
:10567000672B21F1F70182819381892BE1F0E98D7C
:10568000FA8D242D11922A95E9F70E94051B282FE7
:105690008B839C8334E03D83F70182819381782F53
:1056A0008887998709811A813C8144E05E816F81F6
:1056B000892F0E941828F7011582BBCFF42FF170B3
:1056C0002F2EB7CF212EB5CF9091AC048091AD0491
:1056D000981729F00E94ED28511017CF3FCE0E9455
:1056E00085281092AF041092AE040E941A07F4CFDE
:1056F000A6E0B0E0EEE7FBE20C9466350E94051BE5
:105700008C0180919602909197028017910781F009
:1057100019821A820E94051B682F49815A81792FAC
:1057200080E090E00E9480291093970200939602F7
:105730002696E4E00C9482351F921FB61F92112426
:105740008F939F93AF93BF938091B204811113C045
:105750008091B3049091B404A091B504B091B604C3
:105760004196A11DB11D8093B3049093B404A093FE
:10577000B504B093B604BF91AF919F918F911F90E4
:105780001FBE1F901895CDB7DEB7A6970FB6F89439
:10579000DEBF0FBECDBF85B7806885BF85B7806887
:1057A00085BF84B7877F84BF0FB6F894A895809192
:1057B0006000886180936000109260000FBE80E8F6
:1057C00090E00FB6F89480936100909361000FBE53
:1057D00082EA97E090935D0280935C020E947105DB
:1057E0000E9412068091E20084608093E200789427
:1057F0008091C5048823A1F01091E9001F70909159
:10580000EC00892F817090FD80E8182B1092E90040
:105810008091E80083FD0E94E00B1F701093E90067
:1058200082E084BD93E095BD9AEF97BD80936E00B2
:10583000109211031092120310921303109214038A
:105840000E946B12811102C00E947F110E94801081
:105850008093000180910001882309F468C01092B0
:1058600003028EE1809304020E94301081110E9495
:10587000E233809100018091000194E0811190E079
:1058800090931E0384E0891B80931D0384EF0E9484
:10589000D00785EF0E94D00786EF0E94D00787EFE0
:1058A0000E94D00704E312E0D8018D918D018F3F53
:1058B00011F00E94D007B2E00A331B07A9F788E075
:1058C000ECE2F3E0DF01882E1D928A94E9F7E5E12E
:1058D000F3E0DF011D928A95E9F70E949D15811181
:1058E00002C00E94B01782E090E00E941F368093B1
:1058F000220384E090E00E942D3690932003809351
:105900001F030E94331EEFE3FCE93197F1F700C05B
:1059100000000E94331E80912C0380FF0CC06FEFAB
:105920007FEF90E080E00E9461360E94CF068EE11A
:105930008093030297CF83E090E00E941F360E947D
:10594000320980910C040E94FD130E9430108823BC
:1059500009F4A8C180E080932D0480E880931905A4
:105960000E949C326BE070E089EC92E00E9484120D
:105970008823E9F180912D0465E070E081FD94C1F8
:1059800084EC92E00E948412882389F16DE070E03B
:1059900082EB92E00E948412882349F10E94E00683
:1059A000605A75418F4F9F4F60932F04709330045E
:1059B0008093310490933204ECE1F5E080E092E0D2
:1059C000DF019C011D9221503040E1F7F093230745
:1059D000E09322078FEF9FEF90931B0580931A05AA
:1059E00081E0809336048093330410922E048091DA
:1059F0002103811176C00E949D15811104C00E946F
:105A0000B0170E94691588E090E00E9427364B018C
:105A10005C0184E290E00E941F36282F30E040E0D5
:105A200050E060E070E080E090E000E20E94CA3563
:105A3000282939294A295B29209304043093050435
:105A4000409306045093070460930804709309047C
:105A500080930A0490930B0480914F03836080939A
:105A60004F032E7F89F50E94691588E090E00E941F
:105A700027366B017C0184E290E00E941F36282FBC
:105A800030E040E050E060E070E080E090E00E94B4
:105A9000CA35B22FA32FF42FE52F5B0197018601A2
:105AA000BC29A12BFE29E32BB0930404A093050489
:105AB000F0930604E093070460930804B09209048D
:105AC00080930A0490930B040E944707809104047A
:105AD00080FF04C060E086950E94321581E08093CB
