:100000000C9439050C9456050C9456050C946C33DD
:100010000C9456050C9456050C9456050C945605F4
:100020000C9456050C9456050C9483190C943F19A6
:100030000C94D72A0C9456050C9456050C9456052E
:100040000C9456050C9456050C9456050C945605C4
:100050000C9456050C945C1A0C9456050C94560599
:100060000C9456050C9456050C9456050C945605A4
:100070000C9456050C9456050C9456050C94560594
:100080000C9456050C9456050C9456050C94560584
:100090000C9456050C9456050C9456050C94560574
:1000A0000C9456050C9456050C945605110010003E
:1000B00000001C00180000000E000F0000000D00E2
:1000C0000E00000010003600000018000C000000B8
:1000D0000D00090000000D000F0000001A000800CC
:1000E000000009001C0000000900110000000D00C4
:1000F0000800000009000B0000000D0004000000D3
:100100000900180000000D0007000000090013009E
:1001100000000D00050000000D001A0000000D0099
:10012000160000000D001400000005010902A101E5
:1001300085020901A10005091901290815002501F9
:100140009508750181020501093009311581257F66
:1001500095027508810609381581257F9501750876
:100160008106050C0A38021581257F9501750881E5
:1001700006C0C00660FF0961A1010962150026FFE3
:10018000009520750881020963150026FF0095205F
:1001900075089102C005010906A101050719E029AA
:1001A000E715002501950875018102950175088103
:1001B000010507190029FF150026FF00950675089F
:1001C000810005081901290515002501950575010E
:1001D0009102950175039101C0000000000000002C
:1001E000000000000000000000000000000000000F
:1001F000000000000000000000000000007E0F0072
:10020000D4FFFFFFC70000007800000000000000DE
:10021000002A2B2800000000000000000000000061
:100220000000000029000000002C1E3420212224A0
:10023000342627252E362D3738271E1F202122232E
:100240002425263333362E37381F040506070809C0
:100250000A0B0C0D0E0F1011121314151617181986
:100260001A1B1C1D2F3130232D35040506070809E4
:100270000A0B0C0D0E0F1011121314151617181966
:100280001A1B1C1D2F3130354C6162636465666733
:1002900068696A6B6C6D6E6F707172737475767766
:1002A00078797A31323334353637383930524542FD
:1002B000545F2D3D5B5D5C233B27602C2E2F00DAC5
:1002C0000281FFD9F1DB20A4A62EAF00A0C0D3008D
:1002D00000A1C8D30000AED580A81F408D14200017
:1002E00000010101010101010101020202020202F9
:1002F00002020203030303030303030404040404CC
:100300000404050505050506060606060707070792
:100310000708080808090909090A0A0A0B0B0B0C47
:100320000C0C0D0D0D0E0E0E0F0F0F1010111111E4
:100330001212131314141515161617171818191965
:100340001A1A1B1B1C1D1D1E1E1F202021222223CA
:100350002424252626272829292A2B2C2D2D2E2F0B
:1003600030313232333435363738393A3B3C3D3E22
:100370003F404142434445464748494A4C4D4E4F11
:1003800050515354555658595A5B5D5E5F616264D3
:10039000656668696B6C6D6F7072737577787A7B60
:1003A0007D7E8082838587888A8C8E8F91939596B7
:1003B000989A9C9EA0A2A3A5A7A9ABADAFB1B3B5D7
:1003C000B7BABCBEC0C2C4C6C9CBCDCFD1D4D6D8B3
:1003D000DBDDDFE2E4E7E9EBEEF0F3F5F8FAFDFF51
:1003E00000AF00AE202000BABB004B657920B10001
:1003F00020C0C100BEBF00484F005654003030201E
:100400000020202020B1BCBD0042616C6CB100B462
:10041000B500B2B300C2C3004CB6B772B100202021
:1004200000290014001A000800150017002B000412
:10043000001600070009000A00E1001D001B00066D
:1004400000190005000000E200E30091212C41901A
:10045000434C00130012000C0018001C002402334F
:10046000000F000E000D000B00870038003700362B
:10047000001000110000004600E600913128422AD9
:10048000000F7E3A003B003C003D003E000D7E0127
:10049000000100520028004C000E7E010050005167
:1004A000004F002A000000010001000100010001CE
:1004B00000440043004200410040003F004500D39B
:1004C00000D2005200D1004B00010001004F00514A
:1004D0000050004E00000001000100010001000179
:1004E000000100340224002500260025020100330B
:1004F00002210022002300300001002D021E001FF7
:100500000020003002000027003700010001000138
:1005100000010021022F0023021E0226021F0234C6
:100520000020022E022D003200890238022F022EF6
:100530000087023202000001000100010001004CAE
:100540000020780A7E0B7E0C7E01000100217823BA
:1005500078257827780100087E2278247826782864
:10056000780100097E0000007C007E01000100018E
:100570000030782F782E782D782C782B7801000198
:10058000003478337832783178017E0100047E02BD
:100590007E037E057E0000007C007E0100010001DC
:1005A0000001000100010001000100010001000143
:1005B0000001000100010001000100010001000133
:1005C0000001000100000001000100010001000124
:1005D0000001000100010001000100010001000113
:1005E0000001000100010001000100010001000103
:1005F00000010001000000010001000100010001F4
:100600000009025B00030100A0FA090400000103D5
:1006100001010009211101000122440007058103A5
:100620000800010904010002030000000921110172
:1006300000012222000705820320000107050303B1
:10064000200001090402000103000000092111013A
:100650000001224900070584032000011201000265
:1006600000000008575900040001010200011403B2
:100670004B0065007900620061006C006C00340082
:1006800034000000100359006F0077006B00650014
:10069000650073000000040309040000000000006E
:1006A00000002F000000000700070000123F123F6B
:1006B0001200242A7F2A120036091E241B00182645
:1006C00029122800000007000000001E2140000041
:1006D0000040211E000014083E08140008083E08CF
:1006E000080000003070000008080808080000003A
:1006F0003030000020100C0201001E2925231E00AE
:1007000000223F2000002231292926001221252520
:100710001A001814123F10001725252518001E2551
:10072000252518000131090503001A2525251A0081
:10073000062929291E00000033330000000033730E
:10074000000008141422220014141414140022228D
:10075000141408000201290502003E59555D3E00AF
:100760003816111638003F2525251A001E21212193
:1007700012003F2121211E003F25252521003F0990
:10078000090901001E2121291A003F0404043F0029
:1007900000213F210000102020201F003F040C12E8
:1007A00021003F20202020003F0204023F003F02A2
:1007B0000C103F001E2121211E003F0909090600DF
:1007C0001E2129112E003F0909192600122525296D
:1007D000120001013F0101001F2020201F00071807
:1007E000201807000F300C300F0021120C122100CE
:1007F000030438040300312925232100007F4141EF
:10080000000001020C1020000041417F00000402A2
:100810000102040040404040400000010304000089
:10082000102A2A2A3C003F2422221C001C222222B9
:1008300024001C2222243F001C2A2A2A0C00000427
:100840003E0505000C5252543E003F080404380097
:1008500000003D0000002040403D00003F0808141B
:10086000220000013F2000003E023C023C003E040A
:1008700002023C001C2222221C007E1422221C00A8
:100880001C2222147E003E0402020400242A2A2A8A
:10089000120000021F2200001E2020103E00061839
:1008A000201806000E300C300E002214081422000E
:1008B0000E5050483E0022322A2622000808774176
:1008C000410000007F000000414177080800180443
:1008D00008100C00000000000000000000000000F4
:1008E000000000000000C0F0F88C86C6E7FFFFFFA4
:1008F000FFFFFFFEFCFCF8E080000000F0F0F000DD
:1009000000C0E0F070700000000000000000000077
:10091000000000000000000000000000F8F8F800EF
:1009200000000000000000000000000000000000C7
:100930000000F8F8F80000F8F8F800000000008067
:10094000E07078686C64C7C7C7C7C7C7E73F1F0FA9
:100950003FFFFFFFFFFFFF3F0F000000FFFFFF1EF5
:100960003FFFF3E1800000F8FCFE3636363EBCB8AF
:10097000000E3EFEF080F0FE3E0E0000FFFFFF0680
:100980000606FEFEFC7000E6F6F63636FEFEFC00BD
:100990000000FFFFFF0000FFFFFF000000003C7FA2
:1009A0006360E0C0C0C0C0C0C0C0C0FFFFC0603056
:1009B000180F0303030100000000000003030300FD
:1009C0000000030303030001030303030303030104
:1009D000007070393F1F070100000000010303038E
:1009E00003030303010000010303030303030100E6
:1009F00000000303030000030303001010100000B5
:100A00000000550000003E635D5D637F417B7741E0
:100A10003E00001C22221C003E0A003E0A00322A30
:100A20003C0026281E001C2A2C0000003F0936002E
:100A300000001E212100000000003F0837001E2199
:100A400021001E2121003F090600213F210022250F
:100A500019001E2121003F0936003F211E00213FC1
:100A600021000F300F003E093E003F063F003F20AF
:100A7000200011241FBECFEFDAE0DEBFCDBF12E0B1
:100A8000A0E0B1E0E6E1FCE602C005900D92AA36D6
:100A9000B107D9F727E0AAE6B2E001C01D92A23360
:100AA000B207E1F70E94FE2A0C94BB350C940000BB
:100AB000482F209124059091DB0459E0291302C0AE
:100AC00080E0089530E0529FF001539FF00D112413
:100AD000E452FB4F8181681306C08081481303C034
:100AE00085818111EECF2F5F3F4F2770E7CFE8ED73
:100AF000F0E080818E7F80831092E2001092DA0015
:100B00001092E100A0EEB0E08C9181608C93808126
:100B10008F77808319BCA7EDB0E08C918E7F8C938A
:100B200080818F7E80831092C30408952091E40019
:100B30003091E50095E6A9012091EC00822F8170AB
:100B400020FF06C08091E80080FF06C080E0089585
:100B50002091E80022FD1AC08091D104882389F0F9
:100B6000853089F08091EB0085FD0FC02091E40075
:100B70003091E50042175307F9F29150E1F684E015
:100B8000089582E0089583E0089581E008958091BA
:100B9000D30487FF13C08091E80082FF06C08091D4
:100BA000E8008B778093E80004C08091D104811124
:100BB000F2CF08958091D1048823D9F38091E80081
:100BC00080FFF8CF8091E8008E77ECCF982F90933C
:100BD000E900242F762F50E0891731F07091EC0056
:100BE0002091ED005091F00021FD07C09F5F9730EC
:100BF00071F78093E90081E008953091EB003E7F2A
:100C00003093EB003091ED003D7F3093ED0030915B
:100C1000EB0031603093EB007093EC002093ED001B
:100C20005093F0002091EE0027FDE0CF80E0089582
:100C3000B0E0A0E0EEE1F6E00C94A634C8EDD0E020
:100C400088818F7E8883E7EDF0E0808181608083FA
:100C500084E082BF81E08093C30488818E7F888393
:100C600002EE10E0F80110821092DA0081EEC82E38
:100C7000D12CF601108288818F77888388818068E3
:100C8000888388818F7D888319BC1092D10410924B
:100C9000D2041092D0041092CF0490EEE92EF12CE1
:100CA000F70180818B7F808388818160888342E027
:100CB00060E080E00E94E605F60180818E7F8083FF
:100CC000F801808181608083808188608083F70162
:100CD00080818E7F8083888180618883CDB7DEB7F5
:100CE000E8E00C94C234FC018091D9049091DA04BC
:100CF00086179707A0F06115710529F49091E80017
:100D00009E779093E80090E06115710551F4911180
:100D100008C08091E80082FF34C080E00895BC01E3
:100D2000F2CF8091D1048823C1F18530C1F1809147
:100D3000E80083FD30C08091E80082FDEACF809119
:100D4000E80080FFE1CF8091F3002091F200382F7E
:100D50006115710519F02830310558F091E02830FF
:100D6000310509F090E02091E8002E772093E8000B
:100D7000CBCF81918093F100615071092F5F3F4F7C
:100D8000E7CF8091D104882341F0853041F08091F4
:100D9000E80083FFBECF81E0089582E0089583E0FC
:100DA000089508958091C604089587E797E7909382
:100DB00001088093000888E19AE00FB6F894A8959E
:100DC000809360000FBE90936000FFCF2FB7F89420
:100DD0006091BF047091C0048091C1049091C204DD
:100DE0002FBF0895DC016091B8048091B904962F5B
:100DF000891301C00895292F30E0F901EE0FFF1F7C
:100E0000E055FB4F408151814A175B07A1F487E011
:100E10008A9FA0018B9F500D112444585E4F81E0A2
:100E2000FA0184839613E6CF2F5F3F4F2370332759
:100E30002093B80408952F5F3F4F922F9370D8CF1F
:100E40001092440410924304ECE7F1E08581811193
:100E500002C014821682379682E0EF30F807B1F7AD
:100E60000895FC01680F791F8FEF91E3219182278C
:100E700028E030E087FF09C0880F89272150310919
:100E8000C9F7E617F70791F70895880FF7CFFA012A
:100E9000811101C0FB010995089580910F04982FDD
:100EA0009E7F71F480910F048170826080930F04A3
:100EB00080911204873918F086E98093120408950E
:100EC000843080F7F5CF90917401882341F09F5FC3
:100ED00090937401109271011092700108959150D5
:100EE000F7CFE9E6F1E0828591E0892782871086D5
:100EF0001782089580917201811108C08091740158
:100F0000811104C0809173018170089581E090E0A7
:100F1000FBCFCF93DF93E6E1F2E083819481A5815B
:100F2000B681E90188839983AA83BB8314821382E3
:100F300016821582DF91CF91089580E0089563E0D5
:100F400070E085EC92E00E9431079091C402891311
:100F500018C0E091C502EC30A4F488E0E802F0018A
:100F60001124EF5FFE4F0680F781E02D309749F0A6
:100F700028EE32E04091C70268EC72E08091C60230
:100F800009950895EFEAF2E0878980933101808D19
:100F9000809344010895F894E82FE295EF70F0E013
:100FA00031A1282F2F7081E090E001C0880F2A9591
:100FB000EAF7982F9095932391A392A1892B82A36E
:100FC00078940895811522E5920780F5811540E512
:100FD000940708F0A3C0883E9105A0F4803E9105D7
:100FE00058F4853A910548F48430910528F481300D
:100FF000910511F090E080E008958D3C9105D0F3CB
:1010000090650895811550E4950708F062C0811538
:1010100060E2960708F09BC0811571E0970750F3D6
:1010200020E0392FB901682BCB010895803622E5E5
:101030009207F8F4803442E5940708F054C08032F7
:1010400052E5950708F048C0282F2695269570E2AE
:10105000279F90011124837041E050E0BA0102C043
:10106000660F771F8A95E2F7CB01822B932B9D6841
:101070000895803C62E5960700F5803A72E597078F
:1010800008F047C0803822E5920708F0B3CF282F38
:1010900026952695277070E2279F90011124837072
:1010A00041E050E0BA0102C0660F771F8A95E2F76F
:1010B000CB01822B932B9A680895803E42E59407DA
:1010C00008F098CF982F882788279F71806F906AA3
:1010D00008959F70906A08958F7190E0982F8827E7
:1010E000816F906A0895282F26952695277070E2C3
:1010F000279F90011124837041E050E0BA0102C0A3
:10110000660F771F8A95E2F7CB01822B932B9C68A1
:1011100008958F7190E0982F882708959C0195E09D
:10112000369527959A95E1F72F7030E0322F2227D8
:10113000482F4F7150E084FF05C084E0440F551FD5
:101140008A95E1F7C901842B952B906908959F71C9
:1011500090620895809124059091DB04981301C05A
:1011600008958F5F8770FACF292F983078F58630F1
:1011700068F590E036E0239F800D911D1124682FC3
:10118000677023E0969587952A95E1F7FC01EE0FAD
:10119000FF1FE80FF91FE258FD4F50E040E080E0EC
:1011A000219130E0062E02C0369527950A94E2F789
:1011B00021703327042E01C0220F0A94EAF7822BF4
:1011C0004F5F5F4F4330510559F7089580E0089510
:1011D000292F983098F5863088F590E036E0239FE7
:1011E000800D911D1124282F277041E001C0440F6C
:1011F0002A95EAF723E0969587952A95E1F7FC0171
:10120000EE0FFF1FE80FF91FE258FD4F30E020E01E
:1012100070E05191DF011197CB01022E02C096952B
:1012200087950A94E2F78170819585278423852725
:101230008C932F5F3F4F2330310559F708958093EA
:10124000A1020895982F92959F7011F0892F94E034
:10125000282F2695269511F09E5F822F869509F0FE
:101260009F5F892F0895CF93C82F809123028C17F9
:1012700051F00E94E6066093240270932502809349
:10128000260290932702C0932302CF910895B0E0E5
:10129000A0E0EDE4F9E00C94A6348C01EB01E091C0
:1012A0002802E11101C0E7E0E150FF0B81E090E08E
:1012B0006C010E2E02C0CC0CDD1C0A94E2F7D801A2
:1012C000ED90FC90C701B6010E94ED349B01CB016B
:1012D0000E2E02C0880F991F0A94E2F7E81AF90A45
:1012E000D8011196FC92EE921296ED90FC90C701F7
:1012F000B6010E94ED34CB0102C0880F991FEA9518
:10130000E2F7E81AF90AF801F382E2826138FFEFA6
:101310007F07F4F060387105ECF46D8321388FEFAE
:101320003807D4F020383105CCF4822F81958C8396
:10133000442319F061956D832C83809129028823C1
:1013400079F0813079F0CDB7DEB7E8E00C94C234A3
:1013500061E8E3CF6FE7E1CF21E8E7CF2FE7E5CF03
:101360001D82F1CF1C82EFCFFC01DB012281338192
:1013700091E821388FEF38072CF0922F2038310573
:101380000CF09FE712969C931297208131812138AF
:101390008FEF3807A4F0203831059CF413962C9376
:1013A0001397442339F0919512969C9312972195A7
:1013B00013962C931182108213821282089521E8D1
:1013C000EDCF2FE7EBCF8F708A3010F4805D08955A
:1013D000895A0895382F20E287FF02C031952DE207
:1013E0004AE0832F642F0E94DF34905D9093770250
:1013F00081110BC02093760220E22093750220E237
:101400002093740284E792E00895642F0E94DF34F1
:10141000905D90937602832F64E60E94DF348823E8
:1014200061F3805D80937502EBCF9C01860F971F5F
:1014300037FD07C077FD04C097FF02C08FEF9FE71D
:10144000089577FFFDCF97FDFBCF80E090E80895EA
:10145000E2E7F1E083E0DF011D928A95E9F7EEE62D
:10146000F1E084E0DF011D928A95E9F7089520916B
:101470006B0130916C012817390731F090936C01A2
:1014800080936B010E94280A089590916901981732
:1014900021F0809369010E94280A0895CF939091CA
:1014A000530380914C03981323C0809154038823E5
:1014B00021F090914D0389131BC08091550388231F
:1014C00021F090914E03891313C080915703882314
:1014D00021F09091500389130BC0909156039923EA
:1014E00029F081E020914F03291303C080E001C05F
:1014F00081E0C82FC17080FF0FC0E091BC04F09163
:10150000BD04309749F082E0809352030480F58156
:10151000E02D82E593E009959091530386E0E2E5A2
:10152000F3E0DF01282F1D922A95E9F790935303EA
:10153000ABE4B3E001900D928A95E1F781E0C1112F
:1015400003C0911101C080E08170CF9108952FE216
:10155000280F283078F481E090E001C0880F2A95A8
:10156000EAF720915303662331F0822B80935303D3
:101570000E944E0A089580958223F8CFCF93DF937F
:10158000282F81E02A3019F02D3031F480E00E94BC
:10159000520BDF91CF91089580912E0790912F07E4
:1015A00036E0FC01A8E2B7E001900D923A95E1F730
:1015B00030EE320F343A08F458C026E0FC011192A4
:1015C0002A95E9F7C0912E07D0912F0746E050E009
:1015D000BE0188E297E00E944D359E0128523540B9
:1015E000892B41F1C90145E0969587954A95E1F728
:1015F00041E050E0BA0102C0660F771F8A95E2F71A
:10160000CB016091260570912705862B972BB90198
:101610006B5F7F4FE5E076956795EA95E1F702C04D
:10162000440F551F6A95E2F7842B952B909327055D
:10163000809326052A5F3F4F40912505642F70E077
:10164000C9010E948834481B463010F4240F311D14
:10165000211572E0370710F030E020E0285D3A4FA6
:1016600030932F0720932E0794CF2052330B46E060
:10167000429FB001439F700D11246656794F46E09A
:1016800050E00E9444359ECFCF93DF93EC01FE01E2
:101690008491811103C0DF91CF9108950E94BE0A09
:1016A0002196F5CFCF93382FE0912E07F0912F0799
:1016B000E852F54020912505622F70E0CF010E948D
:1016C0008834281B822F332361F066E00E94D334D4
:1016D000C82FC15010F4CF91089580E20E94BE0A35
:1016E000F8CF9F01280F311D2115324018F080E0FE
:1016F000F0E0E0E08E0F9F2F911D885D9A4F909350
:101700002F0780932E07E7CF8091C4049091450462
:10171000892B80936C0248E050E069E972E08CE626
:1017200092E00E944D35892BA9F088E0ECE6F2E0CA
:10173000A9E9B2E001900D928A95E1F7E091BC042D
:10174000F091BD04309731F00280F381E02D8CE6FA
:1017500092E00995089580914204882349F0809190
:1017600045048D7D809345040E94840B10924204B1
:101770000895EEE6F2E086E0DF011D928A95E9F732
:10178000109245040E94840B0895AAE2B0E0EBECAD
:10179000FBE00C94AB3483ED94E02091F100DC018C
:1017A0002D93CD01B4E08B3D9B07B9F78091D40414
:1017B000833009F472C0B8F4813009F449C0823032
:1017C00009F4B5C08091E80083FF8DC28091D304F5
:1017D0009091D4049A3008F086C2E92FF0E0E354E7
:1017E000FA4C0C9401358A3009F490C08B3009F41E
:1017F00071C0893039F78091D304813219F7809113
:10180000D7049091D804009711F00297D9F68091EF
:10181000E800877F8093E8008091E80082FF38C06D
:101820009091F3008091F200029731F48091F100E1
:10183000813011F0863021F48091F1008093C6044C
:101840008091E8008B778093E8000E94C705BACFAB
:101850008091D304813A09F0B5CF8091E800877F69
:101860008093E8008091D7049091D804892B61F48B
:1018700068E087EC94E070E00E9473068091E800D5
:101880008B778093E8009ECF60E090E080E0F3CF1C
:101890008091D1048111C0CF95CF8091D304813A3A
:1018A00009F090CF8091D7049091D804892B09F04A
:1018B00089CF8091E800877F8093E8008091E800DD
:1018C00080FFFCCF809110028093F1008091E800AE
:1018D0008E77B9CF8091D304813209F073CF809194
:1018E000D7049091D804892B09F06CCF8091E8003F
:1018F000877F8093E8000E94C7058091D50480937C
:1019000010021092C4040E94B90B5CCF8091D304E2
:10191000813209F057CF8091E800877F8093E800FB
:101920000E94C7058091D6048093C5044BCF809157
:10193000D304813A09F046CF8091E800877F8093F5
:10194000E8008091E80080FFFCCF8091C504BCCF07
:10195000803899F0823809F0C6C18091D7048F7021
:10196000873008F0C0C18093E9008091EB0085FBCF
:10197000882780F91092E90006C08091CF049091E9
:10198000D004911182609091E800977F9093E800D5
:101990008093F1001092F1008091E8008E779FC152
:1019A000882309F48DC1823009F09DC18091D5044E
:1019B000811190C18091D7048F702FEF280F2630AE
:1019C00008F091C18093E9002091EB0020FF82C1D3
:1019D000933031F48091EB0080628093EB007AC108
:1019E0009091EB0090619093EB0021E030E001C01A
:1019F000220F8A95EAF72093EA001092EA0080917C
:101A0000EB008860EACF81116EC11091D5041F7779
:101A10008091E3008078812B8093E3008091E8003F
:101A2000877F8093E8000E94C7058091E80080FFCF
:101A3000FCCF8091E30080688093E30082E0111185
:101A400083E08093D1044FC18058823008F04BC1AD
:101A50002091D5043091D6042C3DE3E03E07A1F55A
:101A600083E08A838AE289834FB7F894DE01139674
:101A700020E03EE051E2E32FF0E050935700E49184
:101A800020FF03C0E295EF703F5FEF708E2F90E074
:101A9000EA30C0F0C7968D939D932F5F243159F79C
:101AA0004FBF8091E800877F8093E8006AE270E092
:101AB000CE0101960E9473068091E8008B77809397
:101AC000E80011C1C096E7CF8091D7049091D80467
:101AD000432F55274330510509F44AC078F541306A
:101AE000510509F47AC08BE590E0E1E0F6E0423080
:101AF000510509F0F8C02091E800277F2093E80005
:101B00002091D9043091DA048217930708F49C01DC
:101B100040E02115310509F065C0411163C0809195
:101B2000E80082FDC9CF8091D104882329F2853055
:101B300019F28091E80083FFF2CFBECF4132510508
:101B400009F43CC04232510509F0CDC08330910503
:101B500008F0C9C0FC01EE0FFF1FE35AFD4F0190D2
:101B6000F081E02D865A9D4FDC018C9190E01AC0E7
:101B7000332721303105D1F02115310561F02230B4
:101B8000310509F0B0C0EEE6F6E0E4918E2F90E06A
:101B9000EEE6F6E007C0E6E9F6E0E4918E2F90E08D
:101BA000E6E9F6E0009709F49EC0A5CFE4E8F6E088
:101BB000E4918E2F90E0E4E8F6E0F4CF83309105D5
:101BC00008F091C0880F991FFC01ED59FD4F01905D
:101BD000F081E02D89E090E08ECF82E190E0ECE5AD
:101BE000F6E089CF8091D104882309F465CF853050
:101BF00009F462CF8091E80083FD5ECF8091E80018
:101C000082FD8DCF8091E80080FF83CF9091F3001B
:101C10008091F2002115310519F08830910550F0BE
:101C200041E0089709F040E08091E8008E778093CA
:101C3000E8006FCF44914093F10031962150310973
:101C40000196E8CF803809F04EC08091E800877F88
:101C50008093E8008091D2048093F1009DCE8111A1
:101C600042C01091D5041230F0F58091E800877FD2
:101C70008093E8001093D2040E94C705112311F04D
:101C800084E005C08091E30087FDFACF81E0809376
:101C9000D10442E061EC81E00E94E60542E261ECA1
:101CA00084E00E94E60542E261EC82E00E94E605E3
:101CB00042E260EC83E00E94E6058091D10413C00B
:101CC0008091D504813079F481E0933009F080E08F
:101CD0008093D0041092E9008091E800877F809380
:101CE000E8000E94C7058091E80083FF0AC0809148
:101CF000E800877F8093E8008091EB00806280930A
:101D0000EB00AA96E3E00C94C734882341F0809559
:101D10009091C40489238093C4040E94840B089585
:101D2000882339F09091C404982B9093C4040E94A6
:101D3000840B0895882379F19CEF980F913A78F4F9
:101D4000EEE6F2E09191891303C0DF0111971C9236
:101D500042E0E437F407B1F70E94840B089590E263
:101D6000980F983088F4877021E030E0A90102C014
:101D7000440F551F8A95E2F7CA0180959091C404DB
:101D800089238093C404E8CF93E3980F933118F428
:101D900060E00E94A70A08950F931F93CF93C82F66
:101DA000882341F18CEF8C0F813AB0F50EE612E0FA
:101DB00084E792E0F8012191C21701F18E179F0785
:101DC000D1F7EFEF80E0D8019D918D01C91781F027
:101DD000EF3F19F4911101C0E82F8F5F863099F71A
:101DE000EF3F31F00E2E000CFF0BE459FD4FC28384
:101DF0000E94840BCF911F910F910895EEE6F2E0BF
:101E00002191C21303C0DF0111971C928E179F0707
:101E1000B9F70E94840BD5CF80E28C0F883068F42C
:101E2000C77021E030E001C0220FCA95EAF7809127
:101E3000C404822B8093C404DBCF83E38C0F8331F3
:101E4000C8F661E08C2F0E94A70AD4CF0F931F938E
:101E5000CF93DF93EC01FC0101900020E9F78F01A3
:101E600001501109C017D10728F0DF91CF911F91C0
:101E70000F91089589910E94BE0AF4CF0F931F938A
:101E8000CF93DF938B01EA019091D104943061F5F7
:101E90008093E9008FEF9091E800815095FD06C096
:101EA00095ED9A95F1F700008111F5CF8091E8004A
:101EB00085FF1AC00E949605811111C08091E8002B
:101EC00085FD06C08091E8008E778093E800F2CF10
:101ED000F80181918F018093F100219779F780912A
:101EE000E8008E778093E800DF91CF911F910F91EA
:101EF000089546E050E0BC0184E00E943E0F089542
:101F0000CF93DF93EC0148E050E0BC0181E00E94F8
:101F10003E0F88E0FE01A7ECB4E001900D928A9597
:101F2000E1F7DF91CF9108956091120280910F0443
:101F300080FF20C08091110243E0849FC0011124E2
:101F4000855A9C4F539A2BB1277F3BB138605FB7BE
:101F5000F894FC01649FE00DF11D1124BF01681786
:101F60007907D1F45FBF8FE594E00197F1F700C0E6
:101F700000000895809113029091140223E0829F43
:101F8000F0011124E55AFC4F8917A0F61182108246
:101F900012828F5F3396F8CFFC014191CF01E8E0C8
:101FA0003BB9000000C047FF2BB9440F000000C040
:101FB00000C000C02BB900C0EA9591F7D0CFEFE088
:101FC000F4E080818E7F8083E8E5F3E082818160A8
:101FD00082830E94940F0895B0E0A0E0E2EFFFE05A
:101FE0000C94A4347C015B016A0180911C0301E024
:101FF00010E08A3010F40AE010E0C1E0D0E0B50152
:10200000C701F6010995811104C021960C171D071F
:102010002CF4CDB7DEB7EAE00C94C034CC9F90012D
:10202000CD9F300D300D112490E080E045E34A95BE
:10203000F1F70000019682179307C1F7E0CF809176
:10204000AE02811119C088EC90E02091E30027FDD9
:1020500010C0EFE3FCE93197F1F700C000000197F1
:10206000A1F782E08093AE020E9477051092D1041E
:1020700003C081E08093AE0281E09091AE02913086
:1020800011F080E0089508950E941F10882359F0F0
:10209000E091BC04F091BD04309729F00190F081EB
:1020A000E02D0995089580E008950F931F930E94F5
:1020B0001F10882329F00E94E6061F910F910895B2
:1020C0000E94E60600911D0310911E0320911F033C
:1020D00030912003600F711F821F931FEECF549821
:1020E0005C9A879A8F9885E08A95F1F7000089B10C
:1020F00087988F9A90EA9A95F1F790E024E0959569
:1021000087952A95E1F78095909581700895CF93F2
:10211000DF9380911602CEE18111CDE1809117020B
:10212000D0E0882329F080911802DEE18111DDE101
:102130000E946F1081110FC08D2F80931102C093E8
:102140001202CD0F10921302C0931402C093150215
:10215000DF91CF91089580E0F0CF80911602F901D0
:1021600080830E94871008951F93CF93DF93182FC9
:10217000EB010E94CC0E8FE99FE00197F1F700C0C0
:1021800000002197C1F7812F0E949A0EDF91CF9115
:102190001F9108951092C4040E94B90B2FEF84E39D
:1021A0009CE0215080409040E1F700C0000088E1B1
:1021B0009AE00FB6F894A895809360000FBE9093B4
:1021C0006000FFCFCF93DF93C9E0D2E060E0CE01A3
:1021D0000E9487352196C11584E0D807B9F7DF91B1
:1021E000CF9108951F93CF93DF93122F8530E0F4A2
:1021F0006830D0F44630C0F4C42FD0E0CC0FDD1FDF
:102200009CE0699FC00DD11D112490E6899FC00DEF
:10221000D11D1124632FCE0189960E948735612F2D
:10222000CE018A960E948735DF91CF911F91089544
:10223000AF92BF92CF92DF92EF92FF921F93CF9314
:10224000DF9381E2C82E84E0D82ED0E07601C0E092
:1022500014C0F50125913491412F6C2F8D2F0E94D0
:10226000F21082E0A80EB11C1F5F163091F78CE0CF
:10227000E80EF11CCF5FC83019F0570110E0E9CF2C
:10228000DF5F80E6C80ED11CD53001F7DF91CF911A
:102290001F91FF90EF90DF90CF90BF90AF90089587
:1022A00088E290E00E9487350895CF93C82F6FEFA2
:1022B000811166E285E290E00E9487356FEFC111DF
:1022C00067E086E290E00E9487356FEFC11165E11B
:1022D00087E290E00E948735CF91089580E00E94C8
:1022E000551160E070E0CB010E9450110E9418115E
:1022F0000E94E21081E00E94551108950F931F93F0
:10230000CF93DF93853030F5683020F5463010F5F7
:10231000C42FD0E0CC0FDD1F2CE0629FC00DD11D7B
:10232000112430E6839FC00DD11D1124CE01899662
:102330000E946335082F10E0102F0027CE018A96E7
:102340000E9463359801282BC901DF91CF911F911D
:102350000F91089590E080E0F8CF462F783040F458
:10236000663030F4853020F4672F0E947E11089586
:1023700090E080E00895CF92DF92FF920F931F9339
:10238000CF93DF936C01009117048091A102082B79
:10239000C4E0D0E010E0FC2EC8010C2E02C09595E0
:1023A00087950A94E2F780FD0CC02197A0F7F12CE5
:1023B0008F2DDF91CF911F910F91FF90DF90CF90E4
:1023C0000895B6018C2F0E94AD110E94E20701977B
:1023D00061F3EECFCF93DF93EC010E94BB11BE01FE
:1023E0000E94AD110E94E207DF91CF910895FC0198
:1023F00084818823F9F087819085009791F00E946D
:10240000E20792959F709630B9F080F4925F9F70CA
:10241000923080F4803F19F058F4883E58F481E0FF
:102420000895808191810E94EA11EBCF9A5FEFCFEE
:10243000843FA9F380E00895883E88F3813FD1F777
:10244000EECFA6E0B0E0E7E2F2E10C94AB349C0101
:10245000FC01878190850097E1F486E0DE0111960A
:1024600001900D928A95E1F7F901258189819A8180
:10247000222399F0662389F00E94BB11182F682F40
:1024800089819A810E94E80869817A81812F0E945E
:10249000AD112696E3E00C94C7340E94B408182FBF
:1024A000F3CF88E290E00E946335682F70E090E0FF
:1024B00080E0089585E290E00E946335863289F4D9
:1024C00086E290E00E946335873059F487E290E01D
:1024D0000E94633591E0853109F090E0892F817089
:1024E000089580E0FCCFB0E0A0E0E9E7F2E10C94D1
:1024F000A6346C017B0164E670E088E70E94E63157
:102500008C01E601EC0CFD1C17FD0BC0FE01849153
:1025100064E670E00E9452328C012196CE15DF05F0
:1025200099F70E94C83281E00115110509F080E099
:10253000CDB7DEB7E8E00C94C23480913E049091B0
:102540004104911103C091E089270895882369F01F
:1025500062E070E082EE93E00E947312811103C08A
:1025600080913E04089510923E0480913E04EBCF8A
:10257000CF93C0913E04809141048823D1F00E9402
:10258000E606605A75418F4F9F4F60933A047093EF
:102590003B0480933C0490933D04C11108C062E069
:1025A00070E080EE93E00E947312811105C0C0912B
:1025B0003E048C2FCF91089581E080933E04F7CFA5
:1025C000B0E0A0E0E6EEF2E10C94A23449015A0139
:1025D0006B017C010E944D078401A4016A2D7B2DB3
:1025E00088E090E00E94993594014A2D5B2DB60158
:1025F000C70100E20E942935622F84E290E00E9428
:102600008735CDB7DEB7ECE00C94BE34B0E0A0E087
:10261000ECE0F3E10C94A234182FC62FD42F822EB5
:1026200000910F0400FF50C080911004811308C076
:1026300080911104861304C080911204841729F03C
:1026400080915A03826080935A03E02FE695F0E070
:10265000E05BFD4F808180935803802F8E7F823016
:10266000E9F4ED2FD73908F0E6E9F0E0E052FD4F4C
:10267000C1112FC02491F22FE22F00FF0FC08091D3
:1026800013029091140233E0839FD0011124A55AC4
:10269000BC4F891708F492C00E94940F1093100445
:1026A000C0931104D0931204882071F020910F047C
:1026B0006091130470911404312FAE0180911504C0
:1026C000909116040E94E012CDB7DEB7ECE00C94B6
:1026D000BE34EC2EF12CE4919E2ECE2ED12C26E091
:1026E000129FC00111242FEF30E0B9010E948834FD
:1026F000812F90E0880F991FF5E5F69FA001F79FC5
:10270000500D1124841B950BB82EBB0CB80EA901DB
:102710004E195F094C9DC0014D9D900D5C9D900D23
:102720001124F92FCB9DA0011124452F5527D90144
:10273000A41BB50BAC9DA001AD9D500DBC9D500DD3
:102740001124D901AB19B1095D01AE9CD001AF9C38
:10275000B00DBE9CB00D1124AB2FBB272A1B3B0B29
:102760002C9DD0012D9DB00D3C9DB00D11242B2F23
:1027700062307105A1F050F46115710509F47DCF47
:102780006130710581F0292FF52F77CF6430710505
:1027900069F080F06630710509F46FCFF4CF2E2F09
:1027A000E92FFB2F6ACF2E2FE52F67CF292FFE2F82
:1027B000EB2F63CFE92FF92D252F5FCF1196EC93E7
:1027C00011972C931296FC9312978F5F139661CFFB
:1027D00020E00E9406130895CF93DF93D82F0E9424
:1027E0002209C82F81E0C33009F080E00E9433093C
:1027F0004FEF66E684E8C230B1F058F44FEF6FEF68
:102800008AE6CC2381F04FEF6FEFC13059F040E002
:1028100008C04FEF6FEF85EDC33029F04FEFC430A4
:10282000B1F760E080E00E94E8138D2FDF91CF9137
:1028300008950E94EC138093170408959091170453
:1028400021E030E0F90101C0EE0F8A95EAF7D901E5
:1028500002C0AA0FBB1F6A95E2F7EA2B01C0220F44
:102860004A95EAF7892F8E23E81305C0292B822F7A
:102870000E941914089520952923F9CF21E030E012
:1028800001C0220F8A95EAF72095809117048223D0
:102890000E941914089521E030E001C0220F8A95AA
:1028A000EAF780911704822B0E9419140895EFE033
:1028B000F4E043812FE0421B08F440E021E0628114
:1028C00081810E9406130895EFE0F4E043812FE038
:1028D000420F08F44FEF21E0628181810E940613CC
:1028E0000895EFE0F4E0628121E1621B08F460E00A
:1028F00021E0438181810E9406130895EFE0F4E016
:10290000628121E1620F08F46FEF21E04381818150
:102910000E9406130895EFE0F4E0818121E04381F5
:10292000628181510E9406130895EFE0F4E08181F5
:1029300021E0438162818F5E0E9406130895809199
:102940001304882319F081508093130420910F04FD
:1029500030911004409111045091120460911304BD
:102960007091140480911504909116040E94E01255
:10297000089580911304833018F48F5F80931304BB
:1029800020910F04309110044091110450911204D1
:1029900060911304709114048091150490911604B1
:1029A0000E94E012089520910F0420FF23C021709F
:1029B000226020930F0480915A03816080935A0310
:1029C000662381F03091100440911104509112045B
:1029D0006091130470911404809115049091160471
:1029E0000E94E01240911204609111048091100441
:1029F0000E94E813089580910F048695815009F490
:102A000081E061E00E94D314089561E081E00E94BA
:102A1000D3140895EFE0F4E083E0808311828FEF18
:102A2000828386E983831482A8E5B3E012968C91B1
:102A30001297836012968C93758123E030E04FEFFC
:102A400056E960E0868197810E94E012089590E047
:102A500080E00E947135863E9E4F19F40E945A1202
:102A6000089580E00895B0E0A0E0E9E3F5E10C947A
:102A7000A7347901C82F880FDD0B41155105A9F046
:102A8000FE0193E0EE0FFF1F9A95E1F7EF5FFE4F17
:102A90008181928181559D4F208130E042175307FB
:102AA00008F49A01A9010E945A35CE010E941234FD
:102AB000D82E8823D1F001151105B9F083E0CC0F91
:102AC000DD1F8A95E1F7FE01EF5FFE4F438150E085
:102AD0000417150708F4A801CF5FDE4F6C817D81D4
:102AE00061557D4FC7010E945A358D2DCDB7DEB798
:102AF000E7E00C94C334A5E0B0E0E1E8F5E10C9424
:102B0000A4348D83E62E5A01F22E680180911C03B5
:102B10008A3028F080E02596EAE00C94C0348D815C
:102B20008930C4F31A8219828A836B832C8363E011
:102B300070E0CE0102960E9431078983E092310154
:102B4000F092440110E000E030E020E044E050E08A
:102B5000BE016F5F7F4F85E00E9433158823D1F25D
:102B60004E2D50E030E020E0B50186E00E943315A4
:102B7000882381F230E020E041E050E0BE016B5F4D
:102B80007F4F87E00E943315882321F20F2D10E03C
:102B9000960150E040E070E060E088E00E9433156C
:102BA000BACFA4E0B0E0E7EDF5E10C94AA3440918F
:102BB00010035091110360911203709113032FB70A
:102BC000F8948091BF049091C004A091C104B09189
:102BD000C2042FBF841B950BA60BB70B11E08436E4
:102BE0009105A105B10518F10E9455106E5F7F4F48
:102BF0008F4F9F4F69837A838B839C8310E000E023
:102C000030E020E044E050E0BE016F5F7F4F82E0A3
:102C10000E943315182F882351F00E94E606609316
:102C20001003709311038093120390931303812F69
:102C30002496E4E00C94C634A5E0B0E0E2E2F6E1CC
:102C40000C94A8347B0101E010E09E012B5F3F4F04
:102C500050E040E070E060E080E00E943315182F03
:102C6000882309F456C040910C0350910D036091E4
:102C70000E0370910F032FB7F8948091BF049091C9
:102C8000C004A091C104B091C2042FBF841B950B56
:102C9000A60BB70B84369105A105B10548F464E095
:102CA00070E080EB92E00E9431079D81891789F1E5
:102CB00004E010E09E012F5F3F4F50E040E070E0E5
:102CC00060E081E00E943315082F64E070E080EB43
:102CD00092E00E94310711E09D81981310E01023CB
:102CE00031F10E94E60660930C0370930D0380930C
:102CF0000E0390930F0389819A81AB81BC818093ED
:102D0000080390930903A0930A03B0930B0311E007
:102D10000EC08091B0029091B102A091B202B09128
:102D2000B30289839A83AB83BC831111E4CF809172
:102D3000080390910903A0910A03B0910B03F701D6
:102D400080839183A283B383812F2596E6E00C9440
:102D5000C4348F929F92AF92BF92EF92FF920F93E3
:102D60001F93CF937B01942FB901A801F7018080B5
:102D70009180A280B380EFB7F8940091BF041091C6
:102D8000C0042091C1043091C204EFBF0819190991
:102D90002A093B09043611052105310518F4C1E063
:102DA000992381F010E000E030E020E00E9433152C
:102DB000C82F882339F00E94E606F70160837183EB
:102DC000828393838C2FCF911F910F91FF90EF906F
:102DD000BF90AF909F908F900895A1E0B0E0E3EF97
:102DE000F6E10C94AA3480913E0489832091C302B9
:102DF00090E041E02817190609F440E001E010E0F6
:102E00009E012F5F3F4F68E173E084E00E94A916A6
:102E10002196E4E00C94C634ABE0B0E0E2E1F7E1E7
:102E20000C94AA3488E0EFE0F4E0DE011196019002
:102E30000D928A95E1F78091580390915903A091E2
:102E40005A0389879A87AB8741E08B85811101C03E
:102E500040E00BE010E09E012F5F3F4F64E173E024
:102E600083E00E94A916811110925A032B96E4E088
:102E70000C94C634A8E0B0E0E0E4F7E10C94AC3484
:102E800066EE7EEF90E080E00E94A53560E082E093
:102E900090E00E94873560E083E090E00E948735F3
:102EA0001092A10260E074E184E090E00E94A535F8
:102EB00060E086E090E00E9487356FEF87E090E069
:102EC0000E94873540E050E0BA0188E090E00E941F
:102ED000993560E084E290E00E94873560E087E108
:102EE00090E00E94873560E08CE090E00E9487359A
:102EF00060E08DE090E00E94873519821A821B8283
:102F00001C821D821E821F82188648E050E068E104
:102F100070E0CE0101960E94773540E050E0BA01A2
:102F200080E290E00E94993580E00E9455110E9455
:102F30006E1140E050E0BA018FE090E00E949935B8
:102F400040E050E0BA0183E190E00E949935289674
:102F5000E2E00C94C83428E030E043E060E086E32F
:102F60000E940E310895CF93DF93D82FC62F0E9471
:102F7000AB178D2F80680E9486318C2F0E9486317E
:102F80008AEB8A95F1F700C00E94B63183E492E0A3
:102F90000197F1F700C00000DF91CF910895682FED
:102FA000893708F068E76093210291E0909322024C
:102FB00090911602992339F06150811101C064E0AB
:102FC0008FE00E94B3170895FB0180810E94CF1704
:102FD000089590912102911101C095E0282F880F4A
:102FE000330BA901490F511DCA011816190614F017
:102FF00081E090E00E94CF170895ACE0B0E0E3E0FC
:10300000F8E10C94A6344F83588769877A878B87B9
:103010009C8780911602882309F446C0809179022A
:10302000811107C060E080E50E94B31781E08093C2
:1030300079020E94AB1780E50E9486318AEB8A955F
:10304000F1F700C00E949E310E949E310E949E3185
:103050007C010E949E3120E0E22AF82A0E949E31E3
:103060008C010E949E3120E0022B182B0E94B63169
:1030700085E08A95F1F70000F894B7018091190274
:1030800090911A020E94150A90931A0280931902D5
:10309000B80180911B0290911C020E94150A909326
:1030A0001C0280931B0278940E941F10882309F44D
:1030B00069C00E94E60600917A0210917B0220917D
:1030C0007C0230917D026B017C01C01AD10AE20AB8
:1030D000F30A97018601083011052105310508F42E
:1030E00051C060937A0270937B0280937C0290932C
:1030F0007D02009124021091250220912602309138
:103100002702601B710B820B930B623371058105E3
:10311000910580F410921A021092190210921C026A
:1031200010921B0210921E0210921D021092200299
:1031300010921F02109123020E946F10482FBE01AF
:10314000695F7F4F89E192E0112389F10E9447096D
:1031500000912302109116020E946F1041E048274F
:10316000BE01695F7F4F8DE192E0011719F10E9466
:10317000470986E0FE013796AEE2B2E001900D927B
:103180008A95E1F786E0FE013796DE0111960190FF
:103190000D928A95E1F729813A814B815C816D819D
:1031A0007E8180E090E02C96E8E00C94C2340E948E
:1031B000B409CECF0E94B409DCCFCF93C82F0E94B0
:1031C000AB178C2F0E9486318FE792E00197F1F7C1
:1031D00000C000000E949E31C82F95E09A95F1F73B
:1031E00000000E94B63185E68A95F1F70000109242
:1031F00079028C2FCF910895CF93DF930E940631EF
:10320000269A0E94AB176AE58AE30E94B3172FEF54
:1032100080E792E0215080409040E1F700C000003C
:1032200082E00E94DD1883E00E94DD1884E00E94A5
:10323000DD1885E00E94DD1886E00E94DD1860E060
:1032400080E10E94B31780E00E94DD18D82F81E052
:103250000E94DD18C82F0E94B631D23419F481E0E3
:10326000C13009F080E0817080931602882321F03C
:1032700064E08FE00E94B317DF91CF9108951F9211
:103280000F920FB60F9211242F933F934F935F939A
:103290006F937F938F939F93AF93BF93CF93DF935E
:1032A000EF93FF93D091E900DF708091EC00C82F7D
:1032B000C17080FDC0E81092E9008091F000877F26
:1032C0008093F00078940E94C50B1092E9008091E1
:1032D000F00088608093F000CD2BCF70C093E900A0
:1032E000FF91EF91DF91CF91BF91AF919F918F911E
:1032F0007F916F915F914F913F912F910F900FBEF2
:103300000F901F9018951F920F920FB60F921124D5
:103310002F933F934F935F936F937F938F939F93DD
:10332000AF93BF93EF93FF938091E10082FF09C0B9
:103330008091E20082FF05C08091E1008B7F809345
:10334000E1008091DA0080FF24C08091D80080FFE6
:1033500020C08091DA008E7F8093DA008091D900BE
:1033600080FF9DC080E189BD82E189BD09B400FE76
:10337000FDCF81E08093D1048091C304811109C005
:103380000E9477050E9418068091E2008460809375
:10339000E2008091E10080FF17C08091E20080FF91
:1033A00013C08091E2008E7F8093E2008091E20062
:1033B00080618093E2008091D80080628093D80081
:1033C00019BC85E08093D1048091E10084FF2BC07B
:1033D0008091E20084FF27C080E189BD82E189BD40
:1033E00089B5982F917080FFFBCF8091D8008F7D99
:1033F0008093D8008091E1008F7E8093E1008091DE
:10340000E2008F7E8093E2008091E20081608093F1
:10341000E2008091D204882309F447C084E08093BD
:10342000D1048091D1048091E10083FF27C0809175
:10343000E20083FF23C08091E100877F8093E10059
:1034400082E08093D1041092D2048091E1008E7FBB
:103450008093E1008091E2008E7F8093E200809172
:10346000E20080618093E20042E060E080E00E9440
:10347000E6058091F00088608093F000FF91EF9165
:10348000BF91AF919F918F917F916F915F914F917C
:103490003F912F910F900FBE0F901F90189519BC60
:1034A0001092D1041092C30474CF8091E30087FD81
:1034B00093E09093D104B5CF78941F921FB61F92DA
:1034C00011248F939F93AF93BF938091BF049091EA
:1034D000C004A091C104B091C2040196A11DB11D08
:1034E0008093BF049093C004A093C104B093C2041E
:1034F000BF91AF919F918F911F901FBE1F90189504
:103500009C014FB7F8948091BF049091C004A091A2
:10351000C104B091C2044FBF821B930B08952FB713
:10352000F8948091BF049091C004A091C104B0911F
:10353000C2042FBF08952F923F925F926F927F92A5
:103540008F929F92AF92BF92CF92DF92EF92FF92B3
:103550000F931F93CF93DF9380914104882309F445
:10356000FEC080913F04909140040E94801AC2974F
:1035700008F4D5C00E948F1A9093400480933F04B2
:1035800088E295E090932F0780932E070E941F10EA
:10359000882309F401C18AEE93E00E94440B88EB72
:1035A0000E94BE0A80912D020E94E3090E94BE0A79
:1035B00089EB0E94BE0A80912C020E94E3090E94BE
:1035C000BE0A87EE93E00E94440B80912A029091FC
:1035D0002B0254E0969587955A95E1F70E94E309EE
:1035E0000E94BE0A80912A020E94E3090E94BE0A3C
:1035F00084EE93E00E94440B84E392E00E94260F45
:1036000089E094E00E94440B809130020E94EA0914
:103610000E94260F809131020E94EA090E94260F23
:10362000809133020E94EA090E94260F80913202A3
:103630000E94EA090E94260F81E094E00E94440B58
:1036400080912102811101C085E00E94EA09019662
:103650000E94260F8DEF93E00E94440B8091290277
:10366000882331F0813009F48CC084EF93E002C0EC
:103670008AEF93E00E94440B80912302882309F48F
:1036800083C082E194E00E94440B80EF93E00E94AB
:10369000440B80912802811101C087E0805D0E9467
:1036A000BE0A88E194E00E94440BC1E0D0E0809122
:1036B0001704882309F46BC090E00C2E02C0959586
:1036C00087950A94E2F780FF62C08C2F0E94E3097D
:1036D0000E94BE0A2196C830D10549F780E20E94B7
:1036E000BE0A85E194E00E94440B80916901882321
:1036F00009F44FC082E194E00E94440B80916B0179
:1037000090916C0168EE73E00E948834862F0E94CD
:10371000EA0901960E94260F83E70E94BE0A809163
:10372000260590912705892B09F04CC080913E0415
:103730008823A9F00E94E60600913A0410913B0408
:1037400020913C0430913D04601B710B820B930B64
:103750006F3F7F4F8F4F9F4710F40E949D12DF9164
:10376000CF911F910F91FF90EF90DF90CF90BF907E
:10377000AF909F908F907F906F905F903F902F9031
:10378000089587EF93E076CF8FE094E07CCF80EBD5
:103790009FCF8FE094E0B0CFC0E9D0EFDC0F8EE197
:1037A00094E00E94440B11E01D0F8D2F0E94BE0A71
:1037B000D12F1C13F8CF80E00E94520BC05FC03C99
:1037C00061F7ADCF80914104882309F4AFCF809198
:1037D00039048111ABCF0E94B81220912605309197
:1037E00027052115310509F4A1CF80E041E050E023
:1037F000082F10E01A01082E02C0220C331C0A9474
:10380000E2F7B10162237323672B11F48F5FF0CFCE
:103810009091380490FF95C0880F880F880F80938F
:10382000770110927A01895F8093780183E0809319
:103830007B0124E630E047E050E065E771E088E78F
:103840000E948032892B09F071CFA80125E0440F36
:10385000551F2A95E1F78091380480FF84C0E8E184
:10386000F4E080E2DF011D928A95E9F7A6E5B2E077
:1038700002E512E08AE5C82E82E0D82E97E0592EA4
:10388000772473948D91E80129918E01240F352FAF
:10389000311D285D3A4FE82FF0E0E85EFB4F90E0E5
:1038A00080E0652C681A872C082E01C0880C0A94C9
:1038B000EAF77901A12CE701B9907E01B820662DC5
:1038C0006A196770962E062E000C770BDB2D01C04F
:1038D000DD0F9A94EAF77195619571096770772702
:1038E00001C0B6946A95EAF7BD2A6081962E9B289E
:1038F0009082A39468E0A612DECF019631968830BC
:10390000910579F6CA16DB0609F0BCCF04E610E093
:1039100020E230E048E154E060E488E70E94A13210
:10392000892B09F003CFE101C095D0958091260540
:1039300090912705C823D923D0932705C093260546
:10394000F5CE8295880F8076809377019801369521
:1039500027953695279520937A01815E809378018B
:1039600020937B0166CF485D5A4F04E610E020E2C9
:1039700030E0D2CFAEE1B0E0E0ECFCE10C94AB344F
:103980004091520350915303609154037091550339
:1039900080915603909157030E94FD172093520384
:1039A000309353034093540350935503609356034D
:1039B0007093570386E0E2E5F3E0DE01179601908D
:1039C0000D928A95E1F786E0FE013796DE011D969D
:1039D00001900D928A95E1F786E0FE013D96DE01A9
:1039E000119601900D928A95E1F786E0FE013196DD
:1039F000A2E5B3E001900D928A95E1F786E0E2E559
:103A0000F3E0DE01599601900D928A95E1F786E088
:103A1000FE017996DE01179601900D928A95E1F7E5
:103A200086E0FE013796DE01119601900D928A958F
:103A3000E1F786E0FE013196DE01539601900D928A
:103A40008A95E1F786E0FE017396DE0117960190F4
:103A50000D928A95E1F786E0FE013796A2E5B3E084
:103A600001900D928A95E1F786E0E2E5F3E0DE0150
:103A7000179601900D928A95E1F78091690188234C
:103A800009F445C080916E0190916F010E94801AE7
:103A900020916D0128171906D0F580917001909141
:103AA00071010E94801A893C910588F189859A8567
:103AB000892B9B85892B9C85892B9885892B91E067
:103AC00009F490E0909372010E947A071091170414
:103AD000882351F10E948F1A90936F0180936E0199
:103AE000109271011092700180916A01111105C04C
:103AF000882369F00E944B140AC0212F30E0082E61
:103B000002C0359527950A94E2F720FFF3CF0E9473
:103B10004E0A81112FC08091510310925103817080
:103B20006E96E3E00C94C73480916A01111118C0BD
:103B30008111EDCF80916E0190916F010E94801AEA
:103B400020916B0130916C012817390700F78091A3
:103B50006A010E943E1410926F0110926E01D7CF3D
:103B6000212F30E002C0359527958A95E2F720FF96
:103B7000CECFE0CF81E090E0D0CFA3E1B0E0E3ECA6
:103B8000FDE10C94A1348E01045F1F4F88E0D80141
:103B90001D928A95E9F78EE3C82E82E0D82EF12C8B
:103BA000E12CAA24A394B12C28E4822E22E0922EA8
:103BB000F60181916F018F3F09F442C0F894E82F1C
:103BC000E295EF70F0E021A18F70A50102C0440FD3
:103BD000551F8A95E2F7CA01922F982B91A392A1C3
:103BE0008095892382A3789400C0E2E4F2E0712CEE
:103BF00031E021912F3F09F46BC0A22FA295AF7045
:103C0000B0E090968C9190E02F7002C095958795CA
:103C10002A95E2F780FD5CC0832F782A330F8E1639
:103C20009F0639F7F601319780818F3F11F00E948E
:103C3000CB0750EA5A95F1F7F801EE0DFF1D70829F
:103C40008FEFE81AF80AA4E0EA16F10409F0B0CF01
:103C500048E050E0B80181E293E00E944D350097C2
:103C600041F028E0F801A1E2B3E001900D922A951D
:103C7000E1F700912A03892B69F181E08093A60284
:103C80000E948F1A9093A5028093A4028091A402AF
:103C90009091A5020E94801A059700F110E0085C3F
:103CA0001C4F44E050E061E273E0C8010E944D35D2
:103CB000B12C892B51F084E0E1E2F3E0D8010190CE
:103CC0000D928A95E1F7BB24B3941092A60207C027
:103CD00080E0A3CF8091A6028111D8CFB12C0E94A1
:103CE0001F10A82EE0912A03882309F489C01982A5
:103CF0001A821B821C820E2F10E0085C1C4F8091E0
:103D00001C038A3008F046C04CE156E1BE016F5FEB
:103D10007F4FC8010E94EC0F882309F460C041ED79
:103D200055E1BE016F5F7F4FC8010E94EC0F8823F1
:103D300009F455C04CE057E1BE016F5F7F4FC801E9
:103D40000E94EC0F882309F44AC04DEE56E1BE01F3
:103D50006F5F7F4FC8010E94EC0F882309F43FC0BA
:103D600010921C038091290390E044E050E0BE01D2
:103D70006F5F7F4F885C9C4F0E944D3521E0209300
:103D8000AD02892BF1F4A12C8A2D8B296396EDE0ED
:103D90000C94BD348091A7029091A8020E94801AD1
:103DA000843F914008F0B0CF8091AD02882359F351
:103DB00084E0FE013196DF011D928A95E9F71092A9
:103DC000AD02E0912903F0E0E85CFC4F89819A8123
:103DD000AB81BC8180839183A283B383D5CF809153
:103DE0001C038F3F31F08F5F80931C038A3008F4EF
:103DF000B9CF0E948F1A9093A8028093A702D4CFC4
:103E0000F0E0E85CFC4F84E0A0EBB2E001900D92A2
:103E10008A95E1F764E070E080EB92E00E94310760
:103E20008093AF02C090B402D090B502E090B60289
:103E3000F090B7028091A9029091AA02A091AB02E2
:103E4000B091AC02C816D906EA06FB06D1F0C092C2
:103E5000A902D092AA02E092AB02F092AC020E94B8
:103E60001F1081110EC00E94E606C61AD70AE80A82
:103E7000F90AC0921D03D0921E03E0921F03F09234
:103E800020038BE0E8EBF2E0DE01119601900D9249
:103E90008A95E1F79981892F86950A81FB80EC80CC
:103EA0001B851092C2021123A1F010FF0AC090FFDF
:103EB00017C090910F04916090930F0460E00E94EE
:103EC000D31411FF06C020E04E2D6F2D802F0E94CD
:103ED00006138091C302882331F00E94B81254CF98
:103EE0000E94DF0FEECF0E949D124ECFA8E0B0E0FF
:103EF000ECE7FFE10C94A0347C01DC0114968C917A
:103F0000882309F49FC061E0C7010E9421128C013F
:103F1000F701D580DD2009F44FC19757803891050E
:103F200008F04AC1003108F08DC08FEF93E00E9485
:103F30006335811187C049E0E42E42E0F42E01117F
:103F40004EC0FE01339686E0DF011D928A95E9F7A7
:103F50003AE0632E87010F5F1F4FC7010E94633550
:103F600089831A82882309F46DC0813009F06EC0FC
:103F70006701B2E0CB0ED11CC8010E9463358A8371
:103F8000882309F45FC09FEF980F9330B0F5E3E00A
:103F9000EE0EF11CC6010E9463358B83882309F461
:103FA00051C01C828E010F5F1F4FD8012C9122231C
:103FB00089F2213009F0A2C011969C9111971296B6
:103FC0008C91913009F044C00E5F1F4F65E070E0A6
:103FD000893311F460E570E00E94B4103FC0E11431
:103FE000F4E0FF0679F1C7010E946335811101C039
:103FF00001502FEFE21AF20AA2CF7601843091F637
:1040000002E010E07601FFEFEF1AFF0AC6010E94FE
:104010006335E1E0F0E0EC0FFD1FE00FF11F80835E
:10402000882381F08C3741F4E2E0F0E0EC0FFD1FD3
:10403000E00FF11F1082B6CF0F5F1F4F67010730EF
:10404000110501F72896EEE00C94BC347801AACF54
:10405000923029F50E5F1F4F0E94CC0E0F5F1F4F4D
:104060008FE99FE00197F1F700C00000AFE9BFE0E2
:104070001197F1F700C00000EFE9FFE03197F1F789
:1040800000C000008FE99FE00197F1F700C0000039
:10409000AFE9BFE01197F1F700C0000086CF933081
:1040A00029F40E5F1F4F0E949A0ED8CF943019F05A
:1040B0000F5F1F4FD3CF0E5F1F4F30E020E0B801DE
:1040C0006F5F7F4FF80141818053990B8A309105D2
:1040D00050F02150310910F28FE99FE00197F1F77C
:1040E00000C00000F6CF629EF001639EF00D112427
:1040F0009C012E0F3F1F842F8B01E1CFE22FF0E0B8
:10410000E75FFD4F7490822F86958695869590E0A7
:10411000FC01E750FE4FC4902770D12C022E02C044
:10412000D594C7940A94E2F7A1E0CA22DD24FC01E9
:10413000E751FE4FA490B12C022E02C0B594A79473
:104140000A94E2F7B1E0AB22BB24FC01E752FE4F38
:104150008490912C02C0959487942A95E2F7E1E02F
:104160008E229924C114D10419F081EE0E94CC0E44
:10417000A114B10419F086EE0E94CC0EF9E365E0BB
:1041800070E07F1202C060E570E0872D0E94B410DD
:10419000A114B10419F086EE0E949A0EC114D10444
:1041A00019F081EE0E949A0E8114910409F456CF01
:1041B00065E070E08CE210CF80916901882309F4FA
:1041C0006BC00115B2E51B0708F047C00115E0E51B
:1041D0001E0708F0B9C00115F0E21F0798F5011598
:1041E00021E0120708F053C0C801805E91090897CA
:1041F00008F44DC0F7018481882309F448C00730D2
:10420000FEE71F0709F4AEC0C8018D5C9109439712
:1042100008F4A8C00E947A07811139C0DD2059F046
:1042200080916A01209117042111ADC0882309F4FF
:10423000B3C00E94280A0E948F1A90937101809344
:10424000700125C0D70116968C910115B0E41B07AB
:1042500008F092C0807FD9F0CDCF0036E2E51E078E
:1042600008F044C00034F2E51F0788F4C8018F71DC
:10427000992720916A01003232E5130708F06EC0D9
:104280002817190621F4D11002C00E9471078091ED
:10429000740187FD1092740110932B0200932A027F
:1042A000D7018D919C91119790932D0280932C02B0
:1042B000F8013497E533F10508F077C0E757FD4F73
:1042C000E49115968C9120EB811102C02E2FE0EB2A
:1042D000A4E3B2E090E080E03D91321360C08A5EDA
:1042E0009D4FDC015E96EC93F80166C0003882E5D4
:1042F000180720F1C801805C9245809708F07ACFBA
:1043000020916A01C8018F7199272817190609F0B1
:10431000BECF8D2D0E946307D70116968C911697FC
:10432000807F803509F0B3CF15968C918823F1F00A
:1043300080917401815080937401A9CF20916A010A
:10434000C8018F7199279CCFC80125E09695879564
:104350002A95E1F78F70992720916A01281719068D
:1043600009F095CF8D2D0E94630791CF0E947107B0
:10437000809174018F5FDFCF982F907F09F06ACF13
:10438000812F9927E7CF30E0082E02C03595279579
:104390000A94E2F720FF4DCF0E943E144ACF0196C7
:1043A0008630910509F098CF9FCFC8019A95F80102
:1043B00081159F4108F4FF27D70115968C91E13DA7
:1043C000F10538F0E93DF10578F0E730BEE7FB078D
:1043D00011F1882309F42EC3FE57E031F10540F4B2
:1043E000E953FA4C0C940135682F8E2F0E94A70ACE
:1043F0000337ECE71E0709F022C3D70115968C910D
:10440000882309F41FCE80914204882309F47FC0D9
:104410000E94AB0B17CE0E943309EACF80E00E94C6
:10442000CF171092280280E00E94450A80E197E2AF
:104430000E94370A07CE409121022091280220FBDA
:1044400047F9269523708091690180FB22F98091BC
:104450006B0190916C0164EF71E00E9488345FEF12
:10446000560F550F550F550F522B6091290263704F
:1044700070E08FE090E00E949935E4CD81E00E94E9
:10448000E917E0CD8FEFFBCF8AE0F9CF86EFF7CFCA
:104490009091230281E089270E943309D3CD809136
:1044A0002802811101C087E08F5F18160CF081E0AF
:1044B000883008F087E080932802C4CD80912802DC
:1044C000811101C087E08150F0CF81E08093290203
:1044D000B9CD10922902B6CD82E0F8CF9091690152
:1044E00081E089270E94450AADCD80916B019091B2
:1044F0006C01C2969DCF80916B0190916C01C29727
:104500008436910508F094CF84E690E091CF109224
:10451000C4040E948F1A88579C4E90933603809350
:10452000350381E0809342048DCD011590E5190794
:1045300008F0B5C2F7018681807F49F1C80199274B
:10454000109245048832910508F052C08E319105D1
:1045500008F055C0049708F441C082E080934504F8
:104560004EC0003EA2E51A0728F5003CB2E51B0745
:1045700070F40036E2E51E0708F491C2003AF2E555
:104580001F0728F0043B22E5120709F088C2D70173
:1045900015969C91911185C28091C4048272F80194
:1045A000E052F847E531F10508F092C0E952FA4CC3
:1045B0000C940135C80187579C47029708F06FC2D9
:1045C000E6CFD70116968C91807F09F0B7CF812F67
:1045D0008F71823151F028F4823039F00E94AB0B98
:1045E000D6CF8431A1F28631C9F710924504F6CFB7
:1045F0008D32910509F4B1CF28F48A9779F70E949A
:10460000840BC5CF8C349105D1F38D329240B9F330
:10461000E5CF80910F0480FF1CC0282F2E7F2093B0
:104620000F043091100440911104509112046091D4
:1046300013047091140480911504909116040E9443
:10464000E01280915A03816080935A030E94940F74
:10465000F9CC816080930F0461E086950E94D314A9
:10466000F1CC4BEF54E165E075E10E944707EACCDD
:1046700045E055E16BEF74E1F8CF4BE854E165E9B3
:1046800074E1F3CF45E954E16BE874E1EECF41E723
:1046900054E16EE774E1E9CF4EE754E161E774E17C
:1046A000E4CF47E554E164E674E1DFCF44E654E14A
:1046B00067E574E1DACF4FE954E169EB74E1D5CFF6
:1046C00049EB54E16FE974E1D0CF61E081E0C6CFFE
:1046D0000737BCE71B0751F10837ECE71E0751F11C
:1046E000F701278130852115310509F448C0C9013A
:1046F0000E94E207182F292FF70165813681329534
:104700003F7092959F70C92ED12C9C3008F081C0CB
:10471000F601E451FA4C0C94013581E00E944B14EF
:1047200043E062E081E00E941E148CCC81E00E9494
:104730003E14F6CF82E0FBCF0130FCE71F07E9F023
:1047400003302CE7120799F001153CE7130741F6F7
:104750001092C4040E94B90B8FEF94E3ACE0815037
:104760009040A040E1F700C000000E94D5066FEF26
:104770007FEF90E080E00E94A5350E94CA10008182
:104780001181992369F0C8010E94BB11D82E682FAE
:10479000C8010E94E808B8018D2D0E94AD11A8CF74
:1047A000C8010E94B408D82EF6CF022F0F70207FC8
:1047B00011F00295007F6623C9F0002369F080E2C2
:1047C000810F883010F011110BC08091C404082BA8
:1047D0000093C4040E94840B812F0E94CC0E19C048
:1047E00080914504082B00934504F4CF812F0E944B
:1047F0009A0E002371F0009580E2810F883010F04E
:10480000111115C08091C40408230093C4040E94B0
:10481000840BF8E0CF1AD10824E0C216D10410F4BA
:104820000E94441060E0C7010E9421120BCC8091CD
:104830004504082300934504EACF822F8F70207F20
:10484000203211F08295807F113061F4662329F0C7
:104850003630F8F60E94900EDCCF3530D0F60E944C
:10486000850ED7CF662319F03323A1F3B5CF3323B9
:10487000B1F3193369F4FFEF27EE33E0F150204034
:104880003040E1F700C00000812F0E949A0EC1CF96
:104890008FE19EE40197F1F7F5CF812F0E94A70ADF
:1048A000B8CF822F837089F56111B3CF312F329544
:1048B00036953770330F330F812F8F70032E01C061
:1048C000880F0A94EAF7412F407114FF07C04FE0A8
:1048D00050E001C0440F3A95EAF740952695269599
:1048E0002370223069F050F43091A102213029F078
:1048F000842B83230E941F098CCF832B842BFACF18
:10490000482B8091A1028427F5CF8695662311F06C
:10491000822F8170882309F47CCF312F3295369510
:104920003770330F330F812F8F70032E01C0880F24
:104930000A94EAF7412F407114FF07C04FE050E09E
:1049400001C0440F3A95EAF74095269526952370C5
:10495000223069F050F430911704213029F0842B73
:1049600083230E94191455CF832B842BFACF482B15
:10497000809117048427F5CF022F0F70662329F04A
:10498000802F0E944B14812F65CF812F0E94850EAE
:10499000802F0E943E143DCF113F61F148F4103F3B
:1049A000A9F0662399F1311117CF822F8F7126C09C
:1049B000123F39F1133FA9F780E0662391F22F717E
:1049C00081E001C0880F2A95EAF7CBCF662371F00A
:1049D000353008F01ECF2F7181E090E001C0880FC4
:1049E0002A95EAF7909117048927BBCF363008F053
:1049F00010CFF1CF822F8F71662359F20E944B1492
:104A000008CF822F8F716623C9F3C3CF332379F088
:104A1000193341F49FEFA7EEB3E09150A040B040AE
:104A2000E1F730CFEFE1FEE43197F1F72BCF822FA2
:104A30008F71AFCF03373CE7130709F403CB8091A5
:104A40004204882309F4A3CDD090C4040E948F1A95
:104A500088579C4E9093360380933503F7018581E8
:104A6000882309F494CD8D2D8D7909F0B7CD0034CC
:104A7000F2E51F0708F075CD011522E5120708F0D1
:104A800086CD011530E4130708F04FCD011580E203
:104A9000180708F096CD063E110509F478CDC80137
:104AA0004FCD07378CE7180709F437CE0837ACE746
:104AB0001A0709F041CE82E031CECF93DF93809187
:104AC0009602807F09F04DC080919502882309F4F9
:104AD00048C0E09124055091DB04C0919102D0912F
:104AE0009002609192027091930249E05E17C9F1C1
:104AF0008E2F90E0E49FF0011124E452FB4F2481BB
:104B0000222391F1489FF001499FF00D1124DF010C
:104B1000A452BB4F11962C9111972C1325C02C91A8
:104B20002D1322C015962C91159721111DC0129698
:104B30002D913C91261B370B283C3105A8F4809120
:104B400096028F70806180939602EE51FB4F8081B8
:104B50008F708061808380E992E00E94761F0E94BE
:104B6000AA08DF91CF910895FC013196E770BECF7E
:104B7000A8E1B0E0EEEBF5E20C94A2348C0186E003
:104B8000F801DE01539601900D928A95E1F7F80144
:104B90008481E58090E9A92E92E0B92E909194024B
:104BA000911128C0882319F1EE20F1F0C8010E946C
:104BB000F711F82E8823C1F089E0F801D5010190A2
:104BC0000D928A95E1F780919402813031F48091C1
:104BD0009002909191020E94EA110E945D258F2D12
:104BE0006896ECE00C94BE34C8010E94761FFF2446
:104BF000F394F5CFD080C18082809380F0909502AD
:104C00002091920230919302A401421B530BFF208A
:104C100009F40DC1483C510508F0B6C08823F9F2EB
:104C20009091910280919602282F207F09F05FC019
:104C3000C9121DC090919002D91219C040919702DB
:104C400050919802278130854217530781F4E11073
:104C500048C08F7080618093960280E992E00E9444
:104C6000761F80919602F8018683F12CB8CFE1106F
:104C700038C06C2D8D2D0E9458056C2D8D2D0E94F5
:104C80005805E82E8111F1CFDB8ACC8A8B899C896B
:104C90000E94EA11292F22952F70243058F49F701A
:104CA000223088F0992399F0F8019681907F79F469
:104CB000FE2C95CF2A5F2F70223068F0C8010E9429
:104CC000761FEF2CF5CF992311F0882389F3805EAE
:104CD000883070F3F3CF803F58F3815F833070F7F3
:104CE000E7CF80919602816080939602BECFC91271
:104CF0001CC090919002D91218C040919702509117
:104D00009802278130854217530779F4E1100DC0CE
:104D10008683C8010E94761F89E0F801A0E9B2E00D
:104D200001900D928A95E1F75ACFC8010E94F711C0
:104D3000882309F459CFEE2009F456CF80919602CA
:104D40008032B8F020919002309191023B872A87FF
:104D50009D868C86909194029E871F86888B809179
:104D60009702909198029A8B898BCE010A960E94A5
:104D7000761F89E0F801A0E9B2E001900D928A95D2
:104D8000E1F70E945D2533CF90919602292F207F75
:104D900051F480E992E00E94761F89E0F5011192BA
:104DA0008A95E9F762CF882309F419CF809191029F
:104DB0008C1119C080919002D81215C040919702B1
:104DC00050919802278130854217530761F4E11012
:104DD0000AC09683C8010E94761F89E0F5011192EE
:104DE0008A95E9F7FCCEC8010E94F711882309F4DF
:104DF000FBCEEE2009F4F8CE80919602803208F4C2
:104E0000B8CF20919002309191023A8329839C82FD
:104E10008B82909194029D831E828F838091970252
:104E20009091980299878887CE010196A0CF483C3F
:104E3000510598F6882309F4DACEFE2CEE2009F409
:104E4000D3CE809191028C1120C080919002D81213
:104E50001CC0209197023091980287819085281775
:104E6000390799F49091960290FD56CF907F09F4FE
:104E700053CF809196028683903F09F44ACF982FB2
:104E8000907F905F8F70892B43CFC8010E94F711EC
:104E900081116FCF80919602816080939602C80144
:104EA0000E94761F9CCEA2E1B0E0E9E5F7E20C9407
:104EB000AA340A871B872C873D874E875F87688BBC
:104EC000798B8A8BCE010A960E94B82581110CC07D
:104ED00089E0FE013A96DE01119601900D928A95C5
:104EE000E1F78E8581110BC019E080912405909126
:104EF000DB04891333C06296E4E00C94C63420913D
:104F0000DB0430E0C90101968770992740912405A0
:104F10004817190699F099E0929FD001939FB00D20
:104F20001124A452BB4FFE01319601900D929A9527
:104F3000E1F78093DB040E94AA08D6CF1092C40444
:104F40000E94B90B1092DB041092240589E0E0E97D
:104F5000F2E0DF011D928A95E9F7C6CF819FC0017B
:104F6000112484529B4F0E94B825882321F28091FE
:104F7000240590E001968770992780932405B5CF8A
:104F8000B0E0A0E0E6ECF7E20C94A5348091470491
:104F9000882369F0C0914604C12C8DE0D82E809101
:104FA0004704C81748F01092470410924604CDB742
:104FB000DEB7E9E00C94C134BB24B394BC0EB092CC
:104FC0004604EC2EF12CCD9DE0011124C85BDB4F93
:104FD0008C81882361F18F819885892B21F48985C3
:104FE0009A85019659F4088119812A813B814C8167
:104FF0005D816E817F8188850E945327DE9CF00150
:10500000DF9CF00D1124E85BFB4F148210924504E5
:10501000C1100DC0CE010E94F711811108C08FE1AF
:105020009EE40197F1F700C00000CC24C394CB2D7F
:10503000B6CF1092BB041092BA0410920F02809166
:10504000B9048093B8040E9420070E94C0270895E5
:10505000B0E0A0E0EEE2F8E20C949C34C091B80419
:10506000E7E0FE2E01E010E0FDE02F2EEE24E394B9
:105070008091B9048C1309C00E94C0270E942007A8
:10508000CDB7DEB7E2E10C94B834D0E0FE01EE0F0C
:10509000FF1FE055FB4F80819181F89EF001F99E42
:1050A000F00D1124E458FE4F248121115AC0309094
:1050B0004704A8E4B4E030E020E0412C5F01231570
:1050C00008F04DC01B966D907C901C97F501808078
:1050D00091804FEF5FEF512CC52CD12CF601EE0FD4
:1050E000FF1FE80DF91D659174916616770609F4A6
:1050F000A601672B11F05394EFCF4F3F5407B9F13E
:10510000B80102C0660F771F4A95E2F7462AA80148
:10511000052C02C0440F551F0A94E2F74150510973
:105120004416150609F5229EF001239EF00D112468
:10513000E85BFB4FF89ED001F99EB00D1124A458F6
:10514000BE4F12962D913C9113973087278374E0C0
:10515000748310821182928781871596EC920E9447
:10516000F2062196C37084CF14961C9214972F5F79
:105170003F4F1D96A4CFAEE1B0E0E1ECF8E20C9415
:105180009C344B8B5C8B6D8B7E8B8F8B988F9111AE
:1051900010924504188A198A1A8A86E0FE017396CD
:1051A000DE011A9601900D928A95E1F78E8588238B
:1051B00081F061E0CE010A960E9421129C019F8538
:1051C00020354CE7340789F4992311F181E080936D
:1051D0000F020A851B852C853D854E855F85688974
:1051E00079898A890E945327CBC021355CE735072E
:1051F00029F4992369F00E941928EBCF22353C4706
:1052000039F4992329F080910F028111F4CFDECF78
:105210006A857B8580E00E94AD114C01FCE7EF2E92
:10522000F1E0FF2E512CD12CC12CAA24A394B12C37
:10523000B7E04B2EFE013196FA8FE98F3324339479
:10524000F7014081518166246A94762C60E0262F14
:1052500030E0F901EE0FFF1FE40FF51F85919491E7
:105260008816990609F43901892B11F06F5FEFCF89
:1052700010E0FFEF6F167F0609F443C0F701448189
:1052800010910F02812F411180E0182F1170F7014A
:10529000258086819F85992309F4F2C0112309F4A2
:1052A000EFC0211014C09501062C01C0220F0A94F2
:1052B000EAF7822B86838091430490914404C2973D
:1052C00030F422E330E03093440420934304C501DA
:1052D00002C0880F991F6A95E2F70197F7012681AE
:1052E0002817190671F48091BA049091BB040097B5
:1052F00009F44AC00E94801AC39708F445C0F70118
:105300003482512AFFEFCF1ADF0A27E0E20EF11CA8
:1053100035E1C316D10409F093CF8F85882309F4B2
:105320000EC1552009F40BC10E948F1A9093BB0443
:105330008093BA0480914704883010F591E0980F6B
:105340009093470499E0FE013A96DE011196019090
:105350000D929A95E1F74DE0849FC0011124885B7E
:105360009B4F29E0FE013196DC0101900D922A95B8
:10537000E1F72FEF3FEFFC01328721879486838688
:105380006E96E2E10C94B8348091B8046091B9044F
:10539000982FF0E0E0E0861314C09093B804EE1567
:1053A000FF0509F4AECF90E0FC01EE0FFF1FE055C2
:1053B000FB4FD182C0820196837099278093B904F4
:1053C000A0CF682E712CF301EE0FFF1FE055FB4FAD
:1053D00020813181429ED001439EB00D1124A458FA
:1053E000BE4F2D913C9111973E8F2D8F00E070E0C4
:1053F000212CE22DF0E0EE0FFF1F2D8D3E8DE20FF0
:10540000F31F2591349121153105E1F0F701019049
:10541000F081E02DFC8FEB8F70E005C0241735077D
:1054200009F4012F7F5FE72FF0E0EE0FFF1F4B8D98
:105430005C8DE40FF51F459154914115510571F7AD
:105440002394D7CF0023C9F0F701721508F0FD01AE
:105450003482EE16FF0621F49093B804102F51CF3A
:10546000891305C0AE17BF0711F49F5F93709301B6
:105470002F5F3F4F822F83708ECFF0E0E0E0F7CFB9
:1054800090E021101FC0950102C0220F331F6A95C2
:10549000E2F7215031098217930731F4442309F4CC
:1054A0004CC0C6010E94F206C501062C01C0880F3F
:1054B0000A94EAF7982F9095F701868189238683CD
:1054C000122D1FCFAC01062C02C0559547950A94AA
:1054D000E2F7BA01617077279C01215031098223DC
:1054E0009323892B31F5672B21F1F7018281938179
:1054F000892BE1F0E98DFA8D242D11922A95E9F797
:105500000E948F1A282F8B839C8334E03D83F70100
:1055100082819381782F8887998709811A813C81BC
:1055200044E05E816F81892F0E945327F701158225
:10553000BBCFF42FF1702F2EB7CF212EB5CF909186
:10554000B8048091B904981729F00E9428285110B6
:1055500017CF3FCE0E94C0271092BB041092BA040E
:105560000E942007F4CFA6E0B0E0E9EBFAE20C9449
:10557000AA340E948F1A8C018091A2029091A302FA
:105580008017910781F019821A820E948F1A682F62
:1055900049815A81792F80E090E00E94BB281093C6
:1055A000A3020093A2022696E4E00C94C6341F9254
:1055B0001FB61F9211248F939F93AF93BF93809137
:1055C000BE04811113C08091BF049091C004A091CA
:1055D000C104B091C2044196A11DB11D8093BF04C6
:1055E0009093C004A093C104B093C204BF91AF9143
:1055F0009F918F911F901FBE1F901895CDB7DEB75A
:10560000A6970FB6F894DEBF0FBECDBF85B78068F2
:1056100085BF85B7806885BF84B7877F84BF0FB695
:10562000F894A89580916000886180936000109242
:1056300060000FBE80E890E00FB6F89480936100A0
:10564000909361000FBE8DE997E090936B02809379
:105650006A020E9477050E9418068091E200846029
:105660008093E20078948091D1048823A1F0109176
:10567000E9001F709091EC00892F817090FD80E807
:10568000182B1092E9008091E80083FD0E94C50B61
:105690001F701093E90082E084BD93E095BD9AEFFE
:1056A00097BD80936E0010921D0310921E031092FE
:1056B0001F03109220030E945A12811102C00E94FF
:1056C0006E110E946F108093000180910001882369
:1056D00009F460C0109211028EE1809312020E94C0
:1056E0001F1081110E9426338091000180910001DA
:1056F00094E0811190E090932A0384E0891B8093C9
:10570000290384EF0E94CB0785EF0E94CB0786EF29
:105710000E94CB0787EF0E94CB0702E412E0D8017A
:105720008D918D018F3F11F00E94CB07B2E00834BC
:105730001B07A9F788E0E8E3F3E0DF01882E1D925C
:105740008A94E9F7E1E2F3E0DF011D928A95E9F737
:105750000E942715811102C00E943A1782E090E052
:105760000E94633580932C030E94BD1DEFE3FCE98A
:105770003197F1F700C000000E94BD1D80913803F1
:1057800080FF0CC06FEF7FEF90E080E00E94A535B6
:105790000E94D5068EE1809311029FCF83E090E0B6
:1057A0000E9463350E941F09809117040E94EC1328
:1057B0000E941F10882309F4A8C180E08093380458
:1057C00080E8809325050E94E0316BE070E085ED74
:1057D00092E00E9473128823E9F18091380465E019
:1057E00070E081FD94C180ED92E00E9473128823E5
:1057F00089F16DE070E08EEB92E00E9473128823D5
:1058000049F10E94E606605A75418F4F9F4F6093A1
:105810003A0470933B0480933C0490933D04E8E287
:10582000F5E080E092E0DF019C011D9221503040C4
:10583000E1F7F0932F07E0932E078FEF9FEF909300
:1058400027058093260581E08093410480933E04E0
:105850001092390480912B03811176C00E94271584
:10586000811104C00E943A170E940A1588E090E056
:105870000E946B354B015C0184E290E00E9463352D
:10588000282F30E040E050E060E070E080E090E001
:1058900000E20E940E35282939294A295B292093E4
:1058A0000F0430931004409311045093120460933A
:1058B000130470931404809315049093160480913C
:1058C0005A03836080935A032E7F89F50E940A153C
:1058D00088E090E00E946B356B017C0184E290E0EF
:1058E0000E946335282F30E040E050E060E070E037
:1058F00080E090E00E940E35B22FA32FF42FE52F09
:105900005B0197018601BC29A12BFE29E32BB093F3
:105910000F04A0931004F0931104E0931204609319
:105920001304B092140480931504909316040E94FB
:105930004D0780910F0480FF04C060E086950E94AF
:10594000D31481E080932B030E941F10811102C0A9
:105950000E9429330E94FC180E941F1081112EC042
:105960008DEA90E19093500180934F0129E130E05E
:1059700030934B0120934A0189E390E090934E01CC
:1059800080934D0149E857E05093580140935701E7
:105990003093530120935201909356018093550107
:1059A00044EE57E15093600140935F0130935B01F7
:1059B00020935A0190935E0180935D010E94271508
:1059C000882391F18FE090E00E946B358B01F82ED7
:1059D000862F8F770E94CF17001F0027001F612F8F
:1059E0006370660F602B6093280212FB882780F992
:1059F0000E94450A812F887F09F48CC01695169560
:105A00001695212F30E02F5F3F4F44EF51E0249F48
:105A1000C001259F900D349F900D11240E94370ADC
:105A20008F2D8370809329020E94871081E691E078
:105A30009093BD048093BC0436E9E32EF12CCC2472
:105A4000CA94D12C8091D10400E112E1853009F48F
:105A5000A3C00E94BD1D0DE213E098E3A92E93E0C0
:105A6000B92E28E4822E22E0922E9401B501F8018D
:105A70009191DB018D91BD01D9014D919D0184234F
:105A8000B3E0E533FB0709F493C0981789F30E944C
:105A90001F10382E612CF50171905F01D4018D919A
:105AA0004D017822F80121908F01271431F1512CFA
:105AB000442443942724822D8421B9F03320A9F073
:105AC00059A26AA20E948F1A9CA38BA3F1E0FDA3A6
:105AD00091E0842D872109F490E09EA349A15AA169
