:100000000C9408050C9425050C9425050C94E832F5
:100010000C9425050C9425050C9425050C942505B8
:100020000C9425050C9425050C9474190C94301926
:100030000C947A2A0C9425050C9425050C9425051E
:100040000C9425050C9425050C9425050C94250588
:100050000C9425050C944D1A0C9425050C9425053B
:100060000C9425050C9425050C9425050C94250568
:100070000C9425050C9425050C9425050C94250558
:100080000C9425050C9425050C9425050C94250548
:100090000C9425050C9425050C9425050C94250538
:1000A0000C9425050C9425050C9425050E000F00D5
:1000B00000000D000E0000001000360000000C00D3
:1000C0001800000004001600000005010902A1014B
:1000D00085020901A100050919012908150025015A
:1000E0009508750181020501093009311581257FC7
:1000F00095027508810609381581257F95017508D7
:100100008106050C0A38021581257F950175088145
:1001100006C0C00660FF0961A1010962150026FF43
:10012000009520750881020963150026FF009520BF
:1001300075089102C005010906A101050719E0290A
:10014000E715002501950875018102950175088163
:10015000010507190029FF150026FF0095067508FF
:10016000810005081901290515002501950575016E
:100170009102950175039101C0000000000000008C
:10018000000000000000000000000000000000006F
:10019000000000000000000000000000007E0F00D2
:1001A000D4FFFFFFC700000078000000000000003F
:1001B000002A2B28000000000000000000000000C2
:1001C0000000000029000000002C1E342021222401
:1001D000342627252E362D3738271E1F202122238F
:1001E0002425263333362E37381F04050607080921
:1001F0000A0B0C0D0E0F10111213141516171819E7
:100200001A1B1C1D2F3130232D3504050607080944
:100210000A0B0C0D0E0F10111213141516171819C6
:100220001A1B1C1D2F3130354C6162636465666793
:1002300068696A6B6C6D6E6F7071727374757677C6
:1002400078797A313233343536373839305245425D
:10025000545F2D3D5B5D5C233B27602C2E2F00DA25
:100260000281FFD9F1DB20A4A62EAF00A0C0D300ED
:1002700000A1C8D30000AED580A81F408D14200077
:100280000001010101010101010102020202020259
:10029000020202030303030303030304040404042C
:1002A00004040505050505060606060607070707F3
:1002B0000708080808090909090A0A0A0B0B0B0CA8
:1002C0000C0C0D0D0D0E0E0E0F0F0F101011111145
:1002D00012121313141415151616171718181919C6
:1002E0001A1A1B1B1C1D1D1E1E1F2020212222232B
:1002F0002424252626272829292A2B2C2D2D2E2F6C
:1003000030313232333435363738393A3B3C3D3E82
:100310003F404142434445464748494A4C4D4E4F71
:1003200050515354555658595A5B5D5E5F61626433
:10033000656668696B6C6D6F7072737577787A7BC0
:100340007D7E8082838587888A8C8E8F9193959617
:10035000989A9C9EA0A2A3A5A7A9ABADAFB1B3B537
:10036000B7BABCBEC0C2C4C6C9CBCDCFD1D4D6D813
:10037000DBDDDFE2E4E7E9EBEEF0F3F5F8FAFDFFB1
:1003800000AF00AE202000BABB004B657920B10061
:1003900020C0C100B4B500B2B300BEBF00484F00DA
:1003A0005654003030200020202020B1BCBD004237
:1003B000616C6CB1004C617965723A0020200029B3
:1003C0000014001A000800150017002B0004001686
:1003D00000070009000A00E1001D001B00060019CB
:1003E0000005000000E200E30091212C4190434C05
:1003F00000130012000C0018001C00240233000F30
:10040000000E000D000B008700380037003600108A
:1004100000110000004600E600913128422A000148
:10042000003A003B003C003D003E0001000100019D
:1004300000520028004C0001000100500051004F04
:10044000002A000000010001000100010001004439
:100450000043004200410040003F00450001000110
:1004600000417E407E4B00010001004F00510050D2
:10047000004E000000010001000100010001000128
:100480000034022400250026002502010033022149
:100490000022002300300001002D021E001F00205A
:1004A00000300200002700370001000100010001B8
:1004B0000021022F0023021E0226021F0234002008
:1004C000022E022D003200890238022F022E0087F0
:1004D000023202000001000100010001004C002076
:1004E0007801000100010001000100217823782536
:1004F0007827780100087E227824782678287801E9
:1005000000097E0000007C007E0100010001003037
:10051000782F782E782D782C782B780100010034F4
:1005200078337832783178017E0100047E027E03D0
:100530007E057E0000007C007E01000100010001BC
:1005400000010001000100010001000100010001A3
:100550000001000100010001000100010001000193
:100560000001000000010001000100010001000184
:100570000001000100010001000100010001000173
:100580000001000100010001000100010001000163
:10059000000100000001000100010001000100094C
:1005A000025B00030100A0FA09040000010301013D
:1005B0000009211101000122440007058103080000
:1005C00001090401000203000000092111010001DA
:1005D00022220007058203200001070503032000F3
:1005E00001090402000103000000092111010001BA
:1005F00022490007058403200001120100020000C7
:1006000000085759000400010102000114034B00C7
:1006100065007900620061006C006C0034003400F9
:100620000000100359006F0077006B006500650043
:100630007300000004030904000000000000000033
:100640002F000000000700070000123F123F1200B9
:10065000242A7F2A120036091E241B00182629127C
:100660002800000007000000001E2140000000409C
:10067000211E000014083E08140008083E08080067
:100680000000307000000808080808000000303042
:10069000000020100C0201001E2925231E0000224C
:1006A0003F200000223129292600122125251A0089
:1006B0001814123F10001725252518001E25252582
:1006C00018000131090503001A2525251A000629FD
:1006D00029291E000000333300000000337300009E
:1006E00008141422220014141414140022221414C6
:1006F00008000201290502003E59555D3E003816EA
:10070000111638003F2525251A001E21212112002F
:100710003F2121211E003F25252521003F090909F0
:1007200001001E2121291A003F0404043F0000217A
:100730003F210000102020201F003F040C12210048
:100740003F20202020003F0204023F003F020C1007
:100750003F001E2121211E003F09090906001E211C
:1007600029112E003F0909192600122525291200FA
:1007700001013F0101001F2020201F000718201841
:1007800007000F300C300F0021120C12210003045F
:1007900038040300312925232100007F4141000056
:1007A00001020C1020000041417F00000402010200
:1007B0000400404040404000000103040000102AB3
:1007C0002A2A3C003F2422221C001C222222240030
:1007D0001C2222243F001C2A2A2A0C0000043E0569
:1007E00005000C5252543E003F080404380000003B
:1007F0003D0000002040403D00003F08081422005A
:1008000000013F2000003E023C023C003E04020288
:100810003C001C2222221C007E1422221C001C22CE
:1008200022147E003E0402020400242A2A2A120016
:1008300000021F2200001E2020103E000618201873
:1008400006000E300C300E002214081422000E5048
:1008500050483E0022322A262200080877414100F3
:1008600000007F00000041417708080018040810CC
:100870000C0000000000000000000000000000006C
:1008800000000000C0F0F88C86C6E7FFFFFFFFFF06
:10089000FFFEFCFCF8E080000000F0F0F00000C07B
:1008A000E0F0707000000000000000000000000098
:1008B00000000000000000000000F8F8F800000050
:1008C0000000000000000000000000000000000028
:1008D000F8F8F80000F8F8F8000000000080E07078
:1008E00078686C64C7C7C7C7C7C7E73F1F0F3FFF1C
:1008F000FFFFFFFFFF3F0F000000FFFFFF1E3FFF56
:10090000F3E1800000F8FCFE3636363EBCB8000E3F
:100910003EFEF080F0FE3E0E0000FFFFFF060606E2
:10092000FEFEFC7000E6F6F63636FEFEFC00000029
:10093000FFFFFF0000FFFFFF000000003C7F63603F
:10094000E0C0C0C0C0C0C0C0C0FFFFC06030180F52
:100950000303030100000000000003030300000084
:1009600003030303000103030303030303010070F4
:1009700070393F1F07010000000001030303030358
:10098000030301000001030303030303010000004C
:100990000303030000030303001010100000000015
:1009A000550000003E635D5D637F417B77413E0003
:1009B000001C22221C003E0A003E0A00322A3C0093
:1009C00026281E001C2A2C0000003F0936000000CB
:1009D0001E212100000000003F0837001E212100D9
:1009E0001E2121003F090600213F21002225190078
:1009F0001E2121003F0936003F211E00213F21001A
:100A00000F300F003E093E003F063F003F20200010
:100A100011241FBECFEFDAE0DEBFCDBF11E0A0E0B2
:100A2000B1E0E2E5FBE602C005900D92AE3EB107F3
:100A3000D9F726E0AEEEB1E001C01D92A23CB207AC
:100A4000E1F70E94A12A0C9459350C940000FC0196
:100A50009091B0048181981321C08091B1048823C2
:100A600019F0928189131AC08091B204882319F079
:100A70009381891313C08091B404882319F0958160
:100A800089130CC08091B304882351F091E0248134
:100A9000281301C090E0892F8170089581E0FCCF78
:100AA00080E0FACF482F2091AE049091650459E080
:100AB000291302C080E0089530E0529FF001539F57
:100AC000F00D1124EA59FB4F8181681306C0808123
:100AD000481303C085818111EECF2F5F3F4F2770F0
:100AE000E7CFE8EDF0E080818E7F80831092E20016
:100AF0001092DA001092E100A0EEB0E08C918160DB
:100B00008C9380818F77808319BCA7EDB0E08C91A6
:100B10008E7F8C9380818F7E808310924D04089508
:100B20002091E4003091E50095E6A9012091EC00C8
:100B3000822F817020FF06C08091E80080FF06C0F0
:100B400080E008952091E80022FD1AC080915B04A6
:100B5000882389F0853089F08091EB0085FD0FC0F6
:100B60002091E4003091E50042175307F9F29150CB
:100B7000E1F684E0089582E0089583E0089581E03D
:100B8000089580915D0487FF13C08091E80082FF83
:100B900006C08091E8008B778093E80004C08091C4
:100BA0005B048111F2CF089580915B048823D9F30F
:100BB0008091E80080FFF8CF8091E8008E77ECCF3D
:100BC000982F9093E900242F762F50E0891731F069
:100BD0007091EC002091ED005091F00021FD07C0D4
:100BE0009F5F973071F78093E90081E0089530911D
:100BF000EB003E7F3093EB003091ED003D7F309372
:100C0000ED003091EB0031603093EB007093EC001D
:100C10002093ED005093F0002091EE0027FDE0CFEF
:100C200080E00895B0E0A0E0E8E1F6E00C94223422
:100C3000C8EDD0E088818F7E8883E7EDF0E0808189
:100C40008160808384E082BF81E080934D0488814D
:100C50008E7F888302EE10E0F80110821092DA0095
:100C600081EEC82ED12CF601108288818F7788837F
:100C700088818068888388818F7D888319BC1092E1
:100C80005B0410925C0410925A041092590490EE86
:100C9000E92EF12CF70180818B7F80838881816030
:100CA000888342E060E080E00E94E005F6018081F8
:100CB0008E7F8083F801808181608083808188605D
:100CC0008083F70180818E7F808388818061888323
:100CD000CDB7DEB7E8E00C943E34FC0180916304AC
:100CE0009091640486179707A0F06115710529F4A7
:100CF0009091E8009E779093E80090E0611571056F
:100D000051F4911108C08091E80082FF34C080E066
:100D10000895BC01F2CF80915B048823C1F1853036
:100D2000C1F18091E80083FD30C08091E80082FD30
:100D3000EACF8091E80080FFE1CF8091F30020911D
:100D4000F200382F6115710519F02830310558F07F
:100D500091E02830310509F090E02091E8002E77ED
:100D60002093E800CBCF81918093F100615071090D
:100D70002F5F3F4FE7CF80915B04882341F08530A0
:100D800041F08091E80083FFBECF81E0089582E0CA
:100D9000089583E00895089580915004089587E7A9
:100DA00097E7909301088093000888E19AE00FB6D6
:100DB000F894A895809360000FBE90936000FFCFD9
:100DC0002FB7F8946091490470914A0480914B04C4
:100DD00090914C042FBF0895DC01609142048091F2
:100DE0004304962F891301C00895292F30E0F9019B
:100DF000EE0FFF1FE65CFB4F408151814A175B07F6
:100E0000A1F487E08A9FA0018B9F500D11244F58B9
:100E10005E4F81E0FA0184839613E6CF2F5F3F4F48
:100E2000237033272093420408952F5F3F4F922F62
:100E30009370D8CF1092CE031092CD03E1E7F1E08A
:100E40008581811102C014821682379681E0E439CF
:100E5000F807B1F70895FC01680F791F8FEF91E350
:100E60002191822728E030E087FF09C0880F892779
:100E700021503109C9F7E617F70791F70895880F50
:100E8000F7CFFA01811101C0FB0109950895809106
:100E90009503982F9E7F71F48091950381708260F5
:100EA0008093950380919803873918F086E98093A1
:100EB00098030895843080F7F5CFCF93DF93EBE963
:100EC000F1E083819481A581B681E90188839983CA
:100ED000AA83BB831482138216821582DF91CF917D
:100EE000089580E0089563E070E08CE492E00E9451
:100EF0002B0790914B02891318C0E0914C02EC3003
:100F0000A4F488E0E802F0011124EF5FFE4F0680B0
:100F1000F781E02D309749F02FE632E040914E0204
:100F20006FE472E080914D0209950895E6E3F2E0E6
:100F3000878980933101808D809344010895F894CE
:100F4000E82FE295EF70F0E031A1282F2F7081E0BB
:100F500090E001C0880F2A95EAF7982F9095932387
:100F600091A392A1892B82A378940895811522E5FB
:100F7000920780F5811530E5930708F0ABC0883EF5
:100F80009105A0F4803E910558F4853A910548F406
:100F90008430910528F48130910511F090E080E0D3
:100FA00008958D3C9105D0F390650895811540E436
:100FB000940708F044C0811550E2950708F0A3C0DB
:100FC000811561E0960750F320E0392FA901482BE5
:100FD000CA010895803872E59707A8F4803622E5A3
:100FE000920708F05AC0803432E5930708F03FC0FA
:100FF000803242E5940730F18F7190E0982F882776
:10100000816F906A0895803C52E5950760F4282F1F
:101010002F71803A924508F456C0822F90E0982FA5
:10102000882790620895803E72E5970708F0B6CF52
:10103000982F882788279F71806F906A08959F70E6
:10104000906A0895282F2695269550E2259F9001B5
:101050001124837041E050E0BA0102C0660F771F8F
:101060008A95E2F7CB01822B932B9D680895282F58
:1010700026952695277070E2279F90011124837092
:1010800041E050E0BA0102C0660F771F8A95E2F78F
:10109000CB01822B932B9C680895282F26952695AB
:1010A000277070E2279F90011124837041E050E087
:1010B000BA0102C0660F771F8A95E2F7CB01822B37
:1010C000932B9A680895822F90E0982F8827846F39
:1010D000906A08959C0195E0369527959A95E1F7D9
:1010E0002F7030E0322F2227482F4F7150E084FFBD
:1010F00005C084E0440F551F8A95E1F7C901842B90
:10110000952B906908959F718CCF809590914E0496
:10111000982390934E0408958091AE0490916504B5
:10112000981301C008958F5F8770FACF292F9830E8
:1011300078F5863068F590E036E0239F800D911DAC
:101140001124682F677023E0969587952A95E1F71B
:10115000FC01EE0FFF1FE80FF91FED5FFD4F50E0A0
:1011600040E080E0219130E0062E02C036952795C0
:101170000A94E2F721703327042E01C0220F0A944B
:10118000EAF7822B4F5F5F4F4330510559F70895BF
:1011900080E00895292F983098F5863088F590E002
:1011A00036E0239F800D911D1124282F277041E0E8
:1011B00001C0440F2A95EAF723E0969587952A9572
:1011C000E1F7FC01EE0FFF1FE80FF91FED5FFD4F88
:1011D00030E020E070E05191DF011197CB01022E49
:1011E00002C0969587950A94E2F7817081958527CC
:1011F000842385278C932F5F3F4F2330310559F788
:101200000895809328020895982F92959F7011F069
:10121000892F94E0282F2695269511F09E5F822F26
:10122000869509F09F5F892F0895CF93C82F8091ED
:10123000A8018C1751F00E94E0066093A9017093F9
:10124000AA018093AB019093AC01C093A801CF9108
:101250000895B0E0A0E0EFE2F9E00C9422348C01B4
:10126000EB01E091AD01E11101C0E7E0E150FF0BBE
:1012700081E090E06C010E2E02C0CC0CDD1C0A94C3
:10128000E2F7D801ED90FC90C701B6010E946934E5
:101290009B01CB010E2E02C0880F991F0A94E2F722
:1012A000E81AF90AD8011196FC92EE921296ED9086
:1012B000FC90C701B6010E946934CB0102C0880FBF
:1012C000991FEA95E2F7E81AF90AF801F382E28237
:1012D0006138FFEF7F07F4F060387105ECF46D833F
:1012E00021388FEF3807D4F020383105CCF4822F25
:1012F00081958C83442319F061956D832C838091B3
:10130000AE01882379F0813079F0CDB7DEB7E8E01F
:101310000C943E3461E8E3CF6FE7E1CF21E8E7CFFB
:101320002FE7E5CF1D82F1CF1C82EFCFFC01DB015F
:101330002281338191E821388FEF38072CF0922FEA
:10134000203831050CF09FE712969C93129720816C
:10135000318121388FEF3807A4F0203831059CF413
:1013600013962C931397442339F0919512969C93DE
:101370001297219513962C93118210821382128258
:10138000089521E8EDCF2FE7EBCF382F20E287FF3C
:1013900002C031952DE24AE0832F642F0E945B3416
:1013A000905D9093FB0181110BC02093FA0120E224
:1013B0002093F90120E22093F80188EF91E008954D
:1013C000642F0E945B34905D9093FA01832F64E652
:1013D0000E945B34882361F3805D8093F901EBCF39
:1013E0009C01860F971F37FD07C077FD04C097FF4C
:1013F00002C08FEF9FE7089577FFFDCF97FDFBCFEA
:1014000080E090E80895CF9382ED92E00E94270556
:10141000C82F882379F0E0914604F0914704309773
:1014200049F082E08093AF040480F581E02D8FEADB
:1014300094E009959091B00486E0EFEAF4E0DF01D2
:10144000282F1D922A95E9F79093B004A2EDB2E0FF
:1014500001900D928A95E1F781E0C11103C09111CD
:1014600001C080E08170CF9108952FE2280F2830CD
:1014700078F481E090E001C0880F2A95EAF7209186
:10148000B004662331F0822B8093B0040E94030ADB
:10149000089580958223F8CFCF93DF93282F81E0A2
:1014A0002A3019F02D3031F480E00E94E00ADF91FB
:1014B000CF9108958091BE069091BF0636E0FC0161
:1014C000A8EBB6E001900D923A95E1F730EE320FBD
:1014D000343A08F458C026E0FC0111922A95E9F745
:1014E000C091BE06D091BF0646E050E0BE0188EB39
:1014F00096E00E94EB349E01285B3440892B41F139
:10150000C90145E0969587954A95E1F741E050E09D
:10151000BA0102C0660F771F8A95E2F7CB0160918E
:10152000B6047091B704862B972BB9016B5F7F4F80
:10153000E5E076956795EA95E1F702C0440F551FFF
:101540006A95E2F7842B952B9093B7048093B604A9
:101550002A5F3F4F4091B504642F70E0C9010E949B
:101560000434481B463010F4240F311D211572E05D
:10157000370710F030E020E028543B4F3093BF068F
:101580002093BE0694CF2052330B46E0429FB00119
:10159000439F700D1124685C794F46E050E00E9433
:1015A000E2349ECFCF93DF93EC01FE018491811151
:1015B00003C0DF91CF9108950E944C0A2196F5CF88
:1015C000CF93382FE091BE06F091BF06E85BF44060
:1015D0002091B504622F70E0CF010E940434281BD3
:1015E000822F332361F066E00E944F34C82FC15030
:1015F00010F4CF91089580E20E944C0AF8CF9F0129
:10160000280F311D2115324018F080E0F0E0E0E0B5
:101610008E0F9F2F911D88549B4F9093BF068093F0
:10162000BE06E7CF80914E049091CF03892B809323
:10163000F00190912702992391F0892B8093F0017A
:1016400020E082EF91E0FC013191CF0131112F5F59
:10165000F1E0883F9F07B9F721111092270248E077
:1016600050E06FE172E080EF91E00E94EB34892B53
:10167000A9F088E0E0EFF1E0AFE1B2E001900D9277
:101680008A95E1F7E0914604F0914704309731F0F4
:101690000280F381E02D80EF91E009950895E2EF5B
:1016A000F1E086E0DF011D928A95E9F71092CF0301
:1016B0000E94120B0895AAE2B0E0E1E6FBE00C9470
:1016C00027348DE594E02091F100DC012D93CD01CC
:1016D000B4E085369B07B9F780915E04833009F446
:1016E00072C0B8F4813009F449C0823009F4B5C041
:1016F0008091E80083FF8DC280915D0490915E042B
:101700009A3008F086C2E92FF0E0E55AFA4C0C94C2
:101710009F348A3009F490C08B3009F471C089304D
:1017200039F780915D04813219F7809161049091BD
:101730006204009711F00297D9F68091E800877F44
:101740008093E8008091E80082FF38C09091F30018
:101750008091F200029731F48091F100813011F014
:10176000863021F48091F100809350048091E8004C
:101770008B778093E8000E94C105BACF80915D0409
:10178000813A09F0B5CF8091E800877F8093E80027
:101790008091610490916204892B61F468E081E595
:1017A00094E070E00E946D068091E8008B77809352
:1017B000E8009ECF60E090E080E0F3CF80915B0492
:1017C0008111C0CF95CF80915D04813A09F090CF0F
:1017D0008091610490916204892B09F089CF8091F6
:1017E000E800877F8093E8008091E80080FFFCCFCD
:1017F000809195018093F1008091E8008E77B9CFB8
:1018000080915D04813209F073CF809161049091E1
:101810006204892B09F06CCF8091E800877F809368
:10182000E8000E94C10580915F04809395011092A9
:101830004E040E944F0B5CCF80915D04813209F011
:1018400057CF8091E800877F8093E8000E94C10510
:101850008091600480934F044BCF80915D04813A66
:1018600009F046CF8091E800877F8093E80080915F
:10187000E80080FFFCCF80914F04BCCF803899F006
:10188000823809F0C6C1809161048F70873008F0FA
:10189000C0C18093E9008091EB0085FB882780F927
:1018A0001092E90006C08091590490915A04911158
:1018B00082609091E800977F9093E8008093F10018
:1018C0001092F1008091E8008E779FC1882309F47F
:1018D0008DC1823009F09DC180915F04811190C15A
:1018E000809161048F702FEF280F263008F091C18E
:1018F0008093E9002091EB0020FF82C1933031F406
:101900008091EB0080628093EB007AC19091EB00B4
:1019100090619093EB0021E030E001C0220F8A95A6
:10192000EAF72093EA001092EA008091EB008860C9
:10193000EACF81116EC110915F041F778091E3009F
:101940008078812B8093E3008091E800877F8093EB
:10195000E8000E94C1058091E80080FFFCCF8091E3
:10196000E30080688093E30082E0111183E08093BC
:101970005B044FC18058823008F04BC120915F0456
:10198000309160042C3DE3E03E07A1F583E08A83BB
:101990008AE289834FB7F894DE01139620E03EE097
:1019A00051E2E32FF0E050935700E49120FF03C091
:1019B000E295EF703F5FEF708E2F90E0EA30C0F05D
:1019C000C7968D939D932F5F243159F74FBF809118
:1019D000E800877F8093E8006AE270E0CE0101961C
:1019E0000E946D068091E8008B778093E80011C11A
:1019F000C096E7CF8091610490916204432F5527F0
:101A00004330510509F44AC078F54130510509F4D5
:101A10007AC08BE590E0EFE9F5E04230510509F03E
:101A2000F8C02091E800277F2093E800209163040C
:101A3000309164048217930708F49C0140E021155B
:101A4000310509F065C0411163C08091E80082FD55
:101A5000C9CF80915B04882329F2853019F28091E7
:101A6000E80083FFF2CFBECF4132510509F43CC0FC
:101A70004232510509F0CDC08330910508F0C9C04C
:101A8000FC01EE0FFF1FEE51FE4F0190F081E02DA3
:101A900081529E4FDC018C9190E01AC03327213097
:101AA0003105D1F02115310561F02230310509F001
:101AB000B0C0ECE0F6E0E4918E2F90E0ECE0F6E0D0
:101AC00007C0E4E3F6E0E4918E2F90E0E4E3F6E073
:101AD000009709F49EC0A5CFE2E2F6E0E4918E2FD4
:101AE00090E0E2E2F6E0F4CF8330910508F091C097
:101AF000880F991FFC01E851FE4F0190F081E02D05
:101B000089E090E08ECF82E190E0EAEFF5E089CFC6
:101B100080915B04882309F465CF853009F462CF96
:101B20008091E80083FD5ECF8091E80082FD8DCF3B
:101B30008091E80080FF83CF9091F3008091F200C4
:101B40002115310519F08830910550F041E00897D2
:101B500009F040E08091E8008E778093E8006FCF35
:101B600044914093F1003196215031090196E8CF1C
:101B7000803809F04EC08091E800877F8093E800AC
:101B800080915C048093F1009DCE811142C0109140
:101B90005F041230F0F58091E800877F8093E800C1
:101BA00010935C040E94C105112311F084E005C06C
:101BB0008091E30087FDFACF81E080935B0442E0EF
:101BC00061EC81E00E94E00542E261EC84E00E9469
:101BD000E00542E261EC82E00E94E00542E260EC56
:101BE00083E00E94E00580915B0413C080915F0454
:101BF000813079F481E0933009F080E080935A04D9
:101C00001092E9008091E800877F8093E8000E94AD
:101C1000C1058091E80083FF0AC08091E800877FBA
:101C20008093E8008091EB0080628093EB00AA969D
:101C3000E3E00C944334882321F00E9485080E943D
:101C4000120B0895882339F090914E04982B9093AD
:101C50004E040E94120B0895882349F19CEF980FBF
:101C6000913A80F4E2EFF1E028EF31E091918913AD
:101C700003C0DF0111971C922E173F07B9F70E948E
:101C8000120B089590E2980F983050F4877091E00D
:101C900001C0990F8A95EAF7892F0E948508EFCF36
:101CA00093E3980F933118F460E00E94350A089589
:101CB0000F931F93CF93C82F882341F18CEF8C0F84
:101CC000813AB0F502EF11E088EF91E0F80121913F
:101CD000C21701F18E179F07D1F7EFEF80E0D8010F
:101CE0009D918D01C91781F0EF3F19F4911101C049
:101CF000E82F8F5F863099F7EF3F31F00E2E000C02
:101D0000FF0BE051FE4FC2830E94120BCF911F9137
:101D10000F910895E2EFF1E02191C21303C0DF01BA
:101D200011971C928E179F07B9F70E94120BD5CFFF
:101D300080E28C0F883068F4C77021E030E001C089
:101D4000220FCA95EAF780914E04822B80934E04AD
:101D5000DBCF83E38C0F8331C8F661E08C2F0E94C8
:101D6000350AD4CF0F931F93CF93DF93EC01FC017F
:101D700001900020E9F78F0101501109C017D10728
:101D800028F0DF91CF911F910F91089589910E94C2
:101D90004C0AF4CF0F931F93CF93DF938B01EA018B
:101DA00090915B04943061F58093E9008FEF9091FE
:101DB000E800815095FD06C095ED9A95F1F7000079
:101DC0008111F5CF8091E80085FF1AC00E9490052F
:101DD000811111C08091E80085FD06C08091E80066
:101DE0008E778093E800F2CFF80181918F01809384
:101DF000F100219779F78091E8008E778093E800D1
:101E0000DF91CF911F910F91089546E050E0BC0102
:101E100084E00E94CA0E0895CF93DF93EC0148E05E
:101E200050E0BC0181E00E94CA0E88E0FE01A1E5FD
:101E3000B4E001900D928A95E1F7DF91CF9108957A
:101E4000609197018091950380FF20C08091960159
:101E500043E0849FC00111248F519D4F539A2BB1B1
:101E6000277F3BB138605FB7F894FC01649FE00DB9
:101E7000F11D1124BF0168177907D1F45FBF8FE509
:101E800094E00197F1F700C0000008958091980157
:101E90009091990123E0829FF0011124EF51FD4FB1
:101EA0008917A0F61182108212828F5F3396F8CFC5
:101EB000FC014191CF01E8E03BB9000000C047FFC1
:101EC0002BB9440F000000C000C000C02BB900C0F7
:101ED000EA9591F7D0CFE5E9F3E080818E7F8083AA
:101EE000EEEDF2E08281816082830E94200F0895EE
:101EF000B0E0A0E0EEE7FFE00C9420347C015B0151
:101F00006A018091A30201E010E08A3010F40AE037
:101F100010E0C1E0D0E0B501C701F60109958111DB
:101F200004C021960C171D072CF4CDB7DEB7EAE0EC
:101F30000C943C34CC9F9001CD9F300D300D11247A
:101F400090E080E045E34A95F1F7000001968217A2
:101F50009307C1F7E0CF80913502811119C088EC59
:101F600090E02091E30027FD10C0EFE3FCE93197FA
:101F7000F1F700C000000197A1F782E080933502DD
:101F80000E94710510925B0403C081E080933502CA
:101F900081E090913502913011F080E0089508952C
:101FA0000E94AB0F882359F0E0914604F09147045A
:101FB000309729F00190F081E02D0995089580E097
:101FC00008950F931F930E94AB0F882329F00E945E
:101FD000E0061F910F9108950E94E0060091A4026F
:101FE0001091A5022091A6023091A702600F711FE7
:101FF000821F931FEECF54985C9A879A8F9885E042
:102000008A95F1F7000089B187988F9A90EA9A959E
:10201000F1F790E024E0959587952A95E1F7809572
:10202000909581700895CF93DF9380919B01CEE1CD
:102030008111CDE180919C01D0E0882329F080912D
:102040009D01DEE18111DDE10E94FB0F81110FC0D6
:102050008D2F80939601C0939701CD0F1092980118
:10206000C0939901C0939A01DF91CF91089580E0C8
:10207000F0CF80919B01F90180830E941310089595
:102080001F93CF93DF93182FEB010E94580E8FE917
:102090009FE00197F1F700C000002197C1F7812F61
:1020A0000E942C0EDF91CF911F91089510924E0443
:1020B0000E944F0B2FEF84E39CE021508040904022
:1020C000E1F700C0000088E19AE00FB6F894A89507
:1020D000809360000FBE90936000FFCFCF93DF939B
:1020E000C9E0D2E060E0CE010E9425352196C115FD
:1020F00084E0D807B9F7DF91CF9108951F93CF936C
:10210000DF93122F8530E0F46830D0F44630C0F40D
:10211000C42FD0E0CC0FDD1F9CE0699FC00DD11D06
:10212000112490E6899FC00DD11D1124632FCE018B
:1021300089960E942535612FCE018A960E94253509
:10214000DF91CF911F910895AF92BF92CF92DF920E
:10215000EF92FF921F93CF93DF938FEBC82E83E014
:10216000D82ED0E07601C0E014C0F501259134915D
:10217000412F6C2F8D2F0E947E1082E0A80EB11C83
:102180001F5F163091F78CE0E80EF11CCF5FC8306E
:1021900019F0570110E0E9CFDF5F80E6C80ED11CCF
:1021A000D53001F7DF91CF911F91FF90EF90DF9035
:1021B000CF90BF90AF90089588E290E00E942535BF
:1021C0000895CF93C82F6FEF811166E285E290E00A
:1021D0000E9425356FEFC11167E086E290E00E9412
:1021E00025356FEFC11164E187E290E00E9425354B
:1021F000CF91089580E00E94E11060E070E0CB0193
:102200000E94DC100E94A4100E946E1081E00E94C7
:10221000E11008950F931F93CF93DF93853030F52E
:10222000683020F5463010F5C42FD0E0CC0FDD1F0C
:102230002CE0629FC00DD11D112430E6839FC00D9C
:10224000D11D1124CE0189960E940135082F10E07E
:10225000102F0027CE018A960E9401359801282B65
:10226000C901DF91CF911F910F91089590E080E017
:10227000F8CF462F783040F4663030F4853020F4C3
:10228000672F0E940A11089590E080E00895CF9290
:10229000DF92FF920F931F93CF93DF936C01009116
:1022A000A20380912802082BC4E0D0E010E0FC2EAD
:1022B000C8010C2E02C0959587950A94E2F780FD1F
:1022C0000CC02197A0F7F12C8F2DDF91CF911F919A
:1022D0000F91FF90DF90CF900895B6018C2F0E9450
:1022E00039110E94B607019761F3EECFCF93DF93C8
:1022F000EC010E944711BE010E9439110E94B607ED
:10230000DF91CF910895FC0184818823F9F08781C2
:102310009085009791F00E94B60792959F70963035
:10232000B9F080F4925F9F70923080F4803F19F092
:1023300058F4883E58F481E00895808191810E948C
:102340007611EBCF9A5FEFCF843FA9F380E0089539
:10235000883E88F3813FD1F7EECFA6E0B0E0E3EB13
:10236000F1E10C9427349C01FC0187819085009752
:10237000E1F486E0DE01119601900D928A95E1F775
:10238000F901258189819A81222399F0662389F0B8
:102390000E944711182F682F89819A810E94CA08CC
:1023A00069817A81812F0E9439112696E3E00C948D
:1023B00043340E949608182FF3CF88E290E00E94E1
:1023C0000135682F70E090E080E0089585E290E0AC
:1023D0000E940135863289F486E290E00E94013540
:1023E000873059F487E290E00E94013591E0843112
:1023F00009F090E0892F8170089580E0FCCFB0E073
:10240000A0E0E5E0F2E10C9422346C017B0164E68B
:1024100070E088E70E9462318C01E601EC0CFD1C43
:1024200017FD0BC0FE01849164E670E00E94CE317E
:102430008C012196CE15DF0599F70E94443281E088
:102440000115110509F080E0CDB7DEB7E8E00C9486
:102450003E348091C9039091CC03911103C091E067
:1024600089270895882369F062E070E082E893E0AC
:102470000E94FF11811103C08091C9030895109239
:10248000C9038091C903EBCFCF93C091C903809159
:10249000CC038823D1F00E94E006605A75418F4F2B
:1024A0009F4F6093C5037093C6038093C7039093B7
:1024B000C803C11108C062E070E080E893E00E94A8
:1024C000FF11811105C0C091C9038C2FCF910895D0
:1024D00081E08093C903F7CFB0E0A0E0E2E7F2E14A
:1024E0000C941E3449015A016B017C010E9447077C
:1024F0008401A4016A2D7B2D88E090E00E9437358D
:1025000094014A2D5B2DB601C70100E20E94C73439
:10251000622F84E290E00E942535CDB7DEB7ECE073
:102520000C943A34B0E0A0E0E8E9F2E10C941E34F7
:10253000182FC62FD42F822E0091950300FF50C074
:1025400080919603811308C080919703861304C07D
:1025500080919803841729F08091E0028260809333
:10256000E002E02FE695F0E0EB52FE4F8081809391
:10257000DE02802F8E7F8230E9F4ED2FD73908F00C
:10258000E6E9F0E0E058FD4FC1112FC02491F22F91
:10259000E22F00FF0FC0809198019091990133E0E4
:1025A000839FD0011124AF51BD4F891708F492C009
:1025B0000E94200F10939603C0939703D093980323
:1025C000882071F0209195036091990370919A038E
:1025D000312FAE0180919B0390919C030E946C125D
:1025E000CDB7DEB7ECE00C943A34EC2EF12CE4914C
:1025F0009E2ECE2ED12C26E0129FC00111242FEF4B
:1026000030E0B9010E940434812F90E0880F991FB7
:10261000F5E5F69FA001F79F500D1124841B950B43
:10262000B82EBB0CB80EA9014E195F094C9DC00114
:102630004D9D900D5C9D900D1124F92FCB9DA00117
:102640001124452F5527D901A41BB50BAC9DA00122
:10265000AD9D500DBC9D500D1124D901AB19B10990
:102660005D01AE9CD001AF9CB00DBE9CB00D11249D
:10267000AB2FBB272A1B3B0B2C9DD0012D9DB00DF2
:102680003C9DB00D11242B2F62307105A1F050F448
:102690006115710509F47DCF6130710581F0292F35
:1026A000F52F77CF6430710569F080F066307105E1
:1026B00009F46FCFF4CF2E2FE92FFB2F6ACF2E2FE7
:1026C000E52F67CF292FFE2FEB2F63CFE92FF92DB1
:1026D000252F5FCF1196EC9311972C931296FC93B4
:1026E00012978F5F139661CF20E00E949212089597
:1026F0000F931F93CF93C82F0E94040991E083305A
:1027000009F090E0892F0E9415094C2F50E070E0ED
:1027100060E0DB01CA01F4E0B695A795979587952F
:10272000FA95D1F70097A105B10531F1AC01BD01D2
:1027300084E08A019B01E2E036952795179507957D
:10274000EA95D1F7011511052105310519F08E5FC4
:10275000B901A8017695679557954795452B462B66
:10276000472B09F08F5F8230F9F040F4882371F035
:10277000813081F040E00BC080E0DBCF8330C1F0DE
:102780008430C1F74FEF6FEF85ED07C04FEF60E08A
:1027900080E003C04FEF6FEF80E80E9474138C2F2E
:1027A000CF911F910F9108954FEF6FEF8AEAF5CF08
:1027B0004FEF6FEF8FEBF1CF0E9478138093A2035E
:1027C00008959091A20321E030E0F90101C0EE0FDD
:1027D0008A95EAF7D90102C0AA0FBB1F6A95E2F7F2
:1027E000EA2B01C0220F4A95EAF7892F8E23E813BE
:1027F00005C0292B822F0E94DC13089520952923E0
:10280000F9CF21E030E001C0220F8A95EAF7209548
:102810008091A20382230E94DC13089590911E02EE
:102820008095892380931E02282F277069F48917C9
:1028300059F09091B30292FF07C0869586958695D0
:102840000E94011410921E02089521E030E001C0A0
:10285000220F8A95EAF78091A203822B0E94DC1353
:102860000895E5E9F3E043812FE0421B08F440E0DE
:1028700021E0628181810E9492120895E5E9F3E0EE
:1028800043812FE0420F08F44FEF21E06281818104
:102890000E9492120895E5E9F3E0628121E1621B52
:1028A00008F460E021E0438181810E949212089542
:1028B000E5E9F3E0628121E1620F08F46FEF21E0C6
:1028C000438181810E9492120895E5E9F3E08181BC
:1028D00021E04381628181510E9492120895E5E9CD
:1028E000F3E0818121E0438162818F5E0E94921238
:1028F000089580919903882319F08150809399035A
:10290000209195033091960340919703509198033D
:102910006091990370919A0380919B0390919C031D
:102920000E946C12089580919903833018F48F5F90
:1029300080939903209195033091960340919703DA
:10294000509198036091990370919A0380919B0331
:1029500090919C030E946C1208952091950320FF92
:1029600023C021702260209395038091E002816052
:102970008093E002662381F03091960340919703A3
:10298000509198036091990370919A0380919B03F1
:1029900090919C030E946C12409198036091970360
:1029A000809196030E9474130895809195038695F3
:1029B000815009F481E061E00E94AD14089561E066
:1029C00081E00E94AD140895E5E9F3E083E080839F
:1029D00011828FEF828386E983831482AEEDB2E0A9
:1029E00012968C911297836012968C93758123E0D6
:1029F00030E04FEF56E960E0868197810E946C12CB
:102A000008959091B30292FB222720F9281779F0BC
:102A100080FB92F99093B3026091B2027091B3027D
:102A200084E090E00E94433582E00E940E140895F5
:102A300090E080E00E940F35863E9E4F19F40E9480
:102A4000E611089580E00895B0E0A0E0EAE2F5E143
:102A50000C9423347901C82F880FDD0B41155105E3
:102A6000A9F0FE0193E0EE0FFF1F9A95E1F7EF5FEB
:102A7000FE4F818192818A5C9D4F208130E0421718
:102A8000530708F49A01A9010E94F834CE010E946C
:102A90008E33D82E8823D1F001151105B9F083E0CB
:102AA000CC0FDD1F8A95E1F7FE01EF5FFE4F4381FA
:102AB00050E00417150708F4A801CF5FDE4F6C81C2
:102AC0007D816A5C7D4FC7010E94F8348D2DCDB7A2
:102AD000DEB7E7E00C943F34A5E0B0E0E2E7F5E1D3
:102AE0000C9420348D83E62E5A01F22E68018091D9
:102AF000A3028A3028F080E02596EAE00C943C346A
:102B00008D818930C4F31A8219828A836B832C8366
:102B100063E070E0CE0102960E942B078983E09269
:102B20003101F092440110E000E030E020E044E0A8
:102B300050E0BE016F5F7F4F85E00E94241588231F
:102B4000D1F24E2D50E030E020E0B50186E00E9449
:102B50002415882381F230E020E041E050E0BE01FE
:102B60006B5F7F4F87E00E942415882321F20F2D91
:102B700010E0960150E040E070E060E088E00E94E4
:102B80002415BACFA4E0B0E0E8ECF5E10C942634CB
:102B900040919702509198026091990270919A0227
:102BA0002FB7F8948091490490914A04A0914B0466
:102BB000B0914C042FBF841B950BA60BB70B11E0F3
:102BC00084369105A105B10518F10E94E10F6E5FF1
:102BD0007F4F8F4F9F4F69837A838B839C8310E055
:102BE00000E030E020E044E050E0BE016F5F7F4F46
:102BF00082E00E942415182F882351F00E94E006DD
:102C000060939702709398028093990290939A022E
:102C1000812F2496E4E00C944234A5E0B0E0E3E197
:102C2000F6E10C9424347B0101E010E09E012B5F5F
:102C30003F4F50E040E070E060E080E00E942415EB
:102C4000182F882309F456C04091930250919402A2
:102C500060919502709196022FB7F8948091490483
:102C600090914A04A0914B04B0914C042FBF841B57
:102C7000950BA60BB70B84369105A105B10548F459
:102C800064E070E087E392E00E942B079D81891742
:102C900089F104E010E09E012F5F3F4F50E040E0DB
:102CA00070E060E081E00E942415082F64E070E08D
:102CB00087E392E00E942B0711E09D81981310E0BA
:102CC000102331F10E94E006609393027093940206
:102CD000809395029093960289819A81AB81BC8101
:102CE00080938F0290939002A0939102B0939202EE
:102CF00011E00EC08091370290913802A091390204
:102D0000B0913A0289839A83AB83BC831111E4CFDB
:102D100080918F0290919002A0919102B0919202C5
:102D2000F70180839183A283B383812F2596E6E008
:102D30000C9440348F929F92AF92BF92EF92FF9289
:102D40000F931F93CF937B01942FB901A801F70133
:102D500080809180A280B380EFB7F89400914904FD
:102D600010914A0420914B0430914C04EFBF081994
:102D700019092A093B09043611052105310518F402
:102D8000C1E0992381F010E000E030E020E00E94F3
:102D90002415C82F882339F00E94E006F7016083CC
:102DA0007183828393838C2FCF911F910F91FF901A
:102DB000EF90BF90AF909F908F900895A1E0B0E00A
:102DC000E4EEF6E10C9426348091C90389832091C6
:102DD0004A0290E041E02817190609F440E001E0BA
:102DE00010E09E012F5F3F4F6FE972E084E00E9488
:102DF0009A162196E4E00C944234ABE0B0E0E3E0B4
:102E0000F7E10C94263488E0E5E9F3E0DE01119661
:102E100001900D928A95E1F78091DE029091DF0298
:102E2000A091E00289879A87AB8741E08B85811169
:102E300001C040E00BE010E09E012F5F3F4F6BE9C7
:102E400072E083E00E949A1681111092E0022B96A4
:102E5000E4E00C944234A8E0B0E0E1E3F7E10C9444
:102E6000283466EE7EEF90E080E00E94433560E01B
:102E700082E090E00E94253560E083E090E00E94CF
:102E800025351092280260E074E184E090E00E9411
:102E9000433560E086E090E00E9425356FEF87E0E3
:102EA00090E00E94253540E050E0BA0188E090E0D3
:102EB0000E94373560E084E290E00E94253560E0B2
:102EC00087E190E00E94253560E08CE090E00E9470
:102ED000253560E08DE090E00E94253519821A8248
:102EE0001B821C821D821E821F82188648E050E0D1
:102EF00068E170E0CE0101960E94153540E050E097
:102F0000BA0180E290E00E94373580E00E94E11033
:102F10000E94FA1040E050E0BA018FE090E00E9479
:102F2000373540E050E0BA0183E190E00E94373548
:102F30002896E2E00C94443428E030E043E060E07E
:102F400086E30E948A300895CF93DF93D82FC62F4F
:102F50000E949C178D2F80680E9402318C2F0E9446
:102F600002318AEB8A95F1F700C00E94323183E486
:102F700092E00197F1F700C00000DF91CF91089532
:102F8000682F893708F068E76093A60191E0909375
:102F9000A70190919B01992339F06150811101C0E3
:102FA00064E08FE00E94A4170895FB0180810E94D5
:102FB000C01708959091A601911101C095E0282FA6
:102FC000880F330BA901490F511DCA0118161906A4
:102FD00014F081E090E00E94C0170895ACE0B0E0EA
:102FE000E4EFF7E10C9422344F83588769877A879E
:102FF0008B879C8780919B01882309F446C0809130
:10300000FD01811107C060E080E50E94A41781E006
:103010008093FD010E949C1780E50E9402318AEB9B
:103020008A95F1F700C00E941A310E941A310E945D
:103030001A317C010E941A3120E0E22AF82A0E940B
:103040001A318C010E941A3120E0022B182B0E94A9
:10305000323185E08A95F1F70000F894B70180914C
:103060009E0190919F010E94F00990939F0180938F
:103070009E01B8018091A0019091A1010E94F009E8
:103080009093A1018093A00178940E94AB0F8823B4
:1030900009F469C00E94E0060091FE011091FF0151
:1030A00020910002309101026B017C01C01AD10A0B
:1030B000E20AF30A9701860108301105210531055E
:1030C00008F451C06093FE017093FF0180930002E9
:1030D000909301020091A9011091AA012091AB01E6
:1030E0003091AC01601B710B820B930B6233710545
:1030F0008105910580F410929F0110929E0110921B
:10310000A1011092A0011092A3011092A2011092AD
:10311000A5011092A4011091A8010E94FB0F482F55
:10312000BE01695F7F4F8EE991E0112389F10E9412
:1031300029090091A80110919B010E94FB0F41E019
:103140004827BE01695F7F4F82EA91E0011719F1BC
:103150000E94290986E0FE013796A3EBB1E00190B9
:103160000D928A95E1F786E0FE013796DE01119611
:1031700001900D928A95E1F729813A814B815C811A
:103180006D817E8180E090E02C96E8E00C943E34E6
:103190000E949609CECF0E949609DCCFCF93C82F0C
:1031A0000E949C178C2F0E9402318FE792E00197BA
:1031B000F1F700C000000E941A31C82F95E09A95DF
:1031C000F1F700000E94323185E68A95F1F70000A0
:1031D0001092FD018C2FCF910895CF93DF930E9421
:1031E0008230269A0E949C176AE58AE30E94A417FF
:1031F0002FEF80E792E0215080409040E1F700C03F
:10320000000082E00E94CE1883E00E94CE1884E085
:103210000E94CE1885E00E94CE1886E00E94CE184B
:1032200060E080E10E94A41780E00E94CE18D82FB1
:1032300081E00E94CE18C82F0E943231D23419F496
:1032400081E0C13009F080E0817080939B01882388
:1032500021F064E08FE00E94A417DF91CF910895E0
:103260001F920F920FB60F9211242F933F934F93FB
:103270005F936F937F938F939F93AF93BF93CF93FE
:10328000DF93EF93FF93D091E900DF708091EC0022
:10329000C82FC17080FDC0E81092E9008091F00055
:1032A000877F8093F00078940E945B0B1092E90076
:1032B0008091F00088608093F000CD2BCF70C09398
:1032C000E900FF91EF91DF91CF91BF91AF919F9175
:1032D0008F917F916F915F914F913F912F910F90BF
:1032E0000FBE0F901F9018951F920F920FB60F925E
:1032F00011242F933F934F935F936F937F938F93FB
:103300009F93AF93BF93EF93FF938091E10082FF70
:1033100009C08091E20082FF05C08091E1008B7FAF
:103320008093E1008091DA0080FF24C08091D80072
:1033300080FF20C08091DA008E7F8093DA00809138
:10334000D90080FF9DC080E189BD82E189BD09B4BB
:1033500000FEFDCF81E080935B0480914D048111DC
:1033600009C00E9471050E9412068091E2008460EB
:103370008093E2008091E10080FF17C08091E2001D
:1033800080FF13C08091E2008E7F8093E2008091E5
:10339000E20080618093E2008091D8008062809397
:1033A000D80019BC85E080935B048091E10084FF24
:1033B0002BC08091E20084FF27C080E189BD82E1BB
:1033C00089BD89B5982F917080FFFBCF8091D8007F
:1033D0008F7D8093D8008091E1008F7E8093E10003
:1033E0008091E2008F7E8093E2008091E200816014
:1033F0008093E20080915C04882309F447C084E054
:1034000080935B0480915B048091E10083FF27C07F
:103410008091E20083FF23C08091E100877F809349
:10342000E10082E080935B0410925C048091E100F3
:103430008E7F8093E1008091E2008E7F8093E20096
:103440008091E20080618093E20042E060E080E0F1
:103450000E94E0058091F00088608093F000FF9169
:10346000EF91BF91AF919F918F917F916F915F91FC
:103470004F913F912F910F900FBE0F901F90189575
:1034800019BC10925B0410924D0474CF8091E3003C
:1034900087FD93E090935B04B5CF78941F921FB69D
:1034A0001F9211248F939F93AF93BF9380914904F0
:1034B00090914A04A0914B04B0914C040196A11D37
:1034C000B11D8093490490934A04A0934B04B09398
:1034D0004C04BF91AF919F918F911F901FBE1F9081
:1034E00018959C014FB7F8948091490490914A0433
:1034F000A0914B04B0914C044FBF821B930B0895D5
:103500002FB7F8948091490490914A04A0914B04FC
:10351000B0914C042FBF08952F923F925F926F920B
:103520007F928F929F92AF92BF92CF92DF92EF9253
:10353000FF920F931F93CF93DF938091CC03882347
:1035400009F434C18091CA039091CB030E94711A8F
:10355000C29708F40BC10E94801A9093CB0380930A
:10356000CA0388EB94E09093BF068093BE060E9446
:10357000AB0F882309F432C18AE893E00E94D20A93
:1035800088EB0E944C0A8091B2018F708A3008F05B
:103590006CC0805D0E944C0A89EB0E944C0A8091AD
:1035A000B1018F708A3008F062C0805D0E944C0AC1
:1035B00087E893E00E94D20A8091AF019091B00118
:1035C00064E0969587956A95E1F78F708A3008F0E8
:1035D00050C0805D0E944C0A8091AF018F708A308C
:1035E00008F049C0805D0E944C0A84E893E00E9484
:1035F000D20A89EB91E00E94B20E8FEA93E00E941A
:10360000D20A8091B5010E94C5090E94B20E809134
:10361000B6010E94C5090E94B20E8091B8010E94B5
:10362000C5090E94B20E8091B7010E94C5090E948F
:10363000B20E87EA93E00E94D20A8091A60181111E
:1036400001C085E00E94C50901960E94B20E83EA7E
:1036500093E00E94D20A8091AE01882371F08130FC
:1036600009F4B6C08AE993E00AC0895A93CF895A0F
:103670009DCF895AAFCF895AB6CF80EA93E00E9496
:10368000D20A8091A801882309F4A5C087E993E0B4
:103690000E94D20A80E993E00E94D20A8091AD0193
:1036A000811101C087E0805D0E944C0A85EB93E0A8
:1036B0000E94D20A8091A2030E940409909169019C
:1036C000891305C09091A103903209F44BC08093F7
:1036D000690190E29093A103C82ED12CF12CE12C2A
:1036E0001092A003C701B6012AE030E040E050E0AC
:1036F0000E947D34605D603331F0C114D104E10477
:10370000F10409F460E260939F0360E22AE0C216CC
:10371000D104E104F10490F05AE0852E912CA12C03
:10372000B12CC701B601A50194010E947D34CA01E4
:10373000B901A50194010E947D34605D60939E03F0
:1037400020E264E6C616D104E104F10448F0C701A2
:10375000B60124E630E040E050E00E947D34205D78
:1037600020939D038DE993E00E94B20E8091B604F0
:103770009091B704892B09F047C08091C903882331
:10378000A9F00E94E0060091C5031091C6032091A4
:10379000C7033091C803601B710B820B930B6F3F03
:1037A0007F4F8F4F9F4710F40E942912DF91CF91D6
:1037B0001F910F91FF90EF90DF90CF90BF90AF904F
:1037C0009F908F907F906F905F903F902F90089583
:1037D0008DE993E054CF84E993E05ACFC0E9D0EF6C
:1037E000DC0F8CEB93E00E94D20A11E01D0F8D2FAD
:1037F0000E944C0AD12F1C13F8CF80E00E94E00AEF
:10380000C05FC03C61F7B2CF8091CC03882309F43C
:10381000B4CF8091C4038111B0CF0E944412209193
:10382000B6043091B7042115310509F4A6CF80E024
:1038300041E050E0082F10E01A01082E02C0220CCF
:10384000331C0A94E2F7B10162237323672B11F44E
:103850008F5FF0CF9091C30390FF95C0880F880FC2
:10386000880F80936C0110926F01895F80936D01C6
:1038700083E08093700124E630E047E050E06AE6A0
:1038800071E088E70E94FC31892B09F076CFA8010E
:1038900025E0440F551F2A95E1F78091C30380FF6F
:1038A00084C0E3EAF3E080E2DF011D928A95E9F744
:1038B000ABEDB1E007ED11E08FEDC82E81E0D82E21
:1038C00097E0592E772473948D91E80129918E0108
:1038D000240F352F311D28543B4FE82FF0E0ED55D4
:1038E000FC4F90E080E0652C681A872C082E01C000
:1038F000880C0A94EAF77901A12CE701B9907E01BE
:10390000B820662D6A196770962E062E000C770B6C
:10391000DB2D01C0DD0F9A94EAF77195619571096D
:103920006770772701C0B6946A95EAF7BD2A60816F
:10393000962E9B289082A39468E0A612DECF019673
:1039400031968830910579F6CA16DB0609F0BCCFAE
:1039500004E610E020E230E043EA53E060E488E768
:103960000E941D32892B09F008CFE101C095D09546
:103970008091B6049091B704C823D923D093B7049B
:10398000C093B604FACE8295880F807680936C013E
:103990009801369527953695279520936F01815E7E
:1039A00080936D012093700166CF48545B4F04E60D
:1039B00010E020E230E0D2CFA3E1B0E0E2EEFCE1A3
:1039C0000C941D348E01045F1F4F88E0D8011D92B6
:1039D0008A95E9F783ECC82E81E0D82EF12CE12CF2
:1039E000AA24A394B12C2DEC822E21E0922EF60174
:1039F00081916F018F3F09F442C0F894E82FE2955E
:103A0000EF70F0E021A18F70A50102C0440F551F97
:103A10008A95E2F7CA01922F982B91A392A18095E3
:103A2000892382A3789400C0E7ECF1E0712C31E0A7
:103A300021912F3F09F46BC0A22FA295AF70B0E087
:103A400090968C9190E02F7002C0959587952A955D
:103A5000E2F780FD5CC0832F782A330F8E169F0615
:103A600039F7F601319780818F3F11F00E949F074F
:103A700050EA5A95F1F7F801EE0DFF1D70828FEFB5
:103A8000E81AF80AA4E0EA16F10409F0B0CF48E019
:103A900050E0B80188EA92E00E94EB34009741F0D0
:103AA00028E0F801A8EAB2E001900D922A95E1F72A
:103AB0000091B102892B69F181E080932D020E946F
:103AC000801A90932C0280932B0280912B0290916C
:103AD0002C020E94711A059700F110E001541D4F4D
:103AE00044E050E068EA72E0C8010E94EB34B12C77
:103AF000892B51F084E0E8EAF2E0D80101900D92C0
:103B00008A95E1F7BB24B39410922D0207C080E0A0
:103B1000A3CF80912D028111D8CFB12C0E94AB0F81
:103B2000A82EE091B102882309F489C019821A8273
:103B30001B821C820E2F10E001541D4F8091A302A6
:103B40008A3008F046C04DE056E1BE016F5F7F4FFE
:103B5000C8010E94780F882309F460C042EC55E147
:103B6000BE016F5F7F4FC8010E94780F882309F460
:103B700055C04DEF56E1BE016F5F7F4FC8010E94F7
:103B8000780F882309F44AC04EED56E1BE016F5FFD
:103B90007F4FC8010E94780F882309F43FC010921C
:103BA000A3028091B00290E044E050E0BE016F5F5C
:103BB0007F4F81549D4F0E94EB3421E020933402CB
:103BC000892BF1F4A12C8A2D8B296396EDE00C94BE
:103BD000393480912E0290912F020E94711A843FF5
:103BE000914008F0B0CF80913402882359F384E0EB
:103BF000FE013196DF011D928A95E9F71092340299
:103C0000E091B002F0E0E154FD4F89819A81AB81EF
:103C1000BC8180839183A283B383D5CF8091A3029B
:103C20008F3F31F08F5F8093A3028A3008F4B9CFC1
:103C30000E94801A90932F0280932E02D4CFF0E03E
:103C4000E154FD4F84E0A7E3B2E001900D928A9524
:103C5000E1F764E070E087E392E00E942B07809335
:103C60003602C0903B02D0903C02E0903D02F090C2
:103C70003E028091300290913102A0913202B091C7
:103C80003302C816D906EA06FB06D1F0C09230020C
:103C9000D0923102E0923202F09233020E94AB0FD6
:103CA00081110EC00E94E006C61AD70AE80AF90A76
:103CB000C092A402D092A502E092A602F092A702BE
:103CC0008BE0EFE3F2E0DE01119601900D928A9510
:103CD000E1F79981892F86950A81FB80EC801B850D
:103CE000109249021123A1F010FF0AC090FF17C0E3
:103CF0009091950391609093950360E00E94AD14BC
:103D000011FF06C020E04E2D6F2D802F0E949212D1
:103D100080914A02882331F00E94441254CF0E94BD
:103D20006B0FEECF0E9429124ECF81E00E94251426
:103D30000E94801A9093DB028093DA0282E08093E3
:103D4000DC020895AEE1B0E0E8EAFEE10C9428342C
:103D50004091AF045091B0046091B1047091B204ED
:103D60008091B3049091B4040E94EE172093AF04A5
:103D70003093B0044093B1045093B2046093B30401
:103D80007093B40486E0EFEAF4E0DE011796019048
:103D90000D928A95E1F786E0FE013796DE011D96C9
:103DA00001900D928A95E1F786E0FE013D96DE01D5
:103DB000119601900D928A95E1F786E0FE01319609
:103DC000AFEAB4E001900D928A95E1F786E0EFEA60
:103DD000F4E0DE01599601900D928A95E1F786E0B4
:103DE000FE017996DE01179601900D928A95E1F712
:103DF0008B8D2C8D382F322B9091DC02332309F4DC
:103E000073C0923029F1933049F1913009F05EC0CE
:103E1000082E000C990B97FF03C09195819591098D
:103E2000022E000C330B37FF03C031952195310969
:103E3000820F931F2091D8023091D902820F931FD5
:103E400084319105E4F59093D9028093D80206C09D
:103E50000E94801A9093DB028093DA0286E0FE01D2
:103E60003796DE01119601900D928A95E1F786E072
:103E7000FE013196DE01539601900D928A95E1F78D
:103E800086E0FE017396DE01179601900D928A95E9
:103E9000E1F786E0FE013796AFEAB4E001900D92BB
:103EA0008A95E1F70E94030A811145C08091DD02E5
:103EB0001092DD0281706E96E2E00C944434109210
:103EC000D9021092D8020E94951EC8CF0E94801A73
:103ED0009093DB028093DA0281E08093DC021092FF
:103EE000D9021092D802BACF9230A9F0933009F4D7
:103EF000B5CF913049F48091DA029091DB020E94B3
:103F0000711AC39708F4AACF1092D9021092D8025E
:103F10001092DC02A3CF8091DA029091DB020E9422
:103F2000711A8131974208F499CF1092DC0281E036
:103F30000E94011493CF81E090E0BACFA4E1B0E0F9
:103F4000E4EAFFE10C941A347C01DC0114968C91B4
:103F5000882309F4B0C061E0C7010E94AD118C0153
:103F6000F7018581882309F460C1C801975780381B
:103F7000910508F05AC1003108F08DC08FEF93E031
:103F80000E940135811187C059E0A52E52E0B52E5F
:103F900001114EC0FE01339686E0DF011D928A9525
:103FA000E9F74AE0442E85010F5F1F4FC5010E94CB
:103FB000013589831A82882309F46DC0813009F0A4
:103FC0007EC06501B2E0CB0ED11CC8010E94013554
:103FD0008A83882309F45FC09FEF980F9330B0F570
:103FE000E3E0AE0EB11CC6010E9401358B8388232D
:103FF00009F451C01C828E010F5F1F4FD8012C9114
:10400000222389F2213009F0B2C011969C911197B8
:1040100012968C91913009F054C00E5F1F4F65E0ED
:1040200070E0893311F460E570E00E9440104FC0E9
:10403000A114F4E0BF0679F1C5010E940135811198
:1040400001C001502FEFA21AB20AA2CF560184304C
:1040500091F602E010E05601FFEFAF1ABF0AC60169
:104060000E940135E1E0F0E0EC0FFD1FE00FF11FD1
:104070008083882381F08C3741F4E2E0F0E0EC0F9C
:10408000FD1FE00FF11F1082B6CF0F5F1F4F6501BC
:104090000730110501F780911E02877061F0D7018A
:1040A00015968C91882339F08091B30282FF03C06A
:1040B00082E00E940E146496E0E10C9436345801BC
:1040C0009ACF923029F50E5F1F4F0E94580E0F5F56
:1040D0001F4F8FE99FE00197F1F700C00000AFE9A3
:1040E000BFE01197F1F700C00000EFE9FFE0319762
:1040F000F1F700C000008FE99FE00197F1F700C0E1
:104100000000AFE9BFE01197F1F700C0000076CFE3
:10411000933029F40E5F1F4F0E942C0ED8CF94309D
:1041200019F00F5F1F4FD3CF0E5F1F4F30E020E01D
:10413000B8016F5F7F4FF80141818053990B8A303E
:10414000910550F02150310910F28FE99FE001975D
:10415000F1F700C00000F6CF429EF001439EF00D43
:1041600011249C012E0F3F1F842F8B01E1CFE22FE2
:10417000F0E0E755FE4F5490822F86958695869500
:1041800090E0FC01E756FE4F64902770712C022EE0
:1041900002C0759467940A94E2F7A1E06A2277243A
:1041A000FC01E757FE4F8490912C022E02C095949B
:1041B00087940A94E2F7B1E08B229924FC01E75836
:1041C000FE4FC490D12C02C0D594C7942A95E2F733
:1041D000E1E0CE22DD246114710419F081EE0E9429
:1041E000580E8114910419F086EE0E94580EF9E3DE
:1041F00065E070E05F1202C060E570E0852D0E940E
:1042000040108114910419F086EE0E942C0E611466
:10421000710419F081EE0E942C0EC114D10409F42E
:1042200056CF65E070E08CE200CF1093B0010093B0
:10423000AF01F701808191819093B2018093B10128
:10424000F8013497E533F105B8F4E75DFD4FE491EB
:10425000D70115968C9120EB811102C02E2FE0EB37
:10426000A9EBB1E090E080E03D91321349C0855662
:104270009E4FDC015E96EC93A80140545E47F70127
:1042800025814330510508F046C086E0EFEAF4E0AE
:10429000DE01199601900D928A95E1F786E0FE0104
:1042A0003996DE011F9601900D928A95E1F71A85E5
:1042B00081E090E001C0880F4A95EAF7222331F1AE
:1042C000182B83E08093DC02188B86E0FE013F967A
:1042D000DE01119601900D928A95E1F7CE010196CB
:1042E0000E9427058093DD0286E0FE013196AFEA49
:1042F000B4E001900D928A95E1F70E94030ACBCEBB
:1043000001968630910509F0AFCFB6CF809518237E
:104310000E94951ED9CF222329F01092DC0281E061
:104320000E940114C8019A9581159F41C8F4F801B3
:10433000FF27D70115968C91E13DF10538F0E93D55
:10434000F10580F0E730BEE7FB0711F1882371F03B
:10435000FE57E031F10550F4EB59FA4C0C949F34C0
:10436000F801E7CF682F8E2F0E94350AF70185816B
:1043700081113AC380914E048272F801E052F847ED
:10438000E531F10508F0B1C0EB58FA4C0C949F34BC
:104390000E941509EBCF80E00E94C0171092AD017A
:1043A0007ACE4091A6015091AD0150FB47F9569548
:1043B00053708091AE018370880F880F582B60E096
:1043C00070E08FE090E00E94373565CE81E00E947A
:1043D000DA1761CE8FEFFBCF8AE0F9CF86EFF7CF08
:1043E0009091A80181E089270E94150954CE8091FF
:1043F000AD01811101C087E08F5F18160CF081E0DC
:10440000883008F087E08093AD0145CE8091AD0102
:10441000811101C087E08150F0CF81E08093AE012F
:104420003ACE1092AE0137CE82E0F8CF809195035C
:1044300080FF1CC0282F2E7F209395033091960378
:1044400040919703509198036091990370919A035A
:1044500080919B0390919C030E946C128091E002DA
:1044600081608093E0020E94200F15CE81608093CE
:10447000950361E086950E94AD140DCE45ED54E1A3
:104480006FED74E10E94410706CE4FED54E165EDFA
:1044900074E1F8CF45E654E16FE674E1F3CF4FE6FF
:1044A00054E165E674E1EECF4BE454E168E574E174
:1044B000E9CF48E554E16BE474E1E4CF41E354E132
:1044C0006EE374E1DFCF4EE354E161E374E1DACFF0
:1044D00049E754E163E974E1D5CF43E954E169E781
:1044E00074E1D0CF61E081E0C6CF0737FCE71F075A
:1044F00009F44EC008372CE7120709F44DC0F70144
:1045000087819085009709F488C00E94B6078C01C6
:10451000F701A580968092943FE0932280911E023D
:104520008770F1F0CA2CAA20E1F0812F807F8034BF
:1045300051F080E2800F883098F0911004C0812FF4
:10454000807E803269F08091B30282FF09C082E0F0
:104550000E940E1480911E028770CC24C394811196
:10456000C12CB12EB2942FE0B222FBE0FB1508F46F
:10457000CBC0EB2DF0E0E657FA4C0C949F3481E071
:104580000E94251443E062E081E00E94E11383CDA4
:1045900081E00E940114F6CF82E0FBCF03303CE7BC
:1045A000130741F150F401159CE71907A1F0013000
:1045B0001C4709F0A4CF0E9456100B35BCE71B071F
:1045C00051F10C35ECE71E07E1F00A351C4709F004
:1045D00096CF81E01DC010924E040E944F0B2FEF2A
:1045E00034E38CE0215030408040E1F700C000000F
:1045F0000E94CF066FEF7FEF90E080E00E9443358E
:10460000DACF8091B30282FB882780F991E0892775
:104610000E94011574CF80E0FBCF8581008111815C
:10462000882369F0C8010E944711D82E682FC8015D
:104630000E94CA08B8018D2D0E94391166CFC801A9
:104640000E949608D82EF6CF212F2F70D22E107FE1
:1046500019F0D29490EFD922AA20B9F0DD2069F0A8
:1046600080E2800F883010F0011109C080914E0463
:10467000D82AD0924E040E94120B802F43C0809102
:10468000CF03D82AD092CF03F6CF802F0E942C0ED2
:10469000DD20D1F180E2800F883010F0011104C0DC
:1046A0008D2D0E94850806C0D0948091CF03D8221A
:1046B000D092CF030E94120B27C0312F3F70D32E10
:1046C000107F103219F0D29480EFD822002351F0DD
:1046D000013009F471C0AA2009F47DC0992009F4C1
:1046E00040C0CBCF8091B30282FD37C0AA2079F1C0
:1046F000DD2039F080914E04D82AD0924E040E94D9
:10470000120B80E00E94580EAB2DA850BB0B1497E3
:1047100010F40E94D00FCC20A9F080911E0280FDE1
:1047200011C0F70115828695869586950E942514FD
:10473000C7010E949E1F80911E02869586958695D0
:104740000E94011460E0C7010E94AD11B4CC80E06A
:104750000E942C0EDD20C1F2A3CFAA2099F0911067
:1047600004C08D2D0E94220ECFCF81E09812CCCFB5
:10477000809127029D2D9823D91631F2D82AD09204
:104780002702C2CF9110C0CF8D2D0E941B0E909199
:1047900027028D2D892329F08D2D809589238093E3
:1047A0002702809102029D2D982309F4ADCFD09469
:1047B000D822D0920202A8CFAA2029F095E099151C
:1047C00008F4A2CFCECFA4E0A91508F49DCF8D2D7B
:1047D0000E941B0E99CF9920D1F3093309F0FCC038
:1047E000BFEFE7EEF3E0B150E040F040E1F700C08A
:1047F0000000802F0E942C0E87CF6A2D802F0E94F0
:10480000350A82CF812F837089F5A1107DCF402F8B
:10481000429546954770440F440F802F8F70042EA9
:1048200001C0880F0A94EAF7202F207104FF07C007
:104830002FE030E001C0220F4A95EAF72095169547
:1048400016951370123069F050F43091280211302F
:1048500029F0822B83230E94010956CF832B822BC0
:10486000FACF282B809128028227F5CF8695AA209F
:1048700011F0812F8170882309F446CF402F429593
:1048800046954770440F440F802F8F70042E01C04F
:10489000880F0A94EAF7202F207104FF07C02FE049
:1048A00030E001C0220F4A95EAF72095169516953B
:1048B0001370123069F050F43091A203113029F0D6
:1048C000822B83230E94DC131FCF832B822BFACFF2
:1048D000282B8091A2038227F5CF1F70AA2029F0F0
:1048E000812F0E942514802F3DCF802F0E941B0E08
:1048F000812F0E94011408CF023F89F160F4003F2C
:10490000B9F0013F81F0AA2009F45AC09110B5CE48
:10491000812F8F7128C0033F49F1043FA1F7809197
:10492000B30282FD2FC0812F8F71AA2011F31BC00B
:10493000AA2081F094E0991508F4E6CE1F7181E079
:1049400090E0012E01C0880F0A94EAF79091A2032B
:104950008927B8CFA5E0A91508F4D6CEEFCF812FCF
:104960008F71A110C6CF0E942514CECE80E0AA2060
:1049700009F4A8CF1F7181E0012E01C0880F0A94AD
:10498000EAF7A0CFAA2089F01F71812F0E94251479
:104990008091B30282FF07C0B8E01B9FC0011124C1
:1049A000836080931E02812FDECF81E00E940E146F
:1049B000E1E0E91508F0A8CE82E00E940E14A4CE32
:1049C000992079F0093341F4FFEF27EE33E0F150FD
:1049D00020403040E1F70BCF8FE19EE40197F1F7E3
:1049E00006CF812F8F7185CF0737FCE71F0709F4AA
:1049F000C6CD08372CE7120709F0D0CD82E0C0CD34
:104A0000CF93DF9380911B02807F09F04DC080918E
:104A10001A02882309F448C0E091AE04509165045D
:104A2000C0911602D0911502609117027091180280
:104A300049E05E17C9F18E2F90E0E49FF001112448
:104A4000EA59FB4F2481222391F1489FF001499FAD
:104A5000F00D1124DF01AA59BB4F11962C9111972B
:104A60002C1325C02C912D1322C015962C9115972F
:104A700021111DC012962D913C91261B370B283C0D
:104A80003105A8F480911B028F70806180931B0216
:104A9000E459FB4F80818F708061808385E192E0D3
:104AA0000E949E1F0E948C08DF91CF910895FC0107
:104AB0003196E770BECFA8E1B0E0E1E6F5E20C94F4
:104AC0001E348C0186E0F801DE01539601900D92B0
:104AD0008A95E1F7F8018481E58095E1A92E92E0BD
:104AE000B92E90911902911128C0882319F1EE2056
:104AF000F1F0C8010E948311F82E8823C1F089E0EB
:104B0000F801D50101900D928A95E1F78091190283
:104B1000813031F480911502909116020E94761135
:104B20000E9400258F2D6896ECE00C943A34C80161
:104B30000E949E1FFF24F394F5CFD080C180828015
:104B40009380F0901A022091170230911802A4016C
:104B5000421B530BFF2009F40DC1483C510508F0DE
:104B6000B6C08823F9F29091160280911B02282F7B
:104B7000207F09F05FC0C9121DC090911502D912A3
:104B800019C040911C0250911D02278130854217A7
:104B9000530781F4E11048C08F70806180931B023D
:104BA00085E192E00E949E1F80911B02F80186839E
:104BB000F12CB8CFE11038C06C2D8D2D0E9452051C
:104BC0006C2D8D2D0E945205E82E8111F1CFDB8ACC
:104BD000CC8A8B899C890E947611292F22952F706F
:104BE000243058F49F70223088F0992399F0F8010E
:104BF0009681907F79F4FE2C95CF2A5F2F7022301A
:104C000068F0C8010E949E1FEF2CF5CF992311F088
:104C1000882389F3805E883070F3F3CF803F58F3A8
:104C2000815F833070F7E7CF80911B0281608093B2
:104C30001B02BECFC9121CC090911502D91218C018
:104C400040911C0250911D02278130854217530765
:104C500079F4E1100DC08683C8010E949E1F89E08F
:104C6000F801A5E1B2E001900D928A95E1F75ACFE3
:104C7000C8010E948311882309F459CFEE2009F45A
:104C800056CF80911B028032B8F0209115023091EE
:104C900016023B872A879D868C86909119029E87F3
:104CA0001F86888B80911C0290911D029A8B898BA4
:104CB000CE010A960E949E1F89E0F801A5E1B2E0AC
:104CC00001900D928A95E1F70E94002533CF9091D3
:104CD0001B02292F207F51F485E192E00E949E1F44
:104CE00089E0F50111928A95E9F762CF882309F4EA
:104CF00019CF809116028C1119C080911502D8121B
:104D000015C040911C0250911D0227813085421729
:104D1000530761F4E1100AC09683C8010E949E1FE8
:104D200089E0F50111928A95E9F7FCCEC8010E944D
:104D30008311882309F4FBCEEE2009F4F8CE80918C
:104D40001B02803208F4B8CF209115023091160270
:104D50003A8329839C828B82909119029D831E82C3
:104D60008F8380911C0290911D0299878887CE01C4
:104D70000196A0CF483C510598F6882309F4DACE75
:104D8000FE2CEE2009F4D3CE809116028C1120C0A7
:104D900080911502D8121CC020911C0230911D0276
:104DA000878190852817390799F490911B0290FD0F
:104DB00056CF907F09F453CF80911B028683903F9A
:104DC00009F44ACF982F907F905F8F70892B43CF43
:104DD000C8010E94831181116FCF80911B028160F5
:104DE00080931B02C8010E949E1F9CCEA2E1B0E0EE
:104DF000ECEFF6E20C9426340A871B872C873D875C
:104E00004E875F87688B798B8A8BCE010A960E94CA
:104E10005B2581110CC089E0FE013A96DE011196F6
:104E200001900D928A95E1F78E8581110BC019E0F2
:104E30008091AE0490916504891333C06296E4E0DA
:104E40000C9442342091650430E0C90101968770CA
:104E500099274091AE044817190699F099E0929F5E
:104E6000D001939FB00D1124AA59BB4FFE0131967A
:104E700001900D929A95E1F7809365040E948C0849
:104E8000D6CF10924E040E944F0B109265041092E0
:104E9000AE0489E0E5E1F2E0DF011D928A95E9F7D1
:104EA000C6CF819FC00111248A599B4F0E945B2568
:104EB000882321F28091AE0490E0019687709927B3
:104EC0008093AE04B5CFB0E0A0E0E9E6F7E20C9441
:104ED00021348091D103882369F0C091D003C12C83
:104EE0008DE0D82E8091D103C81748F01092D103DD
:104EF0001092D003CDB7DEB7E9E00C943D34BB246B
:104F0000B394BC0EB092D003EC2EF12CCD9DE001F9
:104F10001124CE52DC4F8C81882361F18F819885DA
:104F2000892B21F489859A85019659F40881198184
:104F30002A813B814C815D816E817F8188850E94C1
:104F4000F626DE9CF001DF9CF00D1124EE52FC4FA2
:104F500014821092CF03C1100DC0CE010E948311A4
:104F6000811108C08FE19EE40197F1F700C00000B5
:104F7000CC24C394CB2DB6CF109245041092440498
:104F80001092940180914304809342040E941A0776
:104F90000E9463270895B0E0A0E0E1EDF7E20C94F1
:104FA0001834C0914204E7E0FE2E01E010E0FDE07D
:104FB0002F2EEE24E394809143048C1309C00E94A9
:104FC00063270E941A07CDB7DEB7E2E10C943434B0
:104FD000D0E0FE01EE0FFF1FE65CFB4F8081918168
:104FE000F89EF001F99EF00D1124EF58FE4F248138
:104FF00021115AC03090D103A2EDB3E030E020E09F
:10500000412C5F01231508F04DC01B966D907C90DC
:105010001C97F501808091804FEF5FEF512CC52CDC
:10502000D12CF601EE0FFF1FE80DF91D659174916B
:105030006616770609F4A601672B11F05394EFCF9B
:105040004F3F5407B9F1B80102C0660F771F4A9568
:10505000E2F7462AA801052C02C0440F551F0A9406
:10506000E2F7415051094416150609F5229EF00158
:10507000239EF00D1124EE52FC4FF89ED001F99EB4
:10508000B00D1124AF58BE4F12962D913C9113973D
:105090003087278374E0748310821182928781871E
:1050A0001596EC920E94EC062196C37084CF14965C
:1050B0001C9214972F5F3F4F1D96A4CFAEE1B0E036
:1050C000E4E6F8E20C9418344B8B5C8B6D8B7E8B92
:1050D0008F8B988F91111092CF03188A198A1A8A90
:1050E00086E0FE017396DE011A9601900D928A9574
:1050F000E1F78E85882381F061E0CE010A960E9457
:10510000AD119C019F8520354CE7340789F4992324
:1051100011F181E0809394010A851B852C853D85E2
:105120004E855F85688979898A890E94F626CBC079
:1051300021355CE7350729F4992369F00E94BC27E3
:10514000EBCF22353C4739F4992329F08091940123
:105150008111F4CFDECF6A857B8580E00E94391112
:105160004C01F1E7EF2EF1E0FF2E512CD12CC12C98
:10517000AA24A394B12CB7E04B2EFE013196FA8FEE
:10518000E98F33243394F7014081518166246A9476
:10519000762C60E0262F30E0F901EE0FFF1FE40FC0
:1051A000F51F859194918816990609F43901892B88
:1051B00011F06F5FEFCF10E0FFEF6F167F0609F47D
:1051C00043C0F701448110919401812F411180E087
:1051D000182F1170F701258086819F85992309F486
:1051E000F2C0112309F4EFC0211014C09501062C60
:1051F00001C0220F0A94EAF7822B86838091CD03A7
:105200009091CE03C29730F422E330E03093CE0386
:105210002093CD03C50102C0880F991F6A95E2F75C
:105220000197F70126812817190671F4809144042B
:1052300090914504009709F44AC00E94711AC397DF
:1052400008F445C0F7013482512AFFEFCF1ADF0A74
:1052500027E0E20EF11C35E0C316D10409F093CF2C
:105260008F85882309F40EC1552009F40BC10E94D3
:10527000801A90934504809344048091D103883030
:1052800010F591E0980F9093D10399E0FE013A96C2
:10529000DE01119601900D929A95E1F74DE0849F01
:1052A000C00111248E529C4F29E0FE013196DC0191
:1052B00001900D922A95E1F72FEF3FEFFC01328725
:1052C0002187948683866E96E2E10C943434809133
:1052D000420460914304982FF0E0E0E0861314C08C
:1052E00090934204EE15FF0509F4AECF90E0FC0167
:1052F000EE0FFF1FE65CFB4FD182C08201968370E8
:10530000992780934304A0CF682E712CF301EE0FF0
:10531000FF1FE65CFB4F20813181429ED001439EFE
:10532000B00D1124AF58BE4F2D913C9111973E8F77
:105330002D8F00E070E0212CE22DF0E0EE0FFF1F3A
:105340002D8D3E8DE20FF31F2591349121153105EE
:10535000E1F0F7010190F081E02DFC8FEB8F70E020
:1053600005C02417350709F4012F7F5FE72FF0E010
:10537000EE0FFF1F4B8D5C8DE40FF51F459154918F
:105380004115510571F72394D7CF0023C9F0F701D8
:10539000721508F0FD013482EE16FF0621F4909399
:1053A0004204102F51CF891305C0AE17BF0711F467
:1053B0009F5F937093012F5F3F4F822F83708ECF3B
:1053C000F0E0E0E0F7CF90E021101FC0950102C0AF
:1053D000220F331F6A95E2F7215031098217930794
:1053E00031F4442309F44CC0C6010E94EC06C50107
:1053F000062C01C0880F0A94EAF7982F9095F701C0
:10540000868189238683122D1FCFAC01062C02C012
:10541000559547950A94E2F7BA01617077279C0188
:105420002150310982239323892B31F5672B21F1F8
:10543000F70182819381892BE1F0E98DFA8D242D8A
:1054400011922A95E9F70E94801A282F8B839C835A
:1054500034E03D83F70182819381782F8887998793
:1054600009811A813C8144E05E816F81892F0E940D
:10547000F626F7011582BBCFF42FF1702F2EB7CF90
:10548000212EB5CF9091420480914304981729F0C2
:105490000E94CB27511017CF3FCE0E946327109256
:1054A0004504109244040E941A07F4CFA6E0B0E02D
:1054B000ECE5FAE20C9426340E94801A8C0180916B
:1054C000290290912A028017910781F019821A828D
:1054D0000E94801A682F49815A81792F80E090E0DC
:1054E0000E945E2810932A02009329022696E4E087
:1054F0000C9442341F921FB61F9211248F939F93D6
:10550000AF93BF9380914804811113C080914904E7
:1055100090914A04A0914B04B0914C044196A11D76
:10552000B11D8093490490934A04A0934B04B09317
:105530004C04BF91AF919F918F911F901FBE1F9000
:105540001895CDB7DEB7A6970FB6F894DEBF0FBE9D
:10555000CDBF85B7806885BF85B7806885BF84B7B4
:10556000877F84BF0FB6F894A8958091600088610A
:1055700080936000109260000FBE80E890E00FB64C
:10558000F89480936100909361000FBE81E797E0EB
:105590009093EF018093EE010E9471050E94120624
:1055A0008091E20084608093E200789480915B04B3
:1055B0008823A1F01091E9001F709091EC00892FD1
:1055C000817090FD80E8182B1092E9008091E8002E
:1055D00083FD0E945B0B1F701093E90082E084BD85
:1055E00093E095BD9AEF97BD80936E001092A40250
:1055F0001092A5021092A6021092A7020E94E61134
:10560000811102C00E94FA100E94FB0F80930001DA
:1056100080910001882309F468C0109296018EE100
:10562000809397010E94AB0F81110E94A23280915A
:1056300000018091000194E0811190E09093B1020B
:1056400084E0891B8093B00284EF0E949F0785EF5E
:105650000E949F0786EF0E949F0787EF0E949F0787
:1056600007EC11E0D8018D918D018F3F11F00E9460
:105670009F07B1E00D3C1B07A9F788E0EFEBF2E0D4
:10568000DF01882E1D928A94E9F7E8EAF2E0DF0153
:105690001D928A95E9F70E941815811102C00E9497
:1056A0002B1782E090E00E9401358093B50284E0E0
:1056B00090E00E940F359093B3028093B2020E9453
:1056C000DC1CEFE3FCE93197F1F700C000000E9419
:1056D000DC1C8091BF0280FF0CC06FEF7FEF90E079
:1056E00080E00E9443350E94CF068EE180939601B0
:1056F00097CF83E090E00E9401350E9401098091DC
:10570000A2030E9478130E94AB0F882309F48DC175
:1057100080E08093C30380E88093B5040E945C31ED
:105720006BE070E085E792E00E94FF118823E9F1C9
:105730008091C30365E070E081FD79C180E792E06C
:105740000E94FF11882389F16DE070E08EE592E000
:105750000E94FF11882349F10E94E006605A7541BA
:105760008F4F9F4F6093C5037093C6038093C70309
:105770009093C803E8EBF4E080E092E0DF019C0145
:105780001D9221503040E1F7F093BF06E093BE0632
:105790008FEF9FEF9093B7048093B60481E08093DE
:1057A000CC038093C9031092C4038091B402811189
:1057B00076C00E941815811104C00E942B170E9408
:1057C000E41488E090E00E9409354B015C0184E21A
:1057D00090E00E940135282F30E040E050E060E08A
:1057E00070E080E090E000E20E94AC342829392982
:1057F0004A295B292093950330939603409397039E
:10580000509398036093990370939A0380939B033A
:1058100090939C038091E00283608093E0022E7F4E
:1058200089F50E94E41488E090E00E9409356B013C
:105830007C0184E290E00E940135282F30E040E0B6
:1058400050E060E070E080E090E00E94AC34B22F65
:10585000A32FF42FE52F5B0197018601BC29A12B13
:10586000FE29E32BB0939503A0939603F09397033F
:10587000E093980360939903B0929A0380939B03FB
:1058800090939C030E9447078091950380FF04C07A
:1058900060E086950E94AD1481E08093B4020E947E
:1058A000AB0F811102C00E94A5320E94ED180E9428
:1058B000AB0F81112EC089E390E19093500180934A
:1058C0004F0129E130E030934B0120934A0189E3F5
:1058D00090E090934E0180934D014DE557E0509339
:1058E00058014093570130935301209352019093F4
:1058F00056018093550145ED57E150936001409367
:105900005F0130935B0120935A0190935E01809375
:105910005D010E9418158823B9F08FE090E00E9485
:1059200009358B01862F8F770E94C017001F002733
:10593000001F612F6370660F602B6093AD01169599
:10594000169513701093AE010E94131081E691E03A
:10595000909347048093460436E9E32EF12CCC243F
:10596000CA94D12C80915B0400E112E1853009F4E6
:10597000A0C00E94DC1C06EB12E09FEBA92E92E077
:10598000B92E2DEC822E21E0922E9401B501F80162
:105990009191DB018D91BD01D9014D919D01842330
:1059A000B2E0EE3BFB0709F490C0981789F30E9420
:1059B000AB0F382E612CF50171905F01D4018D91F0
:1059C0004D017822F80121908F01271431F1512CDB
:1059D000442443942724822D8421B9F03320A9F054
:1059E00059A26AA20E94801A9CA38BA3F1E0FDA396
:1059F00091E0842D872109F490E09EA349A15AA14A
:105A00006BA17CA18DA10E945E285394440C26E0DA
:105A10005212E1CFF80131977082639438E063123B
:105A2000CACF0E94E10F11E055C082E072CE8BE632
:105A300092E086CE80915B04843041F10E9429126D
:105A40000E94A21E1092480448E150E080E40FB684
:105A5000F894A895409360000FBE8093600083B7D0
:105A6000817F846083BF83B7816083BF789488958A
:105A700083B78E7F83BF0FB6F894A895809160009E
:105A8000886180936000109260000FBE80915A047C
:105A9000882379F00E94DC1CEFEBF2E0ADECB1E082
:105AA00081919D91892309F015C392E0E73CF907A4
:105AB000B9F780915B04853009F4BCCF10924E0495
:105AC0000E944F0B0E94D00F54CF981370CF0E94AA
:105AD000562A10E00E94AB0F882319F1809194019F
