:100000000C94FF040C941C050C941C050C94E23217
:100010000C941C050C941C050C941C050C941C05DC
:100020000C941C050C941C050C946F190C942B1942
:100030000C94742A0C941C050C941C050C941C053F
:100040000C941C050C941C050C941C050C941C05AC
:100050000C941C050C94481A0C941C050C941C055B
:100060000C941C050C941C050C941C050C941C058C
:100070000C941C050C941C050C941C050C941C057C
:100080000C941C050C941C050C941C050C941C056C
:100090000C941C050C941C050C941C050C941C055C
:1000A0000C941C050C941C050C941C050C001200EF
:1000B000000004001600000005010902A1018502EC
:1000C0000901A10005091901290815002501950854
:1000D000750181020501093009311581257F9502DD
:1000E0007508810609381581257F950175088106F7
:1000F000050C0A38021581257F950175088106C017
:10010000C00660FF0961A1010962150026FF009584
:1001100020750881020963150026FF0095207508E7
:100120009102C005010906A101050719E029E7159B
:100130000025019508750181029501750881010569
:1001400007190029FF150026FF0095067508810094
:10015000050819012905150025019505750191026C
:10016000950175039101C00000000000000000002F
:10017000000000000000000000000000000000007F
:1001800000000000000000000000007E0F00D4FF0F
:10019000FFFFC70000007800000000000000002AF8
:1001A0002B280000000000000000000000000000FC
:1001B000000029000000002C1E34202122243426B7
:1001C00027252E362D3738271E1F202122232425B0
:1001D000263333362E37381F0405060708090A0B65
:1001E0000C0D0E0F101112131415161718191A1BD7
:1001F0001C1D2F3130232D350405060708090A0B75
:100200000C0D0E0F101112131415161718191A1BB6
:100210001C1D2F3130354C61626364656667686907
:100220006A6B6C6D6E6F70717273747576777879B6
:100230007A31323334353637383930524542545FAB
:100240002D3D5B5D5C233B27602C2E2F00DA028165
:10025000FFD9F1DB20A4A62EAF00A0C0D30000A1DF
:10026000C8D30000AED580A81F408D142000000127
:100270000101010101010101020202020202020266
:100280000203030303030303030404040404040438
:1002900005050505050606060606070707070708FC
:1002A000080808090909090A0A0A0B0B0B0C0C0CAF
:1002B0000D0D0D0E0E0E0F0F0F1010111111121249
:1002C00013131414151516161717181819191A1AC6
:1002D0001B1B1C1D1D1E1E1F202021222223242427
:1002E000252626272829292A2B2C2D2D2E2F303163
:1002F0003232333435363738393A3B3C3D3E3F4075
:100300004142434445464748494A4C4D4E4F50515F
:100310005354555658595A5B5D5E5F616264656619
:1003200068696B6C6D6F7072737577787A7B7D7EA0
:100330008082838587888A8C8E8F91939596989AF0
:100340009C9EA0A2A3A5A7A9ABADAFB1B3B5B7BA08
:10035000BCBEC0C2C4C6C9CBCDCFD1D4D6D8DBDDDC
:10036000DFE2E4E7E9EBEEF0F3F5F8FAFDFF00AFCA
:1003700000AE202000BABB004B657920B10020C040
:10038000C100B4B500B2B300BEBF00484F00565420
:10039000003030200020202020B1BCBD0042616C24
:1003A0006CB1004C617965723A002020002900147C
:1003B000001A000800150017002B000400160007A3
:1003C0000009000A00E1001D001B000600190005DD
:1003D000000000E200E30091212C4190434C001307
:1003E0000012000C0018001C00240233000F000E45
:1003F000000D000B00870038003700360010001198
:100400000000004600E600913128422A0001003A2F
:10041000003B003C003D003E000100010001005295
:100420000028004C0001000100500051004F002A3C
:100430000000000100010001000100010044004330
:10044000004200410040003F004500D300D200526E
:1004500000D1004B00010001004F00510050004E40
:100460000000000100010001000100010001003452
:10047000022400250026002502010033022100226B
:10048000002300300001002D021E001F002000305C
:1004900002000027003700010001000100010021D7
:1004A000022F0023021E0226021F02340020022E09
:1004B000022D003200890238022F022E00870232FC
:1004C00002000001000100010001004C0020780141
:1004D0000001000100010001002178237825782720
:1004E000780100087E22782478267828780100098F
:1004F0007E0000007C007E01000100010030782FAA
:10050000782E782D782C782B780100010034783300
:100510007832783178017E0100047E027E037E0508
:100520007E0000007C007E0100010001000100014E
:1005300000010001000100010001000100010001B3
:1005400000010001000100010001000100010001A3
:100550000000000100010001000100010001000194
:100560000001000100010001000100010001000183
:100570000001000100010001000100010001000173
:100580000000000100010001000100010009025B00
:1005900000030100A0FA09040000010301010009A1
:1005A000211101000122440007058103080001090F
:1005B00004010002030000000921110100012222B0
:1005C000000705820320000107050303200001093D
:1005D0000402000103000000092111010001224969
:1005E000000705840320000112010002000000083A
:1005F0005759000400010102000114034B0065007B
:100600007900620061006C006C003400340000006E
:10061000100359006F0077006B00650065007300E0
:1006200000000403090400000000000000002F0087
:100630000000000700070000123F123F1200242AAA
:100640007F2A120036091E241B00182629122800B2
:10065000000007000000001E214000000040211E95
:10066000000014083E08140008083E0808000000B6
:100670003070000008080808080000003030000052
:1006800020100C0201001E2925231E0000223F20FD
:100690000000223129292600122125251A001814CC
:1006A000123F10001725252518001E2525251800A6
:1006B0000131090503001A2525251A0006292929D3
:1006C0001E000000333300000000337300000814E4
:1006D00014222200141414141400222214140800EA
:1006E0000201290502003E59555D3E0038161116DB
:1006F00038003F2525251A001E21212112003F2107
:1007000021211E003F25252521003F09090901005F
:100710001E2121291A003F0404043F0000213F212B
:100720000000102020201F003F040C1221003F2059
:10073000202020003F0204023F003F020C103F0037
:100740001E2121211E003F09090906001E21291131
:100750002E003F0909192600122525291200010142
:100760003F0101001F2020201F000718201807004C
:100770000F300C300F0021120C122100030438043A
:100780000300312925232100007F4141000001029F
:100790000C1020000041417F00000402010204000F
:1007A000404040404000000103040000102A2A2A73
:1007B0003C003F2422221C001C22222224001C2256
:1007C00022243F001C2A2A2A0C0000043E050500B2
:1007D0000C5252543E003F080404380000003D0013
:1007E00000002040403D00003F08081422000001A6
:1007F0003F2000003E023C023C003E0402023C005E
:100800001C2222221C007E1422221C001C222214E4
:100810007E003E0402020400242A2A2A120000025A
:100820001F2200001E2020103E000618201806007F
:100830000E300C300E002214081422000E505048C6
:100840003E0022322A26220008087741410000009B
:100850007F000000414177080800180408100C00D0
:100860000000000000000000000000000000000088
:100870000000C0F0F88C86C6E7FFFFFFFFFFFFFE19
:10088000FCFCF8E080000000F0F0F00000C0E0F0B8
:100890007070000000000000000000000000000078
:1008A0000000000000000000F8F8F8000000000060
:1008B0000000000000000000000000000000F8F848
:1008C000F80000F8F8F8000000000080E070786898
:1008D0006C64C7C7C7C7C7C7E73F1F0F3FFFFFFF0E
:1008E000FFFFFF3F0F000000FFFFFF1E3FFFF3E190
:1008F000800000F8FCFE3636363EBCB8000E3EFEE8
:10090000F080F0FE3E0E0000FFFFFF060606FEFE32
:10091000FC7000E6F6F63636FEFEFC000000FFFF37
:10092000FF0000FFFFFF000000003C7F6360E0C0AD
:10093000C0C0C0C0C0C0C0FFFFC06030180F0303FC
:100940000301000000000000030303000000030394
:100950000303000103030303030303010070703961
:100960003F1F07010000000001030303030303030B
:10097000010000010303030303030100000003035C
:1009800003000003030300101010000000005500D6
:1009900000003E635D5D637F417B77413E00001C4C
:1009A00022221C003E0A003E0A00322A3C00262871
:1009B0001E001C2A2C0000003F09360000001E21EA
:1009C0002100000000003F0837001E2121001E21E9
:1009D00021003F090600213F2100222519001E2188
:1009E00021003F0936003F211E00213F21000F302A
:1009F0000F003E093E003F063F003F20200011242B
:100A00001FBECFEFDAE0DEBFCDBF11E0A0E0B1E066
:100A1000E6E4FBE602C005900D92AA3DB107D9F7C6
:100A200026E0AAEDB1E001C01D92AE3AB207E1F7AF
:100A30000E949B2A0C9453350C940000FC01909169
:100A40009C048181981321C080919D04882319F012
:100A5000928189131AC080919E04882319F0938192
:100A6000891313C08091A004882319F095818913FC
:100A70000CC080919F04882351F091E024812813B9
:100A800001C090E0892F8170089581E0FCCF80E063
:100A9000FACF482F20919A049091510459E02913DC
:100AA00002C080E0089530E0529FF001539FF00DA6
:100AB0001124EE5AFB4F8181681306C080814813D0
:100AC00003C085818111EECF2F5F3F4F2770E7CFA5
:100AD000E8EDF0E080818E7F80831092E20010923A
:100AE000DA001092E100A0EEB0E08C9181608C936E
:100AF00080818F77808319BCA7EDB0E08C918E7FC9
:100B00008C9380818F7E8083109239040895209188
:100B1000E4003091E50095E6A9012091EC00822FD8
:100B2000817020FF06C08091E80080FF06C080E051
:100B300008952091E80022FD1AC08091470488237F
:100B400089F0853089F08091EB0085FD0FC0209100
:100B5000E4003091E50042175307F9F29150E1F6B5
:100B600084E0089582E0089583E0089581E0089587
:100B70008091490487FF13C08091E80082FF06C07E
:100B80008091E8008B778093E80004C0809147044F
:100B90008111F2CF0895809147048823D9F3809181
:100BA000E80080FFF8CF8091E8008E77ECCF982F97
:100BB0009093E900242F762F50E0891731F070913F
:100BC000EC002091ED005091F00021FD07C09F5FE7
:100BD000973071F78093E90081E008953091EB0040
:100BE0003E7F3093EB003091ED003D7F3093ED0080
:100BF0003091EB0031603093EB007093EC00209368
:100C0000ED005093F0002091EE0027FDE0CF80E052
:100C10000895B0E0A0E0EFE0F6E00C941C34C8EDDD
:100C2000D0E088818F7E8883E7EDF0E0808181606D
:100C3000808384E082BF81E08093390488818E7F45
:100C4000888302EE10E0F80110821092DA0081EE43
:100C5000C82ED12CF601108288818F7788838881F5
:100C60008068888388818F7D888319BC10924704AF
:100C700010924804109246041092450490EEE92E1A
:100C8000F12CF70180818B7F80838881816088834C
:100C900042E060E080E00E94D705F60180818E7F0F
:100CA0008083F80180818160808380818860808377
:100CB000F70180818E7F8083888180618883CDB7B2
:100CC000DEB7E8E00C943834FC0180914F04909139
:100CD000500486179707A0F06115710529F49091CB
:100CE000E8009E779093E80090E06115710551F45B
:100CF000911108C08091E80082FF34C080E008951F
:100D0000BC01F2CF809147048823C1F18530C1F145
:100D10008091E80083FD30C08091E80082FDEACF39
:100D20008091E80080FFE1CF8091F3002091F200F4
:100D3000382F6115710519F02830310558F091E010
:100D40002830310509F090E02091E8002E772093BB
:100D5000E800CBCF81918093F100615071092F5F42
:100D60003F4FE7CF80914704882341F0853041F021
:100D70008091E80083FFBECF81E0089582E008956E
:100D800083E00895089580913C04089587E797E7EC
:100D9000909301088093000888E19AE00FB6F894D8
:100DA000A895809360000FBE90936000FFCF2FB78F
:100DB000F8946091350470913604809137049091D5
:100DC00038042FBF0895DC0160912E0480912F0418
:100DD000962F891301C00895292F30E0F901EE0FF5
:100DE000FF1FEA5DFB4F408151814A175B07A1F469
:100DF00087E08A9FA0018B9F500D11244F585E4FB2
:100E000081E0FA0184839613E6CF2F5F3F4F237072
:100E1000332720932E0408952F5F3F4F922F937016
:100E2000D8CF1092BA031092B90380917601811144
:100E300004C0109275011092770180917D0181119B
:100E400004C010927C0110927E010895FC01680F8D
:100E5000791F8FEF91E32191822728E030E087FF0F
:100E600009C0880F892721503109C9F7E617F7070C
:100E700091F70895880FF7CFFA01811101C0FB01A6
:100E80000995089580918103982F9E7F71F4809138
:100E9000810381708260809381038091840387390C
:100EA00018F086E9809384030895843080F7F5CFA5
:100EB000CF93DF93E6E8F1E083819481A581B68149
:100EC000E90188839983AA83BB83148213821682E3
:100ED0001582DF91CF91089580E0089563E070E07E
:100EE00088E392E00E94260790913702891318C088
:100EF000E0913802EC30A4F488E0E802F00111241B
:100F0000EF5FFE4F0680F781E02D309749F02BE52B
:100F100032E040913A026BE372E080913902099528
:100F20000895E2E2F2E0878980933101808D809319
:100F300044010895F894E82FE295EF70F0E031A1B4
:100F4000282F2F7081E090E001C0880F2A95EAF7E2
:100F5000982F9095932391A392A1892B82A37894A3
:100F60000895811522E5920780F5811530E59307F4
:100F700008F0ABC0883E9105A0F4803E910558F47E
:100F8000853A910548F48430910528F48130910523
:100F900011F090E080E008958D3C9105D0F39065CC
:100FA0000895811540E4940708F044C0811550E28B
:100FB000950708F0A3C0811561E0960750F320E083
:100FC000392FA901482BCA010895803872E5970787
:100FD000A8F4803622E5920708F05AC0803432E542
:100FE000930708F03FC0803242E5940730F18F71DB
:100FF00090E0982F8827816F906A0895803C52E591
:10100000950760F4282F2F71803A924508F456C056
:10101000822F90E0982F882790620895803E72E595
:10102000970708F0B6CF982F882788279F71806F81
:10103000906A08959F70906A0895282F26952695A6
:1010400050E2259F90011124837041E050E0BA01E5
:1010500002C0660F771F8A95E2F7CB01822B932B94
:101060009D680895282F26952695277070E2279F62
:1010700090011124837041E050E0BA0102C0660F74
:10108000771F8A95E2F7CB01822B932B9C680895FA
:10109000282F26952695277070E2279F900111240E
:1010A000837041E050E0BA0102C0660F771F8A9555
:1010B000E2F7CB01822B932B9A680895822F90E060
:1010C000982F8827846F906A08959C0195E0369543
:1010D00027959A95E1F72F7030E0322F2227482F7D
:1010E0004F7150E084FF05C084E0440F551F8A957E
:1010F000E1F7C901842B952B906908959F718CCFDE
:10110000809590913A04982390933A0408958091A1
:101110009A0490915104981301C008958F5F8770CD
:10112000FACF292F983078F5863068F590E036E0D0
:10113000239F800D911D1124682F677023E09695E1
:1011400087952A95E1F7FC01EE0FFF1FE80FF91FC5
:10115000E151FE4F50E040E080E0219130E0062E6A
:1011600002C0369527950A94E2F721703327042EA2
:1011700001C0220F0A94EAF7822B4F5F5F4F433082
:10118000510559F7089580E00895292F983098F572
:10119000863088F590E036E0239F800D911D112464
:1011A000282F277041E001C0440F2A95EAF723E079
:1011B000969587952A95E1F7FC01EE0FFF1FE80F42
:1011C000F91FE151FE4F30E020E070E05191DF0166
:1011D0001197CB01022E02C0969587950A94E2F7EB
:1011E000817081958527842385278C932F5F3F4FBE
:1011F0002330310559F70895809314020895982FEC
:1012000092959F7011F0892F94E0282F26952695AE
:1012100011F09E5F822F869509F09F5F892F0895B8
:10122000CF93C82F809193018C1751F00E94D7065D
:101230006093940170939501809396019093970128
:10124000C0939301CF910895B0E0A0E0EAE2F9E005
:101250000C941C348C01EB01E0919801E11101C068
:10126000E7E0E150FF0B81E090E06C010E2E02C040
:10127000CC0CDD1C0A94E2F7D801ED90FC90C7017C
:10128000B6010E9463349B01CB010E2E02C0880F71
:10129000991F0A94E2F7E81AF90AD8011196FC920C
:1012A000EE921296ED90FC90C701B6010E94633455
:1012B000CB0102C0880F991FEA95E2F7E81AF90AF4
:1012C000F801F382E2826138FFEF7F07F4F06038C3
:1012D0007105ECF46D8321388FEF3807D4F0203896
:1012E0003105CCF4822F81958C83442319F06195CC
:1012F0006D832C8380919901882379F0813079F076
:10130000CDB7DEB7E8E00C94383461E8E3CF6FE79F
:10131000E1CF21E8E7CF2FE7E5CF1D82F1CF1C8297
:10132000EFCFFC01DB012281338191E821388FEF7F
:1013300038072CF0922F203831050CF09FE71296D9
:101340009C9312972081318121388FEF3807A4F0C8
:10135000203831059CF413962C931397442339F0CD
:10136000919512969C931297219513962C93118226
:10137000108213821282089521E8EDCF2FE7EBCF80
:10138000382F20E287FF02C031952DE24AE0832FFB
:10139000642F0E945534905D9093E70181110BC03A
:1013A0002093E60120E22093E50120E22093E4016E
:1013B00084EE91E00895642F0E945534905D9093DF
:1013C000E601832F64E60E945534882361F3805D33
:1013D0008093E501EBCF9C01860F971F37FD07C077
:1013E00077FD04C097FF02C08FEF9FE7089577FF56
:1013F000FDCF97FDFBCF80E090E80895CF938EEB73
:1014000092E00E941E05C82F882379F0E0913204F3
:10141000F0913304309749F082E080939B0404807C
:10142000F581E02D8BE994E0099590919C0486E08C
:10143000EBE9F4E0DF01282F1D922A95E9F790935C
:101440009C04AEEBB2E001900D928A95E1F781E049
:10145000C11103C0911101C080E08170CF91089546
:101460002FE2280F283078F481E090E001C0880F47
:101470002A95EAF720919C04662331F0822B809311
:101480009C040E94FE09089580958223F8CFCF9393
:10149000DF93282F81E02A3019F02D3031F480E0DD
:1014A0000E94DB0ADF91CF9108958091AA06909166
:1014B000AB0636E0FC01A4EAB6E001900D923A9545
:1014C000E1F730EE320F343A08F458C026E0FC0160
:1014D00011922A95E9F7C091AA06D091AB0646E091
:1014E00050E0BE0184EA96E00E94E5349E01245A51
:1014F0003440892B41F1C90145E0969587954A957D
:10150000E1F741E050E0BA0102C0660F771F8A950B
:10151000E2F7CB016091A2047091A304862B972B74
:10152000B9016B5F7F4FE5E076956795EA95E1F746
:1015300002C0440F551F6A95E2F7842B952B9093B8
:10154000A3048093A2042A5F3F4F4091A104642F1B
:1015500070E0C9010E94FE33481B463010F4240F8E
:10156000311D211572E0370710F030E020E02C55D6
:101570003B4F3093AB062093AA0694CF2052330BF7
:1015800046E0429FB001439F700D11246A5D794F80
:1015900046E050E00E94DC349ECFCF93DF93EC0115
:1015A000FE018491811103C0DF91CF9108950E94C3
:1015B000470A2196F5CFCF93382FE091AA06F091F4
:1015C000AB06E45AF4402091A104622F70E0CF01F1
:1015D0000E94FE33281B822F332361F066E00E94B5
:1015E0004934C82FC15010F4CF91089580E20E9471
:1015F000470AF8CF9F01280F311D2115324018F0FE
:1016000080E0F0E0E0E08E0F9F2F911D8C559B4F06
:101610009093AB068093AA06E7CF80913A0490910D
:10162000BB03892B8093DC0190911302992391F0E5
:10163000892B8093DC0120E08EED91E0FC0131915B
:10164000CF0131112F5FF1E0843E9F07B9F72111DF
:101650001092130248E050E06BE072E08CED91E0F4
:101660000E94E534892BA9F088E0ECEDF1E0ABE0D5
:10167000B2E001900D928A95E1F7E0913204F09189
:101680003304309731F00280F381E02D8CED91E04E
:1016900009950895EEEDF1E086E0DF011D928A954F
:1016A000E9F71092BB030E940D0B0895AAE2B0E087
:1016B000ECE5FBE00C94213489E494E02091F10006
:1016C000DC012D93CD01B4E081359B07B9F7809102
:1016D0004A04833009F472C0B8F4813009F449C077
:1016E000823009F4B5C08091E80083FF8DC28091FB
:1016F000490490914A049A3008F086C2E92FF0E03C
:10170000EB5AFA4C0C9499348A3009F490C08B301F
:1017100009F471C0893039F780914904813219F791
:1017200080914D0490914E04009711F00297D9F6E4
:101730008091E800877F8093E8008091E80082FF35
:1017400038C09091F3008091F200029731F48091BB
:10175000F100813011F0863021F48091F100809306
:101760003C048091E8008B778093E8000E94B805E4
:10177000BACF80914904813A09F0B5CF8091E80051
:10178000877F8093E80080914D0490914E04892BCF
:1017900061F468E08DE394E070E00E94640680915B
:1017A000E8008B778093E8009ECF60E090E080E0D7
:1017B000F3CF809147048111C0CF95CF8091490428
:1017C000813A09F090CF80914D0490914E04892B7D
:1017D00009F089CF8091E800877F8093E8008091AD
:1017E000E80080FFFCCF809180018093F100809120
:1017F000E8008E77B9CF80914904813209F073CF28
:1018000080914D0490914E04892B09F06CCF80910A
:10181000E800877F8093E8000E94B80580914B0420
:101820008093800110923A040E944A0B5CCF809111
:101830004904813209F057CF8091E800877F809377
:10184000E8000E94B80580914C0480933B044BCF84
:1018500080914904813A09F046CF8091E800877F62
:101860008093E8008091E80080FFFCCF80913B04EA
:10187000BCCF803899F0823809F0C6C180914D0400
:101880008F70873008F0C0C18093E9008091EB0031
:1018900085FB882780F91092E90006C080914504F5
:1018A00090914604911182609091E800977F909307
:1018B000E8008093F1001092F1008091E8008E77AB
:1018C0009FC1882309F48DC1823009F09DC18091A8
:1018D0004B04811190C180914D048F702FEF280F20
:1018E000263008F091C18093E9002091EB0020FFA1
:1018F00082C1933031F48091EB0080628093EB00E1
:101900007AC19091EB0090619093EB0021E030E080
:1019100001C0220F8A95EAF72093EA001092EA00AC
:101920008091EB008860EACF81116EC110914B0469
:101930001F778091E3008078812B8093E300809172
:10194000E800877F8093E8000E94B8058091E80056
:1019500080FFFCCF8091E30080688093E30082E009
:10196000111183E0809347044FC18058823008F002
:101970004BC120914B0430914C042C3DE3E03E07D9
:10198000A1F583E08A838AE289834FB7F894DE0168
:10199000139620E03EE051E2E32FF0E05093570031
:1019A000E49120FF03C0E295EF703F5FEF708E2F50
:1019B00090E0EA30C0F0C7968D939D932F5F24315D
:1019C00059F74FBF8091E800877F8093E8006AE273
:1019D00070E0CE0101960E9464068091E8008B774A
:1019E0008093E80011C1C096E7CF80914D0490919B
:1019F0004E04432F55274330510509F44AC078F56A
:101A00004130510509F47AC08BE590E0EDE8F5E04E
:101A10004230510509F0F8C02091E800277F20935B
:101A2000E80020914F04309150048217930708F486
:101A30009C0140E02115310509F065C0411163C0EA
:101A40008091E80082FDC9CF80914704882329F264
:101A5000853019F28091E80083FFF2CFBECF41328A
:101A6000510509F43CC04232510509F0CDC0833024
:101A7000910508F0C9C0FC01EE0FFF1FE353FE4FB4
:101A80000190F081E02D86539E4FDC018C9190E017
:101A90001AC0332721303105D1F02115310561F00D
:101AA0002230310509F0B0C0EAEFF5E0E4918E2F65
:101AB00090E0EAEFF5E007C0E2E2F6E0E4918E2F75
:101AC00090E0E2E2F6E0009709F49EC0A5CFE0E1E5
:101AD000F6E0E4918E2F90E0E0E1F6E0F4CF833081
:101AE000910508F091C0880F991FFC01ED52FE4F3F
:101AF0000190F081E02D89E090E08ECF82E190E0CE
:101B0000E8EEF5E089CF80914704882309F465CF9A
:101B1000853009F462CF8091E80083FD5ECF80912B
:101B2000E80082FD8DCF8091E80080FF83CF909107
:101B3000F3008091F2002115310519F088309105EC
:101B400050F041E0089709F040E08091E8008E777E
:101B50008093E8006FCF44914093F100319621507B
:101B600031090196E8CF803809F04EC08091E80035
:101B7000877F8093E800809148048093F1009DCE98
:101B8000811142C010914B041230F0F58091E800B1
:101B9000877F8093E800109348040E94B8051123C2
:101BA00011F084E005C08091E30087FDFACF81E069
:101BB0008093470442E061EC81E00E94D70542E255
:101BC00061EC84E00E94D70542E261EC82E00E9471
:101BD000D70542E260EC83E00E94D705809147047C
:101BE00013C080914B04813079F481E0933009F087
:101BF00080E0809346041092E9008091E800877F9E
:101C00008093E8000E94B8058091E80083FF0AC035
:101C10008091E800877F8093E8008091EB008062EC
:101C20008093EB00AA96E3E00C943D34882321F0E6
:101C30000E9480080E940D0B0895882339F090912E
:101C40003A04982B90933A040E940D0B0895882330
:101C500049F19CEF980F913A80F4EEEDF1E024EE1B
:101C600031E09191891303C0DF0111971C922E1767
:101C70003F07B9F70E940D0B089590E2980F983036
:101C800050F4877091E001C0990F8A95EAF7892F87
:101C90000E948008EFCF93E3980F933118F460E02F
:101CA0000E94300A08950F931F93CF93C82F882363
:101CB00041F18CEF8C0F813AB0F50EED11E084EE1E
:101CC00091E0F8012191C21701F18E179F07D1F71A
:101CD000EFEF80E0D8019D918D01C91781F0EF3FB2
:101CE00019F4911101C0E82F8F5F863099F7EF3F0B
:101CF00031F00E2E000CFF0BE452FE4FC2830E9407
:101D00000D0BCF911F910F910895EEEDF1E0219110
:101D1000C21303C0DF0111971C928E179F07B9F7FA
:101D20000E940D0BD5CF80E28C0F883068F4C7700D
:101D300021E030E001C0220FCA95EAF780913A0411
:101D4000822B80933A04DBCF83E38C0F8331C8F678
:101D500061E08C2F0E94300AD4CF0F931F93CF9352
:101D6000DF93EC01FC0101900020E9F78F010150A5
:101D70001109C017D10728F0DF91CF911F910F9162
:101D8000089589910E94470AF4CF0F931F93CF9330
:101D9000DF938B01EA0190914704943061F58093C1
:101DA000E9008FEF9091E800815095FD06C095ED18
:101DB0009A95F1F700008111F5CF8091E80085FF39
:101DC0001AC00E948705811111C08091E80085FD2D
:101DD00006C08091E8008E778093E800F2CFF8018A
:101DE00081918F018093F100219779F78091E8002C
:101DF0008E778093E800DF91CF911F910F91089526
:101E000046E050E0BC0184E00E94C50E0895CF93E7
:101E1000DF93EC0148E050E0BC0181E00E94C50E78
:101E200088E0FE01ADE3B4E001900D928A95E1F700
:101E3000DF91CF910895609182018091810380FFAD
:101E400020C08091810143E0849FC001112483530D
:101E50009D4F539A2BB1277F3BB138605FB7F89401
:101E6000FC01649FE00DF11D1124BF016817790783
:101E7000D1F45FBF8FE594E00197F1F700C0000057
:101E80000895809183019091840123E0829FF00165
:101E90001124E353FD4F8917A0F61182108212829C
:101EA0008F5F3396F8CFFC014191CF01E8E03BB959
:101EB000000000C047FF2BB9440F000000C000C065
:101EC00000C02BB900C0EA9591F7D0CFE1E8F3E06C
:101ED00080818E7F8083EAECF2E082818160828360
:101EE0000E941B0F0895B0E0A0E0E9E7FFE00C942A
:101EF0001A347C015B016A0180918F0201E010E0DD
:101F00008A3010F40AE010E0C1E0D0E0B501C7016A
:101F1000F6010995811104C021960C171D072CF4B8
:101F2000CDB7DEB7EAE00C943634CC9F9001CD9F5C
:101F3000300D300D112490E080E045E34A95F1F733
:101F40000000019682179307C1F7E0CF809121022C
:101F5000811119C088EC90E02091E30027FD10C0AA
:101F6000EFE3FCE93197F1F700C000000197A1F71A
:101F700082E0809321020E9468051092470403C00A
:101F800081E08093210281E090912102913011F053
:101F900080E0089508950E94A60F882359F0E091EB
:101FA0003204F0913304309729F00190F081E02D54
:101FB0000995089580E008950F931F930E94A60F3E
:101FC000882329F00E94D7061F910F9108950E943F
:101FD000D7060091900210919102209192023091C7
:101FE0009302600F711F821F931FEECF54985C9A6B
:101FF000879A8F9885E08A95F1F7000089B18798D4
:102000008F9A90EA9A95F1F790E024E0959587955C
:102010002A95E1F78095909581700895CF93DF938D
:1020200080918601CEE18111CDE180918701D0E0E0
:10203000882329F080918801DEE18111DDE10E9491
:10204000F60F81110FC08D2F80938101C093820103
:10205000CD0F10928301C0938401C0938501DF915D
:10206000CF91089580E0F0CF80918601F9018083BF
:102070000E940E1008951F93CF93DF93182FEB014A
:102080000E94530E8FE99FE00197F1F700C0000016
:102090002197C1F7812F0E94270EDF91CF911F91C9
:1020A000089510923A040E944A0B2FEF84E39CE0BB
:1020B000215080409040E1F700C0000088E19AE0A4
:1020C0000FB6F894A895809360000FBE90936000BF
:1020D000FFCFCF93DF93C9E0D2E060E0CE010E9452
:1020E0001F352196C11584E0D807B9F7DF91CF914C
:1020F00008951F93CF93DF93122F8530E0F468305B
:10210000D0F44630C0F4C42FD0E0CC0FDD1F9CE0EB
:10211000699FC00DD11D112490E6899FC00DD11D6E
:102120001124632FCE0189960E941F35612FCE01A5
:102130008A960E941F35DF91CF911F910895AF922B
:10214000BF92CF92DF92EF92FF921F93CF93DF93D4
:102150008DEAC82E83E0D82ED0E07601C0E014C00E
:10216000F50125913491412F6C2F8D2F0E9479100C
:1021700082E0A80EB11C1F5F163091F78CE0E80ECC
:10218000F11CCF5FC83019F0570110E0E9CFDF5FD5
:1021900080E6C80ED11CD53001F7DF91CF911F9199
:1021A000FF90EF90DF90CF90BF90AF90089588E2BE
:1021B00090E00E941F350895CF93C82F6FEF8111D3
:1021C00066E285E290E00E941F356FEFC11167E083
:1021D00086E290E00E941F356FEFC11164E187E253
:1021E00090E00E941F35CF91089580E00E94DC109E
:1021F00060E070E0CB010E94D7100E949F100E9407
:10220000691081E00E94DC1008950F931F93CF9313
:10221000DF93853030F5683020F5463010F5C42F57
:10222000D0E0CC0FDD1F2CE0629FC00DD11D11242A
:1022300030E6839FC00DD11D1124CE0189960E94E6
:10224000FB34082F10E0102F0027CE018A960E9441
:10225000FB349801282BC901DF91CF911F910F9179
:10226000089590E080E0F8CF462F783040F4663053
:1022700030F4853020F4672F0E940511089590E016
:1022800080E00895CF92DF92FF920F931F93CF9338
:10229000DF936C0100918E0380911402082BC4E03F
:1022A000D0E010E0FC2EC8010C2E02C09595879559
:1022B0000A94E2F780FD0CC02197A0F7F12C8F2D36
:1022C000DF91CF911F910F91FF90DF90CF900895F4
:1022D000B6018C2F0E9434110E94B107019761F35F
:1022E000EECFCF93DF93EC010E944211BE010E941A
:1022F00034110E94B107DF91CF910895FC018481D0
:102300008823F9F087819085009791F00E94B107AA
:1023100092959F709630B9F080F4925F9F709230E2
:1023200080F4803F19F058F4883E58F481E0089515
:10233000808191810E947111EBCF9A5FEFCF843F32
:10234000A9F380E00895883E88F3813FD1F7EECF6E
:10235000A6E0B0E0EEEAF1E10C9421349C01FC012E
:10236000878190850097E1F486E0DE011196019067
:102370000D928A95E1F7F901258189819A812223BD
:1023800099F0662389F00E944211182F682F8981E5
:102390009A810E94C50869817A81812F0E94341137
:1023A0002696E3E00C943D340E949108182FF3CF59
:1023B00088E290E00E94FB34682F70E090E080E0BB
:1023C000089585E290E00E94FB34863289F486E22B
:1023D00090E00E94FB34873059F487E290E00E943D
:1023E000FB3491E0843109F090E0892F81700895E9
:1023F00080E0FCCFB0E0A0E0E0E0F2E10C941C341F
:102400006C017B0164E670E088E70E945C318C011E
:10241000E601EC0CFD1C17FD0BC0FE01849164E687
:1024200070E00E94C8318C012196CE15DF0599F726
:102430000E943E3281E00115110509F080E0CDB720
:10244000DEB7E8E00C9438348091B5039091B8037E
:10245000911103C091E089270895882369F062E013
:1024600070E080E793E00E94FA11811103C080912F
:10247000B50308951092B5038091B503EBCFCF93C8
:10248000C091B5038091B8038823D1F00E94D7068C
:10249000605A75418F4F9F4F6093B1037093B203A1
:1024A0008093B3039093B403C11108C062E070E05D
:1024B0008EE693E00E94FA11811105C0C091B50328
:1024C0008C2FCF91089581E08093B503F7CFB0E0D2
:1024D000A0E0EDE6F2E10C94183449015A016B01D9
:1024E0007C010E9442078401A4016A2D7B2D88E0B3
:1024F00090E00E94313594014A2D5B2DB601C70151
:1025000000E20E94C134622F84E290E00E941F35F5
:10251000CDB7DEB7ECE00C943434B0E0A0E0E3E9F2
:10252000F2E10C941834182FC62FD42F822E00916C
:10253000810300FF50C080918203811308C0809105
:102540008303861304C080918403841729F080914B
:10255000CC0282608093CC02E02FE695F0E0E0545C
:10256000FE4F80818093CA02802F8E7F8230E9F4F3
:10257000ED2FD73908F0E6E9F0E0E259FD4FC1113F
:102580002FC02491F22FE22F00FF0FC08091830112
:102590009091840133E0839FD0011124A353BD4F58
:1025A000891708F492C00E941B0F10938203C093F6
:1025B0008303D0938403882071F02091810360917C
:1025C000850370918603312FAE018091870390912E
:1025D00088030E946712CDB7DEB7ECE00C94343468
:1025E000EC2EF12CE4919E2ECE2ED12C26E0129FC3
:1025F000C00111242FEF30E0B9010E94FE33812F7A
:1026000090E0880F991FF5E5F69FA001F79F500D08
:102610001124841B950BB82EBB0CB80EA9014E19C2
:102620005F094C9DC0014D9D900D5C9D900D112446
:10263000F92FCB9DA0011124452F5527D901A41BAB
:10264000B50BAC9DA001AD9D500DBC9D500D11244E
:10265000D901AB19B1095D01AE9CD001AF9CB00DA1
:10266000BE9CB00D1124AB2FBB272A1B3B0B2C9D0E
:10267000D0012D9DB00D3C9DB00D11242B2F62304B
:102680007105A1F050F46115710509F47DCF613039
:10269000710581F0292FF52F77CF6430710569F02E
:1026A00080F06630710509F46FCFF4CF2E2FE92F3B
:1026B000FB2F6ACF2E2FE52F67CF292FFE2FEB2F71
:1026C00063CFE92FF92D252F5FCF1196EC9311974A
:1026D0002C931296FC9312978F5F139661CF20E094
:1026E0000E948D1208950F931F93CF93C82F0E94BD
:1026F000FF0891E0833009F090E0892F0E941009D3
:102700004C2F50E070E060E0DB01CA01F4E0B695C8
:10271000A79597958795FA95D1F70097A105B105EB
:1027200031F1AC01BD0184E08A019B01E2E0369504
:10273000279517950795EA95D1F7011511052105FC
:10274000310519F08E5FB901A80176956795579507
:102750004795452B462B472B09F08F5F8230F9F0C8
:1027600040F4882371F0813081F040E00BC080E0BC
:10277000DBCF8330C1F08430C1F74FEF6FEF85EDD1
:1027800007C04FEF60E080E003C04FEF6FEF80E8DD
:102790000E946F138C2FCF911F910F9108954FEFCF
:1027A0006FEF8AEAF5CF4FEF6FEF8FEBF1CF0E941B
:1027B000731380938E03089590918E0321E030E08F
:1027C000F90101C0EE0F8A95EAF7D90102C0AA0FFC
:1027D000BB1F6A95E2F7EA2B01C0220F4A95EAF780
:1027E000892F8E23E81305C0292B822F0E94D7132F
:1027F000089520952923F9CF21E030E001C0220F70
:102800008A95EAF7209580918E0382230E94D71340
:10281000089590910A028095892380930A02282FB7
:10282000277069F4891759F090919F0292FF07C0B1
:102830008695869586950E94FC1310920A0208954B
:1028400021E030E001C0220F8A95EAF780918E03E3
:10285000822B0E94D7130895E1E8F3E043812FE033
:10286000421B08F440E021E0628181810E948D12C8
:102870000895E1E8F3E043812FE0420F08F44FEFC1
:1028800021E0628181810E948D120895E1E8F3E0E8
:10289000628121E1621B08F460E021E043818181D3
:1028A0000E948D120895E1E8F3E0628121E1620F58
:1028B00008F46FEF21E0438181810E948D12089519
:1028C000E1E8F3E0818121E04381628181510E944E
:1028D0008D120895E1E8F3E0818121E04381628176
:1028E0008F5E0E948D12089580918503882319F0D0
:1028F0008150809385032091810330918203409120
:1029000083035091840360918503709186038091C5
:102910008703909188030E94671208958091850330
:10292000833018F48F5F8093850320918103309169
:1029300082034091830350918403609185037091D9
:10294000860380918703909188030E9467120895FF
:102950002091810320FF23C02170226020938103F6
:102960008091CC0281608093CC02662381F030910B
:102970008203409183035091840360918503709199
:10298000860380918703909188030E94671240918B
:10299000840360918303809182030E946F130895E2
:1029A000809181038695815009F481E061E00E9465
:1029B000A814089561E081E00E94A8140895E1E858
:1029C000F3E083E0808311828FEF828386E9838343
:1029D0001482AAECB2E012968C9112978360129640
:1029E0008C93758123E030E04FEF56E960E08681FB
:1029F00097810E946712089590919F0292FB22276F
:102A000020F9281779F080FB92F990939F0260914A
:102A10009E0270919F0284E090E00E943D3582E02A
:102A20000E940914089590E080E00E940935863ED6
:102A30009E4F19F40E94E111089580E00895B0E0DE
:102A4000A0E0E5E2F5E10C941D347901C82F880F70
:102A5000DD0B41155105A9F0FE0193E0EE0FFF1FBC
:102A60009A95E1F7EF5FFE4F818192818E5D9D4FD8
:102A7000208130E04217530708F49A01A9010E940F
:102A8000F234CE010E948833D82E8823D1F001156C
:102A90001105B9F083E0CC0FDD1F8A95E1F7FE0147
:102AA000EF5FFE4F438150E00417150708F4A801BB
:102AB000CF5FDE4F6C817D816E5D7D4FC7010E94CF
:102AC000F2348D2DCDB7DEB7E7E00C943934A5E0B4
:102AD000B0E0EDE6F5E10C941A348D83E62E5A0150
:102AE000F22E680180918F028A3028F080E02596CE
:102AF000EAE00C9436348D818930C4F31A8219824D
:102B00008A836B832C8363E070E0CE0102960E947F
:102B100026078983E0923101F092440110E000E041
:102B200030E020E044E050E0BE016F5F7F4F85E081
:102B30000E941F158823D1F24E2D50E030E020E096
:102B4000B50186E00E941F15882381F230E020E065
:102B500041E050E0BE016B5F7F4F87E00E941F1590
:102B6000882321F20F2D10E0960150E040E070E044
:102B700060E088E00E941F15BACFA4E0B0E0E3EC6B
:102B8000F5E10C94203440918302509184026091CD
:102B90008502709186022FB7F89480913504909148
:102BA0003604A0913704B09138042FBF841B950BD5
:102BB000A60BB70B11E084369105A105B10518F1FC
:102BC0000E94DC0F6E5F7F4F8F4F9F4F69837A8328
:102BD0008B839C8310E000E030E020E044E050E094
:102BE000BE016F5F7F4F82E00E941F15182F882360
:102BF00051F00E94D7066093830270938402809301
:102C0000850290938602812F2496E4E00C943C3454
:102C1000A5E0B0E0EEE0F6E10C941E347B0101E0AB
:102C200010E09E012B5F3F4F50E040E070E060E01D
:102C300080E00E941F15182F882309F456C0409188
:102C40007F025091800260918102709182022FB7C1
:102C5000F8948091350490913604A0913704B09196
:102C600038042FBF841B950BA60BB70B8436910538
:102C7000A105B10548F464E070E083E292E00E94AF
:102C800026079D81891789F104E010E09E012F5FDE
:102C90003F4F50E040E070E060E081E00E941F158F
:102CA000082F64E070E083E292E00E94260711E0C2
:102CB0009D81981310E0102331F10E94D706609394
:102CC0007F027093800280938102909382028981B7
:102CD0009A81AB81BC8180937B0290937C02A0930C
:102CE0007D02B0937E0211E00EC08091230290918C
:102CF0002402A0912502B091260289839A83AB8396
:102D0000BC831111E4CF80917B0290917C02A09151
:102D10007D02B0917E02F70180839183A283B38309
:102D2000812F2596E6E00C943A348F929F92AF92D1
:102D3000BF92EF92FF920F931F93CF937B01942F3B
:102D4000B901A801F70180809180A280B380EFB71C
:102D5000F894009135041091360420913704309195
:102D60003804EFBF081919092A093B09043611056F
:102D70002105310518F4C1E0992381F010E000E04D
:102D800030E020E00E941F15C82F882339F00E94F0
:102D9000D706F70160837183828393838C2FCF9151
:102DA0001F910F91FF90EF90BF90AF909F908F90E9
:102DB0000895A1E0B0E0EFEDF6E10C9420348091AD
:102DC000B50389832091360290E041E02817190667
:102DD00009F440E001E010E09E012F5F3F4F6BE8F7
:102DE00072E084E00E9495162196E4E00C943C3455
:102DF000ABE0B0E0EEEFF6E10C94203488E0E1E8DF
:102E0000F3E0DE01119601900D928A95E1F7809131
:102E1000CA029091CB02A091CC0289879A87AB8796
:102E200041E08B85811101C040E00BE010E09E0184
:102E30002F5F3F4F67E872E083E00E949516811193
:102E40001092CC022B96E4E00C943C34A8E0B0E065
:102E5000ECE2F7E10C94223466EE7EEF90E080E045
:102E60000E943D3560E082E090E00E941F3560E006
:102E700083E090E00E941F351092140260E074E13C
:102E800084E090E00E943D3560E086E090E00E94A2
:102E90001F356FEF87E090E00E941F3540E050E063
:102EA000BA0188E090E00E94313560E084E290E071
:102EB0000E941F3560E087E190E00E941F3560E0CE
:102EC0008CE090E00E941F3560E08DE090E00E9471
:102ED0001F3519821A821B821C821D821E821F824C
:102EE000188648E050E068E170E0CE0101960E944B
:102EF0000F3540E050E0BA0180E290E00E943135A9
:102F000080E00E94DC100E94F51040E050E0BA0121
:102F10008FE090E00E94313540E050E0BA0183E15B
:102F200090E00E9431352896E2E00C943E3428E08F
:102F300030E043E060E086E30E9484300895CF9360
:102F4000DF93D82FC62F0E9497178D2F80680E947D
:102F5000FC308C2F0E94FC308AEB8A95F1F700C080
:102F60000E942C3183E492E00197F1F700C0000049
:102F7000DF91CF910895682F893708F068E7609353
:102F8000910191E09093920190918601992339F0FB
:102F90006150811101C064E08FE00E949F17089585
:102FA000FB0180810E94BB170895909191019111BE
:102FB00001C095E0282F880F330BA901490F511D3F
:102FC000CA011816190614F081E090E00E94BB17A0
:102FD0000895ACE0B0E0EFEEF7E10C941C344F83C1
:102FE000588769877A878B879C8780918601882399
:102FF00009F446C08091E901811107C060E080E5D5
:103000000E949F1781E08093E9010E94971780E555
:103010000E94FC308AEB8A95F1F700C00E941431BF
:103020000E9414310E9414317C010E94143120E06E
:10303000E22AF82A0E9414318C010E94143120E007
:10304000022B182B0E942C3185E08A95F1F70000A5
:10305000F894B7018091890190918A010E94EB094F
:1030600090938A0180938901B80180918B0190919E
:103070008C010E94EB0990938C0180938B017894D2
:103080000E94A60F882309F469C00E94D706009108
:10309000EA011091EB012091EC013091ED016B01FF
:1030A0007C01C01AD10AE20AF30A970186010830AE
:1030B00011052105310508F451C06093EA017093B0
:1030C000EB018093EC019093ED010091940110913C
:1030D00095012091960130919701601B710B820B35
:1030E000930B623371058105910580F410928A017A
:1030F0001092890110928C0110928B0110928E0116
:1031000010928D011092900110928F0110919301F5
:103110000E94F60F482FBE01695F7F4F89E891E05A
:10312000112389F10E9424090091930110918601D5
:103130000E94F60F41E04827BE01695F7F4F8DE88E
:1031400091E0011719F10E94240986E0FE013796EB
:10315000AEE9B1E001900D928A95E1F786E0FE01BB
:103160003796DE01119601900D928A95E1F729813B
:103170003A814B815C816D817E8180E090E02C966C
:10318000E8E00C9438340E949109CECF0E94910956
:10319000DCCFCF93C82F0E9497178C2F0E94FC3052
:1031A0008FE792E00197F1F700C000000E94143110
:1031B000C82F95E09A95F1F700000E942C3185E622
:1031C0008A95F1F700001092E9018C2FCF910895B4
:1031D000CF93DF930E947C30269A0E9497176AE56E
:1031E0008AE30E949F172FEF80E792E021508040F2
:1031F0009040E1F700C0000082E00E94C91883E01F
:103200000E94C91884E00E94C91885E00E94C9186C
:1032100086E00E94C91860E080E10E949F1780E06C
:103220000E94C918D82F81E00E94C918C82F0E9497
:103230002C31D23419F481E0C13009F080E0817082
:1032400080938601882321F064E08FE00E949F171D
:10325000DF91CF9108951F920F920FB60F92112414
:103260002F933F934F935F936F937F938F939F938E
:10327000AF93BF93CF93DF93EF93FF93D091E90088
:10328000DF708091EC00C82FC17080FDC0E8109203
:10329000E9008091F000877F8093F00078940E948D
:1032A000560B1092E9008091F00088608093F00046
:1032B000CD2BCF70C093E900FF91EF91DF91CF91BB
:1032C000BF91AF919F918F917F916F915F914F913E
:1032D0003F912F910F900FBE0F901F9018951F9246
:1032E0000F920FB60F9211242F933F934F935F933A
:1032F0006F937F938F939F93AF93BF93EF93FF93BE
:103300008091E10082FF09C08091E20082FF05C048
:103310008091E1008B7F8093E1008091DA0080FF53
:1033200024C08091D80080FF20C08091DA008E7F79
:103330008093DA008091D90080FF9DC080E189BD33
:1033400082E189BD09B400FEFDCF81E0809347048E
:1033500080913904811109C00E9468050E94090604
:103360008091E20084608093E2008091E10080FF20
:1033700017C08091E20080FF13C08091E2008E7F31
:103380008093E2008091E20080618093E20080916E
:10339000D80080628093D80019BC85E080934704F0
:1033A0008091E10084FF2BC08091E20084FF27C060
:1033B00080E189BD82E189BD89B5982F917080FF38
:1033C000FBCF8091D8008F7D8093D8008091E10061
:1033D0008F7E8093E1008091E2008F7E8093E200F7
:1033E0008091E20081608093E2008091480488230C
:1033F00009F447C084E0809347048091470480919A
:10340000E10083FF27C08091E20083FF23C0809109
:10341000E100877F8093E10082E08093470410926F
:1034200048048091E1008E7F8093E1008091E2006A
:103430008E7F8093E2008091E20080618093E200C1
:1034400042E060E080E00E94D7058091F000886053
:103450008093F000FF91EF91BF91AF919F918F9179
:103460007F916F915F914F913F912F910F900FBE80
:103470000F901F90189519BC1092470410923904B0
:1034800074CF8091E30087FD93E090934704B5CF1C
:1034900078941F921FB61F9211248F939F93AF931E
:1034A000BF938091350490913604A0913704B09178
:1034B00038040196A11DB11D809335049093360404
:1034C000A0933704B0933804BF91AF919F918F912F
:1034D0001F901FBE1F9018959C014FB7F8948091C4
:1034E000350490913604A0913704B09138044FBF51
:1034F000821B930B08952FB7F89480913504909117
:103500003604A0913704B09138042FBF08952F924C
:103510003F925F926F927F928F929F92AF92BF92F3
:10352000CF92DF92EF92FF920F931F93CF93DF938F
:103530008091B803882309F434C18091B603909137
:10354000B7030E946C1AC29708F40BC10E947B1A41
:103550009093B7038093B60384EA94E09093AB060C
:103560008093AA060E94A60F882309F432C188E737
:1035700093E00E94CD0A88EB0E94470A80919D014A
:103580008F708A3008F06CC0805D0E94470A89EB1A
:103590000E94470A80919C018F708A3008F062C0B7
:1035A000805D0E94470A85E793E00E94CD0A8091E2
:1035B0009A0190919B0164E0969587956A95E1F751
:1035C0008F708A3008F050C0805D0E94470A809159
:1035D0009A018F708A3008F049C0805D0E94470AC6
:1035E00082E793E00E94CD0A84EA91E00E94AD0E4A
:1035F0008DE993E00E94CD0A8091A0010E94C0094C
:103600000E94AD0E8091A1010E94C0090E94AD0EE2
:103610008091A3010E94C0090E94AD0E8091A20179
:103620000E94C0090E94AD0E85E993E00E94CD0A78
:1036300080919101811101C085E00E94C00901962D
:103640000E94AD0E81E993E00E94CD0A809199011C
:10365000882371F0813009F4B6C088E893E00AC08D
:10366000895A93CF895A9DCF895AAFCF895AB6CFFD
:103670008EE893E00E94CD0A80919301882309F49B
:10368000A5C085E893E00E94CD0A8EE793E00E94F2
:10369000CD0A80919801811101C087E0805D0E9470
:1036A000470A83EA93E00E94CD0A80918E030E942C
:1036B000FF0890916901891305C090918D039032A4
:1036C00009F44BC08093690190E290938D03C82E5A
:1036D000D12CF12CE12C10928C03C701B6012AE009
:1036E00030E040E050E00E947734605D603331F0BC
:1036F000C114D104E104F10409F460E260938B0386
:1037000060E22AE0C216D104E104F10490F05AE02C
:10371000852E912CA12CB12CC701B601A5019401D5
:103720000E947734CA01B901A50194010E9477343F
:10373000605D60938A0320E264E6C616D104E1046A
:10374000F10448F0C701B60124E630E040E050E063
:103750000E947734205D2093890389E893E00E94DA
:10376000AD0E8091A2049091A304892B09F047C06B
:103770008091B5038823A9F00E94D7060091B10378
:103780001091B2032091B3033091B403601B710B0D
:10379000820B930B6F3F7F4F8F4F9F4710F40E9418
:1037A0002412DF91CF911F910F91FF90EF90DF9046
:1037B000CF90BF90AF909F908F907F906F905F90D1
:1037C0003F902F9008958BE893E054CF82E893E0E8
:1037D0005ACFC0E9D0EFDC0F8AEA93E00E94CD0A0D
:1037E00011E01D0F8D2F0E94470AD12F1C13F8CF17
:1037F00080E00E94DB0AC05FC03C61F7B2CF8091DD
:10380000B803882309F4B4CF8091B0038111B0CFFD
:103810000E943F122091A2043091A304211531058A
:1038200009F4A6CF80E041E050E0082F10E01A0133
:10383000082E02C0220C331C0A94E2F7B101622365
:103840007323672B11F48F5FF0CF9091AF0390FF3C
:1038500095C0880F880F880F80936C0110926F01BC
:10386000895F80936D0183E08093700124E630E0EE
:1038700047E050E06AE671E088E70E94F631892B64
:1038800009F076CFA80125E0440F551F2A95E1F7EE
:103890008091AF0380FF84C0EFE8F3E080E2DF01B6
:1038A0001D928A95E9F7A6ECB1E002EC11E08AECF2
:1038B000C82E81E0D82E97E0592E772473948D91ED
:1038C000E80129918E01240F352F311D2C553B4FD6
:1038D000E82FF0E0E157FC4F90E080E0652C681A9B
:1038E000872C082E01C0880C0A94EAF77901A12CD4
:1038F000E701B9907E01B820662D6A196770962E8F
:10390000062E000C770BDB2D01C0DD0F9A94EAF731
:103910007195619571096770772701C0B6946A95B2
:10392000EAF7BD2A6081962E9B289082A39468E0D6
:10393000A612DECF019631968830910579F6CA1627
:10394000DB0609F0BCCF04E610E020E230E04FE8EF
:1039500053E060E488E70E941732892B09F008CF12
:10396000E101C095D0958091A2049091A304C82351
:10397000D923D093A304C093A204FACE8295880FD2
:10398000807680936C01980136952795369527951A
:1039900020936F01815E80936D012093700166CF4B
:1039A0004C555B4F04E610E020E230E0D2CFA3E1BB
:1039B000B0E0EDEDFCE10C9417348E01045F1F4F75
:1039C00088E0D8011D928A95E9F78EEAC82E81E039
:1039D000D82EF12CE12CAA24A394B12C28EB822E12
:1039E00021E0922EF60181916F018F3F09F442C0D0
:1039F000F894E82FE295EF70F0E021A18F70A50117
:103A000002C0440F551F8A95E2F7CA01922F982BE6
:103A100091A392A18095892382A3789400C0E2EBC0
:103A2000F1E0712C31E021912F3F09F46BC0A22FFE
:103A3000A295AF70B0E090968C9190E02F7002C08C
:103A4000959587952A95E2F780FD5CC0832F782AAB
:103A5000330F8E169F0639F7F601319780818F3F1D
:103A600011F00E949A0750EA5A95F1F7F801EE0D0D
:103A7000FF1D70828FEFE81AF80AA4E0EA16F1043D
:103A800009F0B0CF48E050E0B80184E992E00E942C
:103A9000E534009741F028E0F801A4E9B2E0019094
:103AA0000D922A95E1F700919D02892B69F181E041
:103AB000809319020E947B1A909318028093170238
:103AC00080911702909118020E946C1A059700F1DC
:103AD00010E005551D4F44E050E064E972E0C80174
:103AE0000E94E534B12C892B51F084E0E4E9F2E046
:103AF000D80101900D928A95E1F7BB24B3941092FE
:103B0000190207C080E0A3CF809119028111D8CF9C
:103B1000B12C0E94A60FA82EE0919D02882309F4E3
:103B200089C019821A821B821C820E2F10E0055553
:103B30001D4F80918F028A3008F046C048E056E160
:103B4000BE016F5F7F4FC8010E94730F882309F485
:103B500060C04DEB55E1BE016F5F7F4FC8010E9411
:103B6000730F882309F455C048EF56E1BE016F5F1B
:103B70007F4FC8010E94730F882309F44AC049EDA2
:103B800056E1BE016F5F7F4FC8010E94730F88230B
:103B900009F43FC010928F0280919C0290E044E0B3
:103BA00050E0BE016F5F7F4F85559D4F0E94E53409
:103BB00021E020932002892BF1F4A12C8A2D8B295E
:103BC0006396EDE00C94333480911A0290911B02BD
:103BD0000E946C1A843F914008F0B0CF809120027F
:103BE000882359F384E0FE013196DF011D928A9506
:103BF000E9F710922002E0919C02F0E0E555FD4FBC
:103C000089819A81AB81BC8180839183A283B383B4
:103C1000D5CF80918F028F3F31F08F5F80938F02DD
:103C20008A3008F4B9CF0E947B1A90931B028093CC
:103C30001A02D4CFF0E0E555FD4F84E0A3E2B2E0F4
:103C400001900D928A95E1F764E070E083E292E0E2
:103C50000E94260780932202C0902702D09028025B
:103C6000E0902902F0902A0280911C0290911D029E
:103C7000A0911E02B0911F02C816D906EA06FB06E3
:103C8000D1F0C0921C02D0921D02E0921E02F0926E
:103C90001F020E94A60F81110EC00E94D706C61AED
:103CA000D70AE80AF90AC0929002D0929102E092F3
:103CB0009202F09293028BE0EBE2F2E0DE011196C9
:103CC00001900D928A95E1F79981892F86950A8155
:103CD000FB80EC801B85109235021123A1F010FFB0
:103CE0000AC090FF17C09091810391609093810367
:103CF00060E00E94A81411FF06C020E04E2D6F2D39
:103D0000802F0E948D1280913602882331F00E940C
:103D10003F1254CF0E94660FEECF0E9424124ECF66
:103D200081E00E9420140E947B1A9093C702809326
:103D3000C60282E08093C8020895AEE1B0E0E3EAF3
:103D4000FEE10C94223440919B0450919C046091BC
:103D50009D0470919E0480919F049091A0040E9404
:103D6000E91720939B0430939C0440939D04509347
:103D70009E0460939F047093A00486E0EBE9F4E056
:103D8000DE01179601900D928A95E1F786E0FE011B
:103D90003796DE011D9601900D928A95E1F786E037
:103DA000FE013D96DE01119601900D928A95E1F794
:103DB00086E0FE013196ABE9B4E001900D928A9560
:103DC000E1F786E0EBE9F4E0DE01599601900D920F
:103DD0008A95E1F786E0FE017996DE01179601905B
:103DE0000D928A95E1F78B8D2C8D382F322B909187
:103DF000C802332309F473C0923029F1933049F19A
:103E0000913009F05EC0082E000C990B97FF03C09B
:103E1000919581959109022E000C330B37FF03C059
:103E2000319521953109820F931F2091C402309161
:103E3000C502820F931F84319105E4F59093C5026A
:103E40008093C40206C00E947B1A9093C70280939D
:103E5000C60286E0FE013796DE01119601900D92B2
:103E60008A95E1F786E0FE013196DE0153960190D6
:103E70000D928A95E1F786E0FE017396DE011796B2
:103E800001900D928A95E1F786E0FE013796ABE945
:103E9000B4E001900D928A95E1F70E94FE0981112C
:103EA00045C08091C9021092C90281706E96E2E00D
:103EB0000C943E341092C5021092C4020E94901ECF
:103EC000C8CF0E947B1A9093C7028093C60281E0FC
:103ED0008093C8021092C5021092C402BACF9230E9
:103EE000A9F0933009F4B5CF913049F48091C6021E
:103EF0009091C7020E946C1AC39708F4AACF10923F
:103F0000C5021092C4021092C802A3CF8091C602CB
:103F10009091C7020E946C1A8131974208F499CFA0
:103F20001092C80281E00E94FC1393CF81E090E0E0
:103F3000BACFA4E1B0E0EFE9FFE10C9414347C01C6
:103F4000DC0114968C91882309F4B0C061E0C701AC
:103F50000E94A8118C01F7018581882309F460C1B2
:103F6000C80197578038910508F05AC1003108F010
:103F70008DC08FEF93E00E94FB34811187C059E020
:103F8000A52E52E0B52E01114EC0FE01339686E0FB
:103F9000DF011D928A95E9F74AE0442E85010F5F03
:103FA0001F4FC5010E94FB3489831A82882309F4BC
:103FB0006DC0813009F07EC06501B2E0CB0ED11C2E
:103FC000C8010E94FB348A83882309F45FC09FEFF5
:103FD000980F9330B0F5E3E0AE0EB11CC6010E941D
:103FE000FB348B83882309F451C01C828E010F5F40
:103FF0001F4FD8012C91222389F2213009F0B2C041
:1040000011969C91119712968C91913009F054C0A1
:104010000E5F1F4F65E070E0893311F460E570E0DA
:104020000E943B104FC0A114F4E0BF0679F1C50116
:104030000E94FB34811101C001502FEFA21AB20A75
:10404000A2CF5601843091F602E010E05601FFEF56
:10405000AF1ABF0AC6010E94FB34E1E0F0E0EC0FAA
:10406000FD1FE00FF11F8083882381F08C3741F41E
:10407000E2E0F0E0EC0FFD1FE00FF11F1082B6CF81
:104080000F5F1F4F65010730110501F780910A028C
:10409000877061F0D70115968C91882339F0809153
:1040A0009F0282FF03C082E00E9409146496E0E14F
:1040B0000C94303458019ACF923029F50E5F1F4F7F
:1040C0000E94530E0F5F1F4F8FE99FE00197F1F79A
:1040D00000C00000AFE9BFE01197F1F700C0000099
:1040E000EFE9FFE03197F1F700C000008FE99FE0B2
:1040F0000197F1F700C00000AFE9BFE01197F1F7B9
:1041000000C0000076CF933029F40E5F1F4F0E944D
:10411000270ED8CF943019F00F5F1F4FD3CF0E5F0B
:104120001F4F30E020E0B8016F5F7F4FF801418101
:104130008053990B8A30910550F02150310910F2CB
:104140008FE99FE00197F1F700C00000F6CF429E93
:10415000F001439EF00D11249C012E0F3F1F842F70
:104160008B01E1CFE22FF0E0E956FE4F5490822F11
:1041700086958695869590E0FC01E957FE4F649000
:104180002770712C022E02C0759467940A94E2F78E
:10419000A1E06A227724FC01E958FE4F8490912C1B
:1041A000022E02C0959487940A94E2F7B1E08B2224
:1041B0009924FC01E959FE4FC490D12C02C0D5943A
:1041C000C7942A95E2F7E1E0CE22DD246114710460
:1041D00019F081EE0E94530E8114910419F086EEBD
:1041E0000E94530EF9E365E070E05F1202C060E5E3
:1041F00070E0852D0E943B108114910419F086EE29
:104200000E94270E6114710419F081EE0E94270E9E
:10421000C114D10409F456CF65E070E08CE200CF00
:1042200010939B0100939A01F701808191819093F3
:104230009D0180939C01F8013497E533F105B8F4B2
:10424000E95EFD4FE491D70115968C9120EB811129
:1042500002C02E2FE0EBA4EAB1E090E080E03D91B7
:10426000321349C08A579E4FDC015E96EC93A80139
:1042700040545E47F70125814330510508F046C0A0
:1042800086E0EBE9F4E0DE01199601900D928A9543
:10429000E1F786E0FE013996DE011F9601900D924E
:1042A0008A95E1F71A8581E090E001C0880F4A9570
:1042B000EAF7222331F1182B83E08093C802188B90
:1042C00086E0FE013F96DE01119601900D928A95DF
:1042D000E1F7CE0101960E941E058093C90286E097
:1042E000FE013196ABE9B4E001900D928A95E1F7B9
:1042F0000E94FE09CBCE01968630910509F0AFCF22
:10430000B6CF809518230E94901ED9CF222329F082
:104310001092C80281E00E94FC13C8019A95811591
:104320009F41C8F4F801FF27D70115968C91E13D14
:10433000F10538F0E93DF10580F0E730BEE7FB0715
:1043400011F1882371F0FE57E031F10550F4E15A84
:10435000FA4C0C949934F801E7CF682F8E2F0E9405
:10436000300AF701858181113AC380913A04827243
:10437000F801E052F847E531F10508F0B1C0E15924
:10438000FA4C0C9499340E941009EBCF80E00E9403
:10439000BB17109298017ACE4091910150919801EB
:1043A00050FB47F956955370809199018370880F9F
:1043B000880F582B60E070E08FE090E00E9431356C
:1043C00065CE81E00E94D51761CE8FEFFBCF8AE0EA
:1043D000F9CF86EFF7CF9091930181E089270E9472
:1043E000100954CE80919801811101C087E08F5F40
:1043F00018160CF081E0883008F087E0809398016F
:1044000045CE80919801811101C087E08150F0CFA5
:1044100081E0809399013ACE1092990137CE82E0E3
:10442000F8CF8091810380FF1CC0282F2E7F20931E
:104430008103309182034091830350918403609102
:1044400085037091860380918703909188030E9471
:1044500067128091CC0281608093CC020E941B0F76
:1044600015CE81608093810361E086950E94A81437
:104470000DCE40ED54E16AED74E10E943C0706CE9A
:104480004AED54E160ED74E1F8CF40E654E16AE6AC
:1044900074E1F3CF4AE654E160E674E1EECF46E41E
:1044A00054E163E574E1E9CF43E554E166E474E186
:1044B000E4CF4CE254E169E374E1DFCF49E354E136
:1044C0006CE274E1DACF44E754E16EE874E1D5CFF1
:1044D0004EE854E164E774E1D0CF61E081E0C6CFFB
:1044E0000737FCE71F0709F44EC008372CE712070F
:1044F00009F44DC0F70187819085009709F488C0C1
:104500000E94B1078C01F701A580968092943FE04C
:10451000932280910A028770F1F0CA2CAA20E1F060
:10452000812F807F803451F080E2800F883098F0B6
:10453000911004C0812F807E803269F080919F02AB
:1045400082FF09C082E00E94091480910A028770EC
:10455000CC24C3948111C12CB12EB2942FE0B2228D
:10456000FBE0FB1508F4CBC0EB2DF0E0EC57FA4C68
:104570000C94993481E00E94201443E062E081E0D1
:104580000E94DC1383CD81E00E94FC13F6CF82E011
:10459000FBCF03303CE7130741F150F401159CE7D2
:1045A0001907A1F001301C4709F0A4CF0E94511057
:1045B0000B35BCE71B0751F10C35ECE71E07E1F0AA
:1045C0000A351C4709F096CF81E01DC010923A04CD
:1045D0000E944A0B2FEF34E38CE0215030408040A2
:1045E000E1F700C000000E94C6066FEF7FEF90E089
:1045F00080E00E943D35DACF80919F0282FB8827C0
:1046000080F991E089270E94FC1474CF80E0FBCFF1
:10461000858100811181882369F0C8010E944211BF
:10462000D82E682FC8010E94C508B8018D2D0E94A0
:10463000341166CFC8010E949108D82EF6CF212FE1
:104640002F70D22E107F19F0D29490EFD922AA2089
:10465000B9F0DD2069F080E2800F883010F00111A0
:1046600009C080913A04D82AD0923A040E940D0BD6
:10467000802F43C08091BB03D82AD092BB03F6CFD2
:10468000802F0E94270EDD20D1F180E2800F88303C
:1046900010F0011104C08D2D0E94800806C0D09436
:1046A0008091BB03D822D092BB030E940D0B27C080
:1046B000312F3F70D32E107F103219F0D29480EF3B
:1046C000D822002351F0013009F471C0AA2009F466
:1046D0007DC0992009F440C0CBCF80919F0282FD1C
:1046E00037C0AA2079F1DD2039F080913A04D82A28
:1046F000D0923A040E940D0B80E00E94530EAB2D25
:10470000A850BB0B149710F40E94CB0FCC20A9F03B
:1047100080910A0280FD11C0F70115828695869569
:1047200086950E942014C7010E94991F80910A0259
:104730008695869586950E94FC1360E0C7010E94CD
:10474000A811B4CC80E00E94270EDD20C1F2A3CFD7
:10475000AA2099F0911004C08D2D0E941D0ECFCF7C
:1047600081E09812CCCF809113029D2D9823D91609
:1047700031F2D82AD0921302C2CF9110C0CF8D2D22
:104780000E94160E909113028D2D892329F08D2DF4
:1047900080958923809313028091EE019D2D9823AB
:1047A00009F4ADCFD094D822D092EE01A8CFAA20A0
:1047B00029F095E0991508F4A2CFCECFA4E0A91571
:1047C00008F49DCF8D2D0E94160E99CF9920D1F31C
:1047D000093309F0FCC0BFEFE7EEF3E0B150E04071
:1047E000F040E1F700C00000802F0E94270E87CF25
:1047F0006A2D802F0E94300A82CF812F837089F525
:10480000A1107DCF402F429546954770440F440F2D
:10481000802F8F70042E01C0880F0A94EAF7202F92
:10482000207104FF07C02FE030E001C0220F4A953D
:10483000EAF72095169516951370123069F050F42A
:1048400030911402113029F0822B83230E94FC083E
:1048500056CF832B822BFACF282B809114028227EC
:10486000F5CF8695AA2011F0812F8170882309F455
:1048700046CF402F429546954770440F440F802FF6
:104880008F70042E01C0880F0A94EAF7202F207140
:1048900004FF07C02FE030E001C0220F4A95EAF77D
:1048A0002095169516951370123069F050F43091DA
:1048B0008E03113029F0822B83230E94D7131FCF40
:1048C000832B822BFACF282B80918E038227F5CF62
:1048D0001F70AA2029F0812F0E942014802F3DCF25
:1048E000802F0E94160E812F0E94FC1308CF023FDA
:1048F00089F160F4003FB9F0013F81F0AA2009F48A
:104900005AC09110B5CE812F8F7128C0033F49F155
:10491000043FA1F780919F0282FD2FC0812F8F71EC
:10492000AA2011F31BC0AA2081F094E0991508F485
:10493000E6CE1F7181E090E0012E01C0880F0A943D
:10494000EAF790918E038927B8CFA5E0A91508F45E
:10495000D6CEEFCF812F8F71A110C6CF0E94201429
:10496000CECE80E0AA2009F4A8CF1F7181E0012EED
:1049700001C0880F0A94EAF7A0CFAA2089F01F711E
:10498000812F0E94201480919F0282FF07C0B8E00F
:104990001B9FC0011124836080930A02812FDECF08
:1049A00081E00E940914E1E0E91508F0A8CE82E058
:1049B0000E940914A4CE992079F0093341F4FFEF45
:1049C00027EE33E0F15020403040E1F70BCF8FE18C
:1049D0009EE40197F1F706CF812F8F7185CF0737BE
:1049E000FCE71F0709F4C6CD08372CE7120709F0CA
:1049F000D0CD82E0C0CDCF93DF9380910702807F3E
:104A000009F04DC080910602882309F448C0E09166
:104A10009A0450915104C0910202D0910102609118
:104A200003027091040249E05E17C9F18E2F90E0F5
:104A3000E49FF0011124EE5AFB4F2481222391F1CF
:104A4000489FF001499FF00D1124DF01AE5ABB4F82
:104A500011962C9111972C1325C02C912D1322C047
:104A600015962C91159721111DC012962D913C91F0
:104A7000261B370B283C3105A8F4809107028F7064
:104A8000806180930702E85AFB4F80818F708061BC
:104A9000808381E092E00E94991F0E948708DF9145
:104AA000CF910895FC013196E770BECFA8E1B0E048
:104AB000ECE5F5E20C9418348C0186E0F801DE0197
:104AC000539601900D928A95E1F7F8018481E58073
:104AD00091E0A92E92E0B92E90910502911128C083
:104AE000882319F1EE20F1F0C8010E947E11F82E02
:104AF0008823C1F089E0F801D50101900D928A95D3
:104B0000E1F780910502813031F4809101029091AA
:104B100002020E9471110E94FB248F2D6896ECE026
:104B20000C943434C8010E94991FFF24F394F5CFEC
:104B3000D080C18082809380F09006022091030291
:104B400030910402A401421B530BFF2009F40DC154
:104B5000483C510508F0B6C08823F9F29091020252
:104B600080910702282F207F09F05FC0C9121DC065
:104B700090910102D91219C0409108025091090286
:104B8000278130854217530781F4E11048C08F70A8
:104B900080618093070281E092E00E94991F8091DA
:104BA0000702F8018683F12CB8CFE11038C06C2DD4
:104BB0008D2D0E9449056C2D8D2D0E944905E82EF2
:104BC0008111F1CFDB8ACC8A8B899C890E9471117B
:104BD000292F22952F70243058F49F70223088F0AE
:104BE000992399F0F8019681907F79F4FE2C95CF66
:104BF0002A5F2F70223068F0C8010E94991FEF2CA5
:104C0000F5CF992311F0882389F3805E883070F303
:104C1000F3CF803F58F3815F833070F7E7CF809107
:104C20000702816080930702BECFC9121CC0909119
:104C30000102D91218C0409108025091090227813F
:104C400030854217530779F4E1100DC08683C801FF
:104C50000E94991F89E0F801A1E0B2E001900D9255
:104C60008A95E1F75ACFC8010E947E11882309F482
:104C700059CFEE2009F456CF809107028032B8F068
:104C800020910102309102023B872A879D868C8603
:104C9000909105029E871F86888B809108029091D3
:104CA00009029A8B898BCE010A960E94991F89E08E
:104CB000F801A1E0B2E001900D928A95E1F70E941F
:104CC000FB2433CF90910702292F207F51F481E0FC
:104CD00092E00E94991F89E0F50111928A95E9F707
:104CE00062CF882309F419CF809102028C1119C078
:104CF00080910102D81215C040910802509109021A
:104D0000278130854217530761F4E1100AC096836A
:104D1000C8010E94991F89E0F50111928A95E9F76F
:104D2000FCCEC8010E947E11882309F4FBCEEE2040
:104D300009F4F8CE80910702803208F4B8CF2091B0
:104D40000102309102023A8329839C828B829091E6
:104D500005029D831E828F83809108029091090233
:104D600099878887CE010196A0CF483C510598F6D7
:104D7000882309F4DACEFE2CEE2009F4D3CE8091FC
:104D800002028C1120C080910102D8121CC0209117
:104D9000080230910902878190852817390799F414
:104DA0009091070290FD56CF907F09F453CF8091E8
:104DB00007028683903F09F44ACF982F907F905F37
:104DC0008F70892B43CFC8010E947E1181116FCF54
:104DD00080910702816080930702C8010E94991F99
:104DE0009CCEA2E1B0E0E7EFF6E20C9420340A8713
:104DF0001B872C873D874E875F87688B798B8A8BD3
:104E0000CE010A960E94562581110CC089E0FE0150
:104E10003A96DE01119601900D928A95E1F78E8502
:104E200081110BC019E080919A049091510489136B
:104E300033C06296E4E00C943C342091510430E09D
:104E4000C90101968770992740919A04481719065D
:104E500099F099E0929FD001939FB00D1124AE5A22
:104E6000BB4FFE01319601900D929A95E1F7809328
:104E700051040E948708D6CF10923A040E944A0B30
:104E80001092510410929A0489E0E1E0F2E0DF010F
:104E90001D928A95E9F7C6CF819FC00111248E5AD1
:104EA0009B4F0E945625882321F280919A0490E01E
:104EB00001968770992780939A04B5CFB0E0A0E05F
:104EC000E4E6F7E20C941B348091BD03882369F07B
:104ED000C091BC03C12C8DE0D82E8091BD03C817B2
:104EE00048F01092BD031092BC03CDB7DEB7E9E0E5
:104EF0000C943734BB24B394BC0EB092BC03EC2E9C
:104F0000F12CCD9DE0011124C254DC4F8C8188230B
:104F100061F18F819885892B21F489859A85019685
:104F200059F4088119812A813B814C815D816E8110
:104F30007F8188850E94F126DE9CF001DF9CF00DC8
:104F40001124E254FC4F14821092BB03C1100DC017
:104F5000CE010E947E11811108C08FE19EE401976D
:104F6000F1F700C00000CC24C394CB2DB6CF109233
:104F700031041092300410927F0180912F048093AD
:104F80002E040E9411070E945E270895B0E0A0E061
:104F9000ECECF7E20C941234C0912E04E7E0FE2E04
:104FA00001E010E0FDE02F2EEE24E39480912F0429
:104FB0008C1309C00E945E270E941107CDB7DEB78F
:104FC000E2E10C942E34D0E0FE01EE0FFF1FEA5D0B
:104FD000FB4F80819181F89EF001F99EF00D112424
:104FE000EF58FE4F248121115AC03090BD03AEEB23
:104FF000B3E030E020E0412C5F01231508F04DC004
:105000001B966D907C901C97F501808091804FEFEE
:105010005FEF512CC52CD12CF601EE0FFF1FE80DD0
:10502000F91D659174916616770609F4A601672B40
:1050300011F05394EFCF4F3F5407B9F1B80102C0BC
:10504000660F771F4A95E2F7462AA801052C02C091
:10505000440F551F0A94E2F74150510944161506B2
:1050600009F5229EF001239EF00D1124E254FC4F1D
:10507000F89ED001F99EB00D1124AF58BE4F129684
:105080002D913C9113973087278374E074831082AD
:105090001182928781871596EC920E94E3062196F1
:1050A000C37084CF14961C9214972F5F3F4F1D96A8
:1050B000A4CFAEE1B0E0EFE5F8E20C9412344B8BF4
:1050C0005C8B6D8B7E8B8F8B988F91111092BB03B5
:1050D000188A198A1A8A86E0FE017396DE011A96EA
:1050E00001900D928A95E1F78E85882389F061E021
:1050F000CE010A960E94A8116C018F8520E5C21688
:105100002CE7D20689F4882329F181E080937F017E
:105110000A851B852C853D854E855F856889798943
:105120008A890E94F126C9C031E5C3163CE7D3063F
:1051300029F4882379F00E94B727EACF42E5C41604
:105140004CE7D40639F4882329F080917F0181113E
:10515000F2CFDBCFA1E7EA2EA1E0FA2E512CB12C41
:10516000A12C88248394912C17E0412ECE01019626
:105170009A8F898F33243394F701408151816624BB
:105180006A94762C60E0262F30E0F901EE0FFF1FC5
:10519000E40FF51F85919491C816D90609F43901D9
:1051A000892B31F06F5FEFCFAA24A394B12CE4CF09
:1051B00010E0FFEF6F167F0609F443C0F70144814A
:1051C00010917F01812F411180E0182F1170F7019C
:1051D000258086819F85992309F4EFC0112309F466
:1051E000ECC0211014C09401062C01C0220F0A94B7
:1051F000EAF7822B86838091B9039091BA03C29714
:1052000030F422E330E03093BA032093B903C401B1
:1052100002C0880F991F6A95E2F70197F70126816E
:105220002817190671F48091300490913104009789
:1052300009F447C00E946C1AC39708F442C0F701F2
:105240003482512AF7E0EF0EF11C21E0A216B104DE
:1052500009F0AACF8F85882309F40EC1552009F4DF
:105260000BC10E947B1A909331048093300480918B
:10527000BD03883010F591E0980F9093BD0399E03D
:10528000FE013A96DE01119601900D929A95E1F792
:105290003DE0839FC001112482549C4F29E0FE0110
:1052A0003196DC0101900D922A95E1F72FEF3FEF47
:1052B000FC0132872187D486C3866E96E2E10C9486
:1052C0002E3480912E0460912F04982FF0E0E0E0BE
:1052D000861314C090932E04EE16FF0609F4B1CF86
:1052E00090E0FC01EE0FFF1FEA5DFB4FB182A08250
:1052F00001968370992780932F04A3CF682E712C79
:10530000F301EE0FFF1FEA5DFB4F20813181429ECA
:10531000D001439EB00D1124AF58BE4F2D913C914A
:1053200011973E8F2D8F00E070E0212CE22DF0E0F0
:10533000EE0FFF1F2D8D3E8DE20FF31F259134914F
:1053400021153105E1F0F7010190F081E02DFC8F8E
:10535000EB8F70E005C02417350709F4012F7F5F3C
:10536000E72FF0E0EE0FFF1F4B8D5C8DE40FF51F74
:10537000459154914115510571F72394D7CF0023DE
:10538000C9F0F701721508F0FD013482EE16FF0630
:1053900021F490932E04102F54CF891305C0AE171B
:1053A000BF0711F49F5F937093012F5F3F4F822FD0
:1053B00083708ECFF0E0E0E0F7CF90E021101FC0C7
:1053C000940102C0220F331F6A95E2F72150310980
:1053D0002817390731F4442309F44CC0C5010E9451
:1053E000E306C401062C01C0880F0A94EAF7982F3F
:1053F0009095F701868189238683122D22CFAC01F7
:10540000062C02C0559547950A94E2F7BA016170DF
:1054100077279C012150310982239323892B31F571
:10542000672B21F1F70182819381892BE1F0E98DCE
:10543000FA8D242D11922A95E9F70E947B1A282FC4
:105440008B839C8334E03D83F70182819381782FA5
:105450008887998709811A813C8144E05E816F8148
:10546000892F0E94F126F7011582BBCFF42FF1702E
:105470002F2EB7CF212EB5CF90912E0480912F04DF
:10548000981729F00E94C627511017CF41CE0E94CD
:105490005E2710923104109230040E941107F4CF5D
:1054A000A6E0B0E0E6E5FAE20C9420340E947B1A14
:1054B0008C0180911502909116028017910781F05E
:1054C00019821A820E947B1A682F49815A81792F8A
:1054D00080E090E00E945928109316020093150274
:1054E0002696E4E00C943C341F921FB61F921124C0
:1054F0008F939F93AF93BF9380913404811113C016
:105500008091350490913604A0913704B09138040D
:105510004196A11DB11D8093350490933604A0934C
:105520003704B0933804BF91AF919F918F911F9032
:105530001FBE1F901895CDB7DEB7A6970FB6F8948B
:10554000DEBF0FBECDBF85B7806885BF85B78068D9
:1055500085BF84B7877F84BF0FB6F894A8958091E4
:105560006000886180936000109260000FBE80E848
:1055700090E00FB6F89480936100909361000FBEA5
:105580008CE697E09093DB018093DA010E94680536
:105590000E9409068091E20084608093E200789482
:1055A000809147048823A1F01091E9001F70909129
:1055B000EC00892F817090FD80E8182B1092E90093
:1055C0008091E80083FD0E94560B1F701093E90044
:1055D00082E084BD93E095BD9AEF97BD80936E0005
:1055E00010929002109291021092920210929302E5
:1055F0000E94E111811102C00E94F5100E94F60F75
:105600008093000180910001882309F468C0109202
:1056100081018EE1809382010E94A60F81110E9478
:105620009C32809100018091000194E0811190E012
:1056300090939D0284E0891B80939C0284EF0E94DA
:105640009A0785EF0E949A0786EF0E949A0787EFD4
:105650000E949A0702EB11E0D8018D918D018F3FD6
:1056600011F00E949A07B1E0083B1B07A9F788E0F8
:10567000EBEAF2E0DF01882E1D928A94E9F7E4E973
:10568000F2E0DF011D928A95E9F70E94131581115E
:1056900002C00E94261782E090E00E94FB348093B3
:1056A000A10284E090E00E94093590939F028093CC
:1056B0009E020E94D71CEFE3FCE93197F1F700C08E
:1056C00000000E94D71C8091AB0280FF0CC06FEFDE
:1056D0007FEF90E080E00E943D350E94C6068EE19B
:1056E0008093810197CF83E090E00E94FB340E9479
:1056F000FC0880918E030E9473130E94A60F8823DA
:1057000009F48DC180E08093AF0380E88093A10409
:105710000E9456316BE070E083E692E00E94FA113D
:105720008823E9F18091AF0365E070E081FD79C1E4
:105730008EE592E00E94FA11882389F16DE070E015
:105740008CE492E00E94FA11882349F10E94D70666
:10575000605A75418F4F9F4F6093B1037093B203AE
:105760008093B3039093B403E4EAF4E080E092E022
:10577000DF019C011D9221503040E1F7F093AB0610
:10578000E093AA068FEF9FEF9093A3048093A20467
:1057900081E08093B8038093B5031092B0038091A9
:1057A000A002811176C00E941315811104C00E94CD
:1057B00026170E94DF1488E090E00E9403354B0119
:1057C0005C0184E290E00E94FB34282F30E040E04E
:1057D00050E060E070E080E090E000E20E94A634DB
:1057E000282939294A295B29209381033093820390
:1057F00040938303509384036093850370938603DF
:1058000080938703909388038091CC028360809378
:10581000CC022E7F89F50E94DF1488E090E00E9480
:1058200003356B017C0184E290E00E94FB34282F59
:1058300030E040E050E060E070E080E090E00E9406
:10584000A634B22FA32FF42FE52F5B019701860119
:10585000BC29A12BFE29E32BB0938103A0938203E3
:10586000F0938303E093840360938503B0928603EF
:1058700080938703909388030E944207809181035D
:1058800080FF04C060E086950E94A81481E08093A8
:10589000A0020E94A60F811102C00E949F320E94A6
:1058A000E8180E94A60F81112EC084E390E1909326
:1058B000500180934F0129E130E030934B01209358
:1058C0004A0189E390E090934E0180934D0148E5B1
:1058D00057E0509358014093570130935301209360
:1058E0005201909356018093550140ED57E150933A
:1058F000600140935F0130935B0120935A019093C4
:105900005E0180935D010E9413158823B9F08FE03A
:1059100090E00E9403358B01862F8F770E94BB1782
:10592000001F0027001F612F6370660F602B6093BC
:105930009801169516951370109399010E940E10F8
:1059400081E691E0909333048093320436E9E32EAC
:10595000F12CCC24CA94D12C8091470400E112E1AF
:10596000853009F4A0C00E94D71C02EA12E09BEA2D
:10597000A92E92E0B92E28EB822E21E0922E9401DE
:10598000B501F8019191DB018D91BD01D9014D91D6
:105990009D018423B2E0EA3AFB0709F490C098170E
:1059A00089F30E94A60F382E612CF50171905F01DA
:1059B000D4018D914D017822F80121908F01271497
:1059C00031F1512C442443942724822D8421B9F0B1
:1059D0003320A9F059A26AA20E947B1A9CA38BA330
:1059E000F1E0FDA391E0842D872109F490E09EA3CE
:1059F00049A15AA16BA17CA18DA10E945928539461
:105A0000440C26E05212E1CFF80131977082639482
:105A100038E06312CACF0E94DC0F11E055C082E06B
:105A200072CE89E592E086CE80914704843041F1C0
:105A30000E9424120E949D1E1092340448E150E0FE
:105A400080E40FB6F894A895409360000FBE809351
:105A5000600083B7817F846083BF83B7816083BF29
:105A60007894889583B78E7F83BF0FB6F894A895F6
:105A700080916000886180936000109260000FBE8A
:105A800080914604882379F00E94D71CEBEAF2E06B
:105A9000A8EBB1E081919D91892309F015C392E0B3
:105AA000E33BF907B9F780914704853009F4BCCF8F
:105AB00010923A040E944A0B0E94CB0F54CF9813C5
:105AC00070CF0E94502A10E00E94A60F882319F17F
:105AD00080917F018823F9F0809130049091310406
