:100000000C940C050C9429050C9429050C94883447
:100010000C9429050C9429050C9429050C942905A8
:100020000C9429050C9429050C945A1A0C94161A50
:100030000C94002C0C9429050C9429050C9429058A
:100040000C9429050C9429050C9429050C94290578
:100050000C9429050C94331B0C9429050C94290548
:100060000C9429050C9429050C9429050C94290558
:100070000C9429050C9429050C9429050C94290548
:100080000C9429050C9429050C9429050C94290538
:100090000C9429050C9429050C9429050C94290528
:1000A0000C9429050C9429050C9429050E000F00C9
:1000B00000000D000E0000001000360000000C00D3
:1000C0001800000004001600000005010902A1014B
:1000D00085020901A100050919012908150025015A
:1000E0009508750181020501093009311581257FC7
:1000F00095027508810609381581257F95017508D7
:100100008106050C0A38021581257F950175088145
:1001100006C0C00660FF0961A1010962150026FF43
:10012000009520750881020963150026FF009520BF
:1001300075089102C005010906A101050719E0290A
:10014000E715002501950875018102950175088163
:10015000010507190029FF150026FF0095067508FF
:10016000810005081901290515002501950575016E
:100170009102950175039101C0000000000000008C
:10018000000000000000000000000000000000006F
:10019000000000000000000000000000007E0F00D2
:1001A000D4FFFFFFC700000078000000000000003F
:1001B000002A2B28000000000000000000000000C2
:1001C0000000000029000000002C1E342021222401
:1001D000342627252E362D3738271E1F202122238F
:1001E0002425263333362E37381F04050607080921
:1001F0000A0B0C0D0E0F10111213141516171819E7
:100200001A1B1C1D2F3130232D3504050607080944
:100210000A0B0C0D0E0F10111213141516171819C6
:100220001A1B1C1D2F3130354C6162636465666793
:1002300068696A6B6C6D6E6F7071727374757677C6
:1002400078797A313233343536373839305245425D
:10025000545F2D3D5B5D5C233B27602C2E2F00DA25
:100260000281FFD9F1DB20A4A62EAF00A0C0D300ED
:1002700000A1C8D30000AED580A81F408D14200077
:100280000001010101010101010102020202020259
:10029000020202030303030303030304040404042C
:1002A00004040505050505060606060607070707F3
:1002B0000708080808090909090A0A0A0B0B0B0CA8
:1002C0000C0C0D0D0D0E0E0E0F0F0F101011111145
:1002D00012121313141415151616171718181919C6
:1002E0001A1A1B1B1C1D1D1E1E1F2020212222232B
:1002F0002424252626272829292A2B2C2D2D2E2F6C
:1003000030313232333435363738393A3B3C3D3E82
:100310003F404142434445464748494A4C4D4E4F71
:1003200050515354555658595A5B5D5E5F61626433
:10033000656668696B6C6D6F7072737577787A7BC0
:100340007D7E8082838587888A8C8E8F9193959617
:10035000989A9C9EA0A2A3A5A7A9ABADAFB1B3B537
:10036000B7BABCBEC0C2C4C6C9CBCDCFD1D4D6D813
:10037000DBDDDFE2E4E7E9EBEEF0F3F5F8FAFDFFB1
:10038000FFAA7F554000AF00AE202000BABB004B53
:10039000657920B10020C0C100BEBF00484F0056A3
:1003A00054003030200020202020B1BCBD0042612C
:1003B0006C6CB100B4B500B2B300C2C3004CB6B7A8
:1003C00072B100202000290014001A000800150056
:1003D00017002B0004001600070009000A00E100C6
:1003E0001D001B000600190005000000E200E300EC
:1003F00091212C4190434C00130012000C00180076
:100400001C00240233000F000E000D000B008700BB
:100410003800370036001000110000004600E600EA
:10042000913128422A000F7E3A003B003C003D00FB
:100430003E000D7E01000100520028004C000E7E9F
:100440000100500051004F002A000000010001008F
:10045000010001000100440043004200410040004F
:100460003F004500D300D2005200D1004B000100F4
:1004700001004F00510050004E000000010001003B
:1004800001000100010001003402240025002600C3
:100490002502010033022100220023003000010068
:1004A0002D021E001F002000300200002700370030
:1004B000010001000100010021022F0023021E02A1
:1004C00026021F02340020022E022D003200890273
:1004D00038022F022E0087023202000001000100C4
:1004E000010001004C0020780A7E0B7E0C7E01008A
:1004F000010021782378257827780100087E22786A
:100500002478267828780100097E0000007C007E8F
:1005100001000100010030782F782E782D782C789A
:100520002B78010001003478337832783178017EFD
:100530000100047E027E037E057E0000007C007EBA
:1005400001000100010001000100010001000100A3
:100550000100010001000100010001000100010093
:100560000100010001000100010000000100010084
:100570000100010001000100010001000100010073
:100580000100010001000100010001000100010063
:100590000100010001000100010000000100010054
:1005A00001000100010009025B00030100A0FA093B
:1005B000040000010301010009211101000122448E
:1005C000000705810308000109040100020300007F
:1005D00000092111010001222200070582032000E9
:1005E00001070503032000010904020001030000C4
:1005F00000092111010001224900070584032000A0
:100600000112010002000000085759000400010116
:1006100002000114034B0065007900620061006C68
:10062000006C00340034000000100359006F0077A4
:10063000006B0065006500730000000403090400FE
:10064000000000000000002F00000000070007006D
:1006500000123F123F1200242A7F2A120036091E80
:10066000241B0018262912280000000700000000A3
:100670001E214000000040211E000014083E081406
:100680000008083E08080000003070000008080854
:1006900008080000003030000020100C0201001E8D
:1006A0002925231E0000223F20000022312929266F
:1006B00000122125251A001814123F1000172525B5
:1006C0002518001E25252518000131090503001AEB
:1006D0002525251A00062929291E0000003333008C
:1006E00000000033730000081414222200141414B4
:1006F0001414002222141408000201290502003EED
:1007000059555D3E003816111638003F2525251A2B
:10071000001E21212112003F2121211E003F2525FD
:100720002521003F09090901001E2121291A003F46
:100730000404043F0000213F210000102020201F5E
:10074000003F040C1221003F20202020003F020423
:10075000023F003F020C103F001E2121211E003FDE
:1007600009090906001E2129112E003F0909192631
:100770000012252529120001013F0101001F202040
:10078000201F000718201807000F300C300F002121
:10079000120C1221000304380403003129252321FF
:1007A00000007F4141000001020C10200000414187
:1007B0007F0000040201020400404040404000006D
:1007C0000103040000102A2A2A3C003F2422221C94
:1007D000001C22222224001C2222243F001C2A2A40
:1007E0002A0C0000043E0505000C5252543E003F06
:1007F000080404380000003D0000002040403D0097
:10080000003F080814220000013F2000003E023C87
:10081000023C003E0402023C001C2222221C007EFC
:100820001422221C001C2222147E003E0402020418
:1008300000242A2A2A120000021F2200001E202063
:10084000103E000618201806000E300C300E002254
:1008500014081422000E5050483E0022322A26224C
:100860000008087741410000007F00000041417707
:10087000080800180408100C000000000000000028
:100880000000000000000000000000C0F0F88C86AE
:10089000C6E7FFFFFFFFFFFFFEFCFCF8E080000063
:1008A00000F0F0F00000C0E0F07070000000000008
:1008B0000000000000000000000000000000000038
:1008C00000F8F8F800000000000000000000000040
:1008D00000000000000000F8F8F80000F8F8F80048
:1008E0000000000080E07078686C64C7C7C7C7C7A5
:1008F000C7E73F1F0F3FFFFFFFFFFFFF3F0F000056
:1009000000FFFFFF1E3FFFF3E1800000F8FCFE3612
:1009100036363EBCB8000E3EFEF080F0FE3E0E00C5
:1009200000FFFFFF060606FEFEFC7000E6F6F63648
:1009300036FEFEFC000000FFFFFF0000FFFFFF008F
:100940000000003C7F6360E0C0C0C0C0C0C0C0C049
:10095000FFFFC06030180F03030301000000000018
:100960000003030300000003030303000103030368
:100970000303030301007070393F1F0701000000EB
:100980000001030303030303030100000103030346
:10099000030303010000000303030000030303003B
:1009A00010101000000000550000003E635D5D6304
:1009B0007F417B77413E00001C22221C003E0A0042
:1009C0003E0A00322A3C0026281E001C2A2C000069
:1009D000003F09360000001E212100000000003FFA
:1009E0000837001E2121001E2121003F0906002199
:1009F0003F2100222519001E2121003F0936003F1A
:100A0000211E00213F21000F300F003E093E003F14
:100A1000063F003F2020000011241FBECFEFDAE088
:100A2000DEBFCDBF12E0A0E0B1E0EEE4FEE602C022
:100A300005900D92A430B107D9F726E0A4E0B2E00A
:100A400001C01D92AE3CB207E1F70E94272C0C9426
:100A5000D7360C940000482F2091B80490916F0471
:100A600059E0291302C080E0089530E0529FF00160
:100A7000539FF00D1124E059FB4F8181681306C08C
:100A80008081481303C085818111EECF2F5F3F4FD6
:100A90002770E7CFE8EDF0E080818E7F80831092B1
:100AA000E2001092DA001092E100A0EEB0E08C912A
:100AB00081608C9380818F77808319BCA7EDB0E033
:100AC0008C918E7F8C9380818F7E808310925704CF
:100AD00008952091E4003091E50095E6A901209168
:100AE000EC00822F817020FF06C08091E80080FF1B
:100AF00006C080E008952091E80022FD1AC0809190
:100B00006504882389F0853089F08091EB0085FDAC
:100B10000FC02091E4003091E50042175307F9F22D
:100B20009150E1F684E0089582E0089583E008950D
:100B300081E008958091670487FF13C08091E800E9
:100B400082FF06C08091E8008B778093E80004C0A4
:100B5000809165048111F2CF089580916504882306
:100B6000D9F38091E80080FFF8CF8091E8008E777C
:100B7000ECCF982F9093E900242F762F50E089171F
:100B800031F07091EC002091ED005091F00021FDCA
:100B900007C09F5F973071F78093E90081E0089567
:100BA0003091EB003E7F3093EB003091ED003D7FC4
:100BB0003093ED003091EB0031603093EB00709397
:100BC000EC002093ED005093F0002091EE0027FD03
:100BD000E0CF80E00895B0E0A0E0E1EFF5E00C9414
:100BE000C235C8EDD0E088818F7E8883E7EDF0E0E4
:100BF00080818160808384E082BF81E0809357049C
:100C000088818E7F888302EE10E0F80110821092B6
:100C1000DA0081EEC82ED12CF601108288818F7700
:100C2000888388818068888388818F7D888319BCC8
:100C3000109265041092660410926404109263048A
:100C400090EEE92EF12CF70180818B7F80838881E3
:100C50008160888342E060E080E00E94B905F6018F
:100C600080818E7F8083F801808181608083808194
:100C700088608083F70180818E7F80838881806196
:100C80008883CDB7DEB7E8E00C94DE35FC018091B7
:100C90006D0490916E0486179707A0F06115710599
:100CA00029F49091E8009E779093E80090E0611518
:100CB000710551F4911108C08091E80082FF34C0A1
:100CC00080E00895BC01F2CF809165048823C1F1D2
:100CD0008530C1F18091E80083FD30C08091E8004B
:100CE00082FDEACF8091E80080FFE1CF8091F300A0
:100CF0002091F200382F6115710519F02830310567
:100D000058F091E02830310509F090E02091E8009A
:100D10002E772093E800CBCF81918093F100615032
:100D200071092F5F3F4FE7CF80916504882341F021
:100D3000853041F08091E80083FFBECF81E00895C7
:100D400082E0089583E00895089580915A040895FB
:100D500087E797E7909301088093000888E19AE07D
:100D60000FB6F894A895809360000FBE9093600032
:100D7000FFCF2FB7F8946091530470915404809181
:100D80005504909156042FBF0895DC0160914C04E6
:100D900080914D04962F891301C00895292F30E0CA
:100DA000F901EE0FFF1FEC5BFB4F408151814A17A9
:100DB0005B07A1F487E08A9FA0018B9F500D11244F
:100DC00044585E4F81E0FA0184839613E6CF2F5F8B
:100DD0003F4F2370332720934C0408952F5F3F4FDC
:100DE000922F9370D8CF1092D8031092D703ECE7CC
:100DF000F1E08581811102C014821682379681E06C
:100E0000EF39F807B1F70895FC01680F791F8FEFEC
:100E100091E32191822728E030E087FF09C0880F05
:100E2000892721503109C9F7E617F70791F7089587
:100E3000880FF7CFFA01811101C0FB0109950895D0
:100E40008091B904982F9E7F61F4817082608093B5
:100E5000B9048091BC04873918F086E98093BC04FA
:100E600008958831B0F381708661F1CFAF92BF925F
:100E7000DF92EF92FF920F931F93CF93DF93082F90
:100E8000162FE901E42FF0E0E058FD4F611110C08A
:100E9000E4915E2F4E2F4983E8835A83DF91CF91EF
:100EA0001F910F91FF90EF90DF90BF90AF9008954A
:100EB000E62EF12C4491D42EE42FF0E026E0829F20
:100EC000C00111242FEF30E0B9010E94A435802F1A
:100ED00090E0880F991F55E5569FD001579FB00DA0
:100EE00011248A1B9B0B982F990F890F5901AE185B
:100EF000BF08AE9ED001AF9EB00DBE9EB00D1124B6
:100F00005B2F189F80011124012F11275901A01A6E
:100F1000B10AAE9E8001AF9E100DBE9E100D112431
:100F20005901A81AB108AE9CC001AF9C900DBE9C9F
:100F3000900D1124892F9927281B390B2E9FC00152
:100F40002F9F900D3E9F900D1124E92F6230710567
:100F5000A1F050F46115710509F49DCF6130710560
:100F600081F0EB2F512F97CF6430710569F080F03D
:100F70006630710509F48FCFF4CFE42F4B2F592F32
:100F80008ACFE42F412F87CFEB2F542F492F83CFC8
:100F90004B2F5D2DE12F7FCF90917401882341F07D
:100FA0009F5F9093740110927101109270010895E7
:100FB0009150F7CFE9E6F1E0828591E089278287B9
:100FC00010861782089580917201811114C080915A
:100FD0007401811110C08091730181110CC0909136
:100FE000F40296959695969581E020916A01921368
:100FF00080E08170089581E0FCCFCF93DF93E6EA33
:10100000F1E083819481A581B681E9018883998388
:10101000AA83BB831482138216821582DF91CF913B
:10102000089580E0089563E070E081E692E00E9418
:10103000040790916002891318C0E0916102EC30BE
:10104000A4F488E0E802F0011124EF5FFE4F06806F
:10105000F781E02D309749F024E832E040916302B7
:1010600064E672E08091620209950895EBE4F2E093
:10107000878980933101808D809344010895F8948D
:10108000E82FE295EF70F0E031A1282F2F7081E07A
:1010900090E001C0880F2A95EAF7982F9095932346
:1010A00091A392A1892B82A378940895811522E5BA
:1010B000920780F5811530E5930708F0ABC0883EB4
:1010C0009105A0F4803E910558F4853A910548F4C5
:1010D0008430910528F48130910511F090E080E092
:1010E00008958D3C9105D0F390650895811540E4F5
:1010F000940708F044C0811550E2950708F0A3C09A
:10110000811561E0960750F320E0392FA901482BA3
:10111000CA010895803872E59707A8F4803622E561
:10112000920708F05AC0803432E5930708F03FC0B8
:10113000803242E5940730F18F7190E0982F882734
:10114000816F906A0895803C52E5950760F4282FDE
:101150002F71803A924508F456C0822F90E0982F64
:10116000882790620895803E72E5970708F0B6CF11
:10117000982F882788279F71806F906A08959F70A5
:10118000906A0895282F2695269550E2259F900174
:101190001124837041E050E0BA0102C0660F771F4E
:1011A0008A95E2F7CB01822B932B9D680895282F17
:1011B00026952695277070E2279F90011124837051
:1011C00041E050E0BA0102C0660F771F8A95E2F74E
:1011D000CB01822B932B9C680895282F269526956A
:1011E000277070E2279F90011124837041E050E046
:1011F000BA0102C0660F771F8A95E2F7CB01822BF6
:10120000932B9A680895822F90E0982F8827846FF7
:10121000906A08959C0195E0369527959A95E1F797
:101220002F7030E0322F2227482F4F7150E084FF7B
:1012300005C084E0440F551F8A95E1F7C901842B4E
:10124000952B906908959F718CCF8095909158044B
:1012500098239093580408958091B80490916F0456
:10126000981301C008958F5F8770FACF292F9830A7
:1012700078F5863068F590E036E0239F800D911D6B
:101280001124682F677023E0969587952A95E1F7DA
:10129000FC01EE0FFF1FE80FF91FE75EFD4F50E066
:1012A00040E080E0219130E0062E02C0369527957F
:1012B0000A94E2F721703327042E01C0220F0A940A
:1012C000EAF7822B4F5F5F4F4330510559F708957E
:1012D00080E00895292F983098F5863088F590E0C1
:1012E00036E0239F800D911D1124282F277041E0A7
:1012F00001C0440F2A95EAF723E0969587952A9531
:10130000E1F7FC01EE0FFF1FE80FF91FE75EFD4F4D
:1013100030E020E070E05191DF011197CB01022E07
:1013200002C0969587950A94E2F78170819585278A
:10133000842385278C932F5F3F4F2330310559F746
:10134000089580933D020895982F92959F7011F013
:10135000892F94E0282F2695269511F09E5F822FE5
:10136000869509F09F5F892F0895CF93C82F8091AC
:10137000B3018C1751F00E94B9066093B4017093C9
:10138000B5018093B6019093B701C093B301CF919B
:101390000895B0E0A0E0EFECF9E00C94C2358C01C8
:1013A000EB01E091B801E11101C0E7E0E150FF0B72
:1013B00081E090E06C010E2E02C0CC0CDD1C0A9482
:1013C000E2F7D801ED90FC90C701B6010E94093602
:1013D0009B01CB010E2E02C0880F991F0A94E2F7E1
:1013E000E81AF90AD8011196FC92EE921296ED9045
:1013F000FC90C701B6010E940936CB0102C0880FDC
:10140000991FEA95E2F7E81AF90AF801F382E282F5
:101410006138FFEF7F07F4F060387105ECF46D83FD
:1014200021388FEF3807D4F020383105CCF4822FE3
:1014300081958C83442319F061956D832C83809171
:10144000B901882379F0813079F0CDB7DEB7E8E0D3
:101450000C94DE3561E8E3CF6FE7E1CF21E8E7CF19
:101460002FE7E5CF1D82F1CF1C82EFCFFC01DB011E
:101470002281338191E821388FEF38072CF0922FA9
:10148000203831050CF09FE712969C93129720812B
:10149000318121388FEF3807A4F0203831059CF4D2
:1014A00013962C931397442339F0919512969C939D
:1014B0001297219513962C93118210821382128217
:1014C000089521E8EDCF2FE7EBCF8F708A3010F42D
:1014D000805D0895895A0895382F20E287FF02C061
:1014E00031952DE24AE0832F642F0E94FB35905DF9
:1014F0009093110281110BC02093100220E22093DF
:101500000F0220E220930E028EE092E00895642FF5
:101510000E94FB35905D90931002832F64E60E9439
:10152000FB35882361F3805D80930F02EBCF9C0134
:10153000860F971F37FD07C077FD04C097FF02C0D5
:101540008FEF9FE7089577FFFDCF97FDFBCF80E0FA
:1015500090E80895E2E7F1E083E0DF011D928A95CB
:10156000E9F7EEE6F1E084E0DF011D928A95E9F704
:10157000089520916B0130916C012817390731F0E3
:1015800090936C0180936B010E94AA0A0895909138
:101590006901981721F0809369010E94AA0A0895B1
:1015A000CF939091EF028091E802981323C080912D
:1015B000F002882321F09091E90289131BC08091E9
:1015C000F102882321F09091EA02891313C08091DF
:1015D000F302882321F09091EC0289130BC09091C3
:1015E000F202992329F081E02091EB02291303C034
:1015F00080E001C081E0C82FC17080FF0FC0E09182
:101600005004F0915104309749F082E08093EE024B
:101610000480F581E02D8EEE92E009959091EF0225
:1016200086E0EEEEF2E0DF01282F1D922A95E9F721
:101630009093EF02A7EEB2E001900D928A95E1F748
:1016400081E0C11103C0911101C080E08170CF9190
:1016500008952FE2280F283078F481E090E001C04F
:10166000880F2A95EAF72091EF02662331F0822B4A
:101670008093EF020E94D00A089580958223F8CFCC
:10168000CF93DF93282F81E02A3019F02D3031F4E9
:1016900080E00E94D40BDF91CF9108958091CA061B
:1016A0009091CB0636E0FC01A4ECB6E001900D92DF
:1016B0003A95E1F730EE320F343A08F458C026E09C
:1016C000FC0111922A95E9F7C091CA06D091CB0688
:1016D00046E050E0BE0184EC96E00E9469369E012F
:1016E000245C3440892B41F1C90145E096958795EA
:1016F0004A95E1F741E050E0BA0102C0660F771F5A
:101700008A95E2F7CB016091C2047091C304862BE5
:10171000972BB9016B5F7F4FE5E076956795EA956A
:10172000E1F702C0440F551F6A95E2F7842B952B11
:101730009093C3048093C2042A5F3F4F4091C10439
:10174000642F70E0C9010E94A435481B463010F494
:10175000240F311D211572E0370710F030E020E032
:101760002C533B4F3093CB062093CA0694CF205284
:10177000330B46E0429FB001439F700D1124615C22
:10178000794F46E050E00E9460369ECFCF93DF93C2
:10179000EC01FE018491811103C0DF91CF91089586
:1017A0000E94400B2196F5CFCF93382FE091CA06C7
:1017B000F091CB06E45CF4402091C104622F70E00C
:1017C000CF010E94A435281B822F332361F066E0ED
:1017D0000E94EF35C82FC15010F4CF91089580E2D8
:1017E0000E94400BF8CF9F01280F311D2115324078
:1017F00018F080E0F0E0E0E08E0F9F2F911D8C53F9
:101800009B4F9093CB068093CA06E7CF80915804F4
:101810009091D903892B8093060290913C029923E1
:1018200091F0892B8093060220E088E092E0FC0191
:101830003191CF0131112F5FF2E08E309F07B9F760
:10184000211110923C0248E050E064E372E086E02F
:1018500092E00E946936892BA9F088E0E6E0F2E088
:10186000A4E3B2E001900D928A95E1F7E091500473
:10187000F0915104309731F00280F381E02D86E041
:1018800092E009950895E8E0F2E086E0DF011D921C
:101890008A95E9F71092D9030E94060C0895AAE2EE
:1018A000B0E0E5E5FCE00C94C73587E694E02091D4
:1018B000F100DC012D93CD01B4E08F369B07B9F721
:1018C00080916804833009F472C0B8F4813009F45F
:1018D00049C0823009F4B5C08091E80083FF8DC211
:1018E00080916704909168049A3008F086C2E92FCD
:1018F000F0E0E752F94C0C941D368A3009F490C0A0
:101900008B3009F471C0893039F7809167048132D6
:1019100019F780916B0490916C04009711F0029775
:10192000D9F68091E800877F8093E8008091E800F5
:1019300082FF38C09091F3008091F200029731F459
:101940008091F100813011F0863021F48091F10016
:1019500080935A048091E8008B778093E8000E947E
:101960009A05BACF80916704813A09F0B5CF80918A
:10197000E800877F8093E80080916B0490916C046D
:10198000892B61F468E08BE594E070E00E944606E4
:101990008091E8008B778093E8009ECF60E090E034
:1019A00080E0F3CF809165048111C0CF95CF809105
:1019B0006704813A09F090CF80916B0490916C0498
:1019C000892B09F089CF8091E800877F8093E80018
:1019D0008091E80080FFFCCF8091A0018093F1000E
:1019E0008091E8008E77B9CF80916704813209F049
:1019F00073CF80916B0490916C04892B09F06CCFAC
:101A00008091E800877F8093E8000E949A0580918A
:101A100069048093A001109258040E94430C5CCF8B
:101A200080916704813209F057CF8091E800877F69
:101A30008093E8000E949A0580916A04809359047B
:101A40004BCF80916704813A09F046CF8091E8003E
:101A5000877F8093E8008091E80080FFFCCF809131
:101A60005904BCCF803899F0823809F0C6C1809102
:101A70006B048F70873008F0C0C18093E9008091BB
:101A8000EB0085FB882780F91092E90006C0809161
:101A9000630490916404911182609091E800977FB3
:101AA0009093E8008093F1001092F1008091E8009B
:101AB0008E779FC1882309F48DC1823009F09DC1C2
:101AC00080916904811190C180916B048F702FEF18
:101AD000280F263008F091C18093E9002091EB0097
:101AE00020FF82C1933031F48091EB0080628093BB
:101AF000EB007AC19091EB0090619093EB0021E0B4
:101B000030E001C0220F8A95EAF72093EA00109294
:101B1000EA008091EB008860EACF81116EC11091DC
:101B200069041F778091E3008078812B8093E30024
:101B30008091E800877F8093E8000E949A05809159
:101B4000E80080FFFCCF8091E30080688093E30091
:101B500082E0111183E0809365044FC18058823088
:101B600008F04BC12091690430916A042C3DE3E0F8
:101B70003E07A1F583E08A838AE289834FB7F89410
:101B8000DE01139620E03EE051E2E32FF0E05093B7
:101B90005700E49120FF03C0E295EF703F5FEF70C4
:101BA0008E2F90E0EA30C0F0C7968D939D932F5F03
:101BB000243159F74FBF8091E800877F8093E80078
:101BC0006AE270E0CE0101960E9446068091E8002C
:101BD0008B778093E80011C1C096E7CF80916B04AA
:101BE00090916C04432F55274330510509F44AC0A6
:101BF00078F54130510509F47AC08BE590E0E6EACA
:101C0000F5E04230510509F0F8C02091E800277F47
:101C10002093E80020916D0430916E0482179307A1
:101C200008F49C0140E02115310509F065C041111F
:101C300063C08091E80082FDC9CF8091650488234C
:101C400029F2853019F28091E80083FFF2CFBECFF0
:101C50004132510509F43CC04232510509F0CDC072
:101C60008330910508F0C9C0FC01EE0FFF1FE95059
:101C7000FE4F0190F081E02D8C509E4FDC018C9145
:101C800090E01AC0332721303105D1F021153105FC
:101C900061F02230310509F0B0C0E3E1F6E0E491F3
:101CA0008E2F90E0E3E1F6E007C0EBE3F6E0E4918D
:101CB0008E2F90E0EBE3F6E0009709F49EC0A5CFED
:101CC000E9E2F6E0E4918E2F90E0E9E2F6E0F4CF6D
:101CD0008330910508F091C0880F991FFC01E350F3
:101CE000FE4F0190F081E02D89E090E08ECF82E1FF
:101CF00090E0E1E0F6E089CF80916504882309F463
:101D000065CF853009F462CF8091E80083FD5ECF16
:101D10008091E80082FD8DCF8091E80080FF83CF25
:101D20009091F3008091F2002115310519F088306F
:101D3000910550F041E0089709F040E08091E800FB
:101D40008E778093E8006FCF44914093F1003196F5
:101D5000215031090196E8CF803809F04EC08091BA
:101D6000E800877F8093E800809166048093F1000B
:101D70009DCE811142C0109169041230F0F580911E
:101D8000E800877F8093E800109366040E949A051C
:101D9000112311F084E005C08091E30087FDFACFA4
:101DA00081E08093650442E061EC81E00E94B90526
:101DB00042E261EC84E00E94B90542E261EC82E01B
:101DC0000E94B90542E260EC83E00E94B90580916F
:101DD000650413C080916904813079F481E0933007
:101DE00009F080E0809364041092E9008091E8009B
:101DF000877F8093E8000E949A058091E80083FF26
:101E00000AC08091E800877F8093E8008091EB0012
:101E100080628093EB00AA96E3E00C94E33588237C
:101E200021F00E9425090E94060C0895882339F0AC
:101E300090915804982B909358040E94060C089592
:101E4000882349F19CEF980F913A80F4E8E0F2E0A2
:101E50002EE032E09191891303C0DF0111971C92AB
:101E60002E173F07B9F70E94060C089590E2980FCD
:101E7000983050F4877091E001C0990F8A95EAF785
:101E8000892F0E942509EFCF93E3980F933118F41F
:101E900060E00E94290B08950F931F93CF93C82FE2
:101EA000882341F18CEF8C0F813AB0F508E012E005
:101EB0008EE092E0F8012191C21701F18E179F0781
:101EC000D1F7EFEF80E0D8019D918D01C91781F026
:101ED000EF3F19F4911101C0E82F8F5F863099F719
:101EE000EF3F31F00E2E000CFF0BEA5FFD4FC28377
:101EF0000E94060CCF911F910F910895E8E0F2E047
:101F00002191C21303C0DF0111971C928E179F0706
:101F1000B9F70E94060CD5CF80E28C0F883068F4A8
:101F2000C77021E030E001C0220FCA95EAF7809126
:101F30005804822B80935804DBCF83E38C0F8331CA
:101F4000C8F661E08C2F0E94290BD4CF0F931F930A
:101F5000CF93DF93EC01FC0101900020E9F78F01A2
:101F600001501109C017D10728F0DF91CF911F91BF
:101F70000F91089589910E94400BF4CF0F931F9306
:101F8000CF93DF938B01EA0190916504943061F562
:101F90008093E9008FEF9091E800815095FD06C095
:101FA00095ED9A95F1F700008111F5CF8091E80049
:101FB00085FF1AC00E946905811111C08091E80057
:101FC00085FD06C08091E8008E778093E800F2CF0F
:101FD000F80181918F018093F100219779F7809129
:101FE000E8008E778093E800DF91CF911F910F91E9
:101FF000089546E050E0BC0184E00E94BE0F0895C1
:10200000CF93DF93EC0148E050E0BC0181E00E94F7
:10201000BE0F88E0FE01ABE5B4E001900D928A9519
:10202000E1F7DF91CF9108956091A2018091B90409
:1020300080FF20C08091A10143E0849FC001112452
:1020400088509D4F539A2BB1277F3BB138605FB7C3
:10205000F894FC01649FE00DF11D1124BF01681785
:102060007907D1F45FBF8FE594E00197F1F700C0E5
:10207000000008958091A3019091A40123E0829F24
:10208000F0011124E850FD4F8917A0F6118210824B
:1020900012828F5F3396F8CFFC014191CF01E8E0C7
:1020A0003BB9000000C047FF2BB9440F000000C03F
:1020B00000C000C02BB900C0EA9591F7D0CFE9EB82
:1020C000F4E080818E7F8083E5EFF2E082818160A1
:1020D00082830E9414100895B0E0A0E0E2E7F0E1EE
:1020E0000C94C0357C015B016A018091B80201E06B
:1020F00010E08A3010F40AE010E0C1E0D0E0B50151
:10210000C701F6010995811104C021960C171D071E
:102110002CF4CDB7DEB7EAE00C94DC35CC9F90010F
:10212000CD9F300D300D112490E080E045E34A95BD
:10213000F1F70000019682179307C1F7E0CF809175
:102140004A02811119C088EC90E02091E30027FD3C
:1021500010C0EFE3FCE93197F1F700C000000197F0
:10216000A1F782E080934A020E944A05109265041A
:1021700003C081E080934A0281E090914A0291304D
:1021800011F080E0089508950E949F10882359F06F
:10219000E0915004F0915104309729F00190F081C2
:1021A000E02D0995089580E008950F931F930E94F4
:1021B0009F10882329F00E94B9061F910F9108955E
:1021C0000E94B9060091B9021091BA022091BB0297
:1021D0003091BC02600F711F821F931FEECF549885
:1021E0005C9A879A8F9885E08A95F1F7000089B10B
:1021F00087988F9A90EA9A95F1F790E024E0959568
:1022000087952A95E1F78095909581700895CF93F1
:10221000DF938091A601CEE18111CDE18091A701EC
:10222000D0E0882329F08091A801DEE18111DDE171
:102230000E94EF1081110FC08D2F8093A101C093D8
:10224000A201CD0F1092A301C093A401C093A501D8
:10225000DF91CF91089580E0F0CF8091A601F90140
:1022600080830E94071108951F93CF93DF93182F47
:10227000EB010E944C0F8FE99FE00197F1F700C03E
:1022800000002197C1F7812F0E94200FDF91CF918D
:102290001F910895109258040E94430C2FEF84E37D
:1022A0009CE0215080409040E1F700C0000088E1B0
:1022B0009AE00FB6F894A895809360000FBE9093B3
:1022C0006000FFCFCF93DF93C9E0D2E060E0CE01A2
:1022D0000E94A3362196C11584E0D807B9F7DF9193
:1022E000CF9108951F93CF93DF93122F8530E0F4A1
:1022F0006830D0F44630C0F4C42FD0E0CC0FDD1FDE
:102300009CE0699FC00DD11D112490E6899FC00DEE
:10231000D11D1124632FCE0189960E94A336612F0F
:10232000CE018A960E94A336DF91CF911F91089526
:10233000AF92BF92CF92DF92EF92FF921F93CF9313
:10234000DF9386ECC82E83E0D82ED0E07601C0E083
:1023500014C0F50125913491412F6C2F8D2F0E94CF
:10236000721182E0A80EB11C1F5F163091F78CE04D
:10237000E80EF11CCF5FC83019F0570110E0E9CF2B
:10238000DF5F80E6C80ED11CD53001F7DF91CF9119
:102390001F91FF90EF90DF90CF90BF90AF90089586
:1023A00088E290E00E94A3360895CF93C82F6FEF84
:1023B000811166E285E290E00E94A3366FEFC111C1
:1023C00067E086E290E00E94A3366FEFC11164E1FE
:1023D00087E290E00E94A336CF91089580E00E94AA
:1023E000D51160E070E0CB010E94D0110E949811DD
:1023F0000E94621181E00E94D51108950F931F93EE
:10240000CF93DF93853030F5683020F5463010F5F6
:10241000C42FD0E0CC0FDD1F2CE0629FC00DD11D7A
:10242000112430E6839FC00DD11D1124CE01899661
:102430000E947F36082F10E0102F0027CE018A96C9
:102440000E947F369801282BC901DF91CF911F91FF
:102450000F91089590E080E0F8CF462F783040F457
:10246000663030F4853020F4672F0E94FE11089505
:1024700090E080E00895CF92DF92FF920F931F9338
:10248000CF93DF936C010091AC0380913D02082B48
:10249000C4E0D0E010E0FC2EC8010C2E02C09595DF
:1024A00087950A94E2F780FD0CC02197A0F7F12CE4
:1024B0008F2DDF91CF911F910F91FF90DF90CF90E3
:1024C0000895B6018C2F0E942D120E945608019784
:1024D00061F3EECFCF93DF93EC010E943B12BE017C
:1024E0000E942D120E945608DF91CF910895FC01A1
:1024F00084818823F9F087819085009791F00E946C
:10250000560892959F709630B9F080F4925F9F7054
:10251000923080F4803F19F058F4883E58F481E0FE
:102520000895808191810E946A12EBCF9A5FEFCF6C
:10253000843FA9F380E00895883E88F3813FD1F776
:10254000EECFA6E0B0E0E7EAF2E10C94C7359C01DB
:10255000FC01878190850097E1F486E0DE01119609
:1025600001900D928A95E1F7F901258189819A817F
:10257000222399F0662389F00E943B12182F682FBE
:1025800089819A810E946A0969817A81812F0E94DA
:102590002D122696E3E00C94E3350E943609182F9D
:1025A000F3CF88E290E00E947F36682F70E090E0E1
:1025B00080E0089585E290E00E947F36863289F4BB
:1025C00086E290E00E947F36873059F487E290E0FF
:1025D0000E947F3691E0843109F090E0892F81706C
:1025E000089580E0FCCFB0E0A0E0E9EFF2E10C94C8
:1025F000C2356C017B0164E670E088E70E9402331B
:102600008C01E601EC0CFD1C17FD0BC0FE01849152
:1026100064E670E00E946E338C012196CE15DF05D2
:1026200099F70E94E43381E00115110509F080E07B
:10263000CDB7DEB7E8E00C94DE358091D3039091FE
:10264000D603911103C091E089270895882369F08A
:1026500062E070E087E893E00E94F312811103C00A
:102660008091D30308951092D3038091D303EBCFCD
:10267000CF93C091D3038091D6038823D1F00E94D9
:10268000B906605A75418F4F9F4F6093CF03709387
:10269000D0038093D1039093D203C11108C062E0AC
:1026A00070E085E893E00E94F312811105C0C091AB
:1026B000D3038C2FCF91089581E08093D303F7CF7C
:1026C000B0E0A0E0E6E6F3E10C94BE3549015A0122
:1026D0006B017C010E9420078401A4016A2D7B2DDF
:1026E00088E090E00E94B53694014A2D5B2DB6013A
:1026F000C70100E20E944536622F84E290E00E940A
:10270000A336CDB7DEB7ECE00C94DA35A3E0B0E049
:10271000ECE8F3E10C94C135F82EE62E042FD22E0E
:102720008091B90480FF55C09091BA049F1108C0F0
:102730009091BB04961304C09091BC04941729F0A7
:102740009091F70292609093F702E82FE695AE2FF2
:10275000B0E0A052BE4F9C919093F5028E7F8230E4
:1027600009F041C0402F073908F046E99E012F5F6C
:102770003F4F6E2D8F2D0E9436078091B90480FF48
:1027800011C02B8139814A818091A3019091A401CC
:1027900053E0859FF0011124E850FD4F8917E8F0C0
:1027A0000E941410F092BA04E092BB040093BC049F
:1027B000DD2079F02091B9046091BD047091BE04D0
:1027C0003F2D4E2D502F8091BF049091C0040E9448
:1027D00060132396E9E00C94DD3541833083228336
:1027E0008F5F3396DBCF9230E9F6E2506E2F617047
:1027F000B62EE695F0E0E058FC4F1491C12C6091A4
:10280000A501C61668F6C19EC001112470E00E94A1
:10281000A4358F2DB11017C0860F2091A301622F10
:102820006C0D7727771F9B01220F331F260F371F51
:1028300028503D4F402F073908F046E96E2D0E9481
:102840003607C394DCCF861BE8CF20E00E948613B6
:102850000895E9EBF4E043812FE0421B08F440E0E7
:1028600021E0628181810E9486130895E9EBF4E002
:1028700043812FE0420F08F44FEF21E06281818114
:102880000E9486130895E9EBF4E0628121E1621B66
:1028900008F460E021E0438181810E94861308955D
:1028A000E9EBF4E0628121E1620F08F46FEF21E0CF
:1028B000438181810E9486130895E9EBF4E08181D0
:1028C00021E04381628181510E9486130895E9EBE2
:1028D000F4E0818121E0438162818F5E0E94861352
:1028E00008958091BD04882319F081508093BD0420
:1028F0002091B9043091BA044091BB045091BC04BA
:102900006091BD047091BE048091BF049091C00499
:102910000E94601308958091BD04833018F48F5F86
:102920008093BD042091B9043091BA044091BB0456
:102930005091BC046091BD047091BE048091BF04AD
:102940009091C0040E94601308959091B90490FF83
:1029500027C09170811125C092609093B904809135
:10296000F70281608093F702662391F02091B90409
:102970003091BA044091BB045091BC046091BD04F5
:102980007091BE048091BF049091C0040E946013B6
:102990004091BC046091BB048091BA040E9425144C
:1029A00008958C3010F09661D8CF880F982BD5CF32
:1029B00060E00E94A51408950F931F93CF93C82F32
:1029C0000E94A40991E0833009F090E0892F0E94D1
:1029D000B5094C2F50E070E060E0DB01CA01F4E083
:1029E000B695A79597958795FA95D1F70097A10584
:1029F000B10531F1AC01BD0184E08A019B01E2E047
:102A00003695279517950795EA95D1F70115110584
:102A10002105310519F08E5FB901A80176956795FA
:102A200057954795452B462B472B09F08F5F8230F2
:102A300041F140F4882389F08130E1F040E00AC0A0
:102A400080E0DBCF833021F18430C1F781E00E9448
:102A5000D8144FEF60E080E006C081E00E94D814F7
:102A60004FEF6FEF8AE60E9425148C2FCF911F91B4
:102A70000F91089582E00E94D8144FEF60EB8BE035
:102A8000F2CF81E00E94D8144FEF66E684E8EBCFE6
:102A900081E00E94D8144FEF6FEF85E1E4CF0E94F0
:102AA000DC148093AC0308959091AC0321E030E0F6
:102AB000F90101C0EE0F8A95EAF7D90102C0AA0F09
:102AC000BB1F6A95E2F7EA2B01C0220F4A95EAF78D
:102AD000892F8E23E81305C0292B822F0E944F15C2
:102AE000089520952923F9CF21E030E001C0220F7D
:102AF0008A95EAF720958091AC0382230E944F15B6
:102B000008959091F402809589238093F402282FF0
:102B1000277069F4891759F09091C80292FF07C095
:102B20008695869586950E9474151092F4020895F4
:102B300021E030E001C0220F8A95EAF78091AC03D2
:102B4000822B0E944F1508958091B904869581507B
:102B500009F48BE061E00E94A51408958091B90406
:102B600086958F5F8C3008F081E061E00E94A514AB
:102B700008958091B90480FF08C0869582588F77A8
:102B8000893018F40E94AE15089561E082E00E9439
:102B9000A5140895E9EBF4E083E0808311828FEFC0
:102BA000828386E983831482A5EFB2E012968C912A
:102BB0001297836012968C93758123E030E04FEF7B
:102BC00056E960E0868197810E9460130895909194
:102BD000C80292FB222720F9281779F080FB92F98E
:102BE0009093C8026091C7027091C80284E090E09F
:102BF0000E94C13682E00E948115089590E080E035
:102C00000E948D36863E9E4F19F40E94DA12089576
:102C100080E00895B0E0A0E0E0E1F6E10C94C33577
:102C20007901C82F880FDD0B41155105A9F0FE0170
:102C300093E0EE0FFF1F9A95E1F7EF5FFE4F818162
:102C40009281855B9D4F208130E04217530708F445
:102C50009A01A9010E947636CE010E942E35D82E07
:102C60008823D1F001151105B9F083E0CC0FDD1FE9
:102C70008A95E1F7FE01EF5FFE4F438150E00417B4
:102C8000150708F4A801CF5FDE4F6C817D81655B7D
:102C90007D4FC7010E9476368D2DCDB7DEB7E7E0B8
:102CA0000C94DF35A5E0B0E0E8E5F6E10C94C03522
:102CB0008D83E62E5A01F22E68018091B8028A3087
:102CC00028F080E02596EAE00C94DC358D8189308F
:102CD000C4F31A8219828A836B832C8363E070E0C9
:102CE000CE0102960E9404078983E0923101F0929E
:102CF000440110E000E030E020E044E050E0BE019C
:102D00006F5F7F4F85E00E940A168823D1F24E2D17
:102D100050E030E020E0B50186E00E940A168823EA
:102D200081F230E020E041E050E0BE016B5F7F4F78
:102D300087E00E940A16882321F20F2D10E09601E9
:102D400050E040E070E060E088E00E940A16BACFF0
:102D5000A4E0B0E0EEEAF6E10C94C6354091AC0296
:102D60005091AD026091AE027091AF022FB7F8940E
:102D70008091530490915404A0915504B09156044D
:102D80002FBF841B950BA60BB70B11E08436910562
:102D9000A105B10518F10E94D5106E5F7F4F8F4FCE
:102DA0009F4F69837A838B839C8310E000E030E03F
:102DB00020E044E050E0BE016F5F7F4F82E00E9460
:102DC0000A16182F882351F00E94B9066093AC02AE
:102DD0007093AD028093AE029093AF02812F249640
:102DE000E4E00C94E235A5E0B0E0E9EFF6E10C9404
:102DF000C4357B0101E010E09E012B5F3F4F50E0A6
:102E000040E070E060E080E00E940A16182F8823FE
:102E100009F456C04091A8025091A9026091AA02FB
:102E20007091AB022FB7F8948091530490915404A1
:102E3000A0915504B09156042FBF841B950BA60B8F
:102E4000B70B84369105A105B10548F464E070E044
:102E50008CE492E00E9404079D81891789F104E0C7
:102E600010E09E012F5F3F4F50E040E070E060E0D7
:102E700081E00E940A16082F64E070E08CE492E082
:102E80000E94040711E09D81981310E0102331F196
:102E90000E94B9066093A8027093A9028093AA02C7
:102EA0009093AB0289819A81AB81BC818093A4020B
:102EB0009093A502A093A602B093A70211E00EC0C2
:102EC00080914C0290914D02A0914E02B0914F0220
:102ED00089839A83AB83BC831111E4CF8091A402D0
:102EE0009091A502A091A602B091A702F70180835C
:102EF0009183A283B383812F2596E6E00C94E0357D
:102F00008F929F92AF92BF92EF92FF920F931F9377
:102F1000CF937B01942FB901A801F70180809180A4
:102F2000A280B380EFB7F894009153041091540439
:102F30002091550430915604EFBF081919092A0948
:102F40003B09043611052105310518F4C1E0992328
:102F500081F010E000E030E020E00E940A16C82F67
:102F6000882339F00E94B906F70160837183828358
:102F700093838C2FCF911F910F91FF90EF90BF9073
:102F8000AF909F908F900895A1E0B0E0EAECF7E158
:102F90000C94C6358091D303898320915F0290E021
:102FA00041E02817190609F440E001E010E09E0115
:102FB0002F5F3F4F64EB72E084E00E948017219600
:102FC000E4E00C94E235ABE0B0E0E9EEF7E10C941C
:102FD000C63588E0E9EBF4E0DE01119601900D9230
:102FE0008A95E1F78091F5029091F602A091F7029F
:102FF00089879A87AB8741E08B85811101C040E0CA
:103000000BE010E09E012F5F3F4F60EB72E083E02A
:103010000E94801781111092F7022B96E4E00C9425
:10302000E235A8E0B0E0E7E1F8E10C94C83566EEDF
:103030007EEF90E080E00E94C13660E082E090E0A8
:103040000E94A33660E083E090E00E94A3361092D5
:103050003D0260E074E184E090E00E94C13660E0EF
:1030600086E090E00E94A3366FEF87E090E00E9438
:10307000A33640E050E0BA0188E090E00E94B53607
:1030800060E084E290E00E94A33660E087E190E097
:103090000E94A33660E08CE090E00E94A33660E0DE
:1030A0008DE090E00E94A33619821A821B821C8256
:1030B0001D821E821F82188648E050E068E170E0A1
:1030C000CE0101960E94933640E050E0BA0180E2C2
:1030D00090E00E94B53680E00E94D5110E94EE116A
:1030E00040E050E0BA018FE090E00E94B53640E049
:1030F00050E0BA0183E190E00E94B5362896E2E004
:103100000C94E43528E030E043E060E086E30E9480
:103110002A320895CF93DF93D82FC62F0E948218AA
:103120008D2F80680E94A2328C2F0E94A2328AEBDF
:103130008A95F1F700C00E94D23283E492E00197B1
:10314000F1F700C00000DF91CF910895682F893713
:1031500008F068E76093B10191E09093B20190911B
:10316000A601992339F06150811101C064E08FE01C
:103170000E948A180895FB0180810E94A618089574
:103180009091B101911101C095E0282F880F330B68
:10319000A901490F511DCA011816190614F081E042
:1031A00090E00E94A6180895ACE0B0E0EAEDF8E1E6
:1031B0000C94C2354F83588769877A878B879C87A1
:1031C0008091A601882309F446C0809113028111E1
:1031D00007C060E080E50E948A1881E080931302B6
:1031E0000E94821880E50E94A2328AEB8A95F1F74C
:1031F00000C00E94BA320E94BA320E94BA327C01E8
:103200000E94BA3220E0E22AF82A0E94BA328C01E7
:103210000E94BA3220E0022B182B0E94D23285E0A5
:103220008A95F1F70000F894B7018091A901909177
:10323000AA010E94970A9093AA018093A901B8015C
:103240008091AB019091AC010E94970A9093AC01E0
:103250008093AB0178940E949F10882309F469C081
:103260000E94B906009114021091150220911602D5
:10327000309117026B017C01C01AD10AE20AF30AED
:1032800097018601083011052105310508F451C068
:1032900060931402709315028093160290931702A4
:1032A0000091B4011091B5012091B6013091B701A0
:1032B000601B710B820B930B6233710581059105C5
:1032C00080F41092AA011092A9011092AC01109200
:1032D000AB011092AE011092AD011092B0011092AC
:1032E000AF011091B3010E94EF10482FBE01695F3A
:1032F0007F4F89EA91E0112389F10E94C909009169
:10330000B3011091A6010E94EF1041E04827BE01D1
:10331000695F7F4F8DEA91E0011719F10E94C90999
:1033200086E0FE013796AEEBB1E001900D928A95F2
:10333000E1F786E0FE013796DE01119601900D92CD
:103340008A95E1F729813A814B815C816D817E818B
:1033500080E090E02C96E8E00C94DE350E94360A7E
:10336000CECF0E94360ADCCFCF93C82F0E9482189E
:103370008C2F0E94A2328FE792E00197F1F700C0F4
:1033800000000E94BA32C82F95E09A95F1F700002C
:103390000E94D23285E68A95F1F70000109213025E
:1033A0008C2FCF910895CF93DF930E942232269ADB
:1033B0000E9482186AE58AE30E948A182FEF80E74C
:1033C00092E0215080409040E1F700C0000082E090
:1033D0000E94B41983E00E94B41984E00E94B419D9
:1033E00085E00E94B41986E00E94B41960E080E193
:1033F0000E948A1880E00E94B419D82F81E00E94B0
:10340000B419C82F0E94D232D23419F481E0C130ED
:1034100009F080E081708093A601882321F064E0A8
:103420008FE00E948A18DF91CF9108951F920F922A
:103430000FB60F9211242F933F934F935F936F9387
:103440007F938F939F93AF93BF93CF93DF93EF932C
:10345000FF93D091E900DF708091EC00C82FC1701C
:1034600080FDC0E81092E9008091F000877F809392
:10347000F00078940E944F0C1092E9008091F000C7
:1034800088608093F000CD2BCF70C093E900FF914E
:10349000EF91DF91CF91BF91AF919F918F917F91EC
:1034A0006F915F914F913F912F910F900FBE0F90B1
:1034B0001F9018951F920F920FB60F9211242F9301
:1034C0003F934F935F936F937F938F939F93AF93AC
:1034D000BF93EF93FF938091E10082FF09C0809139
:1034E000E20082FF05C08091E1008B7F8093E100C4
:1034F0008091DA0080FF24C08091D80080FF20C036
:103500008091DA008E7F8093DA008091D90080FF6D
:103510009DC080E189BD82E189BD09B400FEFDCF77
:1035200081E08093650480915704811109C00E9455
:103530004A050E94EB058091E20084608093E200DE
:103540008091E10080FF17C08091E20080FF13C0EE
:103550008091E2008E7F8093E2008091E2008061A2
:103560008093E2008091D80080628093D80019BCDB
:1035700085E0809365048091E10084FF2BC08091F9
:10358000E20084FF27C080E189BD82E189BD89B561
:10359000982F917080FFFBCF8091D8008F7D809312
:1035A000D8008091E1008F7E8093E1008091E2005D
:1035B0008F7E8093E2008091E20081608093E20040
:1035C00080916604882309F447C084E080936504F1
:1035D000809165048091E10083FF27C08091E20023
:1035E00083FF23C08091E100877F8093E10082E028
:1035F00080936504109266048091E1008E7F809331
:10360000E1008091E2008E7F8093E2008091E200F1
:1036100080618093E20042E060E080E00E94B905B2
:103620008091F00088608093F000FF91EF91BF914E
:10363000AF919F918F917F916F915F914F913F914A
:103640002F910F900FBE0F901F90189519BC1092DC
:1036500065041092570474CF8091E30087FD93E0D6
:1036600090936504B5CF78941F921FB61F921124D2
:103670008F939F93AF93BF93809153049091540481
:10368000A0915504B09156040196A11DB11D8093DF
:10369000530490935404A0935504B0935604BF91DF
:1036A000AF919F918F911F901FBE1F9018959C0105
:1036B0004FB7F8948091530490915404A09155040D
:1036C000B09156044FBF821B930B08952FB7F89407
:1036D0008091530490915404A0915504B0915604E4
:1036E0002FBF08952F923F925F926F927F928F9299
:1036F0009F92AF92BF92CF92DF92EF92FF920F9381
:103700001F93CF93DF938091D603882309F4FEC0E3
:103710008091D4039091D5030E94571BC29708F45F
:10372000D5C00E94661B9093D5038093D40384EC8C
:1037300094E09093CB068093CA060E949F10882342
:1037400009F401C18FE893E00E94C60B88EB0E9448
:10375000400B8091BD010E94650A0E94400B89EBDD
:103760000E94400B8091BC010E94650A0E94400BA0
:103770008CE893E00E94C60B8091BA019091BB0146
:1037800054E0969587955A95E1F70E94650A0E9444
:10379000400B8091BA010E94650A0E94400B89E8A3
:1037A00093E00E94C60B84EC91E00E94A60F8EEA83
:1037B00093E00E94C60B8091C0010E946C0A0E9497
:1037C000A60F8091C1010E946C0A0E94A60F8091F1
:1037D000C3010E946C0A0E94A60F8091C2010E9440
:1037E0006C0A0E94A60F86EA93E00E94C60B8091A5
:1037F000B101811101C085E00E946C0A01960E940E
:10380000A60F82EA93E00E94C60B8091B90188233B
:1038100031F0813009F48CC089E993E002C08FE96E
:1038200093E00E94C60B8091B301882309F483C002
:1038300087EB93E00E94C60B85E993E00E94C60BDC
:103840008091B801811101C087E0805D0E94400B2A
:103850008DEB93E00E94C60BC1E0D0E08091AC03F9
:10386000882309F46BC090E00C2E02C095958795D3
:103870000A94E2F780FF62C08C2F0E94650A0E94C2
:10388000400B2196C830D10549F780E20E94400BD9
:103890008AEB93E00E94C60B80916901882309F4AA
:1038A0004FC087EB93E00E94C60B80916B01909113
:1038B0006C0168EE73E00E94A435862F0E946C0AAA
:1038C00001960E94A60F83E70E94400B8091C204DC
:1038D0009091C304892B09F04CC08091D3038823B5
:1038E000A9F00E94B9060091CF031091D003209156
:1038F000D1033091D203601B710B820B930B6F3F8E
:103900007F4F8F4F9F4710F40E941D13DF91CF917F
:103910001F910F91FF90EF90DF90CF90BF90AF90ED
:103920009F908F907F906F905F903F902F90089521
:103930008CE993E076CF84EB93E07CCF80EB9FCF54
:1039400084EB93E0B0CFC0E9D0EFDC0F83EC93E0E1
:103950000E94C60B11E01D0F8D2F0E94400BD12F2E
:103960001C13F8CF80E00E94D40BC05FC03C61F70D
:10397000ADCF8091D603882309F4AFCF8091CE03D9
:103980008111ABCF0E9438132091C2043091C3043F
:103990002115310509F4A1CF80E041E050E0082F66
:1039A00010E01A01082E02C0220C331C0A94E2F720
:1039B000B10162237323672B11F48F5FF0CF9091D5
:1039C000CD0390FF95C0880F880F880F80937701F3
:1039D00010927A01895F8093780183E080937B0164
:1039E00024E630E047E050E065E771E088E70E94B8
:1039F0009C33892B09F071CFA80125E0440F551F96
:103A00002A95E1F78091CD0380FF84C0EDEAF3E0D1
:103A100080E2DF011D928A95E9F7A0EFB1E00CEE9C
:103A200011E084EFC82E81E0D82E97E0592E77243C
:103A300073948D91E80129918E01240F352F311D4A
:103A40002C533B4FE82FF0E0E355FC4F90E080E033
:103A5000652C681A872C082E01C0880C0A94EAF796
:103A60007901A12CE701B9907E01B820662D6A1971
:103A70006770962E062E000C770BDB2D01C0DD0F34
:103A80009A94EAF77195619571096770772701C07B
:103A9000B6946A95EAF7BD2A6081962E9B2890829B
:103AA000A39468E0A612DECF019631968830910586
:103AB00079F6CA16DB0609F0BCCF04E610E020E276
:103AC00030E04DEA53E060E488E70E94BD33892B83
:103AD00009F003CFE101C095D0958091C204909187
:103AE000C304C823D923D093C304C093C204F5CE22
:103AF0008295880F80768093770198013695279577
:103B00003695279520937A01815E809378012093E2
:103B10007B0166CF4C535B4F04E610E020E230E0BF
:103B2000D2CFAEE1B0E0E7E9FDE10C94C7354091BA
:103B3000EE025091EF026091F0027091F1028091DB
:103B4000F2029091F3020E94D4182093EE02309377
:103B5000EF024093F0025093F1026093F2027093EF
:103B6000F30286E0EEEEF2E0DE01179601900D9290
:103B70008A95E1F786E0FE013796DE011D960190F9
:103B80000D928A95E1F786E0FE013D96DE011196E1
:103B900001900D928A95E1F786E0FE013196AEEE36
:103BA000B2E001900D928A95E1F786E0EEEEF2E048
:103BB000DE01599601900D928A95E1F786E0FE01AB
:103BC0007996DE01179601900D928A95E1F786E0CD
:103BD000FE013796DE01119601900D928A95E1F76C
:103BE00086E0FE013196DE01539601900D928A9592
:103BF000E1F786E0FE017396DE01179601900D92C3
:103C00008A95E1F786E0FE013796AEEEB2E00190CC
:103C10000D928A95E1F786E0EEEEF2E0DE0117966E
:103C200001900D928A95E1F780916901882309F44A
:103C300045C080916E0190916F010E94571B2091A9
:103C40006D0128171906D0F58091700190917101CE
:103C50000E94571B893C910588F189859A85892B9B
:103C60009B85892B9C85892B9885892B91E009F46C
:103C700090E0909372010E94E3071091AC038823B7
:103C800051F10E94661B90936F0180936E01109218
:103C900071011092700180916A01111105C0882391
:103CA00069F00E9498150AC0212F30E0082E02C04A
:103CB000359527950A94E2F720FFF3CF0E94D00AAA
:103CC00081112FC08091ED021092ED0281706E96ED
:103CD000E3E00C94E33580916A01111118C0811161
:103CE000EDCF80916E0190916F010E94571B209142
:103CF0006B0130916C012817390700F780916A0138
:103D00000E94741510926F0110926E01D7CF212F6F
:103D100030E002C0359527958A95E2F720FFCECF97
:103D2000E0CF81E090E0D0CFA3E1B0E0EAE9FEE1AE
:103D30000C94BD358E01045F1F4F88E0D8011D92A1
:103D40008A95E9F78EECC82E81E0D82EF12CE12C73
:103D5000AA24A394B12C28ED822E21E0922EF60104
:103D600081916F018F3F09F442C0F894E82FE295EA
:103D7000EF70F0E021A18F70A50102C0440F551F24
:103D80008A95E2F7CA01922F982B91A392A1809570
:103D9000892382A3789400C0E2EDF1E0712C31E038
:103DA00021912F3F09F46BC0A22FA295AF70B0E014
:103DB00090968C9190E02F7002C0959587952A95EA
:103DC000E2F780FD5CC0832F782A330F8E169F06A2
:103DD00039F7F601319780818F3F11F00E943F083B
:103DE00050EA5A95F1F7F801EE0DFF1D70828FEF42
:103DF000E81AF80AA4E0EA16F10409F0B0CF48E0A6
:103E000050E0B8018DEB92E00E946936009741F0D6
:103E100028E0F801ADEBB2E001900D922A95E1F7B0
:103E20000091C602892B69F181E0809342020E94D1
:103E3000661B9093410280934002809140029091D2
:103E400041020E94571B059700F110E00C521D4FD4
:103E500044E050E06DEB72E0C8010E946936B12C7D
:103E6000892B51F084E0EDEBF2E0D80101900D9246
:103E70008A95E1F7BB24B3941092420207C080E018
:103E8000A3CF809142028111D8CFB12C0E949F1004
:103E9000A82EE091C602882309F489C019821A82EB
:103EA0001B821C820E2F10E00C521D4F8091B80215
:103EB0008A3008F046C043EF56E1BE016F5F7F4F86
:103EC000C8010E946C10882309F460C048EA56E1DA
:103ED000BE016F5F7F4FC8010E946C10882309F4F8
:103EE00055C043EE57E1BE016F5F7F4FC8010E948E
:103EF0006C10882309F44AC044EC57E1BE016F5F9F
:103F00007F4FC8010E946C10882309F43FC01092B3
:103F1000B8028091C50290E044E050E0BE016F5FBE
:103F20007F4F8C529D4F0E94693621E020934902B9
:103F3000892BF1F4A12C8A2D8B296396EDE00C944A
:103F4000D93580914302909144020E94571B843FCF
:103F5000914008F0B0CF80914902882359F384E062
:103F6000FE013196DF011D928A95E9F71092490210
:103F7000E091C502F0E0EC52FD4F89819A81AB815E
:103F8000BC8180839183A283B383D5CF8091B80213
:103F90008F3F31F08F5F8093B8028A3008F4B9CF39
:103FA0000E94661B9093440280934302D4CFF0E0BA
:103FB000EC52FD4F84E0ACE4B2E001900D928A95A2
:103FC000E1F764E070E08CE492E00E9404078093E3
:103FD0004B02C0905002D0905102E0905202F090FB
:103FE00053028091450290914602A0914702B09100
:103FF0004802C816D906EA06FB06D1F0C09245026F
:10400000D0924602E0924702F09248020E949F102E
:1040100081110EC00E94B906C61AD70AE80AF90A29
:10402000C092B902D092BA02E092BB02F092BC02F6
:104030008BE0E4E5F2E0DE01119601900D928A95A5
:10404000E1F79981892F86950A81FB80EC801B8599
:1040500010925E021123A1F010FF0AC090FF17C05A
:104060009091B90491609093B90460E00E94A51406
:1040700011FF06C020E04E2D6F2D802F0E94861369
:1040800080915F02882331F00E94381354CF0E9440
:104090005F10EECF0E941D134ECFA8E0B0E0E3E525
:1040A000F0E20C94BA358C01DC0114968C918823D3
:1040B00009F4B2C061E0C8010E94A1127C01F801BC
:1040C000D580DD2009F469C197578038910508F043
:1040D00064C1FFE0FE1508F48FC08FEF93E00E94EB
:1040E0007F36811189C0E9E0AE2EE2E0BE2EE110FC
:1040F0004DC0FE01339686E0DF011D928A95E9F7F7
:104100007AE0472E7501BFEFEB1AFB0AC5010E944A
:104110007F3689831A82882309F46EC0813009F0C2
:104120007FC06501E2E0CE0ED11CC7010E947F3640
:104130008A83882309F460C09FEF980F9330A0F51D
:10414000F3E0AF0EB11CC6010E947F368B8388233B
:1041500009F452C01C82DE0111967D01F701208115
:10416000222381F2213009F0BAC0918182819130FD
:1041700009F058C0F2E0EF0EF11C65E070E0893301
:1041800011F460E570E00E94341153C0A11424E0E2
:10419000B20691F1C5010E947F36811101C0EA94F7
:1041A0003FEFA31AB30AA3CF56018430A1F662E011
:1041B000E62EF12C56012FEFA21AB20AC6010E9478
:1041C0007F36E1E0F0E0EC0FFD1FEE0DFF1D808378
:1041D000882391F08C3741F4E2E0F0E0EC0FFD1F12
:1041E000EE0DFF1D1082B7CF3FEFE31AF30A650112
:1041F00087E0E816F104F1F68091F402877061F02F
:10420000D80115968C91882339F08091C80282FFDD
:1042100003C082E00E9481152896E0E10C94D63517
:10422000570199CF923039F522E0E20EF11C0E943D
:104230004C0FFFEFEF1AFF0A8FE99FE00197F1F7AC
:1042400000C00000AFE9BFE01197F1F700C0000027
:10425000EFE9FFE03197F1F700C000008FE99FE040
:104260000197F1F700C00000AFE9BFE01197F1F747
:1042700000C0000073CF933031F432E0E30EF11C44
:104280000E94200FD6CF943021F08FEFE81AF80A61
:10429000D0CF92E0E90EF11C30E020E0B7016F5F73
:1042A0007F4FD70111964C918053990B8A3091051D
:1042B00058F02150310908F4BCCFEFE9FFE0319705
:1042C000F1F700C00000F5CF429EF001439EF00DD3
:1042D00011249C012E0F3F1F842F7B01DFCFE22F83
:1042E000F0E0E755FE4F5490822F8695869586958F
:1042F00090E0FC01E756FE4F64902770712C022E6F
:1043000002C0759467940A94E2F731E0632277243F
:10431000FC01E757FE4F8490912C022E02C0959429
:1043200087940A94E2F7A1E08A229924FC01E758D5
:10433000FE4FC490D12C02C0D594C7942A95E2F7C1
:10434000B1E0CB22DD246114710419F081EE0E94EA
:104350004C0F8114910419F086EE0E944C0FE9E392
:1043600065E070E05E1202C060E570E0852D0E949D
:1043700034118114910419F086EE0E94200F61140B
:10438000710419F081EE0E94200FC114D10409F4C8
:1043900050CF65E070E08CE2F6CE80916901882311
:1043A00009F46FC0B0E2EB16B2E5FB0608F052C0AC
:1043B000E114E2E5FE0608F0B7C0E114F0E4FF0600
:1043C000E0F5E11420E2F20608F0DAC030EEE31680
:1043D000F10450F088EEE816F10408F44DC0E11441
:1043E00091E0F90608F048C0F8018481882309F4B7
:1043F00043C0F7E0EF16FEE7FF0609F4ACC0C701C3
:104400008D5C9109439708F4A6C00E94E3078111CF
:1044100033C0DD2059F080916A012091AC03211155
:10442000B6C0882309F4BCC00E94AA0A0E94661B79
:1044300090937101809370011FC0E114A0E5FA060A
:1044400008F08DC0F8018681807F09F099C08F2D1A
:1044500099278BC0B0E8EB16B2E5FB0608F03BC02D
:10446000E0E6EE16E2E5FE0608F05EC0F0E4EF16C8
:10447000F2E5FF0608F466C08091740187FD109292
:104480007401F092BB01E092BA01D8018D919C9128
:1044900011979093BD018093BC01F7013497E533E8
:1044A000F10508F086C0E75DFD4FE49115968C910B
:1044B00020EB811102C02E2FE0EBA4ECB1E090E0E4
:1044C00080E03D9132136FC08A559E4FDC015E96AD
:1044D000EC93F70175C020ECE21622E5F20660F2DB
:1044E00030EEE31632E5F30608F07ECF20916A0144
:1044F000C7018F7199272817190609F0BDCF8D2D97
:104500000E94CC07D80116968C911697807F803533
:1045100009F0B2CF15968C91882361F180917401D6
:10452000815080937401A8CF20916A01C7018F71D7
:1045300099272817190609F09FCFD1109DCF0E9407
:10454000DA079ACF20916A01C7018F71992728173E
:10455000190609F091CF8D2D0E94CC078DCFC70190
:1045600055E0969587955A95E1F78F709927209198
:104570006A01EDCF0E94DA07809174018F5FD1CF7D
:10458000D80116968C91807F09F476CF2DCF30E03C
:10459000082E02C0359527950A94E2F720FF44CFF4
:1045A0000E94741541CF01968630910509F089CF9C
:1045B00090CFC7019A95F70181159F4108F4FF2715
:1045C000D80115968C91E13DF10538F0E93DF105F2
:1045D00070F0E730BEE7FB0701F1882361F0FE577A
:1045E000E031F10540F4ED51F94C0C941D36682F83
:1045F0008E2F0E94290BF8018581811179C380914A
:1046000058048272F701E052F847E531F10508F0ED
:10461000E2C0ED50F94C0C941D360E94B509EBCF69
:1046200080E00E94A6181092B80180E00E94C70A9C
:1046300080E197E20E94B90ADFCD4091B10120915B
:10464000B80120FB47F9269523708091690180FB12
:1046500022F980916B0190916C0164EF71E00E94EE
:10466000A4355FEF560F550F550F550F522B609124
:10467000B901637070E08FE090E00E94B536BCCD68
:1046800081E00E94C018B8CD8FEFFBCF8AE0F9CF50
:1046900086EFF7CF9091B30181E089270E94B50999
:1046A000ABCD8091B801811101C087E08F5F1816F2
:1046B0000CF081E0883008F087E08093B8019CCD51
:1046C0008091B801811101C087E08150F0CF81E075
:1046D0008093B90191CD1092B9018ECD82E0F8CFCF
:1046E0009091690181E089270E94C70A85CD809158
:1046F0006B0190916C01C2969DCF80916B0190915E
:104700006C01C2978436910508F094CF84E690E05E
:1047100091CF8091B90480FF1CC0282F2E7F209359
:10472000B9043091BA044091BB045091BC0460912B
:10473000BD047091BE048091BF049091C0040E949A
:1047400060138091F70281608093F7020E94141039
:1047500053CD81608093B90461E086950E94A514D1
:104760004BCD44EA55E16EEA75E10E941A0744CD4B
:104770004EEA55E164EA75E1F8CF4DE554E167E6AC
:1047800074E1F3CF47E654E16DE574E1EECF43E425
:1047900054E160E574E1E9CF40E554E163E474E19C
:1047A000E4CF49E254E166E374E1DFCF46E354E14C
:1047B00069E274E1DACF41E754E16BE874E1D5CF07
:1047C0004BE854E161E774E1D0CF61E081E0C6CF0E
:1047D0000E94B91511CDF7E7EF16FCE7FF0609F4C3
:1047E0004FC028E7E2162CE7F20609F44DC0F801A5
:1047F00087819085009709F48FC00E9456087C013C
:10480000F801A580968092943FE093228091F40273
:104810008770F1F0CA2CAA20E1F08F2D807F8034C0
:1048200051F080E28E0D883098F0911004C08F2DE9
:10483000807E803269F08091C80282FF09C082E0E8
:104840000E9481158091F4028770CC24C394811159
:10485000C12CBF2CB2942FE0B222FBE0FB1508F470
:10486000D5C0EB2DF0E0E85FF84C0C941D3681E0EC
:104870000E94981543E062E081E00E945415BCCC90
:1048800081E00E947415F6CF82E0FBCF33E0E3169F
:104890003CE7F30671F160F4E1149CE7F906D1F00E
:1048A000A1E0EA16ACE7FA0609F0A1CF0E944A118E
:1048B000BBE5EB16BCE7FB0669F1ECE5EE16ECE7B1
:1048C000FE06F1F0FAE5EF16FCE7FF0609F08FCFE0
:1048D00081E01DC0109258040E94430C2FEF34E376
:1048E0008CE0215030408040E1F700C000000E9481
:1048F000A8066FEF7FEF90E080E00E94C136D6CF30
:104900008091C80282FB882780F991E089270E9464
:10491000E7156DCF80E0FBCF8581E080F1808823B3
:1049200069F0C7010E943B12D82E682FC7010E9470
:104930006A09B7018D2D0E942D125FCFC7010E9419
:104940003609D82EF6CF2F2D2F70D22E8F2D807FA7
:1049500019F0D29490EFD922AA20B9F0DD2069F0A5
:1049600080E28E0D883010F0E11009C0809158046B
:10497000D82AD09258040E94060C8E2D45C08091F2
:10498000D903D82AD092D903F6CF8E2D0E94200FBA
:10499000DD20E1F180E28E0D883010F0E11004C0DE
:1049A0008D2D0E94250906C0D0948091D903D8226C
:1049B000D092D9030E94060C29C03F2D3F70D32E00
:1049C0008F2D807F803219F0D29480EFD822EE2094
:1049D00059F081E0E81609F471C0AA2009F47DC0FD
:1049E000992009F440C0C9CF8091C80282FD37C028
:1049F000AA2079F1DD2039F080915804D82AD0928C
:104A000058040E94060C80E00E944C0FAB2DA85069
:104A1000BB0B149710F40E94C410CC20A9F0809115
:104A2000F40280FD11C0F801158286958695869561
:104A30000E949815C8010E944D208091F40286952D
:104A4000869586950E94741560E0C8010E94A112A7
:104A5000E3CB80E00E94200FDD20C1F2A1CFAA208D
:104A600099F0911004C08D2D0E94160FCFCF91E0C8
:104A70009912CCCF80913C029D2D9823D91631F20A
:104A8000D82AD0923C02C2CF9110C0CF8D2D0E9467
:104A90000F0F90913C028D2D892329F08D2D80954B
:104AA000892380933C02809118029D2D982309F45C
:104AB000ADCFD094D822D0921802A8CFAA2029F046
:104AC000A5E0A91508F4A2CFCECFB4E0B91508F43B
:104AD0009DCF8D2D0E940F0F99CF9920D1F3E9E33F
:104AE000EE1201C1FFEF27EE33E0F15020403040DD
:104AF000E1F700C000008E2D0E94200F87CF6A2DA5
:104B00008E2D0E94290B82CF8F2D837091F5A110DD
:104B10007DCF4E2D429546954770440F440F8E2D04
:104B20008F70042E01C0880F0A94EAF72E2D207191
:104B3000E4FE07C02FE030E001C0220F4A95EAF7FB
:104B400020953F2D369536953370323069F050F40C
:104B500040913D02313029F0822B84230E94A1092B
:104B600055CF842B822BFACF282B80913D028227B0
:104B7000F5CF8695AA2011F08F2D8170882309F436
:104B800045CF4E2D429546954770440F440F8E2DCC
:104B90008F70042E01C0880F0A94EAF72E2D207121
:104BA000E4FE07C02FE030E001C0220F4A95EAF78B
:104BB00020953F2D369536953370323069F050F49C
:104BC0004091AC03313029F0822B84230E944F1591
:104BD0001DCF842B822BFACF282B8091AC03822708
:104BE000F5CF9F2D9F70F92EAA2029F0892F0E94C2
:104BF00098158E2D39CF8E2D0E940F0F8F2D0E946C
:104C0000741504CFA2EFEA16B1F1AE1570F0B0EF53
:104C1000EB16D1F0E1EFEE1691F0AA2009F45EC098
:104C20009110ABCE8F2D8F712AC0F3EFEF1651F19B
:104C300024EFE212F2CF8091C80282FD2FC08F2DA7
:104C40008F71AA20E1F21BC0AA2081F034E039154F
:104C500008F4DCCE2F2D2F7181E090E001C0880F89
:104C60002A95EAF79091AC038927B0CF85E08915A2
:104C700008F4CCCEEFCF8F2D8F71A110C0CF0E9442
:104C80009815C4CE80E0AA2009F4A0CF9F2D9F7173
:104C900081E001C0880F9A95EAF798CFAA2099F091
:104CA0009F2D9F71F92E892F0E9498158091C8021F
:104CB00082FF07C0A8E0FA9EC001112483608093A0
:104CC000F4028F2DDCCF81E00E948115B1E0B9158F
:104CD00008F09CCE82E00E94811598CE9110FFCE04
:104CE0008F2D8F718CCF8FE19EE40197F1F701CF6B
:104CF000F7E7EF16FCE7FF0609F4B9CD28E7E2165F
:104D00002CE7F20609F0C2CD82E0B2CDCF93DF935B
:104D100080913102807F09F04DC08091300288235C
:104D200009F448C0E091B80450916F04C0912C027E
:104D3000D0912B0260912D0270912E0249E05E17F6
:104D4000C9F18E2F90E0E49FF0011124E059FB4F50
:104D50002481222391F1489FF001499FF00D1124F5
:104D6000DF01A059BB4F11962C9111972C1325C030
:104D70002C912D1322C015962C91159721111DC031
:104D800012962D913C91261B370B283C3105A8F437
:104D9000809131028F70806180933102EA58FB4F1D
:104DA00080818F70806180838BE292E00E944D2031
:104DB0000E942C09DF91CF910895FC013196E77094
:104DC000BECFA8E1B0E0E7EEF6E20C94BE358C0170
:104DD00086E0F801DE01539601900D928A95E1F785
:104DE000F8018481E5809BE2A92E92E0B92E909192
:104DF0002F02911128C0882319F1EE20F1F0C8018B
:104E00000E947712F82E8823C1F089E0F801D501BD
:104E100001900D928A95E1F780912F02813031F453
:104E200080912B0290912C020E946A120E94862689
:104E30008F2D6896ECE00C94DA35C8010E944D2065
:104E4000FF24F394F5CFD080C18082809380F090CE
:104E5000300220912D0230912E02A401421B530BEF
:104E6000FF2009F40DC1483C510508F0B6C0882365
:104E7000F9F290912C0280913102282F207F09F0C5
:104E80005FC0C9121DC090912B02D91219C0409168
:104E9000320250913302278130854217530781F443
:104EA000E11048C08F708061809331028BE292E004
:104EB0000E944D2080913102F8018683F12CB8CFF9
:104EC000E11038C06C2D8D2D0E942B056C2D8D2D81
:104ED0000E942B05E82E8111F1CFDB8ACC8A8B89C9
:104EE0009C890E946A12292F22952F70243058F431
:104EF0009F70223088F0992399F0F8019681907F75
:104F000079F4FE2C95CF2A5F2F70223068F0C8010B
:104F10000E944D20EF2CF5CF992311F0882389F3BF
:104F2000805E883070F3F3CF803F58F3815F833029
:104F300070F7E7CF80913102816080933102BECF5C
:104F4000C9121CC090912B02D91218C04091320294
:104F500050913302278130854217530779F4E110CD
:104F60000DC08683C8010E944D2089E0F801ABE2A4
:104F7000B2E001900D928A95E1F75ACFC8010E94E4
:104F80007712882309F459CFEE2009F456CF809187
:104F900031028032B8F020912B0230912C023B87F5
:104FA0002A879D868C8690912F029E871F86888BEC
:104FB00080913202909133029A8B898BCE010A96AE
:104FC0000E944D2089E0F801ABE2B2E001900D9221
:104FD0008A95E1F70E94862633CF90913102292FDE
:104FE000207F51F48BE292E00E944D2089E0F50190
:104FF00011928A95E9F762CF882309F419CF80913D
:105000002C028C1119C080912B02D81215C040912E
:10501000320250913302278130854217530761F4E1
:10502000E1100AC09683C8010E944D2089E0F50175
:1050300011928A95E9F7FCCEC8010E947712882365
:1050400009F4FBCEEE2009F4F8CE809131028032D3
:1050500008F4B8CF20912B0230912C023A83298397
:105060009C828B8290912F029D831E828F838091E0
:1050700032029091330299878887CE010196A0CFA2
:10508000483C510598F6882309F4DACEFE2CEE2030
:1050900009F4D3CE80912C028C1120C080912B0278
:1050A000D8121CC020913202309133028781908542
:1050B0002817390799F49091310290FD56CF907FCF
:1050C00009F453CF809131028683903F09F44ACF8F
:1050D000982F907F905F8F70892B43CFC8010E94DB
:1050E000771281116FCF80913102816080933102FC
:1050F000C8010E944D209CCEA2E1B0E0E2E8F8E2B7
:105100000C94C6350A871B872C873D874E875F879F
:10511000688B798B8A8BCE010A960E94E1268111D9
:105120000CC089E0FE013A96DE01119601900D92C5
:105130008A95E1F78E8581110BC019E08091B80442
:1051400090916F04891333C06296E4E00C94E235C9
:1051500020916F0430E0C901019687709927409132
:10516000B8044817190699F099E0929FD001939FCF
:10517000B00D1124A059BB4FFE01319601900D9244
:105180009A95E1F780936F040E942C09D6CF109274
:1051900058040E94430C10926F041092B80489E0E6
:1051A000EBE2F2E0DF011D928A95E9F7C6CF819F1D
:1051B000C001112480599B4F0E94E126882321F2CF
:1051C0008091B80490E00196877099278093B80485
:1051D000B5CFB0E0A0E0EFEEF8E20C94C1358091DD
:1051E000DB03882369F0C091DA03C12C8DE0D82E4F
:1051F0008091DB03C81748F01092DB031092DA03AA
:10520000CDB7DEB7E9E00C94DD35BB24B394BC0E1A
:10521000B092DA03EC2EF12CCD9DE0011124C452A2
:10522000DC4F8C81882361F18F819885892B21F453
:1052300089859A85019659F4088119812A813B81D3
:105240004C815D816E817F8188850E947C28DE9CF7
:10525000F001DF9CF00D1124E452FC4F14821092F7
:10526000D903C1100DC0CE010E947712811108C070
:105270008FE19EE40197F1F700C00000CC24C394B5
:10528000CB2DB6CF10924F0410924E0410929F0176
:1052900080914D0480934C040E94F3060E94E928FB
:1052A0000895B0E0A0E0E7E5F9E20C94B835C091CC
:1052B0004C04E7E0FE2E01E010E0FDE02F2EEE248E
:1052C000E39480914D048C1309C00E94E9280E9448
:1052D000F306CDB7DEB7E2E10C94D435D0E0FE01A1
:1052E000EE0FFF1FEC5BFB4F80819181F89EF00178
:1052F000F99EF00D1124E458FE4F248121115AC06B
:105300003090DB03ACEDB3E030E020E0412C5F01F6
:10531000231508F04DC01B966D907C901C97F501ED
:10532000808091804FEF5FEF512CC52CD12CF6017E
:10533000EE0FFF1FE80DF91D659174916616770653
:1053400009F4A601672B11F05394EFCF4F3F540798
:10535000B9F1B80102C0660F771F4A95E2F7462AF5
:10536000A801052C02C0440F551F0A94E2F74150D2
:1053700051094416150609F5229EF001239EF00DF1
:105380001124E452FC4FF89ED001F99EB00D112477
:10539000A458BE4F12962D913C91139730872783C6
:1053A00074E0748310821182928781871596EC9243
:1053B0000E94C5062196C37084CF14961C92149740
:1053C0002F5F3F4F1D96A4CFAEE1B0E0EAEEF9E2C9
:1053D0000C94B8354B8B5C8B6D8B7E8B8F8B988F41
:1053E00091111092D903188A198A1A8A86E0FE014F
:1053F0007396DE011A9601900D928A95E1F78E85DB
:10540000882381F061E0CE010A960E94A1129C01DE
:105410009F8520354CE7340789F4992311F181E009
:1054200080939F010A851B852C853D854E855F8570
:10543000688979898A890E947C28CBC021355CE7FC
:10544000350729F4992369F00E944229EBCF2235D0
:105450003C4739F4992329F080919F018111F4CFC1
:10546000DECF6A857B8580E00E942D124C01FCE72F
:10547000EF2EF1E0FF2E512CD12CC12CAA24A394A5
:10548000B12CB7E04B2EFE013196FA8FE98F332411
:105490003394F7014081518166246A94762C60E050
:1054A000262F30E0F901EE0FFF1FE40FF51F859165
:1054B00094918816990609F43901892B11F06F5FD0
:1054C000EFCF10E0FFEF6F167F0609F443C0F7013E
:1054D000448110919F01812F411180E0182F11709C
:1054E000F701258086819F85992309F4F2C0112355
:1054F00009F4EFC0211014C09501062C01C0220F41
:105500000A94EAF7822B86838091D7039091D8037F
:10551000C29730F422E330E03093D8032093D703CE
:10552000C50102C0880F991F6A95E2F70197F7013C
:1055300026812817190671F480914E0490914F042A
:10554000009709F44AC00E94571BC39708F445C04E
:10555000F7013482512AFFEFCF1ADF0A27E0E20E6B
:10556000F11C35E0C316D10409F093CF8F85882351
:1055700009F40EC1552009F40BC10E94661B9093DB
:105580004F0480934E048091DB03883010F591E046
:10559000980F9093DB0399E0FE013A96DE01119695
:1055A00001900D929A95E1F74DE0849FC00111247E
:1055B00084529C4F29E0FE013196DC0101900D924E
:1055C0002A95E1F72FEF3FEFFC0132872187948680
:1055D00083866E96E2E10C94D43580914C04609100
:1055E0004D04982FF0E0E0E0861314C090934C0433
:1055F000EE15FF0509F4AECF90E0FC01EE0FFF1FA2
:10560000EC5BFB4FD182C082019683709927809317
:105610004D04A0CF682E712CF301EE0FFF1FEC5B41
:10562000FB4F20813181429ED001439EB00D112459
:10563000A458BE4F2D913C9111973E8F2D8F00E0C5
:1056400070E0212CE22DF0E0EE0FFF1F2D8D3E8D3E
:10565000E20FF31F2591349121153105E1F0F70197
:105660000190F081E02DFC8FEB8F70E005C02417D6
:10567000350709F4012F7F5FE72FF0E0EE0FFF1FE2
:105680004B8D5C8DE40FF51F4591549141155105EB
:1056900071F72394D7CF0023C9F0F701721508F0F2
:1056A000FD013482EE16FF0621F490934C04102F76
:1056B00051CF891305C0AE17BF0711F49F5F9370D8
:1056C00093012F5F3F4F822F83708ECFF0E0E0E099
:1056D000F7CF90E021101FC0950102C0220F331FA9
:1056E0006A95E2F7215031098217930731F4442378
:1056F00009F44CC0C6010E94C506C501062C01C0B4
:10570000880F0A94EAF7982F9095F70186818923EC
:105710008683122D1FCFAC01062C02C055954795EC
:105720000A94E2F7BA01617077279C012150310990
:1057300082239323892B31F5672B21F1F701828195
:105740009381892BE1F0E98DFA8D242D11922A9510
:10575000E9F70E94661B282F8B839C8334E03D83EE
:10576000F70182819381782F8887998709811A812F
:105770003C8144E05E816F81892F0E947C28F70183
:105780001582BBCFF42FF1702F2EB7CF212EB5CFBE
:1057900090914C0480914D04981729F00E94512952
:1057A000511017CF3FCE0E94E92810924F0410925B
:1057B0004E040E94F306F4CFA6E0B0E0E2EEFBE276
:1057C0000C94C6350E94661B8C0180913E0290911C
:1057D0003F028017910781F019821A820E94661B8E
:1057E000682F49815A81792F80E090E00E94E42956
:1057F00010933F0200933E022696E4E00C94E235BB
:105800001F921FB61F9211248F939F93AF93BF9344
:1058100080915204811113C08091530490915404DB
:10582000A0915504B09156044196A11DB11D8093DD
:10583000530490935404A0935504B0935604BF911D
:10584000AF919F918F911F901FBE1F901895CDB75C
:10585000DEB7A6970FB6F894DEBF0FBECDBF85B7F3
:10586000806885BF85B7806885BF84B7877F84BF20
:105870000FB6F894A89580916000886180936000CD
:10588000109260000FBE80E890E00FB6F89480930D
:105890006100909361000FBE81E198E09093050252
:1058A000809304020E944A050E94EB058091E20069
:1058B00084608093E2007894809165048823A1F04D
:1058C0001091E9001F709091EC00892F817090FD7C
:1058D00080E8182B1092E9008091E80083FD0E9477
:1058E0004F0C1F701093E90082E084BD93E095BDDA
:1058F0009AEF97BD80936E001092B9021092BA028F
:105900001092BB021092BC020E94DA12811102C0F6
:105910000E94EE110E94EF1080930001809100011F
:10592000882309F468C01092A1018EE18093A2013E
:105930000E949F1081110E94423480910001809149
:10594000000194E0811190E09093C60284E0891BED
:105950008093C50284EF0E943F0885EF0E943F08B4
:1059600086EF0E943F0887EF0E943F0802ED11E09A
:10597000D8018D918D018F3F11F00E943F08B1E059
:10598000083D1B07A9F788E0E4EDF2E0DF01882E6F
:105990001D928A94E9F7EDEBF2E0DF011D928A9502
:1059A000E9F70E94FE15811102C00E94111882E0E1
:1059B00090E00E947F368093CA0284E090E00E94CB
:1059C0008D369093C8028093C7020E94941EEFE325
:1059D000FCE93197F1F700C000000E94941E80910D
:1059E000D40280FF0CC06FEF7FEF90E080E00E9458
:1059F000C1360E94A8068EE18093A10197CF83E073
:105A000090E00E947F360E94A1098091AC030E9421
:105A1000DC140E949F10882309F4A7C180E08093C2
:105A2000CD0380E88093C1040E94FC326BE070E0FB
:105A300085E792E00E94F3128823E9F18091CD037B
:105A400065E070E081FD93C180E792E00E94F3126F
:105A5000882389F16DE070E08EE592E00E94F312F8
:105A6000882349F10E94B906605A75418F4F9F4FB4
:105A70006093CF037093D0038093D1039093D203AC
:105A8000E4ECF4E080E092E0DF019C011D92215003
:105A90003040E1F7F093CB06E093CA068FEF9FEF1B
:105AA0009093C3048093C20481E08093D6038093D3
:105AB000D3031092CE038091C902811175C00E9458
:105AC000FE15811104C00E9411180E94CA1588E0B9
:105AD00090E00E9487364B015C0184E290E00E94D6
